{
  "_format": "hh-sol-artifact-1",
  "contractName": "KORTUSD",
  "sourceName": "contracts/stablecoin/KORTUSD.sol",
  "abi": [
    {
      "inputs": [
        {
          "internalType": "address",
          "name": "admin",
          "type": "address"
        }
      ],
      "stateMutability": "nonpayable",
      "type": "constructor"
    },
    {
      "anonymous": false,
      "inputs": [
        {
          "indexed": true,
          "internalType": "address",
          "name": "owner",
          "type": "address"
        },
        {
          "indexed": true,
          "internalType": "address",
          "name": "spender",
          "type": "address"
        },
        {
          "indexed": false,
          "internalType": "uint256",
          "name": "value",
          "type": "uint256"
        }
      ],
      "name": "Approval",
      "type": "event"
    },
    {
      "anonymous": false,
      "inputs": [
        {
          "indexed": false,
          "internalType": "string",
          "name": "reason",
          "type": "string"
        }
      ],
      "name": "MintingPaused",
      "type": "event"
    },
    {
      "anonymous": false,
      "inputs": [],
      "name": "MintingResumed",
      "type": "event"
    },
    {
      "anonymous": false,
      "inputs": [
        {
          "indexed": false,
          "internalType": "address",
          "name": "account",
          "type": "address"
        }
      ],
      "name": "Paused",
      "type": "event"
    },
    {
      "anonymous": false,
      "inputs": [
        {
          "indexed": true,
          "internalType": "bytes32",
          "name": "role",
          "type": "bytes32"
        },
        {
          "indexed": true,
          "internalType": "bytes32",
          "name": "previousAdminRole",
          "type": "bytes32"
        },
        {
          "indexed": true,
          "internalType": "bytes32",
          "name": "newAdminRole",
          "type": "bytes32"
        }
      ],
      "name": "RoleAdminChanged",
      "type": "event"
    },
    {
      "anonymous": false,
      "inputs": [
        {
          "indexed": true,
          "internalType": "bytes32",
          "name": "role",
          "type": "bytes32"
        },
        {
          "indexed": true,
          "internalType": "address",
          "name": "account",
          "type": "address"
        },
        {
          "indexed": true,
          "internalType": "address",
          "name": "sender",
          "type": "address"
        }
      ],
      "name": "RoleGranted",
      "type": "event"
    },
    {
      "anonymous": false,
      "inputs": [
        {
          "indexed": true,
          "internalType": "bytes32",
          "name": "role",
          "type": "bytes32"
        },
        {
          "indexed": true,
          "internalType": "address",
          "name": "account",
          "type": "address"
        },
        {
          "indexed": true,
          "internalType": "address",
          "name": "sender",
          "type": "address"
        }
      ],
      "name": "RoleRevoked",
      "type": "event"
    },
    {
      "anonymous": false,
      "inputs": [
        {
          "indexed": true,
          "internalType": "address",
          "name": "from",
          "type": "address"
        },
        {
          "indexed": true,
          "internalType": "address",
          "name": "to",
          "type": "address"
        },
        {
          "indexed": false,
          "internalType": "uint256",
          "name": "value",
          "type": "uint256"
        }
      ],
      "name": "Transfer",
      "type": "event"
    },
    {
      "anonymous": false,
      "inputs": [
        {
          "indexed": false,
          "internalType": "address",
          "name": "account",
          "type": "address"
        }
      ],
      "name": "Unpaused",
      "type": "event"
    },
    {
      "inputs": [],
      "name": "BURNER_ROLE",
      "outputs": [
        {
          "internalType": "bytes32",
          "name": "",
          "type": "bytes32"
        }
      ],
      "stateMutability": "view",
      "type": "function"
    },
    {
      "inputs": [],
      "name": "DEFAULT_ADMIN_ROLE",
      "outputs": [
        {
          "internalType": "bytes32",
          "name": "",
          "type": "bytes32"
        }
      ],
      "stateMutability": "view",
      "type": "function"
    },
    {
      "inputs": [],
      "name": "DEPEG_THRESHOLD",
      "outputs": [
        {
          "internalType": "uint256",
          "name": "",
          "type": "uint256"
        }
      ],
      "stateMutability": "view",
      "type": "function"
    },
    {
      "inputs": [],
      "name": "MINTER_ROLE",
      "outputs": [
        {
          "internalType": "bytes32",
          "name": "",
          "type": "bytes32"
        }
      ],
      "stateMutability": "view",
      "type": "function"
    },
    {
      "inputs": [],
      "name": "PAUSER_ROLE",
      "outputs": [
        {
          "internalType": "bytes32",
          "name": "",
          "type": "bytes32"
        }
      ],
      "stateMutability": "view",
      "type": "function"
    },
    {
      "inputs": [
        {
          "internalType": "address",
          "name": "owner",
          "type": "address"
        },
        {
          "internalType": "address",
          "name": "spender",
          "type": "address"
        }
      ],
      "name": "allowance",
      "outputs": [
        {
          "internalType": "uint256",
          "name": "",
          "type": "uint256"
        }
      ],
      "stateMutability": "view",
      "type": "function"
    },
    {
      "inputs": [
        {
          "internalType": "address",
          "name": "spender",
          "type": "address"
        },
        {
          "internalType": "uint256",
          "name": "amount",
          "type": "uint256"
        }
      ],
      "name": "approve",
      "outputs": [
        {
          "internalType": "bool",
          "name": "",
          "type": "bool"
        }
      ],
      "stateMutability": "nonpayable",
      "type": "function"
    },
    {
      "inputs": [
        {
          "internalType": "address",
          "name": "account",
          "type": "address"
        }
      ],
      "name": "balanceOf",
      "outputs": [
        {
          "internalType": "uint256",
          "name": "",
          "type": "uint256"
        }
      ],
      "stateMutability": "view",
      "type": "function"
    },
    {
      "inputs": [
        {
          "internalType": "address",
          "name": "from",
          "type": "address"
        },
        {
          "internalType": "uint256",
          "name": "amount",
          "type": "uint256"
        }
      ],
      "name": "burn",
      "outputs": [],
      "stateMutability": "nonpayable",
      "type": "function"
    },
    {
      "inputs": [
        {
          "internalType": "address",
          "name": "account",
          "type": "address"
        },
        {
          "internalType": "uint256",
          "name": "amount",
          "type": "uint256"
        }
      ],
      "name": "burnFrom",
      "outputs": [],
      "stateMutability": "nonpayable",
      "type": "function"
    },
    {
      "inputs": [],
      "name": "decimals",
      "outputs": [
        {
          "internalType": "uint8",
          "name": "",
          "type": "uint8"
        }
      ],
      "stateMutability": "view",
      "type": "function"
    },
    {
      "inputs": [
        {
          "internalType": "address",
          "name": "spender",
          "type": "address"
        },
        {
          "internalType": "uint256",
          "name": "subtractedValue",
          "type": "uint256"
        }
      ],
      "name": "decreaseAllowance",
      "outputs": [
        {
          "internalType": "bool",
          "name": "",
          "type": "bool"
        }
      ],
      "stateMutability": "nonpayable",
      "type": "function"
    },
    {
      "inputs": [
        {
          "internalType": "bytes32",
          "name": "role",
          "type": "bytes32"
        }
      ],
      "name": "getRoleAdmin",
      "outputs": [
        {
          "internalType": "bytes32",
          "name": "",
          "type": "bytes32"
        }
      ],
      "stateMutability": "view",
      "type": "function"
    },
    {
      "inputs": [
        {
          "internalType": "bytes32",
          "name": "role",
          "type": "bytes32"
        },
        {
          "internalType": "address",
          "name": "account",
          "type": "address"
        }
      ],
      "name": "grantRole",
      "outputs": [],
      "stateMutability": "nonpayable",
      "type": "function"
    },
    {
      "inputs": [
        {
          "internalType": "bytes32",
          "name": "role",
          "type": "bytes32"
        },
        {
          "internalType": "address",
          "name": "account",
          "type": "address"
        }
      ],
      "name": "hasRole",
      "outputs": [
        {
          "internalType": "bool",
          "name": "",
          "type": "bool"
        }
      ],
      "stateMutability": "view",
      "type": "function"
    },
    {
      "inputs": [
        {
          "internalType": "address",
          "name": "spender",
          "type": "address"
        },
        {
          "internalType": "uint256",
          "name": "addedValue",
          "type": "uint256"
        }
      ],
      "name": "increaseAllowance",
      "outputs": [
        {
          "internalType": "bool",
          "name": "",
          "type": "bool"
        }
      ],
      "stateMutability": "nonpayable",
      "type": "function"
    },
    {
      "inputs": [
        {
          "internalType": "address",
          "name": "to",
          "type": "address"
        },
        {
          "internalType": "uint256",
          "name": "amount",
          "type": "uint256"
        }
      ],
      "name": "mint",
      "outputs": [],
      "stateMutability": "nonpayable",
      "type": "function"
    },
    {
      "inputs": [],
      "name": "mintingPaused",
      "outputs": [
        {
          "internalType": "bool",
          "name": "",
          "type": "bool"
        }
      ],
      "stateMutability": "view",
      "type": "function"
    },
    {
      "inputs": [],
      "name": "name",
      "outputs": [
        {
          "internalType": "string",
          "name": "",
          "type": "string"
        }
      ],
      "stateMutability": "view",
      "type": "function"
    },
    {
      "inputs": [],
      "name": "pause",
      "outputs": [],
      "stateMutability": "nonpayable",
      "type": "function"
    },
    {
      "inputs": [],
      "name": "paused",
      "outputs": [
        {
          "internalType": "bool",
          "name": "",
          "type": "bool"
        }
      ],
      "stateMutability": "view",
      "type": "function"
    },
    {
      "inputs": [
        {
          "internalType": "bytes32",
          "name": "role",
          "type": "bytes32"
        },
        {
          "internalType": "address",
          "name": "account",
          "type": "address"
        }
      ],
      "name": "renounceRole",
      "outputs": [],
      "stateMutability": "nonpayable",
      "type": "function"
    },
    {
      "inputs": [],
      "name": "resumeMinting",
      "outputs": [],
      "stateMutability": "nonpayable",
      "type": "function"
    },
    {
      "inputs": [
        {
          "internalType": "bytes32",
          "name": "role",
          "type": "bytes32"
        },
        {
          "internalType": "address",
          "name": "account",
          "type": "address"
        }
      ],
      "name": "revokeRole",
      "outputs": [],
      "stateMutability": "nonpayable",
      "type": "function"
    },
    {
      "inputs": [
        {
          "internalType": "bytes4",
          "name": "interfaceId",
          "type": "bytes4"
        }
      ],
      "name": "supportsInterface",
      "outputs": [
        {
          "internalType": "bool",
          "name": "",
          "type": "bool"
        }
      ],
      "stateMutability": "view",
      "type": "function"
    },
    {
      "inputs": [],
      "name": "symbol",
      "outputs": [
        {
          "internalType": "string",
          "name": "",
          "type": "string"
        }
      ],
      "stateMutability": "view",
      "type": "function"
    },
    {
      "inputs": [],
      "name": "totalSupply",
      "outputs": [
        {
          "internalType": "uint256",
          "name": "",
          "type": "uint256"
        }
      ],
      "stateMutability": "view",
      "type": "function"
    },
    {
      "inputs": [
        {
          "internalType": "address",
          "name": "to",
          "type": "address"
        },
        {
          "internalType": "uint256",
          "name": "amount",
          "type": "uint256"
        }
      ],
      "name": "transfer",
      "outputs": [
        {
          "internalType": "bool",
          "name": "",
          "type": "bool"
        }
      ],
      "stateMutability": "nonpayable",
      "type": "function"
    },
    {
      "inputs": [
        {
          "internalType": "address",
          "name": "from",
          "type": "address"
        },
        {
          "internalType": "address",
          "name": "to",
          "type": "address"
        },
        {
          "internalType": "uint256",
          "name": "amount",
          "type": "uint256"
        }
      ],
      "name": "transferFrom",
      "outputs": [
        {
          "internalType": "bool",
          "name": "",
          "type": "bool"
        }
      ],
      "stateMutability": "nonpayable",
      "type": "function"
    },
    {
      "inputs": [
        {
          "internalType": "string",
          "name": "reason",
          "type": "string"
        }
      ],
      "name": "triggerCircuitBreaker",
      "outputs": [],
      "stateMutability": "nonpayable",
      "type": "function"
    },
    {
      "inputs": [],
      "name": "unpause",
      "outputs": [],
      "stateMutability": "nonpayable",
      "type": "function"
    }
  ],
  "bytecode": "0x6080346200052857620020e580380391601f19601f93818582011683019360018060401b0391848610838711176200042c57808592604097885283396020948591810103126200052857516001600160a01b03811692908390036200052857620000686200052d565b91600b83526a12dbdc9d185b98481554d160aa1b858401526200008a6200052d565b96600788526612d3d4951554d160ca1b868901528351908282116200042c5760039182546001968782811c921680156200051d575b8a83101462000507578184849311620004b1575b5089908483116001146200044e5760009262000442575b505060001982851b1c191690861b1782555b88519283116200042c5760049384548681811c9116801562000421575b898210146200040c57828111620003c1575b5087918411600114620003585750829394959697986000936200034c575b505082851b92600019911b1c19161790555b60ff19908160065416600655600080526005938481528560002084600052815260ff8660002054161562000312575b7f65d7a28e3265b37a6474929f336521b332c1681b933f6cb9f3376673440d862a806000528582528660002085600052825260ff87600020541615620002d7575b507f9f2df0fed2c77648de5860a4cc508cd0818c85b8b8a1ab4ceeef8d981c8956a6806000528582528660002085600052825260ff876000205416156200029c575b507f3c11d16cbaffd01df69ce1c404f6340ee057498f5f00246190ea54220576a84894856000528082528660002085600052825260ff876000205416156200025f575b8651611b7790816200054e8239f35b8560005281528560002090846000525284600020918254161790553391600080516020620020c5833981519152600080a438808080808062000250565b8060005285825286600020856000528252866000208385825416179055843391600080516020620020c5833981519152600080a4386200020d565b8060005285825286600020856000528252866000208385825416179055843391600080516020620020c5833981519152600080a438620001cb565b600080528481528560002084600052815285600020828482541617905533846000600080516020620020c58339815191528180a46200018a565b01519150388062000149565b60008581528881209392918516905b818110620003ab575099848798999a9b9796971062000390575b50505050811b0190556200015b565b01519060f884600019921b161c191690553880808062000381565b8b83015185559387019391890191890162000367565b85600052886000208380870160051c8201928b881062000402575b0160051c019087905b828110620003f55750506200012b565b60008155018790620003e5565b92508192620003dc565b602286634e487b7160e01b6000525260246000fd5b90607f169062000119565b634e487b7160e01b600052604160045260246000fd5b015190503880620000ea565b908789941691866000528b6000209260005b8d8282106200049a575050841162000481575b505050811b018255620000fc565b015160001983871b60f8161c1916905538808062000473565b8385015186558c9790950194938401930162000460565b90915084600052896000208480850160051c8201928c8610620004fd575b918a91869594930160051c01915b828110620004ed575050620000d3565b600081558594508a9101620004dd565b92508192620004cf565b634e487b7160e01b600052602260045260246000fd5b91607f1691620000bf565b600080fd5b60408051919082016001600160401b038111838210176200042c5760405256fe608060408181526004918236101561001657600080fd5b600092833560e01c91826301ffc9a714610fe55750816306fdde0314610ef0578163095ea7b314610ec657816318160ddd14610ea757816323b872dd14610e6a578163248a9ca314610e3f578163282c51f314610e045781632921e8bb14610de75781632f2ff15d14610d3a578163313ce56714610d1e57816336568abe14610c8c5781633950935114610c3c5781633f4ba83a14610ba657816340c10f19146108e157816359ae340e146108965781635c975abb1461087257816361b242c5146107b957816370a082311461078257816379cc6790146107525781638456cb59146106f757816391d14854146106b057816395d89b41146105ad5781639dc29fac14610397578163a217fddf1461037c578163a457c2d7146102d4578163a9059cbb146102a3578163d539139314610268578163d547741f1461022557508063dd62ed3e146101dd578063e1a283d6146101b75763e63ab1e91461017a57600080fd5b346101b357816003193601126101b357602090517f65d7a28e3265b37a6474929f336521b332c1681b933f6cb9f3376673440d862a8152f35b5080fd5b50346101b357816003193601126101b35760209060ff60065460081c1690519015158152f35b50346101b357806003193601126101b357806020926101fa611087565b6102026110a2565b6001600160a01b0391821683526001865283832091168252845220549051908152f35b91905034610264578060031936011261026457610261913561025c600161024a6110a2565b938387526005602052862001546113b3565b611511565b80f35b8280fd5b5050346101b357816003193601126101b357602090517f9f2df0fed2c77648de5860a4cc508cd0818c85b8b8a1ab4ceeef8d981c8956a68152f35b5050346101b357806003193601126101b3576020906102cd6102c3611087565b60243590336115aa565b5160018152f35b905082346103795782600319360112610379576102ef611087565b918360243592338152600160205281812060018060a01b0386168252602052205490828210610328576020856102cd8585038733611718565b608490602086519162461bcd60e51b8352820152602560248201527f45524332303a2064656372656173656420616c6c6f77616e63652062656c6f77604482015264207a65726f60d81b6064820152fd5b80fd5b5050346101b357816003193601126101b35751908152602090f35b919050346102645780600319360112610264576103b2611087565b917f3c11d16cbaffd01df69ce1c404f6340ee057498f5f00246190ea54220576a84880855260209060058252838620338752825260ff8487205416156103ff578561026160243587611a1a565b859061040a336118d9565b855191610416836114bd565b6042835284830193606036863783511561059a57603085538351906001918210156105875790607860218601536041915b81831161051c575050506104ec576104e89386936104d4936104c560489461049c9a519a8576020b1b1b2b9b9a1b7b73a3937b61d1030b1b1b7bab73a1604d1b8d978801528251928391603789019101611038565b8401917001034b99036b4b9b9b4b733903937b6329607d1b603784015251809386840190611038565b010360288101875201856114ef565b5162461bcd60e51b8152928392830161105b565b0390fd5b50505080606493519262461bcd60e51b84528301526024820152600080516020611b228339815191526044820152fd5b909192600f81166010811015610574576f181899199a1a9b1b9c1cb0b131b232b360811b901a61054c85886118b2565b53881c92801561056157600019019190610447565b634e487b7160e01b825260118952602482fd5b634e487b7160e01b835260328a52602483fd5b634e487b7160e01b815260328852602490fd5b634e487b7160e01b815260328752602490fd5b8383346101b357816003193601126101b357805191809380549160019083821c928285169485156106a6575b60209586861081146106935785895290811561066f5750600114610617575b6106138787610609828c03836114ef565b519182918261105b565b0390f35b81529295507f8a35acfbc15ff81a39ae7d344fd709f28e8600b4aa8c65c6b64bfe7fe36bd19b5b82841061065c575050508261061394610609928201019486806105f8565b805486850188015292860192810161063e565b60ff19168887015250505050151560051b83010192506106098261061386806105f8565b634e487b7160e01b845260228352602484fd5b93607f16936105d9565b9050346102645781600319360112610264578160209360ff926106d16110a2565b90358252600586528282206001600160a01b039091168252855220549151911615158152f35b5050346101b357816003193601126101b35760207f62e78cea01bee320cd4e420270b5ea74000d11b0c9f74754ebdbfc544b05a2589161073561126d565b61073d6119d6565b600160ff19600654161760065551338152a180f35b5050346101b3573660031901126103795761026161076e611087565b6024359061077d82338361181a565b611a1a565b5050346101b35760203660031901126101b35760209181906001600160a01b036107aa611087565b16815280845220549051908152f35b9050346102645760203660031901126102645780359167ffffffffffffffff9182841161086e573660238501121561086e5783013591821161086a57366024838501011161086a577f75e6ad56dc4739e065c3c67ce693a466842e9e579a9868d68587e3aa4ba7487e9260249261082e61126d565b61010061ff001960065416176006558083519485936020855282602086015201848401378181018301869052601f01601f19168101030190a180f35b8380fd5b8480fd5b5050346101b357816003193601126101b35760209060ff6006541690519015158152f35b83346103795780600319360112610379576108af6110b8565b61ff0019600654166006557f3d8f1e35ab9c1153c218a35d9f2b4df5ae9e0f48a2f7bac54ccb49c0c5065e6e8180a180f35b9050346102645781600319360112610264576108fb611087565b906024928335917f9f2df0fed2c77648de5860a4cc508cd0818c85b8b8a1ab4ceeef8d981c8956a69384875260209460058652838820338952865260ff848920541615610a46575061094b6119d6565b60ff60065460081c166109f5576001600160a01b03169485156109b55750509181859361099b7fddf252ad1be2c89b69c2b068fc378daa952ba7f163c4a11628f55a4df523b3ef94600254611587565b60025585855284835280852082815401905551908152a380f35b601f9085606494519362461bcd60e51b85528401528201527f45524332303a206d696e7420746f20746865207a65726f2061646472657373006044820152fd5b5060278585608494519362461bcd60e51b85528401528201527f4b4f52545553443a204d494e54494e475f434952435549545f425245414b45526044820152665f41435449564560c81b6064820152fd5b859150868891610a55336118d9565b9091865192610a63846114bd565b60428452858401946060368737845115610b945760308653845190600191821015610b825790607860218701536041915b818311610b1957505050610aea57506104e89386936104d4936104c560489461049c9a519a8576020b1b1b2b9b9a1b7b73a3937b61d1030b1b1b7bab73a1604d1b8d978801528251928391603789019101611038565b9250505081606494519362461bcd60e51b8552840152820152600080516020611b228339815191526044820152fd5b909192600f81166010811015610b70576f181899199a1a9b1b9c1cb0b131b232b360811b901a610b4985896118b2565b53891c928015610b5e57600019019190610a94565b634e487b7160e01b825260118a528482fd5b634e487b7160e01b835260328b528583fd5b634e487b7160e01b8152603289528390fd5b634e487b7160e01b8152603288529050fd5b905034610264578260031936011261026457610bc06110b8565b6006549060ff821615610c02575060ff1916600655513381527f5db9ee0a495bf2e6ff9c91a7834c1ba4fdd244a5e8aa4e537bd38aeae4b073aa90602090a180f35b606490602084519162461bcd60e51b8352820152601460248201527314185d5cd8589b194e881b9bdd081c185d5cd95960621b6044820152fd5b5050346101b357806003193601126101b3576102cd602092610c85610c5f611087565b338352600186528483206001600160a01b03821684528652918490205460243590611587565b9033611718565b839150346101b357826003193601126101b357610ca76110a2565b90336001600160a01b03831603610cc357906102619135611511565b608490602085519162461bcd60e51b8352820152602f60248201527f416363657373436f6e74726f6c3a2063616e206f6e6c792072656e6f756e636560448201526e103937b632b9903337b91039b2b63360891b6064820152fd5b5050346101b357816003193601126101b3576020905160128152f35b9050346102645781600319360112610264573590610d566110a2565b908284526005602052610d6e600182862001546113b3565b828452600560209081528185206001600160a01b039093168086529290528084205460ff1615610d9c578380f35b82845260056020528084208285526020528320600160ff1982541617905533917f2f8788117e7eff1d82e926ec794901d17c78024a50270940304540a733656f0d8480a43880808380f35b5050346101b357816003193601126101b357602090516101f48152f35b5050346101b357816003193601126101b357602090517f3c11d16cbaffd01df69ce1c404f6340ee057498f5f00246190ea54220576a8488152f35b9050346102645760203660031901126102645781602093600192358152600585522001549051908152f35b5050346101b35760603660031901126101b3576020906102cd610e8b611087565b610e936110a2565b60443591610ea283338361181a565b6115aa565b5050346101b357816003193601126101b3576020906002549051908152f35b5050346101b357806003193601126101b3576020906102cd610ee6611087565b6024359033611718565b91905034610264578260031936011261026457805191836003549060019082821c928281168015610fdb575b6020958686108214610fc85750848852908115610fa65750600114610f4d575b6106138686610609828b03836114ef565b929550600383527fc2575a0e9e593c00f959f8c92f12db2869c3395a3b0502d05e2516446f71f85b5b828410610f93575050508261061394610609928201019438610f3c565b8054868501880152928601928101610f76565b60ff191687860152505050151560051b83010192506106098261061338610f3c565b634e487b7160e01b845260229052602483fd5b93607f1693610f1c565b849134610264576020366003190112610264573563ffffffff60e01b81168091036102645760209250637965db0b60e01b8114908115611027575b5015158152f35b6301ffc9a760e01b14905083611020565b60005b83811061104b5750506000910152565b818101518382015260200161103b565b6040916020825261107b8151809281602086015260208686019101611038565b601f01601f1916010190565b600435906001600160a01b038216820361109d57565b600080fd5b602435906001600160a01b038216820361109d57565b3360009081527f05b8ccbb9d4d8fb16ea74ce3c29a41f1b461fbdaff4714a0d9a8eb05499746bc602090815260408083205490929060ff16156110fa57505050565b611103336118d9565b83519082611110836114bd565b6042835284830193606036863783511561125957603085538351906001918210156112595790607860218601536041915b8183116111eb575050506111bb5761049c9385936111a5936111966048946104e89951988576020b1b1b2b9b9a1b7b73a3937b61d1030b1b1b7bab73a1604d1b8b978801528251928391603789019101611038565b010360288101855201836114ef565b5162461bcd60e51b81529182916004830161105b565b60648486519062461bcd60e51b82528060048301526024820152600080516020611b228339815191526044820152fd5b909192600f81166010811015611245576f181899199a1a9b1b9c1cb0b131b232b360811b901a61121b85886118b2565b5360041c92801561123157600019019190611141565b634e487b7160e01b82526011600452602482fd5b634e487b7160e01b83526032600452602483fd5b634e487b7160e01b81526032600452602490fd5b3360009081527f99f2891db7a8db76249871a02b43b68c0bb8f22ef8a3bc1034ae9375ef6b7c3c60209081526040808320549092907f65d7a28e3265b37a6474929f336521b332c1681b933f6cb9f3376673440d862a9060ff16156112d25750505050565b6112db336118d9565b8451916112e7836114bd565b6042835284830193606036863783511561125957603085538351906001918210156112595790607860218601536041915b81831161136d575050506111bb5761049c9385936111a5936111966048946104e89951988576020b1b1b2b9b9a1b7b73a3937b61d1030b1b1b7bab73a1604d1b8b978801528251928391603789019101611038565b909192600f81166010811015611245576f181899199a1a9b1b9c1cb0b131b232b360811b901a61139d85886118b2565b5360041c92801561123157600019019190611318565b600081815260209060058252604092838220338352835260ff8483205416156113dc5750505050565b6113e5336118d9565b8451916113f1836114bd565b6042835284830193606036863783511561125957603085538351906001918210156112595790607860218601536041915b818311611477575050506111bb5761049c9385936111a5936111966048946104e89951988576020b1b1b2b9b9a1b7b73a3937b61d1030b1b1b7bab73a1604d1b8b978801528251928391603789019101611038565b909192600f81166010811015611245576f181899199a1a9b1b9c1cb0b131b232b360811b901a6114a785886118b2565b5360041c92801561123157600019019190611422565b6080810190811067ffffffffffffffff8211176114d957604052565b634e487b7160e01b600052604160045260246000fd5b90601f8019910116810190811067ffffffffffffffff8211176114d957604052565b906000918083526005602052604083209160018060a01b03169182845260205260ff60408420541661154257505050565b8083526005602052604083208284526020526040832060ff1981541690557ff6391f5c32d9c69d2a47ea670b442974b53935d1edc7fd64eb21e047a839171b339380a4565b9190820180921161159457565b634e487b7160e01b600052601160045260246000fd5b6001600160a01b039081169182156116c557169182156116745760008281528060205260408120549180831061162057604082827fddf252ad1be2c89b69c2b068fc378daa952ba7f163c4a11628f55a4df523b3ef958760209652828652038282205586815220818154019055604051908152a3565b60405162461bcd60e51b815260206004820152602660248201527f45524332303a207472616e7366657220616d6f756e7420657863656564732062604482015265616c616e636560d01b6064820152608490fd5b60405162461bcd60e51b815260206004820152602360248201527f45524332303a207472616e7366657220746f20746865207a65726f206164647260448201526265737360e81b6064820152608490fd5b60405162461bcd60e51b815260206004820152602560248201527f45524332303a207472616e736665722066726f6d20746865207a65726f206164604482015264647265737360d81b6064820152608490fd5b6001600160a01b039081169182156117c957169182156117795760207f8c5be1e5ebec7d5bd14f71427d1e84f3dd0314c0f7b2291e5b200ac8c7c3b925918360005260018252604060002085600052825280604060002055604051908152a3565b60405162461bcd60e51b815260206004820152602260248201527f45524332303a20617070726f766520746f20746865207a65726f206164647265604482015261737360f01b6064820152608490fd5b60405162461bcd60e51b8152602060048201526024808201527f45524332303a20617070726f76652066726f6d20746865207a65726f206164646044820152637265737360e01b6064820152608490fd5b9060018060a01b0380831660005260016020526040600020908216600052602052604060002054926000198403611852575b50505050565b80841061186d57611864930391611718565b3880808061184c565b60405162461bcd60e51b815260206004820152601d60248201527f45524332303a20696e73756666696369656e7420616c6c6f77616e63650000006044820152606490fd5b9081518110156118c3570160200190565b634e487b7160e01b600052603260045260246000fd5b604051906060820182811067ffffffffffffffff8211176114d957604052602a82526020820160403682378251156118c3576030905381516001908110156118c357607860218401536029905b8082116119685750506119365790565b606460405162461bcd60e51b81526020600482015260206024820152600080516020611b228339815191526044820152fd5b9091600f811660108110156119c1576f181899199a1a9b1b9c1cb0b131b232b360811b901a61199784866118b2565b5360041c9180156119ac576000190190611926565b60246000634e487b7160e01b81526011600452fd5b60246000634e487b7160e01b81526032600452fd5b60ff600654166119e257565b60405162461bcd60e51b815260206004820152601060248201526f14185d5cd8589b194e881c185d5cd95960821b6044820152606490fd5b6001600160a01b03168015611ad257600091818352826020526040832054818110611a8257817fddf252ad1be2c89b69c2b068fc378daa952ba7f163c4a11628f55a4df523b3ef926020928587528684520360408620558060025403600255604051908152a3565b60405162461bcd60e51b815260206004820152602260248201527f45524332303a206275726e20616d6f756e7420657863656564732062616c616e604482015261636560f01b6064820152608490fd5b60405162461bcd60e51b815260206004820152602160248201527f45524332303a206275726e2066726f6d20746865207a65726f206164647265736044820152607360f81b6064820152608490fdfe537472696e67733a20686578206c656e67746820696e73756666696369656e74a2646970667358221220f69e07a58533fe53b2b42c4f084abd24cb6b428b860a79f75a728e80d72d7be264736f6c634300081400332f8788117e7eff1d82e926ec794901d17c78024a50270940304540a733656f0d",
  "linkReferences": {},
  "deployedLinkReferences": {}
}