{
  "_format": "hh-sol-artifact-1",
  "contractName": "DebugRouterGas",
  "sourceName": "contracts/debug/DebugRouterGas.sol",
  "abi": [
    {
      "inputs": [],
      "name": "PAIR",
      "outputs": [
        {
          "internalType": "address",
          "name": "",
          "type": "address"
        }
      ],
      "stateMutability": "view",
      "type": "function"
    },
    {
      "inputs": [
        {
          "internalType": "uint32",
          "name": "gasLim",
          "type": "uint32"
        }
      ],
      "name": "probe",
      "outputs": [
        {
          "internalType": "bool",
          "name": "",
          "type": "bool"
        },
        {
          "internalType": "bytes",
          "name": "",
          "type": "bytes"
        }
      ],
      "stateMutability": "view",
      "type": "function"
    }
  ],
  "bytecode": "0x60808060405234610016576101ea908161001c8239f35b600080fdfe608060408181526004918236101561001657600080fd5b600090813560e01c908163ace3a8a714610186575063cd59fd081461003a57600080fd5b346101835760208060031936011261017f5783359363ffffffff851680950361017b578351630240bc6b60e21b83820190815282825267ffffffffffffffff9691808701888111828210176101685787525185928392907385782446b5ac7c4bcce639698042e3ebf46d524290fa943d1561015b573d9080821161014857855192601f8301601f19908116603f01168401918211848310176101355750855281523d838383013e929093915b815194859315158452828185015284518093850152815b83811061011e57505060608094508284010152601f80199101168101030190f35b8086018201518782016060015286945081016100fd565b634e487b7160e01b865260419052602485fd5b634e487b7160e01b855260418352602485fd5b50506060929093916100e6565b634e487b7160e01b875260418552602487fd5b8280fd5b5080fd5b80fd5b90503461017f578160031936011261017f57807385782446b5ac7c4bcce639698042e3ebf46d524260209252f3fea2646970667358221220fc4a9c4a34c374f49ea69c293f76b94b5907770d19def3eac8ec2539c7652d9464736f6c63430008140033",
  "linkReferences": {},
  "deployedLinkReferences": {}
}