{
  "_format": "hh-sol-artifact-1",
  "contractName": "KortanaAtomicRouter",
  "sourceName": "contracts/amm/KortanaAtomicRouter.sol",
  "abi": [
    {
      "inputs": [
        {
          "internalType": "address",
          "name": "_WDNR",
          "type": "address"
        }
      ],
      "stateMutability": "nonpayable",
      "type": "constructor"
    },
    {
      "anonymous": false,
      "inputs": [
        {
          "indexed": false,
          "internalType": "address",
          "name": "pair",
          "type": "address"
        },
        {
          "indexed": false,
          "internalType": "uint256",
          "name": "amountIn",
          "type": "uint256"
        },
        {
          "indexed": false,
          "internalType": "uint256",
          "name": "amountOut",
          "type": "uint256"
        }
      ],
      "name": "SwapExecuted",
      "type": "event"
    },
    {
      "inputs": [],
      "name": "WDNR",
      "outputs": [
        {
          "internalType": "address",
          "name": "",
          "type": "address"
        }
      ],
      "stateMutability": "view",
      "type": "function"
    },
    {
      "inputs": [
        {
          "internalType": "address",
          "name": "pair",
          "type": "address"
        },
        {
          "internalType": "uint256",
          "name": "amountOutMin",
          "type": "uint256"
        },
        {
          "internalType": "address",
          "name": "to",
          "type": "address"
        },
        {
          "internalType": "uint256",
          "name": "deadline",
          "type": "uint256"
        }
      ],
      "name": "swapDNRForTokens",
      "outputs": [],
      "stateMutability": "payable",
      "type": "function"
    },
    {
      "inputs": [
        {
          "internalType": "address",
          "name": "pair",
          "type": "address"
        },
        {
          "internalType": "address",
          "name": "tokenIn",
          "type": "address"
        },
        {
          "internalType": "uint256",
          "name": "amountIn",
          "type": "uint256"
        },
        {
          "internalType": "uint256",
          "name": "amountOutMin",
          "type": "uint256"
        },
        {
          "internalType": "address",
          "name": "to",
          "type": "address"
        },
        {
          "internalType": "uint256",
          "name": "deadline",
          "type": "uint256"
        }
      ],
      "name": "swapTokensForDNR",
      "outputs": [],
      "stateMutability": "nonpayable",
      "type": "function"
    },
    {
      "stateMutability": "payable",
      "type": "receive"
    }
  ],
  "bytecode": "0x60a03461007757601f610a3c38819003918201601f19168301916001600160401b0383118484101761007c5780849260209460405283398101031261007757516001600160a01b0381168103610077576080526040516109a990816100938239608051818181605d0152818161024301526105050152f35b600080fd5b634e487b7160e01b600052604160045260246000fdfe60406080815260049081361015610020575b5050361561001e57600080fd5b005b600091823560e01c9081632e9709d7146104c8578163a26dfabe14610090575063d2d8d32f03610011573461008c578160031936011261008c57517f00000000000000000000000000000000000000000000000000000000000000006001600160a01b03168152602090f35b5080fd5b8391503461008c5760c036600319011261008c576100ac6107cd565b6001600160a01b0391602480358481169291908390036104c357604435946084358181168091036104c3576100e54260a43510156107e3565b88516323b872dd60e01b81523385820152868316848201819052604482018990526020939184816064818e8c5af1908115610458578b91610496575b5015610462578a51630240bc6b60e21b8152966060888881855afa908115610458578b988c92610424575b508c51630dfe168160e01b815286818a81875afa90811561041a579085918e916103ed575b5016149788156103db576001600160701b0380911691165b6103e590818c02918c8304148c1517156103c9576101a790826108e6565b916103e8908181029181830414901517156103c9576101d092916101ca9161090f565b9061091c565b966101df60643589101561093c565b156103c257868a5b823b156103be578c5163022c0d9f60e01b8152808901918252602082019290925230604082015260806060820181905260009082015290918b9183919082908490829060a00103925af180156103b457908a916103a0575b50507f000000000000000000000000000000000000000000000000000000000000000016803b1561039c57888091858c5180948193632e1a7d4d60e01b83528b8b8401525af18015610392579189918793610376575b5081809381925af13d15610371573d67ffffffffffffffff811161035f578951906102c9601f8201601f1916850183610843565b815288833d92013e5b1561032957505094516001600160a01b039092168252602082019290925260408101919091529091507f2d043ce009ff53fd444b0f4f5ff4c3f4ee293265203f77f156eeb33b595dfc4f9080606081015b0390a180f35b875162461bcd60e51b8152928301526013908201527211139488151c985b9cd9995c8819985a5b1959606a1b6044820152606490fd5b634e487b7160e01b8952604185528389fd5b6102d2565b610381919350610819565b61038e578785918b610295565b8780fd5b8a513d8b823e3d90fd5b8880fd5b6103a990610819565b61039c57888b61023f565b8b513d8c823e3d90fd5b8b80fd5b89876101e7565b634e487b7160e01b8d5260118952878dfd5b6001600160701b039182169116610189565b61040d9150883d8a11610413575b6104058183610843565b8101906108c7565b8f610171565b503d6103fb565b8e513d8f823e3d90fd5b909850610448915060603d8111610451575b6104408183610843565b810190610891565b5090978d61014c565b503d610436565b8c513d8d823e3d90fd5b8a5162461bcd60e51b8152808701859052600f818701526e151c985b9cd9995c8819985a5b1959608a1b6044820152606490fd5b6104b69150853d87116104bc575b6104ae8183610843565b810190610865565b8c610121565b503d6104a4565b600080fd5b905060803660031901126107c9576104de6107cd565b6001600160a01b0391604435908382168203610702576105024260643510156107e3565b837f000000000000000000000000000000000000000000000000000000000000000016803b156107c5578551630d0e30db60e41b81528781848134865af180156107bb576107a8575b50855163a9059cbb60e01b81528486168382018190523460248301529160209182816044818d865af180156107815761078b575b508751630240bc6b60e21b8152966060888681875afa928315610781578a988b9461075a575b508951630dfe168160e01b815281818881895afa918215610750578c92610733575b50501614958615610721576001600160701b0380911691165b6103e59081340291348304143415171561070e576105fe90826108e6565b916103e89081810291818304149015171561070e57916101ca610625928b9796959461090f565b9561063460243588101561093c565b15610706578590845b813b15610702578580946106898b519788968795869463022c0d9f60e01b865285019160a0939183526020830152600180841b0316604082015260806060820152600060808201520190565b03925af180156106f8576106e0575b505091516001600160a01b03909216825234602083015260408201527f2d043ce009ff53fd444b0f4f5ff4c3f4ee293265203f77f156eeb33b595dfc4f908060608101610323565b6106e990610819565b6106f4578338610698565b8380fd5b85513d84823e3d90fd5b8580fd5b83908661063d565b634e487b7160e01b8a526011855260248afd5b6001600160701b0391821691166105e0565b6107499250803d10610413576104058183610843565b38806105c7565b8b513d8e823e3d90fd5b90935061077691985060603d8111610451576104408183610843565b5097909792386105a5565b89513d8c823e3d90fd5b6107a190833d85116104bc576104ae8183610843565b503861057f565b6107b490979197610819565b953861054b565b87513d8a823e3d90fd5b8680fd5b8280fd5b600435906001600160a01b03821682036104c357565b156107ea57565b60405162461bcd60e51b8152602060048201526007602482015266115e1c1a5c995960ca1b6044820152606490fd5b67ffffffffffffffff811161082d57604052565b634e487b7160e01b600052604160045260246000fd5b90601f8019910116810190811067ffffffffffffffff82111761082d57604052565b908160209103126104c3575180151581036104c35790565b51906001600160701b03821682036104c357565b908160609103126104c3576108a58161087d565b9160406108b46020840161087d565b92015163ffffffff811681036104c35790565b908160209103126104c357516001600160a01b03811681036104c35790565b818102929181159184041417156108f957565b634e487b7160e01b600052601160045260246000fd5b919082018092116108f957565b8115610926570490565b634e487b7160e01b600052601260045260246000fd5b1561094357565b60405162461bcd60e51b8152602060048201526008602482015267536c69707061676560c01b6044820152606490fdfea2646970667358221220141ac337e5a78ff060240ea9585780d4326025705b8ddce231e8428efeeba05164736f6c63430008140033",
  "linkReferences": {},
  "deployedLinkReferences": {}
}