{"contracts/amm/KortanaFactory.sol":{"KortanaFactory":{"abi":[{"inputs":[{"internalType":"address","name":"_feeToSetter","type":"address"}],"stateMutability":"nonpayable","type":"constructor"},{"anonymous":false,"inputs":[{"indexed":true,"internalType":"address","name":"token0","type":"address"},{"indexed":true,"internalType":"address","name":"token1","type":"address"},{"indexed":false,"internalType":"address","name":"pair","type":"address"},{"indexed":false,"internalType":"uint256","name":"","type":"uint256"}],"name":"PairCreated","type":"event"},{"inputs":[{"internalType":"uint256","name":"","type":"uint256"}],"name":"allPairs","outputs":[{"internalType":"address","name":"","type":"address"}],"stateMutability":"view","type":"function"},{"inputs":[],"name":"allPairsLength","outputs":[{"internalType":"uint256","name":"","type":"uint256"}],"stateMutability":"view","type":"function"},{"inputs":[{"internalType":"address","name":"tokenA","type":"address"},{"internalType":"address","name":"tokenB","type":"address"}],"name":"createPair","outputs":[{"internalType":"address","name":"pair","type":"address"}],"stateMutability":"nonpayable","type":"function"},{"inputs":[],"name":"feeTo","outputs":[{"internalType":"address","name":"","type":"address"}],"stateMutability":"view","type":"function"},{"inputs":[],"name":"feeToSetter","outputs":[{"internalType":"address","name":"","type":"address"}],"stateMutability":"view","type":"function"},{"inputs":[{"internalType":"address","name":"","type":"address"},{"internalType":"address","name":"","type":"address"}],"name":"getPair","outputs":[{"internalType":"address","name":"","type":"address"}],"stateMutability":"view","type":"function"},{"inputs":[{"internalType":"address","name":"tokenA","type":"address"},{"internalType":"address","name":"tokenB","type":"address"}],"name":"pairFor","outputs":[{"internalType":"address","name":"","type":"address"}],"stateMutability":"view","type":"function"},{"inputs":[{"internalType":"address","name":"tokenA","type":"address"},{"internalType":"address","name":"tokenB","type":"address"},{"internalType":"address","name":"pair","type":"address"}],"name":"registerPair","outputs":[],"stateMutability":"nonpayable","type":"function"},{"inputs":[{"internalType":"address","name":"_feeTo","type":"address"}],"name":"setFeeTo","outputs":[],"stateMutability":"nonpayable","type":"function"},{"inputs":[{"internalType":"address","name":"_feeToSetter","type":"address"}],"name":"setFeeToSetter","outputs":[],"stateMutability":"nonpayable","type":"function"}],"evm":{"bytecode":{"linkReferences":{},"object":"60803461007457601f61069938819003918201601f19168301916001600160401b038311848410176100795780849260209460405283398101031261007457516001600160a01b0381169081900361007457600180546001600160a01b03191691909117905560405161060990816100908239f35b600080fd5b634e487b7160e01b600052604160045260246000fdfe60806040908082526004918236101561001757600080fd5b600092833560e01c928363017e7e58146104f057508263094b7415146104c75782631e3dd18b14610481578263574f2ba31461046257826396ed28f914610402578263a2e74af6146103b4578263bfbd0297146101a6578263c9c653961461012f57508163e6a43905146100df575063f46901ed1461009557600080fd5b346100dc5760203660031901126100dc576100ae610561565b6001546001600160a01b0391906100c89083163314610592565b82546001600160a01b031916911617815580f35b80fd5b90503461012b578060031936011261012b57602091816100fd610561565b9161010661057c565b6001600160a01b03938416825260028652828220908416825285522054915191168152f35b5080fd5b83346100dc57826003193601126100dc5750602060849261014e610561565b5061015761057c565b505162461bcd60e51b815291820152602860248201527f557365206d616e75616c2072656769737465725061697220666f722074686973604482015267206e6574776f726b60c01b6064820152fd5b83823461012b57606036600319011261012b576101c1610561565b6101c961057c565b916001600160a01b039160443583811691908290036103b0576101f184600154163314610592565b83851684821681811461036d5710156103655783905b1692831561032a57838652602090600282528084882096169586885282528084882054166102f0578487526002825283872086885282528387206bffffffffffffffffffffffff60a01b9084828254161790556002835284882086895283528385892091825416179055600354680100000000000000008110156102dd57906102ba8260017f0d3648bd0f6ba80134a33ba9275ac585d9d315f0ad8355cddefde31afa28d0e99796959401600355610514565b819291549060031b9185831b921b1916179055600354908351928352820152a380f35b634e487b7160e01b885260418952602488fd5b835162461bcd60e51b815280890183905260146024820152734b4f5254414e413a20504149525f45584953545360601b6044820152606490fd5b825162461bcd60e51b815260208189015260156024820152744b4f5254414e413a205a45524f5f4144445245535360581b6044820152606490fd5b938390610207565b845162461bcd60e51b81526020818b0152601c60248201527f4b4f5254414e413a204944454e544943414c5f414444524553534553000000006044820152606490fd5b8580fd5b83346100dc5760203660031901126100dc576103ce610561565b600154906001600160a01b03906103e83383851614610592565b16906bffffffffffffffffffffffff60a01b161760015580f35b83823461012b578060031936011261012b5760209181610420610561565b9161042961057c565b6001600160a01b03938490828216818316101561045c575b16825260028652838383209116825285522054169051908152f35b91610441565b83823461012b578160031936011261012b576020906003549051908152f35b909150346104c35760203660031901126104c35735916003548310156100dc57506104ad602092610514565b60018060a01b0391549060031b1c169051908152f35b8280fd5b83823461012b578160031936011261012b5760015490516001600160a01b039091168152602090f35b84903461012b578160031936011261012b5790546001600160a01b03168152602090f35b60035481101561054b5760036000527fc2575a0e9e593c00f959f8c92f12db2869c3395a3b0502d05e2516446f71f85b0190600090565b634e487b7160e01b600052603260045260246000fd5b600435906001600160a01b038216820361057757565b600080fd5b602435906001600160a01b038216820361057757565b1561059957565b60405162461bcd60e51b815260206004820152601260248201527125a7a92a20a7209d102327a92124a22222a760711b6044820152606490fdfea264697066735822122028147f11745e308e1e6312a5993a12dc3ea47fc3ad4886d9399557ee004be25464736f6c63430008140033","opcodes":"PUSH1 0x80 CALLVALUE PUSH2 0x74 JUMPI PUSH1 0x1F PUSH2 0x699 CODESIZE DUP2 SWAP1 SUB SWAP2 DUP3 ADD PUSH1 0x1F NOT AND DUP4 ADD SWAP2 PUSH1 0x1 PUSH1 0x1 PUSH1 0x40 SHL SUB DUP4 GT DUP5 DUP5 LT OR PUSH2 0x79 JUMPI DUP1 DUP5 SWAP3 PUSH1 0x20 SWAP5 PUSH1 0x40 MSTORE DUP4 CODECOPY DUP2 ADD SUB SLT PUSH2 0x74 JUMPI MLOAD PUSH1 0x1 PUSH1 0x1 PUSH1 0xA0 SHL SUB DUP2 AND SWAP1 DUP2 SWAP1 SUB PUSH2 0x74 JUMPI PUSH1 0x1 DUP1 SLOAD PUSH1 0x1 PUSH1 0x1 PUSH1 0xA0 SHL SUB NOT AND SWAP2 SWAP1 SWAP2 OR SWAP1 SSTORE PUSH1 0x40 MLOAD PUSH2 0x609 SWAP1 DUP2 PUSH2 0x90 DUP3 CODECOPY RETURN JUMPDEST PUSH1 0x0 DUP1 REVERT JUMPDEST PUSH4 0x4E487B71 PUSH1 0xE0 SHL PUSH1 0x0 MSTORE PUSH1 0x41 PUSH1 0x4 MSTORE PUSH1 0x24 PUSH1 0x0 REVERT INVALID PUSH1 0x80 PUSH1 0x40 SWAP1 DUP1 DUP3 MSTORE PUSH1 0x4 SWAP2 DUP3 CALLDATASIZE LT ISZERO PUSH2 0x17 JUMPI PUSH1 0x0 DUP1 REVERT JUMPDEST PUSH1 0x0 SWAP3 DUP4 CALLDATALOAD PUSH1 0xE0 SHR SWAP3 DUP4 PUSH4 0x17E7E58 EQ PUSH2 0x4F0 JUMPI POP DUP3 PUSH4 0x94B7415 EQ PUSH2 0x4C7 JUMPI DUP3 PUSH4 0x1E3DD18B EQ PUSH2 0x481 JUMPI DUP3 PUSH4 0x574F2BA3 EQ PUSH2 0x462 JUMPI DUP3 PUSH4 0x96ED28F9 EQ PUSH2 0x402 JUMPI DUP3 PUSH4 0xA2E74AF6 EQ PUSH2 0x3B4 JUMPI DUP3 PUSH4 0xBFBD0297 EQ PUSH2 0x1A6 JUMPI DUP3 PUSH4 0xC9C65396 EQ PUSH2 0x12F JUMPI POP DUP2 PUSH4 0xE6A43905 EQ PUSH2 0xDF JUMPI POP PUSH4 0xF46901ED EQ PUSH2 0x95 JUMPI PUSH1 0x0 DUP1 REVERT JUMPDEST CALLVALUE PUSH2 0xDC JUMPI PUSH1 0x20 CALLDATASIZE PUSH1 0x3 NOT ADD SLT PUSH2 0xDC JUMPI PUSH2 0xAE PUSH2 0x561 JUMP JUMPDEST PUSH1 0x1 SLOAD PUSH1 0x1 PUSH1 0x1 PUSH1 0xA0 SHL SUB SWAP2 SWAP1 PUSH2 0xC8 SWAP1 DUP4 AND CALLER EQ PUSH2 0x592 JUMP JUMPDEST DUP3 SLOAD PUSH1 0x1 PUSH1 0x1 PUSH1 0xA0 SHL SUB NOT AND SWAP2 AND OR DUP2 SSTORE DUP1 RETURN JUMPDEST DUP1 REVERT JUMPDEST SWAP1 POP CALLVALUE PUSH2 0x12B JUMPI DUP1 PUSH1 0x3 NOT CALLDATASIZE ADD SLT PUSH2 0x12B JUMPI PUSH1 0x20 SWAP2 DUP2 PUSH2 0xFD PUSH2 0x561 JUMP JUMPDEST SWAP2 PUSH2 0x106 PUSH2 0x57C JUMP JUMPDEST PUSH1 0x1 PUSH1 0x1 PUSH1 0xA0 SHL SUB SWAP4 DUP5 AND DUP3 MSTORE PUSH1 0x2 DUP7 MSTORE DUP3 DUP3 KECCAK256 SWAP1 DUP5 AND DUP3 MSTORE DUP6 MSTORE KECCAK256 SLOAD SWAP2 MLOAD SWAP2 AND DUP2 MSTORE RETURN JUMPDEST POP DUP1 REVERT JUMPDEST DUP4 CALLVALUE PUSH2 0xDC JUMPI DUP3 PUSH1 0x3 NOT CALLDATASIZE ADD SLT PUSH2 0xDC JUMPI POP PUSH1 0x20 PUSH1 0x84 SWAP3 PUSH2 0x14E PUSH2 0x561 JUMP JUMPDEST POP PUSH2 0x157 PUSH2 0x57C JUMP JUMPDEST POP MLOAD PUSH3 0x461BCD PUSH1 0xE5 SHL DUP2 MSTORE SWAP2 DUP3 ADD MSTORE PUSH1 0x28 PUSH1 0x24 DUP3 ADD MSTORE PUSH32 0x557365206D616E75616C2072656769737465725061697220666F722074686973 PUSH1 0x44 DUP3 ADD MSTORE PUSH8 0x206E6574776F726B PUSH1 0xC0 SHL PUSH1 0x64 DUP3 ADD MSTORE REVERT JUMPDEST DUP4 DUP3 CALLVALUE PUSH2 0x12B JUMPI PUSH1 0x60 CALLDATASIZE PUSH1 0x3 NOT ADD SLT PUSH2 0x12B JUMPI PUSH2 0x1C1 PUSH2 0x561 JUMP JUMPDEST PUSH2 0x1C9 PUSH2 0x57C JUMP JUMPDEST SWAP2 PUSH1 0x1 PUSH1 0x1 PUSH1 0xA0 SHL SUB SWAP2 PUSH1 0x44 CALLDATALOAD DUP4 DUP2 AND SWAP2 SWAP1 DUP3 SWAP1 SUB PUSH2 0x3B0 JUMPI PUSH2 0x1F1 DUP5 PUSH1 0x1 SLOAD AND CALLER EQ PUSH2 0x592 JUMP JUMPDEST DUP4 DUP6 AND DUP5 DUP3 AND DUP2 DUP2 EQ PUSH2 0x36D JUMPI LT ISZERO PUSH2 0x365 JUMPI DUP4 SWAP1 JUMPDEST AND SWAP3 DUP4 ISZERO PUSH2 0x32A JUMPI DUP4 DUP7 MSTORE PUSH1 0x20 SWAP1 PUSH1 0x2 DUP3 MSTORE DUP1 DUP5 DUP9 KECCAK256 SWAP7 AND SWAP6 DUP7 DUP9 MSTORE DUP3 MSTORE DUP1 DUP5 DUP9 KECCAK256 SLOAD AND PUSH2 0x2F0 JUMPI DUP5 DUP8 MSTORE PUSH1 0x2 DUP3 MSTORE DUP4 DUP8 KECCAK256 DUP7 DUP9 MSTORE DUP3 MSTORE DUP4 DUP8 KECCAK256 PUSH12 0xFFFFFFFFFFFFFFFFFFFFFFFF PUSH1 0xA0 SHL SWAP1 DUP5 DUP3 DUP3 SLOAD AND OR SWAP1 SSTORE PUSH1 0x2 DUP4 MSTORE DUP5 DUP9 KECCAK256 DUP7 DUP10 MSTORE DUP4 MSTORE DUP4 DUP6 DUP10 KECCAK256 SWAP2 DUP3 SLOAD AND OR SWAP1 SSTORE PUSH1 0x3 SLOAD PUSH9 0x10000000000000000 DUP2 LT ISZERO PUSH2 0x2DD JUMPI SWAP1 PUSH2 0x2BA DUP3 PUSH1 0x1 PUSH32 0xD3648BD0F6BA80134A33BA9275AC585D9D315F0AD8355CDDEFDE31AFA28D0E9 SWAP8 SWAP7 SWAP6 SWAP5 ADD PUSH1 0x3 SSTORE PUSH2 0x514 JUMP JUMPDEST DUP2 SWAP3 SWAP2 SLOAD SWAP1 PUSH1 0x3 SHL SWAP2 DUP6 DUP4 SHL SWAP3 SHL NOT AND OR SWAP1 SSTORE PUSH1 0x3 SLOAD SWAP1 DUP4 MLOAD SWAP3 DUP4 MSTORE DUP3 ADD MSTORE LOG3 DUP1 RETURN JUMPDEST PUSH4 0x4E487B71 PUSH1 0xE0 SHL DUP9 MSTORE PUSH1 0x41 DUP10 MSTORE PUSH1 0x24 DUP9 REVERT JUMPDEST DUP4 MLOAD PUSH3 0x461BCD PUSH1 0xE5 SHL DUP2 MSTORE DUP1 DUP10 ADD DUP4 SWAP1 MSTORE PUSH1 0x14 PUSH1 0x24 DUP3 ADD MSTORE PUSH20 0x4B4F5254414E413A20504149525F455849535453 PUSH1 0x60 SHL PUSH1 0x44 DUP3 ADD MSTORE PUSH1 0x64 SWAP1 REVERT JUMPDEST DUP3 MLOAD PUSH3 0x461BCD PUSH1 0xE5 SHL DUP2 MSTORE PUSH1 0x20 DUP2 DUP10 ADD MSTORE PUSH1 0x15 PUSH1 0x24 DUP3 ADD MSTORE PUSH21 0x4B4F5254414E413A205A45524F5F41444452455353 PUSH1 0x58 SHL PUSH1 0x44 DUP3 ADD MSTORE PUSH1 0x64 SWAP1 REVERT JUMPDEST SWAP4 DUP4 SWAP1 PUSH2 0x207 JUMP JUMPDEST DUP5 MLOAD PUSH3 0x461BCD PUSH1 0xE5 SHL DUP2 MSTORE PUSH1 0x20 DUP2 DUP12 ADD MSTORE PUSH1 0x1C PUSH1 0x24 DUP3 ADD MSTORE PUSH32 0x4B4F5254414E413A204944454E544943414C5F41444452455353455300000000 PUSH1 0x44 DUP3 ADD MSTORE PUSH1 0x64 SWAP1 REVERT JUMPDEST DUP6 DUP1 REVERT JUMPDEST DUP4 CALLVALUE PUSH2 0xDC JUMPI PUSH1 0x20 CALLDATASIZE PUSH1 0x3 NOT ADD SLT PUSH2 0xDC JUMPI PUSH2 0x3CE PUSH2 0x561 JUMP JUMPDEST PUSH1 0x1 SLOAD SWAP1 PUSH1 0x1 PUSH1 0x1 PUSH1 0xA0 SHL SUB SWAP1 PUSH2 0x3E8 CALLER DUP4 DUP6 AND EQ PUSH2 0x592 JUMP JUMPDEST AND SWAP1 PUSH12 0xFFFFFFFFFFFFFFFFFFFFFFFF PUSH1 0xA0 SHL AND OR PUSH1 0x1 SSTORE DUP1 RETURN JUMPDEST DUP4 DUP3 CALLVALUE PUSH2 0x12B JUMPI DUP1 PUSH1 0x3 NOT CALLDATASIZE ADD SLT PUSH2 0x12B JUMPI PUSH1 0x20 SWAP2 DUP2 PUSH2 0x420 PUSH2 0x561 JUMP JUMPDEST SWAP2 PUSH2 0x429 PUSH2 0x57C JUMP JUMPDEST PUSH1 0x1 PUSH1 0x1 PUSH1 0xA0 SHL SUB SWAP4 DUP5 SWAP1 DUP3 DUP3 AND DUP2 DUP4 AND LT ISZERO PUSH2 0x45C JUMPI JUMPDEST AND DUP3 MSTORE PUSH1 0x2 DUP7 MSTORE DUP4 DUP4 DUP4 KECCAK256 SWAP2 AND DUP3 MSTORE DUP6 MSTORE KECCAK256 SLOAD AND SWAP1 MLOAD SWAP1 DUP2 MSTORE RETURN JUMPDEST SWAP2 PUSH2 0x441 JUMP JUMPDEST DUP4 DUP3 CALLVALUE PUSH2 0x12B JUMPI DUP2 PUSH1 0x3 NOT CALLDATASIZE ADD SLT PUSH2 0x12B JUMPI PUSH1 0x20 SWAP1 PUSH1 0x3 SLOAD SWAP1 MLOAD SWAP1 DUP2 MSTORE RETURN JUMPDEST SWAP1 SWAP2 POP CALLVALUE PUSH2 0x4C3 JUMPI PUSH1 0x20 CALLDATASIZE PUSH1 0x3 NOT ADD SLT PUSH2 0x4C3 JUMPI CALLDATALOAD SWAP2 PUSH1 0x3 SLOAD DUP4 LT ISZERO PUSH2 0xDC JUMPI POP PUSH2 0x4AD PUSH1 0x20 SWAP3 PUSH2 0x514 JUMP JUMPDEST PUSH1 0x1 DUP1 PUSH1 0xA0 SHL SUB SWAP2 SLOAD SWAP1 PUSH1 0x3 SHL SHR AND SWAP1 MLOAD SWAP1 DUP2 MSTORE RETURN JUMPDEST DUP3 DUP1 REVERT JUMPDEST DUP4 DUP3 CALLVALUE PUSH2 0x12B JUMPI DUP2 PUSH1 0x3 NOT CALLDATASIZE ADD SLT PUSH2 0x12B JUMPI PUSH1 0x1 SLOAD SWAP1 MLOAD PUSH1 0x1 PUSH1 0x1 PUSH1 0xA0 SHL SUB SWAP1 SWAP2 AND DUP2 MSTORE PUSH1 0x20 SWAP1 RETURN JUMPDEST DUP5 SWAP1 CALLVALUE PUSH2 0x12B JUMPI DUP2 PUSH1 0x3 NOT CALLDATASIZE ADD SLT PUSH2 0x12B JUMPI SWAP1 SLOAD PUSH1 0x1 PUSH1 0x1 PUSH1 0xA0 SHL SUB AND DUP2 MSTORE PUSH1 0x20 SWAP1 RETURN JUMPDEST PUSH1 0x3 SLOAD DUP2 LT ISZERO PUSH2 0x54B JUMPI PUSH1 0x3 PUSH1 0x0 MSTORE PUSH32 0xC2575A0E9E593C00F959F8C92F12DB2869C3395A3B0502D05E2516446F71F85B ADD SWAP1 PUSH1 0x0 SWAP1 JUMP JUMPDEST PUSH4 0x4E487B71 PUSH1 0xE0 SHL PUSH1 0x0 MSTORE PUSH1 0x32 PUSH1 0x4 MSTORE PUSH1 0x24 PUSH1 0x0 REVERT JUMPDEST PUSH1 0x4 CALLDATALOAD SWAP1 PUSH1 0x1 PUSH1 0x1 PUSH1 0xA0 SHL SUB DUP3 AND DUP3 SUB PUSH2 0x577 JUMPI JUMP JUMPDEST PUSH1 0x0 DUP1 REVERT JUMPDEST PUSH1 0x24 CALLDATALOAD SWAP1 PUSH1 0x1 PUSH1 0x1 PUSH1 0xA0 SHL SUB DUP3 AND DUP3 SUB PUSH2 0x577 JUMPI JUMP JUMPDEST ISZERO PUSH2 0x599 JUMPI JUMP JUMPDEST PUSH1 0x40 MLOAD PUSH3 0x461BCD PUSH1 0xE5 SHL DUP2 MSTORE PUSH1 0x20 PUSH1 0x4 DUP3 ADD MSTORE PUSH1 0x12 PUSH1 0x24 DUP3 ADD MSTORE PUSH18 0x25A7A92A20A7209D102327A92124A22222A7 PUSH1 0x71 SHL PUSH1 0x44 DUP3 ADD MSTORE PUSH1 0x64 SWAP1 REVERT INVALID LOG2 PUSH5 0x6970667358 0x22 SLT KECCAK256 0x28 EQ PUSH32 0x11745E308E1E6312A5993A12DC3EA47FC3AD4886D9399557EE004BE25464736F PUSH13 0x63430008140033000000000000 "},"methodIdentifiers":{"allPairs(uint256)":"1e3dd18b","allPairsLength()":"574f2ba3","createPair(address,address)":"c9c65396","feeTo()":"017e7e58","feeToSetter()":"094b7415","getPair(address,address)":"e6a43905","pairFor(address,address)":"96ed28f9","registerPair(address,address,address)":"bfbd0297","setFeeTo(address)":"f46901ed","setFeeToSetter(address)":"a2e74af6"}},"storageLayout":{"storage":[{"astId":3346,"contract":"contracts/amm/KortanaFactory.sol:KortanaFactory","label":"feeTo","offset":0,"slot":"0","type":"t_address"},{"astId":3348,"contract":"contracts/amm/KortanaFactory.sol:KortanaFactory","label":"feeToSetter","offset":0,"slot":"1","type":"t_address"},{"astId":3354,"contract":"contracts/amm/KortanaFactory.sol:KortanaFactory","label":"getPair","offset":0,"slot":"2","type":"t_mapping(t_address,t_mapping(t_address,t_address))"},{"astId":3357,"contract":"contracts/amm/KortanaFactory.sol:KortanaFactory","label":"allPairs","offset":0,"slot":"3","type":"t_array(t_address)dyn_storage"}],"types":{"t_address":{"encoding":"inplace","label":"address","numberOfBytes":"20"},"t_array(t_address)dyn_storage":{"base":"t_address","encoding":"dynamic_array","label":"address[]","numberOfBytes":"32"},"t_mapping(t_address,t_address)":{"encoding":"mapping","key":"t_address","label":"mapping(address => address)","numberOfBytes":"32","value":"t_address"},"t_mapping(t_address,t_mapping(t_address,t_address))":{"encoding":"mapping","key":"t_address","label":"mapping(address => mapping(address => address))","numberOfBytes":"32","value":"t_mapping(t_address,t_address)"}}}}}}