{"contracts/amm/KortanaMonoVault.sol":{"KortanaMonoVault":{"abi":[{"inputs":[],"stateMutability":"nonpayable","type":"constructor"},{"anonymous":false,"inputs":[{"indexed":true,"internalType":"address","name":"user","type":"address"},{"indexed":false,"internalType":"uint256","name":"dnrIn","type":"uint256"},{"indexed":false,"internalType":"uint256","name":"usdcOut","type":"uint256"},{"indexed":false,"internalType":"uint256","name":"usdcIn","type":"uint256"},{"indexed":false,"internalType":"uint256","name":"dnrOut","type":"uint256"}],"name":"Swap","type":"event"},{"inputs":[],"name":"USDC_K","outputs":[{"internalType":"address","name":"","type":"address"}],"stateMutability":"view","type":"function"},{"inputs":[],"name":"WDNR","outputs":[{"internalType":"address","name":"","type":"address"}],"stateMutability":"view","type":"function"},{"inputs":[],"name":"buyUSDC","outputs":[],"stateMutability":"payable","type":"function"},{"inputs":[],"name":"owner","outputs":[{"internalType":"address","name":"","type":"address"}],"stateMutability":"view","type":"function"},{"inputs":[],"name":"reserveDNR","outputs":[{"internalType":"uint256","name":"","type":"uint256"}],"stateMutability":"view","type":"function"},{"inputs":[],"name":"reserveUSDC","outputs":[{"internalType":"uint256","name":"","type":"uint256"}],"stateMutability":"view","type":"function"},{"inputs":[{"internalType":"uint256","name":"usdcAmount","type":"uint256"}],"name":"seed","outputs":[],"stateMutability":"payable","type":"function"},{"stateMutability":"payable","type":"receive"}],"evm":{"bytecode":{"linkReferences":{},"object":"6080806040523461002857600080546001600160a01b03191633179055610489908161002e8239f35b600080fdfe6080604081815260049182361015610022575b505050361561002057600080fd5b005b600092833560e01c918263251545da146101b9575081638da5cb5b14610191578163955648371461011a575080639894d04f146100ec578063af7c2d88146100ce578063c87b502e146100b05763d2d8d32f1461007f5780610012565b346100ac57816003193601126100ac576020905173259f3561fe751157458cfbd3a6eb149c321c45a58152f35b5080fd5b50346100ac57816003193601126100ac576020906002549051908152f35b50346100ac57816003193601126100ac576020906001549051908152f35b50346100ac57816003193601126100ac57602090517328420e30857ae2340ca3127bb2539e3d0d7671948152f35b919050602036600319011261018d5782546001600160a01b0316330361015d57506101579061014b34600154610430565b60015535600254610430565b60025580f35b906020606492519162461bcd60e51b8352820152600a6024820152694f776e6572206f6e6c7960b01b6044820152fd5b8280fd5b5050346100ac57816003193601126100ac57905490516001600160a01b039091168152602090f35b909291508360031936011261042c5734156103fd57506103e59182340292348404810361037d5760025490813402028481048214851517156103ea57600154946103e88087029087820414871517156103d7579061021691610430565b9081156103c4570493841561039057610230903490610430565b60015583810390811161037d57600255815163a9059cbb60e01b602082019081523360248301526044808301869052825267ffffffffffffffff916080810183811182821017610351578552518691829190827328420e30857ae2340ca3127bb2539e3d0d7671945af1903d15610377573d81811161036457845191601f8201601f19908116603f011683019081118382101761035157855281528560203d92013e5b156103185750808391519234845260208401528201528160608201527f49926bbebe8474393f434dfa4f78694c0923efa07d19f2284518bfabd06eb73760803392a280f35b6020606492519162461bcd60e51b835282015260146024820152731554d110d7d514905394d1915497d1905253115160621b6044820152fd5b634e487b7160e01b885260418552602488fd5b634e487b7160e01b875260418452602487fd5b506102d3565b634e487b7160e01b855260118252602485fd5b835162461bcd60e51b8152602081850152600e60248201526d125b9cdd59998b881bdd5d1c1d5d60921b6044820152606490fd5b634e487b7160e01b875260128452602487fd5b634e487b7160e01b885260118552602488fd5b634e487b7160e01b865260118352602486fd5b62461bcd60e51b8152602083820152600b60248201526a139bc8111394881cd95b9d60aa1b6044820152606490fd5b8380fd5b9190820180921161043d57565b634e487b7160e01b600052601160045260246000fdfea2646970667358221220383d02ba1bfb2643d6554a023ea0c3fc082bed5ae64233f669421cb91d975e7964736f6c63430008140033","opcodes":"PUSH1 0x80 DUP1 PUSH1 0x40 MSTORE CALLVALUE PUSH2 0x28 JUMPI PUSH1 0x0 DUP1 SLOAD PUSH1 0x1 PUSH1 0x1 PUSH1 0xA0 SHL SUB NOT AND CALLER OR SWAP1 SSTORE PUSH2 0x489 SWAP1 DUP2 PUSH2 0x2E DUP3 CODECOPY RETURN JUMPDEST PUSH1 0x0 DUP1 REVERT INVALID PUSH1 0x80 PUSH1 0x40 DUP2 DUP2 MSTORE PUSH1 0x4 SWAP2 DUP3 CALLDATASIZE LT ISZERO PUSH2 0x22 JUMPI JUMPDEST POP POP POP CALLDATASIZE ISZERO PUSH2 0x20 JUMPI PUSH1 0x0 DUP1 REVERT JUMPDEST STOP JUMPDEST PUSH1 0x0 SWAP3 DUP4 CALLDATALOAD PUSH1 0xE0 SHR SWAP2 DUP3 PUSH4 0x251545DA EQ PUSH2 0x1B9 JUMPI POP DUP2 PUSH4 0x8DA5CB5B EQ PUSH2 0x191 JUMPI DUP2 PUSH4 0x95564837 EQ PUSH2 0x11A JUMPI POP DUP1 PUSH4 0x9894D04F EQ PUSH2 0xEC JUMPI DUP1 PUSH4 0xAF7C2D88 EQ PUSH2 0xCE JUMPI DUP1 PUSH4 0xC87B502E EQ PUSH2 0xB0 JUMPI PUSH4 0xD2D8D32F EQ PUSH2 0x7F JUMPI DUP1 PUSH2 0x12 JUMP JUMPDEST CALLVALUE PUSH2 0xAC JUMPI DUP2 PUSH1 0x3 NOT CALLDATASIZE ADD SLT PUSH2 0xAC JUMPI PUSH1 0x20 SWAP1 MLOAD PUSH20 0x259F3561FE751157458CFBD3A6EB149C321C45A5 DUP2 MSTORE RETURN JUMPDEST POP DUP1 REVERT JUMPDEST POP CALLVALUE PUSH2 0xAC JUMPI DUP2 PUSH1 0x3 NOT CALLDATASIZE ADD SLT PUSH2 0xAC JUMPI PUSH1 0x20 SWAP1 PUSH1 0x2 SLOAD SWAP1 MLOAD SWAP1 DUP2 MSTORE RETURN JUMPDEST POP CALLVALUE PUSH2 0xAC JUMPI DUP2 PUSH1 0x3 NOT CALLDATASIZE ADD SLT PUSH2 0xAC JUMPI PUSH1 0x20 SWAP1 PUSH1 0x1 SLOAD SWAP1 MLOAD SWAP1 DUP2 MSTORE RETURN JUMPDEST POP CALLVALUE PUSH2 0xAC JUMPI DUP2 PUSH1 0x3 NOT CALLDATASIZE ADD SLT PUSH2 0xAC JUMPI PUSH1 0x20 SWAP1 MLOAD PUSH20 0x28420E30857AE2340CA3127BB2539E3D0D767194 DUP2 MSTORE RETURN JUMPDEST SWAP2 SWAP1 POP PUSH1 0x20 CALLDATASIZE PUSH1 0x3 NOT ADD SLT PUSH2 0x18D JUMPI DUP3 SLOAD PUSH1 0x1 PUSH1 0x1 PUSH1 0xA0 SHL SUB AND CALLER SUB PUSH2 0x15D JUMPI POP PUSH2 0x157 SWAP1 PUSH2 0x14B CALLVALUE PUSH1 0x1 SLOAD PUSH2 0x430 JUMP JUMPDEST PUSH1 0x1 SSTORE CALLDATALOAD PUSH1 0x2 SLOAD PUSH2 0x430 JUMP JUMPDEST PUSH1 0x2 SSTORE DUP1 RETURN JUMPDEST SWAP1 PUSH1 0x20 PUSH1 0x64 SWAP3 MLOAD SWAP2 PUSH3 0x461BCD PUSH1 0xE5 SHL DUP4 MSTORE DUP3 ADD MSTORE PUSH1 0xA PUSH1 0x24 DUP3 ADD MSTORE PUSH10 0x4F776E6572206F6E6C79 PUSH1 0xB0 SHL PUSH1 0x44 DUP3 ADD MSTORE REVERT JUMPDEST DUP3 DUP1 REVERT JUMPDEST POP POP CALLVALUE PUSH2 0xAC JUMPI DUP2 PUSH1 0x3 NOT CALLDATASIZE ADD SLT PUSH2 0xAC JUMPI SWAP1 SLOAD SWAP1 MLOAD PUSH1 0x1 PUSH1 0x1 PUSH1 0xA0 SHL SUB SWAP1 SWAP2 AND DUP2 MSTORE PUSH1 0x20 SWAP1 RETURN JUMPDEST SWAP1 SWAP3 SWAP2 POP DUP4 PUSH1 0x3 NOT CALLDATASIZE ADD SLT PUSH2 0x42C JUMPI CALLVALUE ISZERO PUSH2 0x3FD JUMPI POP PUSH2 0x3E5 SWAP2 DUP3 CALLVALUE MUL SWAP3 CALLVALUE DUP5 DIV DUP2 SUB PUSH2 0x37D JUMPI PUSH1 0x2 SLOAD SWAP1 DUP2 CALLVALUE MUL MUL DUP5 DUP2 DIV DUP3 EQ DUP6 ISZERO OR ISZERO PUSH2 0x3EA JUMPI PUSH1 0x1 SLOAD SWAP5 PUSH2 0x3E8 DUP1 DUP8 MUL SWAP1 DUP8 DUP3 DIV EQ DUP8 ISZERO OR ISZERO PUSH2 0x3D7 JUMPI SWAP1 PUSH2 0x216 SWAP2 PUSH2 0x430 JUMP JUMPDEST SWAP1 DUP2 ISZERO PUSH2 0x3C4 JUMPI DIV SWAP4 DUP5 ISZERO PUSH2 0x390 JUMPI PUSH2 0x230 SWAP1 CALLVALUE SWAP1 PUSH2 0x430 JUMP JUMPDEST PUSH1 0x1 SSTORE DUP4 DUP2 SUB SWAP1 DUP2 GT PUSH2 0x37D JUMPI PUSH1 0x2 SSTORE DUP2 MLOAD PUSH4 0xA9059CBB PUSH1 0xE0 SHL PUSH1 0x20 DUP3 ADD SWAP1 DUP2 MSTORE CALLER PUSH1 0x24 DUP4 ADD MSTORE PUSH1 0x44 DUP1 DUP4 ADD DUP7 SWAP1 MSTORE DUP3 MSTORE PUSH8 0xFFFFFFFFFFFFFFFF SWAP2 PUSH1 0x80 DUP2 ADD DUP4 DUP2 GT DUP3 DUP3 LT OR PUSH2 0x351 JUMPI DUP6 MSTORE MLOAD DUP7 SWAP2 DUP3 SWAP2 SWAP1 DUP3 PUSH20 0x28420E30857AE2340CA3127BB2539E3D0D767194 GAS CALL SWAP1 RETURNDATASIZE ISZERO PUSH2 0x377 JUMPI RETURNDATASIZE DUP2 DUP2 GT PUSH2 0x364 JUMPI DUP5 MLOAD SWAP2 PUSH1 0x1F DUP3 ADD PUSH1 0x1F NOT SWAP1 DUP2 AND PUSH1 0x3F ADD AND DUP4 ADD SWAP1 DUP2 GT DUP4 DUP3 LT OR PUSH2 0x351 JUMPI DUP6 MSTORE DUP2 MSTORE DUP6 PUSH1 0x20 RETURNDATASIZE SWAP3 ADD RETURNDATACOPY JUMPDEST ISZERO PUSH2 0x318 JUMPI POP DUP1 DUP4 SWAP2 MLOAD SWAP3 CALLVALUE DUP5 MSTORE PUSH1 0x20 DUP5 ADD MSTORE DUP3 ADD MSTORE DUP2 PUSH1 0x60 DUP3 ADD MSTORE PUSH32 0x49926BBEBE8474393F434DFA4F78694C0923EFA07D19F2284518BFABD06EB737 PUSH1 0x80 CALLER SWAP3 LOG2 DUP1 RETURN JUMPDEST PUSH1 0x20 PUSH1 0x64 SWAP3 MLOAD SWAP2 PUSH3 0x461BCD PUSH1 0xE5 SHL DUP4 MSTORE DUP3 ADD MSTORE PUSH1 0x14 PUSH1 0x24 DUP3 ADD MSTORE PUSH20 0x1554D110D7D514905394D1915497D19052531151 PUSH1 0x62 SHL PUSH1 0x44 DUP3 ADD MSTORE REVERT JUMPDEST PUSH4 0x4E487B71 PUSH1 0xE0 SHL DUP9 MSTORE PUSH1 0x41 DUP6 MSTORE PUSH1 0x24 DUP9 REVERT JUMPDEST PUSH4 0x4E487B71 PUSH1 0xE0 SHL DUP8 MSTORE PUSH1 0x41 DUP5 MSTORE PUSH1 0x24 DUP8 REVERT JUMPDEST POP PUSH2 0x2D3 JUMP JUMPDEST PUSH4 0x4E487B71 PUSH1 0xE0 SHL DUP6 MSTORE PUSH1 0x11 DUP3 MSTORE PUSH1 0x24 DUP6 REVERT JUMPDEST DUP4 MLOAD PUSH3 0x461BCD PUSH1 0xE5 SHL DUP2 MSTORE PUSH1 0x20 DUP2 DUP6 ADD MSTORE PUSH1 0xE PUSH1 0x24 DUP3 ADD MSTORE PUSH14 0x125B9CDD59998B881BDD5D1C1D5D PUSH1 0x92 SHL PUSH1 0x44 DUP3 ADD MSTORE PUSH1 0x64 SWAP1 REVERT JUMPDEST PUSH4 0x4E487B71 PUSH1 0xE0 SHL DUP8 MSTORE PUSH1 0x12 DUP5 MSTORE PUSH1 0x24 DUP8 REVERT JUMPDEST PUSH4 0x4E487B71 PUSH1 0xE0 SHL DUP9 MSTORE PUSH1 0x11 DUP6 MSTORE PUSH1 0x24 DUP9 REVERT JUMPDEST PUSH4 0x4E487B71 PUSH1 0xE0 SHL DUP7 MSTORE PUSH1 0x11 DUP4 MSTORE PUSH1 0x24 DUP7 REVERT JUMPDEST PUSH3 0x461BCD PUSH1 0xE5 SHL DUP2 MSTORE PUSH1 0x20 DUP4 DUP3 ADD MSTORE PUSH1 0xB PUSH1 0x24 DUP3 ADD MSTORE PUSH11 0x139BC8111394881CD95B9D PUSH1 0xAA SHL PUSH1 0x44 DUP3 ADD MSTORE PUSH1 0x64 SWAP1 REVERT JUMPDEST DUP4 DUP1 REVERT JUMPDEST SWAP2 SWAP1 DUP3 ADD DUP1 SWAP3 GT PUSH2 0x43D JUMPI JUMP JUMPDEST PUSH4 0x4E487B71 PUSH1 0xE0 SHL PUSH1 0x0 MSTORE PUSH1 0x11 PUSH1 0x4 MSTORE PUSH1 0x24 PUSH1 0x0 REVERT INVALID LOG2 PUSH5 0x6970667358 0x22 SLT KECCAK256 CODESIZE RETURNDATASIZE MUL 0xBA SHL 0xFB 0x26 NUMBER 0xD6 SSTORE 0x4A MUL RETURNDATACOPY LOG0 0xC3 0xFC ADDMOD 0x2B 0xED GAS 0xE6 TIMESTAMP CALLER 0xF6 PUSH10 0x421CB91D975E7964736F PUSH13 0x63430008140033000000000000 "},"methodIdentifiers":{"USDC_K()":"9894d04f","WDNR()":"d2d8d32f","buyUSDC()":"251545da","owner()":"8da5cb5b","reserveDNR()":"af7c2d88","reserveUSDC()":"c87b502e","seed(uint256)":"95564837"}},"storageLayout":{"storage":[{"astId":3813,"contract":"contracts/amm/KortanaMonoVault.sol:KortanaMonoVault","label":"owner","offset":0,"slot":"0","type":"t_address"},{"astId":3821,"contract":"contracts/amm/KortanaMonoVault.sol:KortanaMonoVault","label":"reserveDNR","offset":0,"slot":"1","type":"t_uint256"},{"astId":3823,"contract":"contracts/amm/KortanaMonoVault.sol:KortanaMonoVault","label":"reserveUSDC","offset":0,"slot":"2","type":"t_uint256"}],"types":{"t_address":{"encoding":"inplace","label":"address","numberOfBytes":"20"},"t_uint256":{"encoding":"inplace","label":"uint256","numberOfBytes":"32"}}}}}}