{"contracts/sovereign/SovereignPairV3.sol":{"SovereignPairV3":{"abi":[{"inputs":[{"internalType":"address","name":"_token0","type":"address"},{"internalType":"address","name":"_token1","type":"address"}],"stateMutability":"nonpayable","type":"constructor"},{"anonymous":false,"inputs":[{"indexed":true,"internalType":"address","name":"sender","type":"address"},{"indexed":false,"internalType":"uint256","name":"amount0In","type":"uint256"},{"indexed":false,"internalType":"uint256","name":"amount1In","type":"uint256"},{"indexed":false,"internalType":"uint256","name":"amount0Out","type":"uint256"},{"indexed":false,"internalType":"uint256","name":"amount1Out","type":"uint256"},{"indexed":true,"internalType":"address","name":"to","type":"address"}],"name":"Swap","type":"event"},{"anonymous":false,"inputs":[{"indexed":false,"internalType":"uint256","name":"reserve0","type":"uint256"},{"indexed":false,"internalType":"uint256","name":"reserve1","type":"uint256"}],"name":"Sync","type":"event"},{"inputs":[],"name":"getReserves","outputs":[{"internalType":"uint256","name":"","type":"uint256"},{"internalType":"uint256","name":"","type":"uint256"}],"stateMutability":"view","type":"function"},{"inputs":[],"name":"reserve0","outputs":[{"internalType":"uint256","name":"","type":"uint256"}],"stateMutability":"view","type":"function"},{"inputs":[],"name":"reserve1","outputs":[{"internalType":"uint256","name":"","type":"uint256"}],"stateMutability":"view","type":"function"},{"inputs":[{"internalType":"uint256","name":"amount0Out","type":"uint256"},{"internalType":"uint256","name":"amount1Out","type":"uint256"},{"internalType":"address","name":"to","type":"address"}],"name":"swap","outputs":[],"stateMutability":"nonpayable","type":"function"},{"inputs":[],"name":"sync","outputs":[],"stateMutability":"nonpayable","type":"function"},{"inputs":[],"name":"token0","outputs":[{"internalType":"address","name":"","type":"address"}],"stateMutability":"view","type":"function"},{"inputs":[],"name":"token1","outputs":[{"internalType":"address","name":"","type":"address"}],"stateMutability":"view","type":"function"}],"evm":{"bytecode":{"linkReferences":{},"object":"60c03461009957601f6109f738819003918201601f19168301916001600160401b0383118484101761009e57808492604094855283398101031261009957610052602061004b836100b4565b92016100b4565b90600160005560805260a05260405161092e90816100c9823960805181818160a9015281816102a6015261081a015260a05181818160f40152818161020d01526102e90152f35b600080fd5b634e487b7160e01b600052604160045260246000fd5b51906001600160a01b03821682036100995756fe608060408181526004908136101561001657600080fd5b600092833560e01c9081630902f1ac14610849575080630dfe168114610805578063443cb4bc146107e65780635a76f25e146107c75780636d9a640a14610240578063d21220a7146101f85763fff6cae91461007157600080fd5b346101f457826003193601126101f45780516370a0823160e01b80825230848301526001600160a01b039390919060209081836024817f00000000000000000000000000000000000000000000000000000000000000008a165afa9283156101ea5787936101b4575b5060248394839460015586519788938492835230908301527f0000000000000000000000000000000000000000000000000000000000000000165afa9081156101aa578591610157575b7fcf2aa50876cdfbb541206f89af0ee78d44a2abf8d328e37fa4917f982149848a9450816002558351928352820152a180f35b80915084813d83116101a3575b61016e818361086d565b8101031261019f577fcf2aa50876cdfbb541206f89af0ee78d44a2abf8d328e37fa4917f982149848a935190610124565b8480fd5b503d610164565b83513d87823e3d90fd5b9180935082813d83116101e3575b6101cc818361086d565b810103126101df579051919060246100da565b8680fd5b503d6101c2565b85513d89823e3d90fd5b8280fd5b83823461023c578160031936011261023c57517f00000000000000000000000000000000000000000000000000000000000000006001600160a01b03168152602090f35b5080fd5b5091346107c45760603660031901126107c4576001600160a01b03926024604435858116823586358284036101df576002875414610782576002875580159788158099610779575b156107375786516370a0823160e01b8082523083830152909a6020967f0000000000000000000000000000000000000000000000000000000000000000821691888e8b81865afa9d8e15610548578c9e610708575b50988a9b9c9d89829c9b7f000000000000000000000000000000000000000000000000000000000000000016809c5193848092898252308b8301525afa91821561065857908e989796959493929189926106c6575b509086889260015461034483826108a5565b8211156106bd5761035e92610358916108a5565b906108a5565b985b6002549061036e84836108a5565b83111590506106b25761038492610358916108a5565b9d8e5b8815908115916106a8575b50156106645791868b8f938f948f9796958e966105e1575b84610552575b9350505050519b8c809285825230888301525afa998a15610548578c9a610515575b5087908a600155828c51809b8193825230878301525afa97881561050b578b986104cc575b50886104258d61041f610418896104128e80600255876108e5565b956108a5565b918c6108a5565b906108e5565b116104975750507fcf2aa50876cdfbb541206f89af0ee78d44a2abf8d328e37fa4917f982149848a98998851938452858401528783015260608201527fd78ad95fa46c994b6551d0da85fc275fe613ce37657fb8d5e3d130840159d82260803392a38351928352820152a16001815580f35b895162461bcd60e51b81529182018790526010908201526f1111560e8812d7d2539590549250539560821b6044820152606490fd5b9b9a99989750868c813d8311610504575b6104e7818361086d565b81010312610500579a51999a98999798969796886103f7565b8980fd5b503d6104dd565b8a513d8d823e3d90fd5b9099508781813d8311610541575b61052d818361086d565b8101031261053d575198876103d2565b8b80fd5b503d610523565b8b513d8e823e3d90fd5b5163a9059cbb60e01b81526001600160a01b03909216898301908152602081019490945295965092949293928492839190829060400103925af180156105d7579189918c94936105aa575b8b8f8f8a935081906103b0565b6105c990833d85116105d0575b6105c1818361086d565b8101906108c8565b503861059d565b503d6105b7565b8c513d8f823e3d90fd5b5163a9059cbb60e01b81526001600160a01b0383168a8201908152602081018c905297985094969195935084925090829081906040010391875af18015610658578b8f938f948f979694958e968c9561063b575b506103aa565b61065190883d8a116105d0576105c1818361086d565b5038610635565b8e8e51903d90823e3d90fd5b50508a5162461bcd60e51b8152808401899052601e818c01527f4445583a20494e53554646494349454e545f494e5055545f414d4f554e5400006044820152606490fd5b905015158f610392565b5050508c9d8e610387565b50505088610360565b8b80929495969798999a508193503d8311610701575b6106e6818361086d565b810103126106fd57518d9796959493929186610332565b8d80fd5b503d6106dc565b909d508881813d8311610730575b610720818361086d565b8101031261053d57519c896102dd565b503d610716565b606490601f8760208a519362461bcd60e51b85528401528201527f4445583a20494e53554646494349454e545f4f55545055545f414d4f554e54006044820152fd5b50821515610288565b855162461bcd60e51b81526020818a0152601f818701527f5265656e7472616e637947756172643a207265656e7472616e742063616c6c006044820152606490fd5b80fd5b83823461023c578160031936011261023c576020906002549051908152f35b83823461023c578160031936011261023c576020906001549051908152f35b83823461023c578160031936011261023c57517f00000000000000000000000000000000000000000000000000000000000000006001600160a01b03168152602090f35b905083346107c457806003193601126107c457506001546002549082526020820152f35b90601f8019910116810190811067ffffffffffffffff82111761088f57604052565b634e487b7160e01b600052604160045260246000fd5b919082039182116108b257565b634e487b7160e01b600052601160045260246000fd5b908160209103126108e0575180151581036108e05790565b600080fd5b818102929181159184041417156108b25756fea264697066735822122097f3cf38e4bc8ab4ac227d82dcf81b63d509ca8a803223ad02d332bc970d014a64736f6c63430008140033","opcodes":"PUSH1 0xC0 CALLVALUE PUSH2 0x99 JUMPI PUSH1 0x1F PUSH2 0x9F7 CODESIZE DUP2 SWAP1 SUB SWAP2 DUP3 ADD PUSH1 0x1F NOT AND DUP4 ADD SWAP2 PUSH1 0x1 PUSH1 0x1 PUSH1 0x40 SHL SUB DUP4 GT DUP5 DUP5 LT OR PUSH2 0x9E JUMPI DUP1 DUP5 SWAP3 PUSH1 0x40 SWAP5 DUP6 MSTORE DUP4 CODECOPY DUP2 ADD SUB SLT PUSH2 0x99 JUMPI PUSH2 0x52 PUSH1 0x20 PUSH2 0x4B DUP4 PUSH2 0xB4 JUMP JUMPDEST SWAP3 ADD PUSH2 0xB4 JUMP JUMPDEST SWAP1 PUSH1 0x1 PUSH1 0x0 SSTORE PUSH1 0x80 MSTORE PUSH1 0xA0 MSTORE PUSH1 0x40 MLOAD PUSH2 0x92E SWAP1 DUP2 PUSH2 0xC9 DUP3 CODECOPY PUSH1 0x80 MLOAD DUP2 DUP2 DUP2 PUSH1 0xA9 ADD MSTORE DUP2 DUP2 PUSH2 0x2A6 ADD MSTORE PUSH2 0x81A ADD MSTORE PUSH1 0xA0 MLOAD DUP2 DUP2 DUP2 PUSH1 0xF4 ADD MSTORE DUP2 DUP2 PUSH2 0x20D ADD MSTORE PUSH2 0x2E9 ADD MSTORE RETURN JUMPDEST PUSH1 0x0 DUP1 REVERT JUMPDEST PUSH4 0x4E487B71 PUSH1 0xE0 SHL PUSH1 0x0 MSTORE PUSH1 0x41 PUSH1 0x4 MSTORE PUSH1 0x24 PUSH1 0x0 REVERT JUMPDEST MLOAD SWAP1 PUSH1 0x1 PUSH1 0x1 PUSH1 0xA0 SHL SUB DUP3 AND DUP3 SUB PUSH2 0x99 JUMPI JUMP INVALID PUSH1 0x80 PUSH1 0x40 DUP2 DUP2 MSTORE PUSH1 0x4 SWAP1 DUP2 CALLDATASIZE LT ISZERO PUSH2 0x16 JUMPI PUSH1 0x0 DUP1 REVERT JUMPDEST PUSH1 0x0 SWAP3 DUP4 CALLDATALOAD PUSH1 0xE0 SHR SWAP1 DUP2 PUSH4 0x902F1AC EQ PUSH2 0x849 JUMPI POP DUP1 PUSH4 0xDFE1681 EQ PUSH2 0x805 JUMPI DUP1 PUSH4 0x443CB4BC EQ PUSH2 0x7E6 JUMPI DUP1 PUSH4 0x5A76F25E EQ PUSH2 0x7C7 JUMPI DUP1 PUSH4 0x6D9A640A EQ PUSH2 0x240 JUMPI DUP1 PUSH4 0xD21220A7 EQ PUSH2 0x1F8 JUMPI PUSH4 0xFFF6CAE9 EQ PUSH2 0x71 JUMPI PUSH1 0x0 DUP1 REVERT JUMPDEST CALLVALUE PUSH2 0x1F4 JUMPI DUP3 PUSH1 0x3 NOT CALLDATASIZE ADD SLT PUSH2 0x1F4 JUMPI DUP1 MLOAD PUSH4 0x70A08231 PUSH1 0xE0 SHL DUP1 DUP3 MSTORE ADDRESS DUP5 DUP4 ADD MSTORE PUSH1 0x1 PUSH1 0x1 PUSH1 0xA0 SHL SUB SWAP4 SWAP1 SWAP2 SWAP1 PUSH1 0x20 SWAP1 DUP2 DUP4 PUSH1 0x24 DUP2 PUSH32 0x0 DUP11 AND GAS STATICCALL SWAP3 DUP4 ISZERO PUSH2 0x1EA JUMPI DUP8 SWAP4 PUSH2 0x1B4 JUMPI JUMPDEST POP PUSH1 0x24 DUP4 SWAP5 DUP4 SWAP5 PUSH1 0x1 SSTORE DUP7 MLOAD SWAP8 DUP9 SWAP4 DUP5 SWAP3 DUP4 MSTORE ADDRESS SWAP1 DUP4 ADD MSTORE PUSH32 0x0 AND GAS STATICCALL SWAP1 DUP2 ISZERO PUSH2 0x1AA JUMPI DUP6 SWAP2 PUSH2 0x157 JUMPI JUMPDEST PUSH32 0xCF2AA50876CDFBB541206F89AF0EE78D44A2ABF8D328E37FA4917F982149848A SWAP5 POP DUP2 PUSH1 0x2 SSTORE DUP4 MLOAD SWAP3 DUP4 MSTORE DUP3 ADD MSTORE LOG1 DUP1 RETURN JUMPDEST DUP1 SWAP2 POP DUP5 DUP2 RETURNDATASIZE DUP4 GT PUSH2 0x1A3 JUMPI JUMPDEST PUSH2 0x16E DUP2 DUP4 PUSH2 0x86D JUMP JUMPDEST DUP2 ADD SUB SLT PUSH2 0x19F JUMPI PUSH32 0xCF2AA50876CDFBB541206F89AF0EE78D44A2ABF8D328E37FA4917F982149848A SWAP4 MLOAD SWAP1 PUSH2 0x124 JUMP JUMPDEST DUP5 DUP1 REVERT JUMPDEST POP RETURNDATASIZE PUSH2 0x164 JUMP JUMPDEST DUP4 MLOAD RETURNDATASIZE DUP8 DUP3 RETURNDATACOPY RETURNDATASIZE SWAP1 REVERT JUMPDEST SWAP2 DUP1 SWAP4 POP DUP3 DUP2 RETURNDATASIZE DUP4 GT PUSH2 0x1E3 JUMPI JUMPDEST PUSH2 0x1CC DUP2 DUP4 PUSH2 0x86D JUMP JUMPDEST DUP2 ADD SUB SLT PUSH2 0x1DF JUMPI SWAP1 MLOAD SWAP2 SWAP1 PUSH1 0x24 PUSH2 0xDA JUMP JUMPDEST DUP7 DUP1 REVERT JUMPDEST POP RETURNDATASIZE PUSH2 0x1C2 JUMP JUMPDEST DUP6 MLOAD RETURNDATASIZE DUP10 DUP3 RETURNDATACOPY RETURNDATASIZE SWAP1 REVERT JUMPDEST DUP3 DUP1 REVERT JUMPDEST DUP4 DUP3 CALLVALUE PUSH2 0x23C JUMPI DUP2 PUSH1 0x3 NOT CALLDATASIZE ADD SLT PUSH2 0x23C JUMPI MLOAD PUSH32 0x0 PUSH1 0x1 PUSH1 0x1 PUSH1 0xA0 SHL SUB AND DUP2 MSTORE PUSH1 0x20 SWAP1 RETURN JUMPDEST POP DUP1 REVERT JUMPDEST POP SWAP2 CALLVALUE PUSH2 0x7C4 JUMPI PUSH1 0x60 CALLDATASIZE PUSH1 0x3 NOT ADD SLT PUSH2 0x7C4 JUMPI PUSH1 0x1 PUSH1 0x1 PUSH1 0xA0 SHL SUB SWAP3 PUSH1 0x24 PUSH1 0x44 CALLDATALOAD DUP6 DUP2 AND DUP3 CALLDATALOAD DUP7 CALLDATALOAD DUP3 DUP5 SUB PUSH2 0x1DF JUMPI PUSH1 0x2 DUP8 SLOAD EQ PUSH2 0x782 JUMPI PUSH1 0x2 DUP8 SSTORE DUP1 ISZERO SWAP8 DUP9 ISZERO DUP1 SWAP10 PUSH2 0x779 JUMPI JUMPDEST ISZERO PUSH2 0x737 JUMPI DUP7 MLOAD PUSH4 0x70A08231 PUSH1 0xE0 SHL DUP1 DUP3 MSTORE ADDRESS DUP4 DUP4 ADD MSTORE SWAP1 SWAP11 PUSH1 0x20 SWAP7 PUSH32 0x0 DUP3 AND SWAP2 DUP9 DUP15 DUP12 DUP2 DUP7 GAS STATICCALL SWAP14 DUP15 ISZERO PUSH2 0x548 JUMPI DUP13 SWAP15 PUSH2 0x708 JUMPI JUMPDEST POP SWAP9 DUP11 SWAP12 SWAP13 SWAP14 DUP10 DUP3 SWAP13 SWAP12 PUSH32 0x0 AND DUP1 SWAP13 MLOAD SWAP4 DUP5 DUP1 SWAP3 DUP10 DUP3 MSTORE ADDRESS DUP12 DUP4 ADD MSTORE GAS STATICCALL SWAP2 DUP3 ISZERO PUSH2 0x658 JUMPI SWAP1 DUP15 SWAP9 SWAP8 SWAP7 SWAP6 SWAP5 SWAP4 SWAP3 SWAP2 DUP10 SWAP3 PUSH2 0x6C6 JUMPI JUMPDEST POP SWAP1 DUP7 DUP9 SWAP3 PUSH1 0x1 SLOAD PUSH2 0x344 DUP4 DUP3 PUSH2 0x8A5 JUMP JUMPDEST DUP3 GT ISZERO PUSH2 0x6BD JUMPI PUSH2 0x35E SWAP3 PUSH2 0x358 SWAP2 PUSH2 0x8A5 JUMP JUMPDEST SWAP1 PUSH2 0x8A5 JUMP JUMPDEST SWAP9 JUMPDEST PUSH1 0x2 SLOAD SWAP1 PUSH2 0x36E DUP5 DUP4 PUSH2 0x8A5 JUMP JUMPDEST DUP4 GT ISZERO SWAP1 POP PUSH2 0x6B2 JUMPI PUSH2 0x384 SWAP3 PUSH2 0x358 SWAP2 PUSH2 0x8A5 JUMP JUMPDEST SWAP14 DUP15 JUMPDEST DUP9 ISZERO SWAP1 DUP2 ISZERO SWAP2 PUSH2 0x6A8 JUMPI JUMPDEST POP ISZERO PUSH2 0x664 JUMPI SWAP2 DUP7 DUP12 DUP16 SWAP4 DUP16 SWAP5 DUP16 SWAP8 SWAP7 SWAP6 DUP15 SWAP7 PUSH2 0x5E1 JUMPI JUMPDEST DUP5 PUSH2 0x552 JUMPI JUMPDEST SWAP4 POP POP POP POP MLOAD SWAP12 DUP13 DUP1 SWAP3 DUP6 DUP3 MSTORE ADDRESS DUP9 DUP4 ADD MSTORE GAS STATICCALL SWAP10 DUP11 ISZERO PUSH2 0x548 JUMPI DUP13 SWAP11 PUSH2 0x515 JUMPI JUMPDEST POP DUP8 SWAP1 DUP11 PUSH1 0x1 SSTORE DUP3 DUP13 MLOAD DUP1 SWAP12 DUP2 SWAP4 DUP3 MSTORE ADDRESS DUP8 DUP4 ADD MSTORE GAS STATICCALL SWAP8 DUP9 ISZERO PUSH2 0x50B JUMPI DUP12 SWAP9 PUSH2 0x4CC JUMPI JUMPDEST POP DUP9 PUSH2 0x425 DUP14 PUSH2 0x41F PUSH2 0x418 DUP10 PUSH2 0x412 DUP15 DUP1 PUSH1 0x2 SSTORE DUP8 PUSH2 0x8E5 JUMP JUMPDEST SWAP6 PUSH2 0x8A5 JUMP JUMPDEST SWAP2 DUP13 PUSH2 0x8A5 JUMP JUMPDEST SWAP1 PUSH2 0x8E5 JUMP JUMPDEST GT PUSH2 0x497 JUMPI POP POP PUSH32 0xCF2AA50876CDFBB541206F89AF0EE78D44A2ABF8D328E37FA4917F982149848A SWAP9 SWAP10 DUP9 MLOAD SWAP4 DUP5 MSTORE DUP6 DUP5 ADD MSTORE DUP8 DUP4 ADD MSTORE PUSH1 0x60 DUP3 ADD MSTORE PUSH32 0xD78AD95FA46C994B6551D0DA85FC275FE613CE37657FB8D5E3D130840159D822 PUSH1 0x80 CALLER SWAP3 LOG3 DUP4 MLOAD SWAP3 DUP4 MSTORE DUP3 ADD MSTORE LOG1 PUSH1 0x1 DUP2 SSTORE DUP1 RETURN JUMPDEST DUP10 MLOAD PUSH3 0x461BCD PUSH1 0xE5 SHL DUP2 MSTORE SWAP2 DUP3 ADD DUP8 SWAP1 MSTORE PUSH1 0x10 SWAP1 DUP3 ADD MSTORE PUSH16 0x1111560E8812D7D25395905492505395 PUSH1 0x82 SHL PUSH1 0x44 DUP3 ADD MSTORE PUSH1 0x64 SWAP1 REVERT JUMPDEST SWAP12 SWAP11 SWAP10 SWAP9 SWAP8 POP DUP7 DUP13 DUP2 RETURNDATASIZE DUP4 GT PUSH2 0x504 JUMPI JUMPDEST PUSH2 0x4E7 DUP2 DUP4 PUSH2 0x86D JUMP JUMPDEST DUP2 ADD SUB SLT PUSH2 0x500 JUMPI SWAP11 MLOAD SWAP10 SWAP11 SWAP9 SWAP10 SWAP8 SWAP9 SWAP7 SWAP8 SWAP7 DUP9 PUSH2 0x3F7 JUMP JUMPDEST DUP10 DUP1 REVERT JUMPDEST POP RETURNDATASIZE PUSH2 0x4DD JUMP JUMPDEST DUP11 MLOAD RETURNDATASIZE DUP14 DUP3 RETURNDATACOPY RETURNDATASIZE SWAP1 REVERT JUMPDEST SWAP1 SWAP10 POP DUP8 DUP2 DUP2 RETURNDATASIZE DUP4 GT PUSH2 0x541 JUMPI JUMPDEST PUSH2 0x52D DUP2 DUP4 PUSH2 0x86D JUMP JUMPDEST DUP2 ADD SUB SLT PUSH2 0x53D JUMPI MLOAD SWAP9 DUP8 PUSH2 0x3D2 JUMP JUMPDEST DUP12 DUP1 REVERT JUMPDEST POP RETURNDATASIZE PUSH2 0x523 JUMP JUMPDEST DUP12 MLOAD RETURNDATASIZE DUP15 DUP3 RETURNDATACOPY RETURNDATASIZE SWAP1 REVERT JUMPDEST MLOAD PUSH4 0xA9059CBB PUSH1 0xE0 SHL DUP2 MSTORE PUSH1 0x1 PUSH1 0x1 PUSH1 0xA0 SHL SUB SWAP1 SWAP3 AND DUP10 DUP4 ADD SWAP1 DUP2 MSTORE PUSH1 0x20 DUP2 ADD SWAP5 SWAP1 SWAP5 MSTORE SWAP6 SWAP7 POP SWAP3 SWAP5 SWAP3 SWAP4 SWAP3 DUP5 SWAP3 DUP4 SWAP2 SWAP1 DUP3 SWAP1 PUSH1 0x40 ADD SUB SWAP3 GAS CALL DUP1 ISZERO PUSH2 0x5D7 JUMPI SWAP2 DUP10 SWAP2 DUP13 SWAP5 SWAP4 PUSH2 0x5AA JUMPI JUMPDEST DUP12 DUP16 DUP16 DUP11 SWAP4 POP DUP2 SWAP1 PUSH2 0x3B0 JUMP JUMPDEST PUSH2 0x5C9 SWAP1 DUP4 RETURNDATASIZE DUP6 GT PUSH2 0x5D0 JUMPI JUMPDEST PUSH2 0x5C1 DUP2 DUP4 PUSH2 0x86D JUMP JUMPDEST DUP2 ADD SWAP1 PUSH2 0x8C8 JUMP JUMPDEST POP CODESIZE PUSH2 0x59D JUMP JUMPDEST POP RETURNDATASIZE PUSH2 0x5B7 JUMP JUMPDEST DUP13 MLOAD RETURNDATASIZE DUP16 DUP3 RETURNDATACOPY RETURNDATASIZE SWAP1 REVERT JUMPDEST MLOAD PUSH4 0xA9059CBB PUSH1 0xE0 SHL DUP2 MSTORE PUSH1 0x1 PUSH1 0x1 PUSH1 0xA0 SHL SUB DUP4 AND DUP11 DUP3 ADD SWAP1 DUP2 MSTORE PUSH1 0x20 DUP2 ADD DUP13 SWAP1 MSTORE SWAP8 SWAP9 POP SWAP5 SWAP7 SWAP2 SWAP6 SWAP4 POP DUP5 SWAP3 POP SWAP1 DUP3 SWAP1 DUP2 SWAP1 PUSH1 0x40 ADD SUB SWAP2 DUP8 GAS CALL DUP1 ISZERO PUSH2 0x658 JUMPI DUP12 DUP16 SWAP4 DUP16 SWAP5 DUP16 SWAP8 SWAP7 SWAP5 SWAP6 DUP15 SWAP7 DUP13 SWAP6 PUSH2 0x63B JUMPI JUMPDEST POP PUSH2 0x3AA JUMP JUMPDEST PUSH2 0x651 SWAP1 DUP9 RETURNDATASIZE DUP11 GT PUSH2 0x5D0 JUMPI PUSH2 0x5C1 DUP2 DUP4 PUSH2 0x86D JUMP JUMPDEST POP CODESIZE PUSH2 0x635 JUMP JUMPDEST DUP15 DUP15 MLOAD SWAP1 RETURNDATASIZE SWAP1 DUP3 RETURNDATACOPY RETURNDATASIZE SWAP1 REVERT JUMPDEST POP POP DUP11 MLOAD PUSH3 0x461BCD PUSH1 0xE5 SHL DUP2 MSTORE DUP1 DUP5 ADD DUP10 SWAP1 MSTORE PUSH1 0x1E DUP2 DUP13 ADD MSTORE PUSH32 0x4445583A20494E53554646494349454E545F494E5055545F414D4F554E540000 PUSH1 0x44 DUP3 ADD MSTORE PUSH1 0x64 SWAP1 REVERT JUMPDEST SWAP1 POP ISZERO ISZERO DUP16 PUSH2 0x392 JUMP JUMPDEST POP POP POP DUP13 SWAP14 DUP15 PUSH2 0x387 JUMP JUMPDEST POP POP POP DUP9 PUSH2 0x360 JUMP JUMPDEST DUP12 DUP1 SWAP3 SWAP5 SWAP6 SWAP7 SWAP8 SWAP9 SWAP10 SWAP11 POP DUP2 SWAP4 POP RETURNDATASIZE DUP4 GT PUSH2 0x701 JUMPI JUMPDEST PUSH2 0x6E6 DUP2 DUP4 PUSH2 0x86D JUMP JUMPDEST DUP2 ADD SUB SLT PUSH2 0x6FD JUMPI MLOAD DUP14 SWAP8 SWAP7 SWAP6 SWAP5 SWAP4 SWAP3 SWAP2 DUP7 PUSH2 0x332 JUMP JUMPDEST DUP14 DUP1 REVERT JUMPDEST POP RETURNDATASIZE PUSH2 0x6DC JUMP JUMPDEST SWAP1 SWAP14 POP DUP9 DUP2 DUP2 RETURNDATASIZE DUP4 GT PUSH2 0x730 JUMPI JUMPDEST PUSH2 0x720 DUP2 DUP4 PUSH2 0x86D JUMP JUMPDEST DUP2 ADD SUB SLT PUSH2 0x53D JUMPI MLOAD SWAP13 DUP10 PUSH2 0x2DD JUMP JUMPDEST POP RETURNDATASIZE PUSH2 0x716 JUMP JUMPDEST PUSH1 0x64 SWAP1 PUSH1 0x1F DUP8 PUSH1 0x20 DUP11 MLOAD SWAP4 PUSH3 0x461BCD PUSH1 0xE5 SHL DUP6 MSTORE DUP5 ADD MSTORE DUP3 ADD MSTORE PUSH32 0x4445583A20494E53554646494349454E545F4F55545055545F414D4F554E5400 PUSH1 0x44 DUP3 ADD MSTORE REVERT JUMPDEST POP DUP3 ISZERO ISZERO PUSH2 0x288 JUMP JUMPDEST DUP6 MLOAD PUSH3 0x461BCD PUSH1 0xE5 SHL DUP2 MSTORE PUSH1 0x20 DUP2 DUP11 ADD MSTORE PUSH1 0x1F DUP2 DUP8 ADD MSTORE PUSH32 0x5265656E7472616E637947756172643A207265656E7472616E742063616C6C00 PUSH1 0x44 DUP3 ADD MSTORE PUSH1 0x64 SWAP1 REVERT JUMPDEST DUP1 REVERT JUMPDEST DUP4 DUP3 CALLVALUE PUSH2 0x23C JUMPI DUP2 PUSH1 0x3 NOT CALLDATASIZE ADD SLT PUSH2 0x23C JUMPI PUSH1 0x20 SWAP1 PUSH1 0x2 SLOAD SWAP1 MLOAD SWAP1 DUP2 MSTORE RETURN JUMPDEST DUP4 DUP3 CALLVALUE PUSH2 0x23C JUMPI DUP2 PUSH1 0x3 NOT CALLDATASIZE ADD SLT PUSH2 0x23C JUMPI PUSH1 0x20 SWAP1 PUSH1 0x1 SLOAD SWAP1 MLOAD SWAP1 DUP2 MSTORE RETURN JUMPDEST DUP4 DUP3 CALLVALUE PUSH2 0x23C JUMPI DUP2 PUSH1 0x3 NOT CALLDATASIZE ADD SLT PUSH2 0x23C JUMPI MLOAD PUSH32 0x0 PUSH1 0x1 PUSH1 0x1 PUSH1 0xA0 SHL SUB AND DUP2 MSTORE PUSH1 0x20 SWAP1 RETURN JUMPDEST SWAP1 POP DUP4 CALLVALUE PUSH2 0x7C4 JUMPI DUP1 PUSH1 0x3 NOT CALLDATASIZE ADD SLT PUSH2 0x7C4 JUMPI POP PUSH1 0x1 SLOAD PUSH1 0x2 SLOAD SWAP1 DUP3 MSTORE PUSH1 0x20 DUP3 ADD MSTORE RETURN JUMPDEST SWAP1 PUSH1 0x1F DUP1 NOT SWAP2 ADD AND DUP2 ADD SWAP1 DUP2 LT PUSH8 0xFFFFFFFFFFFFFFFF DUP3 GT OR PUSH2 0x88F JUMPI PUSH1 0x40 MSTORE JUMP JUMPDEST PUSH4 0x4E487B71 PUSH1 0xE0 SHL PUSH1 0x0 MSTORE PUSH1 0x41 PUSH1 0x4 MSTORE PUSH1 0x24 PUSH1 0x0 REVERT JUMPDEST SWAP2 SWAP1 DUP3 SUB SWAP2 DUP3 GT PUSH2 0x8B2 JUMPI JUMP JUMPDEST PUSH4 0x4E487B71 PUSH1 0xE0 SHL PUSH1 0x0 MSTORE PUSH1 0x11 PUSH1 0x4 MSTORE PUSH1 0x24 PUSH1 0x0 REVERT JUMPDEST SWAP1 DUP2 PUSH1 0x20 SWAP2 SUB SLT PUSH2 0x8E0 JUMPI MLOAD DUP1 ISZERO ISZERO DUP2 SUB PUSH2 0x8E0 JUMPI SWAP1 JUMP JUMPDEST PUSH1 0x0 DUP1 REVERT JUMPDEST DUP2 DUP2 MUL SWAP3 SWAP2 DUP2 ISZERO SWAP2 DUP5 DIV EQ OR ISZERO PUSH2 0x8B2 JUMPI JUMP INVALID LOG2 PUSH5 0x6970667358 0x22 SLT KECCAK256 SWAP8 RETURN 0xCF CODESIZE 0xE4 0xBC DUP11 0xB4 0xAC 0x22 PUSH30 0x82DCF81B63D509CA8A803223AD02D332BC970D014A64736F6C6343000814 STOP CALLER "},"methodIdentifiers":{"getReserves()":"0902f1ac","reserve0()":"443cb4bc","reserve1()":"5a76f25e","swap(uint256,uint256,address)":"6d9a640a","sync()":"fff6cae9","token0()":"0dfe1681","token1()":"d21220a7"}},"storageLayout":{"storage":[{"astId":620,"contract":"contracts/sovereign/SovereignPairV3.sol:SovereignPairV3","label":"_status","offset":0,"slot":"0","type":"t_uint256"},{"astId":8291,"contract":"contracts/sovereign/SovereignPairV3.sol:SovereignPairV3","label":"reserve0","offset":0,"slot":"1","type":"t_uint256"},{"astId":8293,"contract":"contracts/sovereign/SovereignPairV3.sol:SovereignPairV3","label":"reserve1","offset":0,"slot":"2","type":"t_uint256"}],"types":{"t_uint256":{"encoding":"inplace","label":"uint256","numberOfBytes":"32"}}}}}}