{"contracts/stablecoin/KortanaStabilizer.sol":{"KortanaStabilizer":{"abi":[{"inputs":[{"internalType":"address","name":"_kortusd","type":"address"},{"internalType":"address","name":"_oracle","type":"address"},{"internalType":"address","name":"_collateralToken","type":"address"},{"internalType":"address","name":"_treasury","type":"address"}],"stateMutability":"nonpayable","type":"constructor"},{"anonymous":false,"inputs":[{"indexed":true,"internalType":"address","name":"user","type":"address"},{"indexed":false,"internalType":"uint256","name":"kortusdIn","type":"uint256"},{"indexed":false,"internalType":"uint256","name":"collateralOut","type":"uint256"}],"name":"Burned","type":"event"},{"anonymous":false,"inputs":[{"indexed":false,"internalType":"uint256","name":"oldRatio","type":"uint256"},{"indexed":false,"internalType":"uint256","name":"newRatio","type":"uint256"}],"name":"CollateralRatioUpdated","type":"event"},{"anonymous":false,"inputs":[{"indexed":true,"internalType":"address","name":"user","type":"address"},{"indexed":false,"internalType":"uint256","name":"collateralIn","type":"uint256"},{"indexed":false,"internalType":"uint256","name":"kortusdOut","type":"uint256"},{"indexed":false,"internalType":"uint256","name":"fee","type":"uint256"}],"name":"Minted","type":"event"},{"anonymous":false,"inputs":[{"indexed":true,"internalType":"address","name":"previousOwner","type":"address"},{"indexed":true,"internalType":"address","name":"newOwner","type":"address"}],"name":"OwnershipTransferred","type":"event"},{"anonymous":false,"inputs":[{"indexed":false,"internalType":"uint256","name":"currentPrice","type":"uint256"},{"indexed":false,"internalType":"uint256","name":"pegTarget","type":"uint256"}],"name":"PegCheckFailed","type":"event"},{"inputs":[],"name":"DEPEG_THRESHOLD","outputs":[{"internalType":"uint256","name":"","type":"uint256"}],"stateMutability":"view","type":"function"},{"inputs":[],"name":"MAX_COLLATERAL_RATIO","outputs":[{"internalType":"uint256","name":"","type":"uint256"}],"stateMutability":"view","type":"function"},{"inputs":[],"name":"MAX_STABILITY_FEE","outputs":[{"internalType":"uint256","name":"","type":"uint256"}],"stateMutability":"view","type":"function"},{"inputs":[],"name":"MIN_COLLATERAL_RATIO","outputs":[{"internalType":"uint256","name":"","type":"uint256"}],"stateMutability":"view","type":"function"},{"inputs":[{"internalType":"uint256","name":"kortusdAmount","type":"uint256"},{"internalType":"uint256","name":"minCollateralOut","type":"uint256"}],"name":"burn","outputs":[],"stateMutability":"nonpayable","type":"function"},{"inputs":[],"name":"collateralRatio","outputs":[{"internalType":"uint256","name":"","type":"uint256"}],"stateMutability":"view","type":"function"},{"inputs":[],"name":"collateralToken","outputs":[{"internalType":"address","name":"","type":"address"}],"stateMutability":"view","type":"function"},{"inputs":[],"name":"collateralizationRate","outputs":[{"internalType":"uint256","name":"","type":"uint256"}],"stateMutability":"view","type":"function"},{"inputs":[],"name":"kortusd","outputs":[{"internalType":"contract KORTUSD","name":"","type":"address"}],"stateMutability":"view","type":"function"},{"inputs":[{"internalType":"uint256","name":"collateralAmount","type":"uint256"},{"internalType":"uint256","name":"minKortusdOut","type":"uint256"}],"name":"mint","outputs":[],"stateMutability":"nonpayable","type":"function"},{"inputs":[],"name":"mintedSupply","outputs":[{"internalType":"uint256","name":"","type":"uint256"}],"stateMutability":"view","type":"function"},{"inputs":[],"name":"oracle","outputs":[{"internalType":"contract KortanaOracle","name":"","type":"address"}],"stateMutability":"view","type":"function"},{"inputs":[],"name":"owner","outputs":[{"internalType":"address","name":"","type":"address"}],"stateMutability":"view","type":"function"},{"inputs":[],"name":"renounceOwnership","outputs":[],"stateMutability":"nonpayable","type":"function"},{"inputs":[{"internalType":"uint256","name":"newRatio","type":"uint256"}],"name":"setCollateralRatio","outputs":[],"stateMutability":"nonpayable","type":"function"},{"inputs":[{"internalType":"address","name":"newOracle","type":"address"}],"name":"setOracle","outputs":[],"stateMutability":"nonpayable","type":"function"},{"inputs":[{"internalType":"uint256","name":"newFee","type":"uint256"}],"name":"setStabilityFee","outputs":[],"stateMutability":"nonpayable","type":"function"},{"inputs":[],"name":"stabilityFee","outputs":[{"internalType":"uint256","name":"","type":"uint256"}],"stateMutability":"view","type":"function"},{"inputs":[],"name":"totalCollateral","outputs":[{"internalType":"uint256","name":"","type":"uint256"}],"stateMutability":"view","type":"function"},{"inputs":[{"internalType":"address","name":"newOwner","type":"address"}],"name":"transferOwnership","outputs":[],"stateMutability":"nonpayable","type":"function"},{"inputs":[],"name":"treasury","outputs":[{"internalType":"address","name":"","type":"address"}],"stateMutability":"view","type":"function"}],"evm":{"bytecode":{"linkReferences":{},"object":"60a03461011657601f6110ee38819003918201601f19168301916001600160401b0383118484101761011b578084926080946040528339810103126101165761004781610131565b9061005460208201610131565b61006c606061006560408501610131565b9301610131565b6000549360018060a01b03199333858716176000556040519560018060a01b03948580948193823391167f8be0079c531659141344cd1fd0a4f28419497f9722a3daafe3b4186f6b6457e0600080a360018055611f40600455603260055516608052168560025416176002551683600354161760035516906008541617600855610fa890816101468239608051818181610364015281816106610152818161098f0152610b410152f35b600080fd5b634e487b7160e01b600052604160045260246000fd5b51906001600160a01b03821682036101165756fe6040608081526004908136101561001557600080fd5b600091823560e01c80631b2ef1ca146108275780632921e8bb146107e4578063361416e1146108085780634ac8eb5f146107e95780634e6657bc146107e45780636060663e1461073357806361d027b31461070a578063705d6b35146106ed578063715018a614610690578063722bb3741461064c5780637a9fffb71461062f5780637adbf973146105e65780637dc0d1d0146105bd5780638da5cb5b14610595578063b2016bd41461056c578063b390c0ab146102b4578063b4eae1cb14610297578063bb4cfe3b14610273578063c1bd8cf914610250578063f2fde38b1461017c5763fb4ca35b1461010857600080fd5b3461017857602036600319011261017857803591610124610cee565b6101f4831161013557505060055580f35b906020606492519162461bcd60e51b8352820152601860248201527f53544142494c495a45523a204645455f544f4f5f4849474800000000000000006044820152fd5b8280fd5b509034610178576020366003190112610178576001600160a01b0382358181169391929084900361024c576101af610cee565b83156101fa575050600054826bffffffffffffffffffffffff60a01b821617600055167f8be0079c531659141344cd1fd0a4f28419497f9722a3daafe3b4186f6b6457e0600080a380f35b906020608492519162461bcd60e51b8352820152602660248201527f4f776e61626c653a206e6577206f776e657220697320746865207a65726f206160448201526564647265737360d01b6064820152fd5b8480fd5b50503461026f578160031936011261026f576020906007549051908152f35b5080fd5b50503461026f578160031936011261026f57602090610290610eaf565b9051908152f35b503461017857826003193601126101785760209250549051908152f35b509034610178576102c436610cbb565b6102cf929192610e59565b6002548251633dda0eef60e21b81526001600160a01b039560209290919083908290849082908b165afa908115610562578891610530575b50610313825487610d92565b670de0b6b3a76400009081810291818304149015171561051d576127109182810292818404149015171561051d576103579161034e91610dbb565b93841015610de8565b60065483116104d05786867f000000000000000000000000000000000000000000000000000000000000000016803b1561026f57855163079cc67960e41b815233848201908152602081018990529091839183919082908490829060400103925af180156104c6576104ae575b5050828291610429976103d983600654610ddb565b60065560075488808211156104a6576103f191610ddb565b600755600354875163a9059cbb60e01b815233938101938452602084019490945292988993919091169183918b918391604090910190565b03925af194851561049c577f23ff0e75edf108e3d0392d92e13e8c8a868ef19001bd49f9e94876dc46dff87f949561046f575b5082519485528401523392a26001805580f35b61048e90823d8411610495575b6104868183610d70565b810190610e34565b503861045c565b503d61047c565b83513d88823e3d90fd5b5050896103f1565b6104b790610d46565b6104c25786386103c4565b8680fd5b86513d84823e3d90fd5b60849184519162461bcd60e51b8352820152602360248201527f53544142494c495a45523a20494e53554646494349454e545f434f4c4c41544560448201526214905360ea1b6064820152fd5b634e487b7160e01b895260118352602489fd5b90508281813d831161055b575b6105478183610d70565b81010312610556575138610307565b600080fd5b503d61053d565b85513d8a823e3d90fd5b50503461026f578160031936011261026f5760035490516001600160a01b039091168152602090f35b50503461026f578160031936011261026f57905490516001600160a01b039091168152602090f35b50503461026f578160031936011261026f5760025490516001600160a01b039091168152602090f35b83823461026f57602036600319011261026f57356001600160a01b0381169081900361026f57610614610cee565b6bffffffffffffffffffffffff60a01b600254161760025580f35b50503461026f578160031936011261026f57602090516113888152f35b50503461026f578160031936011261026f57517f00000000000000000000000000000000000000000000000000000000000000006001600160a01b03168152602090f35b83346106ea57806003193601126106ea576106a9610cee565b600080546001600160a01b0319811682556001600160a01b03167f8be0079c531659141344cd1fd0a4f28419497f9722a3daafe3b4186f6b6457e08280a380f35b80fd5b50503461026f578160031936011261026f57602090516127108152f35b50503461026f578160031936011261026f5760085490516001600160a01b039091168152602090f35b503461017857602036600319011261017857803591610750610cee565b611388831015806107d8575b15610795577fea851fc89ebccda62380b76fc8e8317f0bcd4d75ea908cf501bd2ebc6ac1c8f29082548151908152846020820152a15580f35b906020606492519162461bcd60e51b8352820152601f60248201527f53544142494c495a45523a20524154494f5f4f55545f4f465f424f554e4453006044820152fd5b5061271083111561075c565b610cd1565b50503461026f578160031936011261026f576020906006549051908152f35b50503461026f578160031936011261026f576020906005549051908152f35b50346101785761083636610cbb565b610841939193610e59565b600254825163b0a9a88f60e01b8152936020916001600160a01b0390839087908490829085165afa958615610562578896610c88575b50670de0b6b3a76400009586811015610c5657808703878111610af757612710808202918204148289141715610af757876101f491045b11610b39575081838260025416875192838092633dda0eef60e21b82525afa8015610aed578990610b0a575b6108e5915088610d92565b956127109687810290808204891490151715610af757835480830292830403610af7576109186109369261092d92610dbb565b976109256005548a610d92565b048098610ddb565b94851015610de8565b8783826003541660648851809481936323b872dd60e01b835233898401523060248401528d60448401525af18015610aed57610ad0575b5061097a87600654610e4c565b60065561098984600754610e4c565b600755807f000000000000000000000000000000000000000000000000000000000000000016803b15610acc5785516340c10f1960e01b8082523385830190815260208101889052909391908b9082908190604001038183875af18015610ac257610aa9575b50908993929188610a38575b505050505082519485528401528201527f5a3358a3d27a5373c0df2604662088d37894d56b7cfd27f315770440f4e0d91960603392a26001805580f35b6008541690803b1561024c5787519283526001600160a01b039091169282019283526020830188905290918391839182908490829060400103925af18015610a9f57610a87575b8080806109fb565b610a9090610d46565b610a9b578538610a7f565b8580fd5b85513d84823e3d90fd5b610ab8909a919493929a610d46565b98909192386109ef565b88513d8d823e3d90fd5b8880fd5b610ae690843d8611610495576104868183610d70565b503861096d565b86513d8b823e3d90fd5b634e487b7160e01b8a526011845260248afd5b508381813d8311610b32575b610b208183610d70565b81010312610acc576108e590516108da565b503d610b16565b9290868987927f000000000000000000000000000000000000000000000000000000000000000016803b1561026f5781809160648651809581936361b242c560e01b83528a8c840152601860248401527f44455045475f5448524553484f4c445f4558434545444544000000000000000060448401525af1908115610c4b5750957ff4a065484010f1a4ee580a29351eda12b1eb37da0388dc3d6b969a680db12acc928492608498610c3c575b50825191825285820152a15162461bcd60e51b815291820152602560248201527f53544142494c495a45523a20434952435549545f425245414b45525f5452494760448201526411d154915160da1b6064820152fd5b610c4590610d46565b88610be6565b8451903d90823e3d90fd5b670de0b6b3a763ffff198101818111610af75761271090818102918183041490151715610af757876101f491046108ae565b9095508281813d8311610cb4575b610ca08183610d70565b81010312610cb057519438610877565b8780fd5b503d610c96565b6040906003190112610556576004359060243590565b346105565760003660031901126105565760206040516101f48152f35b6000546001600160a01b03163303610d0257565b606460405162461bcd60e51b815260206004820152602060248201527f4f776e61626c653a2063616c6c6572206973206e6f7420746865206f776e65726044820152fd5b67ffffffffffffffff8111610d5a57604052565b634e487b7160e01b600052604160045260246000fd5b90601f8019910116810190811067ffffffffffffffff821117610d5a57604052565b81810292918115918404141715610da557565b634e487b7160e01b600052601160045260246000fd5b8115610dc5570490565b634e487b7160e01b600052601260045260246000fd5b91908203918211610da557565b15610def57565b60405162461bcd60e51b815260206004820152601d60248201527f53544142494c495a45523a20534c4950504147455f544f4f5f484947480000006044820152606490fd5b90816020910312610556575180151581036105565790565b91908201809211610da557565b600260015414610e6a576002600155565b60405162461bcd60e51b815260206004820152601f60248201527f5265656e7472616e637947756172643a207265656e7472616e742063616c6c006044820152606490fd5b6007548015610f6b57600654600254604051633dda0eef60e21b815290602090829060049082906001600160a01b03165afa908115610f5f57600091610f26575b50610f0490670de0b6b3a764000092610d92565b049061271091828102928184041490151715610da557610f2391610dbb565b90565b906020823d8211610f57575b81610f3f60209383610d70565b810103126106ea575051670de0b6b3a7640000610ef0565b3d9150610f32565b6040513d6000823e3d90fd5b506127109056fea264697066735822122080fafdd250657594240ea9c62e3d89134180da4f431e00e23c17f8de03aba3eb64736f6c63430008140033","opcodes":"PUSH1 0xA0 CALLVALUE PUSH2 0x116 JUMPI PUSH1 0x1F PUSH2 0x10EE CODESIZE DUP2 SWAP1 SUB SWAP2 DUP3 ADD PUSH1 0x1F NOT AND DUP4 ADD SWAP2 PUSH1 0x1 PUSH1 0x1 PUSH1 0x40 SHL SUB DUP4 GT DUP5 DUP5 LT OR PUSH2 0x11B JUMPI DUP1 DUP5 SWAP3 PUSH1 0x80 SWAP5 PUSH1 0x40 MSTORE DUP4 CODECOPY DUP2 ADD SUB SLT PUSH2 0x116 JUMPI PUSH2 0x47 DUP2 PUSH2 0x131 JUMP JUMPDEST SWAP1 PUSH2 0x54 PUSH1 0x20 DUP3 ADD PUSH2 0x131 JUMP JUMPDEST PUSH2 0x6C PUSH1 0x60 PUSH2 0x65 PUSH1 0x40 DUP6 ADD PUSH2 0x131 JUMP JUMPDEST SWAP4 ADD PUSH2 0x131 JUMP JUMPDEST PUSH1 0x0 SLOAD SWAP4 PUSH1 0x1 DUP1 PUSH1 0xA0 SHL SUB NOT SWAP4 CALLER DUP6 DUP8 AND OR PUSH1 0x0 SSTORE PUSH1 0x40 MLOAD SWAP6 PUSH1 0x1 DUP1 PUSH1 0xA0 SHL SUB SWAP5 DUP6 DUP1 SWAP5 DUP2 SWAP4 DUP3 CALLER SWAP2 AND PUSH32 0x8BE0079C531659141344CD1FD0A4F28419497F9722A3DAAFE3B4186F6B6457E0 PUSH1 0x0 DUP1 LOG3 PUSH1 0x1 DUP1 SSTORE PUSH2 0x1F40 PUSH1 0x4 SSTORE PUSH1 0x32 PUSH1 0x5 SSTORE AND PUSH1 0x80 MSTORE AND DUP6 PUSH1 0x2 SLOAD AND OR PUSH1 0x2 SSTORE AND DUP4 PUSH1 0x3 SLOAD AND OR PUSH1 0x3 SSTORE AND SWAP1 PUSH1 0x8 SLOAD AND OR PUSH1 0x8 SSTORE PUSH2 0xFA8 SWAP1 DUP2 PUSH2 0x146 DUP3 CODECOPY PUSH1 0x80 MLOAD DUP2 DUP2 DUP2 PUSH2 0x364 ADD MSTORE DUP2 DUP2 PUSH2 0x661 ADD MSTORE DUP2 DUP2 PUSH2 0x98F ADD MSTORE PUSH2 0xB41 ADD MSTORE RETURN JUMPDEST PUSH1 0x0 DUP1 REVERT JUMPDEST PUSH4 0x4E487B71 PUSH1 0xE0 SHL PUSH1 0x0 MSTORE PUSH1 0x41 PUSH1 0x4 MSTORE PUSH1 0x24 PUSH1 0x0 REVERT JUMPDEST MLOAD SWAP1 PUSH1 0x1 PUSH1 0x1 PUSH1 0xA0 SHL SUB DUP3 AND DUP3 SUB PUSH2 0x116 JUMPI JUMP INVALID PUSH1 0x40 PUSH1 0x80 DUP2 MSTORE PUSH1 0x4 SWAP1 DUP2 CALLDATASIZE LT ISZERO PUSH2 0x15 JUMPI PUSH1 0x0 DUP1 REVERT JUMPDEST PUSH1 0x0 SWAP2 DUP3 CALLDATALOAD PUSH1 0xE0 SHR DUP1 PUSH4 0x1B2EF1CA EQ PUSH2 0x827 JUMPI DUP1 PUSH4 0x2921E8BB EQ PUSH2 0x7E4 JUMPI DUP1 PUSH4 0x361416E1 EQ PUSH2 0x808 JUMPI DUP1 PUSH4 0x4AC8EB5F EQ PUSH2 0x7E9 JUMPI DUP1 PUSH4 0x4E6657BC EQ PUSH2 0x7E4 JUMPI DUP1 PUSH4 0x6060663E EQ PUSH2 0x733 JUMPI DUP1 PUSH4 0x61D027B3 EQ PUSH2 0x70A JUMPI DUP1 PUSH4 0x705D6B35 EQ PUSH2 0x6ED JUMPI DUP1 PUSH4 0x715018A6 EQ PUSH2 0x690 JUMPI DUP1 PUSH4 0x722BB374 EQ PUSH2 0x64C JUMPI DUP1 PUSH4 0x7A9FFFB7 EQ PUSH2 0x62F JUMPI DUP1 PUSH4 0x7ADBF973 EQ PUSH2 0x5E6 JUMPI DUP1 PUSH4 0x7DC0D1D0 EQ PUSH2 0x5BD JUMPI DUP1 PUSH4 0x8DA5CB5B EQ PUSH2 0x595 JUMPI DUP1 PUSH4 0xB2016BD4 EQ PUSH2 0x56C JUMPI DUP1 PUSH4 0xB390C0AB EQ PUSH2 0x2B4 JUMPI DUP1 PUSH4 0xB4EAE1CB EQ PUSH2 0x297 JUMPI DUP1 PUSH4 0xBB4CFE3B EQ PUSH2 0x273 JUMPI DUP1 PUSH4 0xC1BD8CF9 EQ PUSH2 0x250 JUMPI DUP1 PUSH4 0xF2FDE38B EQ PUSH2 0x17C JUMPI PUSH4 0xFB4CA35B EQ PUSH2 0x108 JUMPI PUSH1 0x0 DUP1 REVERT JUMPDEST CALLVALUE PUSH2 0x178 JUMPI PUSH1 0x20 CALLDATASIZE PUSH1 0x3 NOT ADD SLT PUSH2 0x178 JUMPI DUP1 CALLDATALOAD SWAP2 PUSH2 0x124 PUSH2 0xCEE JUMP JUMPDEST PUSH2 0x1F4 DUP4 GT PUSH2 0x135 JUMPI POP POP PUSH1 0x5 SSTORE DUP1 RETURN JUMPDEST SWAP1 PUSH1 0x20 PUSH1 0x64 SWAP3 MLOAD SWAP2 PUSH3 0x461BCD PUSH1 0xE5 SHL DUP4 MSTORE DUP3 ADD MSTORE PUSH1 0x18 PUSH1 0x24 DUP3 ADD MSTORE PUSH32 0x53544142494C495A45523A204645455F544F4F5F484947480000000000000000 PUSH1 0x44 DUP3 ADD MSTORE REVERT JUMPDEST DUP3 DUP1 REVERT JUMPDEST POP SWAP1 CALLVALUE PUSH2 0x178 JUMPI PUSH1 0x20 CALLDATASIZE PUSH1 0x3 NOT ADD SLT PUSH2 0x178 JUMPI PUSH1 0x1 PUSH1 0x1 PUSH1 0xA0 SHL SUB DUP3 CALLDATALOAD DUP2 DUP2 AND SWAP4 SWAP2 SWAP3 SWAP1 DUP5 SWAP1 SUB PUSH2 0x24C JUMPI PUSH2 0x1AF PUSH2 0xCEE JUMP JUMPDEST DUP4 ISZERO PUSH2 0x1FA JUMPI POP POP PUSH1 0x0 SLOAD DUP3 PUSH12 0xFFFFFFFFFFFFFFFFFFFFFFFF PUSH1 0xA0 SHL DUP3 AND OR PUSH1 0x0 SSTORE AND PUSH32 0x8BE0079C531659141344CD1FD0A4F28419497F9722A3DAAFE3B4186F6B6457E0 PUSH1 0x0 DUP1 LOG3 DUP1 RETURN JUMPDEST SWAP1 PUSH1 0x20 PUSH1 0x84 SWAP3 MLOAD SWAP2 PUSH3 0x461BCD PUSH1 0xE5 SHL DUP4 MSTORE DUP3 ADD MSTORE PUSH1 0x26 PUSH1 0x24 DUP3 ADD MSTORE PUSH32 0x4F776E61626C653A206E6577206F776E657220697320746865207A65726F2061 PUSH1 0x44 DUP3 ADD MSTORE PUSH6 0x646472657373 PUSH1 0xD0 SHL PUSH1 0x64 DUP3 ADD MSTORE REVERT JUMPDEST DUP5 DUP1 REVERT JUMPDEST POP POP CALLVALUE PUSH2 0x26F JUMPI DUP2 PUSH1 0x3 NOT CALLDATASIZE ADD SLT PUSH2 0x26F JUMPI PUSH1 0x20 SWAP1 PUSH1 0x7 SLOAD SWAP1 MLOAD SWAP1 DUP2 MSTORE RETURN JUMPDEST POP DUP1 REVERT JUMPDEST POP POP CALLVALUE PUSH2 0x26F JUMPI DUP2 PUSH1 0x3 NOT CALLDATASIZE ADD SLT PUSH2 0x26F JUMPI PUSH1 0x20 SWAP1 PUSH2 0x290 PUSH2 0xEAF JUMP JUMPDEST SWAP1 MLOAD SWAP1 DUP2 MSTORE RETURN JUMPDEST POP CALLVALUE PUSH2 0x178 JUMPI DUP3 PUSH1 0x3 NOT CALLDATASIZE ADD SLT PUSH2 0x178 JUMPI PUSH1 0x20 SWAP3 POP SLOAD SWAP1 MLOAD SWAP1 DUP2 MSTORE RETURN JUMPDEST POP SWAP1 CALLVALUE PUSH2 0x178 JUMPI PUSH2 0x2C4 CALLDATASIZE PUSH2 0xCBB JUMP JUMPDEST PUSH2 0x2CF SWAP3 SWAP2 SWAP3 PUSH2 0xE59 JUMP JUMPDEST PUSH1 0x2 SLOAD DUP3 MLOAD PUSH4 0x3DDA0EEF PUSH1 0xE2 SHL DUP2 MSTORE PUSH1 0x1 PUSH1 0x1 PUSH1 0xA0 SHL SUB SWAP6 PUSH1 0x20 SWAP3 SWAP1 SWAP2 SWAP1 DUP4 SWAP1 DUP3 SWAP1 DUP5 SWAP1 DUP3 SWAP1 DUP12 AND GAS STATICCALL SWAP1 DUP2 ISZERO PUSH2 0x562 JUMPI DUP9 SWAP2 PUSH2 0x530 JUMPI JUMPDEST POP PUSH2 0x313 DUP3 SLOAD DUP8 PUSH2 0xD92 JUMP JUMPDEST PUSH8 0xDE0B6B3A7640000 SWAP1 DUP2 DUP2 MUL SWAP2 DUP2 DUP4 DIV EQ SWAP1 ISZERO OR ISZERO PUSH2 0x51D JUMPI PUSH2 0x2710 SWAP2 DUP3 DUP2 MUL SWAP3 DUP2 DUP5 DIV EQ SWAP1 ISZERO OR ISZERO PUSH2 0x51D JUMPI PUSH2 0x357 SWAP2 PUSH2 0x34E SWAP2 PUSH2 0xDBB JUMP JUMPDEST SWAP4 DUP5 LT ISZERO PUSH2 0xDE8 JUMP JUMPDEST PUSH1 0x6 SLOAD DUP4 GT PUSH2 0x4D0 JUMPI DUP7 DUP7 PUSH32 0x0 AND DUP1 EXTCODESIZE ISZERO PUSH2 0x26F JUMPI DUP6 MLOAD PUSH4 0x79CC679 PUSH1 0xE4 SHL DUP2 MSTORE CALLER DUP5 DUP3 ADD SWAP1 DUP2 MSTORE PUSH1 0x20 DUP2 ADD DUP10 SWAP1 MSTORE SWAP1 SWAP2 DUP4 SWAP2 DUP4 SWAP2 SWAP1 DUP3 SWAP1 DUP5 SWAP1 DUP3 SWAP1 PUSH1 0x40 ADD SUB SWAP3 GAS CALL DUP1 ISZERO PUSH2 0x4C6 JUMPI PUSH2 0x4AE JUMPI JUMPDEST POP POP DUP3 DUP3 SWAP2 PUSH2 0x429 SWAP8 PUSH2 0x3D9 DUP4 PUSH1 0x6 SLOAD PUSH2 0xDDB JUMP JUMPDEST PUSH1 0x6 SSTORE PUSH1 0x7 SLOAD DUP9 DUP1 DUP3 GT ISZERO PUSH2 0x4A6 JUMPI PUSH2 0x3F1 SWAP2 PUSH2 0xDDB JUMP JUMPDEST PUSH1 0x7 SSTORE PUSH1 0x3 SLOAD DUP8 MLOAD PUSH4 0xA9059CBB PUSH1 0xE0 SHL DUP2 MSTORE CALLER SWAP4 DUP2 ADD SWAP4 DUP5 MSTORE PUSH1 0x20 DUP5 ADD SWAP5 SWAP1 SWAP5 MSTORE SWAP3 SWAP9 DUP10 SWAP4 SWAP2 SWAP1 SWAP2 AND SWAP2 DUP4 SWAP2 DUP12 SWAP2 DUP4 SWAP2 PUSH1 0x40 SWAP1 SWAP2 ADD SWAP1 JUMP JUMPDEST SUB SWAP3 GAS CALL SWAP5 DUP6 ISZERO PUSH2 0x49C JUMPI PUSH32 0x23FF0E75EDF108E3D0392D92E13E8C8A868EF19001BD49F9E94876DC46DFF87F SWAP5 SWAP6 PUSH2 0x46F JUMPI JUMPDEST POP DUP3 MLOAD SWAP5 DUP6 MSTORE DUP5 ADD MSTORE CALLER SWAP3 LOG2 PUSH1 0x1 DUP1 SSTORE DUP1 RETURN JUMPDEST PUSH2 0x48E SWAP1 DUP3 RETURNDATASIZE DUP5 GT PUSH2 0x495 JUMPI JUMPDEST PUSH2 0x486 DUP2 DUP4 PUSH2 0xD70 JUMP JUMPDEST DUP2 ADD SWAP1 PUSH2 0xE34 JUMP JUMPDEST POP CODESIZE PUSH2 0x45C JUMP JUMPDEST POP RETURNDATASIZE PUSH2 0x47C JUMP JUMPDEST DUP4 MLOAD RETURNDATASIZE DUP9 DUP3 RETURNDATACOPY RETURNDATASIZE SWAP1 REVERT JUMPDEST POP POP DUP10 PUSH2 0x3F1 JUMP JUMPDEST PUSH2 0x4B7 SWAP1 PUSH2 0xD46 JUMP JUMPDEST PUSH2 0x4C2 JUMPI DUP7 CODESIZE PUSH2 0x3C4 JUMP JUMPDEST DUP7 DUP1 REVERT JUMPDEST DUP7 MLOAD RETURNDATASIZE DUP5 DUP3 RETURNDATACOPY RETURNDATASIZE SWAP1 REVERT JUMPDEST PUSH1 0x84 SWAP2 DUP5 MLOAD SWAP2 PUSH3 0x461BCD PUSH1 0xE5 SHL DUP4 MSTORE DUP3 ADD MSTORE PUSH1 0x23 PUSH1 0x24 DUP3 ADD MSTORE PUSH32 0x53544142494C495A45523A20494E53554646494349454E545F434F4C4C415445 PUSH1 0x44 DUP3 ADD MSTORE PUSH3 0x149053 PUSH1 0xEA SHL PUSH1 0x64 DUP3 ADD MSTORE REVERT JUMPDEST PUSH4 0x4E487B71 PUSH1 0xE0 SHL DUP10 MSTORE PUSH1 0x11 DUP4 MSTORE PUSH1 0x24 DUP10 REVERT JUMPDEST SWAP1 POP DUP3 DUP2 DUP2 RETURNDATASIZE DUP4 GT PUSH2 0x55B JUMPI JUMPDEST PUSH2 0x547 DUP2 DUP4 PUSH2 0xD70 JUMP JUMPDEST DUP2 ADD SUB SLT PUSH2 0x556 JUMPI MLOAD CODESIZE PUSH2 0x307 JUMP JUMPDEST PUSH1 0x0 DUP1 REVERT JUMPDEST POP RETURNDATASIZE PUSH2 0x53D JUMP JUMPDEST DUP6 MLOAD RETURNDATASIZE DUP11 DUP3 RETURNDATACOPY RETURNDATASIZE SWAP1 REVERT JUMPDEST POP POP CALLVALUE PUSH2 0x26F JUMPI DUP2 PUSH1 0x3 NOT CALLDATASIZE ADD SLT PUSH2 0x26F JUMPI PUSH1 0x3 SLOAD SWAP1 MLOAD PUSH1 0x1 PUSH1 0x1 PUSH1 0xA0 SHL SUB SWAP1 SWAP2 AND DUP2 MSTORE PUSH1 0x20 SWAP1 RETURN JUMPDEST POP POP CALLVALUE PUSH2 0x26F JUMPI DUP2 PUSH1 0x3 NOT CALLDATASIZE ADD SLT PUSH2 0x26F JUMPI SWAP1 SLOAD SWAP1 MLOAD PUSH1 0x1 PUSH1 0x1 PUSH1 0xA0 SHL SUB SWAP1 SWAP2 AND DUP2 MSTORE PUSH1 0x20 SWAP1 RETURN JUMPDEST POP POP CALLVALUE PUSH2 0x26F JUMPI DUP2 PUSH1 0x3 NOT CALLDATASIZE ADD SLT PUSH2 0x26F JUMPI PUSH1 0x2 SLOAD SWAP1 MLOAD PUSH1 0x1 PUSH1 0x1 PUSH1 0xA0 SHL SUB SWAP1 SWAP2 AND DUP2 MSTORE PUSH1 0x20 SWAP1 RETURN JUMPDEST DUP4 DUP3 CALLVALUE PUSH2 0x26F JUMPI PUSH1 0x20 CALLDATASIZE PUSH1 0x3 NOT ADD SLT PUSH2 0x26F JUMPI CALLDATALOAD PUSH1 0x1 PUSH1 0x1 PUSH1 0xA0 SHL SUB DUP2 AND SWAP1 DUP2 SWAP1 SUB PUSH2 0x26F JUMPI PUSH2 0x614 PUSH2 0xCEE JUMP JUMPDEST PUSH12 0xFFFFFFFFFFFFFFFFFFFFFFFF PUSH1 0xA0 SHL PUSH1 0x2 SLOAD AND OR PUSH1 0x2 SSTORE DUP1 RETURN JUMPDEST POP POP CALLVALUE PUSH2 0x26F JUMPI DUP2 PUSH1 0x3 NOT CALLDATASIZE ADD SLT PUSH2 0x26F JUMPI PUSH1 0x20 SWAP1 MLOAD PUSH2 0x1388 DUP2 MSTORE RETURN JUMPDEST POP POP CALLVALUE PUSH2 0x26F JUMPI DUP2 PUSH1 0x3 NOT CALLDATASIZE ADD SLT PUSH2 0x26F JUMPI MLOAD PUSH32 0x0 PUSH1 0x1 PUSH1 0x1 PUSH1 0xA0 SHL SUB AND DUP2 MSTORE PUSH1 0x20 SWAP1 RETURN JUMPDEST DUP4 CALLVALUE PUSH2 0x6EA JUMPI DUP1 PUSH1 0x3 NOT CALLDATASIZE ADD SLT PUSH2 0x6EA JUMPI PUSH2 0x6A9 PUSH2 0xCEE JUMP JUMPDEST PUSH1 0x0 DUP1 SLOAD PUSH1 0x1 PUSH1 0x1 PUSH1 0xA0 SHL SUB NOT DUP2 AND DUP3 SSTORE PUSH1 0x1 PUSH1 0x1 PUSH1 0xA0 SHL SUB AND PUSH32 0x8BE0079C531659141344CD1FD0A4F28419497F9722A3DAAFE3B4186F6B6457E0 DUP3 DUP1 LOG3 DUP1 RETURN JUMPDEST DUP1 REVERT JUMPDEST POP POP CALLVALUE PUSH2 0x26F JUMPI DUP2 PUSH1 0x3 NOT CALLDATASIZE ADD SLT PUSH2 0x26F JUMPI PUSH1 0x20 SWAP1 MLOAD PUSH2 0x2710 DUP2 MSTORE RETURN JUMPDEST POP POP CALLVALUE PUSH2 0x26F JUMPI DUP2 PUSH1 0x3 NOT CALLDATASIZE ADD SLT PUSH2 0x26F JUMPI PUSH1 0x8 SLOAD SWAP1 MLOAD PUSH1 0x1 PUSH1 0x1 PUSH1 0xA0 SHL SUB SWAP1 SWAP2 AND DUP2 MSTORE PUSH1 0x20 SWAP1 RETURN JUMPDEST POP CALLVALUE PUSH2 0x178 JUMPI PUSH1 0x20 CALLDATASIZE PUSH1 0x3 NOT ADD SLT PUSH2 0x178 JUMPI DUP1 CALLDATALOAD SWAP2 PUSH2 0x750 PUSH2 0xCEE JUMP JUMPDEST PUSH2 0x1388 DUP4 LT ISZERO DUP1 PUSH2 0x7D8 JUMPI JUMPDEST ISZERO PUSH2 0x795 JUMPI PUSH32 0xEA851FC89EBCCDA62380B76FC8E8317F0BCD4D75EA908CF501BD2EBC6AC1C8F2 SWAP1 DUP3 SLOAD DUP2 MLOAD SWAP1 DUP2 MSTORE DUP5 PUSH1 0x20 DUP3 ADD MSTORE LOG1 SSTORE DUP1 RETURN JUMPDEST SWAP1 PUSH1 0x20 PUSH1 0x64 SWAP3 MLOAD SWAP2 PUSH3 0x461BCD PUSH1 0xE5 SHL DUP4 MSTORE DUP3 ADD MSTORE PUSH1 0x1F PUSH1 0x24 DUP3 ADD MSTORE PUSH32 0x53544142494C495A45523A20524154494F5F4F55545F4F465F424F554E445300 PUSH1 0x44 DUP3 ADD MSTORE REVERT JUMPDEST POP PUSH2 0x2710 DUP4 GT ISZERO PUSH2 0x75C JUMP JUMPDEST PUSH2 0xCD1 JUMP JUMPDEST POP POP CALLVALUE PUSH2 0x26F JUMPI DUP2 PUSH1 0x3 NOT CALLDATASIZE ADD SLT PUSH2 0x26F JUMPI PUSH1 0x20 SWAP1 PUSH1 0x6 SLOAD SWAP1 MLOAD SWAP1 DUP2 MSTORE RETURN JUMPDEST POP POP CALLVALUE PUSH2 0x26F JUMPI DUP2 PUSH1 0x3 NOT CALLDATASIZE ADD SLT PUSH2 0x26F JUMPI PUSH1 0x20 SWAP1 PUSH1 0x5 SLOAD SWAP1 MLOAD SWAP1 DUP2 MSTORE RETURN JUMPDEST POP CALLVALUE PUSH2 0x178 JUMPI PUSH2 0x836 CALLDATASIZE PUSH2 0xCBB JUMP JUMPDEST PUSH2 0x841 SWAP4 SWAP2 SWAP4 PUSH2 0xE59 JUMP JUMPDEST PUSH1 0x2 SLOAD DUP3 MLOAD PUSH4 0xB0A9A88F PUSH1 0xE0 SHL DUP2 MSTORE SWAP4 PUSH1 0x20 SWAP2 PUSH1 0x1 PUSH1 0x1 PUSH1 0xA0 SHL SUB SWAP1 DUP4 SWAP1 DUP8 SWAP1 DUP5 SWAP1 DUP3 SWAP1 DUP6 AND GAS STATICCALL SWAP6 DUP7 ISZERO PUSH2 0x562 JUMPI DUP9 SWAP7 PUSH2 0xC88 JUMPI JUMPDEST POP PUSH8 0xDE0B6B3A7640000 SWAP6 DUP7 DUP2 LT ISZERO PUSH2 0xC56 JUMPI DUP1 DUP8 SUB DUP8 DUP2 GT PUSH2 0xAF7 JUMPI PUSH2 0x2710 DUP1 DUP3 MUL SWAP2 DUP3 DIV EQ DUP3 DUP10 EQ OR ISZERO PUSH2 0xAF7 JUMPI DUP8 PUSH2 0x1F4 SWAP2 DIV JUMPDEST GT PUSH2 0xB39 JUMPI POP DUP2 DUP4 DUP3 PUSH1 0x2 SLOAD AND DUP8 MLOAD SWAP3 DUP4 DUP1 SWAP3 PUSH4 0x3DDA0EEF PUSH1 0xE2 SHL DUP3 MSTORE GAS STATICCALL DUP1 ISZERO PUSH2 0xAED JUMPI DUP10 SWAP1 PUSH2 0xB0A JUMPI JUMPDEST PUSH2 0x8E5 SWAP2 POP DUP9 PUSH2 0xD92 JUMP JUMPDEST SWAP6 PUSH2 0x2710 SWAP7 DUP8 DUP2 MUL SWAP1 DUP1 DUP3 DIV DUP10 EQ SWAP1 ISZERO OR ISZERO PUSH2 0xAF7 JUMPI DUP4 SLOAD DUP1 DUP4 MUL SWAP3 DUP4 DIV SUB PUSH2 0xAF7 JUMPI PUSH2 0x918 PUSH2 0x936 SWAP3 PUSH2 0x92D SWAP3 PUSH2 0xDBB JUMP JUMPDEST SWAP8 PUSH2 0x925 PUSH1 0x5 SLOAD DUP11 PUSH2 0xD92 JUMP JUMPDEST DIV DUP1 SWAP9 PUSH2 0xDDB JUMP JUMPDEST SWAP5 DUP6 LT ISZERO PUSH2 0xDE8 JUMP JUMPDEST DUP8 DUP4 DUP3 PUSH1 0x3 SLOAD AND PUSH1 0x64 DUP9 MLOAD DUP1 SWAP5 DUP2 SWAP4 PUSH4 0x23B872DD PUSH1 0xE0 SHL DUP4 MSTORE CALLER DUP10 DUP5 ADD MSTORE ADDRESS PUSH1 0x24 DUP5 ADD MSTORE DUP14 PUSH1 0x44 DUP5 ADD MSTORE GAS CALL DUP1 ISZERO PUSH2 0xAED JUMPI PUSH2 0xAD0 JUMPI JUMPDEST POP PUSH2 0x97A DUP8 PUSH1 0x6 SLOAD PUSH2 0xE4C JUMP JUMPDEST PUSH1 0x6 SSTORE PUSH2 0x989 DUP5 PUSH1 0x7 SLOAD PUSH2 0xE4C JUMP JUMPDEST PUSH1 0x7 SSTORE DUP1 PUSH32 0x0 AND DUP1 EXTCODESIZE ISZERO PUSH2 0xACC JUMPI DUP6 MLOAD PUSH4 0x40C10F19 PUSH1 0xE0 SHL DUP1 DUP3 MSTORE CALLER DUP6 DUP4 ADD SWAP1 DUP2 MSTORE PUSH1 0x20 DUP2 ADD DUP9 SWAP1 MSTORE SWAP1 SWAP4 SWAP2 SWAP1 DUP12 SWAP1 DUP3 SWAP1 DUP2 SWAP1 PUSH1 0x40 ADD SUB DUP2 DUP4 DUP8 GAS CALL DUP1 ISZERO PUSH2 0xAC2 JUMPI PUSH2 0xAA9 JUMPI JUMPDEST POP SWAP1 DUP10 SWAP4 SWAP3 SWAP2 DUP9 PUSH2 0xA38 JUMPI JUMPDEST POP POP POP POP POP DUP3 MLOAD SWAP5 DUP6 MSTORE DUP5 ADD MSTORE DUP3 ADD MSTORE PUSH32 0x5A3358A3D27A5373C0DF2604662088D37894D56B7CFD27F315770440F4E0D919 PUSH1 0x60 CALLER SWAP3 LOG2 PUSH1 0x1 DUP1 SSTORE DUP1 RETURN JUMPDEST PUSH1 0x8 SLOAD AND SWAP1 DUP1 EXTCODESIZE ISZERO PUSH2 0x24C JUMPI DUP8 MLOAD SWAP3 DUP4 MSTORE PUSH1 0x1 PUSH1 0x1 PUSH1 0xA0 SHL SUB SWAP1 SWAP2 AND SWAP3 DUP3 ADD SWAP3 DUP4 MSTORE PUSH1 0x20 DUP4 ADD DUP9 SWAP1 MSTORE SWAP1 SWAP2 DUP4 SWAP2 DUP4 SWAP2 DUP3 SWAP1 DUP5 SWAP1 DUP3 SWAP1 PUSH1 0x40 ADD SUB SWAP3 GAS CALL DUP1 ISZERO PUSH2 0xA9F JUMPI PUSH2 0xA87 JUMPI JUMPDEST DUP1 DUP1 DUP1 PUSH2 0x9FB JUMP JUMPDEST PUSH2 0xA90 SWAP1 PUSH2 0xD46 JUMP JUMPDEST PUSH2 0xA9B JUMPI DUP6 CODESIZE PUSH2 0xA7F JUMP JUMPDEST DUP6 DUP1 REVERT JUMPDEST DUP6 MLOAD RETURNDATASIZE DUP5 DUP3 RETURNDATACOPY RETURNDATASIZE SWAP1 REVERT JUMPDEST PUSH2 0xAB8 SWAP1 SWAP11 SWAP2 SWAP5 SWAP4 SWAP3 SWAP11 PUSH2 0xD46 JUMP JUMPDEST SWAP9 SWAP1 SWAP2 SWAP3 CODESIZE PUSH2 0x9EF JUMP JUMPDEST DUP9 MLOAD RETURNDATASIZE DUP14 DUP3 RETURNDATACOPY RETURNDATASIZE SWAP1 REVERT JUMPDEST DUP9 DUP1 REVERT JUMPDEST PUSH2 0xAE6 SWAP1 DUP5 RETURNDATASIZE DUP7 GT PUSH2 0x495 JUMPI PUSH2 0x486 DUP2 DUP4 PUSH2 0xD70 JUMP JUMPDEST POP CODESIZE PUSH2 0x96D JUMP JUMPDEST DUP7 MLOAD RETURNDATASIZE DUP12 DUP3 RETURNDATACOPY RETURNDATASIZE SWAP1 REVERT JUMPDEST PUSH4 0x4E487B71 PUSH1 0xE0 SHL DUP11 MSTORE PUSH1 0x11 DUP5 MSTORE PUSH1 0x24 DUP11 REVERT JUMPDEST POP DUP4 DUP2 DUP2 RETURNDATASIZE DUP4 GT PUSH2 0xB32 JUMPI JUMPDEST PUSH2 0xB20 DUP2 DUP4 PUSH2 0xD70 JUMP JUMPDEST DUP2 ADD SUB SLT PUSH2 0xACC JUMPI PUSH2 0x8E5 SWAP1 MLOAD PUSH2 0x8DA JUMP JUMPDEST POP RETURNDATASIZE PUSH2 0xB16 JUMP JUMPDEST SWAP3 SWAP1 DUP7 DUP10 DUP8 SWAP3 PUSH32 0x0 AND DUP1 EXTCODESIZE ISZERO PUSH2 0x26F JUMPI DUP2 DUP1 SWAP2 PUSH1 0x64 DUP7 MLOAD DUP1 SWAP6 DUP2 SWAP4 PUSH4 0x61B242C5 PUSH1 0xE0 SHL DUP4 MSTORE DUP11 DUP13 DUP5 ADD MSTORE PUSH1 0x18 PUSH1 0x24 DUP5 ADD MSTORE PUSH32 0x44455045475F5448524553484F4C445F45584345454445440000000000000000 PUSH1 0x44 DUP5 ADD MSTORE GAS CALL SWAP1 DUP2 ISZERO PUSH2 0xC4B JUMPI POP SWAP6 PUSH32 0xF4A065484010F1A4EE580A29351EDA12B1EB37DA0388DC3D6B969A680DB12ACC SWAP3 DUP5 SWAP3 PUSH1 0x84 SWAP9 PUSH2 0xC3C JUMPI JUMPDEST POP DUP3 MLOAD SWAP2 DUP3 MSTORE DUP6 DUP3 ADD MSTORE LOG1 MLOAD PUSH3 0x461BCD PUSH1 0xE5 SHL DUP2 MSTORE SWAP2 DUP3 ADD MSTORE PUSH1 0x25 PUSH1 0x24 DUP3 ADD MSTORE PUSH32 0x53544142494C495A45523A20434952435549545F425245414B45525F54524947 PUSH1 0x44 DUP3 ADD MSTORE PUSH5 0x11D1549151 PUSH1 0xDA SHL PUSH1 0x64 DUP3 ADD MSTORE REVERT JUMPDEST PUSH2 0xC45 SWAP1 PUSH2 0xD46 JUMP JUMPDEST DUP9 PUSH2 0xBE6 JUMP JUMPDEST DUP5 MLOAD SWAP1 RETURNDATASIZE SWAP1 DUP3 RETURNDATACOPY RETURNDATASIZE SWAP1 REVERT JUMPDEST PUSH8 0xDE0B6B3A763FFFF NOT DUP2 ADD DUP2 DUP2 GT PUSH2 0xAF7 JUMPI PUSH2 0x2710 SWAP1 DUP2 DUP2 MUL SWAP2 DUP2 DUP4 DIV EQ SWAP1 ISZERO OR ISZERO PUSH2 0xAF7 JUMPI DUP8 PUSH2 0x1F4 SWAP2 DIV PUSH2 0x8AE JUMP JUMPDEST SWAP1 SWAP6 POP DUP3 DUP2 DUP2 RETURNDATASIZE DUP4 GT PUSH2 0xCB4 JUMPI JUMPDEST PUSH2 0xCA0 DUP2 DUP4 PUSH2 0xD70 JUMP JUMPDEST DUP2 ADD SUB SLT PUSH2 0xCB0 JUMPI MLOAD SWAP5 CODESIZE PUSH2 0x877 JUMP JUMPDEST DUP8 DUP1 REVERT JUMPDEST POP RETURNDATASIZE PUSH2 0xC96 JUMP JUMPDEST PUSH1 0x40 SWAP1 PUSH1 0x3 NOT ADD SLT PUSH2 0x556 JUMPI PUSH1 0x4 CALLDATALOAD SWAP1 PUSH1 0x24 CALLDATALOAD SWAP1 JUMP JUMPDEST CALLVALUE PUSH2 0x556 JUMPI PUSH1 0x0 CALLDATASIZE PUSH1 0x3 NOT ADD SLT PUSH2 0x556 JUMPI PUSH1 0x20 PUSH1 0x40 MLOAD PUSH2 0x1F4 DUP2 MSTORE RETURN JUMPDEST PUSH1 0x0 SLOAD PUSH1 0x1 PUSH1 0x1 PUSH1 0xA0 SHL SUB AND CALLER SUB PUSH2 0xD02 JUMPI JUMP JUMPDEST PUSH1 0x64 PUSH1 0x40 MLOAD PUSH3 0x461BCD PUSH1 0xE5 SHL DUP2 MSTORE PUSH1 0x20 PUSH1 0x4 DUP3 ADD MSTORE PUSH1 0x20 PUSH1 0x24 DUP3 ADD MSTORE PUSH32 0x4F776E61626C653A2063616C6C6572206973206E6F7420746865206F776E6572 PUSH1 0x44 DUP3 ADD MSTORE REVERT JUMPDEST PUSH8 0xFFFFFFFFFFFFFFFF DUP2 GT PUSH2 0xD5A JUMPI PUSH1 0x40 MSTORE JUMP JUMPDEST PUSH4 0x4E487B71 PUSH1 0xE0 SHL PUSH1 0x0 MSTORE PUSH1 0x41 PUSH1 0x4 MSTORE PUSH1 0x24 PUSH1 0x0 REVERT JUMPDEST SWAP1 PUSH1 0x1F DUP1 NOT SWAP2 ADD AND DUP2 ADD SWAP1 DUP2 LT PUSH8 0xFFFFFFFFFFFFFFFF DUP3 GT OR PUSH2 0xD5A JUMPI PUSH1 0x40 MSTORE JUMP JUMPDEST DUP2 DUP2 MUL SWAP3 SWAP2 DUP2 ISZERO SWAP2 DUP5 DIV EQ OR ISZERO PUSH2 0xDA5 JUMPI JUMP JUMPDEST PUSH4 0x4E487B71 PUSH1 0xE0 SHL PUSH1 0x0 MSTORE PUSH1 0x11 PUSH1 0x4 MSTORE PUSH1 0x24 PUSH1 0x0 REVERT JUMPDEST DUP2 ISZERO PUSH2 0xDC5 JUMPI DIV SWAP1 JUMP JUMPDEST PUSH4 0x4E487B71 PUSH1 0xE0 SHL PUSH1 0x0 MSTORE PUSH1 0x12 PUSH1 0x4 MSTORE PUSH1 0x24 PUSH1 0x0 REVERT JUMPDEST SWAP2 SWAP1 DUP3 SUB SWAP2 DUP3 GT PUSH2 0xDA5 JUMPI JUMP JUMPDEST ISZERO PUSH2 0xDEF JUMPI JUMP JUMPDEST PUSH1 0x40 MLOAD PUSH3 0x461BCD PUSH1 0xE5 SHL DUP2 MSTORE PUSH1 0x20 PUSH1 0x4 DUP3 ADD MSTORE PUSH1 0x1D PUSH1 0x24 DUP3 ADD MSTORE PUSH32 0x53544142494C495A45523A20534C4950504147455F544F4F5F48494748000000 PUSH1 0x44 DUP3 ADD MSTORE PUSH1 0x64 SWAP1 REVERT JUMPDEST SWAP1 DUP2 PUSH1 0x20 SWAP2 SUB SLT PUSH2 0x556 JUMPI MLOAD DUP1 ISZERO ISZERO DUP2 SUB PUSH2 0x556 JUMPI SWAP1 JUMP JUMPDEST SWAP2 SWAP1 DUP3 ADD DUP1 SWAP3 GT PUSH2 0xDA5 JUMPI JUMP JUMPDEST PUSH1 0x2 PUSH1 0x1 SLOAD EQ PUSH2 0xE6A JUMPI PUSH1 0x2 PUSH1 0x1 SSTORE JUMP JUMPDEST PUSH1 0x40 MLOAD PUSH3 0x461BCD PUSH1 0xE5 SHL DUP2 MSTORE PUSH1 0x20 PUSH1 0x4 DUP3 ADD MSTORE PUSH1 0x1F PUSH1 0x24 DUP3 ADD MSTORE PUSH32 0x5265656E7472616E637947756172643A207265656E7472616E742063616C6C00 PUSH1 0x44 DUP3 ADD MSTORE PUSH1 0x64 SWAP1 REVERT JUMPDEST PUSH1 0x7 SLOAD DUP1 ISZERO PUSH2 0xF6B JUMPI PUSH1 0x6 SLOAD PUSH1 0x2 SLOAD PUSH1 0x40 MLOAD PUSH4 0x3DDA0EEF PUSH1 0xE2 SHL DUP2 MSTORE SWAP1 PUSH1 0x20 SWAP1 DUP3 SWAP1 PUSH1 0x4 SWAP1 DUP3 SWAP1 PUSH1 0x1 PUSH1 0x1 PUSH1 0xA0 SHL SUB AND GAS STATICCALL SWAP1 DUP2 ISZERO PUSH2 0xF5F JUMPI PUSH1 0x0 SWAP2 PUSH2 0xF26 JUMPI JUMPDEST POP PUSH2 0xF04 SWAP1 PUSH8 0xDE0B6B3A7640000 SWAP3 PUSH2 0xD92 JUMP JUMPDEST DIV SWAP1 PUSH2 0x2710 SWAP2 DUP3 DUP2 MUL SWAP3 DUP2 DUP5 DIV EQ SWAP1 ISZERO OR ISZERO PUSH2 0xDA5 JUMPI PUSH2 0xF23 SWAP2 PUSH2 0xDBB JUMP JUMPDEST SWAP1 JUMP JUMPDEST SWAP1 PUSH1 0x20 DUP3 RETURNDATASIZE DUP3 GT PUSH2 0xF57 JUMPI JUMPDEST DUP2 PUSH2 0xF3F PUSH1 0x20 SWAP4 DUP4 PUSH2 0xD70 JUMP JUMPDEST DUP2 ADD SUB SLT PUSH2 0x6EA JUMPI POP MLOAD PUSH8 0xDE0B6B3A7640000 PUSH2 0xEF0 JUMP JUMPDEST RETURNDATASIZE SWAP2 POP PUSH2 0xF32 JUMP JUMPDEST PUSH1 0x40 MLOAD RETURNDATASIZE PUSH1 0x0 DUP3 RETURNDATACOPY RETURNDATASIZE SWAP1 REVERT JUMPDEST POP PUSH2 0x2710 SWAP1 JUMP INVALID LOG2 PUSH5 0x6970667358 0x22 SLT KECCAK256 DUP1 STATICCALL REVERT 0xD2 POP PUSH6 0x7594240EA9C6 0x2E RETURNDATASIZE DUP10 SGT COINBASE DUP1 0xDA 0x4F NUMBER 0x1E STOP 0xE2 EXTCODECOPY OR 0xF8 0xDE SUB 0xAB LOG3 0xEB PUSH5 0x736F6C6343 STOP ADDMOD EQ STOP CALLER "},"methodIdentifiers":{"DEPEG_THRESHOLD()":"2921e8bb","MAX_COLLATERAL_RATIO()":"705d6b35","MAX_STABILITY_FEE()":"4e6657bc","MIN_COLLATERAL_RATIO()":"7a9fffb7","burn(uint256,uint256)":"b390c0ab","collateralRatio()":"b4eae1cb","collateralToken()":"b2016bd4","collateralizationRate()":"bb4cfe3b","kortusd()":"722bb374","mint(uint256,uint256)":"1b2ef1ca","mintedSupply()":"c1bd8cf9","oracle()":"7dc0d1d0","owner()":"8da5cb5b","renounceOwnership()":"715018a6","setCollateralRatio(uint256)":"6060663e","setOracle(address)":"7adbf973","setStabilityFee(uint256)":"fb4ca35b","stabilityFee()":"361416e1","totalCollateral()":"4ac8eb5f","transferOwnership(address)":"f2fde38b","treasury()":"61d027b3"}},"storageLayout":{"storage":[{"astId":396,"contract":"contracts/stablecoin/KortanaStabilizer.sol:KortanaStabilizer","label":"_owner","offset":0,"slot":"0","type":"t_address"},{"astId":620,"contract":"contracts/stablecoin/KortanaStabilizer.sol:KortanaStabilizer","label":"_status","offset":0,"slot":"1","type":"t_uint256"},{"astId":8880,"contract":"contracts/stablecoin/KortanaStabilizer.sol:KortanaStabilizer","label":"oracle","offset":0,"slot":"2","type":"t_contract(KortanaOracle)8862"},{"astId":8882,"contract":"contracts/stablecoin/KortanaStabilizer.sol:KortanaStabilizer","label":"collateralToken","offset":0,"slot":"3","type":"t_address"},{"astId":8885,"contract":"contracts/stablecoin/KortanaStabilizer.sol:KortanaStabilizer","label":"collateralRatio","offset":0,"slot":"4","type":"t_uint256"},{"astId":8894,"contract":"contracts/stablecoin/KortanaStabilizer.sol:KortanaStabilizer","label":"stabilityFee","offset":0,"slot":"5","type":"t_uint256"},{"astId":8902,"contract":"contracts/stablecoin/KortanaStabilizer.sol:KortanaStabilizer","label":"totalCollateral","offset":0,"slot":"6","type":"t_uint256"},{"astId":8904,"contract":"contracts/stablecoin/KortanaStabilizer.sol:KortanaStabilizer","label":"mintedSupply","offset":0,"slot":"7","type":"t_uint256"},{"astId":8906,"contract":"contracts/stablecoin/KortanaStabilizer.sol:KortanaStabilizer","label":"treasury","offset":0,"slot":"8","type":"t_address"}],"types":{"t_address":{"encoding":"inplace","label":"address","numberOfBytes":"20"},"t_contract(KortanaOracle)8862":{"encoding":"inplace","label":"contract KortanaOracle","numberOfBytes":"20"},"t_uint256":{"encoding":"inplace","label":"uint256","numberOfBytes":"32"}}}}}}