{"contracts/stablecoin/KORTUSD.sol":{"KORTUSD":{"abi":[{"inputs":[{"internalType":"address","name":"admin","type":"address"}],"stateMutability":"nonpayable","type":"constructor"},{"anonymous":false,"inputs":[{"indexed":true,"internalType":"address","name":"owner","type":"address"},{"indexed":true,"internalType":"address","name":"spender","type":"address"},{"indexed":false,"internalType":"uint256","name":"value","type":"uint256"}],"name":"Approval","type":"event"},{"anonymous":false,"inputs":[{"indexed":false,"internalType":"string","name":"reason","type":"string"}],"name":"MintingPaused","type":"event"},{"anonymous":false,"inputs":[],"name":"MintingResumed","type":"event"},{"anonymous":false,"inputs":[{"indexed":false,"internalType":"address","name":"account","type":"address"}],"name":"Paused","type":"event"},{"anonymous":false,"inputs":[{"indexed":true,"internalType":"bytes32","name":"role","type":"bytes32"},{"indexed":true,"internalType":"bytes32","name":"previousAdminRole","type":"bytes32"},{"indexed":true,"internalType":"bytes32","name":"newAdminRole","type":"bytes32"}],"name":"RoleAdminChanged","type":"event"},{"anonymous":false,"inputs":[{"indexed":true,"internalType":"bytes32","name":"role","type":"bytes32"},{"indexed":true,"internalType":"address","name":"account","type":"address"},{"indexed":true,"internalType":"address","name":"sender","type":"address"}],"name":"RoleGranted","type":"event"},{"anonymous":false,"inputs":[{"indexed":true,"internalType":"bytes32","name":"role","type":"bytes32"},{"indexed":true,"internalType":"address","name":"account","type":"address"},{"indexed":true,"internalType":"address","name":"sender","type":"address"}],"name":"RoleRevoked","type":"event"},{"anonymous":false,"inputs":[{"indexed":true,"internalType":"address","name":"from","type":"address"},{"indexed":true,"internalType":"address","name":"to","type":"address"},{"indexed":false,"internalType":"uint256","name":"value","type":"uint256"}],"name":"Transfer","type":"event"},{"anonymous":false,"inputs":[{"indexed":false,"internalType":"address","name":"account","type":"address"}],"name":"Unpaused","type":"event"},{"inputs":[],"name":"BURNER_ROLE","outputs":[{"internalType":"bytes32","name":"","type":"bytes32"}],"stateMutability":"view","type":"function"},{"inputs":[],"name":"DEFAULT_ADMIN_ROLE","outputs":[{"internalType":"bytes32","name":"","type":"bytes32"}],"stateMutability":"view","type":"function"},{"inputs":[],"name":"DEPEG_THRESHOLD","outputs":[{"internalType":"uint256","name":"","type":"uint256"}],"stateMutability":"view","type":"function"},{"inputs":[],"name":"MINTER_ROLE","outputs":[{"internalType":"bytes32","name":"","type":"bytes32"}],"stateMutability":"view","type":"function"},{"inputs":[],"name":"PAUSER_ROLE","outputs":[{"internalType":"bytes32","name":"","type":"bytes32"}],"stateMutability":"view","type":"function"},{"inputs":[{"internalType":"address","name":"owner","type":"address"},{"internalType":"address","name":"spender","type":"address"}],"name":"allowance","outputs":[{"internalType":"uint256","name":"","type":"uint256"}],"stateMutability":"view","type":"function"},{"inputs":[{"internalType":"address","name":"spender","type":"address"},{"internalType":"uint256","name":"amount","type":"uint256"}],"name":"approve","outputs":[{"internalType":"bool","name":"","type":"bool"}],"stateMutability":"nonpayable","type":"function"},{"inputs":[{"internalType":"address","name":"account","type":"address"}],"name":"balanceOf","outputs":[{"internalType":"uint256","name":"","type":"uint256"}],"stateMutability":"view","type":"function"},{"inputs":[{"internalType":"address","name":"from","type":"address"},{"internalType":"uint256","name":"amount","type":"uint256"}],"name":"burn","outputs":[],"stateMutability":"nonpayable","type":"function"},{"inputs":[{"internalType":"address","name":"account","type":"address"},{"internalType":"uint256","name":"amount","type":"uint256"}],"name":"burnFrom","outputs":[],"stateMutability":"nonpayable","type":"function"},{"inputs":[],"name":"decimals","outputs":[{"internalType":"uint8","name":"","type":"uint8"}],"stateMutability":"view","type":"function"},{"inputs":[{"internalType":"address","name":"spender","type":"address"},{"internalType":"uint256","name":"subtractedValue","type":"uint256"}],"name":"decreaseAllowance","outputs":[{"internalType":"bool","name":"","type":"bool"}],"stateMutability":"nonpayable","type":"function"},{"inputs":[{"internalType":"bytes32","name":"role","type":"bytes32"}],"name":"getRoleAdmin","outputs":[{"internalType":"bytes32","name":"","type":"bytes32"}],"stateMutability":"view","type":"function"},{"inputs":[{"internalType":"bytes32","name":"role","type":"bytes32"},{"internalType":"address","name":"account","type":"address"}],"name":"grantRole","outputs":[],"stateMutability":"nonpayable","type":"function"},{"inputs":[{"internalType":"bytes32","name":"role","type":"bytes32"},{"internalType":"address","name":"account","type":"address"}],"name":"hasRole","outputs":[{"internalType":"bool","name":"","type":"bool"}],"stateMutability":"view","type":"function"},{"inputs":[{"internalType":"address","name":"spender","type":"address"},{"internalType":"uint256","name":"addedValue","type":"uint256"}],"name":"increaseAllowance","outputs":[{"internalType":"bool","name":"","type":"bool"}],"stateMutability":"nonpayable","type":"function"},{"inputs":[{"internalType":"address","name":"to","type":"address"},{"internalType":"uint256","name":"amount","type":"uint256"}],"name":"mint","outputs":[],"stateMutability":"nonpayable","type":"function"},{"inputs":[],"name":"mintingPaused","outputs":[{"internalType":"bool","name":"","type":"bool"}],"stateMutability":"view","type":"function"},{"inputs":[],"name":"name","outputs":[{"internalType":"string","name":"","type":"string"}],"stateMutability":"view","type":"function"},{"inputs":[],"name":"pause","outputs":[],"stateMutability":"nonpayable","type":"function"},{"inputs":[],"name":"paused","outputs":[{"internalType":"bool","name":"","type":"bool"}],"stateMutability":"view","type":"function"},{"inputs":[{"internalType":"bytes32","name":"role","type":"bytes32"},{"internalType":"address","name":"account","type":"address"}],"name":"renounceRole","outputs":[],"stateMutability":"nonpayable","type":"function"},{"inputs":[],"name":"resumeMinting","outputs":[],"stateMutability":"nonpayable","type":"function"},{"inputs":[{"internalType":"bytes32","name":"role","type":"bytes32"},{"internalType":"address","name":"account","type":"address"}],"name":"revokeRole","outputs":[],"stateMutability":"nonpayable","type":"function"},{"inputs":[{"internalType":"bytes4","name":"interfaceId","type":"bytes4"}],"name":"supportsInterface","outputs":[{"internalType":"bool","name":"","type":"bool"}],"stateMutability":"view","type":"function"},{"inputs":[],"name":"symbol","outputs":[{"internalType":"string","name":"","type":"string"}],"stateMutability":"view","type":"function"},{"inputs":[],"name":"totalSupply","outputs":[{"internalType":"uint256","name":"","type":"uint256"}],"stateMutability":"view","type":"function"},{"inputs":[{"internalType":"address","name":"to","type":"address"},{"internalType":"uint256","name":"amount","type":"uint256"}],"name":"transfer","outputs":[{"internalType":"bool","name":"","type":"bool"}],"stateMutability":"nonpayable","type":"function"},{"inputs":[{"internalType":"address","name":"from","type":"address"},{"internalType":"address","name":"to","type":"address"},{"internalType":"uint256","name":"amount","type":"uint256"}],"name":"transferFrom","outputs":[{"internalType":"bool","name":"","type":"bool"}],"stateMutability":"nonpayable","type":"function"},{"inputs":[{"internalType":"string","name":"reason","type":"string"}],"name":"triggerCircuitBreaker","outputs":[],"stateMutability":"nonpayable","type":"function"},{"inputs":[],"name":"unpause","outputs":[],"stateMutability":"nonpayable","type":"function"}],"evm":{"bytecode":{"linkReferences":{},"object":"6080346200052857620020e580380391601f19601f93818582011683019360018060401b0391848610838711176200042c57808592604097885283396020948591810103126200052857516001600160a01b03811692908390036200052857620000686200052d565b91600b83526a12dbdc9d185b98481554d160aa1b858401526200008a6200052d565b96600788526612d3d4951554d160ca1b868901528351908282116200042c5760039182546001968782811c921680156200051d575b8a83101462000507578184849311620004b1575b5089908483116001146200044e5760009262000442575b505060001982851b1c191690861b1782555b88519283116200042c5760049384548681811c9116801562000421575b898210146200040c57828111620003c1575b5087918411600114620003585750829394959697986000936200034c575b505082851b92600019911b1c19161790555b60ff19908160065416600655600080526005938481528560002084600052815260ff8660002054161562000312575b7f65d7a28e3265b37a6474929f336521b332c1681b933f6cb9f3376673440d862a806000528582528660002085600052825260ff87600020541615620002d7575b507f9f2df0fed2c77648de5860a4cc508cd0818c85b8b8a1ab4ceeef8d981c8956a6806000528582528660002085600052825260ff876000205416156200029c575b507f3c11d16cbaffd01df69ce1c404f6340ee057498f5f00246190ea54220576a84894856000528082528660002085600052825260ff876000205416156200025f575b8651611b7790816200054e8239f35b8560005281528560002090846000525284600020918254161790553391600080516020620020c5833981519152600080a438808080808062000250565b8060005285825286600020856000528252866000208385825416179055843391600080516020620020c5833981519152600080a4386200020d565b8060005285825286600020856000528252866000208385825416179055843391600080516020620020c5833981519152600080a438620001cb565b600080528481528560002084600052815285600020828482541617905533846000600080516020620020c58339815191528180a46200018a565b01519150388062000149565b60008581528881209392918516905b818110620003ab575099848798999a9b9796971062000390575b50505050811b0190556200015b565b01519060f884600019921b161c191690553880808062000381565b8b83015185559387019391890191890162000367565b85600052886000208380870160051c8201928b881062000402575b0160051c019087905b828110620003f55750506200012b565b60008155018790620003e5565b92508192620003dc565b602286634e487b7160e01b6000525260246000fd5b90607f169062000119565b634e487b7160e01b600052604160045260246000fd5b015190503880620000ea565b908789941691866000528b6000209260005b8d8282106200049a575050841162000481575b505050811b018255620000fc565b015160001983871b60f8161c1916905538808062000473565b8385015186558c9790950194938401930162000460565b90915084600052896000208480850160051c8201928c8610620004fd575b918a91869594930160051c01915b828110620004ed575050620000d3565b600081558594508a9101620004dd565b92508192620004cf565b634e487b7160e01b600052602260045260246000fd5b91607f1691620000bf565b600080fd5b60408051919082016001600160401b038111838210176200042c5760405256fe608060408181526004918236101561001657600080fd5b600092833560e01c91826301ffc9a714610fe55750816306fdde0314610ef0578163095ea7b314610ec657816318160ddd14610ea757816323b872dd14610e6a578163248a9ca314610e3f578163282c51f314610e045781632921e8bb14610de75781632f2ff15d14610d3a578163313ce56714610d1e57816336568abe14610c8c5781633950935114610c3c5781633f4ba83a14610ba657816340c10f19146108e157816359ae340e146108965781635c975abb1461087257816361b242c5146107b957816370a082311461078257816379cc6790146107525781638456cb59146106f757816391d14854146106b057816395d89b41146105ad5781639dc29fac14610397578163a217fddf1461037c578163a457c2d7146102d4578163a9059cbb146102a3578163d539139314610268578163d547741f1461022557508063dd62ed3e146101dd578063e1a283d6146101b75763e63ab1e91461017a57600080fd5b346101b357816003193601126101b357602090517f65d7a28e3265b37a6474929f336521b332c1681b933f6cb9f3376673440d862a8152f35b5080fd5b50346101b357816003193601126101b35760209060ff60065460081c1690519015158152f35b50346101b357806003193601126101b357806020926101fa611087565b6102026110a2565b6001600160a01b0391821683526001865283832091168252845220549051908152f35b91905034610264578060031936011261026457610261913561025c600161024a6110a2565b938387526005602052862001546113b3565b611511565b80f35b8280fd5b5050346101b357816003193601126101b357602090517f9f2df0fed2c77648de5860a4cc508cd0818c85b8b8a1ab4ceeef8d981c8956a68152f35b5050346101b357806003193601126101b3576020906102cd6102c3611087565b60243590336115aa565b5160018152f35b905082346103795782600319360112610379576102ef611087565b918360243592338152600160205281812060018060a01b0386168252602052205490828210610328576020856102cd8585038733611718565b608490602086519162461bcd60e51b8352820152602560248201527f45524332303a2064656372656173656420616c6c6f77616e63652062656c6f77604482015264207a65726f60d81b6064820152fd5b80fd5b5050346101b357816003193601126101b35751908152602090f35b919050346102645780600319360112610264576103b2611087565b917f3c11d16cbaffd01df69ce1c404f6340ee057498f5f00246190ea54220576a84880855260209060058252838620338752825260ff8487205416156103ff578561026160243587611a1a565b859061040a336118d9565b855191610416836114bd565b6042835284830193606036863783511561059a57603085538351906001918210156105875790607860218601536041915b81831161051c575050506104ec576104e89386936104d4936104c560489461049c9a519a8576020b1b1b2b9b9a1b7b73a3937b61d1030b1b1b7bab73a1604d1b8d978801528251928391603789019101611038565b8401917001034b99036b4b9b9b4b733903937b6329607d1b603784015251809386840190611038565b010360288101875201856114ef565b5162461bcd60e51b8152928392830161105b565b0390fd5b50505080606493519262461bcd60e51b84528301526024820152600080516020611b228339815191526044820152fd5b909192600f81166010811015610574576f181899199a1a9b1b9c1cb0b131b232b360811b901a61054c85886118b2565b53881c92801561056157600019019190610447565b634e487b7160e01b825260118952602482fd5b634e487b7160e01b835260328a52602483fd5b634e487b7160e01b815260328852602490fd5b634e487b7160e01b815260328752602490fd5b8383346101b357816003193601126101b357805191809380549160019083821c928285169485156106a6575b60209586861081146106935785895290811561066f5750600114610617575b6106138787610609828c03836114ef565b519182918261105b565b0390f35b81529295507f8a35acfbc15ff81a39ae7d344fd709f28e8600b4aa8c65c6b64bfe7fe36bd19b5b82841061065c575050508261061394610609928201019486806105f8565b805486850188015292860192810161063e565b60ff19168887015250505050151560051b83010192506106098261061386806105f8565b634e487b7160e01b845260228352602484fd5b93607f16936105d9565b9050346102645781600319360112610264578160209360ff926106d16110a2565b90358252600586528282206001600160a01b039091168252855220549151911615158152f35b5050346101b357816003193601126101b35760207f62e78cea01bee320cd4e420270b5ea74000d11b0c9f74754ebdbfc544b05a2589161073561126d565b61073d6119d6565b600160ff19600654161760065551338152a180f35b5050346101b3573660031901126103795761026161076e611087565b6024359061077d82338361181a565b611a1a565b5050346101b35760203660031901126101b35760209181906001600160a01b036107aa611087565b16815280845220549051908152f35b9050346102645760203660031901126102645780359167ffffffffffffffff9182841161086e573660238501121561086e5783013591821161086a57366024838501011161086a577f75e6ad56dc4739e065c3c67ce693a466842e9e579a9868d68587e3aa4ba7487e9260249261082e61126d565b61010061ff001960065416176006558083519485936020855282602086015201848401378181018301869052601f01601f19168101030190a180f35b8380fd5b8480fd5b5050346101b357816003193601126101b35760209060ff6006541690519015158152f35b83346103795780600319360112610379576108af6110b8565b61ff0019600654166006557f3d8f1e35ab9c1153c218a35d9f2b4df5ae9e0f48a2f7bac54ccb49c0c5065e6e8180a180f35b9050346102645781600319360112610264576108fb611087565b906024928335917f9f2df0fed2c77648de5860a4cc508cd0818c85b8b8a1ab4ceeef8d981c8956a69384875260209460058652838820338952865260ff848920541615610a46575061094b6119d6565b60ff60065460081c166109f5576001600160a01b03169485156109b55750509181859361099b7fddf252ad1be2c89b69c2b068fc378daa952ba7f163c4a11628f55a4df523b3ef94600254611587565b60025585855284835280852082815401905551908152a380f35b601f9085606494519362461bcd60e51b85528401528201527f45524332303a206d696e7420746f20746865207a65726f2061646472657373006044820152fd5b5060278585608494519362461bcd60e51b85528401528201527f4b4f52545553443a204d494e54494e475f434952435549545f425245414b45526044820152665f41435449564560c81b6064820152fd5b859150868891610a55336118d9565b9091865192610a63846114bd565b60428452858401946060368737845115610b945760308653845190600191821015610b825790607860218701536041915b818311610b1957505050610aea57506104e89386936104d4936104c560489461049c9a519a8576020b1b1b2b9b9a1b7b73a3937b61d1030b1b1b7bab73a1604d1b8d978801528251928391603789019101611038565b9250505081606494519362461bcd60e51b8552840152820152600080516020611b228339815191526044820152fd5b909192600f81166010811015610b70576f181899199a1a9b1b9c1cb0b131b232b360811b901a610b4985896118b2565b53891c928015610b5e57600019019190610a94565b634e487b7160e01b825260118a528482fd5b634e487b7160e01b835260328b528583fd5b634e487b7160e01b8152603289528390fd5b634e487b7160e01b8152603288529050fd5b905034610264578260031936011261026457610bc06110b8565b6006549060ff821615610c02575060ff1916600655513381527f5db9ee0a495bf2e6ff9c91a7834c1ba4fdd244a5e8aa4e537bd38aeae4b073aa90602090a180f35b606490602084519162461bcd60e51b8352820152601460248201527314185d5cd8589b194e881b9bdd081c185d5cd95960621b6044820152fd5b5050346101b357806003193601126101b3576102cd602092610c85610c5f611087565b338352600186528483206001600160a01b03821684528652918490205460243590611587565b9033611718565b839150346101b357826003193601126101b357610ca76110a2565b90336001600160a01b03831603610cc357906102619135611511565b608490602085519162461bcd60e51b8352820152602f60248201527f416363657373436f6e74726f6c3a2063616e206f6e6c792072656e6f756e636560448201526e103937b632b9903337b91039b2b63360891b6064820152fd5b5050346101b357816003193601126101b3576020905160128152f35b9050346102645781600319360112610264573590610d566110a2565b908284526005602052610d6e600182862001546113b3565b828452600560209081528185206001600160a01b039093168086529290528084205460ff1615610d9c578380f35b82845260056020528084208285526020528320600160ff1982541617905533917f2f8788117e7eff1d82e926ec794901d17c78024a50270940304540a733656f0d8480a43880808380f35b5050346101b357816003193601126101b357602090516101f48152f35b5050346101b357816003193601126101b357602090517f3c11d16cbaffd01df69ce1c404f6340ee057498f5f00246190ea54220576a8488152f35b9050346102645760203660031901126102645781602093600192358152600585522001549051908152f35b5050346101b35760603660031901126101b3576020906102cd610e8b611087565b610e936110a2565b60443591610ea283338361181a565b6115aa565b5050346101b357816003193601126101b3576020906002549051908152f35b5050346101b357806003193601126101b3576020906102cd610ee6611087565b6024359033611718565b91905034610264578260031936011261026457805191836003549060019082821c928281168015610fdb575b6020958686108214610fc85750848852908115610fa65750600114610f4d575b6106138686610609828b03836114ef565b929550600383527fc2575a0e9e593c00f959f8c92f12db2869c3395a3b0502d05e2516446f71f85b5b828410610f93575050508261061394610609928201019438610f3c565b8054868501880152928601928101610f76565b60ff191687860152505050151560051b83010192506106098261061338610f3c565b634e487b7160e01b845260229052602483fd5b93607f1693610f1c565b849134610264576020366003190112610264573563ffffffff60e01b81168091036102645760209250637965db0b60e01b8114908115611027575b5015158152f35b6301ffc9a760e01b14905083611020565b60005b83811061104b5750506000910152565b818101518382015260200161103b565b6040916020825261107b8151809281602086015260208686019101611038565b601f01601f1916010190565b600435906001600160a01b038216820361109d57565b600080fd5b602435906001600160a01b038216820361109d57565b3360009081527f05b8ccbb9d4d8fb16ea74ce3c29a41f1b461fbdaff4714a0d9a8eb05499746bc602090815260408083205490929060ff16156110fa57505050565b611103336118d9565b83519082611110836114bd565b6042835284830193606036863783511561125957603085538351906001918210156112595790607860218601536041915b8183116111eb575050506111bb5761049c9385936111a5936111966048946104e89951988576020b1b1b2b9b9a1b7b73a3937b61d1030b1b1b7bab73a1604d1b8b978801528251928391603789019101611038565b010360288101855201836114ef565b5162461bcd60e51b81529182916004830161105b565b60648486519062461bcd60e51b82528060048301526024820152600080516020611b228339815191526044820152fd5b909192600f81166010811015611245576f181899199a1a9b1b9c1cb0b131b232b360811b901a61121b85886118b2565b5360041c92801561123157600019019190611141565b634e487b7160e01b82526011600452602482fd5b634e487b7160e01b83526032600452602483fd5b634e487b7160e01b81526032600452602490fd5b3360009081527f99f2891db7a8db76249871a02b43b68c0bb8f22ef8a3bc1034ae9375ef6b7c3c60209081526040808320549092907f65d7a28e3265b37a6474929f336521b332c1681b933f6cb9f3376673440d862a9060ff16156112d25750505050565b6112db336118d9565b8451916112e7836114bd565b6042835284830193606036863783511561125957603085538351906001918210156112595790607860218601536041915b81831161136d575050506111bb5761049c9385936111a5936111966048946104e89951988576020b1b1b2b9b9a1b7b73a3937b61d1030b1b1b7bab73a1604d1b8b978801528251928391603789019101611038565b909192600f81166010811015611245576f181899199a1a9b1b9c1cb0b131b232b360811b901a61139d85886118b2565b5360041c92801561123157600019019190611318565b600081815260209060058252604092838220338352835260ff8483205416156113dc5750505050565b6113e5336118d9565b8451916113f1836114bd565b6042835284830193606036863783511561125957603085538351906001918210156112595790607860218601536041915b818311611477575050506111bb5761049c9385936111a5936111966048946104e89951988576020b1b1b2b9b9a1b7b73a3937b61d1030b1b1b7bab73a1604d1b8b978801528251928391603789019101611038565b909192600f81166010811015611245576f181899199a1a9b1b9c1cb0b131b232b360811b901a6114a785886118b2565b5360041c92801561123157600019019190611422565b6080810190811067ffffffffffffffff8211176114d957604052565b634e487b7160e01b600052604160045260246000fd5b90601f8019910116810190811067ffffffffffffffff8211176114d957604052565b906000918083526005602052604083209160018060a01b03169182845260205260ff60408420541661154257505050565b8083526005602052604083208284526020526040832060ff1981541690557ff6391f5c32d9c69d2a47ea670b442974b53935d1edc7fd64eb21e047a839171b339380a4565b9190820180921161159457565b634e487b7160e01b600052601160045260246000fd5b6001600160a01b039081169182156116c557169182156116745760008281528060205260408120549180831061162057604082827fddf252ad1be2c89b69c2b068fc378daa952ba7f163c4a11628f55a4df523b3ef958760209652828652038282205586815220818154019055604051908152a3565b60405162461bcd60e51b815260206004820152602660248201527f45524332303a207472616e7366657220616d6f756e7420657863656564732062604482015265616c616e636560d01b6064820152608490fd5b60405162461bcd60e51b815260206004820152602360248201527f45524332303a207472616e7366657220746f20746865207a65726f206164647260448201526265737360e81b6064820152608490fd5b60405162461bcd60e51b815260206004820152602560248201527f45524332303a207472616e736665722066726f6d20746865207a65726f206164604482015264647265737360d81b6064820152608490fd5b6001600160a01b039081169182156117c957169182156117795760207f8c5be1e5ebec7d5bd14f71427d1e84f3dd0314c0f7b2291e5b200ac8c7c3b925918360005260018252604060002085600052825280604060002055604051908152a3565b60405162461bcd60e51b815260206004820152602260248201527f45524332303a20617070726f766520746f20746865207a65726f206164647265604482015261737360f01b6064820152608490fd5b60405162461bcd60e51b8152602060048201526024808201527f45524332303a20617070726f76652066726f6d20746865207a65726f206164646044820152637265737360e01b6064820152608490fd5b9060018060a01b0380831660005260016020526040600020908216600052602052604060002054926000198403611852575b50505050565b80841061186d57611864930391611718565b3880808061184c565b60405162461bcd60e51b815260206004820152601d60248201527f45524332303a20696e73756666696369656e7420616c6c6f77616e63650000006044820152606490fd5b9081518110156118c3570160200190565b634e487b7160e01b600052603260045260246000fd5b604051906060820182811067ffffffffffffffff8211176114d957604052602a82526020820160403682378251156118c3576030905381516001908110156118c357607860218401536029905b8082116119685750506119365790565b606460405162461bcd60e51b81526020600482015260206024820152600080516020611b228339815191526044820152fd5b9091600f811660108110156119c1576f181899199a1a9b1b9c1cb0b131b232b360811b901a61199784866118b2565b5360041c9180156119ac576000190190611926565b60246000634e487b7160e01b81526011600452fd5b60246000634e487b7160e01b81526032600452fd5b60ff600654166119e257565b60405162461bcd60e51b815260206004820152601060248201526f14185d5cd8589b194e881c185d5cd95960821b6044820152606490fd5b6001600160a01b03168015611ad257600091818352826020526040832054818110611a8257817fddf252ad1be2c89b69c2b068fc378daa952ba7f163c4a11628f55a4df523b3ef926020928587528684520360408620558060025403600255604051908152a3565b60405162461bcd60e51b815260206004820152602260248201527f45524332303a206275726e20616d6f756e7420657863656564732062616c616e604482015261636560f01b6064820152608490fd5b60405162461bcd60e51b815260206004820152602160248201527f45524332303a206275726e2066726f6d20746865207a65726f206164647265736044820152607360f81b6064820152608490fdfe537472696e67733a20686578206c656e67746820696e73756666696369656e74a2646970667358221220f69e07a58533fe53b2b42c4f084abd24cb6b428b860a79f75a728e80d72d7be264736f6c634300081400332f8788117e7eff1d82e926ec794901d17c78024a50270940304540a733656f0d","opcodes":"PUSH1 0x80 CALLVALUE PUSH3 0x528 JUMPI PUSH3 0x20E5 DUP1 CODESIZE SUB SWAP2 PUSH1 0x1F NOT PUSH1 0x1F SWAP4 DUP2 DUP6 DUP3 ADD AND DUP4 ADD SWAP4 PUSH1 0x1 DUP1 PUSH1 0x40 SHL SUB SWAP2 DUP5 DUP7 LT DUP4 DUP8 GT OR PUSH3 0x42C JUMPI DUP1 DUP6 SWAP3 PUSH1 0x40 SWAP8 DUP9 MSTORE DUP4 CODECOPY PUSH1 0x20 SWAP5 DUP6 SWAP2 DUP2 ADD SUB SLT PUSH3 0x528 JUMPI MLOAD PUSH1 0x1 PUSH1 0x1 PUSH1 0xA0 SHL SUB DUP2 AND SWAP3 SWAP1 DUP4 SWAP1 SUB PUSH3 0x528 JUMPI PUSH3 0x68 PUSH3 0x52D JUMP JUMPDEST SWAP2 PUSH1 0xB DUP4 MSTORE PUSH11 0x12DBDC9D185B98481554D1 PUSH1 0xAA SHL DUP6 DUP5 ADD MSTORE PUSH3 0x8A PUSH3 0x52D JUMP JUMPDEST SWAP7 PUSH1 0x7 DUP9 MSTORE PUSH7 0x12D3D4951554D1 PUSH1 0xCA SHL DUP7 DUP10 ADD MSTORE DUP4 MLOAD SWAP1 DUP3 DUP3 GT PUSH3 0x42C JUMPI PUSH1 0x3 SWAP2 DUP3 SLOAD PUSH1 0x1 SWAP7 DUP8 DUP3 DUP2 SHR SWAP3 AND DUP1 ISZERO PUSH3 0x51D JUMPI JUMPDEST DUP11 DUP4 LT EQ PUSH3 0x507 JUMPI DUP2 DUP5 DUP5 SWAP4 GT PUSH3 0x4B1 JUMPI JUMPDEST POP DUP10 SWAP1 DUP5 DUP4 GT PUSH1 0x1 EQ PUSH3 0x44E JUMPI PUSH1 0x0 SWAP3 PUSH3 0x442 JUMPI JUMPDEST POP POP PUSH1 0x0 NOT DUP3 DUP6 SHL SHR NOT AND SWAP1 DUP7 SHL OR DUP3 SSTORE JUMPDEST DUP9 MLOAD SWAP3 DUP4 GT PUSH3 0x42C JUMPI PUSH1 0x4 SWAP4 DUP5 SLOAD DUP7 DUP2 DUP2 SHR SWAP2 AND DUP1 ISZERO PUSH3 0x421 JUMPI JUMPDEST DUP10 DUP3 LT EQ PUSH3 0x40C JUMPI DUP3 DUP2 GT PUSH3 0x3C1 JUMPI JUMPDEST POP DUP8 SWAP2 DUP5 GT PUSH1 0x1 EQ PUSH3 0x358 JUMPI POP DUP3 SWAP4 SWAP5 SWAP6 SWAP7 SWAP8 SWAP9 PUSH1 0x0 SWAP4 PUSH3 0x34C JUMPI JUMPDEST POP POP DUP3 DUP6 SHL SWAP3 PUSH1 0x0 NOT SWAP2 SHL SHR NOT AND OR SWAP1 SSTORE JUMPDEST PUSH1 0xFF NOT SWAP1 DUP2 PUSH1 0x6 SLOAD AND PUSH1 0x6 SSTORE PUSH1 0x0 DUP1 MSTORE PUSH1 0x5 SWAP4 DUP5 DUP2 MSTORE DUP6 PUSH1 0x0 KECCAK256 DUP5 PUSH1 0x0 MSTORE DUP2 MSTORE PUSH1 0xFF DUP7 PUSH1 0x0 KECCAK256 SLOAD AND ISZERO PUSH3 0x312 JUMPI JUMPDEST PUSH32 0x65D7A28E3265B37A6474929F336521B332C1681B933F6CB9F3376673440D862A DUP1 PUSH1 0x0 MSTORE DUP6 DUP3 MSTORE DUP7 PUSH1 0x0 KECCAK256 DUP6 PUSH1 0x0 MSTORE DUP3 MSTORE PUSH1 0xFF DUP8 PUSH1 0x0 KECCAK256 SLOAD AND ISZERO PUSH3 0x2D7 JUMPI JUMPDEST POP PUSH32 0x9F2DF0FED2C77648DE5860A4CC508CD0818C85B8B8A1AB4CEEEF8D981C8956A6 DUP1 PUSH1 0x0 MSTORE DUP6 DUP3 MSTORE DUP7 PUSH1 0x0 KECCAK256 DUP6 PUSH1 0x0 MSTORE DUP3 MSTORE PUSH1 0xFF DUP8 PUSH1 0x0 KECCAK256 SLOAD AND ISZERO PUSH3 0x29C JUMPI JUMPDEST POP PUSH32 0x3C11D16CBAFFD01DF69CE1C404F6340EE057498F5F00246190EA54220576A848 SWAP5 DUP6 PUSH1 0x0 MSTORE DUP1 DUP3 MSTORE DUP7 PUSH1 0x0 KECCAK256 DUP6 PUSH1 0x0 MSTORE DUP3 MSTORE PUSH1 0xFF DUP8 PUSH1 0x0 KECCAK256 SLOAD AND ISZERO PUSH3 0x25F JUMPI JUMPDEST DUP7 MLOAD PUSH2 0x1B77 SWAP1 DUP2 PUSH3 0x54E DUP3 CODECOPY RETURN JUMPDEST DUP6 PUSH1 0x0 MSTORE DUP2 MSTORE DUP6 PUSH1 0x0 KECCAK256 SWAP1 DUP5 PUSH1 0x0 MSTORE MSTORE DUP5 PUSH1 0x0 KECCAK256 SWAP2 DUP3 SLOAD AND OR SWAP1 SSTORE CALLER SWAP2 PUSH1 0x0 DUP1 MLOAD PUSH1 0x20 PUSH3 0x20C5 DUP4 CODECOPY DUP2 MLOAD SWAP2 MSTORE PUSH1 0x0 DUP1 LOG4 CODESIZE DUP1 DUP1 DUP1 DUP1 DUP1 PUSH3 0x250 JUMP JUMPDEST DUP1 PUSH1 0x0 MSTORE DUP6 DUP3 MSTORE DUP7 PUSH1 0x0 KECCAK256 DUP6 PUSH1 0x0 MSTORE DUP3 MSTORE DUP7 PUSH1 0x0 KECCAK256 DUP4 DUP6 DUP3 SLOAD AND OR SWAP1 SSTORE DUP5 CALLER SWAP2 PUSH1 0x0 DUP1 MLOAD PUSH1 0x20 PUSH3 0x20C5 DUP4 CODECOPY DUP2 MLOAD SWAP2 MSTORE PUSH1 0x0 DUP1 LOG4 CODESIZE PUSH3 0x20D JUMP JUMPDEST DUP1 PUSH1 0x0 MSTORE DUP6 DUP3 MSTORE DUP7 PUSH1 0x0 KECCAK256 DUP6 PUSH1 0x0 MSTORE DUP3 MSTORE DUP7 PUSH1 0x0 KECCAK256 DUP4 DUP6 DUP3 SLOAD AND OR SWAP1 SSTORE DUP5 CALLER SWAP2 PUSH1 0x0 DUP1 MLOAD PUSH1 0x20 PUSH3 0x20C5 DUP4 CODECOPY DUP2 MLOAD SWAP2 MSTORE PUSH1 0x0 DUP1 LOG4 CODESIZE PUSH3 0x1CB JUMP JUMPDEST PUSH1 0x0 DUP1 MSTORE DUP5 DUP2 MSTORE DUP6 PUSH1 0x0 KECCAK256 DUP5 PUSH1 0x0 MSTORE DUP2 MSTORE DUP6 PUSH1 0x0 KECCAK256 DUP3 DUP5 DUP3 SLOAD AND OR SWAP1 SSTORE CALLER DUP5 PUSH1 0x0 PUSH1 0x0 DUP1 MLOAD PUSH1 0x20 PUSH3 0x20C5 DUP4 CODECOPY DUP2 MLOAD SWAP2 MSTORE DUP2 DUP1 LOG4 PUSH3 0x18A JUMP JUMPDEST ADD MLOAD SWAP2 POP CODESIZE DUP1 PUSH3 0x149 JUMP JUMPDEST PUSH1 0x0 DUP6 DUP2 MSTORE DUP9 DUP2 KECCAK256 SWAP4 SWAP3 SWAP2 DUP6 AND SWAP1 JUMPDEST DUP2 DUP2 LT PUSH3 0x3AB JUMPI POP SWAP10 DUP5 DUP8 SWAP9 SWAP10 SWAP11 SWAP12 SWAP8 SWAP7 SWAP8 LT PUSH3 0x390 JUMPI JUMPDEST POP POP POP POP DUP2 SHL ADD SWAP1 SSTORE PUSH3 0x15B JUMP JUMPDEST ADD MLOAD SWAP1 PUSH1 0xF8 DUP5 PUSH1 0x0 NOT SWAP3 SHL AND SHR NOT AND SWAP1 SSTORE CODESIZE DUP1 DUP1 DUP1 PUSH3 0x381 JUMP JUMPDEST DUP12 DUP4 ADD MLOAD DUP6 SSTORE SWAP4 DUP8 ADD SWAP4 SWAP2 DUP10 ADD SWAP2 DUP10 ADD PUSH3 0x367 JUMP JUMPDEST DUP6 PUSH1 0x0 MSTORE DUP9 PUSH1 0x0 KECCAK256 DUP4 DUP1 DUP8 ADD PUSH1 0x5 SHR DUP3 ADD SWAP3 DUP12 DUP9 LT PUSH3 0x402 JUMPI JUMPDEST ADD PUSH1 0x5 SHR ADD SWAP1 DUP8 SWAP1 JUMPDEST DUP3 DUP2 LT PUSH3 0x3F5 JUMPI POP POP PUSH3 0x12B JUMP JUMPDEST PUSH1 0x0 DUP2 SSTORE ADD DUP8 SWAP1 PUSH3 0x3E5 JUMP JUMPDEST SWAP3 POP DUP2 SWAP3 PUSH3 0x3DC JUMP JUMPDEST PUSH1 0x22 DUP7 PUSH4 0x4E487B71 PUSH1 0xE0 SHL PUSH1 0x0 MSTORE MSTORE PUSH1 0x24 PUSH1 0x0 REVERT JUMPDEST SWAP1 PUSH1 0x7F AND SWAP1 PUSH3 0x119 JUMP JUMPDEST PUSH4 0x4E487B71 PUSH1 0xE0 SHL PUSH1 0x0 MSTORE PUSH1 0x41 PUSH1 0x4 MSTORE PUSH1 0x24 PUSH1 0x0 REVERT JUMPDEST ADD MLOAD SWAP1 POP CODESIZE DUP1 PUSH3 0xEA JUMP JUMPDEST SWAP1 DUP8 DUP10 SWAP5 AND SWAP2 DUP7 PUSH1 0x0 MSTORE DUP12 PUSH1 0x0 KECCAK256 SWAP3 PUSH1 0x0 JUMPDEST DUP14 DUP3 DUP3 LT PUSH3 0x49A JUMPI POP POP DUP5 GT PUSH3 0x481 JUMPI JUMPDEST POP POP POP DUP2 SHL ADD DUP3 SSTORE PUSH3 0xFC JUMP JUMPDEST ADD MLOAD PUSH1 0x0 NOT DUP4 DUP8 SHL PUSH1 0xF8 AND SHR NOT AND SWAP1 SSTORE CODESIZE DUP1 DUP1 PUSH3 0x473 JUMP JUMPDEST DUP4 DUP6 ADD MLOAD DUP7 SSTORE DUP13 SWAP8 SWAP1 SWAP6 ADD SWAP5 SWAP4 DUP5 ADD SWAP4 ADD PUSH3 0x460 JUMP JUMPDEST SWAP1 SWAP2 POP DUP5 PUSH1 0x0 MSTORE DUP10 PUSH1 0x0 KECCAK256 DUP5 DUP1 DUP6 ADD PUSH1 0x5 SHR DUP3 ADD SWAP3 DUP13 DUP7 LT PUSH3 0x4FD JUMPI JUMPDEST SWAP2 DUP11 SWAP2 DUP7 SWAP6 SWAP5 SWAP4 ADD PUSH1 0x5 SHR ADD SWAP2 JUMPDEST DUP3 DUP2 LT PUSH3 0x4ED JUMPI POP POP PUSH3 0xD3 JUMP JUMPDEST PUSH1 0x0 DUP2 SSTORE DUP6 SWAP5 POP DUP11 SWAP2 ADD PUSH3 0x4DD JUMP JUMPDEST SWAP3 POP DUP2 SWAP3 PUSH3 0x4CF JUMP JUMPDEST PUSH4 0x4E487B71 PUSH1 0xE0 SHL PUSH1 0x0 MSTORE PUSH1 0x22 PUSH1 0x4 MSTORE PUSH1 0x24 PUSH1 0x0 REVERT JUMPDEST SWAP2 PUSH1 0x7F AND SWAP2 PUSH3 0xBF JUMP JUMPDEST PUSH1 0x0 DUP1 REVERT JUMPDEST PUSH1 0x40 DUP1 MLOAD SWAP2 SWAP1 DUP3 ADD PUSH1 0x1 PUSH1 0x1 PUSH1 0x40 SHL SUB DUP2 GT DUP4 DUP3 LT OR PUSH3 0x42C JUMPI PUSH1 0x40 MSTORE JUMP INVALID PUSH1 0x80 PUSH1 0x40 DUP2 DUP2 MSTORE PUSH1 0x4 SWAP2 DUP3 CALLDATASIZE LT ISZERO PUSH2 0x16 JUMPI PUSH1 0x0 DUP1 REVERT JUMPDEST PUSH1 0x0 SWAP3 DUP4 CALLDATALOAD PUSH1 0xE0 SHR SWAP2 DUP3 PUSH4 0x1FFC9A7 EQ PUSH2 0xFE5 JUMPI POP DUP2 PUSH4 0x6FDDE03 EQ PUSH2 0xEF0 JUMPI DUP2 PUSH4 0x95EA7B3 EQ PUSH2 0xEC6 JUMPI DUP2 PUSH4 0x18160DDD EQ PUSH2 0xEA7 JUMPI DUP2 PUSH4 0x23B872DD EQ PUSH2 0xE6A JUMPI DUP2 PUSH4 0x248A9CA3 EQ PUSH2 0xE3F JUMPI DUP2 PUSH4 0x282C51F3 EQ PUSH2 0xE04 JUMPI DUP2 PUSH4 0x2921E8BB EQ PUSH2 0xDE7 JUMPI DUP2 PUSH4 0x2F2FF15D EQ PUSH2 0xD3A JUMPI DUP2 PUSH4 0x313CE567 EQ PUSH2 0xD1E JUMPI DUP2 PUSH4 0x36568ABE EQ PUSH2 0xC8C JUMPI DUP2 PUSH4 0x39509351 EQ PUSH2 0xC3C JUMPI DUP2 PUSH4 0x3F4BA83A EQ PUSH2 0xBA6 JUMPI DUP2 PUSH4 0x40C10F19 EQ PUSH2 0x8E1 JUMPI DUP2 PUSH4 0x59AE340E EQ PUSH2 0x896 JUMPI DUP2 PUSH4 0x5C975ABB EQ PUSH2 0x872 JUMPI DUP2 PUSH4 0x61B242C5 EQ PUSH2 0x7B9 JUMPI DUP2 PUSH4 0x70A08231 EQ PUSH2 0x782 JUMPI DUP2 PUSH4 0x79CC6790 EQ PUSH2 0x752 JUMPI DUP2 PUSH4 0x8456CB59 EQ PUSH2 0x6F7 JUMPI DUP2 PUSH4 0x91D14854 EQ PUSH2 0x6B0 JUMPI DUP2 PUSH4 0x95D89B41 EQ PUSH2 0x5AD JUMPI DUP2 PUSH4 0x9DC29FAC EQ PUSH2 0x397 JUMPI DUP2 PUSH4 0xA217FDDF EQ PUSH2 0x37C JUMPI DUP2 PUSH4 0xA457C2D7 EQ PUSH2 0x2D4 JUMPI DUP2 PUSH4 0xA9059CBB EQ PUSH2 0x2A3 JUMPI DUP2 PUSH4 0xD5391393 EQ PUSH2 0x268 JUMPI DUP2 PUSH4 0xD547741F EQ PUSH2 0x225 JUMPI POP DUP1 PUSH4 0xDD62ED3E EQ PUSH2 0x1DD JUMPI DUP1 PUSH4 0xE1A283D6 EQ PUSH2 0x1B7 JUMPI PUSH4 0xE63AB1E9 EQ PUSH2 0x17A JUMPI PUSH1 0x0 DUP1 REVERT JUMPDEST CALLVALUE PUSH2 0x1B3 JUMPI DUP2 PUSH1 0x3 NOT CALLDATASIZE ADD SLT PUSH2 0x1B3 JUMPI PUSH1 0x20 SWAP1 MLOAD PUSH32 0x65D7A28E3265B37A6474929F336521B332C1681B933F6CB9F3376673440D862A DUP2 MSTORE RETURN JUMPDEST POP DUP1 REVERT JUMPDEST POP CALLVALUE PUSH2 0x1B3 JUMPI DUP2 PUSH1 0x3 NOT CALLDATASIZE ADD SLT PUSH2 0x1B3 JUMPI PUSH1 0x20 SWAP1 PUSH1 0xFF PUSH1 0x6 SLOAD PUSH1 0x8 SHR AND SWAP1 MLOAD SWAP1 ISZERO ISZERO DUP2 MSTORE RETURN JUMPDEST POP CALLVALUE PUSH2 0x1B3 JUMPI DUP1 PUSH1 0x3 NOT CALLDATASIZE ADD SLT PUSH2 0x1B3 JUMPI DUP1 PUSH1 0x20 SWAP3 PUSH2 0x1FA PUSH2 0x1087 JUMP JUMPDEST PUSH2 0x202 PUSH2 0x10A2 JUMP JUMPDEST PUSH1 0x1 PUSH1 0x1 PUSH1 0xA0 SHL SUB SWAP2 DUP3 AND DUP4 MSTORE PUSH1 0x1 DUP7 MSTORE DUP4 DUP4 KECCAK256 SWAP2 AND DUP3 MSTORE DUP5 MSTORE KECCAK256 SLOAD SWAP1 MLOAD SWAP1 DUP2 MSTORE RETURN JUMPDEST SWAP2 SWAP1 POP CALLVALUE PUSH2 0x264 JUMPI DUP1 PUSH1 0x3 NOT CALLDATASIZE ADD SLT PUSH2 0x264 JUMPI PUSH2 0x261 SWAP2 CALLDATALOAD PUSH2 0x25C PUSH1 0x1 PUSH2 0x24A PUSH2 0x10A2 JUMP JUMPDEST SWAP4 DUP4 DUP8 MSTORE PUSH1 0x5 PUSH1 0x20 MSTORE DUP7 KECCAK256 ADD SLOAD PUSH2 0x13B3 JUMP JUMPDEST PUSH2 0x1511 JUMP JUMPDEST DUP1 RETURN JUMPDEST DUP3 DUP1 REVERT JUMPDEST POP POP CALLVALUE PUSH2 0x1B3 JUMPI DUP2 PUSH1 0x3 NOT CALLDATASIZE ADD SLT PUSH2 0x1B3 JUMPI PUSH1 0x20 SWAP1 MLOAD PUSH32 0x9F2DF0FED2C77648DE5860A4CC508CD0818C85B8B8A1AB4CEEEF8D981C8956A6 DUP2 MSTORE RETURN JUMPDEST POP POP CALLVALUE PUSH2 0x1B3 JUMPI DUP1 PUSH1 0x3 NOT CALLDATASIZE ADD SLT PUSH2 0x1B3 JUMPI PUSH1 0x20 SWAP1 PUSH2 0x2CD PUSH2 0x2C3 PUSH2 0x1087 JUMP JUMPDEST PUSH1 0x24 CALLDATALOAD SWAP1 CALLER PUSH2 0x15AA JUMP JUMPDEST MLOAD PUSH1 0x1 DUP2 MSTORE RETURN JUMPDEST SWAP1 POP DUP3 CALLVALUE PUSH2 0x379 JUMPI DUP3 PUSH1 0x3 NOT CALLDATASIZE ADD SLT PUSH2 0x379 JUMPI PUSH2 0x2EF PUSH2 0x1087 JUMP JUMPDEST SWAP2 DUP4 PUSH1 0x24 CALLDATALOAD SWAP3 CALLER DUP2 MSTORE PUSH1 0x1 PUSH1 0x20 MSTORE DUP2 DUP2 KECCAK256 PUSH1 0x1 DUP1 PUSH1 0xA0 SHL SUB DUP7 AND DUP3 MSTORE PUSH1 0x20 MSTORE KECCAK256 SLOAD SWAP1 DUP3 DUP3 LT PUSH2 0x328 JUMPI PUSH1 0x20 DUP6 PUSH2 0x2CD DUP6 DUP6 SUB DUP8 CALLER PUSH2 0x1718 JUMP JUMPDEST PUSH1 0x84 SWAP1 PUSH1 0x20 DUP7 MLOAD SWAP2 PUSH3 0x461BCD PUSH1 0xE5 SHL DUP4 MSTORE DUP3 ADD MSTORE PUSH1 0x25 PUSH1 0x24 DUP3 ADD MSTORE PUSH32 0x45524332303A2064656372656173656420616C6C6F77616E63652062656C6F77 PUSH1 0x44 DUP3 ADD MSTORE PUSH5 0x207A65726F PUSH1 0xD8 SHL PUSH1 0x64 DUP3 ADD MSTORE REVERT JUMPDEST DUP1 REVERT JUMPDEST POP POP CALLVALUE PUSH2 0x1B3 JUMPI DUP2 PUSH1 0x3 NOT CALLDATASIZE ADD SLT PUSH2 0x1B3 JUMPI MLOAD SWAP1 DUP2 MSTORE PUSH1 0x20 SWAP1 RETURN JUMPDEST SWAP2 SWAP1 POP CALLVALUE PUSH2 0x264 JUMPI DUP1 PUSH1 0x3 NOT CALLDATASIZE ADD SLT PUSH2 0x264 JUMPI PUSH2 0x3B2 PUSH2 0x1087 JUMP JUMPDEST SWAP2 PUSH32 0x3C11D16CBAFFD01DF69CE1C404F6340EE057498F5F00246190EA54220576A848 DUP1 DUP6 MSTORE PUSH1 0x20 SWAP1 PUSH1 0x5 DUP3 MSTORE DUP4 DUP7 KECCAK256 CALLER DUP8 MSTORE DUP3 MSTORE PUSH1 0xFF DUP5 DUP8 KECCAK256 SLOAD AND ISZERO PUSH2 0x3FF JUMPI DUP6 PUSH2 0x261 PUSH1 0x24 CALLDATALOAD DUP8 PUSH2 0x1A1A JUMP JUMPDEST DUP6 SWAP1 PUSH2 0x40A CALLER PUSH2 0x18D9 JUMP JUMPDEST DUP6 MLOAD SWAP2 PUSH2 0x416 DUP4 PUSH2 0x14BD JUMP JUMPDEST PUSH1 0x42 DUP4 MSTORE DUP5 DUP4 ADD SWAP4 PUSH1 0x60 CALLDATASIZE DUP7 CALLDATACOPY DUP4 MLOAD ISZERO PUSH2 0x59A JUMPI PUSH1 0x30 DUP6 MSTORE8 DUP4 MLOAD SWAP1 PUSH1 0x1 SWAP2 DUP3 LT ISZERO PUSH2 0x587 JUMPI SWAP1 PUSH1 0x78 PUSH1 0x21 DUP7 ADD MSTORE8 PUSH1 0x41 SWAP2 JUMPDEST DUP2 DUP4 GT PUSH2 0x51C JUMPI POP POP POP PUSH2 0x4EC JUMPI PUSH2 0x4E8 SWAP4 DUP7 SWAP4 PUSH2 0x4D4 SWAP4 PUSH2 0x4C5 PUSH1 0x48 SWAP5 PUSH2 0x49C SWAP11 MLOAD SWAP11 DUP6 PUSH23 0x20B1B1B2B9B9A1B7B73A3937B61D1030B1B1B7BAB73A1 PUSH1 0x4D SHL DUP14 SWAP8 DUP9 ADD MSTORE DUP3 MLOAD SWAP3 DUP4 SWAP2 PUSH1 0x37 DUP10 ADD SWAP2 ADD PUSH2 0x1038 JUMP JUMPDEST DUP5 ADD SWAP2 PUSH17 0x1034B99036B4B9B9B4B733903937B6329 PUSH1 0x7D SHL PUSH1 0x37 DUP5 ADD MSTORE MLOAD DUP1 SWAP4 DUP7 DUP5 ADD SWAP1 PUSH2 0x1038 JUMP JUMPDEST ADD SUB PUSH1 0x28 DUP2 ADD DUP8 MSTORE ADD DUP6 PUSH2 0x14EF JUMP JUMPDEST MLOAD PUSH3 0x461BCD PUSH1 0xE5 SHL DUP2 MSTORE SWAP3 DUP4 SWAP3 DUP4 ADD PUSH2 0x105B JUMP JUMPDEST SUB SWAP1 REVERT JUMPDEST POP POP POP DUP1 PUSH1 0x64 SWAP4 MLOAD SWAP3 PUSH3 0x461BCD PUSH1 0xE5 SHL DUP5 MSTORE DUP4 ADD MSTORE PUSH1 0x24 DUP3 ADD MSTORE PUSH1 0x0 DUP1 MLOAD PUSH1 0x20 PUSH2 0x1B22 DUP4 CODECOPY DUP2 MLOAD SWAP2 MSTORE PUSH1 0x44 DUP3 ADD MSTORE REVERT JUMPDEST SWAP1 SWAP2 SWAP3 PUSH1 0xF DUP2 AND PUSH1 0x10 DUP2 LT ISZERO PUSH2 0x574 JUMPI PUSH16 0x181899199A1A9B1B9C1CB0B131B232B3 PUSH1 0x81 SHL SWAP1 BYTE PUSH2 0x54C DUP6 DUP9 PUSH2 0x18B2 JUMP JUMPDEST MSTORE8 DUP9 SHR SWAP3 DUP1 ISZERO PUSH2 0x561 JUMPI PUSH1 0x0 NOT ADD SWAP2 SWAP1 PUSH2 0x447 JUMP JUMPDEST PUSH4 0x4E487B71 PUSH1 0xE0 SHL DUP3 MSTORE PUSH1 0x11 DUP10 MSTORE PUSH1 0x24 DUP3 REVERT JUMPDEST PUSH4 0x4E487B71 PUSH1 0xE0 SHL DUP4 MSTORE PUSH1 0x32 DUP11 MSTORE PUSH1 0x24 DUP4 REVERT JUMPDEST PUSH4 0x4E487B71 PUSH1 0xE0 SHL DUP2 MSTORE PUSH1 0x32 DUP9 MSTORE PUSH1 0x24 SWAP1 REVERT JUMPDEST PUSH4 0x4E487B71 PUSH1 0xE0 SHL DUP2 MSTORE PUSH1 0x32 DUP8 MSTORE PUSH1 0x24 SWAP1 REVERT JUMPDEST DUP4 DUP4 CALLVALUE PUSH2 0x1B3 JUMPI DUP2 PUSH1 0x3 NOT CALLDATASIZE ADD SLT PUSH2 0x1B3 JUMPI DUP1 MLOAD SWAP2 DUP1 SWAP4 DUP1 SLOAD SWAP2 PUSH1 0x1 SWAP1 DUP4 DUP3 SHR SWAP3 DUP3 DUP6 AND SWAP5 DUP6 ISZERO PUSH2 0x6A6 JUMPI JUMPDEST PUSH1 0x20 SWAP6 DUP7 DUP7 LT DUP2 EQ PUSH2 0x693 JUMPI DUP6 DUP10 MSTORE SWAP1 DUP2 ISZERO PUSH2 0x66F JUMPI POP PUSH1 0x1 EQ PUSH2 0x617 JUMPI JUMPDEST PUSH2 0x613 DUP8 DUP8 PUSH2 0x609 DUP3 DUP13 SUB DUP4 PUSH2 0x14EF JUMP JUMPDEST MLOAD SWAP2 DUP3 SWAP2 DUP3 PUSH2 0x105B JUMP JUMPDEST SUB SWAP1 RETURN JUMPDEST DUP2 MSTORE SWAP3 SWAP6 POP PUSH32 0x8A35ACFBC15FF81A39AE7D344FD709F28E8600B4AA8C65C6B64BFE7FE36BD19B JUMPDEST DUP3 DUP5 LT PUSH2 0x65C JUMPI POP POP POP DUP3 PUSH2 0x613 SWAP5 PUSH2 0x609 SWAP3 DUP3 ADD ADD SWAP5 DUP7 DUP1 PUSH2 0x5F8 JUMP JUMPDEST DUP1 SLOAD DUP7 DUP6 ADD DUP9 ADD MSTORE SWAP3 DUP7 ADD SWAP3 DUP2 ADD PUSH2 0x63E JUMP JUMPDEST PUSH1 0xFF NOT AND DUP9 DUP8 ADD MSTORE POP POP POP POP ISZERO ISZERO PUSH1 0x5 SHL DUP4 ADD ADD SWAP3 POP PUSH2 0x609 DUP3 PUSH2 0x613 DUP7 DUP1 PUSH2 0x5F8 JUMP JUMPDEST PUSH4 0x4E487B71 PUSH1 0xE0 SHL DUP5 MSTORE PUSH1 0x22 DUP4 MSTORE PUSH1 0x24 DUP5 REVERT JUMPDEST SWAP4 PUSH1 0x7F AND SWAP4 PUSH2 0x5D9 JUMP JUMPDEST SWAP1 POP CALLVALUE PUSH2 0x264 JUMPI DUP2 PUSH1 0x3 NOT CALLDATASIZE ADD SLT PUSH2 0x264 JUMPI DUP2 PUSH1 0x20 SWAP4 PUSH1 0xFF SWAP3 PUSH2 0x6D1 PUSH2 0x10A2 JUMP JUMPDEST SWAP1 CALLDATALOAD DUP3 MSTORE PUSH1 0x5 DUP7 MSTORE DUP3 DUP3 KECCAK256 PUSH1 0x1 PUSH1 0x1 PUSH1 0xA0 SHL SUB SWAP1 SWAP2 AND DUP3 MSTORE DUP6 MSTORE KECCAK256 SLOAD SWAP2 MLOAD SWAP2 AND ISZERO ISZERO DUP2 MSTORE RETURN JUMPDEST POP POP CALLVALUE PUSH2 0x1B3 JUMPI DUP2 PUSH1 0x3 NOT CALLDATASIZE ADD SLT PUSH2 0x1B3 JUMPI PUSH1 0x20 PUSH32 0x62E78CEA01BEE320CD4E420270B5EA74000D11B0C9F74754EBDBFC544B05A258 SWAP2 PUSH2 0x735 PUSH2 0x126D JUMP JUMPDEST PUSH2 0x73D PUSH2 0x19D6 JUMP JUMPDEST PUSH1 0x1 PUSH1 0xFF NOT PUSH1 0x6 SLOAD AND OR PUSH1 0x6 SSTORE MLOAD CALLER DUP2 MSTORE LOG1 DUP1 RETURN JUMPDEST POP POP CALLVALUE PUSH2 0x1B3 JUMPI CALLDATASIZE PUSH1 0x3 NOT ADD SLT PUSH2 0x379 JUMPI PUSH2 0x261 PUSH2 0x76E PUSH2 0x1087 JUMP JUMPDEST PUSH1 0x24 CALLDATALOAD SWAP1 PUSH2 0x77D DUP3 CALLER DUP4 PUSH2 0x181A JUMP JUMPDEST PUSH2 0x1A1A JUMP JUMPDEST POP POP CALLVALUE PUSH2 0x1B3 JUMPI PUSH1 0x20 CALLDATASIZE PUSH1 0x3 NOT ADD SLT PUSH2 0x1B3 JUMPI PUSH1 0x20 SWAP2 DUP2 SWAP1 PUSH1 0x1 PUSH1 0x1 PUSH1 0xA0 SHL SUB PUSH2 0x7AA PUSH2 0x1087 JUMP JUMPDEST AND DUP2 MSTORE DUP1 DUP5 MSTORE KECCAK256 SLOAD SWAP1 MLOAD SWAP1 DUP2 MSTORE RETURN JUMPDEST SWAP1 POP CALLVALUE PUSH2 0x264 JUMPI PUSH1 0x20 CALLDATASIZE PUSH1 0x3 NOT ADD SLT PUSH2 0x264 JUMPI DUP1 CALLDATALOAD SWAP2 PUSH8 0xFFFFFFFFFFFFFFFF SWAP2 DUP3 DUP5 GT PUSH2 0x86E JUMPI CALLDATASIZE PUSH1 0x23 DUP6 ADD SLT ISZERO PUSH2 0x86E JUMPI DUP4 ADD CALLDATALOAD SWAP2 DUP3 GT PUSH2 0x86A JUMPI CALLDATASIZE PUSH1 0x24 DUP4 DUP6 ADD ADD GT PUSH2 0x86A JUMPI PUSH32 0x75E6AD56DC4739E065C3C67CE693A466842E9E579A9868D68587E3AA4BA7487E SWAP3 PUSH1 0x24 SWAP3 PUSH2 0x82E PUSH2 0x126D JUMP JUMPDEST PUSH2 0x100 PUSH2 0xFF00 NOT PUSH1 0x6 SLOAD AND OR PUSH1 0x6 SSTORE DUP1 DUP4 MLOAD SWAP5 DUP6 SWAP4 PUSH1 0x20 DUP6 MSTORE DUP3 PUSH1 0x20 DUP7 ADD MSTORE ADD DUP5 DUP5 ADD CALLDATACOPY DUP2 DUP2 ADD DUP4 ADD DUP7 SWAP1 MSTORE PUSH1 0x1F ADD PUSH1 0x1F NOT AND DUP2 ADD SUB ADD SWAP1 LOG1 DUP1 RETURN JUMPDEST DUP4 DUP1 REVERT JUMPDEST DUP5 DUP1 REVERT JUMPDEST POP POP CALLVALUE PUSH2 0x1B3 JUMPI DUP2 PUSH1 0x3 NOT CALLDATASIZE ADD SLT PUSH2 0x1B3 JUMPI PUSH1 0x20 SWAP1 PUSH1 0xFF PUSH1 0x6 SLOAD AND SWAP1 MLOAD SWAP1 ISZERO ISZERO DUP2 MSTORE RETURN JUMPDEST DUP4 CALLVALUE PUSH2 0x379 JUMPI DUP1 PUSH1 0x3 NOT CALLDATASIZE ADD SLT PUSH2 0x379 JUMPI PUSH2 0x8AF PUSH2 0x10B8 JUMP JUMPDEST PUSH2 0xFF00 NOT PUSH1 0x6 SLOAD AND PUSH1 0x6 SSTORE PUSH32 0x3D8F1E35AB9C1153C218A35D9F2B4DF5AE9E0F48A2F7BAC54CCB49C0C5065E6E DUP2 DUP1 LOG1 DUP1 RETURN JUMPDEST SWAP1 POP CALLVALUE PUSH2 0x264 JUMPI DUP2 PUSH1 0x3 NOT CALLDATASIZE ADD SLT PUSH2 0x264 JUMPI PUSH2 0x8FB PUSH2 0x1087 JUMP JUMPDEST SWAP1 PUSH1 0x24 SWAP3 DUP4 CALLDATALOAD SWAP2 PUSH32 0x9F2DF0FED2C77648DE5860A4CC508CD0818C85B8B8A1AB4CEEEF8D981C8956A6 SWAP4 DUP5 DUP8 MSTORE PUSH1 0x20 SWAP5 PUSH1 0x5 DUP7 MSTORE DUP4 DUP9 KECCAK256 CALLER DUP10 MSTORE DUP7 MSTORE PUSH1 0xFF DUP5 DUP10 KECCAK256 SLOAD AND ISZERO PUSH2 0xA46 JUMPI POP PUSH2 0x94B PUSH2 0x19D6 JUMP JUMPDEST PUSH1 0xFF PUSH1 0x6 SLOAD PUSH1 0x8 SHR AND PUSH2 0x9F5 JUMPI PUSH1 0x1 PUSH1 0x1 PUSH1 0xA0 SHL SUB AND SWAP5 DUP6 ISZERO PUSH2 0x9B5 JUMPI POP POP SWAP2 DUP2 DUP6 SWAP4 PUSH2 0x99B PUSH32 0xDDF252AD1BE2C89B69C2B068FC378DAA952BA7F163C4A11628F55A4DF523B3EF SWAP5 PUSH1 0x2 SLOAD PUSH2 0x1587 JUMP JUMPDEST PUSH1 0x2 SSTORE DUP6 DUP6 MSTORE DUP5 DUP4 MSTORE DUP1 DUP6 KECCAK256 DUP3 DUP2 SLOAD ADD SWAP1 SSTORE MLOAD SWAP1 DUP2 MSTORE LOG3 DUP1 RETURN JUMPDEST PUSH1 0x1F SWAP1 DUP6 PUSH1 0x64 SWAP5 MLOAD SWAP4 PUSH3 0x461BCD PUSH1 0xE5 SHL DUP6 MSTORE DUP5 ADD MSTORE DUP3 ADD MSTORE PUSH32 0x45524332303A206D696E7420746F20746865207A65726F206164647265737300 PUSH1 0x44 DUP3 ADD MSTORE REVERT JUMPDEST POP PUSH1 0x27 DUP6 DUP6 PUSH1 0x84 SWAP5 MLOAD SWAP4 PUSH3 0x461BCD PUSH1 0xE5 SHL DUP6 MSTORE DUP5 ADD MSTORE DUP3 ADD MSTORE PUSH32 0x4B4F52545553443A204D494E54494E475F434952435549545F425245414B4552 PUSH1 0x44 DUP3 ADD MSTORE PUSH7 0x5F414354495645 PUSH1 0xC8 SHL PUSH1 0x64 DUP3 ADD MSTORE REVERT JUMPDEST DUP6 SWAP2 POP DUP7 DUP9 SWAP2 PUSH2 0xA55 CALLER PUSH2 0x18D9 JUMP JUMPDEST SWAP1 SWAP2 DUP7 MLOAD SWAP3 PUSH2 0xA63 DUP5 PUSH2 0x14BD JUMP JUMPDEST PUSH1 0x42 DUP5 MSTORE DUP6 DUP5 ADD SWAP5 PUSH1 0x60 CALLDATASIZE DUP8 CALLDATACOPY DUP5 MLOAD ISZERO PUSH2 0xB94 JUMPI PUSH1 0x30 DUP7 MSTORE8 DUP5 MLOAD SWAP1 PUSH1 0x1 SWAP2 DUP3 LT ISZERO PUSH2 0xB82 JUMPI SWAP1 PUSH1 0x78 PUSH1 0x21 DUP8 ADD MSTORE8 PUSH1 0x41 SWAP2 JUMPDEST DUP2 DUP4 GT PUSH2 0xB19 JUMPI POP POP POP PUSH2 0xAEA JUMPI POP PUSH2 0x4E8 SWAP4 DUP7 SWAP4 PUSH2 0x4D4 SWAP4 PUSH2 0x4C5 PUSH1 0x48 SWAP5 PUSH2 0x49C SWAP11 MLOAD SWAP11 DUP6 PUSH23 0x20B1B1B2B9B9A1B7B73A3937B61D1030B1B1B7BAB73A1 PUSH1 0x4D SHL DUP14 SWAP8 DUP9 ADD MSTORE DUP3 MLOAD SWAP3 DUP4 SWAP2 PUSH1 0x37 DUP10 ADD SWAP2 ADD PUSH2 0x1038 JUMP JUMPDEST SWAP3 POP POP POP DUP2 PUSH1 0x64 SWAP5 MLOAD SWAP4 PUSH3 0x461BCD PUSH1 0xE5 SHL DUP6 MSTORE DUP5 ADD MSTORE DUP3 ADD MSTORE PUSH1 0x0 DUP1 MLOAD PUSH1 0x20 PUSH2 0x1B22 DUP4 CODECOPY DUP2 MLOAD SWAP2 MSTORE PUSH1 0x44 DUP3 ADD MSTORE REVERT JUMPDEST SWAP1 SWAP2 SWAP3 PUSH1 0xF DUP2 AND PUSH1 0x10 DUP2 LT ISZERO PUSH2 0xB70 JUMPI PUSH16 0x181899199A1A9B1B9C1CB0B131B232B3 PUSH1 0x81 SHL SWAP1 BYTE PUSH2 0xB49 DUP6 DUP10 PUSH2 0x18B2 JUMP JUMPDEST MSTORE8 DUP10 SHR SWAP3 DUP1 ISZERO PUSH2 0xB5E JUMPI PUSH1 0x0 NOT ADD SWAP2 SWAP1 PUSH2 0xA94 JUMP JUMPDEST PUSH4 0x4E487B71 PUSH1 0xE0 SHL DUP3 MSTORE PUSH1 0x11 DUP11 MSTORE DUP5 DUP3 REVERT JUMPDEST PUSH4 0x4E487B71 PUSH1 0xE0 SHL DUP4 MSTORE PUSH1 0x32 DUP12 MSTORE DUP6 DUP4 REVERT JUMPDEST PUSH4 0x4E487B71 PUSH1 0xE0 SHL DUP2 MSTORE PUSH1 0x32 DUP10 MSTORE DUP4 SWAP1 REVERT JUMPDEST PUSH4 0x4E487B71 PUSH1 0xE0 SHL DUP2 MSTORE PUSH1 0x32 DUP9 MSTORE SWAP1 POP REVERT JUMPDEST SWAP1 POP CALLVALUE PUSH2 0x264 JUMPI DUP3 PUSH1 0x3 NOT CALLDATASIZE ADD SLT PUSH2 0x264 JUMPI PUSH2 0xBC0 PUSH2 0x10B8 JUMP JUMPDEST PUSH1 0x6 SLOAD SWAP1 PUSH1 0xFF DUP3 AND ISZERO PUSH2 0xC02 JUMPI POP PUSH1 0xFF NOT AND PUSH1 0x6 SSTORE MLOAD CALLER DUP2 MSTORE PUSH32 0x5DB9EE0A495BF2E6FF9C91A7834C1BA4FDD244A5E8AA4E537BD38AEAE4B073AA SWAP1 PUSH1 0x20 SWAP1 LOG1 DUP1 RETURN JUMPDEST PUSH1 0x64 SWAP1 PUSH1 0x20 DUP5 MLOAD SWAP2 PUSH3 0x461BCD PUSH1 0xE5 SHL DUP4 MSTORE DUP3 ADD MSTORE PUSH1 0x14 PUSH1 0x24 DUP3 ADD MSTORE PUSH20 0x14185D5CD8589B194E881B9BDD081C185D5CD959 PUSH1 0x62 SHL PUSH1 0x44 DUP3 ADD MSTORE REVERT JUMPDEST POP POP CALLVALUE PUSH2 0x1B3 JUMPI DUP1 PUSH1 0x3 NOT CALLDATASIZE ADD SLT PUSH2 0x1B3 JUMPI PUSH2 0x2CD PUSH1 0x20 SWAP3 PUSH2 0xC85 PUSH2 0xC5F PUSH2 0x1087 JUMP JUMPDEST CALLER DUP4 MSTORE PUSH1 0x1 DUP7 MSTORE DUP5 DUP4 KECCAK256 PUSH1 0x1 PUSH1 0x1 PUSH1 0xA0 SHL SUB DUP3 AND DUP5 MSTORE DUP7 MSTORE SWAP2 DUP5 SWAP1 KECCAK256 SLOAD PUSH1 0x24 CALLDATALOAD SWAP1 PUSH2 0x1587 JUMP JUMPDEST SWAP1 CALLER PUSH2 0x1718 JUMP JUMPDEST DUP4 SWAP2 POP CALLVALUE PUSH2 0x1B3 JUMPI DUP3 PUSH1 0x3 NOT CALLDATASIZE ADD SLT PUSH2 0x1B3 JUMPI PUSH2 0xCA7 PUSH2 0x10A2 JUMP JUMPDEST SWAP1 CALLER PUSH1 0x1 PUSH1 0x1 PUSH1 0xA0 SHL SUB DUP4 AND SUB PUSH2 0xCC3 JUMPI SWAP1 PUSH2 0x261 SWAP2 CALLDATALOAD PUSH2 0x1511 JUMP JUMPDEST PUSH1 0x84 SWAP1 PUSH1 0x20 DUP6 MLOAD SWAP2 PUSH3 0x461BCD PUSH1 0xE5 SHL DUP4 MSTORE DUP3 ADD MSTORE PUSH1 0x2F PUSH1 0x24 DUP3 ADD MSTORE PUSH32 0x416363657373436F6E74726F6C3A2063616E206F6E6C792072656E6F756E6365 PUSH1 0x44 DUP3 ADD MSTORE PUSH15 0x103937B632B9903337B91039B2B633 PUSH1 0x89 SHL PUSH1 0x64 DUP3 ADD MSTORE REVERT JUMPDEST POP POP CALLVALUE PUSH2 0x1B3 JUMPI DUP2 PUSH1 0x3 NOT CALLDATASIZE ADD SLT PUSH2 0x1B3 JUMPI PUSH1 0x20 SWAP1 MLOAD PUSH1 0x12 DUP2 MSTORE RETURN JUMPDEST SWAP1 POP CALLVALUE PUSH2 0x264 JUMPI DUP2 PUSH1 0x3 NOT CALLDATASIZE ADD SLT PUSH2 0x264 JUMPI CALLDATALOAD SWAP1 PUSH2 0xD56 PUSH2 0x10A2 JUMP JUMPDEST SWAP1 DUP3 DUP5 MSTORE PUSH1 0x5 PUSH1 0x20 MSTORE PUSH2 0xD6E PUSH1 0x1 DUP3 DUP7 KECCAK256 ADD SLOAD PUSH2 0x13B3 JUMP JUMPDEST DUP3 DUP5 MSTORE PUSH1 0x5 PUSH1 0x20 SWAP1 DUP2 MSTORE DUP2 DUP6 KECCAK256 PUSH1 0x1 PUSH1 0x1 PUSH1 0xA0 SHL SUB SWAP1 SWAP4 AND DUP1 DUP7 MSTORE SWAP3 SWAP1 MSTORE DUP1 DUP5 KECCAK256 SLOAD PUSH1 0xFF AND ISZERO PUSH2 0xD9C JUMPI DUP4 DUP1 RETURN JUMPDEST DUP3 DUP5 MSTORE PUSH1 0x5 PUSH1 0x20 MSTORE DUP1 DUP5 KECCAK256 DUP3 DUP6 MSTORE PUSH1 0x20 MSTORE DUP4 KECCAK256 PUSH1 0x1 PUSH1 0xFF NOT DUP3 SLOAD AND OR SWAP1 SSTORE CALLER SWAP2 PUSH32 0x2F8788117E7EFF1D82E926EC794901D17C78024A50270940304540A733656F0D DUP5 DUP1 LOG4 CODESIZE DUP1 DUP1 DUP4 DUP1 RETURN JUMPDEST POP POP CALLVALUE PUSH2 0x1B3 JUMPI DUP2 PUSH1 0x3 NOT CALLDATASIZE ADD SLT PUSH2 0x1B3 JUMPI PUSH1 0x20 SWAP1 MLOAD PUSH2 0x1F4 DUP2 MSTORE RETURN JUMPDEST POP POP CALLVALUE PUSH2 0x1B3 JUMPI DUP2 PUSH1 0x3 NOT CALLDATASIZE ADD SLT PUSH2 0x1B3 JUMPI PUSH1 0x20 SWAP1 MLOAD PUSH32 0x3C11D16CBAFFD01DF69CE1C404F6340EE057498F5F00246190EA54220576A848 DUP2 MSTORE RETURN JUMPDEST SWAP1 POP CALLVALUE PUSH2 0x264 JUMPI PUSH1 0x20 CALLDATASIZE PUSH1 0x3 NOT ADD SLT PUSH2 0x264 JUMPI DUP2 PUSH1 0x20 SWAP4 PUSH1 0x1 SWAP3 CALLDATALOAD DUP2 MSTORE PUSH1 0x5 DUP6 MSTORE KECCAK256 ADD SLOAD SWAP1 MLOAD SWAP1 DUP2 MSTORE RETURN JUMPDEST POP POP CALLVALUE PUSH2 0x1B3 JUMPI PUSH1 0x60 CALLDATASIZE PUSH1 0x3 NOT ADD SLT PUSH2 0x1B3 JUMPI PUSH1 0x20 SWAP1 PUSH2 0x2CD PUSH2 0xE8B PUSH2 0x1087 JUMP JUMPDEST PUSH2 0xE93 PUSH2 0x10A2 JUMP JUMPDEST PUSH1 0x44 CALLDATALOAD SWAP2 PUSH2 0xEA2 DUP4 CALLER DUP4 PUSH2 0x181A JUMP JUMPDEST PUSH2 0x15AA JUMP JUMPDEST POP POP CALLVALUE PUSH2 0x1B3 JUMPI DUP2 PUSH1 0x3 NOT CALLDATASIZE ADD SLT PUSH2 0x1B3 JUMPI PUSH1 0x20 SWAP1 PUSH1 0x2 SLOAD SWAP1 MLOAD SWAP1 DUP2 MSTORE RETURN JUMPDEST POP POP CALLVALUE PUSH2 0x1B3 JUMPI DUP1 PUSH1 0x3 NOT CALLDATASIZE ADD SLT PUSH2 0x1B3 JUMPI PUSH1 0x20 SWAP1 PUSH2 0x2CD PUSH2 0xEE6 PUSH2 0x1087 JUMP JUMPDEST PUSH1 0x24 CALLDATALOAD SWAP1 CALLER PUSH2 0x1718 JUMP JUMPDEST SWAP2 SWAP1 POP CALLVALUE PUSH2 0x264 JUMPI DUP3 PUSH1 0x3 NOT CALLDATASIZE ADD SLT PUSH2 0x264 JUMPI DUP1 MLOAD SWAP2 DUP4 PUSH1 0x3 SLOAD SWAP1 PUSH1 0x1 SWAP1 DUP3 DUP3 SHR SWAP3 DUP3 DUP2 AND DUP1 ISZERO PUSH2 0xFDB JUMPI JUMPDEST PUSH1 0x20 SWAP6 DUP7 DUP7 LT DUP3 EQ PUSH2 0xFC8 JUMPI POP DUP5 DUP9 MSTORE SWAP1 DUP2 ISZERO PUSH2 0xFA6 JUMPI POP PUSH1 0x1 EQ PUSH2 0xF4D JUMPI JUMPDEST PUSH2 0x613 DUP7 DUP7 PUSH2 0x609 DUP3 DUP12 SUB DUP4 PUSH2 0x14EF JUMP JUMPDEST SWAP3 SWAP6 POP PUSH1 0x3 DUP4 MSTORE PUSH32 0xC2575A0E9E593C00F959F8C92F12DB2869C3395A3B0502D05E2516446F71F85B JUMPDEST DUP3 DUP5 LT PUSH2 0xF93 JUMPI POP POP POP DUP3 PUSH2 0x613 SWAP5 PUSH2 0x609 SWAP3 DUP3 ADD ADD SWAP5 CODESIZE PUSH2 0xF3C JUMP JUMPDEST DUP1 SLOAD DUP7 DUP6 ADD DUP9 ADD MSTORE SWAP3 DUP7 ADD SWAP3 DUP2 ADD PUSH2 0xF76 JUMP JUMPDEST PUSH1 0xFF NOT AND DUP8 DUP7 ADD MSTORE POP POP POP ISZERO ISZERO PUSH1 0x5 SHL DUP4 ADD ADD SWAP3 POP PUSH2 0x609 DUP3 PUSH2 0x613 CODESIZE PUSH2 0xF3C JUMP JUMPDEST PUSH4 0x4E487B71 PUSH1 0xE0 SHL DUP5 MSTORE PUSH1 0x22 SWAP1 MSTORE PUSH1 0x24 DUP4 REVERT JUMPDEST SWAP4 PUSH1 0x7F AND SWAP4 PUSH2 0xF1C JUMP JUMPDEST DUP5 SWAP2 CALLVALUE PUSH2 0x264 JUMPI PUSH1 0x20 CALLDATASIZE PUSH1 0x3 NOT ADD SLT PUSH2 0x264 JUMPI CALLDATALOAD PUSH4 0xFFFFFFFF PUSH1 0xE0 SHL DUP2 AND DUP1 SWAP2 SUB PUSH2 0x264 JUMPI PUSH1 0x20 SWAP3 POP PUSH4 0x7965DB0B PUSH1 0xE0 SHL DUP2 EQ SWAP1 DUP2 ISZERO PUSH2 0x1027 JUMPI JUMPDEST POP ISZERO ISZERO DUP2 MSTORE RETURN JUMPDEST PUSH4 0x1FFC9A7 PUSH1 0xE0 SHL EQ SWAP1 POP DUP4 PUSH2 0x1020 JUMP JUMPDEST PUSH1 0x0 JUMPDEST DUP4 DUP2 LT PUSH2 0x104B JUMPI POP POP PUSH1 0x0 SWAP2 ADD MSTORE JUMP JUMPDEST DUP2 DUP2 ADD MLOAD DUP4 DUP3 ADD MSTORE PUSH1 0x20 ADD PUSH2 0x103B JUMP JUMPDEST PUSH1 0x40 SWAP2 PUSH1 0x20 DUP3 MSTORE PUSH2 0x107B DUP2 MLOAD DUP1 SWAP3 DUP2 PUSH1 0x20 DUP7 ADD MSTORE PUSH1 0x20 DUP7 DUP7 ADD SWAP2 ADD PUSH2 0x1038 JUMP JUMPDEST PUSH1 0x1F ADD PUSH1 0x1F NOT AND ADD ADD SWAP1 JUMP JUMPDEST PUSH1 0x4 CALLDATALOAD SWAP1 PUSH1 0x1 PUSH1 0x1 PUSH1 0xA0 SHL SUB DUP3 AND DUP3 SUB PUSH2 0x109D JUMPI JUMP JUMPDEST PUSH1 0x0 DUP1 REVERT JUMPDEST PUSH1 0x24 CALLDATALOAD SWAP1 PUSH1 0x1 PUSH1 0x1 PUSH1 0xA0 SHL SUB DUP3 AND DUP3 SUB PUSH2 0x109D JUMPI JUMP JUMPDEST CALLER PUSH1 0x0 SWAP1 DUP2 MSTORE PUSH32 0x5B8CCBB9D4D8FB16EA74CE3C29A41F1B461FBDAFF4714A0D9A8EB05499746BC PUSH1 0x20 SWAP1 DUP2 MSTORE PUSH1 0x40 DUP1 DUP4 KECCAK256 SLOAD SWAP1 SWAP3 SWAP1 PUSH1 0xFF AND ISZERO PUSH2 0x10FA JUMPI POP POP POP JUMP JUMPDEST PUSH2 0x1103 CALLER PUSH2 0x18D9 JUMP JUMPDEST DUP4 MLOAD SWAP1 DUP3 PUSH2 0x1110 DUP4 PUSH2 0x14BD JUMP JUMPDEST PUSH1 0x42 DUP4 MSTORE DUP5 DUP4 ADD SWAP4 PUSH1 0x60 CALLDATASIZE DUP7 CALLDATACOPY DUP4 MLOAD ISZERO PUSH2 0x1259 JUMPI PUSH1 0x30 DUP6 MSTORE8 DUP4 MLOAD SWAP1 PUSH1 0x1 SWAP2 DUP3 LT ISZERO PUSH2 0x1259 JUMPI SWAP1 PUSH1 0x78 PUSH1 0x21 DUP7 ADD MSTORE8 PUSH1 0x41 SWAP2 JUMPDEST DUP2 DUP4 GT PUSH2 0x11EB JUMPI POP POP POP PUSH2 0x11BB JUMPI PUSH2 0x49C SWAP4 DUP6 SWAP4 PUSH2 0x11A5 SWAP4 PUSH2 0x1196 PUSH1 0x48 SWAP5 PUSH2 0x4E8 SWAP10 MLOAD SWAP9 DUP6 PUSH23 0x20B1B1B2B9B9A1B7B73A3937B61D1030B1B1B7BAB73A1 PUSH1 0x4D SHL DUP12 SWAP8 DUP9 ADD MSTORE DUP3 MLOAD SWAP3 DUP4 SWAP2 PUSH1 0x37 DUP10 ADD SWAP2 ADD PUSH2 0x1038 JUMP JUMPDEST ADD SUB PUSH1 0x28 DUP2 ADD DUP6 MSTORE ADD DUP4 PUSH2 0x14EF JUMP JUMPDEST MLOAD PUSH3 0x461BCD PUSH1 0xE5 SHL DUP2 MSTORE SWAP2 DUP3 SWAP2 PUSH1 0x4 DUP4 ADD PUSH2 0x105B JUMP JUMPDEST PUSH1 0x64 DUP5 DUP7 MLOAD SWAP1 PUSH3 0x461BCD PUSH1 0xE5 SHL DUP3 MSTORE DUP1 PUSH1 0x4 DUP4 ADD MSTORE PUSH1 0x24 DUP3 ADD MSTORE PUSH1 0x0 DUP1 MLOAD PUSH1 0x20 PUSH2 0x1B22 DUP4 CODECOPY DUP2 MLOAD SWAP2 MSTORE PUSH1 0x44 DUP3 ADD MSTORE REVERT JUMPDEST SWAP1 SWAP2 SWAP3 PUSH1 0xF DUP2 AND PUSH1 0x10 DUP2 LT ISZERO PUSH2 0x1245 JUMPI PUSH16 0x181899199A1A9B1B9C1CB0B131B232B3 PUSH1 0x81 SHL SWAP1 BYTE PUSH2 0x121B DUP6 DUP9 PUSH2 0x18B2 JUMP JUMPDEST MSTORE8 PUSH1 0x4 SHR SWAP3 DUP1 ISZERO PUSH2 0x1231 JUMPI PUSH1 0x0 NOT ADD SWAP2 SWAP1 PUSH2 0x1141 JUMP JUMPDEST PUSH4 0x4E487B71 PUSH1 0xE0 SHL DUP3 MSTORE PUSH1 0x11 PUSH1 0x4 MSTORE PUSH1 0x24 DUP3 REVERT JUMPDEST PUSH4 0x4E487B71 PUSH1 0xE0 SHL DUP4 MSTORE PUSH1 0x32 PUSH1 0x4 MSTORE PUSH1 0x24 DUP4 REVERT JUMPDEST PUSH4 0x4E487B71 PUSH1 0xE0 SHL DUP2 MSTORE PUSH1 0x32 PUSH1 0x4 MSTORE PUSH1 0x24 SWAP1 REVERT JUMPDEST CALLER PUSH1 0x0 SWAP1 DUP2 MSTORE PUSH32 0x99F2891DB7A8DB76249871A02B43B68C0BB8F22EF8A3BC1034AE9375EF6B7C3C PUSH1 0x20 SWAP1 DUP2 MSTORE PUSH1 0x40 DUP1 DUP4 KECCAK256 SLOAD SWAP1 SWAP3 SWAP1 PUSH32 0x65D7A28E3265B37A6474929F336521B332C1681B933F6CB9F3376673440D862A SWAP1 PUSH1 0xFF AND ISZERO PUSH2 0x12D2 JUMPI POP POP POP POP JUMP JUMPDEST PUSH2 0x12DB CALLER PUSH2 0x18D9 JUMP JUMPDEST DUP5 MLOAD SWAP2 PUSH2 0x12E7 DUP4 PUSH2 0x14BD JUMP JUMPDEST PUSH1 0x42 DUP4 MSTORE DUP5 DUP4 ADD SWAP4 PUSH1 0x60 CALLDATASIZE DUP7 CALLDATACOPY DUP4 MLOAD ISZERO PUSH2 0x1259 JUMPI PUSH1 0x30 DUP6 MSTORE8 DUP4 MLOAD SWAP1 PUSH1 0x1 SWAP2 DUP3 LT ISZERO PUSH2 0x1259 JUMPI SWAP1 PUSH1 0x78 PUSH1 0x21 DUP7 ADD MSTORE8 PUSH1 0x41 SWAP2 JUMPDEST DUP2 DUP4 GT PUSH2 0x136D JUMPI POP POP POP PUSH2 0x11BB JUMPI PUSH2 0x49C SWAP4 DUP6 SWAP4 PUSH2 0x11A5 SWAP4 PUSH2 0x1196 PUSH1 0x48 SWAP5 PUSH2 0x4E8 SWAP10 MLOAD SWAP9 DUP6 PUSH23 0x20B1B1B2B9B9A1B7B73A3937B61D1030B1B1B7BAB73A1 PUSH1 0x4D SHL DUP12 SWAP8 DUP9 ADD MSTORE DUP3 MLOAD SWAP3 DUP4 SWAP2 PUSH1 0x37 DUP10 ADD SWAP2 ADD PUSH2 0x1038 JUMP JUMPDEST SWAP1 SWAP2 SWAP3 PUSH1 0xF DUP2 AND PUSH1 0x10 DUP2 LT ISZERO PUSH2 0x1245 JUMPI PUSH16 0x181899199A1A9B1B9C1CB0B131B232B3 PUSH1 0x81 SHL SWAP1 BYTE PUSH2 0x139D DUP6 DUP9 PUSH2 0x18B2 JUMP JUMPDEST MSTORE8 PUSH1 0x4 SHR SWAP3 DUP1 ISZERO PUSH2 0x1231 JUMPI PUSH1 0x0 NOT ADD SWAP2 SWAP1 PUSH2 0x1318 JUMP JUMPDEST PUSH1 0x0 DUP2 DUP2 MSTORE PUSH1 0x20 SWAP1 PUSH1 0x5 DUP3 MSTORE PUSH1 0x40 SWAP3 DUP4 DUP3 KECCAK256 CALLER DUP4 MSTORE DUP4 MSTORE PUSH1 0xFF DUP5 DUP4 KECCAK256 SLOAD AND ISZERO PUSH2 0x13DC JUMPI POP POP POP POP JUMP JUMPDEST PUSH2 0x13E5 CALLER PUSH2 0x18D9 JUMP JUMPDEST DUP5 MLOAD SWAP2 PUSH2 0x13F1 DUP4 PUSH2 0x14BD JUMP JUMPDEST PUSH1 0x42 DUP4 MSTORE DUP5 DUP4 ADD SWAP4 PUSH1 0x60 CALLDATASIZE DUP7 CALLDATACOPY DUP4 MLOAD ISZERO PUSH2 0x1259 JUMPI PUSH1 0x30 DUP6 MSTORE8 DUP4 MLOAD SWAP1 PUSH1 0x1 SWAP2 DUP3 LT ISZERO PUSH2 0x1259 JUMPI SWAP1 PUSH1 0x78 PUSH1 0x21 DUP7 ADD MSTORE8 PUSH1 0x41 SWAP2 JUMPDEST DUP2 DUP4 GT PUSH2 0x1477 JUMPI POP POP POP PUSH2 0x11BB JUMPI PUSH2 0x49C SWAP4 DUP6 SWAP4 PUSH2 0x11A5 SWAP4 PUSH2 0x1196 PUSH1 0x48 SWAP5 PUSH2 0x4E8 SWAP10 MLOAD SWAP9 DUP6 PUSH23 0x20B1B1B2B9B9A1B7B73A3937B61D1030B1B1B7BAB73A1 PUSH1 0x4D SHL DUP12 SWAP8 DUP9 ADD MSTORE DUP3 MLOAD SWAP3 DUP4 SWAP2 PUSH1 0x37 DUP10 ADD SWAP2 ADD PUSH2 0x1038 JUMP JUMPDEST SWAP1 SWAP2 SWAP3 PUSH1 0xF DUP2 AND PUSH1 0x10 DUP2 LT ISZERO PUSH2 0x1245 JUMPI PUSH16 0x181899199A1A9B1B9C1CB0B131B232B3 PUSH1 0x81 SHL SWAP1 BYTE PUSH2 0x14A7 DUP6 DUP9 PUSH2 0x18B2 JUMP JUMPDEST MSTORE8 PUSH1 0x4 SHR SWAP3 DUP1 ISZERO PUSH2 0x1231 JUMPI PUSH1 0x0 NOT ADD SWAP2 SWAP1 PUSH2 0x1422 JUMP JUMPDEST PUSH1 0x80 DUP2 ADD SWAP1 DUP2 LT PUSH8 0xFFFFFFFFFFFFFFFF DUP3 GT OR PUSH2 0x14D9 JUMPI PUSH1 0x40 MSTORE JUMP JUMPDEST PUSH4 0x4E487B71 PUSH1 0xE0 SHL PUSH1 0x0 MSTORE PUSH1 0x41 PUSH1 0x4 MSTORE PUSH1 0x24 PUSH1 0x0 REVERT JUMPDEST SWAP1 PUSH1 0x1F DUP1 NOT SWAP2 ADD AND DUP2 ADD SWAP1 DUP2 LT PUSH8 0xFFFFFFFFFFFFFFFF DUP3 GT OR PUSH2 0x14D9 JUMPI PUSH1 0x40 MSTORE JUMP JUMPDEST SWAP1 PUSH1 0x0 SWAP2 DUP1 DUP4 MSTORE PUSH1 0x5 PUSH1 0x20 MSTORE PUSH1 0x40 DUP4 KECCAK256 SWAP2 PUSH1 0x1 DUP1 PUSH1 0xA0 SHL SUB AND SWAP2 DUP3 DUP5 MSTORE PUSH1 0x20 MSTORE PUSH1 0xFF PUSH1 0x40 DUP5 KECCAK256 SLOAD AND PUSH2 0x1542 JUMPI POP POP POP JUMP JUMPDEST DUP1 DUP4 MSTORE PUSH1 0x5 PUSH1 0x20 MSTORE PUSH1 0x40 DUP4 KECCAK256 DUP3 DUP5 MSTORE PUSH1 0x20 MSTORE PUSH1 0x40 DUP4 KECCAK256 PUSH1 0xFF NOT DUP2 SLOAD AND SWAP1 SSTORE PUSH32 0xF6391F5C32D9C69D2A47EA670B442974B53935D1EDC7FD64EB21E047A839171B CALLER SWAP4 DUP1 LOG4 JUMP JUMPDEST SWAP2 SWAP1 DUP3 ADD DUP1 SWAP3 GT PUSH2 0x1594 JUMPI JUMP JUMPDEST PUSH4 0x4E487B71 PUSH1 0xE0 SHL PUSH1 0x0 MSTORE PUSH1 0x11 PUSH1 0x4 MSTORE PUSH1 0x24 PUSH1 0x0 REVERT JUMPDEST PUSH1 0x1 PUSH1 0x1 PUSH1 0xA0 SHL SUB SWAP1 DUP2 AND SWAP2 DUP3 ISZERO PUSH2 0x16C5 JUMPI AND SWAP2 DUP3 ISZERO PUSH2 0x1674 JUMPI PUSH1 0x0 DUP3 DUP2 MSTORE DUP1 PUSH1 0x20 MSTORE PUSH1 0x40 DUP2 KECCAK256 SLOAD SWAP2 DUP1 DUP4 LT PUSH2 0x1620 JUMPI PUSH1 0x40 DUP3 DUP3 PUSH32 0xDDF252AD1BE2C89B69C2B068FC378DAA952BA7F163C4A11628F55A4DF523B3EF SWAP6 DUP8 PUSH1 0x20 SWAP7 MSTORE DUP3 DUP7 MSTORE SUB DUP3 DUP3 KECCAK256 SSTORE DUP7 DUP2 MSTORE KECCAK256 DUP2 DUP2 SLOAD ADD SWAP1 SSTORE PUSH1 0x40 MLOAD SWAP1 DUP2 MSTORE LOG3 JUMP JUMPDEST PUSH1 0x40 MLOAD PUSH3 0x461BCD PUSH1 0xE5 SHL DUP2 MSTORE PUSH1 0x20 PUSH1 0x4 DUP3 ADD MSTORE PUSH1 0x26 PUSH1 0x24 DUP3 ADD MSTORE PUSH32 0x45524332303A207472616E7366657220616D6F756E7420657863656564732062 PUSH1 0x44 DUP3 ADD MSTORE PUSH6 0x616C616E6365 PUSH1 0xD0 SHL PUSH1 0x64 DUP3 ADD MSTORE PUSH1 0x84 SWAP1 REVERT JUMPDEST PUSH1 0x40 MLOAD PUSH3 0x461BCD PUSH1 0xE5 SHL DUP2 MSTORE PUSH1 0x20 PUSH1 0x4 DUP3 ADD MSTORE PUSH1 0x23 PUSH1 0x24 DUP3 ADD MSTORE PUSH32 0x45524332303A207472616E7366657220746F20746865207A65726F2061646472 PUSH1 0x44 DUP3 ADD MSTORE PUSH3 0x657373 PUSH1 0xE8 SHL PUSH1 0x64 DUP3 ADD MSTORE PUSH1 0x84 SWAP1 REVERT JUMPDEST PUSH1 0x40 MLOAD PUSH3 0x461BCD PUSH1 0xE5 SHL DUP2 MSTORE PUSH1 0x20 PUSH1 0x4 DUP3 ADD MSTORE PUSH1 0x25 PUSH1 0x24 DUP3 ADD MSTORE PUSH32 0x45524332303A207472616E736665722066726F6D20746865207A65726F206164 PUSH1 0x44 DUP3 ADD MSTORE PUSH5 0x6472657373 PUSH1 0xD8 SHL PUSH1 0x64 DUP3 ADD MSTORE PUSH1 0x84 SWAP1 REVERT JUMPDEST PUSH1 0x1 PUSH1 0x1 PUSH1 0xA0 SHL SUB SWAP1 DUP2 AND SWAP2 DUP3 ISZERO PUSH2 0x17C9 JUMPI AND SWAP2 DUP3 ISZERO PUSH2 0x1779 JUMPI PUSH1 0x20 PUSH32 0x8C5BE1E5EBEC7D5BD14F71427D1E84F3DD0314C0F7B2291E5B200AC8C7C3B925 SWAP2 DUP4 PUSH1 0x0 MSTORE PUSH1 0x1 DUP3 MSTORE PUSH1 0x40 PUSH1 0x0 KECCAK256 DUP6 PUSH1 0x0 MSTORE DUP3 MSTORE DUP1 PUSH1 0x40 PUSH1 0x0 KECCAK256 SSTORE PUSH1 0x40 MLOAD SWAP1 DUP2 MSTORE LOG3 JUMP JUMPDEST PUSH1 0x40 MLOAD PUSH3 0x461BCD PUSH1 0xE5 SHL DUP2 MSTORE PUSH1 0x20 PUSH1 0x4 DUP3 ADD MSTORE PUSH1 0x22 PUSH1 0x24 DUP3 ADD MSTORE PUSH32 0x45524332303A20617070726F766520746F20746865207A65726F206164647265 PUSH1 0x44 DUP3 ADD MSTORE PUSH2 0x7373 PUSH1 0xF0 SHL PUSH1 0x64 DUP3 ADD MSTORE PUSH1 0x84 SWAP1 REVERT JUMPDEST PUSH1 0x40 MLOAD PUSH3 0x461BCD PUSH1 0xE5 SHL DUP2 MSTORE PUSH1 0x20 PUSH1 0x4 DUP3 ADD MSTORE PUSH1 0x24 DUP1 DUP3 ADD MSTORE PUSH32 0x45524332303A20617070726F76652066726F6D20746865207A65726F20616464 PUSH1 0x44 DUP3 ADD MSTORE PUSH4 0x72657373 PUSH1 0xE0 SHL PUSH1 0x64 DUP3 ADD MSTORE PUSH1 0x84 SWAP1 REVERT JUMPDEST SWAP1 PUSH1 0x1 DUP1 PUSH1 0xA0 SHL SUB DUP1 DUP4 AND PUSH1 0x0 MSTORE PUSH1 0x1 PUSH1 0x20 MSTORE PUSH1 0x40 PUSH1 0x0 KECCAK256 SWAP1 DUP3 AND PUSH1 0x0 MSTORE PUSH1 0x20 MSTORE PUSH1 0x40 PUSH1 0x0 KECCAK256 SLOAD SWAP3 PUSH1 0x0 NOT DUP5 SUB PUSH2 0x1852 JUMPI JUMPDEST POP POP POP POP JUMP JUMPDEST DUP1 DUP5 LT PUSH2 0x186D JUMPI PUSH2 0x1864 SWAP4 SUB SWAP2 PUSH2 0x1718 JUMP JUMPDEST CODESIZE DUP1 DUP1 DUP1 PUSH2 0x184C JUMP JUMPDEST PUSH1 0x40 MLOAD PUSH3 0x461BCD PUSH1 0xE5 SHL DUP2 MSTORE PUSH1 0x20 PUSH1 0x4 DUP3 ADD MSTORE PUSH1 0x1D PUSH1 0x24 DUP3 ADD MSTORE PUSH32 0x45524332303A20696E73756666696369656E7420616C6C6F77616E6365000000 PUSH1 0x44 DUP3 ADD MSTORE PUSH1 0x64 SWAP1 REVERT JUMPDEST SWAP1 DUP2 MLOAD DUP2 LT ISZERO PUSH2 0x18C3 JUMPI ADD PUSH1 0x20 ADD SWAP1 JUMP JUMPDEST PUSH4 0x4E487B71 PUSH1 0xE0 SHL PUSH1 0x0 MSTORE PUSH1 0x32 PUSH1 0x4 MSTORE PUSH1 0x24 PUSH1 0x0 REVERT JUMPDEST PUSH1 0x40 MLOAD SWAP1 PUSH1 0x60 DUP3 ADD DUP3 DUP2 LT PUSH8 0xFFFFFFFFFFFFFFFF DUP3 GT OR PUSH2 0x14D9 JUMPI PUSH1 0x40 MSTORE PUSH1 0x2A DUP3 MSTORE PUSH1 0x20 DUP3 ADD PUSH1 0x40 CALLDATASIZE DUP3 CALLDATACOPY DUP3 MLOAD ISZERO PUSH2 0x18C3 JUMPI PUSH1 0x30 SWAP1 MSTORE8 DUP2 MLOAD PUSH1 0x1 SWAP1 DUP2 LT ISZERO PUSH2 0x18C3 JUMPI PUSH1 0x78 PUSH1 0x21 DUP5 ADD MSTORE8 PUSH1 0x29 SWAP1 JUMPDEST DUP1 DUP3 GT PUSH2 0x1968 JUMPI POP POP PUSH2 0x1936 JUMPI SWAP1 JUMP JUMPDEST PUSH1 0x64 PUSH1 0x40 MLOAD PUSH3 0x461BCD PUSH1 0xE5 SHL DUP2 MSTORE PUSH1 0x20 PUSH1 0x4 DUP3 ADD MSTORE PUSH1 0x20 PUSH1 0x24 DUP3 ADD MSTORE PUSH1 0x0 DUP1 MLOAD PUSH1 0x20 PUSH2 0x1B22 DUP4 CODECOPY DUP2 MLOAD SWAP2 MSTORE PUSH1 0x44 DUP3 ADD MSTORE REVERT JUMPDEST SWAP1 SWAP2 PUSH1 0xF DUP2 AND PUSH1 0x10 DUP2 LT ISZERO PUSH2 0x19C1 JUMPI PUSH16 0x181899199A1A9B1B9C1CB0B131B232B3 PUSH1 0x81 SHL SWAP1 BYTE PUSH2 0x1997 DUP5 DUP7 PUSH2 0x18B2 JUMP JUMPDEST MSTORE8 PUSH1 0x4 SHR SWAP2 DUP1 ISZERO PUSH2 0x19AC JUMPI PUSH1 0x0 NOT ADD SWAP1 PUSH2 0x1926 JUMP JUMPDEST PUSH1 0x24 PUSH1 0x0 PUSH4 0x4E487B71 PUSH1 0xE0 SHL DUP2 MSTORE PUSH1 0x11 PUSH1 0x4 MSTORE REVERT JUMPDEST PUSH1 0x24 PUSH1 0x0 PUSH4 0x4E487B71 PUSH1 0xE0 SHL DUP2 MSTORE PUSH1 0x32 PUSH1 0x4 MSTORE REVERT JUMPDEST PUSH1 0xFF PUSH1 0x6 SLOAD AND PUSH2 0x19E2 JUMPI JUMP JUMPDEST PUSH1 0x40 MLOAD PUSH3 0x461BCD PUSH1 0xE5 SHL DUP2 MSTORE PUSH1 0x20 PUSH1 0x4 DUP3 ADD MSTORE PUSH1 0x10 PUSH1 0x24 DUP3 ADD MSTORE PUSH16 0x14185D5CD8589B194E881C185D5CD959 PUSH1 0x82 SHL PUSH1 0x44 DUP3 ADD MSTORE PUSH1 0x64 SWAP1 REVERT JUMPDEST PUSH1 0x1 PUSH1 0x1 PUSH1 0xA0 SHL SUB AND DUP1 ISZERO PUSH2 0x1AD2 JUMPI PUSH1 0x0 SWAP2 DUP2 DUP4 MSTORE DUP3 PUSH1 0x20 MSTORE PUSH1 0x40 DUP4 KECCAK256 SLOAD DUP2 DUP2 LT PUSH2 0x1A82 JUMPI DUP2 PUSH32 0xDDF252AD1BE2C89B69C2B068FC378DAA952BA7F163C4A11628F55A4DF523B3EF SWAP3 PUSH1 0x20 SWAP3 DUP6 DUP8 MSTORE DUP7 DUP5 MSTORE SUB PUSH1 0x40 DUP7 KECCAK256 SSTORE DUP1 PUSH1 0x2 SLOAD SUB PUSH1 0x2 SSTORE PUSH1 0x40 MLOAD SWAP1 DUP2 MSTORE LOG3 JUMP JUMPDEST PUSH1 0x40 MLOAD PUSH3 0x461BCD PUSH1 0xE5 SHL DUP2 MSTORE PUSH1 0x20 PUSH1 0x4 DUP3 ADD MSTORE PUSH1 0x22 PUSH1 0x24 DUP3 ADD MSTORE PUSH32 0x45524332303A206275726E20616D6F756E7420657863656564732062616C616E PUSH1 0x44 DUP3 ADD MSTORE PUSH2 0x6365 PUSH1 0xF0 SHL PUSH1 0x64 DUP3 ADD MSTORE PUSH1 0x84 SWAP1 REVERT JUMPDEST PUSH1 0x40 MLOAD PUSH3 0x461BCD PUSH1 0xE5 SHL DUP2 MSTORE PUSH1 0x20 PUSH1 0x4 DUP3 ADD MSTORE PUSH1 0x21 PUSH1 0x24 DUP3 ADD MSTORE PUSH32 0x45524332303A206275726E2066726F6D20746865207A65726F20616464726573 PUSH1 0x44 DUP3 ADD MSTORE PUSH1 0x73 PUSH1 0xF8 SHL PUSH1 0x64 DUP3 ADD MSTORE PUSH1 0x84 SWAP1 REVERT INVALID MSTORE8 PUSH21 0x72696E67733A20686578206C656E67746820696E73 PUSH22 0x6666696369656E74A2646970667358221220F69E07A5 DUP6 CALLER INVALID MSTORE8 0xB2 0xB4 0x2C 0x4F ADDMOD 0x4A 0xBD 0x24 0xCB PUSH12 0x428B860A79F75A728E80D72D PUSH28 0xE264736F6C634300081400332F8788117E7EFF1D82E926EC794901D1 PUSH29 0x78024A50270940304540A733656F0D0000000000000000000000000000 "},"methodIdentifiers":{"BURNER_ROLE()":"282c51f3","DEFAULT_ADMIN_ROLE()":"a217fddf","DEPEG_THRESHOLD()":"2921e8bb","MINTER_ROLE()":"d5391393","PAUSER_ROLE()":"e63ab1e9","allowance(address,address)":"dd62ed3e","approve(address,uint256)":"095ea7b3","balanceOf(address)":"70a08231","burn(address,uint256)":"9dc29fac","burnFrom(address,uint256)":"79cc6790","decimals()":"313ce567","decreaseAllowance(address,uint256)":"a457c2d7","getRoleAdmin(bytes32)":"248a9ca3","grantRole(bytes32,address)":"2f2ff15d","hasRole(bytes32,address)":"91d14854","increaseAllowance(address,uint256)":"39509351","mint(address,uint256)":"40c10f19","mintingPaused()":"e1a283d6","name()":"06fdde03","pause()":"8456cb59","paused()":"5c975abb","renounceRole(bytes32,address)":"36568abe","resumeMinting()":"59ae340e","revokeRole(bytes32,address)":"d547741f","supportsInterface(bytes4)":"01ffc9a7","symbol()":"95d89b41","totalSupply()":"18160ddd","transfer(address,uint256)":"a9059cbb","transferFrom(address,address,uint256)":"23b872dd","triggerCircuitBreaker(string)":"61b242c5","unpause()":"3f4ba83a"}},"storageLayout":{"storage":[{"astId":690,"contract":"contracts/stablecoin/KORTUSD.sol:KORTUSD","label":"_balances","offset":0,"slot":"0","type":"t_mapping(t_address,t_uint256)"},{"astId":696,"contract":"contracts/stablecoin/KORTUSD.sol:KORTUSD","label":"_allowances","offset":0,"slot":"1","type":"t_mapping(t_address,t_mapping(t_address,t_uint256))"},{"astId":698,"contract":"contracts/stablecoin/KORTUSD.sol:KORTUSD","label":"_totalSupply","offset":0,"slot":"2","type":"t_uint256"},{"astId":700,"contract":"contracts/stablecoin/KORTUSD.sol:KORTUSD","label":"_name","offset":0,"slot":"3","type":"t_string_storage"},{"astId":702,"contract":"contracts/stablecoin/KORTUSD.sol:KORTUSD","label":"_symbol","offset":0,"slot":"4","type":"t_string_storage"},{"astId":24,"contract":"contracts/stablecoin/KORTUSD.sol:KORTUSD","label":"_roles","offset":0,"slot":"5","type":"t_mapping(t_bytes32,t_struct(RoleData)19_storage)"},{"astId":519,"contract":"contracts/stablecoin/KORTUSD.sol:KORTUSD","label":"_paused","offset":0,"slot":"6","type":"t_bool"},{"astId":8629,"contract":"contracts/stablecoin/KORTUSD.sol:KORTUSD","label":"mintingPaused","offset":1,"slot":"6","type":"t_bool"}],"types":{"t_address":{"encoding":"inplace","label":"address","numberOfBytes":"20"},"t_bool":{"encoding":"inplace","label":"bool","numberOfBytes":"1"},"t_bytes32":{"encoding":"inplace","label":"bytes32","numberOfBytes":"32"},"t_mapping(t_address,t_bool)":{"encoding":"mapping","key":"t_address","label":"mapping(address => bool)","numberOfBytes":"32","value":"t_bool"},"t_mapping(t_address,t_mapping(t_address,t_uint256))":{"encoding":"mapping","key":"t_address","label":"mapping(address => mapping(address => uint256))","numberOfBytes":"32","value":"t_mapping(t_address,t_uint256)"},"t_mapping(t_address,t_uint256)":{"encoding":"mapping","key":"t_address","label":"mapping(address => uint256)","numberOfBytes":"32","value":"t_uint256"},"t_mapping(t_bytes32,t_struct(RoleData)19_storage)":{"encoding":"mapping","key":"t_bytes32","label":"mapping(bytes32 => struct AccessControl.RoleData)","numberOfBytes":"32","value":"t_struct(RoleData)19_storage"},"t_string_storage":{"encoding":"bytes","label":"string","numberOfBytes":"32"},"t_struct(RoleData)19_storage":{"encoding":"inplace","label":"struct AccessControl.RoleData","members":[{"astId":16,"contract":"contracts/stablecoin/KORTUSD.sol:KORTUSD","label":"members","offset":0,"slot":"0","type":"t_mapping(t_address,t_bool)"},{"astId":18,"contract":"contracts/stablecoin/KORTUSD.sol:KORTUSD","label":"adminRole","offset":0,"slot":"1","type":"t_bytes32"}],"numberOfBytes":"64"},"t_uint256":{"encoding":"inplace","label":"uint256","numberOfBytes":"32"}}}}}}