{"contracts/amm/KortanaPair.sol":{"KortanaPair":{"abi":[{"inputs":[],"stateMutability":"nonpayable","type":"constructor"},{"anonymous":false,"inputs":[{"indexed":true,"internalType":"address","name":"sender","type":"address"},{"indexed":false,"internalType":"uint256","name":"amount0In","type":"uint256"},{"indexed":false,"internalType":"uint256","name":"amount1In","type":"uint256"},{"indexed":false,"internalType":"uint256","name":"amount0Out","type":"uint256"},{"indexed":false,"internalType":"uint256","name":"amount1Out","type":"uint256"},{"indexed":true,"internalType":"address","name":"to","type":"address"}],"name":"Swap","type":"event"},{"anonymous":false,"inputs":[{"indexed":false,"internalType":"uint112","name":"reserve0","type":"uint112"},{"indexed":false,"internalType":"uint112","name":"reserve1","type":"uint112"}],"name":"Sync","type":"event"},{"anonymous":false,"inputs":[{"indexed":true,"internalType":"address","name":"from","type":"address"},{"indexed":true,"internalType":"address","name":"to","type":"address"},{"indexed":false,"internalType":"uint256","name":"value","type":"uint256"}],"name":"Transfer","type":"event"},{"inputs":[{"internalType":"address","name":"","type":"address"}],"name":"balanceOf","outputs":[{"internalType":"uint256","name":"","type":"uint256"}],"stateMutability":"view","type":"function"},{"inputs":[],"name":"factory","outputs":[{"internalType":"address","name":"","type":"address"}],"stateMutability":"view","type":"function"},{"inputs":[{"internalType":"address","name":"to","type":"address"},{"internalType":"uint256","name":"amount0","type":"uint256"},{"internalType":"uint256","name":"amount1","type":"uint256"}],"name":"genesisMint","outputs":[],"stateMutability":"nonpayable","type":"function"},{"inputs":[],"name":"getReserves","outputs":[{"internalType":"uint112","name":"_reserve0","type":"uint112"},{"internalType":"uint112","name":"_reserve1","type":"uint112"},{"internalType":"uint32","name":"_blockTimestampLast","type":"uint32"}],"stateMutability":"view","type":"function"},{"inputs":[{"internalType":"address","name":"_token0","type":"address"},{"internalType":"address","name":"_token1","type":"address"}],"name":"initialize","outputs":[],"stateMutability":"nonpayable","type":"function"},{"inputs":[{"internalType":"uint256","name":"amount0Out","type":"uint256"},{"internalType":"uint256","name":"amount1Out","type":"uint256"},{"internalType":"address","name":"to","type":"address"},{"internalType":"bytes","name":"data","type":"bytes"}],"name":"swap","outputs":[],"stateMutability":"nonpayable","type":"function"},{"inputs":[],"name":"sync","outputs":[],"stateMutability":"nonpayable","type":"function"},{"inputs":[],"name":"token0","outputs":[{"internalType":"address","name":"","type":"address"}],"stateMutability":"view","type":"function"},{"inputs":[],"name":"token1","outputs":[{"internalType":"address","name":"","type":"address"}],"stateMutability":"view","type":"function"},{"inputs":[],"name":"totalSupply","outputs":[{"internalType":"uint256","name":"","type":"uint256"}],"stateMutability":"view","type":"function"}],"evm":{"bytecode":{"linkReferences":{},"object":"6080806040523461002d576001600655600080546001600160a01b03191633179055610cbe90816100338239f35b600080fdfe6080604052600436101561001257600080fd5b60003560e01c8063022c0d9f146105355780630902f1ac146104dc5780630dfe1681146104b357806318160ddd14610495578063485cc9551461042e57806370a08231146103f4578063c45a0155146103cb578063ca63208c14610282578063d21220a7146102595763fff6cae91461008a57600080fd5b34610212576000366003190112610212576100a9600160065414610bda565b60006006556001546040516370a0823160e01b8082523060048301529091602091906001600160a01b039083908590602490829085165afa93841561021e5760009461022a575b508290600254169160246040518094819382523060048301525afa90811561021e576000916101ec575b506001600160701b039182841115806101e2575b156101aa5750607090811b600160701b600160e01b03169282169283174260e01b6001600160e01b031916176003819055604080516001600160701b0395861681529190921c90921690921660208201527f1c411e9a96e071241c2f21f7726b17ae89e3cab4c78be50e062b03a9fffbbad19190a16001600655005b6064906040519062461bcd60e51b8252600482015260116024820152704b6f7274616e613a204f564552464c4f5760781b6044820152fd5b508282111561012e565b90508181813d8311610217575b6102038183610c18565b8101031261021257513861011a565b600080fd5b503d6101f9565b6040513d6000823e3d90fd5b9093508281813d8311610252575b6102428183610c18565b81010312610212575192826100f0565b503d610238565b34610212576000366003190112610212576002546040516001600160a01b039091168152602090f35b346102125760603660031901126102125761029b610b83565b6000546001600160a01b03906102b49082163314610b99565b600454610386577f1c411e9a96e071241c2f21f7726b17ae89e3cab4c78be50e062b03a9fffbbad19160007fddf252ad1be2c89b69c2b068fc378daa952ba7f163c4a11628f55a4df523b3ef6020600354946001600160701b03956001600160701b0360701b60443560701b169087602435169063ffffffff60e01b161717600355683635c9adc5dea000009485600455169384845260058252806040852055604051908152a3600354604080516001600160701b038484168116825260709390931c909316909116602083015290a1005b60405162461bcd60e51b815260206004820152601760248201527f4b6f7274616e613a20414c52454144595f5345454445440000000000000000006044820152606490fd5b34610212576000366003190112610212576000546040516001600160a01b039091168152602090f35b34610212576020366003190112610212576001600160a01b03610415610b83565b1660005260056020526020604060002054604051908152f35b3461021257604036600319011261021257610447610b83565b6024356001600160a01b0381811692918390036102125761046d81600054163314610b99565b6bffffffffffffffffffffffff60a01b91168160015416176001556002541617600255600080f35b34610212576000366003190112610212576020600454604051908152f35b34610212576000366003190112610212576001546040516001600160a01b039091168152602090f35b3461021257600036600319011261021257606063ffffffff6105136003546001600160701b0391828216928260701c169160e01c90565b909291604051936001600160701b038092168552166020840152166040820152f35b34610212576080366003190112610212576044356001600160a01b03818116918281036102125760643567ffffffffffffffff808211610212573660238301121561021257816004013590811161021257369101602401116102125761059f600160065414610bda565b60006006556004351580158091610b78575b15610b27576105d56003546001600160701b0391828216928260701c169160e01c90565b509390926001600160701b0384166004351080610b13575b15610ace5781600154169160025416928287141580610ac4575b15610a8957610a29575b6024356109bf575b50604051906020826024816370a0823160e01b948582523060048301525afa91821561021e5760009261098a575b5060209060246040518095819382523060048301525afa91821561021e57600092610956575b506106836004356001600160701b038516610c68565b81111561094e576106a86106a26004356001600160701b038616610c68565b82610c68565b935b6106bf6024356001600160701b038316610c68565b831115610946576106e46106de6024356001600160701b038416610c68565b84610c68565b935b851515861561093d575b156108ed57826103e88102046103e814831517156108d75760038602868104600314871517156108d757610728906103e88502610c68565b906103e88502918583046103e814861517156108d7576003870292878404600314881517156108d7576107716001600160701b039261076b61077a968594610c68565b90610c75565b94169116610c75565b90620f4240918281029281840414901517156108d757106108a5576001600160701b0381111580610894575b1561085b57607091821b600160701b600160e01b03166001600160701b039182169081174260e01b6001600160e01b03191617600381905560408051928352931c90911660208201527f1c411e9a96e071241c2f21f7726b17ae89e3cab4c78be50e062b03a9fffbbad19190a16040519182526020820152600435604082015260243560608201527fd78ad95fa46c994b6551d0da85fc275fe613ce37657fb8d5e3d130840159d82260803392a36001600655005b60405162461bcd60e51b81526020600482015260116024820152704b6f7274616e613a204f564552464c4f5760781b6044820152606490fd5b506001600160701b038211156107a6565b60405162461bcd60e51b815260206004820152600a6024820152694b6f7274616e613a204b60b01b6044820152606490fd5b634e487b7160e01b600052601160045260246000fd5b60405162461bcd60e51b815260206004820152602260248201527f4b6f7274616e613a20494e53554646494349454e545f494e5055545f414d4f55604482015261139560f21b6064820152608490fd5b508415156106f0565b6000936106e6565b6000936106aa565b9091506020813d602011610982575b8161097260209383610c18565b810103126102125751908561066d565b3d9150610965565b9091506020813d6020116109b7575b816109a660209383610c18565b810103126102125751906020610647565b3d9150610999565b60405163a9059cbb60e01b81526001600160a01b0391909116600482015260248035908201526020816044816000875af1801561021e571561061957610a1b9060203d8111610a22575b610a138183610c18565b810190610c50565b5085610619565b503d610a09565b60405163a9059cbb60e01b81526001600160a01b0382166004808301919091523560248201526020816044816000875af1801561021e57610a6b575b50610611565b610a829060203d8111610a2257610a138183610c18565b5086610a65565b60405162461bcd60e51b81526020600482015260136024820152724b6f7274616e613a20494e56414c49445f544f60681b6044820152606490fd5b5083871415610607565b60405162461bcd60e51b815260206004820152601f60248201527f4b6f7274616e613a20494e53554646494349454e545f4c4951554944495459006044820152606490fd5b506001600160701b038516602435106105ed565b60405162461bcd60e51b815260206004820152602360248201527f4b6f7274616e613a20494e53554646494349454e545f4f55545055545f414d4f60448201526215539560ea1b6064820152608490fd5b5060243515156105b1565b600435906001600160a01b038216820361021257565b15610ba057565b60405162461bcd60e51b815260206004820152601260248201527125b7b93a30b7309d102327a92124a22222a760711b6044820152606490fd5b15610be157565b60405162461bcd60e51b815260206004820152600f60248201526e12dbdc9d185b984e881313d0d2d151608a1b6044820152606490fd5b90601f8019910116810190811067ffffffffffffffff821117610c3a57604052565b634e487b7160e01b600052604160045260246000fd5b90816020910312610212575180151581036102125790565b919082039182116108d757565b818102929181159184041417156108d75756fea26469706673582212205e8a7adc7c82b43920a527f55e2e1b5d8da6b32866ed27820aaaf38626ed92ad64736f6c63430008140033","opcodes":"PUSH1 0x80 DUP1 PUSH1 0x40 MSTORE CALLVALUE PUSH2 0x2D JUMPI PUSH1 0x1 PUSH1 0x6 SSTORE PUSH1 0x0 DUP1 SLOAD PUSH1 0x1 PUSH1 0x1 PUSH1 0xA0 SHL SUB NOT AND CALLER OR SWAP1 SSTORE PUSH2 0xCBE SWAP1 DUP2 PUSH2 0x33 DUP3 CODECOPY RETURN JUMPDEST PUSH1 0x0 DUP1 REVERT INVALID PUSH1 0x80 PUSH1 0x40 MSTORE PUSH1 0x4 CALLDATASIZE LT ISZERO PUSH2 0x12 JUMPI PUSH1 0x0 DUP1 REVERT JUMPDEST PUSH1 0x0 CALLDATALOAD PUSH1 0xE0 SHR DUP1 PUSH4 0x22C0D9F EQ PUSH2 0x535 JUMPI DUP1 PUSH4 0x902F1AC EQ PUSH2 0x4DC JUMPI DUP1 PUSH4 0xDFE1681 EQ PUSH2 0x4B3 JUMPI DUP1 PUSH4 0x18160DDD EQ PUSH2 0x495 JUMPI DUP1 PUSH4 0x485CC955 EQ PUSH2 0x42E JUMPI DUP1 PUSH4 0x70A08231 EQ PUSH2 0x3F4 JUMPI DUP1 PUSH4 0xC45A0155 EQ PUSH2 0x3CB JUMPI DUP1 PUSH4 0xCA63208C EQ PUSH2 0x282 JUMPI DUP1 PUSH4 0xD21220A7 EQ PUSH2 0x259 JUMPI PUSH4 0xFFF6CAE9 EQ PUSH2 0x8A JUMPI PUSH1 0x0 DUP1 REVERT JUMPDEST CALLVALUE PUSH2 0x212 JUMPI PUSH1 0x0 CALLDATASIZE PUSH1 0x3 NOT ADD SLT PUSH2 0x212 JUMPI PUSH2 0xA9 PUSH1 0x1 PUSH1 0x6 SLOAD EQ PUSH2 0xBDA JUMP JUMPDEST PUSH1 0x0 PUSH1 0x6 SSTORE PUSH1 0x1 SLOAD PUSH1 0x40 MLOAD PUSH4 0x70A08231 PUSH1 0xE0 SHL DUP1 DUP3 MSTORE ADDRESS PUSH1 0x4 DUP4 ADD MSTORE SWAP1 SWAP2 PUSH1 0x20 SWAP2 SWAP1 PUSH1 0x1 PUSH1 0x1 PUSH1 0xA0 SHL SUB SWAP1 DUP4 SWAP1 DUP6 SWAP1 PUSH1 0x24 SWAP1 DUP3 SWAP1 DUP6 AND GAS STATICCALL SWAP4 DUP5 ISZERO PUSH2 0x21E JUMPI PUSH1 0x0 SWAP5 PUSH2 0x22A JUMPI JUMPDEST POP DUP3 SWAP1 PUSH1 0x2 SLOAD AND SWAP2 PUSH1 0x24 PUSH1 0x40 MLOAD DUP1 SWAP5 DUP2 SWAP4 DUP3 MSTORE ADDRESS PUSH1 0x4 DUP4 ADD MSTORE GAS STATICCALL SWAP1 DUP2 ISZERO PUSH2 0x21E JUMPI PUSH1 0x0 SWAP2 PUSH2 0x1EC JUMPI JUMPDEST POP PUSH1 0x1 PUSH1 0x1 PUSH1 0x70 SHL SUB SWAP2 DUP3 DUP5 GT ISZERO DUP1 PUSH2 0x1E2 JUMPI JUMPDEST ISZERO PUSH2 0x1AA JUMPI POP PUSH1 0x70 SWAP1 DUP2 SHL PUSH1 0x1 PUSH1 0x70 SHL PUSH1 0x1 PUSH1 0xE0 SHL SUB AND SWAP3 DUP3 AND SWAP3 DUP4 OR TIMESTAMP PUSH1 0xE0 SHL PUSH1 0x1 PUSH1 0x1 PUSH1 0xE0 SHL SUB NOT AND OR PUSH1 0x3 DUP2 SWAP1 SSTORE PUSH1 0x40 DUP1 MLOAD PUSH1 0x1 PUSH1 0x1 PUSH1 0x70 SHL SUB SWAP6 DUP7 AND DUP2 MSTORE SWAP2 SWAP1 SWAP3 SHR SWAP1 SWAP3 AND SWAP1 SWAP3 AND PUSH1 0x20 DUP3 ADD MSTORE PUSH32 0x1C411E9A96E071241C2F21F7726B17AE89E3CAB4C78BE50E062B03A9FFFBBAD1 SWAP2 SWAP1 LOG1 PUSH1 0x1 PUSH1 0x6 SSTORE STOP JUMPDEST PUSH1 0x64 SWAP1 PUSH1 0x40 MLOAD SWAP1 PUSH3 0x461BCD PUSH1 0xE5 SHL DUP3 MSTORE PUSH1 0x4 DUP3 ADD MSTORE PUSH1 0x11 PUSH1 0x24 DUP3 ADD MSTORE PUSH17 0x4B6F7274616E613A204F564552464C4F57 PUSH1 0x78 SHL PUSH1 0x44 DUP3 ADD MSTORE REVERT JUMPDEST POP DUP3 DUP3 GT ISZERO PUSH2 0x12E JUMP JUMPDEST SWAP1 POP DUP2 DUP2 DUP2 RETURNDATASIZE DUP4 GT PUSH2 0x217 JUMPI JUMPDEST PUSH2 0x203 DUP2 DUP4 PUSH2 0xC18 JUMP JUMPDEST DUP2 ADD SUB SLT PUSH2 0x212 JUMPI MLOAD CODESIZE PUSH2 0x11A JUMP JUMPDEST PUSH1 0x0 DUP1 REVERT JUMPDEST POP RETURNDATASIZE PUSH2 0x1F9 JUMP JUMPDEST PUSH1 0x40 MLOAD RETURNDATASIZE PUSH1 0x0 DUP3 RETURNDATACOPY RETURNDATASIZE SWAP1 REVERT JUMPDEST SWAP1 SWAP4 POP DUP3 DUP2 DUP2 RETURNDATASIZE DUP4 GT PUSH2 0x252 JUMPI JUMPDEST PUSH2 0x242 DUP2 DUP4 PUSH2 0xC18 JUMP JUMPDEST DUP2 ADD SUB SLT PUSH2 0x212 JUMPI MLOAD SWAP3 DUP3 PUSH2 0xF0 JUMP JUMPDEST POP RETURNDATASIZE PUSH2 0x238 JUMP JUMPDEST CALLVALUE PUSH2 0x212 JUMPI PUSH1 0x0 CALLDATASIZE PUSH1 0x3 NOT ADD SLT PUSH2 0x212 JUMPI PUSH1 0x2 SLOAD PUSH1 0x40 MLOAD PUSH1 0x1 PUSH1 0x1 PUSH1 0xA0 SHL SUB SWAP1 SWAP2 AND DUP2 MSTORE PUSH1 0x20 SWAP1 RETURN JUMPDEST CALLVALUE PUSH2 0x212 JUMPI PUSH1 0x60 CALLDATASIZE PUSH1 0x3 NOT ADD SLT PUSH2 0x212 JUMPI PUSH2 0x29B PUSH2 0xB83 JUMP JUMPDEST PUSH1 0x0 SLOAD PUSH1 0x1 PUSH1 0x1 PUSH1 0xA0 SHL SUB SWAP1 PUSH2 0x2B4 SWAP1 DUP3 AND CALLER EQ PUSH2 0xB99 JUMP JUMPDEST PUSH1 0x4 SLOAD PUSH2 0x386 JUMPI PUSH32 0x1C411E9A96E071241C2F21F7726B17AE89E3CAB4C78BE50E062B03A9FFFBBAD1 SWAP2 PUSH1 0x0 PUSH32 0xDDF252AD1BE2C89B69C2B068FC378DAA952BA7F163C4A11628F55A4DF523B3EF PUSH1 0x20 PUSH1 0x3 SLOAD SWAP5 PUSH1 0x1 PUSH1 0x1 PUSH1 0x70 SHL SUB SWAP6 PUSH1 0x1 PUSH1 0x1 PUSH1 0x70 SHL SUB PUSH1 0x70 SHL PUSH1 0x44 CALLDATALOAD PUSH1 0x70 SHL AND SWAP1 DUP8 PUSH1 0x24 CALLDATALOAD AND SWAP1 PUSH4 0xFFFFFFFF PUSH1 0xE0 SHL AND OR OR PUSH1 0x3 SSTORE PUSH9 0x3635C9ADC5DEA00000 SWAP5 DUP6 PUSH1 0x4 SSTORE AND SWAP4 DUP5 DUP5 MSTORE PUSH1 0x5 DUP3 MSTORE DUP1 PUSH1 0x40 DUP6 KECCAK256 SSTORE PUSH1 0x40 MLOAD SWAP1 DUP2 MSTORE LOG3 PUSH1 0x3 SLOAD PUSH1 0x40 DUP1 MLOAD PUSH1 0x1 PUSH1 0x1 PUSH1 0x70 SHL SUB DUP5 DUP5 AND DUP2 AND DUP3 MSTORE PUSH1 0x70 SWAP4 SWAP1 SWAP4 SHR SWAP1 SWAP4 AND SWAP1 SWAP2 AND PUSH1 0x20 DUP4 ADD MSTORE SWAP1 LOG1 STOP JUMPDEST PUSH1 0x40 MLOAD PUSH3 0x461BCD PUSH1 0xE5 SHL DUP2 MSTORE PUSH1 0x20 PUSH1 0x4 DUP3 ADD MSTORE PUSH1 0x17 PUSH1 0x24 DUP3 ADD MSTORE PUSH32 0x4B6F7274616E613A20414C52454144595F534545444544000000000000000000 PUSH1 0x44 DUP3 ADD MSTORE PUSH1 0x64 SWAP1 REVERT JUMPDEST CALLVALUE PUSH2 0x212 JUMPI PUSH1 0x0 CALLDATASIZE PUSH1 0x3 NOT ADD SLT PUSH2 0x212 JUMPI PUSH1 0x0 SLOAD PUSH1 0x40 MLOAD PUSH1 0x1 PUSH1 0x1 PUSH1 0xA0 SHL SUB SWAP1 SWAP2 AND DUP2 MSTORE PUSH1 0x20 SWAP1 RETURN JUMPDEST CALLVALUE PUSH2 0x212 JUMPI PUSH1 0x20 CALLDATASIZE PUSH1 0x3 NOT ADD SLT PUSH2 0x212 JUMPI PUSH1 0x1 PUSH1 0x1 PUSH1 0xA0 SHL SUB PUSH2 0x415 PUSH2 0xB83 JUMP JUMPDEST AND PUSH1 0x0 MSTORE PUSH1 0x5 PUSH1 0x20 MSTORE PUSH1 0x20 PUSH1 0x40 PUSH1 0x0 KECCAK256 SLOAD PUSH1 0x40 MLOAD SWAP1 DUP2 MSTORE RETURN JUMPDEST CALLVALUE PUSH2 0x212 JUMPI PUSH1 0x40 CALLDATASIZE PUSH1 0x3 NOT ADD SLT PUSH2 0x212 JUMPI PUSH2 0x447 PUSH2 0xB83 JUMP JUMPDEST PUSH1 0x24 CALLDATALOAD PUSH1 0x1 PUSH1 0x1 PUSH1 0xA0 SHL SUB DUP2 DUP2 AND SWAP3 SWAP2 DUP4 SWAP1 SUB PUSH2 0x212 JUMPI PUSH2 0x46D DUP2 PUSH1 0x0 SLOAD AND CALLER EQ PUSH2 0xB99 JUMP JUMPDEST PUSH12 0xFFFFFFFFFFFFFFFFFFFFFFFF PUSH1 0xA0 SHL SWAP2 AND DUP2 PUSH1 0x1 SLOAD AND OR PUSH1 0x1 SSTORE PUSH1 0x2 SLOAD AND OR PUSH1 0x2 SSTORE PUSH1 0x0 DUP1 RETURN JUMPDEST CALLVALUE PUSH2 0x212 JUMPI PUSH1 0x0 CALLDATASIZE PUSH1 0x3 NOT ADD SLT PUSH2 0x212 JUMPI PUSH1 0x20 PUSH1 0x4 SLOAD PUSH1 0x40 MLOAD SWAP1 DUP2 MSTORE RETURN JUMPDEST CALLVALUE PUSH2 0x212 JUMPI PUSH1 0x0 CALLDATASIZE PUSH1 0x3 NOT ADD SLT PUSH2 0x212 JUMPI PUSH1 0x1 SLOAD PUSH1 0x40 MLOAD PUSH1 0x1 PUSH1 0x1 PUSH1 0xA0 SHL SUB SWAP1 SWAP2 AND DUP2 MSTORE PUSH1 0x20 SWAP1 RETURN JUMPDEST CALLVALUE PUSH2 0x212 JUMPI PUSH1 0x0 CALLDATASIZE PUSH1 0x3 NOT ADD SLT PUSH2 0x212 JUMPI PUSH1 0x60 PUSH4 0xFFFFFFFF PUSH2 0x513 PUSH1 0x3 SLOAD PUSH1 0x1 PUSH1 0x1 PUSH1 0x70 SHL SUB SWAP2 DUP3 DUP3 AND SWAP3 DUP3 PUSH1 0x70 SHR AND SWAP2 PUSH1 0xE0 SHR SWAP1 JUMP JUMPDEST SWAP1 SWAP3 SWAP2 PUSH1 0x40 MLOAD SWAP4 PUSH1 0x1 PUSH1 0x1 PUSH1 0x70 SHL SUB DUP1 SWAP3 AND DUP6 MSTORE AND PUSH1 0x20 DUP5 ADD MSTORE AND PUSH1 0x40 DUP3 ADD MSTORE RETURN JUMPDEST CALLVALUE PUSH2 0x212 JUMPI PUSH1 0x80 CALLDATASIZE PUSH1 0x3 NOT ADD SLT PUSH2 0x212 JUMPI PUSH1 0x44 CALLDATALOAD PUSH1 0x1 PUSH1 0x1 PUSH1 0xA0 SHL SUB DUP2 DUP2 AND SWAP2 DUP3 DUP2 SUB PUSH2 0x212 JUMPI PUSH1 0x64 CALLDATALOAD PUSH8 0xFFFFFFFFFFFFFFFF DUP1 DUP3 GT PUSH2 0x212 JUMPI CALLDATASIZE PUSH1 0x23 DUP4 ADD SLT ISZERO PUSH2 0x212 JUMPI DUP2 PUSH1 0x4 ADD CALLDATALOAD SWAP1 DUP2 GT PUSH2 0x212 JUMPI CALLDATASIZE SWAP2 ADD PUSH1 0x24 ADD GT PUSH2 0x212 JUMPI PUSH2 0x59F PUSH1 0x1 PUSH1 0x6 SLOAD EQ PUSH2 0xBDA JUMP JUMPDEST PUSH1 0x0 PUSH1 0x6 SSTORE PUSH1 0x4 CALLDATALOAD ISZERO DUP1 ISZERO DUP1 SWAP2 PUSH2 0xB78 JUMPI JUMPDEST ISZERO PUSH2 0xB27 JUMPI PUSH2 0x5D5 PUSH1 0x3 SLOAD PUSH1 0x1 PUSH1 0x1 PUSH1 0x70 SHL SUB SWAP2 DUP3 DUP3 AND SWAP3 DUP3 PUSH1 0x70 SHR AND SWAP2 PUSH1 0xE0 SHR SWAP1 JUMP JUMPDEST POP SWAP4 SWAP1 SWAP3 PUSH1 0x1 PUSH1 0x1 PUSH1 0x70 SHL SUB DUP5 AND PUSH1 0x4 CALLDATALOAD LT DUP1 PUSH2 0xB13 JUMPI JUMPDEST ISZERO PUSH2 0xACE JUMPI DUP2 PUSH1 0x1 SLOAD AND SWAP2 PUSH1 0x2 SLOAD AND SWAP3 DUP3 DUP8 EQ ISZERO DUP1 PUSH2 0xAC4 JUMPI JUMPDEST ISZERO PUSH2 0xA89 JUMPI PUSH2 0xA29 JUMPI JUMPDEST PUSH1 0x24 CALLDATALOAD PUSH2 0x9BF JUMPI JUMPDEST POP PUSH1 0x40 MLOAD SWAP1 PUSH1 0x20 DUP3 PUSH1 0x24 DUP2 PUSH4 0x70A08231 PUSH1 0xE0 SHL SWAP5 DUP6 DUP3 MSTORE ADDRESS PUSH1 0x4 DUP4 ADD MSTORE GAS STATICCALL SWAP2 DUP3 ISZERO PUSH2 0x21E JUMPI PUSH1 0x0 SWAP3 PUSH2 0x98A JUMPI JUMPDEST POP PUSH1 0x20 SWAP1 PUSH1 0x24 PUSH1 0x40 MLOAD DUP1 SWAP6 DUP2 SWAP4 DUP3 MSTORE ADDRESS PUSH1 0x4 DUP4 ADD MSTORE GAS STATICCALL SWAP2 DUP3 ISZERO PUSH2 0x21E JUMPI PUSH1 0x0 SWAP3 PUSH2 0x956 JUMPI JUMPDEST POP PUSH2 0x683 PUSH1 0x4 CALLDATALOAD PUSH1 0x1 PUSH1 0x1 PUSH1 0x70 SHL SUB DUP6 AND PUSH2 0xC68 JUMP JUMPDEST DUP2 GT ISZERO PUSH2 0x94E JUMPI PUSH2 0x6A8 PUSH2 0x6A2 PUSH1 0x4 CALLDATALOAD PUSH1 0x1 PUSH1 0x1 PUSH1 0x70 SHL SUB DUP7 AND PUSH2 0xC68 JUMP JUMPDEST DUP3 PUSH2 0xC68 JUMP JUMPDEST SWAP4 JUMPDEST PUSH2 0x6BF PUSH1 0x24 CALLDATALOAD PUSH1 0x1 PUSH1 0x1 PUSH1 0x70 SHL SUB DUP4 AND PUSH2 0xC68 JUMP JUMPDEST DUP4 GT ISZERO PUSH2 0x946 JUMPI PUSH2 0x6E4 PUSH2 0x6DE PUSH1 0x24 CALLDATALOAD PUSH1 0x1 PUSH1 0x1 PUSH1 0x70 SHL SUB DUP5 AND PUSH2 0xC68 JUMP JUMPDEST DUP5 PUSH2 0xC68 JUMP JUMPDEST SWAP4 JUMPDEST DUP6 ISZERO ISZERO DUP7 ISZERO PUSH2 0x93D JUMPI JUMPDEST ISZERO PUSH2 0x8ED JUMPI DUP3 PUSH2 0x3E8 DUP2 MUL DIV PUSH2 0x3E8 EQ DUP4 ISZERO OR ISZERO PUSH2 0x8D7 JUMPI PUSH1 0x3 DUP7 MUL DUP7 DUP2 DIV PUSH1 0x3 EQ DUP8 ISZERO OR ISZERO PUSH2 0x8D7 JUMPI PUSH2 0x728 SWAP1 PUSH2 0x3E8 DUP6 MUL PUSH2 0xC68 JUMP JUMPDEST SWAP1 PUSH2 0x3E8 DUP6 MUL SWAP2 DUP6 DUP4 DIV PUSH2 0x3E8 EQ DUP7 ISZERO OR ISZERO PUSH2 0x8D7 JUMPI PUSH1 0x3 DUP8 MUL SWAP3 DUP8 DUP5 DIV PUSH1 0x3 EQ DUP9 ISZERO OR ISZERO PUSH2 0x8D7 JUMPI PUSH2 0x771 PUSH1 0x1 PUSH1 0x1 PUSH1 0x70 SHL SUB SWAP3 PUSH2 0x76B PUSH2 0x77A SWAP7 DUP6 SWAP5 PUSH2 0xC68 JUMP JUMPDEST SWAP1 PUSH2 0xC75 JUMP JUMPDEST SWAP5 AND SWAP2 AND PUSH2 0xC75 JUMP JUMPDEST SWAP1 PUSH3 0xF4240 SWAP2 DUP3 DUP2 MUL SWAP3 DUP2 DUP5 DIV EQ SWAP1 ISZERO OR ISZERO PUSH2 0x8D7 JUMPI LT PUSH2 0x8A5 JUMPI PUSH1 0x1 PUSH1 0x1 PUSH1 0x70 SHL SUB DUP2 GT ISZERO DUP1 PUSH2 0x894 JUMPI JUMPDEST ISZERO PUSH2 0x85B JUMPI PUSH1 0x70 SWAP2 DUP3 SHL PUSH1 0x1 PUSH1 0x70 SHL PUSH1 0x1 PUSH1 0xE0 SHL SUB AND PUSH1 0x1 PUSH1 0x1 PUSH1 0x70 SHL SUB SWAP2 DUP3 AND SWAP1 DUP2 OR TIMESTAMP PUSH1 0xE0 SHL PUSH1 0x1 PUSH1 0x1 PUSH1 0xE0 SHL SUB NOT AND OR PUSH1 0x3 DUP2 SWAP1 SSTORE PUSH1 0x40 DUP1 MLOAD SWAP3 DUP4 MSTORE SWAP4 SHR SWAP1 SWAP2 AND PUSH1 0x20 DUP3 ADD MSTORE PUSH32 0x1C411E9A96E071241C2F21F7726B17AE89E3CAB4C78BE50E062B03A9FFFBBAD1 SWAP2 SWAP1 LOG1 PUSH1 0x40 MLOAD SWAP2 DUP3 MSTORE PUSH1 0x20 DUP3 ADD MSTORE PUSH1 0x4 CALLDATALOAD PUSH1 0x40 DUP3 ADD MSTORE PUSH1 0x24 CALLDATALOAD PUSH1 0x60 DUP3 ADD MSTORE PUSH32 0xD78AD95FA46C994B6551D0DA85FC275FE613CE37657FB8D5E3D130840159D822 PUSH1 0x80 CALLER SWAP3 LOG3 PUSH1 0x1 PUSH1 0x6 SSTORE STOP JUMPDEST PUSH1 0x40 MLOAD PUSH3 0x461BCD PUSH1 0xE5 SHL DUP2 MSTORE PUSH1 0x20 PUSH1 0x4 DUP3 ADD MSTORE PUSH1 0x11 PUSH1 0x24 DUP3 ADD MSTORE PUSH17 0x4B6F7274616E613A204F564552464C4F57 PUSH1 0x78 SHL PUSH1 0x44 DUP3 ADD MSTORE PUSH1 0x64 SWAP1 REVERT JUMPDEST POP PUSH1 0x1 PUSH1 0x1 PUSH1 0x70 SHL SUB DUP3 GT ISZERO PUSH2 0x7A6 JUMP JUMPDEST PUSH1 0x40 MLOAD PUSH3 0x461BCD PUSH1 0xE5 SHL DUP2 MSTORE PUSH1 0x20 PUSH1 0x4 DUP3 ADD MSTORE PUSH1 0xA PUSH1 0x24 DUP3 ADD MSTORE PUSH10 0x4B6F7274616E613A204B PUSH1 0xB0 SHL PUSH1 0x44 DUP3 ADD MSTORE PUSH1 0x64 SWAP1 REVERT JUMPDEST PUSH4 0x4E487B71 PUSH1 0xE0 SHL PUSH1 0x0 MSTORE PUSH1 0x11 PUSH1 0x4 MSTORE PUSH1 0x24 PUSH1 0x0 REVERT JUMPDEST PUSH1 0x40 MLOAD PUSH3 0x461BCD PUSH1 0xE5 SHL DUP2 MSTORE PUSH1 0x20 PUSH1 0x4 DUP3 ADD MSTORE PUSH1 0x22 PUSH1 0x24 DUP3 ADD MSTORE PUSH32 0x4B6F7274616E613A20494E53554646494349454E545F494E5055545F414D4F55 PUSH1 0x44 DUP3 ADD MSTORE PUSH2 0x1395 PUSH1 0xF2 SHL PUSH1 0x64 DUP3 ADD MSTORE PUSH1 0x84 SWAP1 REVERT JUMPDEST POP DUP5 ISZERO ISZERO PUSH2 0x6F0 JUMP JUMPDEST PUSH1 0x0 SWAP4 PUSH2 0x6E6 JUMP JUMPDEST PUSH1 0x0 SWAP4 PUSH2 0x6AA JUMP JUMPDEST SWAP1 SWAP2 POP PUSH1 0x20 DUP2 RETURNDATASIZE PUSH1 0x20 GT PUSH2 0x982 JUMPI JUMPDEST DUP2 PUSH2 0x972 PUSH1 0x20 SWAP4 DUP4 PUSH2 0xC18 JUMP JUMPDEST DUP2 ADD SUB SLT PUSH2 0x212 JUMPI MLOAD SWAP1 DUP6 PUSH2 0x66D JUMP JUMPDEST RETURNDATASIZE SWAP2 POP PUSH2 0x965 JUMP JUMPDEST SWAP1 SWAP2 POP PUSH1 0x20 DUP2 RETURNDATASIZE PUSH1 0x20 GT PUSH2 0x9B7 JUMPI JUMPDEST DUP2 PUSH2 0x9A6 PUSH1 0x20 SWAP4 DUP4 PUSH2 0xC18 JUMP JUMPDEST DUP2 ADD SUB SLT PUSH2 0x212 JUMPI MLOAD SWAP1 PUSH1 0x20 PUSH2 0x647 JUMP JUMPDEST RETURNDATASIZE SWAP2 POP PUSH2 0x999 JUMP JUMPDEST PUSH1 0x40 MLOAD PUSH4 0xA9059CBB PUSH1 0xE0 SHL DUP2 MSTORE PUSH1 0x1 PUSH1 0x1 PUSH1 0xA0 SHL SUB SWAP2 SWAP1 SWAP2 AND PUSH1 0x4 DUP3 ADD MSTORE PUSH1 0x24 DUP1 CALLDATALOAD SWAP1 DUP3 ADD MSTORE PUSH1 0x20 DUP2 PUSH1 0x44 DUP2 PUSH1 0x0 DUP8 GAS CALL DUP1 ISZERO PUSH2 0x21E JUMPI ISZERO PUSH2 0x619 JUMPI PUSH2 0xA1B SWAP1 PUSH1 0x20 RETURNDATASIZE DUP2 GT PUSH2 0xA22 JUMPI JUMPDEST PUSH2 0xA13 DUP2 DUP4 PUSH2 0xC18 JUMP JUMPDEST DUP2 ADD SWAP1 PUSH2 0xC50 JUMP JUMPDEST POP DUP6 PUSH2 0x619 JUMP JUMPDEST POP RETURNDATASIZE PUSH2 0xA09 JUMP JUMPDEST PUSH1 0x40 MLOAD PUSH4 0xA9059CBB PUSH1 0xE0 SHL DUP2 MSTORE PUSH1 0x1 PUSH1 0x1 PUSH1 0xA0 SHL SUB DUP3 AND PUSH1 0x4 DUP1 DUP4 ADD SWAP2 SWAP1 SWAP2 MSTORE CALLDATALOAD PUSH1 0x24 DUP3 ADD MSTORE PUSH1 0x20 DUP2 PUSH1 0x44 DUP2 PUSH1 0x0 DUP8 GAS CALL DUP1 ISZERO PUSH2 0x21E JUMPI PUSH2 0xA6B JUMPI JUMPDEST POP PUSH2 0x611 JUMP JUMPDEST PUSH2 0xA82 SWAP1 PUSH1 0x20 RETURNDATASIZE DUP2 GT PUSH2 0xA22 JUMPI PUSH2 0xA13 DUP2 DUP4 PUSH2 0xC18 JUMP JUMPDEST POP DUP7 PUSH2 0xA65 JUMP JUMPDEST PUSH1 0x40 MLOAD PUSH3 0x461BCD PUSH1 0xE5 SHL DUP2 MSTORE PUSH1 0x20 PUSH1 0x4 DUP3 ADD MSTORE PUSH1 0x13 PUSH1 0x24 DUP3 ADD MSTORE PUSH19 0x4B6F7274616E613A20494E56414C49445F544F PUSH1 0x68 SHL PUSH1 0x44 DUP3 ADD MSTORE PUSH1 0x64 SWAP1 REVERT JUMPDEST POP DUP4 DUP8 EQ ISZERO PUSH2 0x607 JUMP JUMPDEST PUSH1 0x40 MLOAD PUSH3 0x461BCD PUSH1 0xE5 SHL DUP2 MSTORE PUSH1 0x20 PUSH1 0x4 DUP3 ADD MSTORE PUSH1 0x1F PUSH1 0x24 DUP3 ADD MSTORE PUSH32 0x4B6F7274616E613A20494E53554646494349454E545F4C495155494449545900 PUSH1 0x44 DUP3 ADD MSTORE PUSH1 0x64 SWAP1 REVERT JUMPDEST POP PUSH1 0x1 PUSH1 0x1 PUSH1 0x70 SHL SUB DUP6 AND PUSH1 0x24 CALLDATALOAD LT PUSH2 0x5ED JUMP JUMPDEST PUSH1 0x40 MLOAD PUSH3 0x461BCD PUSH1 0xE5 SHL DUP2 MSTORE PUSH1 0x20 PUSH1 0x4 DUP3 ADD MSTORE PUSH1 0x23 PUSH1 0x24 DUP3 ADD MSTORE PUSH32 0x4B6F7274616E613A20494E53554646494349454E545F4F55545055545F414D4F PUSH1 0x44 DUP3 ADD MSTORE PUSH3 0x155395 PUSH1 0xEA SHL PUSH1 0x64 DUP3 ADD MSTORE PUSH1 0x84 SWAP1 REVERT JUMPDEST POP PUSH1 0x24 CALLDATALOAD ISZERO ISZERO PUSH2 0x5B1 JUMP JUMPDEST PUSH1 0x4 CALLDATALOAD SWAP1 PUSH1 0x1 PUSH1 0x1 PUSH1 0xA0 SHL SUB DUP3 AND DUP3 SUB PUSH2 0x212 JUMPI JUMP JUMPDEST ISZERO PUSH2 0xBA0 JUMPI JUMP JUMPDEST PUSH1 0x40 MLOAD PUSH3 0x461BCD PUSH1 0xE5 SHL DUP2 MSTORE PUSH1 0x20 PUSH1 0x4 DUP3 ADD MSTORE PUSH1 0x12 PUSH1 0x24 DUP3 ADD MSTORE PUSH18 0x25B7B93A30B7309D102327A92124A22222A7 PUSH1 0x71 SHL PUSH1 0x44 DUP3 ADD MSTORE PUSH1 0x64 SWAP1 REVERT JUMPDEST ISZERO PUSH2 0xBE1 JUMPI JUMP JUMPDEST PUSH1 0x40 MLOAD PUSH3 0x461BCD PUSH1 0xE5 SHL DUP2 MSTORE PUSH1 0x20 PUSH1 0x4 DUP3 ADD MSTORE PUSH1 0xF PUSH1 0x24 DUP3 ADD MSTORE PUSH15 0x12DBDC9D185B984E881313D0D2D151 PUSH1 0x8A SHL PUSH1 0x44 DUP3 ADD MSTORE PUSH1 0x64 SWAP1 REVERT JUMPDEST SWAP1 PUSH1 0x1F DUP1 NOT SWAP2 ADD AND DUP2 ADD SWAP1 DUP2 LT PUSH8 0xFFFFFFFFFFFFFFFF DUP3 GT OR PUSH2 0xC3A JUMPI PUSH1 0x40 MSTORE JUMP JUMPDEST PUSH4 0x4E487B71 PUSH1 0xE0 SHL PUSH1 0x0 MSTORE PUSH1 0x41 PUSH1 0x4 MSTORE PUSH1 0x24 PUSH1 0x0 REVERT JUMPDEST SWAP1 DUP2 PUSH1 0x20 SWAP2 SUB SLT PUSH2 0x212 JUMPI MLOAD DUP1 ISZERO ISZERO DUP2 SUB PUSH2 0x212 JUMPI SWAP1 JUMP JUMPDEST SWAP2 SWAP1 DUP3 SUB SWAP2 DUP3 GT PUSH2 0x8D7 JUMPI JUMP JUMPDEST DUP2 DUP2 MUL SWAP3 SWAP2 DUP2 ISZERO SWAP2 DUP5 DIV EQ OR ISZERO PUSH2 0x8D7 JUMPI JUMP INVALID LOG2 PUSH5 0x6970667358 0x22 SLT KECCAK256 0x5E DUP11 PUSH27 0xDC7C82B43920A527F55E2E1B5D8DA6B32866ED27820AAAF38626ED SWAP3 0xAD PUSH5 0x736F6C6343 STOP ADDMOD EQ STOP CALLER "},"methodIdentifiers":{"balanceOf(address)":"70a08231","factory()":"c45a0155","genesisMint(address,uint256,uint256)":"ca63208c","getReserves()":"0902f1ac","initialize(address,address)":"485cc955","swap(uint256,uint256,address,bytes)":"022c0d9f","sync()":"fff6cae9","token0()":"0dfe1681","token1()":"d21220a7","totalSupply()":"18160ddd"}},"storageLayout":{"storage":[{"astId":3963,"contract":"contracts/amm/KortanaPair.sol:KortanaPair","label":"factory","offset":0,"slot":"0","type":"t_address"},{"astId":3965,"contract":"contracts/amm/KortanaPair.sol:KortanaPair","label":"token0","offset":0,"slot":"1","type":"t_address"},{"astId":3967,"contract":"contracts/amm/KortanaPair.sol:KortanaPair","label":"token1","offset":0,"slot":"2","type":"t_address"},{"astId":3969,"contract":"contracts/amm/KortanaPair.sol:KortanaPair","label":"reserve0","offset":0,"slot":"3","type":"t_uint112"},{"astId":3971,"contract":"contracts/amm/KortanaPair.sol:KortanaPair","label":"reserve1","offset":14,"slot":"3","type":"t_uint112"},{"astId":3973,"contract":"contracts/amm/KortanaPair.sol:KortanaPair","label":"blockTimestampLast","offset":28,"slot":"3","type":"t_uint32"},{"astId":3975,"contract":"contracts/amm/KortanaPair.sol:KortanaPair","label":"totalSupply","offset":0,"slot":"4","type":"t_uint256"},{"astId":3979,"contract":"contracts/amm/KortanaPair.sol:KortanaPair","label":"balanceOf","offset":0,"slot":"5","type":"t_mapping(t_address,t_uint256)"},{"astId":4010,"contract":"contracts/amm/KortanaPair.sol:KortanaPair","label":"unlocked","offset":0,"slot":"6","type":"t_uint256"}],"types":{"t_address":{"encoding":"inplace","label":"address","numberOfBytes":"20"},"t_mapping(t_address,t_uint256)":{"encoding":"mapping","key":"t_address","label":"mapping(address => uint256)","numberOfBytes":"32","value":"t_uint256"},"t_uint112":{"encoding":"inplace","label":"uint112","numberOfBytes":"14"},"t_uint256":{"encoding":"inplace","label":"uint256","numberOfBytes":"32"},"t_uint32":{"encoding":"inplace","label":"uint32","numberOfBytes":"4"}}}}}}