{"contracts/bridge/KortanaBridgeSource.sol":{"KortanaBridgeSource":{"abi":[{"inputs":[],"stateMutability":"nonpayable","type":"constructor"},{"anonymous":false,"inputs":[{"indexed":true,"internalType":"address","name":"previousOwner","type":"address"},{"indexed":true,"internalType":"address","name":"newOwner","type":"address"}],"name":"OwnershipTransferred","type":"event"},{"anonymous":false,"inputs":[{"indexed":false,"internalType":"address","name":"account","type":"address"}],"name":"Paused","type":"event"},{"anonymous":false,"inputs":[{"indexed":true,"internalType":"address","name":"token","type":"address"},{"indexed":true,"internalType":"address","name":"sender","type":"address"},{"indexed":false,"internalType":"uint256","name":"amount","type":"uint256"},{"indexed":false,"internalType":"uint256","name":"destChainId","type":"uint256"},{"indexed":false,"internalType":"address","name":"destAddress","type":"address"},{"indexed":false,"internalType":"uint256","name":"nonce","type":"uint256"},{"indexed":false,"internalType":"bytes32","name":"txId","type":"bytes32"}],"name":"TokensLocked","type":"event"},{"anonymous":false,"inputs":[{"indexed":true,"internalType":"address","name":"token","type":"address"},{"indexed":true,"internalType":"address","name":"recipient","type":"address"},{"indexed":false,"internalType":"uint256","name":"amount","type":"uint256"},{"indexed":false,"internalType":"bytes32","name":"sourceTxId","type":"bytes32"}],"name":"TokensReleased","type":"event"},{"anonymous":false,"inputs":[{"indexed":false,"internalType":"address","name":"account","type":"address"}],"name":"Unpaused","type":"event"},{"inputs":[{"internalType":"address","name":"relayer","type":"address"}],"name":"addRelayer","outputs":[],"stateMutability":"nonpayable","type":"function"},{"inputs":[{"internalType":"address","name":"token","type":"address"}],"name":"addSupportedToken","outputs":[],"stateMutability":"nonpayable","type":"function"},{"inputs":[],"name":"bridgeFee","outputs":[{"internalType":"uint256","name":"","type":"uint256"}],"stateMutability":"view","type":"function"},{"inputs":[{"internalType":"address","name":"token","type":"address"},{"internalType":"uint256","name":"amount","type":"uint256"},{"internalType":"uint256","name":"destChainId","type":"uint256"},{"internalType":"address","name":"destAddress","type":"address"}],"name":"lockTokens","outputs":[],"stateMutability":"payable","type":"function"},{"inputs":[],"name":"nonce","outputs":[{"internalType":"uint256","name":"","type":"uint256"}],"stateMutability":"view","type":"function"},{"inputs":[],"name":"owner","outputs":[{"internalType":"address","name":"","type":"address"}],"stateMutability":"view","type":"function"},{"inputs":[],"name":"pause","outputs":[],"stateMutability":"nonpayable","type":"function"},{"inputs":[],"name":"paused","outputs":[{"internalType":"bool","name":"","type":"bool"}],"stateMutability":"view","type":"function"},{"inputs":[{"internalType":"bytes32","name":"","type":"bytes32"}],"name":"processedTxIds","outputs":[{"internalType":"bool","name":"","type":"bool"}],"stateMutability":"view","type":"function"},{"inputs":[{"internalType":"address","name":"","type":"address"}],"name":"relayers","outputs":[{"internalType":"bool","name":"","type":"bool"}],"stateMutability":"view","type":"function"},{"inputs":[{"internalType":"address","name":"token","type":"address"},{"internalType":"address","name":"recipient","type":"address"},{"internalType":"uint256","name":"amount","type":"uint256"},{"internalType":"bytes32","name":"sourceTxId","type":"bytes32"}],"name":"releaseTokens","outputs":[],"stateMutability":"nonpayable","type":"function"},{"inputs":[{"internalType":"address","name":"relayer","type":"address"}],"name":"removeRelayer","outputs":[],"stateMutability":"nonpayable","type":"function"},{"inputs":[{"internalType":"address","name":"token","type":"address"}],"name":"removeSupportedToken","outputs":[],"stateMutability":"nonpayable","type":"function"},{"inputs":[],"name":"renounceOwnership","outputs":[],"stateMutability":"nonpayable","type":"function"},{"inputs":[{"internalType":"uint256","name":"fee","type":"uint256"}],"name":"setBridgeFee","outputs":[],"stateMutability":"nonpayable","type":"function"},{"inputs":[{"internalType":"address","name":"","type":"address"}],"name":"supportedTokens","outputs":[{"internalType":"bool","name":"","type":"bool"}],"stateMutability":"view","type":"function"},{"inputs":[{"internalType":"address","name":"newOwner","type":"address"}],"name":"transferOwnership","outputs":[],"stateMutability":"nonpayable","type":"function"},{"inputs":[],"name":"unpause","outputs":[],"stateMutability":"nonpayable","type":"function"},{"inputs":[],"name":"withdrawFees","outputs":[],"stateMutability":"nonpayable","type":"function"}],"evm":{"bytecode":{"linkReferences":{},"object":"608080604052346100745760008054336001600160a01b0319821681178355916001600160a01b03909116907f8be0079c531659141344cd1fd0a4f28419497f9722a3daafe3b4186f6b6457e09080a36001805560ff196002541660025566038d7ea4c68000600755610bfe908161007a8239f35b600080fdfe6040608081526004908136101561001557600080fd5b600091823560e01c80630aa393f3146107f7578063176fbebe146105b05780633f4ba83a1461051b5780634379caa5146104f0578063476343ee146104a15780635300f841146104635780635c975abb1461043f57806360f0a5ac146103ff57806368c4ac26146103c15780636d69fcaf1461037e578063715018a61461032157806376319190146102e157806382b12dd7146102c25780638456cb59146102675780638da5cb5b1461023f578063998cdf831461021d578063affed0e0146101fe578063dd39f00d146101b75763f2fde38b146100f257600080fd5b346101b35760203660031901126101b35761010b610a6b565b90610114610a86565b6001600160a01b0391821692831561016157505082546001600160a01b0319811683178455167f8be0079c531659141344cd1fd0a4f28419497f9722a3daafe3b4186f6b6457e08380a380f35b906020608492519162461bcd60e51b8352820152602660248201527f4f776e61626c653a206e6577206f776e657220697320746865207a65726f206160448201526564647265737360d01b6064820152fd5b8280fd5b5050346101fa5760203660031901126101fa576101d2610a6b565b6101da610a86565b6001600160a01b0316825260056020528120805460ff1916600117905580f35b5080fd5b5050346101fa57816003193601126101fa576020906006549051908152f35b8382346101fa5760203660031901126101fa57610238610a86565b3560075580f35b5050346101fa57816003193601126101fa57905490516001600160a01b039091168152602090f35b5050346101fa57816003193601126101fa5760207f62e78cea01bee320cd4e420270b5ea74000d11b0c9f74754ebdbfc544b05a258916102a5610a86565b6102ad610b2e565b600160ff19600254161760025551338152a180f35b5050346101fa57816003193601126101fa576020906007549051908152f35b5050346101fa5760203660031901126101fa576102fc610a6b565b610304610a86565b6001600160a01b0316825260036020528120805460ff1916905580f35b833461037b578060031936011261037b5761033a610a86565b80546001600160a01b03198116825581906001600160a01b03167f8be0079c531659141344cd1fd0a4f28419497f9722a3daafe3b4186f6b6457e08280a380f35b80fd5b5050346101fa5760203660031901126101fa57610399610a6b565b6103a1610a86565b6001600160a01b0316825260036020528120805460ff1916600117905580f35b5050346101fa5760203660031901126101fa5760209160ff9082906001600160a01b036103ec610a6b565b1681526003855220541690519015158152f35b5050346101fa5760203660031901126101fa5761041a610a6b565b610422610a86565b6001600160a01b0316825260056020528120805460ff1916905580f35b5050346101fa57816003193601126101fa5760209060ff6002541690519015158152f35b5050346101fa5760203660031901126101fa5760209160ff9082906001600160a01b0361048e610a6b565b1681526005855220541690519015158152f35b5050346101fa57816003193601126101fa576104bb610a86565b8180808060018060a01b0381541647908282156104e7575bf1156104dd575080f35b51903d90823e3d90fd5b506108fc6104d3565b50346101b35760203660031901126101b357816020938260ff93358252855220541690519015158152f35b50346101b357826003193601126101b357610534610a86565b6002549060ff821615610576575060ff1916600255513381527f5db9ee0a495bf2e6ff9c91a7834c1ba4fdd244a5e8aa4e537bd38aeae4b073aa90602090a180f35b606490602084519162461bcd60e51b8352820152601460248201527314185d5cd8589b194e881b9bdd081c185d5cd95960621b6044820152fd5b5090346101b35760803660031901126101b3576105cb610a6b565b602480356001600160a01b03818116949293918590036107f35760443591606435913389526020916005835260ff868b205416156107bb5761060b610b72565b838a5288835260ff868b20541661077957169484516370a0823160e01b81523089820152828183818a5afa90811561076f579085918b9161073a575b50106106f957828952878252848920805460ff19166001179055845163a9059cbb60e01b8152978801879052870183905280876044818b895af19687156106ef577f1e5eb88da4c5640069086640cf1ee35507a9bf098f2a62175952f603c58f18ce9596976106c2575b508351928352820152a36001805580f35b6106e190823d84116106e8575b6106d98183610ade565b810190610b16565b50386106b1565b503d6106cf565b84513d8a823e3d90fd5b601d889160649387519362461bcd60e51b85528401528201527f4252494447453a20494e53554646494349454e545f52455345525645530000006044820152fd5b809250848092503d8311610768575b6107538183610ade565b810103126107645784905138610647565b8980fd5b503d610749565b86513d8c823e3d90fd5b855162461bcd60e51b8152808a01849052601c818901527f4252494447453a2054585f414c52454144595f50524f434553534544000000006044820152606490fd5b855162461bcd60e51b8152808a0184905260138189015272212924a223a29d102727aa2fa922a620aca2a960691b6044820152606490fd5b8680fd5b50829060803660031901126101fa5761080e610a6b565b6024936064359291604435908635906001600160a01b0380871690818803610a6757610838610b72565b610840610b2e565b8216938489526020926003845260ff878b20541615610a255784156109ed5760075434106109ab5786516323b872dd60e01b815233818a015230818d01526044810186905284816064818e8b5af180156109a157610984575b506006549887519485019146835283898701523360601b60608701526bffffffffffffffffffffffff19809260601b16607487015260601b16608885015284609c8501528860bc85015260bc845260e084019684881067ffffffffffffffff89111761097257879052835190209386526101008301526101208201526101408101869052610160015233917fea309eca55540976ac3744b96cd9f94f015fa63a684acf8341ce91a603e1115d9060a090a3600019821461096157506001016006556001805580f35b634e487b7160e01b83526011905250fd5b634e487b7160e01b8b52604189528b8bfd5b61099a90853d87116106e8576106d98183610ade565b508b610899565b88513d8d823e3d90fd5b865162461bcd60e51b81528089018590526018818d01527f4252494447453a20494e53554646494349454e545f46454500000000000000006044820152606490fd5b865162461bcd60e51b81528089018590526013818d0152721094925111d14e8816915493d7d05353d55395606a1b6044820152606490fd5b865162461bcd60e51b8152808901859052601b818d01527f4252494447453a20544f4b454e5f4e4f545f535550504f5254454400000000006044820152606490fd5b8880fd5b600435906001600160a01b0382168203610a8157565b600080fd5b6000546001600160a01b03163303610a9a57565b606460405162461bcd60e51b815260206004820152602060248201527f4f776e61626c653a2063616c6c6572206973206e6f7420746865206f776e65726044820152fd5b90601f8019910116810190811067ffffffffffffffff821117610b0057604052565b634e487b7160e01b600052604160045260246000fd5b90816020910312610a8157518015158103610a815790565b60ff60025416610b3a57565b60405162461bcd60e51b815260206004820152601060248201526f14185d5cd8589b194e881c185d5cd95960821b6044820152606490fd5b600260015414610b83576002600155565b60405162461bcd60e51b815260206004820152601f60248201527f5265656e7472616e637947756172643a207265656e7472616e742063616c6c006044820152606490fdfea26469706673582212207006aadf36d9beec92d55ea003cb843085271bedad73f43619f9dc4fcf6436cf64736f6c63430008140033","opcodes":"PUSH1 0x80 DUP1 PUSH1 0x40 MSTORE CALLVALUE PUSH2 0x74 JUMPI PUSH1 0x0 DUP1 SLOAD CALLER PUSH1 0x1 PUSH1 0x1 PUSH1 0xA0 SHL SUB NOT DUP3 AND DUP2 OR DUP4 SSTORE SWAP2 PUSH1 0x1 PUSH1 0x1 PUSH1 0xA0 SHL SUB SWAP1 SWAP2 AND SWAP1 PUSH32 0x8BE0079C531659141344CD1FD0A4F28419497F9722A3DAAFE3B4186F6B6457E0 SWAP1 DUP1 LOG3 PUSH1 0x1 DUP1 SSTORE PUSH1 0xFF NOT PUSH1 0x2 SLOAD AND PUSH1 0x2 SSTORE PUSH7 0x38D7EA4C68000 PUSH1 0x7 SSTORE PUSH2 0xBFE SWAP1 DUP2 PUSH2 0x7A DUP3 CODECOPY RETURN JUMPDEST PUSH1 0x0 DUP1 REVERT INVALID PUSH1 0x40 PUSH1 0x80 DUP2 MSTORE PUSH1 0x4 SWAP1 DUP2 CALLDATASIZE LT ISZERO PUSH2 0x15 JUMPI PUSH1 0x0 DUP1 REVERT JUMPDEST PUSH1 0x0 SWAP2 DUP3 CALLDATALOAD PUSH1 0xE0 SHR DUP1 PUSH4 0xAA393F3 EQ PUSH2 0x7F7 JUMPI DUP1 PUSH4 0x176FBEBE EQ PUSH2 0x5B0 JUMPI DUP1 PUSH4 0x3F4BA83A EQ PUSH2 0x51B JUMPI DUP1 PUSH4 0x4379CAA5 EQ PUSH2 0x4F0 JUMPI DUP1 PUSH4 0x476343EE EQ PUSH2 0x4A1 JUMPI DUP1 PUSH4 0x5300F841 EQ PUSH2 0x463 JUMPI DUP1 PUSH4 0x5C975ABB EQ PUSH2 0x43F JUMPI DUP1 PUSH4 0x60F0A5AC EQ PUSH2 0x3FF JUMPI DUP1 PUSH4 0x68C4AC26 EQ PUSH2 0x3C1 JUMPI DUP1 PUSH4 0x6D69FCAF EQ PUSH2 0x37E JUMPI DUP1 PUSH4 0x715018A6 EQ PUSH2 0x321 JUMPI DUP1 PUSH4 0x76319190 EQ PUSH2 0x2E1 JUMPI DUP1 PUSH4 0x82B12DD7 EQ PUSH2 0x2C2 JUMPI DUP1 PUSH4 0x8456CB59 EQ PUSH2 0x267 JUMPI DUP1 PUSH4 0x8DA5CB5B EQ PUSH2 0x23F JUMPI DUP1 PUSH4 0x998CDF83 EQ PUSH2 0x21D JUMPI DUP1 PUSH4 0xAFFED0E0 EQ PUSH2 0x1FE JUMPI DUP1 PUSH4 0xDD39F00D EQ PUSH2 0x1B7 JUMPI PUSH4 0xF2FDE38B EQ PUSH2 0xF2 JUMPI PUSH1 0x0 DUP1 REVERT JUMPDEST CALLVALUE PUSH2 0x1B3 JUMPI PUSH1 0x20 CALLDATASIZE PUSH1 0x3 NOT ADD SLT PUSH2 0x1B3 JUMPI PUSH2 0x10B PUSH2 0xA6B JUMP JUMPDEST SWAP1 PUSH2 0x114 PUSH2 0xA86 JUMP JUMPDEST PUSH1 0x1 PUSH1 0x1 PUSH1 0xA0 SHL SUB SWAP2 DUP3 AND SWAP3 DUP4 ISZERO PUSH2 0x161 JUMPI POP POP DUP3 SLOAD PUSH1 0x1 PUSH1 0x1 PUSH1 0xA0 SHL SUB NOT DUP2 AND DUP4 OR DUP5 SSTORE AND PUSH32 0x8BE0079C531659141344CD1FD0A4F28419497F9722A3DAAFE3B4186F6B6457E0 DUP4 DUP1 LOG3 DUP1 RETURN JUMPDEST SWAP1 PUSH1 0x20 PUSH1 0x84 SWAP3 MLOAD SWAP2 PUSH3 0x461BCD PUSH1 0xE5 SHL DUP4 MSTORE DUP3 ADD MSTORE PUSH1 0x26 PUSH1 0x24 DUP3 ADD MSTORE PUSH32 0x4F776E61626C653A206E6577206F776E657220697320746865207A65726F2061 PUSH1 0x44 DUP3 ADD MSTORE PUSH6 0x646472657373 PUSH1 0xD0 SHL PUSH1 0x64 DUP3 ADD MSTORE REVERT JUMPDEST DUP3 DUP1 REVERT JUMPDEST POP POP CALLVALUE PUSH2 0x1FA JUMPI PUSH1 0x20 CALLDATASIZE PUSH1 0x3 NOT ADD SLT PUSH2 0x1FA JUMPI PUSH2 0x1D2 PUSH2 0xA6B JUMP JUMPDEST PUSH2 0x1DA PUSH2 0xA86 JUMP JUMPDEST PUSH1 0x1 PUSH1 0x1 PUSH1 0xA0 SHL SUB AND DUP3 MSTORE PUSH1 0x5 PUSH1 0x20 MSTORE DUP2 KECCAK256 DUP1 SLOAD PUSH1 0xFF NOT AND PUSH1 0x1 OR SWAP1 SSTORE DUP1 RETURN JUMPDEST POP DUP1 REVERT JUMPDEST POP POP CALLVALUE PUSH2 0x1FA JUMPI DUP2 PUSH1 0x3 NOT CALLDATASIZE ADD SLT PUSH2 0x1FA JUMPI PUSH1 0x20 SWAP1 PUSH1 0x6 SLOAD SWAP1 MLOAD SWAP1 DUP2 MSTORE RETURN JUMPDEST DUP4 DUP3 CALLVALUE PUSH2 0x1FA JUMPI PUSH1 0x20 CALLDATASIZE PUSH1 0x3 NOT ADD SLT PUSH2 0x1FA JUMPI PUSH2 0x238 PUSH2 0xA86 JUMP JUMPDEST CALLDATALOAD PUSH1 0x7 SSTORE DUP1 RETURN JUMPDEST POP POP CALLVALUE PUSH2 0x1FA JUMPI DUP2 PUSH1 0x3 NOT CALLDATASIZE ADD SLT PUSH2 0x1FA JUMPI SWAP1 SLOAD SWAP1 MLOAD PUSH1 0x1 PUSH1 0x1 PUSH1 0xA0 SHL SUB SWAP1 SWAP2 AND DUP2 MSTORE PUSH1 0x20 SWAP1 RETURN JUMPDEST POP POP CALLVALUE PUSH2 0x1FA JUMPI DUP2 PUSH1 0x3 NOT CALLDATASIZE ADD SLT PUSH2 0x1FA JUMPI PUSH1 0x20 PUSH32 0x62E78CEA01BEE320CD4E420270B5EA74000D11B0C9F74754EBDBFC544B05A258 SWAP2 PUSH2 0x2A5 PUSH2 0xA86 JUMP JUMPDEST PUSH2 0x2AD PUSH2 0xB2E JUMP JUMPDEST PUSH1 0x1 PUSH1 0xFF NOT PUSH1 0x2 SLOAD AND OR PUSH1 0x2 SSTORE MLOAD CALLER DUP2 MSTORE LOG1 DUP1 RETURN JUMPDEST POP POP CALLVALUE PUSH2 0x1FA JUMPI DUP2 PUSH1 0x3 NOT CALLDATASIZE ADD SLT PUSH2 0x1FA JUMPI PUSH1 0x20 SWAP1 PUSH1 0x7 SLOAD SWAP1 MLOAD SWAP1 DUP2 MSTORE RETURN JUMPDEST POP POP CALLVALUE PUSH2 0x1FA JUMPI PUSH1 0x20 CALLDATASIZE PUSH1 0x3 NOT ADD SLT PUSH2 0x1FA JUMPI PUSH2 0x2FC PUSH2 0xA6B JUMP JUMPDEST PUSH2 0x304 PUSH2 0xA86 JUMP JUMPDEST PUSH1 0x1 PUSH1 0x1 PUSH1 0xA0 SHL SUB AND DUP3 MSTORE PUSH1 0x3 PUSH1 0x20 MSTORE DUP2 KECCAK256 DUP1 SLOAD PUSH1 0xFF NOT AND SWAP1 SSTORE DUP1 RETURN JUMPDEST DUP4 CALLVALUE PUSH2 0x37B JUMPI DUP1 PUSH1 0x3 NOT CALLDATASIZE ADD SLT PUSH2 0x37B JUMPI PUSH2 0x33A PUSH2 0xA86 JUMP JUMPDEST DUP1 SLOAD PUSH1 0x1 PUSH1 0x1 PUSH1 0xA0 SHL SUB NOT DUP2 AND DUP3 SSTORE DUP2 SWAP1 PUSH1 0x1 PUSH1 0x1 PUSH1 0xA0 SHL SUB AND PUSH32 0x8BE0079C531659141344CD1FD0A4F28419497F9722A3DAAFE3B4186F6B6457E0 DUP3 DUP1 LOG3 DUP1 RETURN JUMPDEST DUP1 REVERT JUMPDEST POP POP CALLVALUE PUSH2 0x1FA JUMPI PUSH1 0x20 CALLDATASIZE PUSH1 0x3 NOT ADD SLT PUSH2 0x1FA JUMPI PUSH2 0x399 PUSH2 0xA6B JUMP JUMPDEST PUSH2 0x3A1 PUSH2 0xA86 JUMP JUMPDEST PUSH1 0x1 PUSH1 0x1 PUSH1 0xA0 SHL SUB AND DUP3 MSTORE PUSH1 0x3 PUSH1 0x20 MSTORE DUP2 KECCAK256 DUP1 SLOAD PUSH1 0xFF NOT AND PUSH1 0x1 OR SWAP1 SSTORE DUP1 RETURN JUMPDEST POP POP CALLVALUE PUSH2 0x1FA JUMPI PUSH1 0x20 CALLDATASIZE PUSH1 0x3 NOT ADD SLT PUSH2 0x1FA JUMPI PUSH1 0x20 SWAP2 PUSH1 0xFF SWAP1 DUP3 SWAP1 PUSH1 0x1 PUSH1 0x1 PUSH1 0xA0 SHL SUB PUSH2 0x3EC PUSH2 0xA6B JUMP JUMPDEST AND DUP2 MSTORE PUSH1 0x3 DUP6 MSTORE KECCAK256 SLOAD AND SWAP1 MLOAD SWAP1 ISZERO ISZERO DUP2 MSTORE RETURN JUMPDEST POP POP CALLVALUE PUSH2 0x1FA JUMPI PUSH1 0x20 CALLDATASIZE PUSH1 0x3 NOT ADD SLT PUSH2 0x1FA JUMPI PUSH2 0x41A PUSH2 0xA6B JUMP JUMPDEST PUSH2 0x422 PUSH2 0xA86 JUMP JUMPDEST PUSH1 0x1 PUSH1 0x1 PUSH1 0xA0 SHL SUB AND DUP3 MSTORE PUSH1 0x5 PUSH1 0x20 MSTORE DUP2 KECCAK256 DUP1 SLOAD PUSH1 0xFF NOT AND SWAP1 SSTORE DUP1 RETURN JUMPDEST POP POP CALLVALUE PUSH2 0x1FA JUMPI DUP2 PUSH1 0x3 NOT CALLDATASIZE ADD SLT PUSH2 0x1FA JUMPI PUSH1 0x20 SWAP1 PUSH1 0xFF PUSH1 0x2 SLOAD AND SWAP1 MLOAD SWAP1 ISZERO ISZERO DUP2 MSTORE RETURN JUMPDEST POP POP CALLVALUE PUSH2 0x1FA JUMPI PUSH1 0x20 CALLDATASIZE PUSH1 0x3 NOT ADD SLT PUSH2 0x1FA JUMPI PUSH1 0x20 SWAP2 PUSH1 0xFF SWAP1 DUP3 SWAP1 PUSH1 0x1 PUSH1 0x1 PUSH1 0xA0 SHL SUB PUSH2 0x48E PUSH2 0xA6B JUMP JUMPDEST AND DUP2 MSTORE PUSH1 0x5 DUP6 MSTORE KECCAK256 SLOAD AND SWAP1 MLOAD SWAP1 ISZERO ISZERO DUP2 MSTORE RETURN JUMPDEST POP POP CALLVALUE PUSH2 0x1FA JUMPI DUP2 PUSH1 0x3 NOT CALLDATASIZE ADD SLT PUSH2 0x1FA JUMPI PUSH2 0x4BB PUSH2 0xA86 JUMP JUMPDEST DUP2 DUP1 DUP1 DUP1 PUSH1 0x1 DUP1 PUSH1 0xA0 SHL SUB DUP2 SLOAD AND SELFBALANCE SWAP1 DUP3 DUP3 ISZERO PUSH2 0x4E7 JUMPI JUMPDEST CALL ISZERO PUSH2 0x4DD JUMPI POP DUP1 RETURN JUMPDEST MLOAD SWAP1 RETURNDATASIZE SWAP1 DUP3 RETURNDATACOPY RETURNDATASIZE SWAP1 REVERT JUMPDEST POP PUSH2 0x8FC PUSH2 0x4D3 JUMP JUMPDEST POP CALLVALUE PUSH2 0x1B3 JUMPI PUSH1 0x20 CALLDATASIZE PUSH1 0x3 NOT ADD SLT PUSH2 0x1B3 JUMPI DUP2 PUSH1 0x20 SWAP4 DUP3 PUSH1 0xFF SWAP4 CALLDATALOAD DUP3 MSTORE DUP6 MSTORE KECCAK256 SLOAD AND SWAP1 MLOAD SWAP1 ISZERO ISZERO DUP2 MSTORE RETURN JUMPDEST POP CALLVALUE PUSH2 0x1B3 JUMPI DUP3 PUSH1 0x3 NOT CALLDATASIZE ADD SLT PUSH2 0x1B3 JUMPI PUSH2 0x534 PUSH2 0xA86 JUMP JUMPDEST PUSH1 0x2 SLOAD SWAP1 PUSH1 0xFF DUP3 AND ISZERO PUSH2 0x576 JUMPI POP PUSH1 0xFF NOT AND PUSH1 0x2 SSTORE MLOAD CALLER DUP2 MSTORE PUSH32 0x5DB9EE0A495BF2E6FF9C91A7834C1BA4FDD244A5E8AA4E537BD38AEAE4B073AA SWAP1 PUSH1 0x20 SWAP1 LOG1 DUP1 RETURN JUMPDEST PUSH1 0x64 SWAP1 PUSH1 0x20 DUP5 MLOAD SWAP2 PUSH3 0x461BCD PUSH1 0xE5 SHL DUP4 MSTORE DUP3 ADD MSTORE PUSH1 0x14 PUSH1 0x24 DUP3 ADD MSTORE PUSH20 0x14185D5CD8589B194E881B9BDD081C185D5CD959 PUSH1 0x62 SHL PUSH1 0x44 DUP3 ADD MSTORE REVERT JUMPDEST POP SWAP1 CALLVALUE PUSH2 0x1B3 JUMPI PUSH1 0x80 CALLDATASIZE PUSH1 0x3 NOT ADD SLT PUSH2 0x1B3 JUMPI PUSH2 0x5CB PUSH2 0xA6B JUMP JUMPDEST PUSH1 0x24 DUP1 CALLDATALOAD PUSH1 0x1 PUSH1 0x1 PUSH1 0xA0 SHL SUB DUP2 DUP2 AND SWAP5 SWAP3 SWAP4 SWAP2 DUP6 SWAP1 SUB PUSH2 0x7F3 JUMPI PUSH1 0x44 CALLDATALOAD SWAP2 PUSH1 0x64 CALLDATALOAD SWAP2 CALLER DUP10 MSTORE PUSH1 0x20 SWAP2 PUSH1 0x5 DUP4 MSTORE PUSH1 0xFF DUP7 DUP12 KECCAK256 SLOAD AND ISZERO PUSH2 0x7BB JUMPI PUSH2 0x60B PUSH2 0xB72 JUMP JUMPDEST DUP4 DUP11 MSTORE DUP9 DUP4 MSTORE PUSH1 0xFF DUP7 DUP12 KECCAK256 SLOAD AND PUSH2 0x779 JUMPI AND SWAP5 DUP5 MLOAD PUSH4 0x70A08231 PUSH1 0xE0 SHL DUP2 MSTORE ADDRESS DUP10 DUP3 ADD MSTORE DUP3 DUP2 DUP4 DUP2 DUP11 GAS STATICCALL SWAP1 DUP2 ISZERO PUSH2 0x76F JUMPI SWAP1 DUP6 SWAP2 DUP12 SWAP2 PUSH2 0x73A JUMPI JUMPDEST POP LT PUSH2 0x6F9 JUMPI DUP3 DUP10 MSTORE DUP8 DUP3 MSTORE DUP5 DUP10 KECCAK256 DUP1 SLOAD PUSH1 0xFF NOT AND PUSH1 0x1 OR SWAP1 SSTORE DUP5 MLOAD PUSH4 0xA9059CBB PUSH1 0xE0 SHL DUP2 MSTORE SWAP8 DUP9 ADD DUP8 SWAP1 MSTORE DUP8 ADD DUP4 SWAP1 MSTORE DUP1 DUP8 PUSH1 0x44 DUP2 DUP12 DUP10 GAS CALL SWAP7 DUP8 ISZERO PUSH2 0x6EF JUMPI PUSH32 0x1E5EB88DA4C5640069086640CF1EE35507A9BF098F2A62175952F603C58F18CE SWAP6 SWAP7 SWAP8 PUSH2 0x6C2 JUMPI JUMPDEST POP DUP4 MLOAD SWAP3 DUP4 MSTORE DUP3 ADD MSTORE LOG3 PUSH1 0x1 DUP1 SSTORE DUP1 RETURN JUMPDEST PUSH2 0x6E1 SWAP1 DUP3 RETURNDATASIZE DUP5 GT PUSH2 0x6E8 JUMPI JUMPDEST PUSH2 0x6D9 DUP2 DUP4 PUSH2 0xADE JUMP JUMPDEST DUP2 ADD SWAP1 PUSH2 0xB16 JUMP JUMPDEST POP CODESIZE PUSH2 0x6B1 JUMP JUMPDEST POP RETURNDATASIZE PUSH2 0x6CF JUMP JUMPDEST DUP5 MLOAD RETURNDATASIZE DUP11 DUP3 RETURNDATACOPY RETURNDATASIZE SWAP1 REVERT JUMPDEST PUSH1 0x1D DUP9 SWAP2 PUSH1 0x64 SWAP4 DUP8 MLOAD SWAP4 PUSH3 0x461BCD PUSH1 0xE5 SHL DUP6 MSTORE DUP5 ADD MSTORE DUP3 ADD MSTORE PUSH32 0x4252494447453A20494E53554646494349454E545F5245534552564553000000 PUSH1 0x44 DUP3 ADD MSTORE REVERT JUMPDEST DUP1 SWAP3 POP DUP5 DUP1 SWAP3 POP RETURNDATASIZE DUP4 GT PUSH2 0x768 JUMPI JUMPDEST PUSH2 0x753 DUP2 DUP4 PUSH2 0xADE JUMP JUMPDEST DUP2 ADD SUB SLT PUSH2 0x764 JUMPI DUP5 SWAP1 MLOAD CODESIZE PUSH2 0x647 JUMP JUMPDEST DUP10 DUP1 REVERT JUMPDEST POP RETURNDATASIZE PUSH2 0x749 JUMP JUMPDEST DUP7 MLOAD RETURNDATASIZE DUP13 DUP3 RETURNDATACOPY RETURNDATASIZE SWAP1 REVERT JUMPDEST DUP6 MLOAD PUSH3 0x461BCD PUSH1 0xE5 SHL DUP2 MSTORE DUP1 DUP11 ADD DUP5 SWAP1 MSTORE PUSH1 0x1C DUP2 DUP10 ADD MSTORE PUSH32 0x4252494447453A2054585F414C52454144595F50524F43455353454400000000 PUSH1 0x44 DUP3 ADD MSTORE PUSH1 0x64 SWAP1 REVERT JUMPDEST DUP6 MLOAD PUSH3 0x461BCD PUSH1 0xE5 SHL DUP2 MSTORE DUP1 DUP11 ADD DUP5 SWAP1 MSTORE PUSH1 0x13 DUP2 DUP10 ADD MSTORE PUSH19 0x212924A223A29D102727AA2FA922A620ACA2A9 PUSH1 0x69 SHL PUSH1 0x44 DUP3 ADD MSTORE PUSH1 0x64 SWAP1 REVERT JUMPDEST DUP7 DUP1 REVERT JUMPDEST POP DUP3 SWAP1 PUSH1 0x80 CALLDATASIZE PUSH1 0x3 NOT ADD SLT PUSH2 0x1FA JUMPI PUSH2 0x80E PUSH2 0xA6B JUMP JUMPDEST PUSH1 0x24 SWAP4 PUSH1 0x64 CALLDATALOAD SWAP3 SWAP2 PUSH1 0x44 CALLDATALOAD SWAP1 DUP7 CALLDATALOAD SWAP1 PUSH1 0x1 PUSH1 0x1 PUSH1 0xA0 SHL SUB DUP1 DUP8 AND SWAP1 DUP2 DUP9 SUB PUSH2 0xA67 JUMPI PUSH2 0x838 PUSH2 0xB72 JUMP JUMPDEST PUSH2 0x840 PUSH2 0xB2E JUMP JUMPDEST DUP3 AND SWAP4 DUP5 DUP10 MSTORE PUSH1 0x20 SWAP3 PUSH1 0x3 DUP5 MSTORE PUSH1 0xFF DUP8 DUP12 KECCAK256 SLOAD AND ISZERO PUSH2 0xA25 JUMPI DUP5 ISZERO PUSH2 0x9ED JUMPI PUSH1 0x7 SLOAD CALLVALUE LT PUSH2 0x9AB JUMPI DUP7 MLOAD PUSH4 0x23B872DD PUSH1 0xE0 SHL DUP2 MSTORE CALLER DUP2 DUP11 ADD MSTORE ADDRESS DUP2 DUP14 ADD MSTORE PUSH1 0x44 DUP2 ADD DUP7 SWAP1 MSTORE DUP5 DUP2 PUSH1 0x64 DUP2 DUP15 DUP12 GAS CALL DUP1 ISZERO PUSH2 0x9A1 JUMPI PUSH2 0x984 JUMPI JUMPDEST POP PUSH1 0x6 SLOAD SWAP9 DUP8 MLOAD SWAP5 DUP6 ADD SWAP2 CHAINID DUP4 MSTORE DUP4 DUP10 DUP8 ADD MSTORE CALLER PUSH1 0x60 SHL PUSH1 0x60 DUP8 ADD MSTORE PUSH12 0xFFFFFFFFFFFFFFFFFFFFFFFF NOT DUP1 SWAP3 PUSH1 0x60 SHL AND PUSH1 0x74 DUP8 ADD MSTORE PUSH1 0x60 SHL AND PUSH1 0x88 DUP6 ADD MSTORE DUP5 PUSH1 0x9C DUP6 ADD MSTORE DUP9 PUSH1 0xBC DUP6 ADD MSTORE PUSH1 0xBC DUP5 MSTORE PUSH1 0xE0 DUP5 ADD SWAP7 DUP5 DUP9 LT PUSH8 0xFFFFFFFFFFFFFFFF DUP10 GT OR PUSH2 0x972 JUMPI DUP8 SWAP1 MSTORE DUP4 MLOAD SWAP1 KECCAK256 SWAP4 DUP7 MSTORE PUSH2 0x100 DUP4 ADD MSTORE PUSH2 0x120 DUP3 ADD MSTORE PUSH2 0x140 DUP2 ADD DUP7 SWAP1 MSTORE PUSH2 0x160 ADD MSTORE CALLER SWAP2 PUSH32 0xEA309ECA55540976AC3744B96CD9F94F015FA63A684ACF8341CE91A603E1115D SWAP1 PUSH1 0xA0 SWAP1 LOG3 PUSH1 0x0 NOT DUP3 EQ PUSH2 0x961 JUMPI POP PUSH1 0x1 ADD PUSH1 0x6 SSTORE PUSH1 0x1 DUP1 SSTORE DUP1 RETURN JUMPDEST PUSH4 0x4E487B71 PUSH1 0xE0 SHL DUP4 MSTORE PUSH1 0x11 SWAP1 MSTORE POP REVERT JUMPDEST PUSH4 0x4E487B71 PUSH1 0xE0 SHL DUP12 MSTORE PUSH1 0x41 DUP10 MSTORE DUP12 DUP12 REVERT JUMPDEST PUSH2 0x99A SWAP1 DUP6 RETURNDATASIZE DUP8 GT PUSH2 0x6E8 JUMPI PUSH2 0x6D9 DUP2 DUP4 PUSH2 0xADE JUMP JUMPDEST POP DUP12 PUSH2 0x899 JUMP JUMPDEST DUP9 MLOAD RETURNDATASIZE DUP14 DUP3 RETURNDATACOPY RETURNDATASIZE SWAP1 REVERT JUMPDEST DUP7 MLOAD PUSH3 0x461BCD PUSH1 0xE5 SHL DUP2 MSTORE DUP1 DUP10 ADD DUP6 SWAP1 MSTORE PUSH1 0x18 DUP2 DUP14 ADD MSTORE PUSH32 0x4252494447453A20494E53554646494349454E545F4645450000000000000000 PUSH1 0x44 DUP3 ADD MSTORE PUSH1 0x64 SWAP1 REVERT JUMPDEST DUP7 MLOAD PUSH3 0x461BCD PUSH1 0xE5 SHL DUP2 MSTORE DUP1 DUP10 ADD DUP6 SWAP1 MSTORE PUSH1 0x13 DUP2 DUP14 ADD MSTORE PUSH19 0x1094925111D14E8816915493D7D05353D55395 PUSH1 0x6A SHL PUSH1 0x44 DUP3 ADD MSTORE PUSH1 0x64 SWAP1 REVERT JUMPDEST DUP7 MLOAD PUSH3 0x461BCD PUSH1 0xE5 SHL DUP2 MSTORE DUP1 DUP10 ADD DUP6 SWAP1 MSTORE PUSH1 0x1B DUP2 DUP14 ADD MSTORE PUSH32 0x4252494447453A20544F4B454E5F4E4F545F535550504F525445440000000000 PUSH1 0x44 DUP3 ADD MSTORE PUSH1 0x64 SWAP1 REVERT JUMPDEST DUP9 DUP1 REVERT JUMPDEST PUSH1 0x4 CALLDATALOAD SWAP1 PUSH1 0x1 PUSH1 0x1 PUSH1 0xA0 SHL SUB DUP3 AND DUP3 SUB PUSH2 0xA81 JUMPI JUMP JUMPDEST PUSH1 0x0 DUP1 REVERT JUMPDEST PUSH1 0x0 SLOAD PUSH1 0x1 PUSH1 0x1 PUSH1 0xA0 SHL SUB AND CALLER SUB PUSH2 0xA9A JUMPI JUMP JUMPDEST PUSH1 0x64 PUSH1 0x40 MLOAD PUSH3 0x461BCD PUSH1 0xE5 SHL DUP2 MSTORE PUSH1 0x20 PUSH1 0x4 DUP3 ADD MSTORE PUSH1 0x20 PUSH1 0x24 DUP3 ADD MSTORE PUSH32 0x4F776E61626C653A2063616C6C6572206973206E6F7420746865206F776E6572 PUSH1 0x44 DUP3 ADD MSTORE REVERT JUMPDEST SWAP1 PUSH1 0x1F DUP1 NOT SWAP2 ADD AND DUP2 ADD SWAP1 DUP2 LT PUSH8 0xFFFFFFFFFFFFFFFF DUP3 GT OR PUSH2 0xB00 JUMPI PUSH1 0x40 MSTORE JUMP JUMPDEST PUSH4 0x4E487B71 PUSH1 0xE0 SHL PUSH1 0x0 MSTORE PUSH1 0x41 PUSH1 0x4 MSTORE PUSH1 0x24 PUSH1 0x0 REVERT JUMPDEST SWAP1 DUP2 PUSH1 0x20 SWAP2 SUB SLT PUSH2 0xA81 JUMPI MLOAD DUP1 ISZERO ISZERO DUP2 SUB PUSH2 0xA81 JUMPI SWAP1 JUMP JUMPDEST PUSH1 0xFF PUSH1 0x2 SLOAD AND PUSH2 0xB3A JUMPI JUMP JUMPDEST PUSH1 0x40 MLOAD PUSH3 0x461BCD PUSH1 0xE5 SHL DUP2 MSTORE PUSH1 0x20 PUSH1 0x4 DUP3 ADD MSTORE PUSH1 0x10 PUSH1 0x24 DUP3 ADD MSTORE PUSH16 0x14185D5CD8589B194E881C185D5CD959 PUSH1 0x82 SHL PUSH1 0x44 DUP3 ADD MSTORE PUSH1 0x64 SWAP1 REVERT JUMPDEST PUSH1 0x2 PUSH1 0x1 SLOAD EQ PUSH2 0xB83 JUMPI PUSH1 0x2 PUSH1 0x1 SSTORE JUMP JUMPDEST PUSH1 0x40 MLOAD PUSH3 0x461BCD PUSH1 0xE5 SHL DUP2 MSTORE PUSH1 0x20 PUSH1 0x4 DUP3 ADD MSTORE PUSH1 0x1F PUSH1 0x24 DUP3 ADD MSTORE PUSH32 0x5265656E7472616E637947756172643A207265656E7472616E742063616C6C00 PUSH1 0x44 DUP3 ADD MSTORE PUSH1 0x64 SWAP1 REVERT INVALID LOG2 PUSH5 0x6970667358 0x22 SLT KECCAK256 PUSH17 0x6AADF36D9BEEC92D55EA003CB84308527 SHL 0xED 0xAD PUSH20 0xF43619F9DC4FCF6436CF64736F6C634300081400 CALLER "},"methodIdentifiers":{"addRelayer(address)":"dd39f00d","addSupportedToken(address)":"6d69fcaf","bridgeFee()":"82b12dd7","lockTokens(address,uint256,uint256,address)":"0aa393f3","nonce()":"affed0e0","owner()":"8da5cb5b","pause()":"8456cb59","paused()":"5c975abb","processedTxIds(bytes32)":"4379caa5","relayers(address)":"5300f841","releaseTokens(address,address,uint256,bytes32)":"176fbebe","removeRelayer(address)":"60f0a5ac","removeSupportedToken(address)":"76319190","renounceOwnership()":"715018a6","setBridgeFee(uint256)":"998cdf83","supportedTokens(address)":"68c4ac26","transferOwnership(address)":"f2fde38b","unpause()":"3f4ba83a","withdrawFees()":"476343ee"}},"storageLayout":{"storage":[{"astId":396,"contract":"contracts/bridge/KortanaBridgeSource.sol:KortanaBridgeSource","label":"_owner","offset":0,"slot":"0","type":"t_address"},{"astId":620,"contract":"contracts/bridge/KortanaBridgeSource.sol:KortanaBridgeSource","label":"_status","offset":0,"slot":"1","type":"t_uint256"},{"astId":519,"contract":"contracts/bridge/KortanaBridgeSource.sol:KortanaBridgeSource","label":"_paused","offset":0,"slot":"2","type":"t_bool"},{"astId":5975,"contract":"contracts/bridge/KortanaBridgeSource.sol:KortanaBridgeSource","label":"supportedTokens","offset":0,"slot":"3","type":"t_mapping(t_address,t_bool)"},{"astId":5979,"contract":"contracts/bridge/KortanaBridgeSource.sol:KortanaBridgeSource","label":"processedTxIds","offset":0,"slot":"4","type":"t_mapping(t_bytes32,t_bool)"},{"astId":5983,"contract":"contracts/bridge/KortanaBridgeSource.sol:KortanaBridgeSource","label":"relayers","offset":0,"slot":"5","type":"t_mapping(t_address,t_bool)"},{"astId":5985,"contract":"contracts/bridge/KortanaBridgeSource.sol:KortanaBridgeSource","label":"nonce","offset":0,"slot":"6","type":"t_uint256"},{"astId":5988,"contract":"contracts/bridge/KortanaBridgeSource.sol:KortanaBridgeSource","label":"bridgeFee","offset":0,"slot":"7","type":"t_uint256"}],"types":{"t_address":{"encoding":"inplace","label":"address","numberOfBytes":"20"},"t_bool":{"encoding":"inplace","label":"bool","numberOfBytes":"1"},"t_bytes32":{"encoding":"inplace","label":"bytes32","numberOfBytes":"32"},"t_mapping(t_address,t_bool)":{"encoding":"mapping","key":"t_address","label":"mapping(address => bool)","numberOfBytes":"32","value":"t_bool"},"t_mapping(t_bytes32,t_bool)":{"encoding":"mapping","key":"t_bytes32","label":"mapping(bytes32 => bool)","numberOfBytes":"32","value":"t_bool"},"t_uint256":{"encoding":"inplace","label":"uint256","numberOfBytes":"32"}}}}}}