{"contracts/amm/KortanaSwapTokens.sol":{"KortanaSwapTokens":{"abi":[{"inputs":[{"internalType":"address","name":"_factory","type":"address"},{"internalType":"address","name":"_WDNR","type":"address"}],"stateMutability":"nonpayable","type":"constructor"},{"inputs":[],"name":"WDNR","outputs":[{"internalType":"address","name":"","type":"address"}],"stateMutability":"view","type":"function"},{"inputs":[],"name":"factory","outputs":[{"internalType":"address","name":"","type":"address"}],"stateMutability":"view","type":"function"},{"inputs":[{"internalType":"uint256","name":"amountIn","type":"uint256"},{"internalType":"uint256","name":"amountOutMin","type":"uint256"},{"internalType":"address[]","name":"path","type":"address[]"},{"internalType":"address","name":"to","type":"address"},{"internalType":"uint256","name":"deadline","type":"uint256"}],"name":"swapExactTokensForDNR","outputs":[{"internalType":"uint256[]","name":"amounts","type":"uint256[]"}],"stateMutability":"nonpayable","type":"function"},{"stateMutability":"payable","type":"receive"}],"evm":{"bytecode":{"linkReferences":{},"object":"60c03461009b57601f610c9b38819003918201601f19168301916001600160401b038311848410176100a057808492604094855283398101031261009b57610052602061004b836100b6565b92016100b6565b9060805260a052604051610bd090816100cb823960805181818160a10152818161020f01528181610499015281816105c801526105f9015260a051818181605701526107230152f35b600080fd5b634e487b7160e01b600052604160045260246000fd5b51906001600160a01b038216820361009b5756fe6080604052600436101561001b575b361561001957600080fd5b005b60003560e01c80634a89ffec146100d0578063c45a01551461008b5763d2d8d32f0361000e5734610086576000366003190112610086576040517f00000000000000000000000000000000000000000000000000000000000000006001600160a01b03168152602090f35b600080fd5b34610086576000366003190112610086576040517f00000000000000000000000000000000000000000000000000000000000000006001600160a01b03168152602090f35b346100865760a03660031901126100865760443567ffffffffffffffff8111610086573660238201121561008657806004013561010c816109b4565b9161011a6040519384610992565b8183526024602084019260051b8201019036821161008657602401915b81831061095e57836064356001600160a01b03811690036100865742608435106109355760028151106108f057805161016f816109b4565b9061017d6040519283610992565b80825261018c601f19916109b4565b0136602083013760043561019f826109cc565b5260005b825160001981019081116103065781101561042e576001600160a01b036101ca82856109d9565b5116906001810181116103065760046001600160a01b036101ee60018401876109d9565b51169260606101fd85836109fc565b50946001600160a01b039061023390847f0000000000000000000000000000000000000000000000000000000000000000610ac1565b1660405193848092630240bc6b60e21b82525afa938415610422576000926000956103d5575b506001600160a01b0316036103d057915b61027482856109d9565b5190811561037957831590811580610370575b1561031c576103e5918284029084820484036103065781848487020204831482151715610306576103e880880297880414171561030657808601861161030657808601156102f0576102eb9501920202046102e560018301856109d9565b526109ed565b6101a3565b634e487b7160e01b600052601260045260246000fd5b634e487b7160e01b600052601160045260246000fd5b60405162461bcd60e51b815260206004820152602660248201527f4b6f7274616e614c6962726172793a20494e53554646494349454e545f4c495160448201526555494449545960d01b6064820152608490fd5b50801515610287565b60405162461bcd60e51b815260206004820152602960248201527f4b6f7274616e614c6962726172793a20494e53554646494349454e545f494e50604482015268155517d05353d5539560ba1b6064820152608490fd5b61026a565b925093506060823d60601161041a575b816103f260609383610992565b810103126100865781516040602084015193015163ffffffff81160361008657919387610259565b3d91506103e5565b6040513d6000823e3d90fd5b5090815160001981019081116103065761044b60243591846109d9565b51106108c7576001600160a01b03610462826109cc565b51166001600160a01b03610475836109cc565b51168251600110156108b15760408301516020916104bd916001600160a01b0316907f0000000000000000000000000000000000000000000000000000000000000000610ac1565b60646104c8866109cc565b516040516323b872dd60e01b81523360048201526001600160a01b0390931660248401526044830152909283919082906000905af1801561042257610879575b5060005b815160001981019081116103065781101561071d576001600160a01b0361053382846109d9565b511690600181018111610306576001600160a01b0361055560018301856109d9565b511661056181846109fc565b509261057060018401876109d9565b51936001600160a01b0316810361071557600093905b855180600119810111610306576001190184101561070b576002840184116103065761061d6105ec6001600160a01b036105c3600288018a6109d9565b5116857f0000000000000000000000000000000000000000000000000000000000000000610ac1565b935b6001600160a01b03927f0000000000000000000000000000000000000000000000000000000000000000610ac1565b16916040519182602081011067ffffffffffffffff6020850111176106f5576020830160405260008352833b156100865760405163022c0d9f60e01b8152600481019690965260248601526001600160a01b0316604485015260806064850152805160848501819052849160005b8281106106dd5750509181600080948260a49183838284010152601f801991011681010301925af1918215610422576106c9926106ce575b506109ed565b61050c565b6106d79061097e565b846106c3565b602082820181015160a489840101528794500161068b565b634e487b7160e01b600052604160045260246000fd5b61061d30936105ee565b600090610586565b825183907f00000000000000000000000000000000000000000000000000000000000000006001600160a01b03169060001981019081116103065761076290836109d9565b51813b1561008657600091602483926040519485938492632e1a7d4d60e01b845260048401525af180156104225761086a575b508051600019810190811161030657600080806107b38194866109d9565b516064355af13d15610865573d67ffffffffffffffff81116106f557604051906107e7601f8201601f191660200183610992565b8152600060203d92013e5b1561083c5760405180916020820160208352815180915260206040840192019060005b818110610823575050500390f35b8251845285945060209384019390920191600101610815565b60405162461bcd60e51b81526020600482015260016024820152602360f91b6044820152606490fd5b6107f2565b6108739061097e565b81610795565b6020813d6020116108a9575b8161089260209383610992565b810103126100865751801515036100865782610508565b3d9150610885565b634e487b7160e01b600052603260045260246000fd5b60405162461bcd60e51b81526020600482015260016024820152604f60f81b6044820152606490fd5b60405162461bcd60e51b815260206004820152601c60248201527f4b6f7274616e614c6962726172793a20494e56414c49445f50415448000000006044820152606490fd5b60405162461bcd60e51b81526020600482015260016024820152604560f81b6044820152606490fd5b82356001600160a01b038116810361008657815260209283019201610137565b67ffffffffffffffff81116106f557604052565b90601f8019910116810190811067ffffffffffffffff8211176106f557604052565b67ffffffffffffffff81116106f55760051b60200190565b8051156108b15760200190565b80518210156108b15760209160051b010190565b60001981146103065760010190565b90916001600160a01b0391828416838216808214610a70571015610a6b57925b91831615610a2657565b60405162461bcd60e51b815260206004820152601c60248201527f4b6f7274616e614c6962726172793a205a45524f5f41444452455353000000006044820152606490fd5b610a1c565b60405162461bcd60e51b815260206004820152602360248201527f4b6f7274616e614c6962726172793a204944454e544943414c5f41444452455360448201526253455360e81b6064820152608490fd5b60405163e6a4390560e01b81526001600160a01b03928316600482015292821660248401529192916020908490604490829085165afa92831561042257600093610b55575b50821615610b1057565b60405162461bcd60e51b815260206004820152601e60248201527f4b6f7274616e614c6962726172793a20504149525f4e4f545f464f554e4400006044820152606490fd5b6020939193813d8211610b92575b81610b7060209383610992565b81010312610b8e5751908382168203610b8b57509138610b06565b80fd5b5080fd5b3d9150610b6356fea264697066735822122038c88660bfc6afe2c406fd18cd05e3ddfc879492443855c57fa18b30f8e8ac8464736f6c63430008140033","opcodes":"PUSH1 0xC0 CALLVALUE PUSH2 0x9B JUMPI PUSH1 0x1F PUSH2 0xC9B CODESIZE DUP2 SWAP1 SUB SWAP2 DUP3 ADD PUSH1 0x1F NOT AND DUP4 ADD SWAP2 PUSH1 0x1 PUSH1 0x1 PUSH1 0x40 SHL SUB DUP4 GT DUP5 DUP5 LT OR PUSH2 0xA0 JUMPI DUP1 DUP5 SWAP3 PUSH1 0x40 SWAP5 DUP6 MSTORE DUP4 CODECOPY DUP2 ADD SUB SLT PUSH2 0x9B JUMPI PUSH2 0x52 PUSH1 0x20 PUSH2 0x4B DUP4 PUSH2 0xB6 JUMP JUMPDEST SWAP3 ADD PUSH2 0xB6 JUMP JUMPDEST SWAP1 PUSH1 0x80 MSTORE PUSH1 0xA0 MSTORE PUSH1 0x40 MLOAD PUSH2 0xBD0 SWAP1 DUP2 PUSH2 0xCB DUP3 CODECOPY PUSH1 0x80 MLOAD DUP2 DUP2 DUP2 PUSH1 0xA1 ADD MSTORE DUP2 DUP2 PUSH2 0x20F ADD MSTORE DUP2 DUP2 PUSH2 0x499 ADD MSTORE DUP2 DUP2 PUSH2 0x5C8 ADD MSTORE PUSH2 0x5F9 ADD MSTORE PUSH1 0xA0 MLOAD DUP2 DUP2 DUP2 PUSH1 0x57 ADD MSTORE PUSH2 0x723 ADD MSTORE RETURN JUMPDEST PUSH1 0x0 DUP1 REVERT JUMPDEST PUSH4 0x4E487B71 PUSH1 0xE0 SHL PUSH1 0x0 MSTORE PUSH1 0x41 PUSH1 0x4 MSTORE PUSH1 0x24 PUSH1 0x0 REVERT JUMPDEST MLOAD SWAP1 PUSH1 0x1 PUSH1 0x1 PUSH1 0xA0 SHL SUB DUP3 AND DUP3 SUB PUSH2 0x9B JUMPI JUMP INVALID PUSH1 0x80 PUSH1 0x40 MSTORE PUSH1 0x4 CALLDATASIZE LT ISZERO PUSH2 0x1B JUMPI JUMPDEST CALLDATASIZE ISZERO PUSH2 0x19 JUMPI PUSH1 0x0 DUP1 REVERT JUMPDEST STOP JUMPDEST PUSH1 0x0 CALLDATALOAD PUSH1 0xE0 SHR DUP1 PUSH4 0x4A89FFEC EQ PUSH2 0xD0 JUMPI DUP1 PUSH4 0xC45A0155 EQ PUSH2 0x8B JUMPI PUSH4 0xD2D8D32F SUB PUSH2 0xE JUMPI CALLVALUE PUSH2 0x86 JUMPI PUSH1 0x0 CALLDATASIZE PUSH1 0x3 NOT ADD SLT PUSH2 0x86 JUMPI PUSH1 0x40 MLOAD PUSH32 0x0 PUSH1 0x1 PUSH1 0x1 PUSH1 0xA0 SHL SUB AND DUP2 MSTORE PUSH1 0x20 SWAP1 RETURN JUMPDEST PUSH1 0x0 DUP1 REVERT JUMPDEST CALLVALUE PUSH2 0x86 JUMPI PUSH1 0x0 CALLDATASIZE PUSH1 0x3 NOT ADD SLT PUSH2 0x86 JUMPI PUSH1 0x40 MLOAD PUSH32 0x0 PUSH1 0x1 PUSH1 0x1 PUSH1 0xA0 SHL SUB AND DUP2 MSTORE PUSH1 0x20 SWAP1 RETURN JUMPDEST CALLVALUE PUSH2 0x86 JUMPI PUSH1 0xA0 CALLDATASIZE PUSH1 0x3 NOT ADD SLT PUSH2 0x86 JUMPI PUSH1 0x44 CALLDATALOAD PUSH8 0xFFFFFFFFFFFFFFFF DUP2 GT PUSH2 0x86 JUMPI CALLDATASIZE PUSH1 0x23 DUP3 ADD SLT ISZERO PUSH2 0x86 JUMPI DUP1 PUSH1 0x4 ADD CALLDATALOAD PUSH2 0x10C DUP2 PUSH2 0x9B4 JUMP JUMPDEST SWAP2 PUSH2 0x11A PUSH1 0x40 MLOAD SWAP4 DUP5 PUSH2 0x992 JUMP JUMPDEST DUP2 DUP4 MSTORE PUSH1 0x24 PUSH1 0x20 DUP5 ADD SWAP3 PUSH1 0x5 SHL DUP3 ADD ADD SWAP1 CALLDATASIZE DUP3 GT PUSH2 0x86 JUMPI PUSH1 0x24 ADD SWAP2 JUMPDEST DUP2 DUP4 LT PUSH2 0x95E JUMPI DUP4 PUSH1 0x64 CALLDATALOAD PUSH1 0x1 PUSH1 0x1 PUSH1 0xA0 SHL SUB DUP2 AND SWAP1 SUB PUSH2 0x86 JUMPI TIMESTAMP PUSH1 0x84 CALLDATALOAD LT PUSH2 0x935 JUMPI PUSH1 0x2 DUP2 MLOAD LT PUSH2 0x8F0 JUMPI DUP1 MLOAD PUSH2 0x16F DUP2 PUSH2 0x9B4 JUMP JUMPDEST SWAP1 PUSH2 0x17D PUSH1 0x40 MLOAD SWAP3 DUP4 PUSH2 0x992 JUMP JUMPDEST DUP1 DUP3 MSTORE PUSH2 0x18C PUSH1 0x1F NOT SWAP2 PUSH2 0x9B4 JUMP JUMPDEST ADD CALLDATASIZE PUSH1 0x20 DUP4 ADD CALLDATACOPY PUSH1 0x4 CALLDATALOAD PUSH2 0x19F DUP3 PUSH2 0x9CC JUMP JUMPDEST MSTORE PUSH1 0x0 JUMPDEST DUP3 MLOAD PUSH1 0x0 NOT DUP2 ADD SWAP1 DUP2 GT PUSH2 0x306 JUMPI DUP2 LT ISZERO PUSH2 0x42E JUMPI PUSH1 0x1 PUSH1 0x1 PUSH1 0xA0 SHL SUB PUSH2 0x1CA DUP3 DUP6 PUSH2 0x9D9 JUMP JUMPDEST MLOAD AND SWAP1 PUSH1 0x1 DUP2 ADD DUP2 GT PUSH2 0x306 JUMPI PUSH1 0x4 PUSH1 0x1 PUSH1 0x1 PUSH1 0xA0 SHL SUB PUSH2 0x1EE PUSH1 0x1 DUP5 ADD DUP8 PUSH2 0x9D9 JUMP JUMPDEST MLOAD AND SWAP3 PUSH1 0x60 PUSH2 0x1FD DUP6 DUP4 PUSH2 0x9FC JUMP JUMPDEST POP SWAP5 PUSH1 0x1 PUSH1 0x1 PUSH1 0xA0 SHL SUB SWAP1 PUSH2 0x233 SWAP1 DUP5 PUSH32 0x0 PUSH2 0xAC1 JUMP JUMPDEST AND PUSH1 0x40 MLOAD SWAP4 DUP5 DUP1 SWAP3 PUSH4 0x240BC6B PUSH1 0xE2 SHL DUP3 MSTORE GAS STATICCALL SWAP4 DUP5 ISZERO PUSH2 0x422 JUMPI PUSH1 0x0 SWAP3 PUSH1 0x0 SWAP6 PUSH2 0x3D5 JUMPI JUMPDEST POP PUSH1 0x1 PUSH1 0x1 PUSH1 0xA0 SHL SUB AND SUB PUSH2 0x3D0 JUMPI SWAP2 JUMPDEST PUSH2 0x274 DUP3 DUP6 PUSH2 0x9D9 JUMP JUMPDEST MLOAD SWAP1 DUP2 ISZERO PUSH2 0x379 JUMPI DUP4 ISZERO SWAP1 DUP2 ISZERO DUP1 PUSH2 0x370 JUMPI JUMPDEST ISZERO PUSH2 0x31C JUMPI PUSH2 0x3E5 SWAP2 DUP3 DUP5 MUL SWAP1 DUP5 DUP3 DIV DUP5 SUB PUSH2 0x306 JUMPI DUP2 DUP5 DUP5 DUP8 MUL MUL DIV DUP4 EQ DUP3 ISZERO OR ISZERO PUSH2 0x306 JUMPI PUSH2 0x3E8 DUP1 DUP9 MUL SWAP8 DUP9 DIV EQ OR ISZERO PUSH2 0x306 JUMPI DUP1 DUP7 ADD DUP7 GT PUSH2 0x306 JUMPI DUP1 DUP7 ADD ISZERO PUSH2 0x2F0 JUMPI PUSH2 0x2EB SWAP6 ADD SWAP3 MUL MUL DIV PUSH2 0x2E5 PUSH1 0x1 DUP4 ADD DUP6 PUSH2 0x9D9 JUMP JUMPDEST MSTORE PUSH2 0x9ED JUMP JUMPDEST PUSH2 0x1A3 JUMP JUMPDEST PUSH4 0x4E487B71 PUSH1 0xE0 SHL PUSH1 0x0 MSTORE PUSH1 0x12 PUSH1 0x4 MSTORE PUSH1 0x24 PUSH1 0x0 REVERT JUMPDEST PUSH4 0x4E487B71 PUSH1 0xE0 SHL PUSH1 0x0 MSTORE PUSH1 0x11 PUSH1 0x4 MSTORE PUSH1 0x24 PUSH1 0x0 REVERT JUMPDEST PUSH1 0x40 MLOAD PUSH3 0x461BCD PUSH1 0xE5 SHL DUP2 MSTORE PUSH1 0x20 PUSH1 0x4 DUP3 ADD MSTORE PUSH1 0x26 PUSH1 0x24 DUP3 ADD MSTORE PUSH32 0x4B6F7274616E614C6962726172793A20494E53554646494349454E545F4C4951 PUSH1 0x44 DUP3 ADD MSTORE PUSH6 0x554944495459 PUSH1 0xD0 SHL PUSH1 0x64 DUP3 ADD MSTORE PUSH1 0x84 SWAP1 REVERT JUMPDEST POP DUP1 ISZERO ISZERO PUSH2 0x287 JUMP JUMPDEST PUSH1 0x40 MLOAD PUSH3 0x461BCD PUSH1 0xE5 SHL DUP2 MSTORE PUSH1 0x20 PUSH1 0x4 DUP3 ADD MSTORE PUSH1 0x29 PUSH1 0x24 DUP3 ADD MSTORE PUSH32 0x4B6F7274616E614C6962726172793A20494E53554646494349454E545F494E50 PUSH1 0x44 DUP3 ADD MSTORE PUSH9 0x155517D05353D55395 PUSH1 0xBA SHL PUSH1 0x64 DUP3 ADD MSTORE PUSH1 0x84 SWAP1 REVERT JUMPDEST PUSH2 0x26A JUMP JUMPDEST SWAP3 POP SWAP4 POP PUSH1 0x60 DUP3 RETURNDATASIZE PUSH1 0x60 GT PUSH2 0x41A JUMPI JUMPDEST DUP2 PUSH2 0x3F2 PUSH1 0x60 SWAP4 DUP4 PUSH2 0x992 JUMP JUMPDEST DUP2 ADD SUB SLT PUSH2 0x86 JUMPI DUP2 MLOAD PUSH1 0x40 PUSH1 0x20 DUP5 ADD MLOAD SWAP4 ADD MLOAD PUSH4 0xFFFFFFFF DUP2 AND SUB PUSH2 0x86 JUMPI SWAP2 SWAP4 DUP8 PUSH2 0x259 JUMP JUMPDEST RETURNDATASIZE SWAP2 POP PUSH2 0x3E5 JUMP JUMPDEST PUSH1 0x40 MLOAD RETURNDATASIZE PUSH1 0x0 DUP3 RETURNDATACOPY RETURNDATASIZE SWAP1 REVERT JUMPDEST POP SWAP1 DUP2 MLOAD PUSH1 0x0 NOT DUP2 ADD SWAP1 DUP2 GT PUSH2 0x306 JUMPI PUSH2 0x44B PUSH1 0x24 CALLDATALOAD SWAP2 DUP5 PUSH2 0x9D9 JUMP JUMPDEST MLOAD LT PUSH2 0x8C7 JUMPI PUSH1 0x1 PUSH1 0x1 PUSH1 0xA0 SHL SUB PUSH2 0x462 DUP3 PUSH2 0x9CC JUMP JUMPDEST MLOAD AND PUSH1 0x1 PUSH1 0x1 PUSH1 0xA0 SHL SUB PUSH2 0x475 DUP4 PUSH2 0x9CC JUMP JUMPDEST MLOAD AND DUP3 MLOAD PUSH1 0x1 LT ISZERO PUSH2 0x8B1 JUMPI PUSH1 0x40 DUP4 ADD MLOAD PUSH1 0x20 SWAP2 PUSH2 0x4BD SWAP2 PUSH1 0x1 PUSH1 0x1 PUSH1 0xA0 SHL SUB AND SWAP1 PUSH32 0x0 PUSH2 0xAC1 JUMP JUMPDEST PUSH1 0x64 PUSH2 0x4C8 DUP7 PUSH2 0x9CC JUMP JUMPDEST MLOAD PUSH1 0x40 MLOAD PUSH4 0x23B872DD PUSH1 0xE0 SHL DUP2 MSTORE CALLER PUSH1 0x4 DUP3 ADD MSTORE PUSH1 0x1 PUSH1 0x1 PUSH1 0xA0 SHL SUB SWAP1 SWAP4 AND PUSH1 0x24 DUP5 ADD MSTORE PUSH1 0x44 DUP4 ADD MSTORE SWAP1 SWAP3 DUP4 SWAP2 SWAP1 DUP3 SWAP1 PUSH1 0x0 SWAP1 GAS CALL DUP1 ISZERO PUSH2 0x422 JUMPI PUSH2 0x879 JUMPI JUMPDEST POP PUSH1 0x0 JUMPDEST DUP2 MLOAD PUSH1 0x0 NOT DUP2 ADD SWAP1 DUP2 GT PUSH2 0x306 JUMPI DUP2 LT ISZERO PUSH2 0x71D JUMPI PUSH1 0x1 PUSH1 0x1 PUSH1 0xA0 SHL SUB PUSH2 0x533 DUP3 DUP5 PUSH2 0x9D9 JUMP JUMPDEST MLOAD AND SWAP1 PUSH1 0x1 DUP2 ADD DUP2 GT PUSH2 0x306 JUMPI PUSH1 0x1 PUSH1 0x1 PUSH1 0xA0 SHL SUB PUSH2 0x555 PUSH1 0x1 DUP4 ADD DUP6 PUSH2 0x9D9 JUMP JUMPDEST MLOAD AND PUSH2 0x561 DUP2 DUP5 PUSH2 0x9FC JUMP JUMPDEST POP SWAP3 PUSH2 0x570 PUSH1 0x1 DUP5 ADD DUP8 PUSH2 0x9D9 JUMP JUMPDEST MLOAD SWAP4 PUSH1 0x1 PUSH1 0x1 PUSH1 0xA0 SHL SUB AND DUP2 SUB PUSH2 0x715 JUMPI PUSH1 0x0 SWAP4 SWAP1 JUMPDEST DUP6 MLOAD DUP1 PUSH1 0x1 NOT DUP2 ADD GT PUSH2 0x306 JUMPI PUSH1 0x1 NOT ADD DUP5 LT ISZERO PUSH2 0x70B JUMPI PUSH1 0x2 DUP5 ADD DUP5 GT PUSH2 0x306 JUMPI PUSH2 0x61D PUSH2 0x5EC PUSH1 0x1 PUSH1 0x1 PUSH1 0xA0 SHL SUB PUSH2 0x5C3 PUSH1 0x2 DUP9 ADD DUP11 PUSH2 0x9D9 JUMP JUMPDEST MLOAD AND DUP6 PUSH32 0x0 PUSH2 0xAC1 JUMP JUMPDEST SWAP4 JUMPDEST PUSH1 0x1 PUSH1 0x1 PUSH1 0xA0 SHL SUB SWAP3 PUSH32 0x0 PUSH2 0xAC1 JUMP JUMPDEST AND SWAP2 PUSH1 0x40 MLOAD SWAP2 DUP3 PUSH1 0x20 DUP2 ADD LT PUSH8 0xFFFFFFFFFFFFFFFF PUSH1 0x20 DUP6 ADD GT OR PUSH2 0x6F5 JUMPI PUSH1 0x20 DUP4 ADD PUSH1 0x40 MSTORE PUSH1 0x0 DUP4 MSTORE DUP4 EXTCODESIZE ISZERO PUSH2 0x86 JUMPI PUSH1 0x40 MLOAD PUSH4 0x22C0D9F PUSH1 0xE0 SHL DUP2 MSTORE PUSH1 0x4 DUP2 ADD SWAP7 SWAP1 SWAP7 MSTORE PUSH1 0x24 DUP7 ADD MSTORE PUSH1 0x1 PUSH1 0x1 PUSH1 0xA0 SHL SUB AND PUSH1 0x44 DUP6 ADD MSTORE PUSH1 0x80 PUSH1 0x64 DUP6 ADD MSTORE DUP1 MLOAD PUSH1 0x84 DUP6 ADD DUP2 SWAP1 MSTORE DUP5 SWAP2 PUSH1 0x0 JUMPDEST DUP3 DUP2 LT PUSH2 0x6DD JUMPI POP POP SWAP2 DUP2 PUSH1 0x0 DUP1 SWAP5 DUP3 PUSH1 0xA4 SWAP2 DUP4 DUP4 DUP3 DUP5 ADD ADD MSTORE PUSH1 0x1F DUP1 NOT SWAP2 ADD AND DUP2 ADD SUB ADD SWAP3 GAS CALL SWAP2 DUP3 ISZERO PUSH2 0x422 JUMPI PUSH2 0x6C9 SWAP3 PUSH2 0x6CE JUMPI JUMPDEST POP PUSH2 0x9ED JUMP JUMPDEST PUSH2 0x50C JUMP JUMPDEST PUSH2 0x6D7 SWAP1 PUSH2 0x97E JUMP JUMPDEST DUP5 PUSH2 0x6C3 JUMP JUMPDEST PUSH1 0x20 DUP3 DUP3 ADD DUP2 ADD MLOAD PUSH1 0xA4 DUP10 DUP5 ADD ADD MSTORE DUP8 SWAP5 POP ADD PUSH2 0x68B JUMP JUMPDEST PUSH4 0x4E487B71 PUSH1 0xE0 SHL PUSH1 0x0 MSTORE PUSH1 0x41 PUSH1 0x4 MSTORE PUSH1 0x24 PUSH1 0x0 REVERT JUMPDEST PUSH2 0x61D ADDRESS SWAP4 PUSH2 0x5EE JUMP JUMPDEST PUSH1 0x0 SWAP1 PUSH2 0x586 JUMP JUMPDEST DUP3 MLOAD DUP4 SWAP1 PUSH32 0x0 PUSH1 0x1 PUSH1 0x1 PUSH1 0xA0 SHL SUB AND SWAP1 PUSH1 0x0 NOT DUP2 ADD SWAP1 DUP2 GT PUSH2 0x306 JUMPI PUSH2 0x762 SWAP1 DUP4 PUSH2 0x9D9 JUMP JUMPDEST MLOAD DUP2 EXTCODESIZE ISZERO PUSH2 0x86 JUMPI PUSH1 0x0 SWAP2 PUSH1 0x24 DUP4 SWAP3 PUSH1 0x40 MLOAD SWAP5 DUP6 SWAP4 DUP5 SWAP3 PUSH4 0x2E1A7D4D PUSH1 0xE0 SHL DUP5 MSTORE PUSH1 0x4 DUP5 ADD MSTORE GAS CALL DUP1 ISZERO PUSH2 0x422 JUMPI PUSH2 0x86A JUMPI JUMPDEST POP DUP1 MLOAD PUSH1 0x0 NOT DUP2 ADD SWAP1 DUP2 GT PUSH2 0x306 JUMPI PUSH1 0x0 DUP1 DUP1 PUSH2 0x7B3 DUP2 SWAP5 DUP7 PUSH2 0x9D9 JUMP JUMPDEST MLOAD PUSH1 0x64 CALLDATALOAD GAS CALL RETURNDATASIZE ISZERO PUSH2 0x865 JUMPI RETURNDATASIZE PUSH8 0xFFFFFFFFFFFFFFFF DUP2 GT PUSH2 0x6F5 JUMPI PUSH1 0x40 MLOAD SWAP1 PUSH2 0x7E7 PUSH1 0x1F DUP3 ADD PUSH1 0x1F NOT AND PUSH1 0x20 ADD DUP4 PUSH2 0x992 JUMP JUMPDEST DUP2 MSTORE PUSH1 0x0 PUSH1 0x20 RETURNDATASIZE SWAP3 ADD RETURNDATACOPY JUMPDEST ISZERO PUSH2 0x83C JUMPI PUSH1 0x40 MLOAD DUP1 SWAP2 PUSH1 0x20 DUP3 ADD PUSH1 0x20 DUP4 MSTORE DUP2 MLOAD DUP1 SWAP2 MSTORE PUSH1 0x20 PUSH1 0x40 DUP5 ADD SWAP3 ADD SWAP1 PUSH1 0x0 JUMPDEST DUP2 DUP2 LT PUSH2 0x823 JUMPI POP POP POP SUB SWAP1 RETURN JUMPDEST DUP3 MLOAD DUP5 MSTORE DUP6 SWAP5 POP PUSH1 0x20 SWAP4 DUP5 ADD SWAP4 SWAP1 SWAP3 ADD SWAP2 PUSH1 0x1 ADD PUSH2 0x815 JUMP JUMPDEST PUSH1 0x40 MLOAD PUSH3 0x461BCD PUSH1 0xE5 SHL DUP2 MSTORE PUSH1 0x20 PUSH1 0x4 DUP3 ADD MSTORE PUSH1 0x1 PUSH1 0x24 DUP3 ADD MSTORE PUSH1 0x23 PUSH1 0xF9 SHL PUSH1 0x44 DUP3 ADD MSTORE PUSH1 0x64 SWAP1 REVERT JUMPDEST PUSH2 0x7F2 JUMP JUMPDEST PUSH2 0x873 SWAP1 PUSH2 0x97E JUMP JUMPDEST DUP2 PUSH2 0x795 JUMP JUMPDEST PUSH1 0x20 DUP2 RETURNDATASIZE PUSH1 0x20 GT PUSH2 0x8A9 JUMPI JUMPDEST DUP2 PUSH2 0x892 PUSH1 0x20 SWAP4 DUP4 PUSH2 0x992 JUMP JUMPDEST DUP2 ADD SUB SLT PUSH2 0x86 JUMPI MLOAD DUP1 ISZERO ISZERO SUB PUSH2 0x86 JUMPI DUP3 PUSH2 0x508 JUMP JUMPDEST RETURNDATASIZE SWAP2 POP PUSH2 0x885 JUMP JUMPDEST PUSH4 0x4E487B71 PUSH1 0xE0 SHL PUSH1 0x0 MSTORE PUSH1 0x32 PUSH1 0x4 MSTORE PUSH1 0x24 PUSH1 0x0 REVERT JUMPDEST PUSH1 0x40 MLOAD PUSH3 0x461BCD PUSH1 0xE5 SHL DUP2 MSTORE PUSH1 0x20 PUSH1 0x4 DUP3 ADD MSTORE PUSH1 0x1 PUSH1 0x24 DUP3 ADD MSTORE PUSH1 0x4F PUSH1 0xF8 SHL PUSH1 0x44 DUP3 ADD MSTORE PUSH1 0x64 SWAP1 REVERT JUMPDEST PUSH1 0x40 MLOAD PUSH3 0x461BCD PUSH1 0xE5 SHL DUP2 MSTORE PUSH1 0x20 PUSH1 0x4 DUP3 ADD MSTORE PUSH1 0x1C PUSH1 0x24 DUP3 ADD MSTORE PUSH32 0x4B6F7274616E614C6962726172793A20494E56414C49445F5041544800000000 PUSH1 0x44 DUP3 ADD MSTORE PUSH1 0x64 SWAP1 REVERT JUMPDEST PUSH1 0x40 MLOAD PUSH3 0x461BCD PUSH1 0xE5 SHL DUP2 MSTORE PUSH1 0x20 PUSH1 0x4 DUP3 ADD MSTORE PUSH1 0x1 PUSH1 0x24 DUP3 ADD MSTORE PUSH1 0x45 PUSH1 0xF8 SHL PUSH1 0x44 DUP3 ADD MSTORE PUSH1 0x64 SWAP1 REVERT JUMPDEST DUP3 CALLDATALOAD PUSH1 0x1 PUSH1 0x1 PUSH1 0xA0 SHL SUB DUP2 AND DUP2 SUB PUSH2 0x86 JUMPI DUP2 MSTORE PUSH1 0x20 SWAP3 DUP4 ADD SWAP3 ADD PUSH2 0x137 JUMP JUMPDEST PUSH8 0xFFFFFFFFFFFFFFFF DUP2 GT PUSH2 0x6F5 JUMPI PUSH1 0x40 MSTORE JUMP JUMPDEST SWAP1 PUSH1 0x1F DUP1 NOT SWAP2 ADD AND DUP2 ADD SWAP1 DUP2 LT PUSH8 0xFFFFFFFFFFFFFFFF DUP3 GT OR PUSH2 0x6F5 JUMPI PUSH1 0x40 MSTORE JUMP JUMPDEST PUSH8 0xFFFFFFFFFFFFFFFF DUP2 GT PUSH2 0x6F5 JUMPI PUSH1 0x5 SHL PUSH1 0x20 ADD SWAP1 JUMP JUMPDEST DUP1 MLOAD ISZERO PUSH2 0x8B1 JUMPI PUSH1 0x20 ADD SWAP1 JUMP JUMPDEST DUP1 MLOAD DUP3 LT ISZERO PUSH2 0x8B1 JUMPI PUSH1 0x20 SWAP2 PUSH1 0x5 SHL ADD ADD SWAP1 JUMP JUMPDEST PUSH1 0x0 NOT DUP2 EQ PUSH2 0x306 JUMPI PUSH1 0x1 ADD SWAP1 JUMP JUMPDEST SWAP1 SWAP2 PUSH1 0x1 PUSH1 0x1 PUSH1 0xA0 SHL SUB SWAP2 DUP3 DUP5 AND DUP4 DUP3 AND DUP1 DUP3 EQ PUSH2 0xA70 JUMPI LT ISZERO PUSH2 0xA6B JUMPI SWAP3 JUMPDEST SWAP2 DUP4 AND ISZERO PUSH2 0xA26 JUMPI JUMP JUMPDEST PUSH1 0x40 MLOAD PUSH3 0x461BCD PUSH1 0xE5 SHL DUP2 MSTORE PUSH1 0x20 PUSH1 0x4 DUP3 ADD MSTORE PUSH1 0x1C PUSH1 0x24 DUP3 ADD MSTORE PUSH32 0x4B6F7274616E614C6962726172793A205A45524F5F4144445245535300000000 PUSH1 0x44 DUP3 ADD MSTORE PUSH1 0x64 SWAP1 REVERT JUMPDEST PUSH2 0xA1C JUMP JUMPDEST PUSH1 0x40 MLOAD PUSH3 0x461BCD PUSH1 0xE5 SHL DUP2 MSTORE PUSH1 0x20 PUSH1 0x4 DUP3 ADD MSTORE PUSH1 0x23 PUSH1 0x24 DUP3 ADD MSTORE PUSH32 0x4B6F7274616E614C6962726172793A204944454E544943414C5F414444524553 PUSH1 0x44 DUP3 ADD MSTORE PUSH3 0x534553 PUSH1 0xE8 SHL PUSH1 0x64 DUP3 ADD MSTORE PUSH1 0x84 SWAP1 REVERT JUMPDEST PUSH1 0x40 MLOAD PUSH4 0xE6A43905 PUSH1 0xE0 SHL DUP2 MSTORE PUSH1 0x1 PUSH1 0x1 PUSH1 0xA0 SHL SUB SWAP3 DUP4 AND PUSH1 0x4 DUP3 ADD MSTORE SWAP3 DUP3 AND PUSH1 0x24 DUP5 ADD MSTORE SWAP2 SWAP3 SWAP2 PUSH1 0x20 SWAP1 DUP5 SWAP1 PUSH1 0x44 SWAP1 DUP3 SWAP1 DUP6 AND GAS STATICCALL SWAP3 DUP4 ISZERO PUSH2 0x422 JUMPI PUSH1 0x0 SWAP4 PUSH2 0xB55 JUMPI JUMPDEST POP DUP3 AND ISZERO PUSH2 0xB10 JUMPI JUMP JUMPDEST PUSH1 0x40 MLOAD PUSH3 0x461BCD PUSH1 0xE5 SHL DUP2 MSTORE PUSH1 0x20 PUSH1 0x4 DUP3 ADD MSTORE PUSH1 0x1E PUSH1 0x24 DUP3 ADD MSTORE PUSH32 0x4B6F7274616E614C6962726172793A20504149525F4E4F545F464F554E440000 PUSH1 0x44 DUP3 ADD MSTORE PUSH1 0x64 SWAP1 REVERT JUMPDEST PUSH1 0x20 SWAP4 SWAP2 SWAP4 DUP2 RETURNDATASIZE DUP3 GT PUSH2 0xB92 JUMPI JUMPDEST DUP2 PUSH2 0xB70 PUSH1 0x20 SWAP4 DUP4 PUSH2 0x992 JUMP JUMPDEST DUP2 ADD SUB SLT PUSH2 0xB8E JUMPI MLOAD SWAP1 DUP4 DUP3 AND DUP3 SUB PUSH2 0xB8B JUMPI POP SWAP2 CODESIZE PUSH2 0xB06 JUMP JUMPDEST DUP1 REVERT JUMPDEST POP DUP1 REVERT JUMPDEST RETURNDATASIZE SWAP2 POP PUSH2 0xB63 JUMP INVALID LOG2 PUSH5 0x6970667358 0x22 SLT KECCAK256 CODESIZE 0xC8 DUP7 PUSH1 0xBF 0xC6 0xAF 0xE2 0xC4 MOD REVERT XOR 0xCD SDIV 0xE3 0xDD 0xFC DUP8 SWAP5 SWAP3 DIFFICULTY CODESIZE SSTORE 0xC5 PUSH32 0xA18B30F8E8AC8464736F6C634300081400330000000000000000000000000000 "},"methodIdentifiers":{"WDNR()":"d2d8d32f","factory()":"c45a0155","swapExactTokensForDNR(uint256,uint256,address[],address,uint256)":"4a89ffec"}},"storageLayout":{"storage":[],"types":null}}}}