{"contracts/amm/KortanaDNRWithdrawWrapper.sol":{"KortanaDNRWithdrawWrapper":{"abi":[{"inputs":[],"name":"DEX","outputs":[{"internalType":"address","name":"","type":"address"}],"stateMutability":"view","type":"function"},{"inputs":[{"internalType":"uint256","name":"amount18","type":"uint256"}],"name":"sell","outputs":[],"stateMutability":"nonpayable","type":"function"},{"stateMutability":"payable","type":"receive"}],"evm":{"bytecode":{"linkReferences":{},"object":"6080806040523461001657610182908161001c8239f35b600080fdfe608080604052600436101561001d575b50361561001b57600080fd5b005b600090813560e01c90816380935aa91461011a575063e4849b320361000f57346101175760203660031901126101175780738ebbea445af4cae8a2fa16b184eeb792d424cd45803b1561011457819060646040518094819363f9f5166b60e01b835260043560048401528160248401523060448401525af18015610109576100dd575b50804780159081156100b0575050f35b82809291819282906100d4575b3390f1156100c85780f35b604051903d90823e3d90fd5b506108fc6100bd565b67ffffffffffffffff81116100f557604052386100a0565b634e487b7160e01b82526041600452602482fd5b6040513d84823e3d90fd5b50fd5b80fd5b90503461014857816003193601126101485780738ebbea445af4cae8a2fa16b184eeb792d424cd4560209252f35b5080fdfea2646970667358221220ef8d720ffa07b180f283a64cd30d0d77f99202d559da698b881d54e798c15ff964736f6c63430008140033","opcodes":"PUSH1 0x80 DUP1 PUSH1 0x40 MSTORE CALLVALUE PUSH2 0x16 JUMPI PUSH2 0x182 SWAP1 DUP2 PUSH2 0x1C DUP3 CODECOPY RETURN JUMPDEST PUSH1 0x0 DUP1 REVERT INVALID PUSH1 0x80 DUP1 PUSH1 0x40 MSTORE PUSH1 0x4 CALLDATASIZE LT ISZERO PUSH2 0x1D JUMPI JUMPDEST POP CALLDATASIZE ISZERO PUSH2 0x1B JUMPI PUSH1 0x0 DUP1 REVERT JUMPDEST STOP JUMPDEST PUSH1 0x0 SWAP1 DUP2 CALLDATALOAD PUSH1 0xE0 SHR SWAP1 DUP2 PUSH4 0x80935AA9 EQ PUSH2 0x11A JUMPI POP PUSH4 0xE4849B32 SUB PUSH2 0xF JUMPI CALLVALUE PUSH2 0x117 JUMPI PUSH1 0x20 CALLDATASIZE PUSH1 0x3 NOT ADD SLT PUSH2 0x117 JUMPI DUP1 PUSH20 0x8EBBEA445AF4CAE8A2FA16B184EEB792D424CD45 DUP1 EXTCODESIZE ISZERO PUSH2 0x114 JUMPI DUP2 SWAP1 PUSH1 0x64 PUSH1 0x40 MLOAD DUP1 SWAP5 DUP2 SWAP4 PUSH4 0xF9F5166B PUSH1 0xE0 SHL DUP4 MSTORE PUSH1 0x4 CALLDATALOAD PUSH1 0x4 DUP5 ADD MSTORE DUP2 PUSH1 0x24 DUP5 ADD MSTORE ADDRESS PUSH1 0x44 DUP5 ADD MSTORE GAS CALL DUP1 ISZERO PUSH2 0x109 JUMPI PUSH2 0xDD JUMPI JUMPDEST POP DUP1 SELFBALANCE DUP1 ISZERO SWAP1 DUP2 ISZERO PUSH2 0xB0 JUMPI POP POP RETURN JUMPDEST DUP3 DUP1 SWAP3 SWAP2 DUP2 SWAP3 DUP3 SWAP1 PUSH2 0xD4 JUMPI JUMPDEST CALLER SWAP1 CALL ISZERO PUSH2 0xC8 JUMPI DUP1 RETURN JUMPDEST PUSH1 0x40 MLOAD SWAP1 RETURNDATASIZE SWAP1 DUP3 RETURNDATACOPY RETURNDATASIZE SWAP1 REVERT JUMPDEST POP PUSH2 0x8FC PUSH2 0xBD JUMP JUMPDEST PUSH8 0xFFFFFFFFFFFFFFFF DUP2 GT PUSH2 0xF5 JUMPI PUSH1 0x40 MSTORE CODESIZE PUSH2 0xA0 JUMP JUMPDEST PUSH4 0x4E487B71 PUSH1 0xE0 SHL DUP3 MSTORE PUSH1 0x41 PUSH1 0x4 MSTORE PUSH1 0x24 DUP3 REVERT JUMPDEST PUSH1 0x40 MLOAD RETURNDATASIZE DUP5 DUP3 RETURNDATACOPY RETURNDATASIZE SWAP1 REVERT JUMPDEST POP REVERT JUMPDEST DUP1 REVERT JUMPDEST SWAP1 POP CALLVALUE PUSH2 0x148 JUMPI DUP2 PUSH1 0x3 NOT CALLDATASIZE ADD SLT PUSH2 0x148 JUMPI DUP1 PUSH20 0x8EBBEA445AF4CAE8A2FA16B184EEB792D424CD45 PUSH1 0x20 SWAP3 MSTORE RETURN JUMPDEST POP DUP1 REVERT INVALID LOG2 PUSH5 0x6970667358 0x22 SLT KECCAK256 0xEF DUP14 PUSH19 0xFFA07B180F283A64CD30D0D77F99202D559DA PUSH10 0x8B881D54E798C15FF964 PUSH20 0x6F6C634300081400330000000000000000000000 "},"methodIdentifiers":{"DEX()":"80935aa9","sell(uint256)":"e4849b32"}},"storageLayout":{"storage":[],"types":null}}}}