{"contracts/debug/DebugRouter.sol":{"DebugRouter":{"abi":[{"inputs":[],"name":"PAIR","outputs":[{"internalType":"address","name":"","type":"address"}],"stateMutability":"view","type":"function"},{"inputs":[],"name":"WDNR","outputs":[{"internalType":"address","name":"","type":"address"}],"stateMutability":"view","type":"function"},{"inputs":[{"internalType":"uint256","name":"amountIn","type":"uint256"}],"name":"getQuote","outputs":[{"internalType":"uint256","name":"amountOut","type":"uint256"}],"stateMutability":"view","type":"function"}],"evm":{"bytecode":{"linkReferences":{},"object":"6080806040523461001657610354908161001c8239f35b600080fdfe608060408181526004918236101561001657600080fd5b600092833560e01c918263ace3a8a71461029f57508163cf39918e14610077575063d2d8d32f1461004657600080fd5b346100735781600319360112610073576020905173259f3561fe751157458cfbd3a6eb149c321c45a58152f35b5080fd5b839150346100735760209283600319360112610289578051630240bc6b60e21b81528235937385782446b5ac7c4bcce639698042e3ebf46d52429390916060818381885afa94851561029557879084928597610236575b508551630dfe168160e01b815291908290859082905afa801561022c5784906101d7575b6001600160a01b031673259f3561fe751157458cfbd3a6eb149c321c45a5141590506101c3576001600160701b038091169416945b6103e5808202918083048214811517156101b05787020295818704148115171561019d576103e89485810295818704149015171561019d57840180941161018a5783156101775750505191048152f35b634e487b7160e01b825260129052602490fd5b634e487b7160e01b825260119052602490fd5b634e487b7160e01b835260118252602483fd5b634e487b7160e01b855260118452602485fd5b936001600160701b03809116941694610127565b508781813d8311610225575b6101ed81836102cd565b8101031261022157516001600160a01b03811681036102215773259f3561fe751157458cfbd3a6eb149c321c45a5906100f2565b8380fd5b503d6101e3565b85513d86823e3d90fd5b92509550506060813d821161028d575b81610253606093836102cd565b810103126102895761026481610305565b84610270898401610305565b92015163ffffffff8116036102215790948790836100ce565b8280fd5b3d9150610246565b84513d85823e3d90fd5b849034610073578160031936011261007357807385782446b5ac7c4bcce639698042e3ebf46d524260209252f35b90601f8019910116810190811067ffffffffffffffff8211176102ef57604052565b634e487b7160e01b600052604160045260246000fd5b51906001600160701b038216820361031957565b600080fdfea26469706673582212204bb81a10a1fba8ace6416963f1ddbbd5f4de49102d71f73ab4d0c627ffda5e0664736f6c63430008140033","opcodes":"PUSH1 0x80 DUP1 PUSH1 0x40 MSTORE CALLVALUE PUSH2 0x16 JUMPI PUSH2 0x354 SWAP1 DUP2 PUSH2 0x1C DUP3 CODECOPY RETURN JUMPDEST PUSH1 0x0 DUP1 REVERT INVALID PUSH1 0x80 PUSH1 0x40 DUP2 DUP2 MSTORE PUSH1 0x4 SWAP2 DUP3 CALLDATASIZE LT ISZERO PUSH2 0x16 JUMPI PUSH1 0x0 DUP1 REVERT JUMPDEST PUSH1 0x0 SWAP3 DUP4 CALLDATALOAD PUSH1 0xE0 SHR SWAP2 DUP3 PUSH4 0xACE3A8A7 EQ PUSH2 0x29F JUMPI POP DUP2 PUSH4 0xCF39918E EQ PUSH2 0x77 JUMPI POP PUSH4 0xD2D8D32F EQ PUSH2 0x46 JUMPI PUSH1 0x0 DUP1 REVERT JUMPDEST CALLVALUE PUSH2 0x73 JUMPI DUP2 PUSH1 0x3 NOT CALLDATASIZE ADD SLT PUSH2 0x73 JUMPI PUSH1 0x20 SWAP1 MLOAD PUSH20 0x259F3561FE751157458CFBD3A6EB149C321C45A5 DUP2 MSTORE RETURN JUMPDEST POP DUP1 REVERT JUMPDEST DUP4 SWAP2 POP CALLVALUE PUSH2 0x73 JUMPI PUSH1 0x20 SWAP3 DUP4 PUSH1 0x3 NOT CALLDATASIZE ADD SLT PUSH2 0x289 JUMPI DUP1 MLOAD PUSH4 0x240BC6B PUSH1 0xE2 SHL DUP2 MSTORE DUP3 CALLDATALOAD SWAP4 PUSH20 0x85782446B5AC7C4BCCE639698042E3EBF46D5242 SWAP4 SWAP1 SWAP2 PUSH1 0x60 DUP2 DUP4 DUP2 DUP9 GAS STATICCALL SWAP5 DUP6 ISZERO PUSH2 0x295 JUMPI DUP8 SWAP1 DUP5 SWAP3 DUP6 SWAP8 PUSH2 0x236 JUMPI JUMPDEST POP DUP6 MLOAD PUSH4 0xDFE1681 PUSH1 0xE0 SHL DUP2 MSTORE SWAP2 SWAP1 DUP3 SWAP1 DUP6 SWAP1 DUP3 SWAP1 GAS STATICCALL DUP1 ISZERO PUSH2 0x22C JUMPI DUP5 SWAP1 PUSH2 0x1D7 JUMPI JUMPDEST PUSH1 0x1 PUSH1 0x1 PUSH1 0xA0 SHL SUB AND PUSH20 0x259F3561FE751157458CFBD3A6EB149C321C45A5 EQ ISZERO SWAP1 POP PUSH2 0x1C3 JUMPI PUSH1 0x1 PUSH1 0x1 PUSH1 0x70 SHL SUB DUP1 SWAP2 AND SWAP5 AND SWAP5 JUMPDEST PUSH2 0x3E5 DUP1 DUP3 MUL SWAP2 DUP1 DUP4 DIV DUP3 EQ DUP2 ISZERO OR ISZERO PUSH2 0x1B0 JUMPI DUP8 MUL MUL SWAP6 DUP2 DUP8 DIV EQ DUP2 ISZERO OR ISZERO PUSH2 0x19D JUMPI PUSH2 0x3E8 SWAP5 DUP6 DUP2 MUL SWAP6 DUP2 DUP8 DIV EQ SWAP1 ISZERO OR ISZERO PUSH2 0x19D JUMPI DUP5 ADD DUP1 SWAP5 GT PUSH2 0x18A JUMPI DUP4 ISZERO PUSH2 0x177 JUMPI POP POP MLOAD SWAP2 DIV DUP2 MSTORE RETURN JUMPDEST PUSH4 0x4E487B71 PUSH1 0xE0 SHL DUP3 MSTORE PUSH1 0x12 SWAP1 MSTORE PUSH1 0x24 SWAP1 REVERT JUMPDEST PUSH4 0x4E487B71 PUSH1 0xE0 SHL DUP3 MSTORE PUSH1 0x11 SWAP1 MSTORE PUSH1 0x24 SWAP1 REVERT JUMPDEST PUSH4 0x4E487B71 PUSH1 0xE0 SHL DUP4 MSTORE PUSH1 0x11 DUP3 MSTORE PUSH1 0x24 DUP4 REVERT JUMPDEST PUSH4 0x4E487B71 PUSH1 0xE0 SHL DUP6 MSTORE PUSH1 0x11 DUP5 MSTORE PUSH1 0x24 DUP6 REVERT JUMPDEST SWAP4 PUSH1 0x1 PUSH1 0x1 PUSH1 0x70 SHL SUB DUP1 SWAP2 AND SWAP5 AND SWAP5 PUSH2 0x127 JUMP JUMPDEST POP DUP8 DUP2 DUP2 RETURNDATASIZE DUP4 GT PUSH2 0x225 JUMPI JUMPDEST PUSH2 0x1ED DUP2 DUP4 PUSH2 0x2CD JUMP JUMPDEST DUP2 ADD SUB SLT PUSH2 0x221 JUMPI MLOAD PUSH1 0x1 PUSH1 0x1 PUSH1 0xA0 SHL SUB DUP2 AND DUP2 SUB PUSH2 0x221 JUMPI PUSH20 0x259F3561FE751157458CFBD3A6EB149C321C45A5 SWAP1 PUSH2 0xF2 JUMP JUMPDEST DUP4 DUP1 REVERT JUMPDEST POP RETURNDATASIZE PUSH2 0x1E3 JUMP JUMPDEST DUP6 MLOAD RETURNDATASIZE DUP7 DUP3 RETURNDATACOPY RETURNDATASIZE SWAP1 REVERT JUMPDEST SWAP3 POP SWAP6 POP POP PUSH1 0x60 DUP2 RETURNDATASIZE DUP3 GT PUSH2 0x28D JUMPI JUMPDEST DUP2 PUSH2 0x253 PUSH1 0x60 SWAP4 DUP4 PUSH2 0x2CD JUMP JUMPDEST DUP2 ADD SUB SLT PUSH2 0x289 JUMPI PUSH2 0x264 DUP2 PUSH2 0x305 JUMP JUMPDEST DUP5 PUSH2 0x270 DUP10 DUP5 ADD PUSH2 0x305 JUMP JUMPDEST SWAP3 ADD MLOAD PUSH4 0xFFFFFFFF DUP2 AND SUB PUSH2 0x221 JUMPI SWAP1 SWAP5 DUP8 SWAP1 DUP4 PUSH2 0xCE JUMP JUMPDEST DUP3 DUP1 REVERT JUMPDEST RETURNDATASIZE SWAP2 POP PUSH2 0x246 JUMP JUMPDEST DUP5 MLOAD RETURNDATASIZE DUP6 DUP3 RETURNDATACOPY RETURNDATASIZE SWAP1 REVERT JUMPDEST DUP5 SWAP1 CALLVALUE PUSH2 0x73 JUMPI DUP2 PUSH1 0x3 NOT CALLDATASIZE ADD SLT PUSH2 0x73 JUMPI DUP1 PUSH20 0x85782446B5AC7C4BCCE639698042E3EBF46D5242 PUSH1 0x20 SWAP3 MSTORE RETURN JUMPDEST SWAP1 PUSH1 0x1F DUP1 NOT SWAP2 ADD AND DUP2 ADD SWAP1 DUP2 LT PUSH8 0xFFFFFFFFFFFFFFFF DUP3 GT OR PUSH2 0x2EF JUMPI PUSH1 0x40 MSTORE JUMP JUMPDEST PUSH4 0x4E487B71 PUSH1 0xE0 SHL PUSH1 0x0 MSTORE PUSH1 0x41 PUSH1 0x4 MSTORE PUSH1 0x24 PUSH1 0x0 REVERT JUMPDEST MLOAD SWAP1 PUSH1 0x1 PUSH1 0x1 PUSH1 0x70 SHL SUB DUP3 AND DUP3 SUB PUSH2 0x319 JUMPI JUMP JUMPDEST PUSH1 0x0 DUP1 REVERT INVALID LOG2 PUSH5 0x6970667358 0x22 SLT KECCAK256 0x4B 0xB8 BYTE LT LOG1 0xFB 0xA8 0xAC 0xE6 COINBASE PUSH10 0x63F1DDBBD5F4DE49102D PUSH18 0xF73AB4D0C627FFDA5E0664736F6C63430008 EQ STOP CALLER "},"methodIdentifiers":{"PAIR()":"ace3a8a7","WDNR()":"d2d8d32f","getQuote(uint256)":"cf39918e"}},"storageLayout":{"storage":[],"types":null}}}}