{"contracts/amm/KortanaSwapDNR.sol":{"KortanaSwapDNR":{"abi":[{"inputs":[{"internalType":"address","name":"_factory","type":"address"},{"internalType":"address","name":"_WDNR","type":"address"}],"stateMutability":"nonpayable","type":"constructor"},{"anonymous":false,"inputs":[{"indexed":false,"internalType":"string","name":"step","type":"string"},{"indexed":false,"internalType":"uint256","name":"val","type":"uint256"}],"name":"LogStep","type":"event"},{"inputs":[],"name":"WDNR","outputs":[{"internalType":"address","name":"","type":"address"}],"stateMutability":"view","type":"function"},{"inputs":[],"name":"factory","outputs":[{"internalType":"address","name":"","type":"address"}],"stateMutability":"view","type":"function"},{"inputs":[{"internalType":"uint256","name":"amountIn","type":"uint256"},{"internalType":"uint256","name":"reserveIn","type":"uint256"},{"internalType":"uint256","name":"reserveOut","type":"uint256"}],"name":"getAmountOut","outputs":[{"internalType":"uint256","name":"amountOut","type":"uint256"}],"stateMutability":"pure","type":"function"},{"inputs":[{"internalType":"uint256","name":"amountIn","type":"uint256"},{"internalType":"address[]","name":"path","type":"address[]"}],"name":"getAmountsOut","outputs":[{"internalType":"uint256[]","name":"amounts","type":"uint256[]"}],"stateMutability":"view","type":"function"},{"inputs":[{"internalType":"uint256","name":"amountOutMin","type":"uint256"},{"internalType":"address[]","name":"path","type":"address[]"},{"internalType":"address","name":"to","type":"address"},{"internalType":"uint256","name":"deadline","type":"uint256"}],"name":"swapExactDNRForTokens","outputs":[{"internalType":"uint256[]","name":"amounts","type":"uint256[]"}],"stateMutability":"payable","type":"function"},{"inputs":[{"internalType":"uint256","name":"amountIn","type":"uint256"},{"internalType":"uint256","name":"amountOutMin","type":"uint256"},{"internalType":"address[]","name":"path","type":"address[]"},{"internalType":"address","name":"to","type":"address"},{"internalType":"uint256","name":"deadline","type":"uint256"}],"name":"swapExactTokensForDNR","outputs":[{"internalType":"uint256[]","name":"amounts","type":"uint256[]"}],"stateMutability":"nonpayable","type":"function"},{"stateMutability":"payable","type":"receive"}],"evm":{"bytecode":{"linkReferences":{},"object":"60c0346100a357601f61137e38819003918201601f19168301916001600160401b038311848410176100a85780849260409485528339810103126100a357610052602061004b836100be565b92016100be565b9060805260a0526040516112ab90816100d38239608051818181610119015281816103030152818161060001528181610c310152610f82015260a051818181607e01528181610222015261073a0152f35b600080fd5b634e487b7160e01b600052604160045260246000fd5b51906001600160a01b03821682036100a35756fe60406080815260049081361015610020575b5050361561001e57600080fd5b005b600091823560e01c908163054d50d4146109805781634a89ffec146104c85781637ebfe0fd14610148578163c45a015514610104578163d06ca61f146100b1575063d2d8d32f0361001157346100ad57816003193601126100ad57517f00000000000000000000000000000000000000000000000000000000000000006001600160a01b03168152602090f35b5080fd5b8284346101015781600319360112610101576024359067ffffffffffffffff821161010157506100fd926100eb6100f29236908301610a13565b9035610be4565b905191829182610a81565b0390f35b80fd5b5050346100ad57816003193601126100ad57517f00000000000000000000000000000000000000000000000000000000000000006001600160a01b03168152602090f35b838360803660031901126100ad5760243567ffffffffffffffff81116104c4576101759036908501610a13565b916044356001600160a01b0380821682036104bf5760809261019b426064351015610eea565b845192858452600e868501526d11139497d4d5d05417d4d510549560921b606085015260209334858201527fc790f6e6c9e1ab14edf1e36c8df3b4e3afb43bc6c06d3259bb226ba90307c693958691a16101f58734610be4565b96875193600019948581019081116104ac5761021f906102178c35918c610b8e565b511015610f20565b807f00000000000000000000000000000000000000000000000000000000000000001661024b8a610b5b565b51813b156104a857858c918b5192838092630d0e30db60e41b8252865af1801561048657908691610490575b50508760806102858c610b5b565b518b51908c8252600e8d8301526d2222a827a9a4aa22a22faba2272960911b60608301528a820152a1816102b884610b5b565b51169087836102c686610b7e565b5116928d6102fe8d51958693849363e6a4390560e01b8552840190602090939293604083019460018060a01b03809216845216910152565b0381867f0000000000000000000000000000000000000000000000000000000000000000165afa918215610486578892878e95938d8f6044958495610453575b5061034890610b5b565b519051978896879563a9059cbb60e01b8752169085015260248401525af1801561044957906103b993929161041c575b508660806103858b610b5b565b518a51908b825260138c830152722a2920a729a322a92922a22faa27afa820a4a960691b606083015289820152a188610f75565b855191820191821161040957506100fd9550906103d860809286610b8e565b51845191858352600d868401526c535741505f434f4d504c45544560981b6060840152820152a15191829182610a81565b634e487b7160e01b815260118752602490fd5b61043b90873d8911610442575b61043381836109d9565b810190610f5d565b508a610378565b503d610429565b88513d86823e3d90fd5b61034891955061047890893d8b1161047f575b61047081836109d9565b810190610bb1565b949061033e565b503d610466565b8a513d88823e3d90fd5b610499906109af565b6104a457848c610277565b8480fd5b8580fd5b634e487b7160e01b855260118b52602485fd5b600080fd5b8280fd5b9050346104c45760a03660031901126104c45780359167ffffffffffffffff6044358181116104a8576104fe9036908501610a13565b926064359360018060a01b039283861680960361097c579660809495969761052a426084351015610eea565b6105858388519a898c5260108a8d01526f1513d2d15397d4d5d05417d4d510549560821b60608d015260209b818d8201527fc790f6e6c9e1ab14edf1e36c8df3b4e3afb43bc6c06d3259bb226ba90307c693998a91a1610be4565b9788519360001990818601958611610969576105a98b610217602498893592610b8e565b6105fb8c896105b784610b5b565b51168a6105c385610b7e565b518e5163e6a4390560e01b81526001600160a01b039384168d8201908152929091169092166020820152909283918291604090910190565b03818c7f0000000000000000000000000000000000000000000000000000000000000000165afa90811561093f578b8a928f928f8a908d928294610949575b50606493948d6106558961064d8c610b5b565b511693610b5b565b51915198899788966323b872dd60e01b88523390880152169085015260448401525af190811561093f578691610922575b50156108e0576106d5908960808c8f8f61069f90610b5b565b51906014835193808552840152731514905394d1915494915117d19493d357d093d560621b6060840152820152a130908c610f75565b89518181019081116108ce5760808a8d6106f08c948f610b8e565b519060168351938085528401527558594b5f455845435554494f4e5f434f4d504c45544560501b6060840152820152a189519081019081116108bb57610736908a610b8e565b51957f000000000000000000000000000000000000000000000000000000000000000016803b156108b757838091868b5180948193632e1a7d4d60e01b83528c8c8401525af180156108ad57898c8994938b9361088f575b5093869493859493608084848897600e899851938085528401526d2ba227292faba4aa24222920aba760911b6060840152820152a15af1913d15610888573d918211610874578751916107ea601f8201601f19168c01846109d9565b8252893d92013e5b156108325750506100fd94608091845191858352600f868401526e11139497d4d1539517d513d7d093d5608a1b6060840152820152a15191829182610a81565b845162461bcd60e51b8152918201879052601c908201527f4b6f7274616e613a204554485f5452414e534645525f4641494c4544000000006044820152606490fd5b83604186634e487b7160e01b600052526000fd5b50506107f2565b938593976108a16080979394966109af565b9793509391909461078e565b89513d86823e3d90fd5b8380fd5b5050634e487b7160e01b82525060118352fd5b634e487b7160e01b8552601187528585fd5b895162461bcd60e51b81528088018d90526018818801527f4b6f7274616e613a205452414e534645525f4641494c454400000000000000006044820152606490fd5b61093991508d803d106104425761043381836109d9565b38610686565b8b513d88823e3d90fd5b6064945061096390873d891161047f5761047081836109d9565b9361063a565b634e487b7160e01b855260118752602485fd5b8780fd5b82843461010157606036600319011261010157506109a8602092604435906024359035610abc565b9051908152f35b67ffffffffffffffff81116109c357604052565b634e487b7160e01b600052604160045260246000fd5b90601f8019910116810190811067ffffffffffffffff8211176109c357604052565b67ffffffffffffffff81116109c35760051b60200190565b81601f820112156104bf57803591610a2a836109fb565b92610a3860405194856109d9565b808452602092838086019260051b8201019283116104bf578301905b828210610a62575050505090565b81356001600160a01b03811681036104bf578152908301908301610a54565b6020908160408183019282815285518094520193019160005b828110610aa8575050505090565b835185529381019392810192600101610a9a565b9190918015610b53578215808015610b4b575b610b42576103e5808302928084048203610b2c57840202928284041482151715610b2c576103e8808502948504141715610b2c578201809211610b2c578115610b16570490565b634e487b7160e01b600052601260045260246000fd5b634e487b7160e01b600052601160045260246000fd5b50505050600090565b508215610acf565b505050600090565b805115610b685760200190565b634e487b7160e01b600052603260045260246000fd5b805160011015610b685760400190565b8051821015610b685760209160051b010190565b6000198114610b2c5760010190565b908160209103126104bf57516001600160a01b03811681036104bf5790565b51906001600160701b03821682036104bf57565b906002815110610ead57809291925190610bfd826109fb565b91604090610c0d825194856109d9565b808452610c1c601f19916109fb565b013660208501378294610c2e84610b5b565b527f00000000000000000000000000000000000000000000000000000000000000006001600160a01b03169460005b83516000198101908111610b2c57811015610ea5576001600160a01b03610c848286610b8e565b5116600182018211610b2c57610ce460206001600160a01b03610caa6001860189610b8e565b51875163e6a4390560e01b81526001600160a01b039586166004808301919091529290911690941660248501529291829081906044820190565b03818c5afa908115610e9a57600091610e7b575b506001600160a01b0316908115610e45578451630240bc6b60e21b81529160609182848281855afa938415610de2576000938495610ded575b50602090506001600160a01b03610d48878b610b8e565b511692885192838092630dfe168160e01b82525afa908115610de25791610da69391610db9969593600091610dc3575b506001600160a01b031603610dbe57905b6001600160701b038091169116610da0848a610b8e565b51610abc565b610db36001830188610b8e565b52610ba2565b610c5d565b610d89565b610ddc915060203d60201161047f5761047081836109d9565b38610d78565b87513d6000823e3d90fd5b908094929550813d8311610e3e575b610e0681836109d9565b8101031261010157610e1783610bd0565b9087610e2560208601610bd0565b94015163ffffffff811603610101575091923880610d31565b503d610dfc565b606490602086519162461bcd60e51b8352820152601060248201526f25b7b93a30b7309d102727afa820a4a960811b6044820152fd5b610e94915060203d60201161047f5761047081836109d9565b38610cf8565b85513d6000823e3d90fd5b509450505050565b60405162461bcd60e51b8152602060048201526015602482015274096dee4e8c2dcc27440929cac82989288bea082a89605b1b6044820152606490fd5b15610ef157565b60405162461bcd60e51b8152602060048201526007602482015266115e1c1a5c995960ca1b6044820152606490fd5b15610f2757565b60405162461bcd60e51b815260206004820152600e60248201526d4f757470757420746f6f206c6f7760901b6044820152606490fd5b908160209103126104bf575180151581036104bf5790565b9192916001600160a01b037f00000000000000000000000000000000000000000000000000000000000000008116929160005b83516000198101908111610b2c5781101561126c5782610fc88286610b8e565b511660018201808311610b2c578185610fe18389610b8e565b516040805163e6a4390560e01b8082526001600160a01b039788166004808401919091529490931696871660248201529295909490926020929083818e81806044810103915afa908115610de257908b9160009161124f575b501694865192630dfe168160e01b845284848a818a5afa93841561124457908c91600095611221575b5061106e908c610b8e565b5193160361121957600091935b8b5160011981019081116111fc578910156112115760028901808a116111fc57908d898d8f88956110ab91610b8e565b518b519687526001600160a01b0394851692870192835216909216602083015283918290819060400103915afa9081156111f1576000916111d4575b505b85519383850185811067ffffffffffffffff8211176111bf57875260008552853b156104bf57908a91879895969493985198899663022c0d9f60e01b885287015260248601521660448401526080606484015283519081608485015260005b8281106111a8575050600080945083918260a49183838284010152601f801991011681010301925af190811561119e57509061118a929161118f575b50610ba2565b610fa8565b611198906109af565b38611184565b513d6000823e3d90fd5b80860182015188820160a401528794508101611148565b604189634e487b7160e01b6000525260246000fd5b6111eb9150833d851161047f5761047081836109d9565b386110e7565b86513d6000823e3d90fd5b601189634e487b7160e01b6000525260246000fd5b50508c6110e9565b60009361107b565b61106e91955061123d90873d891161047f5761047081836109d9565b9490611063565b88513d6000823e3d90fd5b6112669150853d871161047f5761047081836109d9565b3861103a565b5050505050905056fea26469706673582212200c6d0705966528e303127d4a7e4a9cb2a97e9511fe88e27d0adcc0610cffed4a64736f6c63430008140033","opcodes":"PUSH1 0xC0 CALLVALUE PUSH2 0xA3 JUMPI PUSH1 0x1F PUSH2 0x137E CODESIZE DUP2 SWAP1 SUB SWAP2 DUP3 ADD PUSH1 0x1F NOT AND DUP4 ADD SWAP2 PUSH1 0x1 PUSH1 0x1 PUSH1 0x40 SHL SUB DUP4 GT DUP5 DUP5 LT OR PUSH2 0xA8 JUMPI DUP1 DUP5 SWAP3 PUSH1 0x40 SWAP5 DUP6 MSTORE DUP4 CODECOPY DUP2 ADD SUB SLT PUSH2 0xA3 JUMPI PUSH2 0x52 PUSH1 0x20 PUSH2 0x4B DUP4 PUSH2 0xBE JUMP JUMPDEST SWAP3 ADD PUSH2 0xBE JUMP JUMPDEST SWAP1 PUSH1 0x80 MSTORE PUSH1 0xA0 MSTORE PUSH1 0x40 MLOAD PUSH2 0x12AB SWAP1 DUP2 PUSH2 0xD3 DUP3 CODECOPY PUSH1 0x80 MLOAD DUP2 DUP2 DUP2 PUSH2 0x119 ADD MSTORE DUP2 DUP2 PUSH2 0x303 ADD MSTORE DUP2 DUP2 PUSH2 0x600 ADD MSTORE DUP2 DUP2 PUSH2 0xC31 ADD MSTORE PUSH2 0xF82 ADD MSTORE PUSH1 0xA0 MLOAD DUP2 DUP2 DUP2 PUSH1 0x7E ADD MSTORE DUP2 DUP2 PUSH2 0x222 ADD MSTORE PUSH2 0x73A ADD MSTORE RETURN JUMPDEST PUSH1 0x0 DUP1 REVERT JUMPDEST PUSH4 0x4E487B71 PUSH1 0xE0 SHL PUSH1 0x0 MSTORE PUSH1 0x41 PUSH1 0x4 MSTORE PUSH1 0x24 PUSH1 0x0 REVERT JUMPDEST MLOAD SWAP1 PUSH1 0x1 PUSH1 0x1 PUSH1 0xA0 SHL SUB DUP3 AND DUP3 SUB PUSH2 0xA3 JUMPI JUMP INVALID PUSH1 0x40 PUSH1 0x80 DUP2 MSTORE PUSH1 0x4 SWAP1 DUP2 CALLDATASIZE LT ISZERO PUSH2 0x20 JUMPI JUMPDEST POP POP CALLDATASIZE ISZERO PUSH2 0x1E JUMPI PUSH1 0x0 DUP1 REVERT JUMPDEST STOP JUMPDEST PUSH1 0x0 SWAP2 DUP3 CALLDATALOAD PUSH1 0xE0 SHR SWAP1 DUP2 PUSH4 0x54D50D4 EQ PUSH2 0x980 JUMPI DUP2 PUSH4 0x4A89FFEC EQ PUSH2 0x4C8 JUMPI DUP2 PUSH4 0x7EBFE0FD EQ PUSH2 0x148 JUMPI DUP2 PUSH4 0xC45A0155 EQ PUSH2 0x104 JUMPI DUP2 PUSH4 0xD06CA61F EQ PUSH2 0xB1 JUMPI POP PUSH4 0xD2D8D32F SUB PUSH2 0x11 JUMPI CALLVALUE PUSH2 0xAD JUMPI DUP2 PUSH1 0x3 NOT CALLDATASIZE ADD SLT PUSH2 0xAD JUMPI MLOAD PUSH32 0x0 PUSH1 0x1 PUSH1 0x1 PUSH1 0xA0 SHL SUB AND DUP2 MSTORE PUSH1 0x20 SWAP1 RETURN JUMPDEST POP DUP1 REVERT JUMPDEST DUP3 DUP5 CALLVALUE PUSH2 0x101 JUMPI DUP2 PUSH1 0x3 NOT CALLDATASIZE ADD SLT PUSH2 0x101 JUMPI PUSH1 0x24 CALLDATALOAD SWAP1 PUSH8 0xFFFFFFFFFFFFFFFF DUP3 GT PUSH2 0x101 JUMPI POP PUSH2 0xFD SWAP3 PUSH2 0xEB PUSH2 0xF2 SWAP3 CALLDATASIZE SWAP1 DUP4 ADD PUSH2 0xA13 JUMP JUMPDEST SWAP1 CALLDATALOAD PUSH2 0xBE4 JUMP JUMPDEST SWAP1 MLOAD SWAP2 DUP3 SWAP2 DUP3 PUSH2 0xA81 JUMP JUMPDEST SUB SWAP1 RETURN JUMPDEST DUP1 REVERT JUMPDEST POP POP CALLVALUE PUSH2 0xAD JUMPI DUP2 PUSH1 0x3 NOT CALLDATASIZE ADD SLT PUSH2 0xAD JUMPI MLOAD PUSH32 0x0 PUSH1 0x1 PUSH1 0x1 PUSH1 0xA0 SHL SUB AND DUP2 MSTORE PUSH1 0x20 SWAP1 RETURN JUMPDEST DUP4 DUP4 PUSH1 0x80 CALLDATASIZE PUSH1 0x3 NOT ADD SLT PUSH2 0xAD JUMPI PUSH1 0x24 CALLDATALOAD PUSH8 0xFFFFFFFFFFFFFFFF DUP2 GT PUSH2 0x4C4 JUMPI PUSH2 0x175 SWAP1 CALLDATASIZE SWAP1 DUP6 ADD PUSH2 0xA13 JUMP JUMPDEST SWAP2 PUSH1 0x44 CALLDATALOAD PUSH1 0x1 PUSH1 0x1 PUSH1 0xA0 SHL SUB DUP1 DUP3 AND DUP3 SUB PUSH2 0x4BF JUMPI PUSH1 0x80 SWAP3 PUSH2 0x19B TIMESTAMP PUSH1 0x64 CALLDATALOAD LT ISZERO PUSH2 0xEEA JUMP JUMPDEST DUP5 MLOAD SWAP3 DUP6 DUP5 MSTORE PUSH1 0xE DUP7 DUP6 ADD MSTORE PUSH14 0x11139497D4D5D05417D4D5105495 PUSH1 0x92 SHL PUSH1 0x60 DUP6 ADD MSTORE PUSH1 0x20 SWAP4 CALLVALUE DUP6 DUP3 ADD MSTORE PUSH32 0xC790F6E6C9E1AB14EDF1E36C8DF3B4E3AFB43BC6C06D3259BB226BA90307C693 SWAP6 DUP7 SWAP2 LOG1 PUSH2 0x1F5 DUP8 CALLVALUE PUSH2 0xBE4 JUMP JUMPDEST SWAP7 DUP8 MLOAD SWAP4 PUSH1 0x0 NOT SWAP5 DUP6 DUP2 ADD SWAP1 DUP2 GT PUSH2 0x4AC JUMPI PUSH2 0x21F SWAP1 PUSH2 0x217 DUP13 CALLDATALOAD SWAP2 DUP13 PUSH2 0xB8E JUMP JUMPDEST MLOAD LT ISZERO PUSH2 0xF20 JUMP JUMPDEST DUP1 PUSH32 0x0 AND PUSH2 0x24B DUP11 PUSH2 0xB5B JUMP JUMPDEST MLOAD DUP2 EXTCODESIZE ISZERO PUSH2 0x4A8 JUMPI DUP6 DUP13 SWAP2 DUP12 MLOAD SWAP3 DUP4 DUP1 SWAP3 PUSH4 0xD0E30DB PUSH1 0xE4 SHL DUP3 MSTORE DUP7 GAS CALL DUP1 ISZERO PUSH2 0x486 JUMPI SWAP1 DUP7 SWAP2 PUSH2 0x490 JUMPI JUMPDEST POP POP DUP8 PUSH1 0x80 PUSH2 0x285 DUP13 PUSH2 0xB5B JUMP JUMPDEST MLOAD DUP12 MLOAD SWAP1 DUP13 DUP3 MSTORE PUSH1 0xE DUP14 DUP4 ADD MSTORE PUSH14 0x2222A827A9A4AA22A22FABA22729 PUSH1 0x91 SHL PUSH1 0x60 DUP4 ADD MSTORE DUP11 DUP3 ADD MSTORE LOG1 DUP2 PUSH2 0x2B8 DUP5 PUSH2 0xB5B JUMP JUMPDEST MLOAD AND SWAP1 DUP8 DUP4 PUSH2 0x2C6 DUP7 PUSH2 0xB7E JUMP JUMPDEST MLOAD AND SWAP3 DUP14 PUSH2 0x2FE DUP14 MLOAD SWAP6 DUP7 SWAP4 DUP5 SWAP4 PUSH4 0xE6A43905 PUSH1 0xE0 SHL DUP6 MSTORE DUP5 ADD SWAP1 PUSH1 0x20 SWAP1 SWAP4 SWAP3 SWAP4 PUSH1 0x40 DUP4 ADD SWAP5 PUSH1 0x1 DUP1 PUSH1 0xA0 SHL SUB DUP1 SWAP3 AND DUP5 MSTORE AND SWAP2 ADD MSTORE JUMP JUMPDEST SUB DUP2 DUP7 PUSH32 0x0 AND GAS STATICCALL SWAP2 DUP3 ISZERO PUSH2 0x486 JUMPI DUP9 SWAP3 DUP8 DUP15 SWAP6 SWAP4 DUP14 DUP16 PUSH1 0x44 SWAP6 DUP5 SWAP6 PUSH2 0x453 JUMPI JUMPDEST POP PUSH2 0x348 SWAP1 PUSH2 0xB5B JUMP JUMPDEST MLOAD SWAP1 MLOAD SWAP8 DUP9 SWAP7 DUP8 SWAP6 PUSH4 0xA9059CBB PUSH1 0xE0 SHL DUP8 MSTORE AND SWAP1 DUP6 ADD MSTORE PUSH1 0x24 DUP5 ADD MSTORE GAS CALL DUP1 ISZERO PUSH2 0x449 JUMPI SWAP1 PUSH2 0x3B9 SWAP4 SWAP3 SWAP2 PUSH2 0x41C JUMPI JUMPDEST POP DUP7 PUSH1 0x80 PUSH2 0x385 DUP12 PUSH2 0xB5B JUMP JUMPDEST MLOAD DUP11 MLOAD SWAP1 DUP12 DUP3 MSTORE PUSH1 0x13 DUP13 DUP4 ADD MSTORE PUSH19 0x2A2920A729A322A92922A22FAA27AFA820A4A9 PUSH1 0x69 SHL PUSH1 0x60 DUP4 ADD MSTORE DUP10 DUP3 ADD MSTORE LOG1 DUP9 PUSH2 0xF75 JUMP JUMPDEST DUP6 MLOAD SWAP2 DUP3 ADD SWAP2 DUP3 GT PUSH2 0x409 JUMPI POP PUSH2 0xFD SWAP6 POP SWAP1 PUSH2 0x3D8 PUSH1 0x80 SWAP3 DUP7 PUSH2 0xB8E JUMP JUMPDEST MLOAD DUP5 MLOAD SWAP2 DUP6 DUP4 MSTORE PUSH1 0xD DUP7 DUP5 ADD MSTORE PUSH13 0x535741505F434F4D504C455445 PUSH1 0x98 SHL PUSH1 0x60 DUP5 ADD MSTORE DUP3 ADD MSTORE LOG1 MLOAD SWAP2 DUP3 SWAP2 DUP3 PUSH2 0xA81 JUMP JUMPDEST PUSH4 0x4E487B71 PUSH1 0xE0 SHL DUP2 MSTORE PUSH1 0x11 DUP8 MSTORE PUSH1 0x24 SWAP1 REVERT JUMPDEST PUSH2 0x43B SWAP1 DUP8 RETURNDATASIZE DUP10 GT PUSH2 0x442 JUMPI JUMPDEST PUSH2 0x433 DUP2 DUP4 PUSH2 0x9D9 JUMP JUMPDEST DUP2 ADD SWAP1 PUSH2 0xF5D JUMP JUMPDEST POP DUP11 PUSH2 0x378 JUMP JUMPDEST POP RETURNDATASIZE PUSH2 0x429 JUMP JUMPDEST DUP9 MLOAD RETURNDATASIZE DUP7 DUP3 RETURNDATACOPY RETURNDATASIZE SWAP1 REVERT JUMPDEST PUSH2 0x348 SWAP2 SWAP6 POP PUSH2 0x478 SWAP1 DUP10 RETURNDATASIZE DUP12 GT PUSH2 0x47F JUMPI JUMPDEST PUSH2 0x470 DUP2 DUP4 PUSH2 0x9D9 JUMP JUMPDEST DUP2 ADD SWAP1 PUSH2 0xBB1 JUMP JUMPDEST SWAP5 SWAP1 PUSH2 0x33E JUMP JUMPDEST POP RETURNDATASIZE PUSH2 0x466 JUMP JUMPDEST DUP11 MLOAD RETURNDATASIZE DUP9 DUP3 RETURNDATACOPY RETURNDATASIZE SWAP1 REVERT JUMPDEST PUSH2 0x499 SWAP1 PUSH2 0x9AF JUMP JUMPDEST PUSH2 0x4A4 JUMPI DUP5 DUP13 PUSH2 0x277 JUMP JUMPDEST DUP5 DUP1 REVERT JUMPDEST DUP6 DUP1 REVERT JUMPDEST PUSH4 0x4E487B71 PUSH1 0xE0 SHL DUP6 MSTORE PUSH1 0x11 DUP12 MSTORE PUSH1 0x24 DUP6 REVERT JUMPDEST PUSH1 0x0 DUP1 REVERT JUMPDEST DUP3 DUP1 REVERT JUMPDEST SWAP1 POP CALLVALUE PUSH2 0x4C4 JUMPI PUSH1 0xA0 CALLDATASIZE PUSH1 0x3 NOT ADD SLT PUSH2 0x4C4 JUMPI DUP1 CALLDATALOAD SWAP2 PUSH8 0xFFFFFFFFFFFFFFFF PUSH1 0x44 CALLDATALOAD DUP2 DUP2 GT PUSH2 0x4A8 JUMPI PUSH2 0x4FE SWAP1 CALLDATASIZE SWAP1 DUP6 ADD PUSH2 0xA13 JUMP JUMPDEST SWAP3 PUSH1 0x64 CALLDATALOAD SWAP4 PUSH1 0x1 DUP1 PUSH1 0xA0 SHL SUB SWAP3 DUP4 DUP7 AND DUP1 SWAP7 SUB PUSH2 0x97C JUMPI SWAP7 PUSH1 0x80 SWAP5 SWAP6 SWAP7 SWAP8 PUSH2 0x52A TIMESTAMP PUSH1 0x84 CALLDATALOAD LT ISZERO PUSH2 0xEEA JUMP JUMPDEST PUSH2 0x585 DUP4 DUP9 MLOAD SWAP11 DUP10 DUP13 MSTORE PUSH1 0x10 DUP11 DUP14 ADD MSTORE PUSH16 0x1513D2D15397D4D5D05417D4D5105495 PUSH1 0x82 SHL PUSH1 0x60 DUP14 ADD MSTORE PUSH1 0x20 SWAP12 DUP2 DUP14 DUP3 ADD MSTORE PUSH32 0xC790F6E6C9E1AB14EDF1E36C8DF3B4E3AFB43BC6C06D3259BB226BA90307C693 SWAP10 DUP11 SWAP2 LOG1 PUSH2 0xBE4 JUMP JUMPDEST SWAP8 DUP9 MLOAD SWAP4 PUSH1 0x0 NOT SWAP1 DUP2 DUP7 ADD SWAP6 DUP7 GT PUSH2 0x969 JUMPI PUSH2 0x5A9 DUP12 PUSH2 0x217 PUSH1 0x24 SWAP9 DUP10 CALLDATALOAD SWAP3 PUSH2 0xB8E JUMP JUMPDEST PUSH2 0x5FB DUP13 DUP10 PUSH2 0x5B7 DUP5 PUSH2 0xB5B JUMP JUMPDEST MLOAD AND DUP11 PUSH2 0x5C3 DUP6 PUSH2 0xB7E JUMP JUMPDEST MLOAD DUP15 MLOAD PUSH4 0xE6A43905 PUSH1 0xE0 SHL DUP2 MSTORE PUSH1 0x1 PUSH1 0x1 PUSH1 0xA0 SHL SUB SWAP4 DUP5 AND DUP14 DUP3 ADD SWAP1 DUP2 MSTORE SWAP3 SWAP1 SWAP2 AND SWAP1 SWAP3 AND PUSH1 0x20 DUP3 ADD MSTORE SWAP1 SWAP3 DUP4 SWAP2 DUP3 SWAP2 PUSH1 0x40 SWAP1 SWAP2 ADD SWAP1 JUMP JUMPDEST SUB DUP2 DUP13 PUSH32 0x0 AND GAS STATICCALL SWAP1 DUP2 ISZERO PUSH2 0x93F JUMPI DUP12 DUP11 SWAP3 DUP16 SWAP3 DUP16 DUP11 SWAP1 DUP14 SWAP3 DUP3 SWAP5 PUSH2 0x949 JUMPI JUMPDEST POP PUSH1 0x64 SWAP4 SWAP5 DUP14 PUSH2 0x655 DUP10 PUSH2 0x64D DUP13 PUSH2 0xB5B JUMP JUMPDEST MLOAD AND SWAP4 PUSH2 0xB5B JUMP JUMPDEST MLOAD SWAP2 MLOAD SWAP9 DUP10 SWAP8 DUP9 SWAP7 PUSH4 0x23B872DD PUSH1 0xE0 SHL DUP9 MSTORE CALLER SWAP1 DUP9 ADD MSTORE AND SWAP1 DUP6 ADD MSTORE PUSH1 0x44 DUP5 ADD MSTORE GAS CALL SWAP1 DUP2 ISZERO PUSH2 0x93F JUMPI DUP7 SWAP2 PUSH2 0x922 JUMPI JUMPDEST POP ISZERO PUSH2 0x8E0 JUMPI PUSH2 0x6D5 SWAP1 DUP10 PUSH1 0x80 DUP13 DUP16 DUP16 PUSH2 0x69F SWAP1 PUSH2 0xB5B JUMP JUMPDEST MLOAD SWAP1 PUSH1 0x14 DUP4 MLOAD SWAP4 DUP1 DUP6 MSTORE DUP5 ADD MSTORE PUSH20 0x1514905394D1915494915117D19493D357D093D5 PUSH1 0x62 SHL PUSH1 0x60 DUP5 ADD MSTORE DUP3 ADD MSTORE LOG1 ADDRESS SWAP1 DUP13 PUSH2 0xF75 JUMP JUMPDEST DUP10 MLOAD DUP2 DUP2 ADD SWAP1 DUP2 GT PUSH2 0x8CE JUMPI PUSH1 0x80 DUP11 DUP14 PUSH2 0x6F0 DUP13 SWAP5 DUP16 PUSH2 0xB8E JUMP JUMPDEST MLOAD SWAP1 PUSH1 0x16 DUP4 MLOAD SWAP4 DUP1 DUP6 MSTORE DUP5 ADD MSTORE PUSH22 0x58594B5F455845435554494F4E5F434F4D504C455445 PUSH1 0x50 SHL PUSH1 0x60 DUP5 ADD MSTORE DUP3 ADD MSTORE LOG1 DUP10 MLOAD SWAP1 DUP2 ADD SWAP1 DUP2 GT PUSH2 0x8BB JUMPI PUSH2 0x736 SWAP1 DUP11 PUSH2 0xB8E JUMP JUMPDEST MLOAD SWAP6 PUSH32 0x0 AND DUP1 EXTCODESIZE ISZERO PUSH2 0x8B7 JUMPI DUP4 DUP1 SWAP2 DUP7 DUP12 MLOAD DUP1 SWAP5 DUP2 SWAP4 PUSH4 0x2E1A7D4D PUSH1 0xE0 SHL DUP4 MSTORE DUP13 DUP13 DUP5 ADD MSTORE GAS CALL DUP1 ISZERO PUSH2 0x8AD JUMPI DUP10 DUP13 DUP10 SWAP5 SWAP4 DUP12 SWAP4 PUSH2 0x88F JUMPI JUMPDEST POP SWAP4 DUP7 SWAP5 SWAP4 DUP6 SWAP5 SWAP4 PUSH1 0x80 DUP5 DUP5 DUP9 SWAP8 PUSH1 0xE DUP10 SWAP9 MLOAD SWAP4 DUP1 DUP6 MSTORE DUP5 ADD MSTORE PUSH14 0x2BA227292FABA4AA24222920ABA7 PUSH1 0x91 SHL PUSH1 0x60 DUP5 ADD MSTORE DUP3 ADD MSTORE LOG1 GAS CALL SWAP2 RETURNDATASIZE ISZERO PUSH2 0x888 JUMPI RETURNDATASIZE SWAP2 DUP3 GT PUSH2 0x874 JUMPI DUP8 MLOAD SWAP2 PUSH2 0x7EA PUSH1 0x1F DUP3 ADD PUSH1 0x1F NOT AND DUP13 ADD DUP5 PUSH2 0x9D9 JUMP JUMPDEST DUP3 MSTORE DUP10 RETURNDATASIZE SWAP3 ADD RETURNDATACOPY JUMPDEST ISZERO PUSH2 0x832 JUMPI POP POP PUSH2 0xFD SWAP5 PUSH1 0x80 SWAP2 DUP5 MLOAD SWAP2 DUP6 DUP4 MSTORE PUSH1 0xF DUP7 DUP5 ADD MSTORE PUSH15 0x11139497D4D1539517D513D7D093D5 PUSH1 0x8A SHL PUSH1 0x60 DUP5 ADD MSTORE DUP3 ADD MSTORE LOG1 MLOAD SWAP2 DUP3 SWAP2 DUP3 PUSH2 0xA81 JUMP JUMPDEST DUP5 MLOAD PUSH3 0x461BCD PUSH1 0xE5 SHL DUP2 MSTORE SWAP2 DUP3 ADD DUP8 SWAP1 MSTORE PUSH1 0x1C SWAP1 DUP3 ADD MSTORE PUSH32 0x4B6F7274616E613A204554485F5452414E534645525F4641494C454400000000 PUSH1 0x44 DUP3 ADD MSTORE PUSH1 0x64 SWAP1 REVERT JUMPDEST DUP4 PUSH1 0x41 DUP7 PUSH4 0x4E487B71 PUSH1 0xE0 SHL PUSH1 0x0 MSTORE MSTORE PUSH1 0x0 REVERT JUMPDEST POP POP PUSH2 0x7F2 JUMP JUMPDEST SWAP4 DUP6 SWAP4 SWAP8 PUSH2 0x8A1 PUSH1 0x80 SWAP8 SWAP4 SWAP5 SWAP7 PUSH2 0x9AF JUMP JUMPDEST SWAP8 SWAP4 POP SWAP4 SWAP2 SWAP1 SWAP5 PUSH2 0x78E JUMP JUMPDEST DUP10 MLOAD RETURNDATASIZE DUP7 DUP3 RETURNDATACOPY RETURNDATASIZE SWAP1 REVERT JUMPDEST DUP4 DUP1 REVERT JUMPDEST POP POP PUSH4 0x4E487B71 PUSH1 0xE0 SHL DUP3 MSTORE POP PUSH1 0x11 DUP4 MSTORE REVERT JUMPDEST PUSH4 0x4E487B71 PUSH1 0xE0 SHL DUP6 MSTORE PUSH1 0x11 DUP8 MSTORE DUP6 DUP6 REVERT JUMPDEST DUP10 MLOAD PUSH3 0x461BCD PUSH1 0xE5 SHL DUP2 MSTORE DUP1 DUP9 ADD DUP14 SWAP1 MSTORE PUSH1 0x18 DUP2 DUP9 ADD MSTORE PUSH32 0x4B6F7274616E613A205452414E534645525F4641494C45440000000000000000 PUSH1 0x44 DUP3 ADD MSTORE PUSH1 0x64 SWAP1 REVERT JUMPDEST PUSH2 0x939 SWAP2 POP DUP14 DUP1 RETURNDATASIZE LT PUSH2 0x442 JUMPI PUSH2 0x433 DUP2 DUP4 PUSH2 0x9D9 JUMP JUMPDEST CODESIZE PUSH2 0x686 JUMP JUMPDEST DUP12 MLOAD RETURNDATASIZE DUP9 DUP3 RETURNDATACOPY RETURNDATASIZE SWAP1 REVERT JUMPDEST PUSH1 0x64 SWAP5 POP PUSH2 0x963 SWAP1 DUP8 RETURNDATASIZE DUP10 GT PUSH2 0x47F JUMPI PUSH2 0x470 DUP2 DUP4 PUSH2 0x9D9 JUMP JUMPDEST SWAP4 PUSH2 0x63A JUMP JUMPDEST PUSH4 0x4E487B71 PUSH1 0xE0 SHL DUP6 MSTORE PUSH1 0x11 DUP8 MSTORE PUSH1 0x24 DUP6 REVERT JUMPDEST DUP8 DUP1 REVERT JUMPDEST DUP3 DUP5 CALLVALUE PUSH2 0x101 JUMPI PUSH1 0x60 CALLDATASIZE PUSH1 0x3 NOT ADD SLT PUSH2 0x101 JUMPI POP PUSH2 0x9A8 PUSH1 0x20 SWAP3 PUSH1 0x44 CALLDATALOAD SWAP1 PUSH1 0x24 CALLDATALOAD SWAP1 CALLDATALOAD PUSH2 0xABC JUMP JUMPDEST SWAP1 MLOAD SWAP1 DUP2 MSTORE RETURN JUMPDEST PUSH8 0xFFFFFFFFFFFFFFFF DUP2 GT PUSH2 0x9C3 JUMPI PUSH1 0x40 MSTORE JUMP JUMPDEST PUSH4 0x4E487B71 PUSH1 0xE0 SHL PUSH1 0x0 MSTORE PUSH1 0x41 PUSH1 0x4 MSTORE PUSH1 0x24 PUSH1 0x0 REVERT JUMPDEST SWAP1 PUSH1 0x1F DUP1 NOT SWAP2 ADD AND DUP2 ADD SWAP1 DUP2 LT PUSH8 0xFFFFFFFFFFFFFFFF DUP3 GT OR PUSH2 0x9C3 JUMPI PUSH1 0x40 MSTORE JUMP JUMPDEST PUSH8 0xFFFFFFFFFFFFFFFF DUP2 GT PUSH2 0x9C3 JUMPI PUSH1 0x5 SHL PUSH1 0x20 ADD SWAP1 JUMP JUMPDEST DUP2 PUSH1 0x1F DUP3 ADD SLT ISZERO PUSH2 0x4BF JUMPI DUP1 CALLDATALOAD SWAP2 PUSH2 0xA2A DUP4 PUSH2 0x9FB JUMP JUMPDEST SWAP3 PUSH2 0xA38 PUSH1 0x40 MLOAD SWAP5 DUP6 PUSH2 0x9D9 JUMP JUMPDEST DUP1 DUP5 MSTORE PUSH1 0x20 SWAP3 DUP4 DUP1 DUP7 ADD SWAP3 PUSH1 0x5 SHL DUP3 ADD ADD SWAP3 DUP4 GT PUSH2 0x4BF JUMPI DUP4 ADD SWAP1 JUMPDEST DUP3 DUP3 LT PUSH2 0xA62 JUMPI POP POP POP POP SWAP1 JUMP JUMPDEST DUP2 CALLDATALOAD PUSH1 0x1 PUSH1 0x1 PUSH1 0xA0 SHL SUB DUP2 AND DUP2 SUB PUSH2 0x4BF JUMPI DUP2 MSTORE SWAP1 DUP4 ADD SWAP1 DUP4 ADD PUSH2 0xA54 JUMP JUMPDEST PUSH1 0x20 SWAP1 DUP2 PUSH1 0x40 DUP2 DUP4 ADD SWAP3 DUP3 DUP2 MSTORE DUP6 MLOAD DUP1 SWAP5 MSTORE ADD SWAP4 ADD SWAP2 PUSH1 0x0 JUMPDEST DUP3 DUP2 LT PUSH2 0xAA8 JUMPI POP POP POP POP SWAP1 JUMP JUMPDEST DUP4 MLOAD DUP6 MSTORE SWAP4 DUP2 ADD SWAP4 SWAP3 DUP2 ADD SWAP3 PUSH1 0x1 ADD PUSH2 0xA9A JUMP JUMPDEST SWAP2 SWAP1 SWAP2 DUP1 ISZERO PUSH2 0xB53 JUMPI DUP3 ISZERO DUP1 DUP1 ISZERO PUSH2 0xB4B JUMPI JUMPDEST PUSH2 0xB42 JUMPI PUSH2 0x3E5 DUP1 DUP4 MUL SWAP3 DUP1 DUP5 DIV DUP3 SUB PUSH2 0xB2C JUMPI DUP5 MUL MUL SWAP3 DUP3 DUP5 DIV EQ DUP3 ISZERO OR ISZERO PUSH2 0xB2C JUMPI PUSH2 0x3E8 DUP1 DUP6 MUL SWAP5 DUP6 DIV EQ OR ISZERO PUSH2 0xB2C JUMPI DUP3 ADD DUP1 SWAP3 GT PUSH2 0xB2C JUMPI DUP2 ISZERO PUSH2 0xB16 JUMPI DIV SWAP1 JUMP JUMPDEST PUSH4 0x4E487B71 PUSH1 0xE0 SHL PUSH1 0x0 MSTORE PUSH1 0x12 PUSH1 0x4 MSTORE PUSH1 0x24 PUSH1 0x0 REVERT JUMPDEST PUSH4 0x4E487B71 PUSH1 0xE0 SHL PUSH1 0x0 MSTORE PUSH1 0x11 PUSH1 0x4 MSTORE PUSH1 0x24 PUSH1 0x0 REVERT JUMPDEST POP POP POP POP PUSH1 0x0 SWAP1 JUMP JUMPDEST POP DUP3 ISZERO PUSH2 0xACF JUMP JUMPDEST POP POP POP PUSH1 0x0 SWAP1 JUMP JUMPDEST DUP1 MLOAD ISZERO PUSH2 0xB68 JUMPI PUSH1 0x20 ADD SWAP1 JUMP JUMPDEST PUSH4 0x4E487B71 PUSH1 0xE0 SHL PUSH1 0x0 MSTORE PUSH1 0x32 PUSH1 0x4 MSTORE PUSH1 0x24 PUSH1 0x0 REVERT JUMPDEST DUP1 MLOAD PUSH1 0x1 LT ISZERO PUSH2 0xB68 JUMPI PUSH1 0x40 ADD SWAP1 JUMP JUMPDEST DUP1 MLOAD DUP3 LT ISZERO PUSH2 0xB68 JUMPI PUSH1 0x20 SWAP2 PUSH1 0x5 SHL ADD ADD SWAP1 JUMP JUMPDEST PUSH1 0x0 NOT DUP2 EQ PUSH2 0xB2C JUMPI PUSH1 0x1 ADD SWAP1 JUMP JUMPDEST SWAP1 DUP2 PUSH1 0x20 SWAP2 SUB SLT PUSH2 0x4BF JUMPI MLOAD PUSH1 0x1 PUSH1 0x1 PUSH1 0xA0 SHL SUB DUP2 AND DUP2 SUB PUSH2 0x4BF JUMPI SWAP1 JUMP JUMPDEST MLOAD SWAP1 PUSH1 0x1 PUSH1 0x1 PUSH1 0x70 SHL SUB DUP3 AND DUP3 SUB PUSH2 0x4BF JUMPI JUMP JUMPDEST SWAP1 PUSH1 0x2 DUP2 MLOAD LT PUSH2 0xEAD JUMPI DUP1 SWAP3 SWAP2 SWAP3 MLOAD SWAP1 PUSH2 0xBFD DUP3 PUSH2 0x9FB JUMP JUMPDEST SWAP2 PUSH1 0x40 SWAP1 PUSH2 0xC0D DUP3 MLOAD SWAP5 DUP6 PUSH2 0x9D9 JUMP JUMPDEST DUP1 DUP5 MSTORE PUSH2 0xC1C PUSH1 0x1F NOT SWAP2 PUSH2 0x9FB JUMP JUMPDEST ADD CALLDATASIZE PUSH1 0x20 DUP6 ADD CALLDATACOPY DUP3 SWAP5 PUSH2 0xC2E DUP5 PUSH2 0xB5B JUMP JUMPDEST MSTORE PUSH32 0x0 PUSH1 0x1 PUSH1 0x1 PUSH1 0xA0 SHL SUB AND SWAP5 PUSH1 0x0 JUMPDEST DUP4 MLOAD PUSH1 0x0 NOT DUP2 ADD SWAP1 DUP2 GT PUSH2 0xB2C JUMPI DUP2 LT ISZERO PUSH2 0xEA5 JUMPI PUSH1 0x1 PUSH1 0x1 PUSH1 0xA0 SHL SUB PUSH2 0xC84 DUP3 DUP7 PUSH2 0xB8E JUMP JUMPDEST MLOAD AND PUSH1 0x1 DUP3 ADD DUP3 GT PUSH2 0xB2C JUMPI PUSH2 0xCE4 PUSH1 0x20 PUSH1 0x1 PUSH1 0x1 PUSH1 0xA0 SHL SUB PUSH2 0xCAA PUSH1 0x1 DUP7 ADD DUP10 PUSH2 0xB8E JUMP JUMPDEST MLOAD DUP8 MLOAD PUSH4 0xE6A43905 PUSH1 0xE0 SHL DUP2 MSTORE PUSH1 0x1 PUSH1 0x1 PUSH1 0xA0 SHL SUB SWAP6 DUP7 AND PUSH1 0x4 DUP1 DUP4 ADD SWAP2 SWAP1 SWAP2 MSTORE SWAP3 SWAP1 SWAP2 AND SWAP1 SWAP5 AND PUSH1 0x24 DUP6 ADD MSTORE SWAP3 SWAP2 DUP3 SWAP1 DUP2 SWAP1 PUSH1 0x44 DUP3 ADD SWAP1 JUMP JUMPDEST SUB DUP2 DUP13 GAS STATICCALL SWAP1 DUP2 ISZERO PUSH2 0xE9A JUMPI PUSH1 0x0 SWAP2 PUSH2 0xE7B JUMPI JUMPDEST POP PUSH1 0x1 PUSH1 0x1 PUSH1 0xA0 SHL SUB AND SWAP1 DUP2 ISZERO PUSH2 0xE45 JUMPI DUP5 MLOAD PUSH4 0x240BC6B PUSH1 0xE2 SHL DUP2 MSTORE SWAP2 PUSH1 0x60 SWAP2 DUP3 DUP5 DUP3 DUP2 DUP6 GAS STATICCALL SWAP4 DUP5 ISZERO PUSH2 0xDE2 JUMPI PUSH1 0x0 SWAP4 DUP5 SWAP6 PUSH2 0xDED JUMPI JUMPDEST POP PUSH1 0x20 SWAP1 POP PUSH1 0x1 PUSH1 0x1 PUSH1 0xA0 SHL SUB PUSH2 0xD48 DUP8 DUP12 PUSH2 0xB8E JUMP JUMPDEST MLOAD AND SWAP3 DUP9 MLOAD SWAP3 DUP4 DUP1 SWAP3 PUSH4 0xDFE1681 PUSH1 0xE0 SHL DUP3 MSTORE GAS STATICCALL SWAP1 DUP2 ISZERO PUSH2 0xDE2 JUMPI SWAP2 PUSH2 0xDA6 SWAP4 SWAP2 PUSH2 0xDB9 SWAP7 SWAP6 SWAP4 PUSH1 0x0 SWAP2 PUSH2 0xDC3 JUMPI JUMPDEST POP PUSH1 0x1 PUSH1 0x1 PUSH1 0xA0 SHL SUB AND SUB PUSH2 0xDBE JUMPI SWAP1 JUMPDEST PUSH1 0x1 PUSH1 0x1 PUSH1 0x70 SHL SUB DUP1 SWAP2 AND SWAP2 AND PUSH2 0xDA0 DUP5 DUP11 PUSH2 0xB8E JUMP JUMPDEST MLOAD PUSH2 0xABC JUMP JUMPDEST PUSH2 0xDB3 PUSH1 0x1 DUP4 ADD DUP9 PUSH2 0xB8E JUMP JUMPDEST MSTORE PUSH2 0xBA2 JUMP JUMPDEST PUSH2 0xC5D JUMP JUMPDEST PUSH2 0xD89 JUMP JUMPDEST PUSH2 0xDDC SWAP2 POP PUSH1 0x20 RETURNDATASIZE PUSH1 0x20 GT PUSH2 0x47F JUMPI PUSH2 0x470 DUP2 DUP4 PUSH2 0x9D9 JUMP JUMPDEST CODESIZE PUSH2 0xD78 JUMP JUMPDEST DUP8 MLOAD RETURNDATASIZE PUSH1 0x0 DUP3 RETURNDATACOPY RETURNDATASIZE SWAP1 REVERT JUMPDEST SWAP1 DUP1 SWAP5 SWAP3 SWAP6 POP DUP2 RETURNDATASIZE DUP4 GT PUSH2 0xE3E JUMPI JUMPDEST PUSH2 0xE06 DUP2 DUP4 PUSH2 0x9D9 JUMP JUMPDEST DUP2 ADD SUB SLT PUSH2 0x101 JUMPI PUSH2 0xE17 DUP4 PUSH2 0xBD0 JUMP JUMPDEST SWAP1 DUP8 PUSH2 0xE25 PUSH1 0x20 DUP7 ADD PUSH2 0xBD0 JUMP JUMPDEST SWAP5 ADD MLOAD PUSH4 0xFFFFFFFF DUP2 AND SUB PUSH2 0x101 JUMPI POP SWAP2 SWAP3 CODESIZE DUP1 PUSH2 0xD31 JUMP JUMPDEST POP RETURNDATASIZE PUSH2 0xDFC JUMP JUMPDEST PUSH1 0x64 SWAP1 PUSH1 0x20 DUP7 MLOAD SWAP2 PUSH3 0x461BCD PUSH1 0xE5 SHL DUP4 MSTORE DUP3 ADD MSTORE PUSH1 0x10 PUSH1 0x24 DUP3 ADD MSTORE PUSH16 0x25B7B93A30B7309D102727AFA820A4A9 PUSH1 0x81 SHL PUSH1 0x44 DUP3 ADD MSTORE REVERT JUMPDEST PUSH2 0xE94 SWAP2 POP PUSH1 0x20 RETURNDATASIZE PUSH1 0x20 GT PUSH2 0x47F JUMPI PUSH2 0x470 DUP2 DUP4 PUSH2 0x9D9 JUMP JUMPDEST CODESIZE PUSH2 0xCF8 JUMP JUMPDEST DUP6 MLOAD RETURNDATASIZE PUSH1 0x0 DUP3 RETURNDATACOPY RETURNDATASIZE SWAP1 REVERT JUMPDEST POP SWAP5 POP POP POP POP JUMP JUMPDEST PUSH1 0x40 MLOAD PUSH3 0x461BCD PUSH1 0xE5 SHL DUP2 MSTORE PUSH1 0x20 PUSH1 0x4 DUP3 ADD MSTORE PUSH1 0x15 PUSH1 0x24 DUP3 ADD MSTORE PUSH21 0x96DEE4E8C2DCC27440929CAC82989288BEA082A89 PUSH1 0x5B SHL PUSH1 0x44 DUP3 ADD MSTORE PUSH1 0x64 SWAP1 REVERT JUMPDEST ISZERO PUSH2 0xEF1 JUMPI JUMP JUMPDEST PUSH1 0x40 MLOAD PUSH3 0x461BCD PUSH1 0xE5 SHL DUP2 MSTORE PUSH1 0x20 PUSH1 0x4 DUP3 ADD MSTORE PUSH1 0x7 PUSH1 0x24 DUP3 ADD MSTORE PUSH7 0x115E1C1A5C9959 PUSH1 0xCA SHL PUSH1 0x44 DUP3 ADD MSTORE PUSH1 0x64 SWAP1 REVERT JUMPDEST ISZERO PUSH2 0xF27 JUMPI JUMP JUMPDEST PUSH1 0x40 MLOAD PUSH3 0x461BCD PUSH1 0xE5 SHL DUP2 MSTORE PUSH1 0x20 PUSH1 0x4 DUP3 ADD MSTORE PUSH1 0xE PUSH1 0x24 DUP3 ADD MSTORE PUSH14 0x4F757470757420746F6F206C6F77 PUSH1 0x90 SHL PUSH1 0x44 DUP3 ADD MSTORE PUSH1 0x64 SWAP1 REVERT JUMPDEST SWAP1 DUP2 PUSH1 0x20 SWAP2 SUB SLT PUSH2 0x4BF JUMPI MLOAD DUP1 ISZERO ISZERO DUP2 SUB PUSH2 0x4BF JUMPI SWAP1 JUMP JUMPDEST SWAP2 SWAP3 SWAP2 PUSH1 0x1 PUSH1 0x1 PUSH1 0xA0 SHL SUB PUSH32 0x0 DUP2 AND SWAP3 SWAP2 PUSH1 0x0 JUMPDEST DUP4 MLOAD PUSH1 0x0 NOT DUP2 ADD SWAP1 DUP2 GT PUSH2 0xB2C JUMPI DUP2 LT ISZERO PUSH2 0x126C JUMPI DUP3 PUSH2 0xFC8 DUP3 DUP7 PUSH2 0xB8E JUMP JUMPDEST MLOAD AND PUSH1 0x1 DUP3 ADD DUP1 DUP4 GT PUSH2 0xB2C JUMPI DUP2 DUP6 PUSH2 0xFE1 DUP4 DUP10 PUSH2 0xB8E JUMP JUMPDEST MLOAD PUSH1 0x40 DUP1 MLOAD PUSH4 0xE6A43905 PUSH1 0xE0 SHL DUP1 DUP3 MSTORE PUSH1 0x1 PUSH1 0x1 PUSH1 0xA0 SHL SUB SWAP8 DUP9 AND PUSH1 0x4 DUP1 DUP5 ADD SWAP2 SWAP1 SWAP2 MSTORE SWAP5 SWAP1 SWAP4 AND SWAP7 DUP8 AND PUSH1 0x24 DUP3 ADD MSTORE SWAP3 SWAP6 SWAP1 SWAP5 SWAP1 SWAP3 PUSH1 0x20 SWAP3 SWAP1 DUP4 DUP2 DUP15 DUP2 DUP1 PUSH1 0x44 DUP2 ADD SUB SWAP2 GAS STATICCALL SWAP1 DUP2 ISZERO PUSH2 0xDE2 JUMPI SWAP1 DUP12 SWAP2 PUSH1 0x0 SWAP2 PUSH2 0x124F JUMPI JUMPDEST POP AND SWAP5 DUP7 MLOAD SWAP3 PUSH4 0xDFE1681 PUSH1 0xE0 SHL DUP5 MSTORE DUP5 DUP5 DUP11 DUP2 DUP11 GAS STATICCALL SWAP4 DUP5 ISZERO PUSH2 0x1244 JUMPI SWAP1 DUP13 SWAP2 PUSH1 0x0 SWAP6 PUSH2 0x1221 JUMPI JUMPDEST POP PUSH2 0x106E SWAP1 DUP13 PUSH2 0xB8E JUMP JUMPDEST MLOAD SWAP4 AND SUB PUSH2 0x1219 JUMPI PUSH1 0x0 SWAP2 SWAP4 JUMPDEST DUP12 MLOAD PUSH1 0x1 NOT DUP2 ADD SWAP1 DUP2 GT PUSH2 0x11FC JUMPI DUP10 LT ISZERO PUSH2 0x1211 JUMPI PUSH1 0x2 DUP10 ADD DUP1 DUP11 GT PUSH2 0x11FC JUMPI SWAP1 DUP14 DUP10 DUP14 DUP16 DUP9 SWAP6 PUSH2 0x10AB SWAP2 PUSH2 0xB8E JUMP JUMPDEST MLOAD DUP12 MLOAD SWAP7 DUP8 MSTORE PUSH1 0x1 PUSH1 0x1 PUSH1 0xA0 SHL SUB SWAP5 DUP6 AND SWAP3 DUP8 ADD SWAP3 DUP4 MSTORE AND SWAP1 SWAP3 AND PUSH1 0x20 DUP4 ADD MSTORE DUP4 SWAP2 DUP3 SWAP1 DUP2 SWAP1 PUSH1 0x40 ADD SUB SWAP2 GAS STATICCALL SWAP1 DUP2 ISZERO PUSH2 0x11F1 JUMPI PUSH1 0x0 SWAP2 PUSH2 0x11D4 JUMPI JUMPDEST POP JUMPDEST DUP6 MLOAD SWAP4 DUP4 DUP6 ADD DUP6 DUP2 LT PUSH8 0xFFFFFFFFFFFFFFFF DUP3 GT OR PUSH2 0x11BF JUMPI DUP8 MSTORE PUSH1 0x0 DUP6 MSTORE DUP6 EXTCODESIZE ISZERO PUSH2 0x4BF JUMPI SWAP1 DUP11 SWAP2 DUP8 SWAP9 SWAP6 SWAP7 SWAP5 SWAP4 SWAP9 MLOAD SWAP9 DUP10 SWAP7 PUSH4 0x22C0D9F PUSH1 0xE0 SHL DUP9 MSTORE DUP8 ADD MSTORE PUSH1 0x24 DUP7 ADD MSTORE AND PUSH1 0x44 DUP5 ADD MSTORE PUSH1 0x80 PUSH1 0x64 DUP5 ADD MSTORE DUP4 MLOAD SWAP1 DUP2 PUSH1 0x84 DUP6 ADD MSTORE PUSH1 0x0 JUMPDEST DUP3 DUP2 LT PUSH2 0x11A8 JUMPI POP POP PUSH1 0x0 DUP1 SWAP5 POP DUP4 SWAP2 DUP3 PUSH1 0xA4 SWAP2 DUP4 DUP4 DUP3 DUP5 ADD ADD MSTORE PUSH1 0x1F DUP1 NOT SWAP2 ADD AND DUP2 ADD SUB ADD SWAP3 GAS CALL SWAP1 DUP2 ISZERO PUSH2 0x119E JUMPI POP SWAP1 PUSH2 0x118A SWAP3 SWAP2 PUSH2 0x118F JUMPI JUMPDEST POP PUSH2 0xBA2 JUMP JUMPDEST PUSH2 0xFA8 JUMP JUMPDEST PUSH2 0x1198 SWAP1 PUSH2 0x9AF JUMP JUMPDEST CODESIZE PUSH2 0x1184 JUMP JUMPDEST MLOAD RETURNDATASIZE PUSH1 0x0 DUP3 RETURNDATACOPY RETURNDATASIZE SWAP1 REVERT JUMPDEST DUP1 DUP7 ADD DUP3 ADD MLOAD DUP9 DUP3 ADD PUSH1 0xA4 ADD MSTORE DUP8 SWAP5 POP DUP2 ADD PUSH2 0x1148 JUMP JUMPDEST PUSH1 0x41 DUP10 PUSH4 0x4E487B71 PUSH1 0xE0 SHL PUSH1 0x0 MSTORE MSTORE PUSH1 0x24 PUSH1 0x0 REVERT JUMPDEST PUSH2 0x11EB SWAP2 POP DUP4 RETURNDATASIZE DUP6 GT PUSH2 0x47F JUMPI PUSH2 0x470 DUP2 DUP4 PUSH2 0x9D9 JUMP JUMPDEST CODESIZE PUSH2 0x10E7 JUMP JUMPDEST DUP7 MLOAD RETURNDATASIZE PUSH1 0x0 DUP3 RETURNDATACOPY RETURNDATASIZE SWAP1 REVERT JUMPDEST PUSH1 0x11 DUP10 PUSH4 0x4E487B71 PUSH1 0xE0 SHL PUSH1 0x0 MSTORE MSTORE PUSH1 0x24 PUSH1 0x0 REVERT JUMPDEST POP POP DUP13 PUSH2 0x10E9 JUMP JUMPDEST PUSH1 0x0 SWAP4 PUSH2 0x107B JUMP JUMPDEST PUSH2 0x106E SWAP2 SWAP6 POP PUSH2 0x123D SWAP1 DUP8 RETURNDATASIZE DUP10 GT PUSH2 0x47F JUMPI PUSH2 0x470 DUP2 DUP4 PUSH2 0x9D9 JUMP JUMPDEST SWAP5 SWAP1 PUSH2 0x1063 JUMP JUMPDEST DUP9 MLOAD RETURNDATASIZE PUSH1 0x0 DUP3 RETURNDATACOPY RETURNDATASIZE SWAP1 REVERT JUMPDEST PUSH2 0x1266 SWAP2 POP DUP6 RETURNDATASIZE DUP8 GT PUSH2 0x47F JUMPI PUSH2 0x470 DUP2 DUP4 PUSH2 0x9D9 JUMP JUMPDEST CODESIZE PUSH2 0x103A JUMP JUMPDEST POP POP POP POP POP SWAP1 POP JUMP INVALID LOG2 PUSH5 0x6970667358 0x22 SLT KECCAK256 0xC PUSH14 0x705966528E303127D4A7E4A9CB2 0xA9 PUSH31 0x9511FE88E27D0ADCC0610CFFED4A64736F6C63430008140033000000000000 "},"methodIdentifiers":{"WDNR()":"d2d8d32f","factory()":"c45a0155","getAmountOut(uint256,uint256,uint256)":"054d50d4","getAmountsOut(uint256,address[])":"d06ca61f","swapExactDNRForTokens(uint256,address[],address,uint256)":"7ebfe0fd","swapExactTokensForDNR(uint256,uint256,address[],address,uint256)":"4a89ffec"}},"storageLayout":{"storage":[],"types":null}}}}