{"contracts/amm/KortanaRouter.sol":{"KortanaRouter":{"abi":[{"inputs":[{"internalType":"address","name":"_factory","type":"address"},{"internalType":"address","name":"_WDNR","type":"address"}],"stateMutability":"nonpayable","type":"constructor"},{"inputs":[],"name":"WDNR","outputs":[{"internalType":"address","name":"","type":"address"}],"stateMutability":"view","type":"function"},{"inputs":[],"name":"factory","outputs":[{"internalType":"address","name":"","type":"address"}],"stateMutability":"view","type":"function"},{"inputs":[{"internalType":"uint256","name":"amountIn","type":"uint256"},{"internalType":"address[]","name":"path","type":"address[]"}],"name":"getAmountsOut","outputs":[{"internalType":"uint256[]","name":"amounts","type":"uint256[]"}],"stateMutability":"view","type":"function"},{"inputs":[{"internalType":"uint256","name":"amountOutMin","type":"uint256"},{"internalType":"address[]","name":"path","type":"address[]"},{"internalType":"address","name":"to","type":"address"},{"internalType":"uint256","name":"deadline","type":"uint256"}],"name":"swapExactDNRForTokens","outputs":[{"internalType":"uint256[]","name":"amounts","type":"uint256[]"}],"stateMutability":"payable","type":"function"},{"inputs":[{"internalType":"uint256","name":"amountIn","type":"uint256"},{"internalType":"uint256","name":"amountOutMin","type":"uint256"},{"internalType":"address[]","name":"path","type":"address[]"},{"internalType":"address","name":"to","type":"address"},{"internalType":"uint256","name":"deadline","type":"uint256"}],"name":"swapExactTokensForDNR","outputs":[{"internalType":"uint256[]","name":"amounts","type":"uint256[]"}],"stateMutability":"nonpayable","type":"function"},{"stateMutability":"payable","type":"receive"}],"evm":{"bytecode":{"linkReferences":{},"object":"60c0346100a957601f6110d838819003918201601f19168301916001600160401b038311848410176100ae5780849260409485528339810103126100a957610052602061004b836100c4565b92016100c4565b9060805260a052604051610fff90816100d9823960805181818161011801528181610163015281816102210152818161044d0152610935015260a05181818160240152818160a7015281816101f701526104230152f35b600080fd5b634e487b7160e01b600052604160045260246000fd5b51906001600160a01b03821682036100a95756fe60406080815260049081361015610054575b5050361561001e57600080fd5b610052337f00000000000000000000000000000000000000000000000000000000000000006001600160a01b0316146107b4565b005b600091823560e01c9081634a89ffec146103a45781637ebfe0fd14610192578163c45a01551461014e578163d06ca61f146100da575063d2d8d32f0361001157346100d657816003193601126100d657517f00000000000000000000000000000000000000000000000000000000000000006001600160a01b03168152602090f35b5080fd5b82843461014b578160031936011261014b576024359067ffffffffffffffff821161014b57506101479261011461013c923690830161070b565b90357f0000000000000000000000000000000000000000000000000000000000000000610ca4565b905191829182610779565b0390f35b80fd5b5050346100d657816003193601126100d657517f00000000000000000000000000000000000000000000000000000000000000006001600160a01b03168152602090f35b91905060803660031901126103885760243567ffffffffffffffff811161037a576101c0903690840161070b565b6001600160a01b03926044359190848316830361039f576101e54260643510156107d1565b846101ef83610810565b511661021f867f000000000000000000000000000000000000000000000000000000000000000016809214610857565b7f00000000000000000000000000000000000000000000000000000000000000009561024c843489610ca4565b968751600019810190811161038c57906102758a9261026d8735918c610843565b51101561089b565b61027e89610810565b51843b15610388578286918a5192838092630d0e30db60e41b8252895af1801561037e57610361575b50926044916102d0602095856102bc8a610810565b5116866102c88b610833565b511691610bc6565b916102da8b610810565b518a51978896879563a9059cbb60e01b8752169085015260248401525af19081156103575761031f939291610319916101479891610329575b506107b4565b84610930565b5191829182610779565b61034a915060203d8111610350575b61034281836106d1565b8101906108f3565b38610313565b503d610338565b84513d88823e3d90fd5b9161036e819592936106a7565b61037a579290386102a7565b8380fd5b89513d85823e3d90fd5b8280fd5b634e487b7160e01b8a526011855260248afd5b600080fd5b839150346100d65760a03660031901126100d65767ffffffffffffffff916044358381116100d6576103d9903690840161070b565b6001600160a01b03939060643590858216820361037a576103fe4260843510156107d1565b805160001991908281019081116106945761041a889183610843565b51169061044b887f000000000000000000000000000000000000000000000000000000000000000016809314610857565b7f000000000000000000000000000000000000000000000000000000000000000061047882893583610ca4565b988951858101908111610681578897959391928c61026d9a9896946104a48e9460249d8e359187610843565b6104d36104cd826104b488610810565b511694836104c189610810565b5116846102c88a610833565b94610810565b519151936323b872dd60e01b85528d3390860152168b84015260448301528160648160209b8c945af180156106775790610516929161065a575b5030908b610930565b88518281019081116106485761052c908a610843565b51813b15610644578590888a838e519586948593632e1a7d4d60e01b85528401525af1801561063a57610627575b508751908101908111610615578380809361057682948c610843565b51905af1913d1561060e573d9182116105fa5787519161059f601f8201601f19168601846106d1565b8252833d92013e5b156105b9578451806101478682610779565b601c929350606494519362461bcd60e51b85528401528201527f4b4f5254414e413a204554485f5452414e534645525f4641494c4544000000006044820152fd5b84604187634e487b7160e01b600052526000fd5b50506105a7565b634e487b7160e01b8452601187528584fd5b610633909491946106a7565b928961055a565b8a513d87823e3d90fd5b8580fd5b634e487b7160e01b8652601189528786fd5b61067090893d8b116103505761034281836106d1565b508c61050d565b8c513d89823e3d90fd5b634e487b7160e01b895260118a52602489fd5b634e487b7160e01b865260118752602486fd5b67ffffffffffffffff81116106bb57604052565b634e487b7160e01b600052604160045260246000fd5b90601f8019910116810190811067ffffffffffffffff8211176106bb57604052565b67ffffffffffffffff81116106bb5760051b60200190565b81601f8201121561039f57803591610722836106f3565b9261073060405194856106d1565b808452602092838086019260051b82010192831161039f578301905b82821061075a575050505090565b81356001600160a01b038116810361039f57815290830190830161074c565b6020908160408183019282815285518094520193019160005b8281106107a0575050505090565b835185529381019392810192600101610792565b156107bb57565b634e487b7160e01b600052600160045260246000fd5b156107d857565b60405162461bcd60e51b815260206004820152601060248201526f12d3d4951053904e881156141254915160821b6044820152606490fd5b80511561081d5760200190565b634e487b7160e01b600052603260045260246000fd5b80516001101561081d5760400190565b805182101561081d5760209160051b010190565b1561085e57565b60405162461bcd60e51b81526020600482015260156024820152740969ea4a8829c827440929cac82989288bea082a89605b1b6044820152606490fd5b156108a257565b60405162461bcd60e51b815260206004820152602360248201527f4b4f5254414e413a20494e53554646494349454e545f4f55545055545f414d4f60448201526215539560ea1b6064820152608490fd5b9081602091031261039f5751801515810361039f5790565b600019811461091a5760010190565b634e487b7160e01b600052601160045260246000fd5b9092917f000000000000000000000000000000000000000000000000000000000000000060005b8551600019810190811161091a57811015610af9576001600160a01b038061097f8389610843565b511690600183019182841161091a5781610999848b610843565b511690826109b26109aa8484610b01565b50958a610843565b5194168103610af157600093915b8a51600119810190811161091a578490871015610ae557506002860180871161091a578491610a00836109f78f94610a0895610843565b5116828b610bc6565b935b89610bc6565b169160409384519260209283850185811067ffffffffffffffff8211176106bb57875260008552853b1561039f57865163022c0d9f60e01b8152600481019890985260248801521660448601526080606486015281516084860181905291928592909160005b828110610ace575050600080945083918260a49183838284010152601f801991011681010301925af1908115610ac4575090610ab09291610ab5575b5061090b565b610957565b610abe906106a7565b38610aaa565b513d6000823e3d90fd5b80860182015188820160a401528794508101610a6e565b90610a08908993610a02565b6000916109c0565b505050509050565b90916001600160a01b0391828416838216808214610b75571015610b7057925b91831615610b2b57565b60405162461bcd60e51b815260206004820152601c60248201527f4b6f7274616e614c6962726172793a205a45524f5f41444452455353000000006044820152606490fd5b610b21565b60405162461bcd60e51b815260206004820152602360248201527f4b6f7274616e614c6962726172793a204944454e544943414c5f41444452455360448201526253455360e81b6064820152608490fd5b60405163e6a4390560e01b81526001600160a01b03928316600482015292821660248401529192916020908490604490829085165afa928315610c9857600093610c5a575b50821615610c1557565b60405162461bcd60e51b815260206004820152601e60248201527f4b6f7274616e614c6962726172793a20504149525f4e4f545f464f554e4400006044820152606490fd5b6020939193813d8211610c90575b81610c75602093836106d1565b810103126100d6575190838216820361014b57509138610c0b565b3d9150610c68565b6040513d6000823e3d90fd5b909291926002845110610f84578351610cbc816106f3565b92604091610ccc835195866106d1565b808552610cdb601f19916106f3565b019260209336858701378490610cf086610810565b5260005b8751600019810190811161091a57811015610f7b576001600160a01b0380610d1c838b610843565b511690600183019182841161091a5781610d36848d610843565b51169082610d50610d478484610b01565b5093838a610bc6565b169088519384938493630240bc6b60e21b8552606094859160049788915afa958615610f70576000948597610f27575b50501603610f215791905b610d95858b610843565b518015610ecc578315801580610ec3575b15610e71576103e5808302928084048203610e5c57850202938285041482151715610e47576103e8808602958604141715610e32578301809311610e1d578215610e085750610e03939291610dfd91049189610843565b5261090b565b610cf4565b601290634e487b7160e01b6000525260246000fd5b601190634e487b7160e01b6000525260246000fd5b601182634e487b7160e01b6000525260246000fd5b601183634e487b7160e01b6000525260246000fd5b601185634e487b7160e01b6000525260246000fd5b895162461bcd60e51b81528084018c9052602660248201527f4b6f7274616e614c6962726172793a20494e53554646494349454e545f4c495160448201526555494449545960d01b6064820152608490fd5b50831515610da6565b885162461bcd60e51b81528083018b9052602960248201527f4b6f7274616e614c6962726172793a20494e53554646494349454e545f494e50604482015268155517d05353d5539560ba1b6064820152608490fd5b90610d8b565b908095929750813d8311610f69575b610f4081836106d1565b8101031261014b578351908b8d86015195015163ffffffff81160361014b575092943880610d80565b503d610f36565b8b513d6000823e3d90fd5b50955050505050565b60405162461bcd60e51b815260206004820152601c60248201527f4b6f7274616e614c6962726172793a20494e56414c49445f50415448000000006044820152606490fdfea2646970667358221220094f7e65578c2c5aff4aa0c6174f551beb24b2bfe372cfa30fa0c49977fd31c164736f6c63430008140033","opcodes":"PUSH1 0xC0 CALLVALUE PUSH2 0xA9 JUMPI PUSH1 0x1F PUSH2 0x10D8 CODESIZE DUP2 SWAP1 SUB SWAP2 DUP3 ADD PUSH1 0x1F NOT AND DUP4 ADD SWAP2 PUSH1 0x1 PUSH1 0x1 PUSH1 0x40 SHL SUB DUP4 GT DUP5 DUP5 LT OR PUSH2 0xAE JUMPI DUP1 DUP5 SWAP3 PUSH1 0x40 SWAP5 DUP6 MSTORE DUP4 CODECOPY DUP2 ADD SUB SLT PUSH2 0xA9 JUMPI PUSH2 0x52 PUSH1 0x20 PUSH2 0x4B DUP4 PUSH2 0xC4 JUMP JUMPDEST SWAP3 ADD PUSH2 0xC4 JUMP JUMPDEST SWAP1 PUSH1 0x80 MSTORE PUSH1 0xA0 MSTORE PUSH1 0x40 MLOAD PUSH2 0xFFF SWAP1 DUP2 PUSH2 0xD9 DUP3 CODECOPY PUSH1 0x80 MLOAD DUP2 DUP2 DUP2 PUSH2 0x118 ADD MSTORE DUP2 DUP2 PUSH2 0x163 ADD MSTORE DUP2 DUP2 PUSH2 0x221 ADD MSTORE DUP2 DUP2 PUSH2 0x44D ADD MSTORE PUSH2 0x935 ADD MSTORE PUSH1 0xA0 MLOAD DUP2 DUP2 DUP2 PUSH1 0x24 ADD MSTORE DUP2 DUP2 PUSH1 0xA7 ADD MSTORE DUP2 DUP2 PUSH2 0x1F7 ADD MSTORE PUSH2 0x423 ADD MSTORE RETURN JUMPDEST PUSH1 0x0 DUP1 REVERT JUMPDEST PUSH4 0x4E487B71 PUSH1 0xE0 SHL PUSH1 0x0 MSTORE PUSH1 0x41 PUSH1 0x4 MSTORE PUSH1 0x24 PUSH1 0x0 REVERT JUMPDEST MLOAD SWAP1 PUSH1 0x1 PUSH1 0x1 PUSH1 0xA0 SHL SUB DUP3 AND DUP3 SUB PUSH2 0xA9 JUMPI JUMP INVALID PUSH1 0x40 PUSH1 0x80 DUP2 MSTORE PUSH1 0x4 SWAP1 DUP2 CALLDATASIZE LT ISZERO PUSH2 0x54 JUMPI JUMPDEST POP POP CALLDATASIZE ISZERO PUSH2 0x1E JUMPI PUSH1 0x0 DUP1 REVERT JUMPDEST PUSH2 0x52 CALLER PUSH32 0x0 PUSH1 0x1 PUSH1 0x1 PUSH1 0xA0 SHL SUB AND EQ PUSH2 0x7B4 JUMP JUMPDEST STOP JUMPDEST PUSH1 0x0 SWAP2 DUP3 CALLDATALOAD PUSH1 0xE0 SHR SWAP1 DUP2 PUSH4 0x4A89FFEC EQ PUSH2 0x3A4 JUMPI DUP2 PUSH4 0x7EBFE0FD EQ PUSH2 0x192 JUMPI DUP2 PUSH4 0xC45A0155 EQ PUSH2 0x14E JUMPI DUP2 PUSH4 0xD06CA61F EQ PUSH2 0xDA JUMPI POP PUSH4 0xD2D8D32F SUB PUSH2 0x11 JUMPI CALLVALUE PUSH2 0xD6 JUMPI DUP2 PUSH1 0x3 NOT CALLDATASIZE ADD SLT PUSH2 0xD6 JUMPI MLOAD PUSH32 0x0 PUSH1 0x1 PUSH1 0x1 PUSH1 0xA0 SHL SUB AND DUP2 MSTORE PUSH1 0x20 SWAP1 RETURN JUMPDEST POP DUP1 REVERT JUMPDEST DUP3 DUP5 CALLVALUE PUSH2 0x14B JUMPI DUP2 PUSH1 0x3 NOT CALLDATASIZE ADD SLT PUSH2 0x14B JUMPI PUSH1 0x24 CALLDATALOAD SWAP1 PUSH8 0xFFFFFFFFFFFFFFFF DUP3 GT PUSH2 0x14B JUMPI POP PUSH2 0x147 SWAP3 PUSH2 0x114 PUSH2 0x13C SWAP3 CALLDATASIZE SWAP1 DUP4 ADD PUSH2 0x70B JUMP JUMPDEST SWAP1 CALLDATALOAD PUSH32 0x0 PUSH2 0xCA4 JUMP JUMPDEST SWAP1 MLOAD SWAP2 DUP3 SWAP2 DUP3 PUSH2 0x779 JUMP JUMPDEST SUB SWAP1 RETURN JUMPDEST DUP1 REVERT JUMPDEST POP POP CALLVALUE PUSH2 0xD6 JUMPI DUP2 PUSH1 0x3 NOT CALLDATASIZE ADD SLT PUSH2 0xD6 JUMPI MLOAD PUSH32 0x0 PUSH1 0x1 PUSH1 0x1 PUSH1 0xA0 SHL SUB AND DUP2 MSTORE PUSH1 0x20 SWAP1 RETURN JUMPDEST SWAP2 SWAP1 POP PUSH1 0x80 CALLDATASIZE PUSH1 0x3 NOT ADD SLT PUSH2 0x388 JUMPI PUSH1 0x24 CALLDATALOAD PUSH8 0xFFFFFFFFFFFFFFFF DUP2 GT PUSH2 0x37A JUMPI PUSH2 0x1C0 SWAP1 CALLDATASIZE SWAP1 DUP5 ADD PUSH2 0x70B JUMP JUMPDEST PUSH1 0x1 PUSH1 0x1 PUSH1 0xA0 SHL SUB SWAP3 PUSH1 0x44 CALLDATALOAD SWAP2 SWAP1 DUP5 DUP4 AND DUP4 SUB PUSH2 0x39F JUMPI PUSH2 0x1E5 TIMESTAMP PUSH1 0x64 CALLDATALOAD LT ISZERO PUSH2 0x7D1 JUMP JUMPDEST DUP5 PUSH2 0x1EF DUP4 PUSH2 0x810 JUMP JUMPDEST MLOAD AND PUSH2 0x21F DUP7 PUSH32 0x0 AND DUP1 SWAP3 EQ PUSH2 0x857 JUMP JUMPDEST PUSH32 0x0 SWAP6 PUSH2 0x24C DUP5 CALLVALUE DUP10 PUSH2 0xCA4 JUMP JUMPDEST SWAP7 DUP8 MLOAD PUSH1 0x0 NOT DUP2 ADD SWAP1 DUP2 GT PUSH2 0x38C JUMPI SWAP1 PUSH2 0x275 DUP11 SWAP3 PUSH2 0x26D DUP8 CALLDATALOAD SWAP2 DUP13 PUSH2 0x843 JUMP JUMPDEST MLOAD LT ISZERO PUSH2 0x89B JUMP JUMPDEST PUSH2 0x27E DUP10 PUSH2 0x810 JUMP JUMPDEST MLOAD DUP5 EXTCODESIZE ISZERO PUSH2 0x388 JUMPI DUP3 DUP7 SWAP2 DUP11 MLOAD SWAP3 DUP4 DUP1 SWAP3 PUSH4 0xD0E30DB PUSH1 0xE4 SHL DUP3 MSTORE DUP10 GAS CALL DUP1 ISZERO PUSH2 0x37E JUMPI PUSH2 0x361 JUMPI JUMPDEST POP SWAP3 PUSH1 0x44 SWAP2 PUSH2 0x2D0 PUSH1 0x20 SWAP6 DUP6 PUSH2 0x2BC DUP11 PUSH2 0x810 JUMP JUMPDEST MLOAD AND DUP7 PUSH2 0x2C8 DUP12 PUSH2 0x833 JUMP JUMPDEST MLOAD AND SWAP2 PUSH2 0xBC6 JUMP JUMPDEST SWAP2 PUSH2 0x2DA DUP12 PUSH2 0x810 JUMP JUMPDEST MLOAD DUP11 MLOAD SWAP8 DUP9 SWAP7 DUP8 SWAP6 PUSH4 0xA9059CBB PUSH1 0xE0 SHL DUP8 MSTORE AND SWAP1 DUP6 ADD MSTORE PUSH1 0x24 DUP5 ADD MSTORE GAS CALL SWAP1 DUP2 ISZERO PUSH2 0x357 JUMPI PUSH2 0x31F SWAP4 SWAP3 SWAP2 PUSH2 0x319 SWAP2 PUSH2 0x147 SWAP9 SWAP2 PUSH2 0x329 JUMPI JUMPDEST POP PUSH2 0x7B4 JUMP JUMPDEST DUP5 PUSH2 0x930 JUMP JUMPDEST MLOAD SWAP2 DUP3 SWAP2 DUP3 PUSH2 0x779 JUMP JUMPDEST PUSH2 0x34A SWAP2 POP PUSH1 0x20 RETURNDATASIZE DUP2 GT PUSH2 0x350 JUMPI JUMPDEST PUSH2 0x342 DUP2 DUP4 PUSH2 0x6D1 JUMP JUMPDEST DUP2 ADD SWAP1 PUSH2 0x8F3 JUMP JUMPDEST CODESIZE PUSH2 0x313 JUMP JUMPDEST POP RETURNDATASIZE PUSH2 0x338 JUMP JUMPDEST DUP5 MLOAD RETURNDATASIZE DUP9 DUP3 RETURNDATACOPY RETURNDATASIZE SWAP1 REVERT JUMPDEST SWAP2 PUSH2 0x36E DUP2 SWAP6 SWAP3 SWAP4 PUSH2 0x6A7 JUMP JUMPDEST PUSH2 0x37A JUMPI SWAP3 SWAP1 CODESIZE PUSH2 0x2A7 JUMP JUMPDEST DUP4 DUP1 REVERT JUMPDEST DUP10 MLOAD RETURNDATASIZE DUP6 DUP3 RETURNDATACOPY RETURNDATASIZE SWAP1 REVERT JUMPDEST DUP3 DUP1 REVERT JUMPDEST PUSH4 0x4E487B71 PUSH1 0xE0 SHL DUP11 MSTORE PUSH1 0x11 DUP6 MSTORE PUSH1 0x24 DUP11 REVERT JUMPDEST PUSH1 0x0 DUP1 REVERT JUMPDEST DUP4 SWAP2 POP CALLVALUE PUSH2 0xD6 JUMPI PUSH1 0xA0 CALLDATASIZE PUSH1 0x3 NOT ADD SLT PUSH2 0xD6 JUMPI PUSH8 0xFFFFFFFFFFFFFFFF SWAP2 PUSH1 0x44 CALLDATALOAD DUP4 DUP2 GT PUSH2 0xD6 JUMPI PUSH2 0x3D9 SWAP1 CALLDATASIZE SWAP1 DUP5 ADD PUSH2 0x70B JUMP JUMPDEST PUSH1 0x1 PUSH1 0x1 PUSH1 0xA0 SHL SUB SWAP4 SWAP1 PUSH1 0x64 CALLDATALOAD SWAP1 DUP6 DUP3 AND DUP3 SUB PUSH2 0x37A JUMPI PUSH2 0x3FE TIMESTAMP PUSH1 0x84 CALLDATALOAD LT ISZERO PUSH2 0x7D1 JUMP JUMPDEST DUP1 MLOAD PUSH1 0x0 NOT SWAP2 SWAP1 DUP3 DUP2 ADD SWAP1 DUP2 GT PUSH2 0x694 JUMPI PUSH2 0x41A DUP9 SWAP2 DUP4 PUSH2 0x843 JUMP JUMPDEST MLOAD AND SWAP1 PUSH2 0x44B DUP9 PUSH32 0x0 AND DUP1 SWAP4 EQ PUSH2 0x857 JUMP JUMPDEST PUSH32 0x0 PUSH2 0x478 DUP3 DUP10 CALLDATALOAD DUP4 PUSH2 0xCA4 JUMP JUMPDEST SWAP9 DUP10 MLOAD DUP6 DUP2 ADD SWAP1 DUP2 GT PUSH2 0x681 JUMPI DUP9 SWAP8 SWAP6 SWAP4 SWAP2 SWAP3 DUP13 PUSH2 0x26D SWAP11 SWAP9 SWAP7 SWAP5 PUSH2 0x4A4 DUP15 SWAP5 PUSH1 0x24 SWAP14 DUP15 CALLDATALOAD SWAP2 DUP8 PUSH2 0x843 JUMP JUMPDEST PUSH2 0x4D3 PUSH2 0x4CD DUP3 PUSH2 0x4B4 DUP9 PUSH2 0x810 JUMP JUMPDEST MLOAD AND SWAP5 DUP4 PUSH2 0x4C1 DUP10 PUSH2 0x810 JUMP JUMPDEST MLOAD AND DUP5 PUSH2 0x2C8 DUP11 PUSH2 0x833 JUMP JUMPDEST SWAP5 PUSH2 0x810 JUMP JUMPDEST MLOAD SWAP2 MLOAD SWAP4 PUSH4 0x23B872DD PUSH1 0xE0 SHL DUP6 MSTORE DUP14 CALLER SWAP1 DUP7 ADD MSTORE AND DUP12 DUP5 ADD MSTORE PUSH1 0x44 DUP4 ADD MSTORE DUP2 PUSH1 0x64 DUP2 PUSH1 0x20 SWAP12 DUP13 SWAP5 GAS CALL DUP1 ISZERO PUSH2 0x677 JUMPI SWAP1 PUSH2 0x516 SWAP3 SWAP2 PUSH2 0x65A JUMPI JUMPDEST POP ADDRESS SWAP1 DUP12 PUSH2 0x930 JUMP JUMPDEST DUP9 MLOAD DUP3 DUP2 ADD SWAP1 DUP2 GT PUSH2 0x648 JUMPI PUSH2 0x52C SWAP1 DUP11 PUSH2 0x843 JUMP JUMPDEST MLOAD DUP2 EXTCODESIZE ISZERO PUSH2 0x644 JUMPI DUP6 SWAP1 DUP9 DUP11 DUP4 DUP15 MLOAD SWAP6 DUP7 SWAP5 DUP6 SWAP4 PUSH4 0x2E1A7D4D PUSH1 0xE0 SHL DUP6 MSTORE DUP5 ADD MSTORE GAS CALL DUP1 ISZERO PUSH2 0x63A JUMPI PUSH2 0x627 JUMPI JUMPDEST POP DUP8 MLOAD SWAP1 DUP2 ADD SWAP1 DUP2 GT PUSH2 0x615 JUMPI DUP4 DUP1 DUP1 SWAP4 PUSH2 0x576 DUP3 SWAP5 DUP13 PUSH2 0x843 JUMP JUMPDEST MLOAD SWAP1 GAS CALL SWAP2 RETURNDATASIZE ISZERO PUSH2 0x60E JUMPI RETURNDATASIZE SWAP2 DUP3 GT PUSH2 0x5FA JUMPI DUP8 MLOAD SWAP2 PUSH2 0x59F PUSH1 0x1F DUP3 ADD PUSH1 0x1F NOT AND DUP7 ADD DUP5 PUSH2 0x6D1 JUMP JUMPDEST DUP3 MSTORE DUP4 RETURNDATASIZE SWAP3 ADD RETURNDATACOPY JUMPDEST ISZERO PUSH2 0x5B9 JUMPI DUP5 MLOAD DUP1 PUSH2 0x147 DUP7 DUP3 PUSH2 0x779 JUMP JUMPDEST PUSH1 0x1C SWAP3 SWAP4 POP PUSH1 0x64 SWAP5 MLOAD SWAP4 PUSH3 0x461BCD PUSH1 0xE5 SHL DUP6 MSTORE DUP5 ADD MSTORE DUP3 ADD MSTORE PUSH32 0x4B4F5254414E413A204554485F5452414E534645525F4641494C454400000000 PUSH1 0x44 DUP3 ADD MSTORE REVERT JUMPDEST DUP5 PUSH1 0x41 DUP8 PUSH4 0x4E487B71 PUSH1 0xE0 SHL PUSH1 0x0 MSTORE MSTORE PUSH1 0x0 REVERT JUMPDEST POP POP PUSH2 0x5A7 JUMP JUMPDEST PUSH4 0x4E487B71 PUSH1 0xE0 SHL DUP5 MSTORE PUSH1 0x11 DUP8 MSTORE DUP6 DUP5 REVERT JUMPDEST PUSH2 0x633 SWAP1 SWAP5 SWAP2 SWAP5 PUSH2 0x6A7 JUMP JUMPDEST SWAP3 DUP10 PUSH2 0x55A JUMP JUMPDEST DUP11 MLOAD RETURNDATASIZE DUP8 DUP3 RETURNDATACOPY RETURNDATASIZE SWAP1 REVERT JUMPDEST DUP6 DUP1 REVERT JUMPDEST PUSH4 0x4E487B71 PUSH1 0xE0 SHL DUP7 MSTORE PUSH1 0x11 DUP10 MSTORE DUP8 DUP7 REVERT JUMPDEST PUSH2 0x670 SWAP1 DUP10 RETURNDATASIZE DUP12 GT PUSH2 0x350 JUMPI PUSH2 0x342 DUP2 DUP4 PUSH2 0x6D1 JUMP JUMPDEST POP DUP13 PUSH2 0x50D JUMP JUMPDEST DUP13 MLOAD RETURNDATASIZE DUP10 DUP3 RETURNDATACOPY RETURNDATASIZE SWAP1 REVERT JUMPDEST PUSH4 0x4E487B71 PUSH1 0xE0 SHL DUP10 MSTORE PUSH1 0x11 DUP11 MSTORE PUSH1 0x24 DUP10 REVERT JUMPDEST PUSH4 0x4E487B71 PUSH1 0xE0 SHL DUP7 MSTORE PUSH1 0x11 DUP8 MSTORE PUSH1 0x24 DUP7 REVERT JUMPDEST PUSH8 0xFFFFFFFFFFFFFFFF DUP2 GT PUSH2 0x6BB JUMPI PUSH1 0x40 MSTORE JUMP JUMPDEST PUSH4 0x4E487B71 PUSH1 0xE0 SHL PUSH1 0x0 MSTORE PUSH1 0x41 PUSH1 0x4 MSTORE PUSH1 0x24 PUSH1 0x0 REVERT JUMPDEST SWAP1 PUSH1 0x1F DUP1 NOT SWAP2 ADD AND DUP2 ADD SWAP1 DUP2 LT PUSH8 0xFFFFFFFFFFFFFFFF DUP3 GT OR PUSH2 0x6BB JUMPI PUSH1 0x40 MSTORE JUMP JUMPDEST PUSH8 0xFFFFFFFFFFFFFFFF DUP2 GT PUSH2 0x6BB JUMPI PUSH1 0x5 SHL PUSH1 0x20 ADD SWAP1 JUMP JUMPDEST DUP2 PUSH1 0x1F DUP3 ADD SLT ISZERO PUSH2 0x39F JUMPI DUP1 CALLDATALOAD SWAP2 PUSH2 0x722 DUP4 PUSH2 0x6F3 JUMP JUMPDEST SWAP3 PUSH2 0x730 PUSH1 0x40 MLOAD SWAP5 DUP6 PUSH2 0x6D1 JUMP JUMPDEST DUP1 DUP5 MSTORE PUSH1 0x20 SWAP3 DUP4 DUP1 DUP7 ADD SWAP3 PUSH1 0x5 SHL DUP3 ADD ADD SWAP3 DUP4 GT PUSH2 0x39F JUMPI DUP4 ADD SWAP1 JUMPDEST DUP3 DUP3 LT PUSH2 0x75A JUMPI POP POP POP POP SWAP1 JUMP JUMPDEST DUP2 CALLDATALOAD PUSH1 0x1 PUSH1 0x1 PUSH1 0xA0 SHL SUB DUP2 AND DUP2 SUB PUSH2 0x39F JUMPI DUP2 MSTORE SWAP1 DUP4 ADD SWAP1 DUP4 ADD PUSH2 0x74C JUMP JUMPDEST PUSH1 0x20 SWAP1 DUP2 PUSH1 0x40 DUP2 DUP4 ADD SWAP3 DUP3 DUP2 MSTORE DUP6 MLOAD DUP1 SWAP5 MSTORE ADD SWAP4 ADD SWAP2 PUSH1 0x0 JUMPDEST DUP3 DUP2 LT PUSH2 0x7A0 JUMPI POP POP POP POP SWAP1 JUMP JUMPDEST DUP4 MLOAD DUP6 MSTORE SWAP4 DUP2 ADD SWAP4 SWAP3 DUP2 ADD SWAP3 PUSH1 0x1 ADD PUSH2 0x792 JUMP JUMPDEST ISZERO PUSH2 0x7BB JUMPI JUMP JUMPDEST PUSH4 0x4E487B71 PUSH1 0xE0 SHL PUSH1 0x0 MSTORE PUSH1 0x1 PUSH1 0x4 MSTORE PUSH1 0x24 PUSH1 0x0 REVERT JUMPDEST ISZERO PUSH2 0x7D8 JUMPI JUMP JUMPDEST PUSH1 0x40 MLOAD PUSH3 0x461BCD PUSH1 0xE5 SHL DUP2 MSTORE PUSH1 0x20 PUSH1 0x4 DUP3 ADD MSTORE PUSH1 0x10 PUSH1 0x24 DUP3 ADD MSTORE PUSH16 0x12D3D4951053904E8811561412549151 PUSH1 0x82 SHL PUSH1 0x44 DUP3 ADD MSTORE PUSH1 0x64 SWAP1 REVERT JUMPDEST DUP1 MLOAD ISZERO PUSH2 0x81D JUMPI PUSH1 0x20 ADD SWAP1 JUMP JUMPDEST PUSH4 0x4E487B71 PUSH1 0xE0 SHL PUSH1 0x0 MSTORE PUSH1 0x32 PUSH1 0x4 MSTORE PUSH1 0x24 PUSH1 0x0 REVERT JUMPDEST DUP1 MLOAD PUSH1 0x1 LT ISZERO PUSH2 0x81D JUMPI PUSH1 0x40 ADD SWAP1 JUMP JUMPDEST DUP1 MLOAD DUP3 LT ISZERO PUSH2 0x81D JUMPI PUSH1 0x20 SWAP2 PUSH1 0x5 SHL ADD ADD SWAP1 JUMP JUMPDEST ISZERO PUSH2 0x85E JUMPI JUMP JUMPDEST PUSH1 0x40 MLOAD PUSH3 0x461BCD PUSH1 0xE5 SHL DUP2 MSTORE PUSH1 0x20 PUSH1 0x4 DUP3 ADD MSTORE PUSH1 0x15 PUSH1 0x24 DUP3 ADD MSTORE PUSH21 0x969EA4A8829C827440929CAC82989288BEA082A89 PUSH1 0x5B SHL PUSH1 0x44 DUP3 ADD MSTORE PUSH1 0x64 SWAP1 REVERT JUMPDEST ISZERO PUSH2 0x8A2 JUMPI JUMP JUMPDEST PUSH1 0x40 MLOAD PUSH3 0x461BCD PUSH1 0xE5 SHL DUP2 MSTORE PUSH1 0x20 PUSH1 0x4 DUP3 ADD MSTORE PUSH1 0x23 PUSH1 0x24 DUP3 ADD MSTORE PUSH32 0x4B4F5254414E413A20494E53554646494349454E545F4F55545055545F414D4F PUSH1 0x44 DUP3 ADD MSTORE PUSH3 0x155395 PUSH1 0xEA SHL PUSH1 0x64 DUP3 ADD MSTORE PUSH1 0x84 SWAP1 REVERT JUMPDEST SWAP1 DUP2 PUSH1 0x20 SWAP2 SUB SLT PUSH2 0x39F JUMPI MLOAD DUP1 ISZERO ISZERO DUP2 SUB PUSH2 0x39F JUMPI SWAP1 JUMP JUMPDEST PUSH1 0x0 NOT DUP2 EQ PUSH2 0x91A JUMPI PUSH1 0x1 ADD SWAP1 JUMP JUMPDEST PUSH4 0x4E487B71 PUSH1 0xE0 SHL PUSH1 0x0 MSTORE PUSH1 0x11 PUSH1 0x4 MSTORE PUSH1 0x24 PUSH1 0x0 REVERT JUMPDEST SWAP1 SWAP3 SWAP2 PUSH32 0x0 PUSH1 0x0 JUMPDEST DUP6 MLOAD PUSH1 0x0 NOT DUP2 ADD SWAP1 DUP2 GT PUSH2 0x91A JUMPI DUP2 LT ISZERO PUSH2 0xAF9 JUMPI PUSH1 0x1 PUSH1 0x1 PUSH1 0xA0 SHL SUB DUP1 PUSH2 0x97F DUP4 DUP10 PUSH2 0x843 JUMP JUMPDEST MLOAD AND SWAP1 PUSH1 0x1 DUP4 ADD SWAP2 DUP3 DUP5 GT PUSH2 0x91A JUMPI DUP2 PUSH2 0x999 DUP5 DUP12 PUSH2 0x843 JUMP JUMPDEST MLOAD AND SWAP1 DUP3 PUSH2 0x9B2 PUSH2 0x9AA DUP5 DUP5 PUSH2 0xB01 JUMP JUMPDEST POP SWAP6 DUP11 PUSH2 0x843 JUMP JUMPDEST MLOAD SWAP5 AND DUP2 SUB PUSH2 0xAF1 JUMPI PUSH1 0x0 SWAP4 SWAP2 JUMPDEST DUP11 MLOAD PUSH1 0x1 NOT DUP2 ADD SWAP1 DUP2 GT PUSH2 0x91A JUMPI DUP5 SWAP1 DUP8 LT ISZERO PUSH2 0xAE5 JUMPI POP PUSH1 0x2 DUP7 ADD DUP1 DUP8 GT PUSH2 0x91A JUMPI DUP5 SWAP2 PUSH2 0xA00 DUP4 PUSH2 0x9F7 DUP16 SWAP5 PUSH2 0xA08 SWAP6 PUSH2 0x843 JUMP JUMPDEST MLOAD AND DUP3 DUP12 PUSH2 0xBC6 JUMP JUMPDEST SWAP4 JUMPDEST DUP10 PUSH2 0xBC6 JUMP JUMPDEST AND SWAP2 PUSH1 0x40 SWAP4 DUP5 MLOAD SWAP3 PUSH1 0x20 SWAP3 DUP4 DUP6 ADD DUP6 DUP2 LT PUSH8 0xFFFFFFFFFFFFFFFF DUP3 GT OR PUSH2 0x6BB JUMPI DUP8 MSTORE PUSH1 0x0 DUP6 MSTORE DUP6 EXTCODESIZE ISZERO PUSH2 0x39F JUMPI DUP7 MLOAD PUSH4 0x22C0D9F PUSH1 0xE0 SHL DUP2 MSTORE PUSH1 0x4 DUP2 ADD SWAP9 SWAP1 SWAP9 MSTORE PUSH1 0x24 DUP9 ADD MSTORE AND PUSH1 0x44 DUP7 ADD MSTORE PUSH1 0x80 PUSH1 0x64 DUP7 ADD MSTORE DUP2 MLOAD PUSH1 0x84 DUP7 ADD DUP2 SWAP1 MSTORE SWAP2 SWAP3 DUP6 SWAP3 SWAP1 SWAP2 PUSH1 0x0 JUMPDEST DUP3 DUP2 LT PUSH2 0xACE JUMPI POP POP PUSH1 0x0 DUP1 SWAP5 POP DUP4 SWAP2 DUP3 PUSH1 0xA4 SWAP2 DUP4 DUP4 DUP3 DUP5 ADD ADD MSTORE PUSH1 0x1F DUP1 NOT SWAP2 ADD AND DUP2 ADD SUB ADD SWAP3 GAS CALL SWAP1 DUP2 ISZERO PUSH2 0xAC4 JUMPI POP SWAP1 PUSH2 0xAB0 SWAP3 SWAP2 PUSH2 0xAB5 JUMPI JUMPDEST POP PUSH2 0x90B JUMP JUMPDEST PUSH2 0x957 JUMP JUMPDEST PUSH2 0xABE SWAP1 PUSH2 0x6A7 JUMP JUMPDEST CODESIZE PUSH2 0xAAA JUMP JUMPDEST MLOAD RETURNDATASIZE PUSH1 0x0 DUP3 RETURNDATACOPY RETURNDATASIZE SWAP1 REVERT JUMPDEST DUP1 DUP7 ADD DUP3 ADD MLOAD DUP9 DUP3 ADD PUSH1 0xA4 ADD MSTORE DUP8 SWAP5 POP DUP2 ADD PUSH2 0xA6E JUMP JUMPDEST SWAP1 PUSH2 0xA08 SWAP1 DUP10 SWAP4 PUSH2 0xA02 JUMP JUMPDEST PUSH1 0x0 SWAP2 PUSH2 0x9C0 JUMP JUMPDEST POP POP POP POP SWAP1 POP JUMP JUMPDEST SWAP1 SWAP2 PUSH1 0x1 PUSH1 0x1 PUSH1 0xA0 SHL SUB SWAP2 DUP3 DUP5 AND DUP4 DUP3 AND DUP1 DUP3 EQ PUSH2 0xB75 JUMPI LT ISZERO PUSH2 0xB70 JUMPI SWAP3 JUMPDEST SWAP2 DUP4 AND ISZERO PUSH2 0xB2B JUMPI JUMP JUMPDEST PUSH1 0x40 MLOAD PUSH3 0x461BCD PUSH1 0xE5 SHL DUP2 MSTORE PUSH1 0x20 PUSH1 0x4 DUP3 ADD MSTORE PUSH1 0x1C PUSH1 0x24 DUP3 ADD MSTORE PUSH32 0x4B6F7274616E614C6962726172793A205A45524F5F4144445245535300000000 PUSH1 0x44 DUP3 ADD MSTORE PUSH1 0x64 SWAP1 REVERT JUMPDEST PUSH2 0xB21 JUMP JUMPDEST PUSH1 0x40 MLOAD PUSH3 0x461BCD PUSH1 0xE5 SHL DUP2 MSTORE PUSH1 0x20 PUSH1 0x4 DUP3 ADD MSTORE PUSH1 0x23 PUSH1 0x24 DUP3 ADD MSTORE PUSH32 0x4B6F7274616E614C6962726172793A204944454E544943414C5F414444524553 PUSH1 0x44 DUP3 ADD MSTORE PUSH3 0x534553 PUSH1 0xE8 SHL PUSH1 0x64 DUP3 ADD MSTORE PUSH1 0x84 SWAP1 REVERT JUMPDEST PUSH1 0x40 MLOAD PUSH4 0xE6A43905 PUSH1 0xE0 SHL DUP2 MSTORE PUSH1 0x1 PUSH1 0x1 PUSH1 0xA0 SHL SUB SWAP3 DUP4 AND PUSH1 0x4 DUP3 ADD MSTORE SWAP3 DUP3 AND PUSH1 0x24 DUP5 ADD MSTORE SWAP2 SWAP3 SWAP2 PUSH1 0x20 SWAP1 DUP5 SWAP1 PUSH1 0x44 SWAP1 DUP3 SWAP1 DUP6 AND GAS STATICCALL SWAP3 DUP4 ISZERO PUSH2 0xC98 JUMPI PUSH1 0x0 SWAP4 PUSH2 0xC5A JUMPI JUMPDEST POP DUP3 AND ISZERO PUSH2 0xC15 JUMPI JUMP JUMPDEST PUSH1 0x40 MLOAD PUSH3 0x461BCD PUSH1 0xE5 SHL DUP2 MSTORE PUSH1 0x20 PUSH1 0x4 DUP3 ADD MSTORE PUSH1 0x1E PUSH1 0x24 DUP3 ADD MSTORE PUSH32 0x4B6F7274616E614C6962726172793A20504149525F4E4F545F464F554E440000 PUSH1 0x44 DUP3 ADD MSTORE PUSH1 0x64 SWAP1 REVERT JUMPDEST PUSH1 0x20 SWAP4 SWAP2 SWAP4 DUP2 RETURNDATASIZE DUP3 GT PUSH2 0xC90 JUMPI JUMPDEST DUP2 PUSH2 0xC75 PUSH1 0x20 SWAP4 DUP4 PUSH2 0x6D1 JUMP JUMPDEST DUP2 ADD SUB SLT PUSH2 0xD6 JUMPI MLOAD SWAP1 DUP4 DUP3 AND DUP3 SUB PUSH2 0x14B JUMPI POP SWAP2 CODESIZE PUSH2 0xC0B JUMP JUMPDEST RETURNDATASIZE SWAP2 POP PUSH2 0xC68 JUMP JUMPDEST PUSH1 0x40 MLOAD RETURNDATASIZE PUSH1 0x0 DUP3 RETURNDATACOPY RETURNDATASIZE SWAP1 REVERT JUMPDEST SWAP1 SWAP3 SWAP2 SWAP3 PUSH1 0x2 DUP5 MLOAD LT PUSH2 0xF84 JUMPI DUP4 MLOAD PUSH2 0xCBC DUP2 PUSH2 0x6F3 JUMP JUMPDEST SWAP3 PUSH1 0x40 SWAP2 PUSH2 0xCCC DUP4 MLOAD SWAP6 DUP7 PUSH2 0x6D1 JUMP JUMPDEST DUP1 DUP6 MSTORE PUSH2 0xCDB PUSH1 0x1F NOT SWAP2 PUSH2 0x6F3 JUMP JUMPDEST ADD SWAP3 PUSH1 0x20 SWAP4 CALLDATASIZE DUP6 DUP8 ADD CALLDATACOPY DUP5 SWAP1 PUSH2 0xCF0 DUP7 PUSH2 0x810 JUMP JUMPDEST MSTORE PUSH1 0x0 JUMPDEST DUP8 MLOAD PUSH1 0x0 NOT DUP2 ADD SWAP1 DUP2 GT PUSH2 0x91A JUMPI DUP2 LT ISZERO PUSH2 0xF7B JUMPI PUSH1 0x1 PUSH1 0x1 PUSH1 0xA0 SHL SUB DUP1 PUSH2 0xD1C DUP4 DUP12 PUSH2 0x843 JUMP JUMPDEST MLOAD AND SWAP1 PUSH1 0x1 DUP4 ADD SWAP2 DUP3 DUP5 GT PUSH2 0x91A JUMPI DUP2 PUSH2 0xD36 DUP5 DUP14 PUSH2 0x843 JUMP JUMPDEST MLOAD AND SWAP1 DUP3 PUSH2 0xD50 PUSH2 0xD47 DUP5 DUP5 PUSH2 0xB01 JUMP JUMPDEST POP SWAP4 DUP4 DUP11 PUSH2 0xBC6 JUMP JUMPDEST AND SWAP1 DUP9 MLOAD SWAP4 DUP5 SWAP4 DUP5 SWAP4 PUSH4 0x240BC6B PUSH1 0xE2 SHL DUP6 MSTORE PUSH1 0x60 SWAP5 DUP6 SWAP2 PUSH1 0x4 SWAP8 DUP9 SWAP2 GAS STATICCALL SWAP6 DUP7 ISZERO PUSH2 0xF70 JUMPI PUSH1 0x0 SWAP5 DUP6 SWAP8 PUSH2 0xF27 JUMPI JUMPDEST POP POP AND SUB PUSH2 0xF21 JUMPI SWAP2 SWAP1 JUMPDEST PUSH2 0xD95 DUP6 DUP12 PUSH2 0x843 JUMP JUMPDEST MLOAD DUP1 ISZERO PUSH2 0xECC JUMPI DUP4 ISZERO DUP1 ISZERO DUP1 PUSH2 0xEC3 JUMPI JUMPDEST ISZERO PUSH2 0xE71 JUMPI PUSH2 0x3E5 DUP1 DUP4 MUL SWAP3 DUP1 DUP5 DIV DUP3 SUB PUSH2 0xE5C JUMPI DUP6 MUL MUL SWAP4 DUP3 DUP6 DIV EQ DUP3 ISZERO OR ISZERO PUSH2 0xE47 JUMPI PUSH2 0x3E8 DUP1 DUP7 MUL SWAP6 DUP7 DIV EQ OR ISZERO PUSH2 0xE32 JUMPI DUP4 ADD DUP1 SWAP4 GT PUSH2 0xE1D JUMPI DUP3 ISZERO PUSH2 0xE08 JUMPI POP PUSH2 0xE03 SWAP4 SWAP3 SWAP2 PUSH2 0xDFD SWAP2 DIV SWAP2 DUP10 PUSH2 0x843 JUMP JUMPDEST MSTORE PUSH2 0x90B JUMP JUMPDEST PUSH2 0xCF4 JUMP JUMPDEST PUSH1 0x12 SWAP1 PUSH4 0x4E487B71 PUSH1 0xE0 SHL PUSH1 0x0 MSTORE MSTORE PUSH1 0x24 PUSH1 0x0 REVERT JUMPDEST PUSH1 0x11 SWAP1 PUSH4 0x4E487B71 PUSH1 0xE0 SHL PUSH1 0x0 MSTORE MSTORE PUSH1 0x24 PUSH1 0x0 REVERT JUMPDEST PUSH1 0x11 DUP3 PUSH4 0x4E487B71 PUSH1 0xE0 SHL PUSH1 0x0 MSTORE MSTORE PUSH1 0x24 PUSH1 0x0 REVERT JUMPDEST PUSH1 0x11 DUP4 PUSH4 0x4E487B71 PUSH1 0xE0 SHL PUSH1 0x0 MSTORE MSTORE PUSH1 0x24 PUSH1 0x0 REVERT JUMPDEST PUSH1 0x11 DUP6 PUSH4 0x4E487B71 PUSH1 0xE0 SHL PUSH1 0x0 MSTORE MSTORE PUSH1 0x24 PUSH1 0x0 REVERT JUMPDEST DUP10 MLOAD PUSH3 0x461BCD PUSH1 0xE5 SHL DUP2 MSTORE DUP1 DUP5 ADD DUP13 SWAP1 MSTORE PUSH1 0x26 PUSH1 0x24 DUP3 ADD MSTORE PUSH32 0x4B6F7274616E614C6962726172793A20494E53554646494349454E545F4C4951 PUSH1 0x44 DUP3 ADD MSTORE PUSH6 0x554944495459 PUSH1 0xD0 SHL PUSH1 0x64 DUP3 ADD MSTORE PUSH1 0x84 SWAP1 REVERT JUMPDEST POP DUP4 ISZERO ISZERO PUSH2 0xDA6 JUMP JUMPDEST DUP9 MLOAD PUSH3 0x461BCD PUSH1 0xE5 SHL DUP2 MSTORE DUP1 DUP4 ADD DUP12 SWAP1 MSTORE PUSH1 0x29 PUSH1 0x24 DUP3 ADD MSTORE PUSH32 0x4B6F7274616E614C6962726172793A20494E53554646494349454E545F494E50 PUSH1 0x44 DUP3 ADD MSTORE PUSH9 0x155517D05353D55395 PUSH1 0xBA SHL PUSH1 0x64 DUP3 ADD MSTORE PUSH1 0x84 SWAP1 REVERT JUMPDEST SWAP1 PUSH2 0xD8B JUMP JUMPDEST SWAP1 DUP1 SWAP6 SWAP3 SWAP8 POP DUP2 RETURNDATASIZE DUP4 GT PUSH2 0xF69 JUMPI JUMPDEST PUSH2 0xF40 DUP2 DUP4 PUSH2 0x6D1 JUMP JUMPDEST DUP2 ADD SUB SLT PUSH2 0x14B JUMPI DUP4 MLOAD SWAP1 DUP12 DUP14 DUP7 ADD MLOAD SWAP6 ADD MLOAD PUSH4 0xFFFFFFFF DUP2 AND SUB PUSH2 0x14B JUMPI POP SWAP3 SWAP5 CODESIZE DUP1 PUSH2 0xD80 JUMP JUMPDEST POP RETURNDATASIZE PUSH2 0xF36 JUMP JUMPDEST DUP12 MLOAD RETURNDATASIZE PUSH1 0x0 DUP3 RETURNDATACOPY RETURNDATASIZE SWAP1 REVERT JUMPDEST POP SWAP6 POP POP POP POP POP JUMP JUMPDEST PUSH1 0x40 MLOAD PUSH3 0x461BCD PUSH1 0xE5 SHL DUP2 MSTORE PUSH1 0x20 PUSH1 0x4 DUP3 ADD MSTORE PUSH1 0x1C PUSH1 0x24 DUP3 ADD MSTORE PUSH32 0x4B6F7274616E614C6962726172793A20494E56414C49445F5041544800000000 PUSH1 0x44 DUP3 ADD MSTORE PUSH1 0x64 SWAP1 REVERT INVALID LOG2 PUSH5 0x6970667358 0x22 SLT KECCAK256 MULMOD 0x4F PUSH31 0x65578C2C5AFF4AA0C6174F551BEB24B2BFE372CFA30FA0C49977FD31C16473 PUSH16 0x6C634300081400330000000000000000 "},"methodIdentifiers":{"WDNR()":"d2d8d32f","factory()":"c45a0155","getAmountsOut(uint256,address[])":"d06ca61f","swapExactDNRForTokens(uint256,address[],address,uint256)":"7ebfe0fd","swapExactTokensForDNR(uint256,uint256,address[],address,uint256)":"4a89ffec"}},"storageLayout":{"storage":[],"types":null}}}}