{"contracts/amm/KortanaLiquidityManager.sol":{"KortanaLiquidityManager":{"abi":[{"inputs":[{"internalType":"address","name":"_factory","type":"address"},{"internalType":"address","name":"_WDNR","type":"address"}],"stateMutability":"nonpayable","type":"constructor"},{"inputs":[],"name":"WDNR","outputs":[{"internalType":"address","name":"","type":"address"}],"stateMutability":"view","type":"function"},{"inputs":[{"internalType":"address","name":"token","type":"address"},{"internalType":"uint256","name":"amountTokenDesired","type":"uint256"},{"internalType":"uint256","name":"amountTokenMin","type":"uint256"},{"internalType":"uint256","name":"amountDNRMin","type":"uint256"},{"internalType":"address","name":"to","type":"address"},{"internalType":"uint256","name":"deadline","type":"uint256"}],"name":"addLiquidityDNR","outputs":[{"internalType":"uint256","name":"amountToken","type":"uint256"},{"internalType":"uint256","name":"amountDNR","type":"uint256"},{"internalType":"uint256","name":"liquidity","type":"uint256"}],"stateMutability":"payable","type":"function"},{"inputs":[],"name":"factory","outputs":[{"internalType":"address","name":"","type":"address"}],"stateMutability":"view","type":"function"},{"stateMutability":"payable","type":"receive"}],"evm":{"bytecode":{"linkReferences":{},"object":"60c03461008657601f61095638819003918201601f19168301916001600160401b0383118484101761008b57808492604094855283398101031261008657610052602061004b836100a1565b92016100a1565b9060805260a0526040516108a090816100b6823960805181818160ad0152610121015260a051818181606601526101440152f35b600080fd5b634e487b7160e01b600052604160045260246000fd5b51906001600160a01b03821682036100865756fe6080604081815260049182361015610022575b505050361561002057600080fd5b005b600092833560e01c91826374fa1337146100dc5750508063c45a0155146100995763d2d8d32f146100535780610012565b34610095578160031936011261009557517f00000000000000000000000000000000000000000000000000000000000000006001600160a01b03168152602090f35b5080fd5b5034610095578160031936011261009557517f00000000000000000000000000000000000000000000000000000000000000006001600160a01b03168152602090f35b848460c0366003190112610095576001600160a01b03938035858116918282036107a957602495863593608435918983168093036104ae574260a435106107855750887f000000000000000000000000000000000000000000000000000000000000000016987f0000000000000000000000000000000000000000000000000000000000000000948a86895192878463e6a4390560e01b9485825281808560209e8f968301916101a49290602090939293604083019460018060a01b03809216845216910152565b03915afa93841561075c578e8d8a8e8d948399610766575b50898916156106f1575b50505050508482169d8e87146106a2578e87101561069b5785825b16938415610657578c519081526001600160a01b03928316818b0190815292909316602083015289918391908290819060400103915afa9081156105de579084918c9161062a575b501680156105e857606087918b5192838092630240bc6b60e21b82525afa9182156105de578b918c9361058c575b50850361058757905b816104cf57505091858a9b9260648b9c9695349a9d8e955b8d5196879586946323b872dd60e01b86528d339087015216809b85015260448401525af180156104a4576104b2575b50803b156104ae578651630d0e30db60e41b8152888186818a865af180156104a457610477575b50848660448c8b8b51958694859363a9059cbb60e01b85528a8c8601528401525af190811561046d57908a92918991610440575b501561042e5791849188938851998a9384926335313c2160e11b8452888401525af19586156104225781966103ef575b5083341161034e575b5050606095508251948552840152820152f35b8334033481116103dd578180808093335af1903d156103d7573d9067ffffffffffffffff82116103c55786519161038e601f8201601f19168701846107ad565b8252843d92013e5b156103a1578061033b565b60018760649386519362461bcd60e51b8552840152820152602960f91b6044820152fd5b634e487b7160e01b8152604184528990fd5b50610396565b5060118892634e487b7160e01b835252fd5b9095508281813d831161041b575b61040781836107ad565b8101031261041757519488610332565b8580fd5b503d6103fd565b508451903d90823e3d90fd5b50634e487b7160e01b87526001835286fd5b6104609150863d8811610466575b61045881836107ad565b810190610852565b8b610302565b503d61044e565b87513d8a823e3d90fd5b67ffffffffffffffff8199929911610492578752968a6102ce565b634e487b7160e01b8252604185528a82fd5b88513d8b823e3d90fd5b8780fd5b6104c890863d88116104665761045881836107ad565b508a6102a7565b6104e2826104dd838c610809565b610832565b91348311610530575050606435811061050a578a9b9260648b9c96959389939a9d8e95610278565b885162461bcd60e51b81528087018890526001818d0152601360fa1b6044820152606490fd5b6105429399506104dd91925034610809565b9560443587106105615791858a9b9260648b9c9695349a9d8e95610278565b875162461bcd60e51b81528086018790526001818c0152601560fa1b6044820152606490fd5b610260565b915091506060813d82116105d6575b816105a8606093836107ad565b810103126105d25780518a8983015192015163ffffffff8116036105ce5790918e610257565b8b80fd5b8a80fd5b3d915061059b565b8a513d8d823e3d90fd5b895162461bcd60e51b8152808801899052601e818e01527f4b6f7274616e614c6962726172793a20504149525f4e4f545f464f554e4400006044820152606490fd5b61064a9150893d8b11610650575b61064281836107ad565b8101906107e5565b8e610229565b503d610638565b50508a5162461bcd60e51b81528089018a9052601c818f01527f4b6f7274616e614c6962726172793a205a45524f5f41444452455353000000006044820152606490fd5b85836101e1565b508a5162461bcd60e51b81528089018a90526023818f01527f4b6f7274616e614c6962726172793a204944454e544943414c5f41444452455360448201526253455360e81b6064820152608490fd5b516364e329cb60e11b81526001600160a01b03808716928201928352871660208301529497508492918391829060400103925af190811561075c578c9161073f575b5092888e8d8a8e6101c6565b6107569150893d8b116106505761064281836107ad565b8e610733565b8b513d8e823e3d90fd5b61077e919950853d87116106505761064281836107ad565b97386101bc565b62461bcd60e51b8152602084820152600189820152604560f81b6044820152606490fd5b8480fd5b90601f8019910116810190811067ffffffffffffffff8211176107cf57604052565b634e487b7160e01b600052604160045260246000fd5b9081602091031261080457516001600160a01b03811681036108045790565b600080fd5b8181029291811591840414171561081c57565b634e487b7160e01b600052601160045260246000fd5b811561083c570490565b634e487b7160e01b600052601260045260246000fd5b9081602091031261080457518015158103610804579056fea2646970667358221220803717fd65c8f576699373207e2f2dbceae9e8be76f8f8ab7138230b004865a464736f6c63430008140033","opcodes":"PUSH1 0xC0 CALLVALUE PUSH2 0x86 JUMPI PUSH1 0x1F PUSH2 0x956 CODESIZE DUP2 SWAP1 SUB SWAP2 DUP3 ADD PUSH1 0x1F NOT AND DUP4 ADD SWAP2 PUSH1 0x1 PUSH1 0x1 PUSH1 0x40 SHL SUB DUP4 GT DUP5 DUP5 LT OR PUSH2 0x8B JUMPI DUP1 DUP5 SWAP3 PUSH1 0x40 SWAP5 DUP6 MSTORE DUP4 CODECOPY DUP2 ADD SUB SLT PUSH2 0x86 JUMPI PUSH2 0x52 PUSH1 0x20 PUSH2 0x4B DUP4 PUSH2 0xA1 JUMP JUMPDEST SWAP3 ADD PUSH2 0xA1 JUMP JUMPDEST SWAP1 PUSH1 0x80 MSTORE PUSH1 0xA0 MSTORE PUSH1 0x40 MLOAD PUSH2 0x8A0 SWAP1 DUP2 PUSH2 0xB6 DUP3 CODECOPY PUSH1 0x80 MLOAD DUP2 DUP2 DUP2 PUSH1 0xAD ADD MSTORE PUSH2 0x121 ADD MSTORE PUSH1 0xA0 MLOAD DUP2 DUP2 DUP2 PUSH1 0x66 ADD MSTORE PUSH2 0x144 ADD MSTORE RETURN JUMPDEST PUSH1 0x0 DUP1 REVERT JUMPDEST PUSH4 0x4E487B71 PUSH1 0xE0 SHL PUSH1 0x0 MSTORE PUSH1 0x41 PUSH1 0x4 MSTORE PUSH1 0x24 PUSH1 0x0 REVERT JUMPDEST MLOAD SWAP1 PUSH1 0x1 PUSH1 0x1 PUSH1 0xA0 SHL SUB DUP3 AND DUP3 SUB PUSH2 0x86 JUMPI JUMP INVALID PUSH1 0x80 PUSH1 0x40 DUP2 DUP2 MSTORE PUSH1 0x4 SWAP2 DUP3 CALLDATASIZE LT ISZERO PUSH2 0x22 JUMPI JUMPDEST POP POP POP CALLDATASIZE ISZERO PUSH2 0x20 JUMPI PUSH1 0x0 DUP1 REVERT JUMPDEST STOP JUMPDEST PUSH1 0x0 SWAP3 DUP4 CALLDATALOAD PUSH1 0xE0 SHR SWAP2 DUP3 PUSH4 0x74FA1337 EQ PUSH2 0xDC JUMPI POP POP DUP1 PUSH4 0xC45A0155 EQ PUSH2 0x99 JUMPI PUSH4 0xD2D8D32F EQ PUSH2 0x53 JUMPI DUP1 PUSH2 0x12 JUMP JUMPDEST CALLVALUE PUSH2 0x95 JUMPI DUP2 PUSH1 0x3 NOT CALLDATASIZE ADD SLT PUSH2 0x95 JUMPI MLOAD PUSH32 0x0 PUSH1 0x1 PUSH1 0x1 PUSH1 0xA0 SHL SUB AND DUP2 MSTORE PUSH1 0x20 SWAP1 RETURN JUMPDEST POP DUP1 REVERT JUMPDEST POP CALLVALUE PUSH2 0x95 JUMPI DUP2 PUSH1 0x3 NOT CALLDATASIZE ADD SLT PUSH2 0x95 JUMPI MLOAD PUSH32 0x0 PUSH1 0x1 PUSH1 0x1 PUSH1 0xA0 SHL SUB AND DUP2 MSTORE PUSH1 0x20 SWAP1 RETURN JUMPDEST DUP5 DUP5 PUSH1 0xC0 CALLDATASIZE PUSH1 0x3 NOT ADD SLT PUSH2 0x95 JUMPI PUSH1 0x1 PUSH1 0x1 PUSH1 0xA0 SHL SUB SWAP4 DUP1 CALLDATALOAD DUP6 DUP2 AND SWAP2 DUP3 DUP3 SUB PUSH2 0x7A9 JUMPI PUSH1 0x24 SWAP6 DUP7 CALLDATALOAD SWAP4 PUSH1 0x84 CALLDATALOAD SWAP2 DUP10 DUP4 AND DUP1 SWAP4 SUB PUSH2 0x4AE JUMPI TIMESTAMP PUSH1 0xA4 CALLDATALOAD LT PUSH2 0x785 JUMPI POP DUP9 PUSH32 0x0 AND SWAP9 PUSH32 0x0 SWAP5 DUP11 DUP7 DUP10 MLOAD SWAP3 DUP8 DUP5 PUSH4 0xE6A43905 PUSH1 0xE0 SHL SWAP5 DUP6 DUP3 MSTORE DUP2 DUP1 DUP6 PUSH1 0x20 SWAP15 DUP16 SWAP7 DUP4 ADD SWAP2 PUSH2 0x1A4 SWAP3 SWAP1 PUSH1 0x20 SWAP1 SWAP4 SWAP3 SWAP4 PUSH1 0x40 DUP4 ADD SWAP5 PUSH1 0x1 DUP1 PUSH1 0xA0 SHL SUB DUP1 SWAP3 AND DUP5 MSTORE AND SWAP2 ADD MSTORE JUMP JUMPDEST SUB SWAP2 GAS STATICCALL SWAP4 DUP5 ISZERO PUSH2 0x75C JUMPI DUP15 DUP14 DUP11 DUP15 DUP14 SWAP5 DUP4 SWAP10 PUSH2 0x766 JUMPI JUMPDEST POP DUP10 DUP10 AND ISZERO PUSH2 0x6F1 JUMPI JUMPDEST POP POP POP POP POP DUP5 DUP3 AND SWAP14 DUP15 DUP8 EQ PUSH2 0x6A2 JUMPI DUP15 DUP8 LT ISZERO PUSH2 0x69B JUMPI DUP6 DUP3 JUMPDEST AND SWAP4 DUP5 ISZERO PUSH2 0x657 JUMPI DUP13 MLOAD SWAP1 DUP2 MSTORE PUSH1 0x1 PUSH1 0x1 PUSH1 0xA0 SHL SUB SWAP3 DUP4 AND DUP2 DUP12 ADD SWAP1 DUP2 MSTORE SWAP3 SWAP1 SWAP4 AND PUSH1 0x20 DUP4 ADD MSTORE DUP10 SWAP2 DUP4 SWAP2 SWAP1 DUP3 SWAP1 DUP2 SWAP1 PUSH1 0x40 ADD SUB SWAP2 GAS STATICCALL SWAP1 DUP2 ISZERO PUSH2 0x5DE JUMPI SWAP1 DUP5 SWAP2 DUP13 SWAP2 PUSH2 0x62A JUMPI JUMPDEST POP AND DUP1 ISZERO PUSH2 0x5E8 JUMPI PUSH1 0x60 DUP8 SWAP2 DUP12 MLOAD SWAP3 DUP4 DUP1 SWAP3 PUSH4 0x240BC6B PUSH1 0xE2 SHL DUP3 MSTORE GAS STATICCALL SWAP2 DUP3 ISZERO PUSH2 0x5DE JUMPI DUP12 SWAP2 DUP13 SWAP4 PUSH2 0x58C JUMPI JUMPDEST POP DUP6 SUB PUSH2 0x587 JUMPI SWAP1 JUMPDEST DUP2 PUSH2 0x4CF JUMPI POP POP SWAP2 DUP6 DUP11 SWAP12 SWAP3 PUSH1 0x64 DUP12 SWAP13 SWAP7 SWAP6 CALLVALUE SWAP11 SWAP14 DUP15 SWAP6 JUMPDEST DUP14 MLOAD SWAP7 DUP8 SWAP6 DUP7 SWAP5 PUSH4 0x23B872DD PUSH1 0xE0 SHL DUP7 MSTORE DUP14 CALLER SWAP1 DUP8 ADD MSTORE AND DUP1 SWAP12 DUP6 ADD MSTORE PUSH1 0x44 DUP5 ADD MSTORE GAS CALL DUP1 ISZERO PUSH2 0x4A4 JUMPI PUSH2 0x4B2 JUMPI JUMPDEST POP DUP1 EXTCODESIZE ISZERO PUSH2 0x4AE JUMPI DUP7 MLOAD PUSH4 0xD0E30DB PUSH1 0xE4 SHL DUP2 MSTORE DUP9 DUP2 DUP7 DUP2 DUP11 DUP7 GAS CALL DUP1 ISZERO PUSH2 0x4A4 JUMPI PUSH2 0x477 JUMPI JUMPDEST POP DUP5 DUP7 PUSH1 0x44 DUP13 DUP12 DUP12 MLOAD SWAP6 DUP7 SWAP5 DUP6 SWAP4 PUSH4 0xA9059CBB PUSH1 0xE0 SHL DUP6 MSTORE DUP11 DUP13 DUP7 ADD MSTORE DUP5 ADD MSTORE GAS CALL SWAP1 DUP2 ISZERO PUSH2 0x46D JUMPI SWAP1 DUP11 SWAP3 SWAP2 DUP10 SWAP2 PUSH2 0x440 JUMPI JUMPDEST POP ISZERO PUSH2 0x42E JUMPI SWAP2 DUP5 SWAP2 DUP9 SWAP4 DUP9 MLOAD SWAP10 DUP11 SWAP4 DUP5 SWAP3 PUSH4 0x35313C21 PUSH1 0xE1 SHL DUP5 MSTORE DUP9 DUP5 ADD MSTORE GAS CALL SWAP6 DUP7 ISZERO PUSH2 0x422 JUMPI DUP2 SWAP7 PUSH2 0x3EF JUMPI JUMPDEST POP DUP4 CALLVALUE GT PUSH2 0x34E JUMPI JUMPDEST POP POP PUSH1 0x60 SWAP6 POP DUP3 MLOAD SWAP5 DUP6 MSTORE DUP5 ADD MSTORE DUP3 ADD MSTORE RETURN JUMPDEST DUP4 CALLVALUE SUB CALLVALUE DUP2 GT PUSH2 0x3DD JUMPI DUP2 DUP1 DUP1 DUP1 SWAP4 CALLER GAS CALL SWAP1 RETURNDATASIZE ISZERO PUSH2 0x3D7 JUMPI RETURNDATASIZE SWAP1 PUSH8 0xFFFFFFFFFFFFFFFF DUP3 GT PUSH2 0x3C5 JUMPI DUP7 MLOAD SWAP2 PUSH2 0x38E PUSH1 0x1F DUP3 ADD PUSH1 0x1F NOT AND DUP8 ADD DUP5 PUSH2 0x7AD JUMP JUMPDEST DUP3 MSTORE DUP5 RETURNDATASIZE SWAP3 ADD RETURNDATACOPY JUMPDEST ISZERO PUSH2 0x3A1 JUMPI DUP1 PUSH2 0x33B JUMP JUMPDEST PUSH1 0x1 DUP8 PUSH1 0x64 SWAP4 DUP7 MLOAD SWAP4 PUSH3 0x461BCD PUSH1 0xE5 SHL DUP6 MSTORE DUP5 ADD MSTORE DUP3 ADD MSTORE PUSH1 0x29 PUSH1 0xF9 SHL PUSH1 0x44 DUP3 ADD MSTORE REVERT JUMPDEST PUSH4 0x4E487B71 PUSH1 0xE0 SHL DUP2 MSTORE PUSH1 0x41 DUP5 MSTORE DUP10 SWAP1 REVERT JUMPDEST POP PUSH2 0x396 JUMP JUMPDEST POP PUSH1 0x11 DUP9 SWAP3 PUSH4 0x4E487B71 PUSH1 0xE0 SHL DUP4 MSTORE MSTORE REVERT JUMPDEST SWAP1 SWAP6 POP DUP3 DUP2 DUP2 RETURNDATASIZE DUP4 GT PUSH2 0x41B JUMPI JUMPDEST PUSH2 0x407 DUP2 DUP4 PUSH2 0x7AD JUMP JUMPDEST DUP2 ADD SUB SLT PUSH2 0x417 JUMPI MLOAD SWAP5 DUP9 PUSH2 0x332 JUMP JUMPDEST DUP6 DUP1 REVERT JUMPDEST POP RETURNDATASIZE PUSH2 0x3FD JUMP JUMPDEST POP DUP5 MLOAD SWAP1 RETURNDATASIZE SWAP1 DUP3 RETURNDATACOPY RETURNDATASIZE SWAP1 REVERT JUMPDEST POP PUSH4 0x4E487B71 PUSH1 0xE0 SHL DUP8 MSTORE PUSH1 0x1 DUP4 MSTORE DUP7 REVERT JUMPDEST PUSH2 0x460 SWAP2 POP DUP7 RETURNDATASIZE DUP9 GT PUSH2 0x466 JUMPI JUMPDEST PUSH2 0x458 DUP2 DUP4 PUSH2 0x7AD JUMP JUMPDEST DUP2 ADD SWAP1 PUSH2 0x852 JUMP JUMPDEST DUP12 PUSH2 0x302 JUMP JUMPDEST POP RETURNDATASIZE PUSH2 0x44E JUMP JUMPDEST DUP8 MLOAD RETURNDATASIZE DUP11 DUP3 RETURNDATACOPY RETURNDATASIZE SWAP1 REVERT JUMPDEST PUSH8 0xFFFFFFFFFFFFFFFF DUP2 SWAP10 SWAP3 SWAP10 GT PUSH2 0x492 JUMPI DUP8 MSTORE SWAP7 DUP11 PUSH2 0x2CE JUMP JUMPDEST PUSH4 0x4E487B71 PUSH1 0xE0 SHL DUP3 MSTORE PUSH1 0x41 DUP6 MSTORE DUP11 DUP3 REVERT JUMPDEST DUP9 MLOAD RETURNDATASIZE DUP12 DUP3 RETURNDATACOPY RETURNDATASIZE SWAP1 REVERT JUMPDEST DUP8 DUP1 REVERT JUMPDEST PUSH2 0x4C8 SWAP1 DUP7 RETURNDATASIZE DUP9 GT PUSH2 0x466 JUMPI PUSH2 0x458 DUP2 DUP4 PUSH2 0x7AD JUMP JUMPDEST POP DUP11 PUSH2 0x2A7 JUMP JUMPDEST PUSH2 0x4E2 DUP3 PUSH2 0x4DD DUP4 DUP13 PUSH2 0x809 JUMP JUMPDEST PUSH2 0x832 JUMP JUMPDEST SWAP2 CALLVALUE DUP4 GT PUSH2 0x530 JUMPI POP POP PUSH1 0x64 CALLDATALOAD DUP2 LT PUSH2 0x50A JUMPI DUP11 SWAP12 SWAP3 PUSH1 0x64 DUP12 SWAP13 SWAP7 SWAP6 SWAP4 DUP10 SWAP4 SWAP11 SWAP14 DUP15 SWAP6 PUSH2 0x278 JUMP JUMPDEST DUP9 MLOAD PUSH3 0x461BCD PUSH1 0xE5 SHL DUP2 MSTORE DUP1 DUP8 ADD DUP9 SWAP1 MSTORE PUSH1 0x1 DUP2 DUP14 ADD MSTORE PUSH1 0x13 PUSH1 0xFA SHL PUSH1 0x44 DUP3 ADD MSTORE PUSH1 0x64 SWAP1 REVERT JUMPDEST PUSH2 0x542 SWAP4 SWAP10 POP PUSH2 0x4DD SWAP2 SWAP3 POP CALLVALUE PUSH2 0x809 JUMP JUMPDEST SWAP6 PUSH1 0x44 CALLDATALOAD DUP8 LT PUSH2 0x561 JUMPI SWAP2 DUP6 DUP11 SWAP12 SWAP3 PUSH1 0x64 DUP12 SWAP13 SWAP7 SWAP6 CALLVALUE SWAP11 SWAP14 DUP15 SWAP6 PUSH2 0x278 JUMP JUMPDEST DUP8 MLOAD PUSH3 0x461BCD PUSH1 0xE5 SHL DUP2 MSTORE DUP1 DUP7 ADD DUP8 SWAP1 MSTORE PUSH1 0x1 DUP2 DUP13 ADD MSTORE PUSH1 0x15 PUSH1 0xFA SHL PUSH1 0x44 DUP3 ADD MSTORE PUSH1 0x64 SWAP1 REVERT JUMPDEST PUSH2 0x260 JUMP JUMPDEST SWAP2 POP SWAP2 POP PUSH1 0x60 DUP2 RETURNDATASIZE DUP3 GT PUSH2 0x5D6 JUMPI JUMPDEST DUP2 PUSH2 0x5A8 PUSH1 0x60 SWAP4 DUP4 PUSH2 0x7AD JUMP JUMPDEST DUP2 ADD SUB SLT PUSH2 0x5D2 JUMPI DUP1 MLOAD DUP11 DUP10 DUP4 ADD MLOAD SWAP3 ADD MLOAD PUSH4 0xFFFFFFFF DUP2 AND SUB PUSH2 0x5CE JUMPI SWAP1 SWAP2 DUP15 PUSH2 0x257 JUMP JUMPDEST DUP12 DUP1 REVERT JUMPDEST DUP11 DUP1 REVERT JUMPDEST RETURNDATASIZE SWAP2 POP PUSH2 0x59B JUMP JUMPDEST DUP11 MLOAD RETURNDATASIZE DUP14 DUP3 RETURNDATACOPY RETURNDATASIZE SWAP1 REVERT JUMPDEST DUP10 MLOAD PUSH3 0x461BCD PUSH1 0xE5 SHL DUP2 MSTORE DUP1 DUP9 ADD DUP10 SWAP1 MSTORE PUSH1 0x1E DUP2 DUP15 ADD MSTORE PUSH32 0x4B6F7274616E614C6962726172793A20504149525F4E4F545F464F554E440000 PUSH1 0x44 DUP3 ADD MSTORE PUSH1 0x64 SWAP1 REVERT JUMPDEST PUSH2 0x64A SWAP2 POP DUP10 RETURNDATASIZE DUP12 GT PUSH2 0x650 JUMPI JUMPDEST PUSH2 0x642 DUP2 DUP4 PUSH2 0x7AD JUMP JUMPDEST DUP2 ADD SWAP1 PUSH2 0x7E5 JUMP JUMPDEST DUP15 PUSH2 0x229 JUMP JUMPDEST POP RETURNDATASIZE PUSH2 0x638 JUMP JUMPDEST POP POP DUP11 MLOAD PUSH3 0x461BCD PUSH1 0xE5 SHL DUP2 MSTORE DUP1 DUP10 ADD DUP11 SWAP1 MSTORE PUSH1 0x1C DUP2 DUP16 ADD MSTORE PUSH32 0x4B6F7274616E614C6962726172793A205A45524F5F4144445245535300000000 PUSH1 0x44 DUP3 ADD MSTORE PUSH1 0x64 SWAP1 REVERT JUMPDEST DUP6 DUP4 PUSH2 0x1E1 JUMP JUMPDEST POP DUP11 MLOAD PUSH3 0x461BCD PUSH1 0xE5 SHL DUP2 MSTORE DUP1 DUP10 ADD DUP11 SWAP1 MSTORE PUSH1 0x23 DUP2 DUP16 ADD MSTORE PUSH32 0x4B6F7274616E614C6962726172793A204944454E544943414C5F414444524553 PUSH1 0x44 DUP3 ADD MSTORE PUSH3 0x534553 PUSH1 0xE8 SHL PUSH1 0x64 DUP3 ADD MSTORE PUSH1 0x84 SWAP1 REVERT JUMPDEST MLOAD PUSH4 0x64E329CB PUSH1 0xE1 SHL DUP2 MSTORE PUSH1 0x1 PUSH1 0x1 PUSH1 0xA0 SHL SUB DUP1 DUP8 AND SWAP3 DUP3 ADD SWAP3 DUP4 MSTORE DUP8 AND PUSH1 0x20 DUP4 ADD MSTORE SWAP5 SWAP8 POP DUP5 SWAP3 SWAP2 DUP4 SWAP2 DUP3 SWAP1 PUSH1 0x40 ADD SUB SWAP3 GAS CALL SWAP1 DUP2 ISZERO PUSH2 0x75C JUMPI DUP13 SWAP2 PUSH2 0x73F JUMPI JUMPDEST POP SWAP3 DUP9 DUP15 DUP14 DUP11 DUP15 PUSH2 0x1C6 JUMP JUMPDEST PUSH2 0x756 SWAP2 POP DUP10 RETURNDATASIZE DUP12 GT PUSH2 0x650 JUMPI PUSH2 0x642 DUP2 DUP4 PUSH2 0x7AD JUMP JUMPDEST DUP15 PUSH2 0x733 JUMP JUMPDEST DUP12 MLOAD RETURNDATASIZE DUP15 DUP3 RETURNDATACOPY RETURNDATASIZE SWAP1 REVERT JUMPDEST PUSH2 0x77E SWAP2 SWAP10 POP DUP6 RETURNDATASIZE DUP8 GT PUSH2 0x650 JUMPI PUSH2 0x642 DUP2 DUP4 PUSH2 0x7AD JUMP JUMPDEST SWAP8 CODESIZE PUSH2 0x1BC JUMP JUMPDEST PUSH3 0x461BCD PUSH1 0xE5 SHL DUP2 MSTORE PUSH1 0x20 DUP5 DUP3 ADD MSTORE PUSH1 0x1 DUP10 DUP3 ADD MSTORE PUSH1 0x45 PUSH1 0xF8 SHL PUSH1 0x44 DUP3 ADD MSTORE PUSH1 0x64 SWAP1 REVERT JUMPDEST DUP5 DUP1 REVERT JUMPDEST SWAP1 PUSH1 0x1F DUP1 NOT SWAP2 ADD AND DUP2 ADD SWAP1 DUP2 LT PUSH8 0xFFFFFFFFFFFFFFFF DUP3 GT OR PUSH2 0x7CF JUMPI PUSH1 0x40 MSTORE JUMP JUMPDEST PUSH4 0x4E487B71 PUSH1 0xE0 SHL PUSH1 0x0 MSTORE PUSH1 0x41 PUSH1 0x4 MSTORE PUSH1 0x24 PUSH1 0x0 REVERT JUMPDEST SWAP1 DUP2 PUSH1 0x20 SWAP2 SUB SLT PUSH2 0x804 JUMPI MLOAD PUSH1 0x1 PUSH1 0x1 PUSH1 0xA0 SHL SUB DUP2 AND DUP2 SUB PUSH2 0x804 JUMPI SWAP1 JUMP JUMPDEST PUSH1 0x0 DUP1 REVERT JUMPDEST DUP2 DUP2 MUL SWAP3 SWAP2 DUP2 ISZERO SWAP2 DUP5 DIV EQ OR ISZERO PUSH2 0x81C JUMPI JUMP JUMPDEST PUSH4 0x4E487B71 PUSH1 0xE0 SHL PUSH1 0x0 MSTORE PUSH1 0x11 PUSH1 0x4 MSTORE PUSH1 0x24 PUSH1 0x0 REVERT JUMPDEST DUP2 ISZERO PUSH2 0x83C JUMPI DIV SWAP1 JUMP JUMPDEST PUSH4 0x4E487B71 PUSH1 0xE0 SHL PUSH1 0x0 MSTORE PUSH1 0x12 PUSH1 0x4 MSTORE PUSH1 0x24 PUSH1 0x0 REVERT JUMPDEST SWAP1 DUP2 PUSH1 0x20 SWAP2 SUB SLT PUSH2 0x804 JUMPI MLOAD DUP1 ISZERO ISZERO DUP2 SUB PUSH2 0x804 JUMPI SWAP1 JUMP INVALID LOG2 PUSH5 0x6970667358 0x22 SLT KECCAK256 DUP1 CALLDATACOPY OR REVERT PUSH6 0xC8F576699373 KECCAK256 PUSH31 0x2F2DBCEAE9E8BE76F8F8AB7138230B004865A464736F6C6343000814003300 "},"methodIdentifiers":{"WDNR()":"d2d8d32f","addLiquidityDNR(address,uint256,uint256,uint256,address,uint256)":"74fa1337","factory()":"c45a0155"}},"storageLayout":{"storage":[],"types":null}}}}