{"contracts/sovereign/NativeSovereignPatch.sol":{"NativeSovereignPatch":{"abi":[{"inputs":[{"internalType":"address","name":"_usdc","type":"address"}],"stateMutability":"nonpayable","type":"constructor"},{"anonymous":false,"inputs":[{"indexed":true,"internalType":"address","name":"sender","type":"address"},{"indexed":false,"internalType":"uint256","name":"dnrIn","type":"uint256"},{"indexed":false,"internalType":"uint256","name":"usdcIn","type":"uint256"},{"indexed":false,"internalType":"uint256","name":"dnrOut","type":"uint256"},{"indexed":false,"internalType":"uint256","name":"usdcOut","type":"uint256"}],"name":"Swap","type":"event"},{"anonymous":false,"inputs":[{"indexed":false,"internalType":"uint256","name":"reserveDNR","type":"uint256"},{"indexed":false,"internalType":"uint256","name":"reserveUSDC","type":"uint256"}],"name":"Sync","type":"event"},{"inputs":[{"internalType":"uint256","name":"usdcAmountIn","type":"uint256"},{"internalType":"uint256","name":"minDnrOut","type":"uint256"},{"internalType":"address","name":"to","type":"address"}],"name":"buyDNR","outputs":[],"stateMutability":"nonpayable","type":"function"},{"inputs":[{"internalType":"uint256","name":"minUsdcOut","type":"uint256"},{"internalType":"address","name":"to","type":"address"}],"name":"buyUSDC","outputs":[],"stateMutability":"payable","type":"function"},{"inputs":[],"name":"depositDNR","outputs":[],"stateMutability":"payable","type":"function"},{"inputs":[],"name":"reserveDNR","outputs":[{"internalType":"uint256","name":"","type":"uint256"}],"stateMutability":"view","type":"function"},{"inputs":[],"name":"reserveUSDC","outputs":[{"internalType":"uint256","name":"","type":"uint256"}],"stateMutability":"view","type":"function"},{"inputs":[],"name":"sync","outputs":[],"stateMutability":"nonpayable","type":"function"},{"inputs":[],"name":"usdc","outputs":[{"internalType":"address","name":"","type":"address"}],"stateMutability":"view","type":"function"},{"stateMutability":"payable","type":"receive"}],"evm":{"bytecode":{"linkReferences":{},"object":"60a03461008457601f61075a38819003918201601f19168301916001600160401b038311848410176100895780849260209460405283398101031261008457516001600160a01b03811681036100845760016000556080526040516106ba90816100a082396080518181816101120152818161031f015281816103ee01526104760152f35b600080fd5b634e487b7160e01b600052604160045260246000fdfe608060409080825260049182361015610023575b505050361561002157600080fd5b005b600092833560e01c9283633e413bee146103da57508263643da245146103c65782638d5fc21814610295578263af7c2d8814610276578263c87b502e14610257578263eef3a69a146100a057505063fff6cae914610082578080610013565b3461009d578060031936011261009d5761009a610455565b80f35b80fd5b90915034610253576060366003190112610253578035916001600160a01b0360443581811691869183900361024f576020906100da61062e565b6100e5871515610543565b6100ed610455565b60648551809481936323b872dd60e01b8352338a8401523060248401528a60448401527f0000000000000000000000000000000000000000000000000000000000000000165af1801561024557610217575b5061016161014f600154866105a1565b61015b866002546105ca565b906105d7565b926101706024358510156105f7565b478410156101e857508480808581948282156101df575bf1156101d657610195610455565b80519284845260208401528201528160608201527f49926bbebe8474393f434dfa4f78694c0923efa07d19f2284518bfabd06eb73760803392a26001815580f35b513d84823e3d90fd5b506108fc610187565b606490602084519162461bcd60e51b835282015260096024820152684c495155494449545960b81b6044820152fd5b6102379060203d811161023e575b61022f818361041d565b810190610584565b503861013f565b503d610225565b83513d88823e3d90fd5b5080fd5b8280fd5b83823461024f578160031936011261024f576020906002549051908152f35b83823461024f578160031936011261024f576020906001549051908152f35b90809250600319360112610253576001600160a01b03602435818116908190036103c2576020906102c461062e565b6102cf341515610543565b6102d7610455565b60446102f46102e8600254346105a1565b61015b346001546105ca565b9461030281358710156105f7565b878751958694859363a9059cbb60e01b85528401528760248401527f0000000000000000000000000000000000000000000000000000000000000000165af180156103b557610397575b50610355610455565b8282519234845281602085015283015260608201527f49926bbebe8474393f434dfa4f78694c0923efa07d19f2284518bfabd06eb73760803392a26001815580f35b6103ae9060203d811161023e5761022f818361041d565b503861034c565b50505051903d90823e3d90fd5b8480fd5b838060031936011261009d5761009a610455565b84903461024f578160031936011261024f577f00000000000000000000000000000000000000000000000000000000000000006001600160a01b03168152602090f35b90601f8019910116810190811067ffffffffffffffff82111761043f57604052565b634e487b7160e01b600052604160045260246000fd5b4760018190556040516370a0823160e01b81523060048201526020816024817f00000000000000000000000000000000000000000000000000000000000000006001600160a01b03165afa908115610537576000916104e6575b507fcf2aa50876cdfbb541206f89af0ee78d44a2abf8d328e37fa4917f982149848a918160409260025582519182526020820152a1565b906020823d821161052f575b816104ff6020938361041d565b8101031261009d5750517fcf2aa50876cdfbb541206f89af0ee78d44a2abf8d328e37fa4917f982149848a6104af565b3d91506104f2565b6040513d6000823e3d90fd5b1561054a57565b60405162461bcd60e51b8152602060048201526012602482015271125394d551919250d251539517d25394155560721b6044820152606490fd5b9081602091031261059c5751801515810361059c5790565b600080fd5b818102929181159184041417156105b457565b634e487b7160e01b600052601160045260246000fd5b919082018092116105b457565b81156105e1570490565b634e487b7160e01b600052601260045260246000fd5b156105fe57565b60405162461bcd60e51b8152602060048201526008602482015267534c49505041474560c01b6044820152606490fd5b60026000541461063f576002600055565b60405162461bcd60e51b815260206004820152601f60248201527f5265656e7472616e637947756172643a207265656e7472616e742063616c6c006044820152606490fdfea2646970667358221220fa0efdc9d65e922eaa3ef0de79fc866da21553f611575d179f7cdf1dee28cfd764736f6c63430008140033","opcodes":"PUSH1 0xA0 CALLVALUE PUSH2 0x84 JUMPI PUSH1 0x1F PUSH2 0x75A CODESIZE DUP2 SWAP1 SUB SWAP2 DUP3 ADD PUSH1 0x1F NOT AND DUP4 ADD SWAP2 PUSH1 0x1 PUSH1 0x1 PUSH1 0x40 SHL SUB DUP4 GT DUP5 DUP5 LT OR PUSH2 0x89 JUMPI DUP1 DUP5 SWAP3 PUSH1 0x20 SWAP5 PUSH1 0x40 MSTORE DUP4 CODECOPY DUP2 ADD SUB SLT PUSH2 0x84 JUMPI MLOAD PUSH1 0x1 PUSH1 0x1 PUSH1 0xA0 SHL SUB DUP2 AND DUP2 SUB PUSH2 0x84 JUMPI PUSH1 0x1 PUSH1 0x0 SSTORE PUSH1 0x80 MSTORE PUSH1 0x40 MLOAD PUSH2 0x6BA SWAP1 DUP2 PUSH2 0xA0 DUP3 CODECOPY PUSH1 0x80 MLOAD DUP2 DUP2 DUP2 PUSH2 0x112 ADD MSTORE DUP2 DUP2 PUSH2 0x31F ADD MSTORE DUP2 DUP2 PUSH2 0x3EE ADD MSTORE PUSH2 0x476 ADD MSTORE RETURN JUMPDEST PUSH1 0x0 DUP1 REVERT JUMPDEST PUSH4 0x4E487B71 PUSH1 0xE0 SHL PUSH1 0x0 MSTORE PUSH1 0x41 PUSH1 0x4 MSTORE PUSH1 0x24 PUSH1 0x0 REVERT INVALID PUSH1 0x80 PUSH1 0x40 SWAP1 DUP1 DUP3 MSTORE PUSH1 0x4 SWAP2 DUP3 CALLDATASIZE LT ISZERO PUSH2 0x23 JUMPI JUMPDEST POP POP POP CALLDATASIZE ISZERO PUSH2 0x21 JUMPI PUSH1 0x0 DUP1 REVERT JUMPDEST STOP JUMPDEST PUSH1 0x0 SWAP3 DUP4 CALLDATALOAD PUSH1 0xE0 SHR SWAP3 DUP4 PUSH4 0x3E413BEE EQ PUSH2 0x3DA JUMPI POP DUP3 PUSH4 0x643DA245 EQ PUSH2 0x3C6 JUMPI DUP3 PUSH4 0x8D5FC218 EQ PUSH2 0x295 JUMPI DUP3 PUSH4 0xAF7C2D88 EQ PUSH2 0x276 JUMPI DUP3 PUSH4 0xC87B502E EQ PUSH2 0x257 JUMPI DUP3 PUSH4 0xEEF3A69A EQ PUSH2 0xA0 JUMPI POP POP PUSH4 0xFFF6CAE9 EQ PUSH2 0x82 JUMPI DUP1 DUP1 PUSH2 0x13 JUMP JUMPDEST CALLVALUE PUSH2 0x9D JUMPI DUP1 PUSH1 0x3 NOT CALLDATASIZE ADD SLT PUSH2 0x9D JUMPI PUSH2 0x9A PUSH2 0x455 JUMP JUMPDEST DUP1 RETURN JUMPDEST DUP1 REVERT JUMPDEST SWAP1 SWAP2 POP CALLVALUE PUSH2 0x253 JUMPI PUSH1 0x60 CALLDATASIZE PUSH1 0x3 NOT ADD SLT PUSH2 0x253 JUMPI DUP1 CALLDATALOAD SWAP2 PUSH1 0x1 PUSH1 0x1 PUSH1 0xA0 SHL SUB PUSH1 0x44 CALLDATALOAD DUP2 DUP2 AND SWAP2 DUP7 SWAP2 DUP4 SWAP1 SUB PUSH2 0x24F JUMPI PUSH1 0x20 SWAP1 PUSH2 0xDA PUSH2 0x62E JUMP JUMPDEST PUSH2 0xE5 DUP8 ISZERO ISZERO PUSH2 0x543 JUMP JUMPDEST PUSH2 0xED PUSH2 0x455 JUMP JUMPDEST PUSH1 0x64 DUP6 MLOAD DUP1 SWAP5 DUP2 SWAP4 PUSH4 0x23B872DD PUSH1 0xE0 SHL DUP4 MSTORE CALLER DUP11 DUP5 ADD MSTORE ADDRESS PUSH1 0x24 DUP5 ADD MSTORE DUP11 PUSH1 0x44 DUP5 ADD MSTORE PUSH32 0x0 AND GAS CALL DUP1 ISZERO PUSH2 0x245 JUMPI PUSH2 0x217 JUMPI JUMPDEST POP PUSH2 0x161 PUSH2 0x14F PUSH1 0x1 SLOAD DUP7 PUSH2 0x5A1 JUMP JUMPDEST PUSH2 0x15B DUP7 PUSH1 0x2 SLOAD PUSH2 0x5CA JUMP JUMPDEST SWAP1 PUSH2 0x5D7 JUMP JUMPDEST SWAP3 PUSH2 0x170 PUSH1 0x24 CALLDATALOAD DUP6 LT ISZERO PUSH2 0x5F7 JUMP JUMPDEST SELFBALANCE DUP5 LT ISZERO PUSH2 0x1E8 JUMPI POP DUP5 DUP1 DUP1 DUP6 DUP2 SWAP5 DUP3 DUP3 ISZERO PUSH2 0x1DF JUMPI JUMPDEST CALL ISZERO PUSH2 0x1D6 JUMPI PUSH2 0x195 PUSH2 0x455 JUMP JUMPDEST DUP1 MLOAD SWAP3 DUP5 DUP5 MSTORE PUSH1 0x20 DUP5 ADD MSTORE DUP3 ADD MSTORE DUP2 PUSH1 0x60 DUP3 ADD MSTORE PUSH32 0x49926BBEBE8474393F434DFA4F78694C0923EFA07D19F2284518BFABD06EB737 PUSH1 0x80 CALLER SWAP3 LOG2 PUSH1 0x1 DUP2 SSTORE DUP1 RETURN JUMPDEST MLOAD RETURNDATASIZE DUP5 DUP3 RETURNDATACOPY RETURNDATASIZE SWAP1 REVERT JUMPDEST POP PUSH2 0x8FC PUSH2 0x187 JUMP JUMPDEST PUSH1 0x64 SWAP1 PUSH1 0x20 DUP5 MLOAD SWAP2 PUSH3 0x461BCD PUSH1 0xE5 SHL DUP4 MSTORE DUP3 ADD MSTORE PUSH1 0x9 PUSH1 0x24 DUP3 ADD MSTORE PUSH9 0x4C4951554944495459 PUSH1 0xB8 SHL PUSH1 0x44 DUP3 ADD MSTORE REVERT JUMPDEST PUSH2 0x237 SWAP1 PUSH1 0x20 RETURNDATASIZE DUP2 GT PUSH2 0x23E JUMPI JUMPDEST PUSH2 0x22F DUP2 DUP4 PUSH2 0x41D JUMP JUMPDEST DUP2 ADD SWAP1 PUSH2 0x584 JUMP JUMPDEST POP CODESIZE PUSH2 0x13F JUMP JUMPDEST POP RETURNDATASIZE PUSH2 0x225 JUMP JUMPDEST DUP4 MLOAD RETURNDATASIZE DUP9 DUP3 RETURNDATACOPY RETURNDATASIZE SWAP1 REVERT JUMPDEST POP DUP1 REVERT JUMPDEST DUP3 DUP1 REVERT JUMPDEST DUP4 DUP3 CALLVALUE PUSH2 0x24F JUMPI DUP2 PUSH1 0x3 NOT CALLDATASIZE ADD SLT PUSH2 0x24F JUMPI PUSH1 0x20 SWAP1 PUSH1 0x2 SLOAD SWAP1 MLOAD SWAP1 DUP2 MSTORE RETURN JUMPDEST DUP4 DUP3 CALLVALUE PUSH2 0x24F JUMPI DUP2 PUSH1 0x3 NOT CALLDATASIZE ADD SLT PUSH2 0x24F JUMPI PUSH1 0x20 SWAP1 PUSH1 0x1 SLOAD SWAP1 MLOAD SWAP1 DUP2 MSTORE RETURN JUMPDEST SWAP1 DUP1 SWAP3 POP PUSH1 0x3 NOT CALLDATASIZE ADD SLT PUSH2 0x253 JUMPI PUSH1 0x1 PUSH1 0x1 PUSH1 0xA0 SHL SUB PUSH1 0x24 CALLDATALOAD DUP2 DUP2 AND SWAP1 DUP2 SWAP1 SUB PUSH2 0x3C2 JUMPI PUSH1 0x20 SWAP1 PUSH2 0x2C4 PUSH2 0x62E JUMP JUMPDEST PUSH2 0x2CF CALLVALUE ISZERO ISZERO PUSH2 0x543 JUMP JUMPDEST PUSH2 0x2D7 PUSH2 0x455 JUMP JUMPDEST PUSH1 0x44 PUSH2 0x2F4 PUSH2 0x2E8 PUSH1 0x2 SLOAD CALLVALUE PUSH2 0x5A1 JUMP JUMPDEST PUSH2 0x15B CALLVALUE PUSH1 0x1 SLOAD PUSH2 0x5CA JUMP JUMPDEST SWAP5 PUSH2 0x302 DUP2 CALLDATALOAD DUP8 LT ISZERO PUSH2 0x5F7 JUMP JUMPDEST DUP8 DUP8 MLOAD SWAP6 DUP7 SWAP5 DUP6 SWAP4 PUSH4 0xA9059CBB PUSH1 0xE0 SHL DUP6 MSTORE DUP5 ADD MSTORE DUP8 PUSH1 0x24 DUP5 ADD MSTORE PUSH32 0x0 AND GAS CALL DUP1 ISZERO PUSH2 0x3B5 JUMPI PUSH2 0x397 JUMPI JUMPDEST POP PUSH2 0x355 PUSH2 0x455 JUMP JUMPDEST DUP3 DUP3 MLOAD SWAP3 CALLVALUE DUP5 MSTORE DUP2 PUSH1 0x20 DUP6 ADD MSTORE DUP4 ADD MSTORE PUSH1 0x60 DUP3 ADD MSTORE PUSH32 0x49926BBEBE8474393F434DFA4F78694C0923EFA07D19F2284518BFABD06EB737 PUSH1 0x80 CALLER SWAP3 LOG2 PUSH1 0x1 DUP2 SSTORE DUP1 RETURN JUMPDEST PUSH2 0x3AE SWAP1 PUSH1 0x20 RETURNDATASIZE DUP2 GT PUSH2 0x23E JUMPI PUSH2 0x22F DUP2 DUP4 PUSH2 0x41D JUMP JUMPDEST POP CODESIZE PUSH2 0x34C JUMP JUMPDEST POP POP POP MLOAD SWAP1 RETURNDATASIZE SWAP1 DUP3 RETURNDATACOPY RETURNDATASIZE SWAP1 REVERT JUMPDEST DUP5 DUP1 REVERT JUMPDEST DUP4 DUP1 PUSH1 0x3 NOT CALLDATASIZE ADD SLT PUSH2 0x9D JUMPI PUSH2 0x9A PUSH2 0x455 JUMP JUMPDEST DUP5 SWAP1 CALLVALUE PUSH2 0x24F JUMPI DUP2 PUSH1 0x3 NOT CALLDATASIZE ADD SLT PUSH2 0x24F JUMPI PUSH32 0x0 PUSH1 0x1 PUSH1 0x1 PUSH1 0xA0 SHL SUB AND DUP2 MSTORE PUSH1 0x20 SWAP1 RETURN JUMPDEST SWAP1 PUSH1 0x1F DUP1 NOT SWAP2 ADD AND DUP2 ADD SWAP1 DUP2 LT PUSH8 0xFFFFFFFFFFFFFFFF DUP3 GT OR PUSH2 0x43F JUMPI PUSH1 0x40 MSTORE JUMP JUMPDEST PUSH4 0x4E487B71 PUSH1 0xE0 SHL PUSH1 0x0 MSTORE PUSH1 0x41 PUSH1 0x4 MSTORE PUSH1 0x24 PUSH1 0x0 REVERT JUMPDEST SELFBALANCE PUSH1 0x1 DUP2 SWAP1 SSTORE PUSH1 0x40 MLOAD PUSH4 0x70A08231 PUSH1 0xE0 SHL DUP2 MSTORE ADDRESS PUSH1 0x4 DUP3 ADD MSTORE PUSH1 0x20 DUP2 PUSH1 0x24 DUP2 PUSH32 0x0 PUSH1 0x1 PUSH1 0x1 PUSH1 0xA0 SHL SUB AND GAS STATICCALL SWAP1 DUP2 ISZERO PUSH2 0x537 JUMPI PUSH1 0x0 SWAP2 PUSH2 0x4E6 JUMPI JUMPDEST POP PUSH32 0xCF2AA50876CDFBB541206F89AF0EE78D44A2ABF8D328E37FA4917F982149848A SWAP2 DUP2 PUSH1 0x40 SWAP3 PUSH1 0x2 SSTORE DUP3 MLOAD SWAP2 DUP3 MSTORE PUSH1 0x20 DUP3 ADD MSTORE LOG1 JUMP JUMPDEST SWAP1 PUSH1 0x20 DUP3 RETURNDATASIZE DUP3 GT PUSH2 0x52F JUMPI JUMPDEST DUP2 PUSH2 0x4FF PUSH1 0x20 SWAP4 DUP4 PUSH2 0x41D JUMP JUMPDEST DUP2 ADD SUB SLT PUSH2 0x9D JUMPI POP MLOAD PUSH32 0xCF2AA50876CDFBB541206F89AF0EE78D44A2ABF8D328E37FA4917F982149848A PUSH2 0x4AF JUMP JUMPDEST RETURNDATASIZE SWAP2 POP PUSH2 0x4F2 JUMP JUMPDEST PUSH1 0x40 MLOAD RETURNDATASIZE PUSH1 0x0 DUP3 RETURNDATACOPY RETURNDATASIZE SWAP1 REVERT JUMPDEST ISZERO PUSH2 0x54A JUMPI JUMP JUMPDEST PUSH1 0x40 MLOAD PUSH3 0x461BCD PUSH1 0xE5 SHL DUP2 MSTORE PUSH1 0x20 PUSH1 0x4 DUP3 ADD MSTORE PUSH1 0x12 PUSH1 0x24 DUP3 ADD MSTORE PUSH18 0x125394D551919250D251539517D253941555 PUSH1 0x72 SHL PUSH1 0x44 DUP3 ADD MSTORE PUSH1 0x64 SWAP1 REVERT JUMPDEST SWAP1 DUP2 PUSH1 0x20 SWAP2 SUB SLT PUSH2 0x59C JUMPI MLOAD DUP1 ISZERO ISZERO DUP2 SUB PUSH2 0x59C JUMPI SWAP1 JUMP JUMPDEST PUSH1 0x0 DUP1 REVERT JUMPDEST DUP2 DUP2 MUL SWAP3 SWAP2 DUP2 ISZERO SWAP2 DUP5 DIV EQ OR ISZERO PUSH2 0x5B4 JUMPI JUMP JUMPDEST PUSH4 0x4E487B71 PUSH1 0xE0 SHL PUSH1 0x0 MSTORE PUSH1 0x11 PUSH1 0x4 MSTORE PUSH1 0x24 PUSH1 0x0 REVERT JUMPDEST SWAP2 SWAP1 DUP3 ADD DUP1 SWAP3 GT PUSH2 0x5B4 JUMPI JUMP JUMPDEST DUP2 ISZERO PUSH2 0x5E1 JUMPI DIV SWAP1 JUMP JUMPDEST PUSH4 0x4E487B71 PUSH1 0xE0 SHL PUSH1 0x0 MSTORE PUSH1 0x12 PUSH1 0x4 MSTORE PUSH1 0x24 PUSH1 0x0 REVERT JUMPDEST ISZERO PUSH2 0x5FE JUMPI JUMP JUMPDEST PUSH1 0x40 MLOAD PUSH3 0x461BCD PUSH1 0xE5 SHL DUP2 MSTORE PUSH1 0x20 PUSH1 0x4 DUP3 ADD MSTORE PUSH1 0x8 PUSH1 0x24 DUP3 ADD MSTORE PUSH8 0x534C495050414745 PUSH1 0xC0 SHL PUSH1 0x44 DUP3 ADD MSTORE PUSH1 0x64 SWAP1 REVERT JUMPDEST PUSH1 0x2 PUSH1 0x0 SLOAD EQ PUSH2 0x63F JUMPI PUSH1 0x2 PUSH1 0x0 SSTORE JUMP JUMPDEST PUSH1 0x40 MLOAD PUSH3 0x461BCD PUSH1 0xE5 SHL DUP2 MSTORE PUSH1 0x20 PUSH1 0x4 DUP3 ADD MSTORE PUSH1 0x1F PUSH1 0x24 DUP3 ADD MSTORE PUSH32 0x5265656E7472616E637947756172643A207265656E7472616E742063616C6C00 PUSH1 0x44 DUP3 ADD MSTORE PUSH1 0x64 SWAP1 REVERT INVALID LOG2 PUSH5 0x6970667358 0x22 SLT KECCAK256 STATICCALL 0xE REVERT 0xC9 0xD6 0x5E SWAP3 0x2E 0xAA RETURNDATACOPY CREATE 0xDE PUSH26 0xFC866DA21553F611575D179F7CDF1DEE28CFD764736F6C634300 ADDMOD EQ STOP CALLER "},"methodIdentifiers":{"buyDNR(uint256,uint256,address)":"eef3a69a","buyUSDC(uint256,address)":"8d5fc218","depositDNR()":"643da245","reserveDNR()":"af7c2d88","reserveUSDC()":"c87b502e","sync()":"fff6cae9","usdc()":"3e413bee"}},"storageLayout":{"storage":[{"astId":620,"contract":"contracts/sovereign/NativeSovereignPatch.sol:NativeSovereignPatch","label":"_status","offset":0,"slot":"0","type":"t_uint256"},{"astId":7965,"contract":"contracts/sovereign/NativeSovereignPatch.sol:NativeSovereignPatch","label":"reserveDNR","offset":0,"slot":"1","type":"t_uint256"},{"astId":7967,"contract":"contracts/sovereign/NativeSovereignPatch.sol:NativeSovereignPatch","label":"reserveUSDC","offset":0,"slot":"2","type":"t_uint256"}],"types":{"t_uint256":{"encoding":"inplace","label":"uint256","numberOfBytes":"32"}}}}}}