{"contracts/debug/DebugRouterGas.sol":{"DebugRouterGas":{"abi":[{"inputs":[],"name":"PAIR","outputs":[{"internalType":"address","name":"","type":"address"}],"stateMutability":"view","type":"function"},{"inputs":[{"internalType":"uint32","name":"gasLim","type":"uint32"}],"name":"probe","outputs":[{"internalType":"bool","name":"","type":"bool"},{"internalType":"bytes","name":"","type":"bytes"}],"stateMutability":"view","type":"function"}],"evm":{"bytecode":{"linkReferences":{},"object":"60808060405234610016576101ea908161001c8239f35b600080fdfe608060408181526004918236101561001657600080fd5b600090813560e01c908163ace3a8a714610186575063cd59fd081461003a57600080fd5b346101835760208060031936011261017f5783359363ffffffff851680950361017b578351630240bc6b60e21b83820190815282825267ffffffffffffffff9691808701888111828210176101685787525185928392907385782446b5ac7c4bcce639698042e3ebf46d524290fa943d1561015b573d9080821161014857855192601f8301601f19908116603f01168401918211848310176101355750855281523d838383013e929093915b815194859315158452828185015284518093850152815b83811061011e57505060608094508284010152601f80199101168101030190f35b8086018201518782016060015286945081016100fd565b634e487b7160e01b865260419052602485fd5b634e487b7160e01b855260418352602485fd5b50506060929093916100e6565b634e487b7160e01b875260418552602487fd5b8280fd5b5080fd5b80fd5b90503461017f578160031936011261017f57807385782446b5ac7c4bcce639698042e3ebf46d524260209252f3fea2646970667358221220fc4a9c4a34c374f49ea69c293f76b94b5907770d19def3eac8ec2539c7652d9464736f6c63430008140033","opcodes":"PUSH1 0x80 DUP1 PUSH1 0x40 MSTORE CALLVALUE PUSH2 0x16 JUMPI PUSH2 0x1EA SWAP1 DUP2 PUSH2 0x1C DUP3 CODECOPY RETURN JUMPDEST PUSH1 0x0 DUP1 REVERT INVALID PUSH1 0x80 PUSH1 0x40 DUP2 DUP2 MSTORE PUSH1 0x4 SWAP2 DUP3 CALLDATASIZE LT ISZERO PUSH2 0x16 JUMPI PUSH1 0x0 DUP1 REVERT JUMPDEST PUSH1 0x0 SWAP1 DUP2 CALLDATALOAD PUSH1 0xE0 SHR SWAP1 DUP2 PUSH4 0xACE3A8A7 EQ PUSH2 0x186 JUMPI POP PUSH4 0xCD59FD08 EQ PUSH2 0x3A JUMPI PUSH1 0x0 DUP1 REVERT JUMPDEST CALLVALUE PUSH2 0x183 JUMPI PUSH1 0x20 DUP1 PUSH1 0x3 NOT CALLDATASIZE ADD SLT PUSH2 0x17F JUMPI DUP4 CALLDATALOAD SWAP4 PUSH4 0xFFFFFFFF DUP6 AND DUP1 SWAP6 SUB PUSH2 0x17B JUMPI DUP4 MLOAD PUSH4 0x240BC6B PUSH1 0xE2 SHL DUP4 DUP3 ADD SWAP1 DUP2 MSTORE DUP3 DUP3 MSTORE PUSH8 0xFFFFFFFFFFFFFFFF SWAP7 SWAP2 DUP1 DUP8 ADD DUP9 DUP2 GT DUP3 DUP3 LT OR PUSH2 0x168 JUMPI DUP8 MSTORE MLOAD DUP6 SWAP3 DUP4 SWAP3 SWAP1 PUSH20 0x85782446B5AC7C4BCCE639698042E3EBF46D5242 SWAP1 STATICCALL SWAP5 RETURNDATASIZE ISZERO PUSH2 0x15B JUMPI RETURNDATASIZE SWAP1 DUP1 DUP3 GT PUSH2 0x148 JUMPI DUP6 MLOAD SWAP3 PUSH1 0x1F DUP4 ADD PUSH1 0x1F NOT SWAP1 DUP2 AND PUSH1 0x3F ADD AND DUP5 ADD SWAP2 DUP3 GT DUP5 DUP4 LT OR PUSH2 0x135 JUMPI POP DUP6 MSTORE DUP2 MSTORE RETURNDATASIZE DUP4 DUP4 DUP4 ADD RETURNDATACOPY SWAP3 SWAP1 SWAP4 SWAP2 JUMPDEST DUP2 MLOAD SWAP5 DUP6 SWAP4 ISZERO ISZERO DUP5 MSTORE DUP3 DUP2 DUP6 ADD MSTORE DUP5 MLOAD DUP1 SWAP4 DUP6 ADD MSTORE DUP2 JUMPDEST DUP4 DUP2 LT PUSH2 0x11E JUMPI POP POP PUSH1 0x60 DUP1 SWAP5 POP DUP3 DUP5 ADD ADD MSTORE PUSH1 0x1F DUP1 NOT SWAP2 ADD AND DUP2 ADD SUB ADD SWAP1 RETURN JUMPDEST DUP1 DUP7 ADD DUP3 ADD MLOAD DUP8 DUP3 ADD PUSH1 0x60 ADD MSTORE DUP7 SWAP5 POP DUP2 ADD PUSH2 0xFD JUMP JUMPDEST PUSH4 0x4E487B71 PUSH1 0xE0 SHL DUP7 MSTORE PUSH1 0x41 SWAP1 MSTORE PUSH1 0x24 DUP6 REVERT JUMPDEST PUSH4 0x4E487B71 PUSH1 0xE0 SHL DUP6 MSTORE PUSH1 0x41 DUP4 MSTORE PUSH1 0x24 DUP6 REVERT JUMPDEST POP POP PUSH1 0x60 SWAP3 SWAP1 SWAP4 SWAP2 PUSH2 0xE6 JUMP JUMPDEST PUSH4 0x4E487B71 PUSH1 0xE0 SHL DUP8 MSTORE PUSH1 0x41 DUP6 MSTORE PUSH1 0x24 DUP8 REVERT JUMPDEST DUP3 DUP1 REVERT JUMPDEST POP DUP1 REVERT JUMPDEST DUP1 REVERT JUMPDEST SWAP1 POP CALLVALUE PUSH2 0x17F JUMPI DUP2 PUSH1 0x3 NOT CALLDATASIZE ADD SLT PUSH2 0x17F JUMPI DUP1 PUSH20 0x85782446B5AC7C4BCCE639698042E3EBF46D5242 PUSH1 0x20 SWAP3 MSTORE RETURN INVALID LOG2 PUSH5 0x6970667358 0x22 SLT KECCAK256 0xFC 0x4A SWAP13 0x4A CALLVALUE 0xC3 PUSH21 0xF49EA69C293F76B94B5907770D19DEF3EAC8EC2539 0xC7 PUSH6 0x2D9464736F6C PUSH4 0x43000814 STOP CALLER "},"methodIdentifiers":{"PAIR()":"ace3a8a7","probe(uint32)":"cd59fd08"}},"storageLayout":{"storage":[],"types":null}}}}