{"contracts/debug/DebugRouterV4.sol":{"DebugRouterV4":{"abi":[{"inputs":[],"name":"PAIR","outputs":[{"internalType":"address","name":"","type":"address"}],"stateMutability":"view","type":"function"},{"inputs":[],"name":"probeToken0","outputs":[{"internalType":"address","name":"","type":"address"}],"stateMutability":"view","type":"function"}],"evm":{"bytecode":{"linkReferences":{},"object":"60808060405234610016576101cf908161001c8239f35b600080fdfe60806040908082526004918236101561001757600080fd5b600091823560e01c908163ace3a8a71461016b575063ffceb1d11461003b57600080fd5b346101675781600319360112610167578051602093848201630dfe168160e01b81528183528383019267ffffffffffffffff93818110858211176101385785525185918291907385782446b5ac7c4bcce639698042e3ebf46d52425afa3d1561015e573d83811161014b57845193601f8201601f19908116603f011685019081118582101761013857855283523d858785013e5b1561010557508381805181010312610101578301516001600160a01b03811692908390036100fe575051908152f35b80fd5b8280fd5b825162461bcd60e51b8152908101859052600d60248201526c1513d2d1538c17d19052531151609a1b6044820152606490fd5b634e487b7160e01b875260418452602487fd5b634e487b7160e01b865260418352602486fd5b606092506100cf565b5080fd5b839034610167578160031936011261016757807385782446b5ac7c4bcce639698042e3ebf46d524260209252f3fea2646970667358221220e21f654969237904aa25172b76f5911d3e1cc4d05f01336df66297f64d7b774c64736f6c63430008140033","opcodes":"PUSH1 0x80 DUP1 PUSH1 0x40 MSTORE CALLVALUE PUSH2 0x16 JUMPI PUSH2 0x1CF SWAP1 DUP2 PUSH2 0x1C DUP3 CODECOPY RETURN JUMPDEST PUSH1 0x0 DUP1 REVERT INVALID PUSH1 0x80 PUSH1 0x40 SWAP1 DUP1 DUP3 MSTORE PUSH1 0x4 SWAP2 DUP3 CALLDATASIZE LT ISZERO PUSH2 0x17 JUMPI PUSH1 0x0 DUP1 REVERT JUMPDEST PUSH1 0x0 SWAP2 DUP3 CALLDATALOAD PUSH1 0xE0 SHR SWAP1 DUP2 PUSH4 0xACE3A8A7 EQ PUSH2 0x16B JUMPI POP PUSH4 0xFFCEB1D1 EQ PUSH2 0x3B JUMPI PUSH1 0x0 DUP1 REVERT JUMPDEST CALLVALUE PUSH2 0x167 JUMPI DUP2 PUSH1 0x3 NOT CALLDATASIZE ADD SLT PUSH2 0x167 JUMPI DUP1 MLOAD PUSH1 0x20 SWAP4 DUP5 DUP3 ADD PUSH4 0xDFE1681 PUSH1 0xE0 SHL DUP2 MSTORE DUP2 DUP4 MSTORE DUP4 DUP4 ADD SWAP3 PUSH8 0xFFFFFFFFFFFFFFFF SWAP4 DUP2 DUP2 LT DUP6 DUP3 GT OR PUSH2 0x138 JUMPI DUP6 MSTORE MLOAD DUP6 SWAP2 DUP3 SWAP2 SWAP1 PUSH20 0x85782446B5AC7C4BCCE639698042E3EBF46D5242 GAS STATICCALL RETURNDATASIZE ISZERO PUSH2 0x15E JUMPI RETURNDATASIZE DUP4 DUP2 GT PUSH2 0x14B JUMPI DUP5 MLOAD SWAP4 PUSH1 0x1F DUP3 ADD PUSH1 0x1F NOT SWAP1 DUP2 AND PUSH1 0x3F ADD AND DUP6 ADD SWAP1 DUP2 GT DUP6 DUP3 LT OR PUSH2 0x138 JUMPI DUP6 MSTORE DUP4 MSTORE RETURNDATASIZE DUP6 DUP8 DUP6 ADD RETURNDATACOPY JUMPDEST ISZERO PUSH2 0x105 JUMPI POP DUP4 DUP2 DUP1 MLOAD DUP2 ADD SUB SLT PUSH2 0x101 JUMPI DUP4 ADD MLOAD PUSH1 0x1 PUSH1 0x1 PUSH1 0xA0 SHL SUB DUP2 AND SWAP3 SWAP1 DUP4 SWAP1 SUB PUSH2 0xFE JUMPI POP MLOAD SWAP1 DUP2 MSTORE RETURN JUMPDEST DUP1 REVERT JUMPDEST DUP3 DUP1 REVERT JUMPDEST DUP3 MLOAD PUSH3 0x461BCD PUSH1 0xE5 SHL DUP2 MSTORE SWAP1 DUP2 ADD DUP6 SWAP1 MSTORE PUSH1 0xD PUSH1 0x24 DUP3 ADD MSTORE PUSH13 0x1513D2D1538C17D19052531151 PUSH1 0x9A SHL PUSH1 0x44 DUP3 ADD MSTORE PUSH1 0x64 SWAP1 REVERT JUMPDEST PUSH4 0x4E487B71 PUSH1 0xE0 SHL DUP8 MSTORE PUSH1 0x41 DUP5 MSTORE PUSH1 0x24 DUP8 REVERT JUMPDEST PUSH4 0x4E487B71 PUSH1 0xE0 SHL DUP7 MSTORE PUSH1 0x41 DUP4 MSTORE PUSH1 0x24 DUP7 REVERT JUMPDEST PUSH1 0x60 SWAP3 POP PUSH2 0xCF JUMP JUMPDEST POP DUP1 REVERT JUMPDEST DUP4 SWAP1 CALLVALUE PUSH2 0x167 JUMPI DUP2 PUSH1 0x3 NOT CALLDATASIZE ADD SLT PUSH2 0x167 JUMPI DUP1 PUSH20 0x85782446B5AC7C4BCCE639698042E3EBF46D5242 PUSH1 0x20 SWAP3 MSTORE RETURN INVALID LOG2 PUSH5 0x6970667358 0x22 SLT KECCAK256 0xE2 0x1F PUSH6 0x4969237904AA 0x25 OR 0x2B PUSH23 0xF5911D3E1CC4D05F01336DF66297F64D7B774C64736F6C PUSH4 0x43000814 STOP CALLER "},"methodIdentifiers":{"PAIR()":"ace3a8a7","probeToken0()":"ffceb1d1"}},"storageLayout":{"storage":[],"types":null}}}}