{"contracts/amm/KortanaAtomicRouter.sol":{"KortanaAtomicRouter":{"abi":[{"inputs":[{"internalType":"address","name":"_WDNR","type":"address"}],"stateMutability":"nonpayable","type":"constructor"},{"anonymous":false,"inputs":[{"indexed":false,"internalType":"address","name":"pair","type":"address"},{"indexed":false,"internalType":"uint256","name":"amountIn","type":"uint256"},{"indexed":false,"internalType":"uint256","name":"amountOut","type":"uint256"}],"name":"SwapExecuted","type":"event"},{"inputs":[],"name":"WDNR","outputs":[{"internalType":"address","name":"","type":"address"}],"stateMutability":"view","type":"function"},{"inputs":[{"internalType":"address","name":"pair","type":"address"},{"internalType":"uint256","name":"amountOutMin","type":"uint256"},{"internalType":"address","name":"to","type":"address"},{"internalType":"uint256","name":"deadline","type":"uint256"}],"name":"swapDNRForTokens","outputs":[],"stateMutability":"payable","type":"function"},{"inputs":[{"internalType":"address","name":"pair","type":"address"},{"internalType":"address","name":"tokenIn","type":"address"},{"internalType":"uint256","name":"amountIn","type":"uint256"},{"internalType":"uint256","name":"amountOutMin","type":"uint256"},{"internalType":"address","name":"to","type":"address"},{"internalType":"uint256","name":"deadline","type":"uint256"}],"name":"swapTokensForDNR","outputs":[],"stateMutability":"nonpayable","type":"function"},{"stateMutability":"payable","type":"receive"}],"evm":{"bytecode":{"linkReferences":{},"object":"60a03461007757601f610a3c38819003918201601f19168301916001600160401b0383118484101761007c5780849260209460405283398101031261007757516001600160a01b0381168103610077576080526040516109a990816100938239608051818181605d0152818161024301526105050152f35b600080fd5b634e487b7160e01b600052604160045260246000fdfe60406080815260049081361015610020575b5050361561001e57600080fd5b005b600091823560e01c9081632e9709d7146104c8578163a26dfabe14610090575063d2d8d32f03610011573461008c578160031936011261008c57517f00000000000000000000000000000000000000000000000000000000000000006001600160a01b03168152602090f35b5080fd5b8391503461008c5760c036600319011261008c576100ac6107cd565b6001600160a01b0391602480358481169291908390036104c357604435946084358181168091036104c3576100e54260a43510156107e3565b88516323b872dd60e01b81523385820152868316848201819052604482018990526020939184816064818e8c5af1908115610458578b91610496575b5015610462578a51630240bc6b60e21b8152966060888881855afa908115610458578b988c92610424575b508c51630dfe168160e01b815286818a81875afa90811561041a579085918e916103ed575b5016149788156103db576001600160701b0380911691165b6103e590818c02918c8304148c1517156103c9576101a790826108e6565b916103e8908181029181830414901517156103c9576101d092916101ca9161090f565b9061091c565b966101df60643589101561093c565b156103c257868a5b823b156103be578c5163022c0d9f60e01b8152808901918252602082019290925230604082015260806060820181905260009082015290918b9183919082908490829060a00103925af180156103b457908a916103a0575b50507f000000000000000000000000000000000000000000000000000000000000000016803b1561039c57888091858c5180948193632e1a7d4d60e01b83528b8b8401525af18015610392579189918793610376575b5081809381925af13d15610371573d67ffffffffffffffff811161035f578951906102c9601f8201601f1916850183610843565b815288833d92013e5b1561032957505094516001600160a01b039092168252602082019290925260408101919091529091507f2d043ce009ff53fd444b0f4f5ff4c3f4ee293265203f77f156eeb33b595dfc4f9080606081015b0390a180f35b875162461bcd60e51b8152928301526013908201527211139488151c985b9cd9995c8819985a5b1959606a1b6044820152606490fd5b634e487b7160e01b8952604185528389fd5b6102d2565b610381919350610819565b61038e578785918b610295565b8780fd5b8a513d8b823e3d90fd5b8880fd5b6103a990610819565b61039c57888b61023f565b8b513d8c823e3d90fd5b8b80fd5b89876101e7565b634e487b7160e01b8d5260118952878dfd5b6001600160701b039182169116610189565b61040d9150883d8a11610413575b6104058183610843565b8101906108c7565b8f610171565b503d6103fb565b8e513d8f823e3d90fd5b909850610448915060603d8111610451575b6104408183610843565b810190610891565b5090978d61014c565b503d610436565b8c513d8d823e3d90fd5b8a5162461bcd60e51b8152808701859052600f818701526e151c985b9cd9995c8819985a5b1959608a1b6044820152606490fd5b6104b69150853d87116104bc575b6104ae8183610843565b810190610865565b8c610121565b503d6104a4565b600080fd5b905060803660031901126107c9576104de6107cd565b6001600160a01b0391604435908382168203610702576105024260643510156107e3565b837f000000000000000000000000000000000000000000000000000000000000000016803b156107c5578551630d0e30db60e41b81528781848134865af180156107bb576107a8575b50855163a9059cbb60e01b81528486168382018190523460248301529160209182816044818d865af180156107815761078b575b508751630240bc6b60e21b8152966060888681875afa928315610781578a988b9461075a575b508951630dfe168160e01b815281818881895afa918215610750578c92610733575b50501614958615610721576001600160701b0380911691165b6103e59081340291348304143415171561070e576105fe90826108e6565b916103e89081810291818304149015171561070e57916101ca610625928b9796959461090f565b9561063460243588101561093c565b15610706578590845b813b15610702578580946106898b519788968795869463022c0d9f60e01b865285019160a0939183526020830152600180841b0316604082015260806060820152600060808201520190565b03925af180156106f8576106e0575b505091516001600160a01b03909216825234602083015260408201527f2d043ce009ff53fd444b0f4f5ff4c3f4ee293265203f77f156eeb33b595dfc4f908060608101610323565b6106e990610819565b6106f4578338610698565b8380fd5b85513d84823e3d90fd5b8580fd5b83908661063d565b634e487b7160e01b8a526011855260248afd5b6001600160701b0391821691166105e0565b6107499250803d10610413576104058183610843565b38806105c7565b8b513d8e823e3d90fd5b90935061077691985060603d8111610451576104408183610843565b5097909792386105a5565b89513d8c823e3d90fd5b6107a190833d85116104bc576104ae8183610843565b503861057f565b6107b490979197610819565b953861054b565b87513d8a823e3d90fd5b8680fd5b8280fd5b600435906001600160a01b03821682036104c357565b156107ea57565b60405162461bcd60e51b8152602060048201526007602482015266115e1c1a5c995960ca1b6044820152606490fd5b67ffffffffffffffff811161082d57604052565b634e487b7160e01b600052604160045260246000fd5b90601f8019910116810190811067ffffffffffffffff82111761082d57604052565b908160209103126104c3575180151581036104c35790565b51906001600160701b03821682036104c357565b908160609103126104c3576108a58161087d565b9160406108b46020840161087d565b92015163ffffffff811681036104c35790565b908160209103126104c357516001600160a01b03811681036104c35790565b818102929181159184041417156108f957565b634e487b7160e01b600052601160045260246000fd5b919082018092116108f957565b8115610926570490565b634e487b7160e01b600052601260045260246000fd5b1561094357565b60405162461bcd60e51b8152602060048201526008602482015267536c69707061676560c01b6044820152606490fdfea2646970667358221220141ac337e5a78ff060240ea9585780d4326025705b8ddce231e8428efeeba05164736f6c63430008140033","opcodes":"PUSH1 0xA0 CALLVALUE PUSH2 0x77 JUMPI PUSH1 0x1F PUSH2 0xA3C CODESIZE DUP2 SWAP1 SUB SWAP2 DUP3 ADD PUSH1 0x1F NOT AND DUP4 ADD SWAP2 PUSH1 0x1 PUSH1 0x1 PUSH1 0x40 SHL SUB DUP4 GT DUP5 DUP5 LT OR PUSH2 0x7C JUMPI DUP1 DUP5 SWAP3 PUSH1 0x20 SWAP5 PUSH1 0x40 MSTORE DUP4 CODECOPY DUP2 ADD SUB SLT PUSH2 0x77 JUMPI MLOAD PUSH1 0x1 PUSH1 0x1 PUSH1 0xA0 SHL SUB DUP2 AND DUP2 SUB PUSH2 0x77 JUMPI PUSH1 0x80 MSTORE PUSH1 0x40 MLOAD PUSH2 0x9A9 SWAP1 DUP2 PUSH2 0x93 DUP3 CODECOPY PUSH1 0x80 MLOAD DUP2 DUP2 DUP2 PUSH1 0x5D ADD MSTORE DUP2 DUP2 PUSH2 0x243 ADD MSTORE PUSH2 0x505 ADD MSTORE RETURN JUMPDEST PUSH1 0x0 DUP1 REVERT JUMPDEST PUSH4 0x4E487B71 PUSH1 0xE0 SHL PUSH1 0x0 MSTORE PUSH1 0x41 PUSH1 0x4 MSTORE PUSH1 0x24 PUSH1 0x0 REVERT INVALID PUSH1 0x40 PUSH1 0x80 DUP2 MSTORE PUSH1 0x4 SWAP1 DUP2 CALLDATASIZE LT ISZERO PUSH2 0x20 JUMPI JUMPDEST POP POP CALLDATASIZE ISZERO PUSH2 0x1E JUMPI PUSH1 0x0 DUP1 REVERT JUMPDEST STOP JUMPDEST PUSH1 0x0 SWAP2 DUP3 CALLDATALOAD PUSH1 0xE0 SHR SWAP1 DUP2 PUSH4 0x2E9709D7 EQ PUSH2 0x4C8 JUMPI DUP2 PUSH4 0xA26DFABE EQ PUSH2 0x90 JUMPI POP PUSH4 0xD2D8D32F SUB PUSH2 0x11 JUMPI CALLVALUE PUSH2 0x8C JUMPI DUP2 PUSH1 0x3 NOT CALLDATASIZE ADD SLT PUSH2 0x8C JUMPI MLOAD PUSH32 0x0 PUSH1 0x1 PUSH1 0x1 PUSH1 0xA0 SHL SUB AND DUP2 MSTORE PUSH1 0x20 SWAP1 RETURN JUMPDEST POP DUP1 REVERT JUMPDEST DUP4 SWAP2 POP CALLVALUE PUSH2 0x8C JUMPI PUSH1 0xC0 CALLDATASIZE PUSH1 0x3 NOT ADD SLT PUSH2 0x8C JUMPI PUSH2 0xAC PUSH2 0x7CD JUMP JUMPDEST PUSH1 0x1 PUSH1 0x1 PUSH1 0xA0 SHL SUB SWAP2 PUSH1 0x24 DUP1 CALLDATALOAD DUP5 DUP2 AND SWAP3 SWAP2 SWAP1 DUP4 SWAP1 SUB PUSH2 0x4C3 JUMPI PUSH1 0x44 CALLDATALOAD SWAP5 PUSH1 0x84 CALLDATALOAD DUP2 DUP2 AND DUP1 SWAP2 SUB PUSH2 0x4C3 JUMPI PUSH2 0xE5 TIMESTAMP PUSH1 0xA4 CALLDATALOAD LT ISZERO PUSH2 0x7E3 JUMP JUMPDEST DUP9 MLOAD PUSH4 0x23B872DD PUSH1 0xE0 SHL DUP2 MSTORE CALLER DUP6 DUP3 ADD MSTORE DUP7 DUP4 AND DUP5 DUP3 ADD DUP2 SWAP1 MSTORE PUSH1 0x44 DUP3 ADD DUP10 SWAP1 MSTORE PUSH1 0x20 SWAP4 SWAP2 DUP5 DUP2 PUSH1 0x64 DUP2 DUP15 DUP13 GAS CALL SWAP1 DUP2 ISZERO PUSH2 0x458 JUMPI DUP12 SWAP2 PUSH2 0x496 JUMPI JUMPDEST POP ISZERO PUSH2 0x462 JUMPI DUP11 MLOAD PUSH4 0x240BC6B PUSH1 0xE2 SHL DUP2 MSTORE SWAP7 PUSH1 0x60 DUP9 DUP9 DUP2 DUP6 GAS STATICCALL SWAP1 DUP2 ISZERO PUSH2 0x458 JUMPI DUP12 SWAP9 DUP13 SWAP3 PUSH2 0x424 JUMPI JUMPDEST POP DUP13 MLOAD PUSH4 0xDFE1681 PUSH1 0xE0 SHL DUP2 MSTORE DUP7 DUP2 DUP11 DUP2 DUP8 GAS STATICCALL SWAP1 DUP2 ISZERO PUSH2 0x41A JUMPI SWAP1 DUP6 SWAP2 DUP15 SWAP2 PUSH2 0x3ED JUMPI JUMPDEST POP AND EQ SWAP8 DUP9 ISZERO PUSH2 0x3DB JUMPI PUSH1 0x1 PUSH1 0x1 PUSH1 0x70 SHL SUB DUP1 SWAP2 AND SWAP2 AND JUMPDEST PUSH2 0x3E5 SWAP1 DUP2 DUP13 MUL SWAP2 DUP13 DUP4 DIV EQ DUP13 ISZERO OR ISZERO PUSH2 0x3C9 JUMPI PUSH2 0x1A7 SWAP1 DUP3 PUSH2 0x8E6 JUMP JUMPDEST SWAP2 PUSH2 0x3E8 SWAP1 DUP2 DUP2 MUL SWAP2 DUP2 DUP4 DIV EQ SWAP1 ISZERO OR ISZERO PUSH2 0x3C9 JUMPI PUSH2 0x1D0 SWAP3 SWAP2 PUSH2 0x1CA SWAP2 PUSH2 0x90F JUMP JUMPDEST SWAP1 PUSH2 0x91C JUMP JUMPDEST SWAP7 PUSH2 0x1DF PUSH1 0x64 CALLDATALOAD DUP10 LT ISZERO PUSH2 0x93C JUMP JUMPDEST ISZERO PUSH2 0x3C2 JUMPI DUP7 DUP11 JUMPDEST DUP3 EXTCODESIZE ISZERO PUSH2 0x3BE JUMPI DUP13 MLOAD PUSH4 0x22C0D9F PUSH1 0xE0 SHL DUP2 MSTORE DUP1 DUP10 ADD SWAP2 DUP3 MSTORE PUSH1 0x20 DUP3 ADD SWAP3 SWAP1 SWAP3 MSTORE ADDRESS PUSH1 0x40 DUP3 ADD MSTORE PUSH1 0x80 PUSH1 0x60 DUP3 ADD DUP2 SWAP1 MSTORE PUSH1 0x0 SWAP1 DUP3 ADD MSTORE SWAP1 SWAP2 DUP12 SWAP2 DUP4 SWAP2 SWAP1 DUP3 SWAP1 DUP5 SWAP1 DUP3 SWAP1 PUSH1 0xA0 ADD SUB SWAP3 GAS CALL DUP1 ISZERO PUSH2 0x3B4 JUMPI SWAP1 DUP11 SWAP2 PUSH2 0x3A0 JUMPI JUMPDEST POP POP PUSH32 0x0 AND DUP1 EXTCODESIZE ISZERO PUSH2 0x39C JUMPI DUP9 DUP1 SWAP2 DUP6 DUP13 MLOAD DUP1 SWAP5 DUP2 SWAP4 PUSH4 0x2E1A7D4D PUSH1 0xE0 SHL DUP4 MSTORE DUP12 DUP12 DUP5 ADD MSTORE GAS CALL DUP1 ISZERO PUSH2 0x392 JUMPI SWAP2 DUP10 SWAP2 DUP8 SWAP4 PUSH2 0x376 JUMPI JUMPDEST POP DUP2 DUP1 SWAP4 DUP2 SWAP3 GAS CALL RETURNDATASIZE ISZERO PUSH2 0x371 JUMPI RETURNDATASIZE PUSH8 0xFFFFFFFFFFFFFFFF DUP2 GT PUSH2 0x35F JUMPI DUP10 MLOAD SWAP1 PUSH2 0x2C9 PUSH1 0x1F DUP3 ADD PUSH1 0x1F NOT AND DUP6 ADD DUP4 PUSH2 0x843 JUMP JUMPDEST DUP2 MSTORE DUP9 DUP4 RETURNDATASIZE SWAP3 ADD RETURNDATACOPY JUMPDEST ISZERO PUSH2 0x329 JUMPI POP POP SWAP5 MLOAD PUSH1 0x1 PUSH1 0x1 PUSH1 0xA0 SHL SUB SWAP1 SWAP3 AND DUP3 MSTORE PUSH1 0x20 DUP3 ADD SWAP3 SWAP1 SWAP3 MSTORE PUSH1 0x40 DUP2 ADD SWAP2 SWAP1 SWAP2 MSTORE SWAP1 SWAP2 POP PUSH32 0x2D043CE009FF53FD444B0F4F5FF4C3F4EE293265203F77F156EEB33B595DFC4F SWAP1 DUP1 PUSH1 0x60 DUP2 ADD JUMPDEST SUB SWAP1 LOG1 DUP1 RETURN JUMPDEST DUP8 MLOAD PUSH3 0x461BCD PUSH1 0xE5 SHL DUP2 MSTORE SWAP3 DUP4 ADD MSTORE PUSH1 0x13 SWAP1 DUP3 ADD MSTORE PUSH19 0x11139488151C985B9CD9995C8819985A5B1959 PUSH1 0x6A SHL PUSH1 0x44 DUP3 ADD MSTORE PUSH1 0x64 SWAP1 REVERT JUMPDEST PUSH4 0x4E487B71 PUSH1 0xE0 SHL DUP10 MSTORE PUSH1 0x41 DUP6 MSTORE DUP4 DUP10 REVERT JUMPDEST PUSH2 0x2D2 JUMP JUMPDEST PUSH2 0x381 SWAP2 SWAP4 POP PUSH2 0x819 JUMP JUMPDEST PUSH2 0x38E JUMPI DUP8 DUP6 SWAP2 DUP12 PUSH2 0x295 JUMP JUMPDEST DUP8 DUP1 REVERT JUMPDEST DUP11 MLOAD RETURNDATASIZE DUP12 DUP3 RETURNDATACOPY RETURNDATASIZE SWAP1 REVERT JUMPDEST DUP9 DUP1 REVERT JUMPDEST PUSH2 0x3A9 SWAP1 PUSH2 0x819 JUMP JUMPDEST PUSH2 0x39C JUMPI DUP9 DUP12 PUSH2 0x23F JUMP JUMPDEST DUP12 MLOAD RETURNDATASIZE DUP13 DUP3 RETURNDATACOPY RETURNDATASIZE SWAP1 REVERT JUMPDEST DUP12 DUP1 REVERT JUMPDEST DUP10 DUP8 PUSH2 0x1E7 JUMP JUMPDEST PUSH4 0x4E487B71 PUSH1 0xE0 SHL DUP14 MSTORE PUSH1 0x11 DUP10 MSTORE DUP8 DUP14 REVERT JUMPDEST PUSH1 0x1 PUSH1 0x1 PUSH1 0x70 SHL SUB SWAP2 DUP3 AND SWAP2 AND PUSH2 0x189 JUMP JUMPDEST PUSH2 0x40D SWAP2 POP DUP9 RETURNDATASIZE DUP11 GT PUSH2 0x413 JUMPI JUMPDEST PUSH2 0x405 DUP2 DUP4 PUSH2 0x843 JUMP JUMPDEST DUP2 ADD SWAP1 PUSH2 0x8C7 JUMP JUMPDEST DUP16 PUSH2 0x171 JUMP JUMPDEST POP RETURNDATASIZE PUSH2 0x3FB JUMP JUMPDEST DUP15 MLOAD RETURNDATASIZE DUP16 DUP3 RETURNDATACOPY RETURNDATASIZE SWAP1 REVERT JUMPDEST SWAP1 SWAP9 POP PUSH2 0x448 SWAP2 POP PUSH1 0x60 RETURNDATASIZE DUP2 GT PUSH2 0x451 JUMPI JUMPDEST PUSH2 0x440 DUP2 DUP4 PUSH2 0x843 JUMP JUMPDEST DUP2 ADD SWAP1 PUSH2 0x891 JUMP JUMPDEST POP SWAP1 SWAP8 DUP14 PUSH2 0x14C JUMP JUMPDEST POP RETURNDATASIZE PUSH2 0x436 JUMP JUMPDEST DUP13 MLOAD RETURNDATASIZE DUP14 DUP3 RETURNDATACOPY RETURNDATASIZE SWAP1 REVERT JUMPDEST DUP11 MLOAD PUSH3 0x461BCD PUSH1 0xE5 SHL DUP2 MSTORE DUP1 DUP8 ADD DUP6 SWAP1 MSTORE PUSH1 0xF DUP2 DUP8 ADD MSTORE PUSH15 0x151C985B9CD9995C8819985A5B1959 PUSH1 0x8A SHL PUSH1 0x44 DUP3 ADD MSTORE PUSH1 0x64 SWAP1 REVERT JUMPDEST PUSH2 0x4B6 SWAP2 POP DUP6 RETURNDATASIZE DUP8 GT PUSH2 0x4BC JUMPI JUMPDEST PUSH2 0x4AE DUP2 DUP4 PUSH2 0x843 JUMP JUMPDEST DUP2 ADD SWAP1 PUSH2 0x865 JUMP JUMPDEST DUP13 PUSH2 0x121 JUMP JUMPDEST POP RETURNDATASIZE PUSH2 0x4A4 JUMP JUMPDEST PUSH1 0x0 DUP1 REVERT JUMPDEST SWAP1 POP PUSH1 0x80 CALLDATASIZE PUSH1 0x3 NOT ADD SLT PUSH2 0x7C9 JUMPI PUSH2 0x4DE PUSH2 0x7CD JUMP JUMPDEST PUSH1 0x1 PUSH1 0x1 PUSH1 0xA0 SHL SUB SWAP2 PUSH1 0x44 CALLDATALOAD SWAP1 DUP4 DUP3 AND DUP3 SUB PUSH2 0x702 JUMPI PUSH2 0x502 TIMESTAMP PUSH1 0x64 CALLDATALOAD LT ISZERO PUSH2 0x7E3 JUMP JUMPDEST DUP4 PUSH32 0x0 AND DUP1 EXTCODESIZE ISZERO PUSH2 0x7C5 JUMPI DUP6 MLOAD PUSH4 0xD0E30DB PUSH1 0xE4 SHL DUP2 MSTORE DUP8 DUP2 DUP5 DUP2 CALLVALUE DUP7 GAS CALL DUP1 ISZERO PUSH2 0x7BB JUMPI PUSH2 0x7A8 JUMPI JUMPDEST POP DUP6 MLOAD PUSH4 0xA9059CBB PUSH1 0xE0 SHL DUP2 MSTORE DUP5 DUP7 AND DUP4 DUP3 ADD DUP2 SWAP1 MSTORE CALLVALUE PUSH1 0x24 DUP4 ADD MSTORE SWAP2 PUSH1 0x20 SWAP2 DUP3 DUP2 PUSH1 0x44 DUP2 DUP14 DUP7 GAS CALL DUP1 ISZERO PUSH2 0x781 JUMPI PUSH2 0x78B JUMPI JUMPDEST POP DUP8 MLOAD PUSH4 0x240BC6B PUSH1 0xE2 SHL DUP2 MSTORE SWAP7 PUSH1 0x60 DUP9 DUP7 DUP2 DUP8 GAS STATICCALL SWAP3 DUP4 ISZERO PUSH2 0x781 JUMPI DUP11 SWAP9 DUP12 SWAP5 PUSH2 0x75A JUMPI JUMPDEST POP DUP10 MLOAD PUSH4 0xDFE1681 PUSH1 0xE0 SHL DUP2 MSTORE DUP2 DUP2 DUP9 DUP2 DUP10 GAS STATICCALL SWAP2 DUP3 ISZERO PUSH2 0x750 JUMPI DUP13 SWAP3 PUSH2 0x733 JUMPI JUMPDEST POP POP AND EQ SWAP6 DUP7 ISZERO PUSH2 0x721 JUMPI PUSH1 0x1 PUSH1 0x1 PUSH1 0x70 SHL SUB DUP1 SWAP2 AND SWAP2 AND JUMPDEST PUSH2 0x3E5 SWAP1 DUP2 CALLVALUE MUL SWAP2 CALLVALUE DUP4 DIV EQ CALLVALUE ISZERO OR ISZERO PUSH2 0x70E JUMPI PUSH2 0x5FE SWAP1 DUP3 PUSH2 0x8E6 JUMP JUMPDEST SWAP2 PUSH2 0x3E8 SWAP1 DUP2 DUP2 MUL SWAP2 DUP2 DUP4 DIV EQ SWAP1 ISZERO OR ISZERO PUSH2 0x70E JUMPI SWAP2 PUSH2 0x1CA PUSH2 0x625 SWAP3 DUP12 SWAP8 SWAP7 SWAP6 SWAP5 PUSH2 0x90F JUMP JUMPDEST SWAP6 PUSH2 0x634 PUSH1 0x24 CALLDATALOAD DUP9 LT ISZERO PUSH2 0x93C JUMP JUMPDEST ISZERO PUSH2 0x706 JUMPI DUP6 SWAP1 DUP5 JUMPDEST DUP2 EXTCODESIZE ISZERO PUSH2 0x702 JUMPI DUP6 DUP1 SWAP5 PUSH2 0x689 DUP12 MLOAD SWAP8 DUP9 SWAP7 DUP8 SWAP6 DUP7 SWAP5 PUSH4 0x22C0D9F PUSH1 0xE0 SHL DUP7 MSTORE DUP6 ADD SWAP2 PUSH1 0xA0 SWAP4 SWAP2 DUP4 MSTORE PUSH1 0x20 DUP4 ADD MSTORE PUSH1 0x1 DUP1 DUP5 SHL SUB AND PUSH1 0x40 DUP3 ADD MSTORE PUSH1 0x80 PUSH1 0x60 DUP3 ADD MSTORE PUSH1 0x0 PUSH1 0x80 DUP3 ADD MSTORE ADD SWAP1 JUMP JUMPDEST SUB SWAP3 GAS CALL DUP1 ISZERO PUSH2 0x6F8 JUMPI PUSH2 0x6E0 JUMPI JUMPDEST POP POP SWAP2 MLOAD PUSH1 0x1 PUSH1 0x1 PUSH1 0xA0 SHL SUB SWAP1 SWAP3 AND DUP3 MSTORE CALLVALUE PUSH1 0x20 DUP4 ADD MSTORE PUSH1 0x40 DUP3 ADD MSTORE PUSH32 0x2D043CE009FF53FD444B0F4F5FF4C3F4EE293265203F77F156EEB33B595DFC4F SWAP1 DUP1 PUSH1 0x60 DUP2 ADD PUSH2 0x323 JUMP JUMPDEST PUSH2 0x6E9 SWAP1 PUSH2 0x819 JUMP JUMPDEST PUSH2 0x6F4 JUMPI DUP4 CODESIZE PUSH2 0x698 JUMP JUMPDEST DUP4 DUP1 REVERT JUMPDEST DUP6 MLOAD RETURNDATASIZE DUP5 DUP3 RETURNDATACOPY RETURNDATASIZE SWAP1 REVERT JUMPDEST DUP6 DUP1 REVERT JUMPDEST DUP4 SWAP1 DUP7 PUSH2 0x63D JUMP JUMPDEST PUSH4 0x4E487B71 PUSH1 0xE0 SHL DUP11 MSTORE PUSH1 0x11 DUP6 MSTORE PUSH1 0x24 DUP11 REVERT JUMPDEST PUSH1 0x1 PUSH1 0x1 PUSH1 0x70 SHL SUB SWAP2 DUP3 AND SWAP2 AND PUSH2 0x5E0 JUMP JUMPDEST PUSH2 0x749 SWAP3 POP DUP1 RETURNDATASIZE LT PUSH2 0x413 JUMPI PUSH2 0x405 DUP2 DUP4 PUSH2 0x843 JUMP JUMPDEST CODESIZE DUP1 PUSH2 0x5C7 JUMP JUMPDEST DUP12 MLOAD RETURNDATASIZE DUP15 DUP3 RETURNDATACOPY RETURNDATASIZE SWAP1 REVERT JUMPDEST SWAP1 SWAP4 POP PUSH2 0x776 SWAP2 SWAP9 POP PUSH1 0x60 RETURNDATASIZE DUP2 GT PUSH2 0x451 JUMPI PUSH2 0x440 DUP2 DUP4 PUSH2 0x843 JUMP JUMPDEST POP SWAP8 SWAP1 SWAP8 SWAP3 CODESIZE PUSH2 0x5A5 JUMP JUMPDEST DUP10 MLOAD RETURNDATASIZE DUP13 DUP3 RETURNDATACOPY RETURNDATASIZE SWAP1 REVERT JUMPDEST PUSH2 0x7A1 SWAP1 DUP4 RETURNDATASIZE DUP6 GT PUSH2 0x4BC JUMPI PUSH2 0x4AE DUP2 DUP4 PUSH2 0x843 JUMP JUMPDEST POP CODESIZE PUSH2 0x57F JUMP JUMPDEST PUSH2 0x7B4 SWAP1 SWAP8 SWAP2 SWAP8 PUSH2 0x819 JUMP JUMPDEST SWAP6 CODESIZE PUSH2 0x54B JUMP JUMPDEST DUP8 MLOAD RETURNDATASIZE DUP11 DUP3 RETURNDATACOPY RETURNDATASIZE SWAP1 REVERT JUMPDEST DUP7 DUP1 REVERT JUMPDEST DUP3 DUP1 REVERT JUMPDEST PUSH1 0x4 CALLDATALOAD SWAP1 PUSH1 0x1 PUSH1 0x1 PUSH1 0xA0 SHL SUB DUP3 AND DUP3 SUB PUSH2 0x4C3 JUMPI JUMP JUMPDEST ISZERO PUSH2 0x7EA JUMPI JUMP JUMPDEST PUSH1 0x40 MLOAD PUSH3 0x461BCD PUSH1 0xE5 SHL DUP2 MSTORE PUSH1 0x20 PUSH1 0x4 DUP3 ADD MSTORE PUSH1 0x7 PUSH1 0x24 DUP3 ADD MSTORE PUSH7 0x115E1C1A5C9959 PUSH1 0xCA SHL PUSH1 0x44 DUP3 ADD MSTORE PUSH1 0x64 SWAP1 REVERT JUMPDEST PUSH8 0xFFFFFFFFFFFFFFFF DUP2 GT PUSH2 0x82D JUMPI PUSH1 0x40 MSTORE JUMP JUMPDEST PUSH4 0x4E487B71 PUSH1 0xE0 SHL PUSH1 0x0 MSTORE PUSH1 0x41 PUSH1 0x4 MSTORE PUSH1 0x24 PUSH1 0x0 REVERT JUMPDEST SWAP1 PUSH1 0x1F DUP1 NOT SWAP2 ADD AND DUP2 ADD SWAP1 DUP2 LT PUSH8 0xFFFFFFFFFFFFFFFF DUP3 GT OR PUSH2 0x82D JUMPI PUSH1 0x40 MSTORE JUMP JUMPDEST SWAP1 DUP2 PUSH1 0x20 SWAP2 SUB SLT PUSH2 0x4C3 JUMPI MLOAD DUP1 ISZERO ISZERO DUP2 SUB PUSH2 0x4C3 JUMPI SWAP1 JUMP JUMPDEST MLOAD SWAP1 PUSH1 0x1 PUSH1 0x1 PUSH1 0x70 SHL SUB DUP3 AND DUP3 SUB PUSH2 0x4C3 JUMPI JUMP JUMPDEST SWAP1 DUP2 PUSH1 0x60 SWAP2 SUB SLT PUSH2 0x4C3 JUMPI PUSH2 0x8A5 DUP2 PUSH2 0x87D JUMP JUMPDEST SWAP2 PUSH1 0x40 PUSH2 0x8B4 PUSH1 0x20 DUP5 ADD PUSH2 0x87D JUMP JUMPDEST SWAP3 ADD MLOAD PUSH4 0xFFFFFFFF DUP2 AND DUP2 SUB PUSH2 0x4C3 JUMPI SWAP1 JUMP JUMPDEST SWAP1 DUP2 PUSH1 0x20 SWAP2 SUB SLT PUSH2 0x4C3 JUMPI MLOAD PUSH1 0x1 PUSH1 0x1 PUSH1 0xA0 SHL SUB DUP2 AND DUP2 SUB PUSH2 0x4C3 JUMPI SWAP1 JUMP JUMPDEST DUP2 DUP2 MUL SWAP3 SWAP2 DUP2 ISZERO SWAP2 DUP5 DIV EQ OR ISZERO PUSH2 0x8F9 JUMPI JUMP JUMPDEST PUSH4 0x4E487B71 PUSH1 0xE0 SHL PUSH1 0x0 MSTORE PUSH1 0x11 PUSH1 0x4 MSTORE PUSH1 0x24 PUSH1 0x0 REVERT JUMPDEST SWAP2 SWAP1 DUP3 ADD DUP1 SWAP3 GT PUSH2 0x8F9 JUMPI JUMP JUMPDEST DUP2 ISZERO PUSH2 0x926 JUMPI DIV SWAP1 JUMP JUMPDEST PUSH4 0x4E487B71 PUSH1 0xE0 SHL PUSH1 0x0 MSTORE PUSH1 0x12 PUSH1 0x4 MSTORE PUSH1 0x24 PUSH1 0x0 REVERT JUMPDEST ISZERO PUSH2 0x943 JUMPI JUMP JUMPDEST PUSH1 0x40 MLOAD PUSH3 0x461BCD PUSH1 0xE5 SHL DUP2 MSTORE PUSH1 0x20 PUSH1 0x4 DUP3 ADD MSTORE PUSH1 0x8 PUSH1 0x24 DUP3 ADD MSTORE PUSH8 0x536C697070616765 PUSH1 0xC0 SHL PUSH1 0x44 DUP3 ADD MSTORE PUSH1 0x64 SWAP1 REVERT INVALID LOG2 PUSH5 0x6970667358 0x22 SLT KECCAK256 EQ BYTE 0xC3 CALLDATACOPY 0xE5 0xA7 DUP16 CREATE PUSH1 0x24 0xE 0xA9 PC JUMPI DUP1 0xD4 ORIGIN PUSH1 0x25 PUSH17 0x5B8DDCE231E8428EFEEBA05164736F6C63 NUMBER STOP ADDMOD EQ STOP CALLER "},"methodIdentifiers":{"WDNR()":"d2d8d32f","swapDNRForTokens(address,uint256,address,uint256)":"2e9709d7","swapTokensForDNR(address,address,uint256,uint256,address,uint256)":"a26dfabe"}},"storageLayout":{"storage":[],"types":null}}}}