{"contracts/farming/KortanaFarm.sol":{"KortanaFarm":{"abi":[{"inputs":[{"internalType":"address","name":"_lpToken","type":"address"},{"internalType":"address","name":"_rewardToken","type":"address"},{"internalType":"uint256","name":"_rewardPerBlock","type":"uint256"}],"stateMutability":"nonpayable","type":"constructor"},{"anonymous":false,"inputs":[{"indexed":true,"internalType":"address","name":"user","type":"address"},{"indexed":false,"internalType":"uint256","name":"reward","type":"uint256"}],"name":"Claim","type":"event"},{"anonymous":false,"inputs":[{"indexed":true,"internalType":"address","name":"user","type":"address"},{"indexed":false,"internalType":"uint256","name":"amount","type":"uint256"}],"name":"Deposit","type":"event"},{"anonymous":false,"inputs":[{"indexed":true,"internalType":"address","name":"previousOwner","type":"address"},{"indexed":true,"internalType":"address","name":"newOwner","type":"address"}],"name":"OwnershipTransferred","type":"event"},{"anonymous":false,"inputs":[{"indexed":false,"internalType":"uint256","name":"newRate","type":"uint256"}],"name":"RewardRateUpdated","type":"event"},{"anonymous":false,"inputs":[{"indexed":true,"internalType":"address","name":"user","type":"address"},{"indexed":false,"internalType":"uint256","name":"amount","type":"uint256"}],"name":"Withdraw","type":"event"},{"inputs":[],"name":"accRewardPerShare","outputs":[{"internalType":"uint256","name":"","type":"uint256"}],"stateMutability":"view","type":"function"},{"inputs":[{"internalType":"uint256","name":"amount","type":"uint256"}],"name":"deposit","outputs":[],"stateMutability":"nonpayable","type":"function"},{"inputs":[],"name":"lastRewardBlock","outputs":[{"internalType":"uint256","name":"","type":"uint256"}],"stateMutability":"view","type":"function"},{"inputs":[],"name":"lpToken","outputs":[{"internalType":"contract IERC20","name":"","type":"address"}],"stateMutability":"view","type":"function"},{"inputs":[],"name":"owner","outputs":[{"internalType":"address","name":"","type":"address"}],"stateMutability":"view","type":"function"},{"inputs":[{"internalType":"address","name":"_user","type":"address"}],"name":"pendingReward","outputs":[{"internalType":"uint256","name":"","type":"uint256"}],"stateMutability":"view","type":"function"},{"inputs":[],"name":"renounceOwnership","outputs":[],"stateMutability":"nonpayable","type":"function"},{"inputs":[],"name":"rewardPerBlock","outputs":[{"internalType":"uint256","name":"","type":"uint256"}],"stateMutability":"view","type":"function"},{"inputs":[],"name":"rewardToken","outputs":[{"internalType":"contract IERC20","name":"","type":"address"}],"stateMutability":"view","type":"function"},{"inputs":[{"internalType":"uint256","name":"_rewardPerBlock","type":"uint256"}],"name":"setRewardPerBlock","outputs":[],"stateMutability":"nonpayable","type":"function"},{"inputs":[],"name":"totalStaked","outputs":[{"internalType":"uint256","name":"","type":"uint256"}],"stateMutability":"view","type":"function"},{"inputs":[{"internalType":"address","name":"newOwner","type":"address"}],"name":"transferOwnership","outputs":[],"stateMutability":"nonpayable","type":"function"},{"inputs":[],"name":"updatePool","outputs":[],"stateMutability":"nonpayable","type":"function"},{"inputs":[{"internalType":"address","name":"","type":"address"}],"name":"userInfo","outputs":[{"internalType":"uint256","name":"amount","type":"uint256"},{"internalType":"uint256","name":"rewardDebt","type":"uint256"}],"stateMutability":"view","type":"function"},{"inputs":[{"internalType":"uint256","name":"amount","type":"uint256"}],"name":"withdraw","outputs":[],"stateMutability":"nonpayable","type":"function"}],"evm":{"bytecode":{"linkReferences":{},"object":"60c0346100ed57601f610ce738819003918201601f19168301916001600160401b038311848410176100f2578084926060946040528339810103126100ed5761004781610108565b604061005560208401610108565b92015160008054336001600160a01b03198216811783556040519593946001600160a01b03949385939192918416907f8be0079c531659141344cd1fd0a4f28419497f9722a3daafe3b4186f6b6457e09080a360018055166080521660a05260025543600355610bca908161011d8239608051818181610402015281816106430152610769015260a05181818160dd0152610a9a0152f35b600080fd5b634e487b7160e01b600052604160045260246000fd5b51906001600160a01b03821682036100ed5756fe608060408181526004918236101561001657600080fd5b600092833560e01c9182631959a00214610876575081632e1a7d4d146106725781635fcbd2851461062e578163715018a6146105d4578163817b1cd2146105b55781638ae39cac146105965781638da5cb5b1461056e578163939d623714610550578163a9f8d18114610531578163b6b55f251461034e578163bb872b4a146102f8578163e3161ddd146102dc578163f2fde38b1461020d578163f40f0f5214610110575063f7c618c1146100ca57600080fd5b3461010c578160031936011261010c57517f00000000000000000000000000000000000000000000000000000000000000006001600160a01b03168152602090f35b5080fd5b82843461020a57602036600319011261020a5782356001600160a01b0381169081900361010c578152600660205281812090835490600354804311806101ff575b610184575b60208561017d866001670de0b6b3a7640000610173898454610934565b0491015490610911565b9051908152f35b61019161019a9143610911565b60025490610934565b90670de0b6b3a7640000918281029281840414901517156101ec575060209450670de0b6b3a76400006101736101e361017d95946101dd60019560055490610947565b90610967565b93945050610156565b634e487b7160e01b815260118652602490fd5b506005541515610151565b80fd5b919050346102d85760203660031901126102d8576001600160a01b038235818116939192908490036102d4576102416108b9565b831561028257505082546001600160a01b0319811683178455167f8be0079c531659141344cd1fd0a4f28419497f9722a3daafe3b4186f6b6457e08380a380f35b906020608492519162461bcd60e51b8352820152602660248201527f4f776e61626c653a206e6577206f776e657220697320746865207a65726f206160448201526564647265737360d01b6064820152fd5b8480fd5b8280fd5b833461020a578060031936011261020a576102f5610974565b80f35b9050346102d85760203660031901126102d8577f41d466ebd06fb97e7786086ac8b69b7eb7da798592036251291d34e9791cde0191602091359061033a6108b9565b610342610974565b8160025551908152a180f35b919050346102d85760208060031936011261052d5782359161036e610a2c565b33855260068252808520610380610974565b8054806104c9575b50836103dc575b6001670de0b6b3a76400006103ca7fe1fffcc4923d04b559f4d29a8bfc6cda04eb5b0d3c460751c2402c5c5cc9109c96978454905490610934565b04910155519283523392a26001805580f35b81516323b872dd60e01b815233868201523060248201526044810185905283816064818a7f00000000000000000000000000000000000000000000000000000000000000006001600160a01b03165af180156104bf576103ca7fe1fffcc4923d04b559f4d29a8bfc6cda04eb5b0d3c460751c2402c5c5cc9109c9697600193670de0b6b3a764000093610492575b50610476898654610967565b855561048489600554610967565b60055597965050505061038f565b6104b190883d8a116104b8575b6104a981836109d7565b810190610a0f565b503861046a565b503d61049f565b83513d89823e3d90fd5b670de0b6b3a76400006104e16104ed92885490610934565b04600183015490610911565b8015610388576104fd8133610a82565b82519081527f47cee97cb7acd717b3c0aa1435d004cd5b3c8c57d70dbceb4e4458bbd60e39d4843392a238610388565b8380fd5b50503461010c578160031936011261010c576020906003549051908152f35b9050346102d857826003193601126102d85760209250549051908152f35b50503461010c578160031936011261010c57905490516001600160a01b039091168152602090f35b50503461010c578160031936011261010c576020906002549051908152f35b50503461010c578160031936011261010c576020906005549051908152f35b833461020a578060031936011261020a576105ed6108b9565b80546001600160a01b03198116825581906001600160a01b03167f8be0079c531659141344cd1fd0a4f28419497f9722a3daafe3b4186f6b6457e08280a380f35b50503461010c578160031936011261010c57517f00000000000000000000000000000000000000000000000000000000000000006001600160a01b03168152602090f35b919050346102d85760208060031936011261052d57823591610692610a2c565b3385526006825280852083815410610833576106ac610974565b6106c58154670de0b6b3a7640000918291885490610934565b04916106d76001820193845490610911565b806107f9575b5085610725575b7f884edad9ce6fa2440d8a54cc123490eb96d2768479d49ff9c7366125a942436495966107149154905490610934565b049055519283523392a26001805580f35b610730868254610911565b815561073e86600554610911565b600555835163a9059cbb60e01b8152338882019081526020810188905286908290819060400103818c7f00000000000000000000000000000000000000000000000000000000000000006001600160a01b03165af180156107ef57917f884edad9ce6fa2440d8a54cc123490eb96d2768479d49ff9c7366125a9424364979891610714936107d2575b5091509695506106e4565b6107e890883d8a116104b8576104a981836109d7565b50386107c7565b85513d8b823e3d90fd5b6108038133610a82565b84519081527f47cee97cb7acd717b3c0aa1435d004cd5b3c8c57d70dbceb4e4458bbd60e39d4863392a2386106dd565b815162461bcd60e51b8152808601849052601a60248201527f4641524d3a20494e53554646494349454e545f42414c414e43450000000000006044820152606490fd5b8484923461010c57602036600319011261010c57356001600160a01b0381169081900361010c579083918152600660205220600181549101549082526020820152f35b6000546001600160a01b031633036108cd57565b606460405162461bcd60e51b815260206004820152602060248201527f4f776e61626c653a2063616c6c6572206973206e6f7420746865206f776e65726044820152fd5b9190820391821161091e57565b634e487b7160e01b600052601160045260246000fd5b8181029291811591840414171561091e57565b8115610951570490565b634e487b7160e01b600052601260045260246000fd5b9190820180921161091e57565b6003544311156109d55760055480156109ce5761099661019160035443610911565b670de0b6b3a76400009081810291818304149015171561091e576109c5916109bd91610947565b600454610967565b60045543600355565b5043600355565b565b90601f8019910116810190811067ffffffffffffffff8211176109f957604052565b634e487b7160e01b600052604160045260246000fd5b90816020910312610a2757518015158103610a275790565b600080fd5b600260015414610a3d576002600155565b60405162461bcd60e51b815260206004820152601f60248201527f5265656e7472616e637947756172643a207265656e7472616e742063616c6c006044820152606490fd5b6040516370a0823160e01b81523060048201526020927f00000000000000000000000000000000000000000000000000000000000000006001600160a01b031692918481602481875afa908115610b5357600091610b67575b50808211610b5f575b5080610af1575b50505050565b60405163a9059cbb60e01b81526001600160a01b039290921660048301526024820152908290829060449082906000905af18015610b5357610b35575b8080610aeb565b81610b4b92903d106104b8576104a981836109d7565b503880610b2e565b6040513d6000823e3d90fd5b905038610ae4565b908582813d8311610b8d575b610b7d81836109d7565b8101031261020a57505138610adb565b503d610b7356fea264697066735822122085ba8d00537b2e5370c12af149efdcd2f5cc435f35a4ace53ec479973a48328c64736f6c63430008140033","opcodes":"PUSH1 0xC0 CALLVALUE PUSH2 0xED JUMPI PUSH1 0x1F PUSH2 0xCE7 CODESIZE DUP2 SWAP1 SUB SWAP2 DUP3 ADD PUSH1 0x1F NOT AND DUP4 ADD SWAP2 PUSH1 0x1 PUSH1 0x1 PUSH1 0x40 SHL SUB DUP4 GT DUP5 DUP5 LT OR PUSH2 0xF2 JUMPI DUP1 DUP5 SWAP3 PUSH1 0x60 SWAP5 PUSH1 0x40 MSTORE DUP4 CODECOPY DUP2 ADD SUB SLT PUSH2 0xED JUMPI PUSH2 0x47 DUP2 PUSH2 0x108 JUMP JUMPDEST PUSH1 0x40 PUSH2 0x55 PUSH1 0x20 DUP5 ADD PUSH2 0x108 JUMP JUMPDEST SWAP3 ADD MLOAD PUSH1 0x0 DUP1 SLOAD CALLER PUSH1 0x1 PUSH1 0x1 PUSH1 0xA0 SHL SUB NOT DUP3 AND DUP2 OR DUP4 SSTORE PUSH1 0x40 MLOAD SWAP6 SWAP4 SWAP5 PUSH1 0x1 PUSH1 0x1 PUSH1 0xA0 SHL SUB SWAP5 SWAP4 DUP6 SWAP4 SWAP2 SWAP3 SWAP2 DUP5 AND SWAP1 PUSH32 0x8BE0079C531659141344CD1FD0A4F28419497F9722A3DAAFE3B4186F6B6457E0 SWAP1 DUP1 LOG3 PUSH1 0x1 DUP1 SSTORE AND PUSH1 0x80 MSTORE AND PUSH1 0xA0 MSTORE PUSH1 0x2 SSTORE NUMBER PUSH1 0x3 SSTORE PUSH2 0xBCA SWAP1 DUP2 PUSH2 0x11D DUP3 CODECOPY PUSH1 0x80 MLOAD DUP2 DUP2 DUP2 PUSH2 0x402 ADD MSTORE DUP2 DUP2 PUSH2 0x643 ADD MSTORE PUSH2 0x769 ADD MSTORE PUSH1 0xA0 MLOAD DUP2 DUP2 DUP2 PUSH1 0xDD ADD MSTORE PUSH2 0xA9A ADD MSTORE RETURN JUMPDEST PUSH1 0x0 DUP1 REVERT JUMPDEST PUSH4 0x4E487B71 PUSH1 0xE0 SHL PUSH1 0x0 MSTORE PUSH1 0x41 PUSH1 0x4 MSTORE PUSH1 0x24 PUSH1 0x0 REVERT JUMPDEST MLOAD SWAP1 PUSH1 0x1 PUSH1 0x1 PUSH1 0xA0 SHL SUB DUP3 AND DUP3 SUB PUSH2 0xED JUMPI JUMP INVALID PUSH1 0x80 PUSH1 0x40 DUP2 DUP2 MSTORE PUSH1 0x4 SWAP2 DUP3 CALLDATASIZE LT ISZERO PUSH2 0x16 JUMPI PUSH1 0x0 DUP1 REVERT JUMPDEST PUSH1 0x0 SWAP3 DUP4 CALLDATALOAD PUSH1 0xE0 SHR SWAP2 DUP3 PUSH4 0x1959A002 EQ PUSH2 0x876 JUMPI POP DUP2 PUSH4 0x2E1A7D4D EQ PUSH2 0x672 JUMPI DUP2 PUSH4 0x5FCBD285 EQ PUSH2 0x62E JUMPI DUP2 PUSH4 0x715018A6 EQ PUSH2 0x5D4 JUMPI DUP2 PUSH4 0x817B1CD2 EQ PUSH2 0x5B5 JUMPI DUP2 PUSH4 0x8AE39CAC EQ PUSH2 0x596 JUMPI DUP2 PUSH4 0x8DA5CB5B EQ PUSH2 0x56E JUMPI DUP2 PUSH4 0x939D6237 EQ PUSH2 0x550 JUMPI DUP2 PUSH4 0xA9F8D181 EQ PUSH2 0x531 JUMPI DUP2 PUSH4 0xB6B55F25 EQ PUSH2 0x34E JUMPI DUP2 PUSH4 0xBB872B4A EQ PUSH2 0x2F8 JUMPI DUP2 PUSH4 0xE3161DDD EQ PUSH2 0x2DC JUMPI DUP2 PUSH4 0xF2FDE38B EQ PUSH2 0x20D JUMPI DUP2 PUSH4 0xF40F0F52 EQ PUSH2 0x110 JUMPI POP PUSH4 0xF7C618C1 EQ PUSH2 0xCA JUMPI PUSH1 0x0 DUP1 REVERT JUMPDEST CALLVALUE PUSH2 0x10C JUMPI DUP2 PUSH1 0x3 NOT CALLDATASIZE ADD SLT PUSH2 0x10C JUMPI MLOAD PUSH32 0x0 PUSH1 0x1 PUSH1 0x1 PUSH1 0xA0 SHL SUB AND DUP2 MSTORE PUSH1 0x20 SWAP1 RETURN JUMPDEST POP DUP1 REVERT JUMPDEST DUP3 DUP5 CALLVALUE PUSH2 0x20A JUMPI PUSH1 0x20 CALLDATASIZE PUSH1 0x3 NOT ADD SLT PUSH2 0x20A JUMPI DUP3 CALLDATALOAD PUSH1 0x1 PUSH1 0x1 PUSH1 0xA0 SHL SUB DUP2 AND SWAP1 DUP2 SWAP1 SUB PUSH2 0x10C JUMPI DUP2 MSTORE PUSH1 0x6 PUSH1 0x20 MSTORE DUP2 DUP2 KECCAK256 SWAP1 DUP4 SLOAD SWAP1 PUSH1 0x3 SLOAD DUP1 NUMBER GT DUP1 PUSH2 0x1FF JUMPI JUMPDEST PUSH2 0x184 JUMPI JUMPDEST PUSH1 0x20 DUP6 PUSH2 0x17D DUP7 PUSH1 0x1 PUSH8 0xDE0B6B3A7640000 PUSH2 0x173 DUP10 DUP5 SLOAD PUSH2 0x934 JUMP JUMPDEST DIV SWAP2 ADD SLOAD SWAP1 PUSH2 0x911 JUMP JUMPDEST SWAP1 MLOAD SWAP1 DUP2 MSTORE RETURN JUMPDEST PUSH2 0x191 PUSH2 0x19A SWAP2 NUMBER PUSH2 0x911 JUMP JUMPDEST PUSH1 0x2 SLOAD SWAP1 PUSH2 0x934 JUMP JUMPDEST SWAP1 PUSH8 0xDE0B6B3A7640000 SWAP2 DUP3 DUP2 MUL SWAP3 DUP2 DUP5 DIV EQ SWAP1 ISZERO OR ISZERO PUSH2 0x1EC JUMPI POP PUSH1 0x20 SWAP5 POP PUSH8 0xDE0B6B3A7640000 PUSH2 0x173 PUSH2 0x1E3 PUSH2 0x17D SWAP6 SWAP5 PUSH2 0x1DD PUSH1 0x1 SWAP6 PUSH1 0x5 SLOAD SWAP1 PUSH2 0x947 JUMP JUMPDEST SWAP1 PUSH2 0x967 JUMP JUMPDEST SWAP4 SWAP5 POP POP PUSH2 0x156 JUMP JUMPDEST PUSH4 0x4E487B71 PUSH1 0xE0 SHL DUP2 MSTORE PUSH1 0x11 DUP7 MSTORE PUSH1 0x24 SWAP1 REVERT JUMPDEST POP PUSH1 0x5 SLOAD ISZERO ISZERO PUSH2 0x151 JUMP JUMPDEST DUP1 REVERT JUMPDEST SWAP2 SWAP1 POP CALLVALUE PUSH2 0x2D8 JUMPI PUSH1 0x20 CALLDATASIZE PUSH1 0x3 NOT ADD SLT PUSH2 0x2D8 JUMPI PUSH1 0x1 PUSH1 0x1 PUSH1 0xA0 SHL SUB DUP3 CALLDATALOAD DUP2 DUP2 AND SWAP4 SWAP2 SWAP3 SWAP1 DUP5 SWAP1 SUB PUSH2 0x2D4 JUMPI PUSH2 0x241 PUSH2 0x8B9 JUMP JUMPDEST DUP4 ISZERO PUSH2 0x282 JUMPI POP POP DUP3 SLOAD PUSH1 0x1 PUSH1 0x1 PUSH1 0xA0 SHL SUB NOT DUP2 AND DUP4 OR DUP5 SSTORE AND PUSH32 0x8BE0079C531659141344CD1FD0A4F28419497F9722A3DAAFE3B4186F6B6457E0 DUP4 DUP1 LOG3 DUP1 RETURN JUMPDEST SWAP1 PUSH1 0x20 PUSH1 0x84 SWAP3 MLOAD SWAP2 PUSH3 0x461BCD PUSH1 0xE5 SHL DUP4 MSTORE DUP3 ADD MSTORE PUSH1 0x26 PUSH1 0x24 DUP3 ADD MSTORE PUSH32 0x4F776E61626C653A206E6577206F776E657220697320746865207A65726F2061 PUSH1 0x44 DUP3 ADD MSTORE PUSH6 0x646472657373 PUSH1 0xD0 SHL PUSH1 0x64 DUP3 ADD MSTORE REVERT JUMPDEST DUP5 DUP1 REVERT JUMPDEST DUP3 DUP1 REVERT JUMPDEST DUP4 CALLVALUE PUSH2 0x20A JUMPI DUP1 PUSH1 0x3 NOT CALLDATASIZE ADD SLT PUSH2 0x20A JUMPI PUSH2 0x2F5 PUSH2 0x974 JUMP JUMPDEST DUP1 RETURN JUMPDEST SWAP1 POP CALLVALUE PUSH2 0x2D8 JUMPI PUSH1 0x20 CALLDATASIZE PUSH1 0x3 NOT ADD SLT PUSH2 0x2D8 JUMPI PUSH32 0x41D466EBD06FB97E7786086AC8B69B7EB7DA798592036251291D34E9791CDE01 SWAP2 PUSH1 0x20 SWAP2 CALLDATALOAD SWAP1 PUSH2 0x33A PUSH2 0x8B9 JUMP JUMPDEST PUSH2 0x342 PUSH2 0x974 JUMP JUMPDEST DUP2 PUSH1 0x2 SSTORE MLOAD SWAP1 DUP2 MSTORE LOG1 DUP1 RETURN JUMPDEST SWAP2 SWAP1 POP CALLVALUE PUSH2 0x2D8 JUMPI PUSH1 0x20 DUP1 PUSH1 0x3 NOT CALLDATASIZE ADD SLT PUSH2 0x52D JUMPI DUP3 CALLDATALOAD SWAP2 PUSH2 0x36E PUSH2 0xA2C JUMP JUMPDEST CALLER DUP6 MSTORE PUSH1 0x6 DUP3 MSTORE DUP1 DUP6 KECCAK256 PUSH2 0x380 PUSH2 0x974 JUMP JUMPDEST DUP1 SLOAD DUP1 PUSH2 0x4C9 JUMPI JUMPDEST POP DUP4 PUSH2 0x3DC JUMPI JUMPDEST PUSH1 0x1 PUSH8 0xDE0B6B3A7640000 PUSH2 0x3CA PUSH32 0xE1FFFCC4923D04B559F4D29A8BFC6CDA04EB5B0D3C460751C2402C5C5CC9109C SWAP7 SWAP8 DUP5 SLOAD SWAP1 SLOAD SWAP1 PUSH2 0x934 JUMP JUMPDEST DIV SWAP2 ADD SSTORE MLOAD SWAP3 DUP4 MSTORE CALLER SWAP3 LOG2 PUSH1 0x1 DUP1 SSTORE DUP1 RETURN JUMPDEST DUP2 MLOAD PUSH4 0x23B872DD PUSH1 0xE0 SHL DUP2 MSTORE CALLER DUP7 DUP3 ADD MSTORE ADDRESS PUSH1 0x24 DUP3 ADD MSTORE PUSH1 0x44 DUP2 ADD DUP6 SWAP1 MSTORE DUP4 DUP2 PUSH1 0x64 DUP2 DUP11 PUSH32 0x0 PUSH1 0x1 PUSH1 0x1 PUSH1 0xA0 SHL SUB AND GAS CALL DUP1 ISZERO PUSH2 0x4BF JUMPI PUSH2 0x3CA PUSH32 0xE1FFFCC4923D04B559F4D29A8BFC6CDA04EB5B0D3C460751C2402C5C5CC9109C SWAP7 SWAP8 PUSH1 0x1 SWAP4 PUSH8 0xDE0B6B3A7640000 SWAP4 PUSH2 0x492 JUMPI JUMPDEST POP PUSH2 0x476 DUP10 DUP7 SLOAD PUSH2 0x967 JUMP JUMPDEST DUP6 SSTORE PUSH2 0x484 DUP10 PUSH1 0x5 SLOAD PUSH2 0x967 JUMP JUMPDEST PUSH1 0x5 SSTORE SWAP8 SWAP7 POP POP POP POP PUSH2 0x38F JUMP JUMPDEST PUSH2 0x4B1 SWAP1 DUP9 RETURNDATASIZE DUP11 GT PUSH2 0x4B8 JUMPI JUMPDEST PUSH2 0x4A9 DUP2 DUP4 PUSH2 0x9D7 JUMP JUMPDEST DUP2 ADD SWAP1 PUSH2 0xA0F JUMP JUMPDEST POP CODESIZE PUSH2 0x46A JUMP JUMPDEST POP RETURNDATASIZE PUSH2 0x49F JUMP JUMPDEST DUP4 MLOAD RETURNDATASIZE DUP10 DUP3 RETURNDATACOPY RETURNDATASIZE SWAP1 REVERT JUMPDEST PUSH8 0xDE0B6B3A7640000 PUSH2 0x4E1 PUSH2 0x4ED SWAP3 DUP9 SLOAD SWAP1 PUSH2 0x934 JUMP JUMPDEST DIV PUSH1 0x1 DUP4 ADD SLOAD SWAP1 PUSH2 0x911 JUMP JUMPDEST DUP1 ISZERO PUSH2 0x388 JUMPI PUSH2 0x4FD DUP2 CALLER PUSH2 0xA82 JUMP JUMPDEST DUP3 MLOAD SWAP1 DUP2 MSTORE PUSH32 0x47CEE97CB7ACD717B3C0AA1435D004CD5B3C8C57D70DBCEB4E4458BBD60E39D4 DUP5 CALLER SWAP3 LOG2 CODESIZE PUSH2 0x388 JUMP JUMPDEST DUP4 DUP1 REVERT JUMPDEST POP POP CALLVALUE PUSH2 0x10C JUMPI DUP2 PUSH1 0x3 NOT CALLDATASIZE ADD SLT PUSH2 0x10C JUMPI PUSH1 0x20 SWAP1 PUSH1 0x3 SLOAD SWAP1 MLOAD SWAP1 DUP2 MSTORE RETURN JUMPDEST SWAP1 POP CALLVALUE PUSH2 0x2D8 JUMPI DUP3 PUSH1 0x3 NOT CALLDATASIZE ADD SLT PUSH2 0x2D8 JUMPI PUSH1 0x20 SWAP3 POP SLOAD SWAP1 MLOAD SWAP1 DUP2 MSTORE RETURN JUMPDEST POP POP CALLVALUE PUSH2 0x10C JUMPI DUP2 PUSH1 0x3 NOT CALLDATASIZE ADD SLT PUSH2 0x10C JUMPI SWAP1 SLOAD SWAP1 MLOAD PUSH1 0x1 PUSH1 0x1 PUSH1 0xA0 SHL SUB SWAP1 SWAP2 AND DUP2 MSTORE PUSH1 0x20 SWAP1 RETURN JUMPDEST POP POP CALLVALUE PUSH2 0x10C JUMPI DUP2 PUSH1 0x3 NOT CALLDATASIZE ADD SLT PUSH2 0x10C JUMPI PUSH1 0x20 SWAP1 PUSH1 0x2 SLOAD SWAP1 MLOAD SWAP1 DUP2 MSTORE RETURN JUMPDEST POP POP CALLVALUE PUSH2 0x10C JUMPI DUP2 PUSH1 0x3 NOT CALLDATASIZE ADD SLT PUSH2 0x10C JUMPI PUSH1 0x20 SWAP1 PUSH1 0x5 SLOAD SWAP1 MLOAD SWAP1 DUP2 MSTORE RETURN JUMPDEST DUP4 CALLVALUE PUSH2 0x20A JUMPI DUP1 PUSH1 0x3 NOT CALLDATASIZE ADD SLT PUSH2 0x20A JUMPI PUSH2 0x5ED PUSH2 0x8B9 JUMP JUMPDEST DUP1 SLOAD PUSH1 0x1 PUSH1 0x1 PUSH1 0xA0 SHL SUB NOT DUP2 AND DUP3 SSTORE DUP2 SWAP1 PUSH1 0x1 PUSH1 0x1 PUSH1 0xA0 SHL SUB AND PUSH32 0x8BE0079C531659141344CD1FD0A4F28419497F9722A3DAAFE3B4186F6B6457E0 DUP3 DUP1 LOG3 DUP1 RETURN JUMPDEST POP POP CALLVALUE PUSH2 0x10C JUMPI DUP2 PUSH1 0x3 NOT CALLDATASIZE ADD SLT PUSH2 0x10C JUMPI MLOAD PUSH32 0x0 PUSH1 0x1 PUSH1 0x1 PUSH1 0xA0 SHL SUB AND DUP2 MSTORE PUSH1 0x20 SWAP1 RETURN JUMPDEST SWAP2 SWAP1 POP CALLVALUE PUSH2 0x2D8 JUMPI PUSH1 0x20 DUP1 PUSH1 0x3 NOT CALLDATASIZE ADD SLT PUSH2 0x52D JUMPI DUP3 CALLDATALOAD SWAP2 PUSH2 0x692 PUSH2 0xA2C JUMP JUMPDEST CALLER DUP6 MSTORE PUSH1 0x6 DUP3 MSTORE DUP1 DUP6 KECCAK256 DUP4 DUP2 SLOAD LT PUSH2 0x833 JUMPI PUSH2 0x6AC PUSH2 0x974 JUMP JUMPDEST PUSH2 0x6C5 DUP2 SLOAD PUSH8 0xDE0B6B3A7640000 SWAP2 DUP3 SWAP2 DUP9 SLOAD SWAP1 PUSH2 0x934 JUMP JUMPDEST DIV SWAP2 PUSH2 0x6D7 PUSH1 0x1 DUP3 ADD SWAP4 DUP5 SLOAD SWAP1 PUSH2 0x911 JUMP JUMPDEST DUP1 PUSH2 0x7F9 JUMPI JUMPDEST POP DUP6 PUSH2 0x725 JUMPI JUMPDEST PUSH32 0x884EDAD9CE6FA2440D8A54CC123490EB96D2768479D49FF9C7366125A9424364 SWAP6 SWAP7 PUSH2 0x714 SWAP2 SLOAD SWAP1 SLOAD SWAP1 PUSH2 0x934 JUMP JUMPDEST DIV SWAP1 SSTORE MLOAD SWAP3 DUP4 MSTORE CALLER SWAP3 LOG2 PUSH1 0x1 DUP1 SSTORE DUP1 RETURN JUMPDEST PUSH2 0x730 DUP7 DUP3 SLOAD PUSH2 0x911 JUMP JUMPDEST DUP2 SSTORE PUSH2 0x73E DUP7 PUSH1 0x5 SLOAD PUSH2 0x911 JUMP JUMPDEST PUSH1 0x5 SSTORE DUP4 MLOAD PUSH4 0xA9059CBB PUSH1 0xE0 SHL DUP2 MSTORE CALLER DUP9 DUP3 ADD SWAP1 DUP2 MSTORE PUSH1 0x20 DUP2 ADD DUP9 SWAP1 MSTORE DUP7 SWAP1 DUP3 SWAP1 DUP2 SWAP1 PUSH1 0x40 ADD SUB DUP2 DUP13 PUSH32 0x0 PUSH1 0x1 PUSH1 0x1 PUSH1 0xA0 SHL SUB AND GAS CALL DUP1 ISZERO PUSH2 0x7EF JUMPI SWAP2 PUSH32 0x884EDAD9CE6FA2440D8A54CC123490EB96D2768479D49FF9C7366125A9424364 SWAP8 SWAP9 SWAP2 PUSH2 0x714 SWAP4 PUSH2 0x7D2 JUMPI JUMPDEST POP SWAP2 POP SWAP7 SWAP6 POP PUSH2 0x6E4 JUMP JUMPDEST PUSH2 0x7E8 SWAP1 DUP9 RETURNDATASIZE DUP11 GT PUSH2 0x4B8 JUMPI PUSH2 0x4A9 DUP2 DUP4 PUSH2 0x9D7 JUMP JUMPDEST POP CODESIZE PUSH2 0x7C7 JUMP JUMPDEST DUP6 MLOAD RETURNDATASIZE DUP12 DUP3 RETURNDATACOPY RETURNDATASIZE SWAP1 REVERT JUMPDEST PUSH2 0x803 DUP2 CALLER PUSH2 0xA82 JUMP JUMPDEST DUP5 MLOAD SWAP1 DUP2 MSTORE PUSH32 0x47CEE97CB7ACD717B3C0AA1435D004CD5B3C8C57D70DBCEB4E4458BBD60E39D4 DUP7 CALLER SWAP3 LOG2 CODESIZE PUSH2 0x6DD JUMP JUMPDEST DUP2 MLOAD PUSH3 0x461BCD PUSH1 0xE5 SHL DUP2 MSTORE DUP1 DUP7 ADD DUP5 SWAP1 MSTORE PUSH1 0x1A PUSH1 0x24 DUP3 ADD MSTORE PUSH32 0x4641524D3A20494E53554646494349454E545F42414C414E4345000000000000 PUSH1 0x44 DUP3 ADD MSTORE PUSH1 0x64 SWAP1 REVERT JUMPDEST DUP5 DUP5 SWAP3 CALLVALUE PUSH2 0x10C JUMPI PUSH1 0x20 CALLDATASIZE PUSH1 0x3 NOT ADD SLT PUSH2 0x10C JUMPI CALLDATALOAD PUSH1 0x1 PUSH1 0x1 PUSH1 0xA0 SHL SUB DUP2 AND SWAP1 DUP2 SWAP1 SUB PUSH2 0x10C JUMPI SWAP1 DUP4 SWAP2 DUP2 MSTORE PUSH1 0x6 PUSH1 0x20 MSTORE KECCAK256 PUSH1 0x1 DUP2 SLOAD SWAP2 ADD SLOAD SWAP1 DUP3 MSTORE PUSH1 0x20 DUP3 ADD MSTORE RETURN JUMPDEST PUSH1 0x0 SLOAD PUSH1 0x1 PUSH1 0x1 PUSH1 0xA0 SHL SUB AND CALLER SUB PUSH2 0x8CD JUMPI JUMP JUMPDEST PUSH1 0x64 PUSH1 0x40 MLOAD PUSH3 0x461BCD PUSH1 0xE5 SHL DUP2 MSTORE PUSH1 0x20 PUSH1 0x4 DUP3 ADD MSTORE PUSH1 0x20 PUSH1 0x24 DUP3 ADD MSTORE PUSH32 0x4F776E61626C653A2063616C6C6572206973206E6F7420746865206F776E6572 PUSH1 0x44 DUP3 ADD MSTORE REVERT JUMPDEST SWAP2 SWAP1 DUP3 SUB SWAP2 DUP3 GT PUSH2 0x91E JUMPI JUMP JUMPDEST PUSH4 0x4E487B71 PUSH1 0xE0 SHL PUSH1 0x0 MSTORE PUSH1 0x11 PUSH1 0x4 MSTORE PUSH1 0x24 PUSH1 0x0 REVERT JUMPDEST DUP2 DUP2 MUL SWAP3 SWAP2 DUP2 ISZERO SWAP2 DUP5 DIV EQ OR ISZERO PUSH2 0x91E JUMPI JUMP JUMPDEST DUP2 ISZERO PUSH2 0x951 JUMPI DIV SWAP1 JUMP JUMPDEST PUSH4 0x4E487B71 PUSH1 0xE0 SHL PUSH1 0x0 MSTORE PUSH1 0x12 PUSH1 0x4 MSTORE PUSH1 0x24 PUSH1 0x0 REVERT JUMPDEST SWAP2 SWAP1 DUP3 ADD DUP1 SWAP3 GT PUSH2 0x91E JUMPI JUMP JUMPDEST PUSH1 0x3 SLOAD NUMBER GT ISZERO PUSH2 0x9D5 JUMPI PUSH1 0x5 SLOAD DUP1 ISZERO PUSH2 0x9CE JUMPI PUSH2 0x996 PUSH2 0x191 PUSH1 0x3 SLOAD NUMBER PUSH2 0x911 JUMP JUMPDEST PUSH8 0xDE0B6B3A7640000 SWAP1 DUP2 DUP2 MUL SWAP2 DUP2 DUP4 DIV EQ SWAP1 ISZERO OR ISZERO PUSH2 0x91E JUMPI PUSH2 0x9C5 SWAP2 PUSH2 0x9BD SWAP2 PUSH2 0x947 JUMP JUMPDEST PUSH1 0x4 SLOAD PUSH2 0x967 JUMP JUMPDEST PUSH1 0x4 SSTORE NUMBER PUSH1 0x3 SSTORE JUMP JUMPDEST POP NUMBER PUSH1 0x3 SSTORE JUMP JUMPDEST JUMP JUMPDEST SWAP1 PUSH1 0x1F DUP1 NOT SWAP2 ADD AND DUP2 ADD SWAP1 DUP2 LT PUSH8 0xFFFFFFFFFFFFFFFF DUP3 GT OR PUSH2 0x9F9 JUMPI PUSH1 0x40 MSTORE JUMP JUMPDEST PUSH4 0x4E487B71 PUSH1 0xE0 SHL PUSH1 0x0 MSTORE PUSH1 0x41 PUSH1 0x4 MSTORE PUSH1 0x24 PUSH1 0x0 REVERT JUMPDEST SWAP1 DUP2 PUSH1 0x20 SWAP2 SUB SLT PUSH2 0xA27 JUMPI MLOAD DUP1 ISZERO ISZERO DUP2 SUB PUSH2 0xA27 JUMPI SWAP1 JUMP JUMPDEST PUSH1 0x0 DUP1 REVERT JUMPDEST PUSH1 0x2 PUSH1 0x1 SLOAD EQ PUSH2 0xA3D JUMPI PUSH1 0x2 PUSH1 0x1 SSTORE JUMP JUMPDEST PUSH1 0x40 MLOAD PUSH3 0x461BCD PUSH1 0xE5 SHL DUP2 MSTORE PUSH1 0x20 PUSH1 0x4 DUP3 ADD MSTORE PUSH1 0x1F PUSH1 0x24 DUP3 ADD MSTORE PUSH32 0x5265656E7472616E637947756172643A207265656E7472616E742063616C6C00 PUSH1 0x44 DUP3 ADD MSTORE PUSH1 0x64 SWAP1 REVERT JUMPDEST PUSH1 0x40 MLOAD PUSH4 0x70A08231 PUSH1 0xE0 SHL DUP2 MSTORE ADDRESS PUSH1 0x4 DUP3 ADD MSTORE PUSH1 0x20 SWAP3 PUSH32 0x0 PUSH1 0x1 PUSH1 0x1 PUSH1 0xA0 SHL SUB AND SWAP3 SWAP2 DUP5 DUP2 PUSH1 0x24 DUP2 DUP8 GAS STATICCALL SWAP1 DUP2 ISZERO PUSH2 0xB53 JUMPI PUSH1 0x0 SWAP2 PUSH2 0xB67 JUMPI JUMPDEST POP DUP1 DUP3 GT PUSH2 0xB5F JUMPI JUMPDEST POP DUP1 PUSH2 0xAF1 JUMPI JUMPDEST POP POP POP POP JUMP JUMPDEST PUSH1 0x40 MLOAD PUSH4 0xA9059CBB PUSH1 0xE0 SHL DUP2 MSTORE PUSH1 0x1 PUSH1 0x1 PUSH1 0xA0 SHL SUB SWAP3 SWAP1 SWAP3 AND PUSH1 0x4 DUP4 ADD MSTORE PUSH1 0x24 DUP3 ADD MSTORE SWAP1 DUP3 SWAP1 DUP3 SWAP1 PUSH1 0x44 SWAP1 DUP3 SWAP1 PUSH1 0x0 SWAP1 GAS CALL DUP1 ISZERO PUSH2 0xB53 JUMPI PUSH2 0xB35 JUMPI JUMPDEST DUP1 DUP1 PUSH2 0xAEB JUMP JUMPDEST DUP2 PUSH2 0xB4B SWAP3 SWAP1 RETURNDATASIZE LT PUSH2 0x4B8 JUMPI PUSH2 0x4A9 DUP2 DUP4 PUSH2 0x9D7 JUMP JUMPDEST POP CODESIZE DUP1 PUSH2 0xB2E JUMP JUMPDEST PUSH1 0x40 MLOAD RETURNDATASIZE PUSH1 0x0 DUP3 RETURNDATACOPY RETURNDATASIZE SWAP1 REVERT JUMPDEST SWAP1 POP CODESIZE PUSH2 0xAE4 JUMP JUMPDEST SWAP1 DUP6 DUP3 DUP2 RETURNDATASIZE DUP4 GT PUSH2 0xB8D JUMPI JUMPDEST PUSH2 0xB7D DUP2 DUP4 PUSH2 0x9D7 JUMP JUMPDEST DUP2 ADD SUB SLT PUSH2 0x20A JUMPI POP MLOAD CODESIZE PUSH2 0xADB JUMP JUMPDEST POP RETURNDATASIZE PUSH2 0xB73 JUMP INVALID LOG2 PUSH5 0x6970667358 0x22 SLT KECCAK256 DUP6 0xBA DUP14 STOP MSTORE8 PUSH28 0x2E5370C12AF149EFDCD2F5CC435F35A4ACE53EC479973A48328C6473 PUSH16 0x6C634300081400330000000000000000 "},"methodIdentifiers":{"accRewardPerShare()":"939d6237","deposit(uint256)":"b6b55f25","lastRewardBlock()":"a9f8d181","lpToken()":"5fcbd285","owner()":"8da5cb5b","pendingReward(address)":"f40f0f52","renounceOwnership()":"715018a6","rewardPerBlock()":"8ae39cac","rewardToken()":"f7c618c1","setRewardPerBlock(uint256)":"bb872b4a","totalStaked()":"817b1cd2","transferOwnership(address)":"f2fde38b","updatePool()":"e3161ddd","userInfo(address)":"1959a002","withdraw(uint256)":"2e1a7d4d"}},"storageLayout":{"storage":[{"astId":396,"contract":"contracts/farming/KortanaFarm.sol:KortanaFarm","label":"_owner","offset":0,"slot":"0","type":"t_address"},{"astId":620,"contract":"contracts/farming/KortanaFarm.sol:KortanaFarm","label":"_status","offset":0,"slot":"1","type":"t_uint256"},{"astId":6699,"contract":"contracts/farming/KortanaFarm.sol:KortanaFarm","label":"rewardPerBlock","offset":0,"slot":"2","type":"t_uint256"},{"astId":6701,"contract":"contracts/farming/KortanaFarm.sol:KortanaFarm","label":"lastRewardBlock","offset":0,"slot":"3","type":"t_uint256"},{"astId":6703,"contract":"contracts/farming/KortanaFarm.sol:KortanaFarm","label":"accRewardPerShare","offset":0,"slot":"4","type":"t_uint256"},{"astId":6705,"contract":"contracts/farming/KortanaFarm.sol:KortanaFarm","label":"totalStaked","offset":0,"slot":"5","type":"t_uint256"},{"astId":6715,"contract":"contracts/farming/KortanaFarm.sol:KortanaFarm","label":"userInfo","offset":0,"slot":"6","type":"t_mapping(t_address,t_struct(UserInfo)6710_storage)"}],"types":{"t_address":{"encoding":"inplace","label":"address","numberOfBytes":"20"},"t_mapping(t_address,t_struct(UserInfo)6710_storage)":{"encoding":"mapping","key":"t_address","label":"mapping(address => struct KortanaFarm.UserInfo)","numberOfBytes":"32","value":"t_struct(UserInfo)6710_storage"},"t_struct(UserInfo)6710_storage":{"encoding":"inplace","label":"struct KortanaFarm.UserInfo","members":[{"astId":6707,"contract":"contracts/farming/KortanaFarm.sol:KortanaFarm","label":"amount","offset":0,"slot":"0","type":"t_uint256"},{"astId":6709,"contract":"contracts/farming/KortanaFarm.sol:KortanaFarm","label":"rewardDebt","offset":0,"slot":"1","type":"t_uint256"}],"numberOfBytes":"64"},"t_uint256":{"encoding":"inplace","label":"uint256","numberOfBytes":"32"}}}}}}