{"contracts/debug/DebugRouterV3.sol":{"DebugRouterV3":{"abi":[{"inputs":[],"name":"PAIR","outputs":[{"internalType":"address","name":"","type":"address"}],"stateMutability":"view","type":"function"},{"inputs":[],"name":"probe","outputs":[{"internalType":"string","name":"","type":"string"}],"stateMutability":"view","type":"function"},{"inputs":[],"name":"probeDetailed","outputs":[{"internalType":"bool","name":"","type":"bool"},{"internalType":"bytes","name":"","type":"bytes"}],"stateMutability":"view","type":"function"}],"evm":{"bytecode":{"linkReferences":{},"object":"60808060405234610016576102a7908161001c8239f35b600080fdfe60806040818152600436101561001457600080fd5b600091823560e01c9081635c4df3ca146100a857508063ace3a8a71461007a5763b74af5a91461004357600080fd5b346100765781600319360112610076576100729061005f6101cd565b9051918291602083526020830190610110565b0390f35b5080fd5b5034610076578160031936011261007657602090517385782446b5ac7c4bcce639698042e3ebf46d52428152f35b83915034610076578160031936011261007657630240bc6b60e21b602082019081526004825282916100d981610150565b51907385782446b5ac7c4bcce639698042e3ebf46d52425afa6100726100fd610182565b8351938493151584528060208501528301905b919082519283825260005b84811061013c575050826000602080949584010152601f8019910116010190565b60208183018101518483018201520161011b565b6040810190811067ffffffffffffffff82111761016c57604052565b634e487b7160e01b600052604160045260246000fd5b3d156101c85767ffffffffffffffff903d82811161016c5760405192601f8201601f19908116603f011684019081118482101761016c5760405282523d6000602084013e565b606090565b6000806040516020810190630240bc6b60e21b8252600481526101ef81610150565b51907385782446b5ac7c4bcce639698042e3ebf46d52425afa610210610182565b50156102445760405161022281610150565b601281527153544154494343414c4c5f5355434345535360701b602082015290565b60405161025081610150565b601181527014d510551250d0d0531317d19052531151607a1b60208201529056fea2646970667358221220e7503a3db8c09f8037d588bebb1c692e34e9ad65780c95b2cf253938efc747a164736f6c63430008140033","opcodes":"PUSH1 0x80 DUP1 PUSH1 0x40 MSTORE CALLVALUE PUSH2 0x16 JUMPI PUSH2 0x2A7 SWAP1 DUP2 PUSH2 0x1C DUP3 CODECOPY RETURN JUMPDEST PUSH1 0x0 DUP1 REVERT INVALID PUSH1 0x80 PUSH1 0x40 DUP2 DUP2 MSTORE PUSH1 0x4 CALLDATASIZE LT ISZERO PUSH2 0x14 JUMPI PUSH1 0x0 DUP1 REVERT JUMPDEST PUSH1 0x0 SWAP2 DUP3 CALLDATALOAD PUSH1 0xE0 SHR SWAP1 DUP2 PUSH4 0x5C4DF3CA EQ PUSH2 0xA8 JUMPI POP DUP1 PUSH4 0xACE3A8A7 EQ PUSH2 0x7A JUMPI PUSH4 0xB74AF5A9 EQ PUSH2 0x43 JUMPI PUSH1 0x0 DUP1 REVERT JUMPDEST CALLVALUE PUSH2 0x76 JUMPI DUP2 PUSH1 0x3 NOT CALLDATASIZE ADD SLT PUSH2 0x76 JUMPI PUSH2 0x72 SWAP1 PUSH2 0x5F PUSH2 0x1CD JUMP JUMPDEST SWAP1 MLOAD SWAP2 DUP3 SWAP2 PUSH1 0x20 DUP4 MSTORE PUSH1 0x20 DUP4 ADD SWAP1 PUSH2 0x110 JUMP JUMPDEST SUB SWAP1 RETURN JUMPDEST POP DUP1 REVERT JUMPDEST POP CALLVALUE PUSH2 0x76 JUMPI DUP2 PUSH1 0x3 NOT CALLDATASIZE ADD SLT PUSH2 0x76 JUMPI PUSH1 0x20 SWAP1 MLOAD PUSH20 0x85782446B5AC7C4BCCE639698042E3EBF46D5242 DUP2 MSTORE RETURN JUMPDEST DUP4 SWAP2 POP CALLVALUE PUSH2 0x76 JUMPI DUP2 PUSH1 0x3 NOT CALLDATASIZE ADD SLT PUSH2 0x76 JUMPI PUSH4 0x240BC6B PUSH1 0xE2 SHL PUSH1 0x20 DUP3 ADD SWAP1 DUP2 MSTORE PUSH1 0x4 DUP3 MSTORE DUP3 SWAP2 PUSH2 0xD9 DUP2 PUSH2 0x150 JUMP JUMPDEST MLOAD SWAP1 PUSH20 0x85782446B5AC7C4BCCE639698042E3EBF46D5242 GAS STATICCALL PUSH2 0x72 PUSH2 0xFD PUSH2 0x182 JUMP JUMPDEST DUP4 MLOAD SWAP4 DUP5 SWAP4 ISZERO ISZERO DUP5 MSTORE DUP1 PUSH1 0x20 DUP6 ADD MSTORE DUP4 ADD SWAP1 JUMPDEST SWAP2 SWAP1 DUP3 MLOAD SWAP3 DUP4 DUP3 MSTORE PUSH1 0x0 JUMPDEST DUP5 DUP2 LT PUSH2 0x13C JUMPI POP POP DUP3 PUSH1 0x0 PUSH1 0x20 DUP1 SWAP5 SWAP6 DUP5 ADD ADD MSTORE PUSH1 0x1F DUP1 NOT SWAP2 ADD AND ADD ADD SWAP1 JUMP JUMPDEST PUSH1 0x20 DUP2 DUP4 ADD DUP2 ADD MLOAD DUP5 DUP4 ADD DUP3 ADD MSTORE ADD PUSH2 0x11B JUMP JUMPDEST PUSH1 0x40 DUP2 ADD SWAP1 DUP2 LT PUSH8 0xFFFFFFFFFFFFFFFF DUP3 GT OR PUSH2 0x16C JUMPI PUSH1 0x40 MSTORE JUMP JUMPDEST PUSH4 0x4E487B71 PUSH1 0xE0 SHL PUSH1 0x0 MSTORE PUSH1 0x41 PUSH1 0x4 MSTORE PUSH1 0x24 PUSH1 0x0 REVERT JUMPDEST RETURNDATASIZE ISZERO PUSH2 0x1C8 JUMPI PUSH8 0xFFFFFFFFFFFFFFFF SWAP1 RETURNDATASIZE DUP3 DUP2 GT PUSH2 0x16C JUMPI PUSH1 0x40 MLOAD SWAP3 PUSH1 0x1F DUP3 ADD PUSH1 0x1F NOT SWAP1 DUP2 AND PUSH1 0x3F ADD AND DUP5 ADD SWAP1 DUP2 GT DUP5 DUP3 LT OR PUSH2 0x16C JUMPI PUSH1 0x40 MSTORE DUP3 MSTORE RETURNDATASIZE PUSH1 0x0 PUSH1 0x20 DUP5 ADD RETURNDATACOPY JUMP JUMPDEST PUSH1 0x60 SWAP1 JUMP JUMPDEST PUSH1 0x0 DUP1 PUSH1 0x40 MLOAD PUSH1 0x20 DUP2 ADD SWAP1 PUSH4 0x240BC6B PUSH1 0xE2 SHL DUP3 MSTORE PUSH1 0x4 DUP2 MSTORE PUSH2 0x1EF DUP2 PUSH2 0x150 JUMP JUMPDEST MLOAD SWAP1 PUSH20 0x85782446B5AC7C4BCCE639698042E3EBF46D5242 GAS STATICCALL PUSH2 0x210 PUSH2 0x182 JUMP JUMPDEST POP ISZERO PUSH2 0x244 JUMPI PUSH1 0x40 MLOAD PUSH2 0x222 DUP2 PUSH2 0x150 JUMP JUMPDEST PUSH1 0x12 DUP2 MSTORE PUSH18 0x53544154494343414C4C5F53554343455353 PUSH1 0x70 SHL PUSH1 0x20 DUP3 ADD MSTORE SWAP1 JUMP JUMPDEST PUSH1 0x40 MLOAD PUSH2 0x250 DUP2 PUSH2 0x150 JUMP JUMPDEST PUSH1 0x11 DUP2 MSTORE PUSH17 0x14D510551250D0D0531317D19052531151 PUSH1 0x7A SHL PUSH1 0x20 DUP3 ADD MSTORE SWAP1 JUMP INVALID LOG2 PUSH5 0x6970667358 0x22 SLT KECCAK256 0xE7 POP GASPRICE RETURNDATASIZE 0xB8 0xC0 SWAP16 DUP1 CALLDATACOPY 0xD5 DUP9 0xBE 0xBB SHR PUSH10 0x2E34E9AD65780C95B2CF 0x25 CODECOPY CODESIZE 0xEF 0xC7 SELFBALANCE LOG1 PUSH5 0x736F6C6343 STOP ADDMOD EQ STOP CALLER "},"methodIdentifiers":{"PAIR()":"ace3a8a7","probe()":"b74af5a9","probeDetailed()":"5c4df3ca"}},"storageLayout":{"storage":[],"types":null}}}}