{"contracts/stablecoin/KortanaOracle.sol":{"KortanaOracle":{"abi":[{"inputs":[{"internalType":"address","name":"_pair","type":"address"}],"stateMutability":"nonpayable","type":"constructor"},{"inputs":[],"name":"getCollateralPrice","outputs":[{"internalType":"uint256","name":"","type":"uint256"}],"stateMutability":"view","type":"function"},{"inputs":[],"name":"getKORTUSDPrice","outputs":[{"internalType":"uint256","name":"","type":"uint256"}],"stateMutability":"view","type":"function"},{"inputs":[],"name":"manualCollateralPrice","outputs":[{"internalType":"uint256","name":"","type":"uint256"}],"stateMutability":"view","type":"function"},{"inputs":[],"name":"manualKORTUSDPrice","outputs":[{"internalType":"uint256","name":"","type":"uint256"}],"stateMutability":"view","type":"function"},{"inputs":[],"name":"owner","outputs":[{"internalType":"address","name":"","type":"address"}],"stateMutability":"view","type":"function"},{"inputs":[],"name":"pair","outputs":[{"internalType":"address","name":"","type":"address"}],"stateMutability":"view","type":"function"},{"inputs":[{"internalType":"uint256","name":"collateralPrice","type":"uint256"},{"internalType":"uint256","name":"kortusdPrice","type":"uint256"}],"name":"setManualPrices","outputs":[],"stateMutability":"nonpayable","type":"function"},{"inputs":[{"internalType":"address","name":"newOwner","type":"address"}],"name":"transferOwnership","outputs":[],"stateMutability":"nonpayable","type":"function"}],"evm":{"bytecode":{"linkReferences":{},"object":"60a03461007c57601f6102c638819003918201601f19168301916001600160401b038311848410176100815780849260209460405283398101031261007c57516001600160a01b038116810361007c57600080546001600160a01b0319163317905560805260405161022e908161009882396080518161014e0152f35b600080fd5b634e487b7160e01b600052604160045260246000fdfe60806040818152600436101561001457600080fd5b600091823560e01c908163612997c7146101a4575080638da5cb5b1461017d578063a8aa1b311461013a578063b0a9a88f1461011c578063f02e18251461011c578063f2fde38b146100d1578063f7683bbc146100b35763fd9384e21461007a57600080fd5b346100af573660031901126100ac5761009d60018060a01b0382541633146101c0565b60043560015560243560025580f35b80fd5b5080fd5b50346100af57816003193601126100af576020906001549051908152f35b82346100ac5760203660031901126100ac576004356001600160a01b038181169182900361011857610108835491821633146101c0565b6001600160a01b03191617815580f35b8280fd5b50346100af57816003193601126100af576020906002549051908152f35b50346100af57816003193601126100af57517f00000000000000000000000000000000000000000000000000000000000000006001600160a01b03168152602090f35b50346100af57816003193601126100af57905490516001600160a01b039091168152602090f35b8390346100af57816003193601126100af576020906001548152f35b156101c757565b60405162461bcd60e51b81526020600482015260096024820152682727aa2fa7aba722a960b91b6044820152606490fdfea26469706673582212208033347c575fd29e164a9053d403bfd1376cadae6fbec6d84f330004fee5b03f64736f6c63430008140033","opcodes":"PUSH1 0xA0 CALLVALUE PUSH2 0x7C JUMPI PUSH1 0x1F PUSH2 0x2C6 CODESIZE DUP2 SWAP1 SUB SWAP2 DUP3 ADD PUSH1 0x1F NOT AND DUP4 ADD SWAP2 PUSH1 0x1 PUSH1 0x1 PUSH1 0x40 SHL SUB DUP4 GT DUP5 DUP5 LT OR PUSH2 0x81 JUMPI DUP1 DUP5 SWAP3 PUSH1 0x20 SWAP5 PUSH1 0x40 MSTORE DUP4 CODECOPY DUP2 ADD SUB SLT PUSH2 0x7C JUMPI MLOAD PUSH1 0x1 PUSH1 0x1 PUSH1 0xA0 SHL SUB DUP2 AND DUP2 SUB PUSH2 0x7C JUMPI PUSH1 0x0 DUP1 SLOAD PUSH1 0x1 PUSH1 0x1 PUSH1 0xA0 SHL SUB NOT AND CALLER OR SWAP1 SSTORE PUSH1 0x80 MSTORE PUSH1 0x40 MLOAD PUSH2 0x22E SWAP1 DUP2 PUSH2 0x98 DUP3 CODECOPY PUSH1 0x80 MLOAD DUP2 PUSH2 0x14E ADD MSTORE RETURN JUMPDEST PUSH1 0x0 DUP1 REVERT JUMPDEST PUSH4 0x4E487B71 PUSH1 0xE0 SHL PUSH1 0x0 MSTORE PUSH1 0x41 PUSH1 0x4 MSTORE PUSH1 0x24 PUSH1 0x0 REVERT INVALID PUSH1 0x80 PUSH1 0x40 DUP2 DUP2 MSTORE PUSH1 0x4 CALLDATASIZE LT ISZERO PUSH2 0x14 JUMPI PUSH1 0x0 DUP1 REVERT JUMPDEST PUSH1 0x0 SWAP2 DUP3 CALLDATALOAD PUSH1 0xE0 SHR SWAP1 DUP2 PUSH4 0x612997C7 EQ PUSH2 0x1A4 JUMPI POP DUP1 PUSH4 0x8DA5CB5B EQ PUSH2 0x17D JUMPI DUP1 PUSH4 0xA8AA1B31 EQ PUSH2 0x13A JUMPI DUP1 PUSH4 0xB0A9A88F EQ PUSH2 0x11C JUMPI DUP1 PUSH4 0xF02E1825 EQ PUSH2 0x11C JUMPI DUP1 PUSH4 0xF2FDE38B EQ PUSH2 0xD1 JUMPI DUP1 PUSH4 0xF7683BBC EQ PUSH2 0xB3 JUMPI PUSH4 0xFD9384E2 EQ PUSH2 0x7A JUMPI PUSH1 0x0 DUP1 REVERT JUMPDEST CALLVALUE PUSH2 0xAF JUMPI CALLDATASIZE PUSH1 0x3 NOT ADD SLT PUSH2 0xAC JUMPI PUSH2 0x9D PUSH1 0x1 DUP1 PUSH1 0xA0 SHL SUB DUP3 SLOAD AND CALLER EQ PUSH2 0x1C0 JUMP JUMPDEST PUSH1 0x4 CALLDATALOAD PUSH1 0x1 SSTORE PUSH1 0x24 CALLDATALOAD PUSH1 0x2 SSTORE DUP1 RETURN JUMPDEST DUP1 REVERT JUMPDEST POP DUP1 REVERT JUMPDEST POP CALLVALUE PUSH2 0xAF JUMPI DUP2 PUSH1 0x3 NOT CALLDATASIZE ADD SLT PUSH2 0xAF JUMPI PUSH1 0x20 SWAP1 PUSH1 0x1 SLOAD SWAP1 MLOAD SWAP1 DUP2 MSTORE RETURN JUMPDEST DUP3 CALLVALUE PUSH2 0xAC JUMPI PUSH1 0x20 CALLDATASIZE PUSH1 0x3 NOT ADD SLT PUSH2 0xAC JUMPI PUSH1 0x4 CALLDATALOAD PUSH1 0x1 PUSH1 0x1 PUSH1 0xA0 SHL SUB DUP2 DUP2 AND SWAP2 DUP3 SWAP1 SUB PUSH2 0x118 JUMPI PUSH2 0x108 DUP4 SLOAD SWAP2 DUP3 AND CALLER EQ PUSH2 0x1C0 JUMP JUMPDEST PUSH1 0x1 PUSH1 0x1 PUSH1 0xA0 SHL SUB NOT AND OR DUP2 SSTORE DUP1 RETURN JUMPDEST DUP3 DUP1 REVERT JUMPDEST POP CALLVALUE PUSH2 0xAF JUMPI DUP2 PUSH1 0x3 NOT CALLDATASIZE ADD SLT PUSH2 0xAF JUMPI PUSH1 0x20 SWAP1 PUSH1 0x2 SLOAD SWAP1 MLOAD SWAP1 DUP2 MSTORE RETURN JUMPDEST POP CALLVALUE PUSH2 0xAF JUMPI DUP2 PUSH1 0x3 NOT CALLDATASIZE ADD SLT PUSH2 0xAF JUMPI MLOAD PUSH32 0x0 PUSH1 0x1 PUSH1 0x1 PUSH1 0xA0 SHL SUB AND DUP2 MSTORE PUSH1 0x20 SWAP1 RETURN JUMPDEST POP CALLVALUE PUSH2 0xAF JUMPI DUP2 PUSH1 0x3 NOT CALLDATASIZE ADD SLT PUSH2 0xAF JUMPI SWAP1 SLOAD SWAP1 MLOAD PUSH1 0x1 PUSH1 0x1 PUSH1 0xA0 SHL SUB SWAP1 SWAP2 AND DUP2 MSTORE PUSH1 0x20 SWAP1 RETURN JUMPDEST DUP4 SWAP1 CALLVALUE PUSH2 0xAF JUMPI DUP2 PUSH1 0x3 NOT CALLDATASIZE ADD SLT PUSH2 0xAF JUMPI PUSH1 0x20 SWAP1 PUSH1 0x1 SLOAD DUP2 MSTORE RETURN JUMPDEST ISZERO PUSH2 0x1C7 JUMPI JUMP JUMPDEST PUSH1 0x40 MLOAD PUSH3 0x461BCD PUSH1 0xE5 SHL DUP2 MSTORE PUSH1 0x20 PUSH1 0x4 DUP3 ADD MSTORE PUSH1 0x9 PUSH1 0x24 DUP3 ADD MSTORE PUSH9 0x2727AA2FA7ABA722A9 PUSH1 0xB9 SHL PUSH1 0x44 DUP3 ADD MSTORE PUSH1 0x64 SWAP1 REVERT INVALID LOG2 PUSH5 0x6970667358 0x22 SLT KECCAK256 DUP1 CALLER CALLVALUE PUSH29 0x575FD29E164A9053D403BFD1376CADAE6FBEC6D84F330004FEE5B03F64 PUSH20 0x6F6C634300081400330000000000000000000000 "},"methodIdentifiers":{"getCollateralPrice()":"f7683bbc","getKORTUSDPrice()":"b0a9a88f","manualCollateralPrice()":"612997c7","manualKORTUSDPrice()":"f02e1825","owner()":"8da5cb5b","pair()":"a8aa1b31","setManualPrices(uint256,uint256)":"fd9384e2","transferOwnership(address)":"f2fde38b"}},"storageLayout":{"storage":[{"astId":8782,"contract":"contracts/stablecoin/KortanaOracle.sol:KortanaOracle","label":"owner","offset":0,"slot":"0","type":"t_address"},{"astId":8786,"contract":"contracts/stablecoin/KortanaOracle.sol:KortanaOracle","label":"manualCollateralPrice","offset":0,"slot":"1","type":"t_uint256"},{"astId":8788,"contract":"contracts/stablecoin/KortanaOracle.sol:KortanaOracle","label":"manualKORTUSDPrice","offset":0,"slot":"2","type":"t_uint256"}],"types":{"t_address":{"encoding":"inplace","label":"address","numberOfBytes":"20"},"t_uint256":{"encoding":"inplace","label":"uint256","numberOfBytes":"32"}}}}}}