{"contracts/sovereign/NativeSovereignAnchor.sol":{"NativeSovereignAnchor":{"abi":[{"inputs":[{"internalType":"address","name":"_usdc","type":"address"}],"stateMutability":"nonpayable","type":"constructor"},{"anonymous":false,"inputs":[{"indexed":true,"internalType":"address","name":"sender","type":"address"},{"indexed":false,"internalType":"uint256","name":"dnrIn","type":"uint256"},{"indexed":false,"internalType":"uint256","name":"usdcIn","type":"uint256"},{"indexed":false,"internalType":"uint256","name":"dnrOut","type":"uint256"},{"indexed":false,"internalType":"uint256","name":"usdcOut","type":"uint256"}],"name":"Swap","type":"event"},{"anonymous":false,"inputs":[{"indexed":false,"internalType":"uint256","name":"reserveDNR","type":"uint256"},{"indexed":false,"internalType":"uint256","name":"reserveUSDC","type":"uint256"}],"name":"Sync","type":"event"},{"inputs":[{"internalType":"uint256","name":"usdcAmountIn","type":"uint256"},{"internalType":"uint256","name":"minDnrOut","type":"uint256"},{"internalType":"address","name":"to","type":"address"}],"name":"buyDNR","outputs":[],"stateMutability":"nonpayable","type":"function"},{"inputs":[{"internalType":"uint256","name":"minUsdcOut","type":"uint256"},{"internalType":"address","name":"to","type":"address"}],"name":"buyUSDC","outputs":[],"stateMutability":"payable","type":"function"},{"inputs":[],"name":"reserveDNR","outputs":[{"internalType":"uint256","name":"","type":"uint256"}],"stateMutability":"view","type":"function"},{"inputs":[],"name":"reserveUSDC","outputs":[{"internalType":"uint256","name":"","type":"uint256"}],"stateMutability":"view","type":"function"},{"inputs":[],"name":"sync","outputs":[],"stateMutability":"nonpayable","type":"function"},{"inputs":[],"name":"usdc","outputs":[{"internalType":"address","name":"","type":"address"}],"stateMutability":"view","type":"function"},{"stateMutability":"payable","type":"receive"}],"evm":{"bytecode":{"linkReferences":{},"object":"60a03461008457601f61073338819003918201601f19168301916001600160401b038311848410176100895780849260209460405283398101031261008457516001600160a01b038116810361008457600160005560805260405161069390816100a082396080518181816101070152818161030c015281816103c7015261044f0152f35b600080fd5b634e487b7160e01b600052604160045260246000fdfe60806040908082526004918236101561002b575b505050361561002157600080fd5b61002961042e565b005b600092833560e01c9283633e413bee146103b3575082638d5fc2181461028a578263af7c2d881461026b578263c87b502e1461024c578263eef3a69a1461009d57505063fff6cae91461007f578080610013565b3461009a578060031936011261009a5761009761042e565b80f35b80fd5b90915034610248576060366003190112610248578035916001600160a01b03604435818116918691839003610244576020906100d7610607565b6100e287151561051c565b60648551809481936323b872dd60e01b8352338a8401523060248401528a60448401527f0000000000000000000000000000000000000000000000000000000000000000165af1801561023a5761020c575b506101566101446001548661057a565b610150866002546105a3565b906105b0565b926101656024358510156105d0565b478410156101dd57508480808581948282156101d4575bf1156101cb5761018a61042e565b80519284845260208401528201528160608201527f49926bbebe8474393f434dfa4f78694c0923efa07d19f2284518bfabd06eb73760803392a26001815580f35b513d84823e3d90fd5b506108fc61017c565b606490602084519162461bcd60e51b835282015260096024820152684c495155494449545960b81b6044820152fd5b61022c9060203d8111610233575b61022481836103f6565b81019061055d565b5038610134565b503d61021a565b83513d88823e3d90fd5b5080fd5b8280fd5b8382346102445781600319360112610244576020906002549051908152f35b8382346102445781600319360112610244576020906001549051908152f35b90809250600319360112610248576001600160a01b03602435818116908190036103af576020906102b9610607565b6102c434151561051c565b60446102e16102d56002543461057a565b610150346001546105a3565b946102ef81358710156105d0565b878751958694859363a9059cbb60e01b85528401528760248401527f0000000000000000000000000000000000000000000000000000000000000000165af180156103a257610384575b5061034261042e565b8282519234845281602085015283015260608201527f49926bbebe8474393f434dfa4f78694c0923efa07d19f2284518bfabd06eb73760803392a26001815580f35b61039b9060203d81116102335761022481836103f6565b5038610339565b50505051903d90823e3d90fd5b8480fd5b8490346102445781600319360112610244577f00000000000000000000000000000000000000000000000000000000000000006001600160a01b03168152602090f35b90601f8019910116810190811067ffffffffffffffff82111761041857604052565b634e487b7160e01b600052604160045260246000fd5b4760018190556040516370a0823160e01b81523060048201526020816024817f00000000000000000000000000000000000000000000000000000000000000006001600160a01b03165afa908115610510576000916104bf575b507fcf2aa50876cdfbb541206f89af0ee78d44a2abf8d328e37fa4917f982149848a918160409260025582519182526020820152a1565b906020823d8211610508575b816104d8602093836103f6565b8101031261009a5750517fcf2aa50876cdfbb541206f89af0ee78d44a2abf8d328e37fa4917f982149848a610488565b3d91506104cb565b6040513d6000823e3d90fd5b1561052357565b60405162461bcd60e51b8152602060048201526012602482015271125394d551919250d251539517d25394155560721b6044820152606490fd5b90816020910312610575575180151581036105755790565b600080fd5b8181029291811591840414171561058d57565b634e487b7160e01b600052601160045260246000fd5b9190820180921161058d57565b81156105ba570490565b634e487b7160e01b600052601260045260246000fd5b156105d757565b60405162461bcd60e51b8152602060048201526008602482015267534c49505041474560c01b6044820152606490fd5b600260005414610618576002600055565b60405162461bcd60e51b815260206004820152601f60248201527f5265656e7472616e637947756172643a207265656e7472616e742063616c6c006044820152606490fdfea26469706673582212200c32bb4267099881b04e38a7dd7726417b08e1e5475689440a0904175eb52e4a64736f6c63430008140033","opcodes":"PUSH1 0xA0 CALLVALUE PUSH2 0x84 JUMPI PUSH1 0x1F PUSH2 0x733 CODESIZE DUP2 SWAP1 SUB SWAP2 DUP3 ADD PUSH1 0x1F NOT AND DUP4 ADD SWAP2 PUSH1 0x1 PUSH1 0x1 PUSH1 0x40 SHL SUB DUP4 GT DUP5 DUP5 LT OR PUSH2 0x89 JUMPI DUP1 DUP5 SWAP3 PUSH1 0x20 SWAP5 PUSH1 0x40 MSTORE DUP4 CODECOPY DUP2 ADD SUB SLT PUSH2 0x84 JUMPI MLOAD PUSH1 0x1 PUSH1 0x1 PUSH1 0xA0 SHL SUB DUP2 AND DUP2 SUB PUSH2 0x84 JUMPI PUSH1 0x1 PUSH1 0x0 SSTORE PUSH1 0x80 MSTORE PUSH1 0x40 MLOAD PUSH2 0x693 SWAP1 DUP2 PUSH2 0xA0 DUP3 CODECOPY PUSH1 0x80 MLOAD DUP2 DUP2 DUP2 PUSH2 0x107 ADD MSTORE DUP2 DUP2 PUSH2 0x30C ADD MSTORE DUP2 DUP2 PUSH2 0x3C7 ADD MSTORE PUSH2 0x44F ADD MSTORE RETURN JUMPDEST PUSH1 0x0 DUP1 REVERT JUMPDEST PUSH4 0x4E487B71 PUSH1 0xE0 SHL PUSH1 0x0 MSTORE PUSH1 0x41 PUSH1 0x4 MSTORE PUSH1 0x24 PUSH1 0x0 REVERT INVALID PUSH1 0x80 PUSH1 0x40 SWAP1 DUP1 DUP3 MSTORE PUSH1 0x4 SWAP2 DUP3 CALLDATASIZE LT ISZERO PUSH2 0x2B JUMPI JUMPDEST POP POP POP CALLDATASIZE ISZERO PUSH2 0x21 JUMPI PUSH1 0x0 DUP1 REVERT JUMPDEST PUSH2 0x29 PUSH2 0x42E JUMP JUMPDEST STOP JUMPDEST PUSH1 0x0 SWAP3 DUP4 CALLDATALOAD PUSH1 0xE0 SHR SWAP3 DUP4 PUSH4 0x3E413BEE EQ PUSH2 0x3B3 JUMPI POP DUP3 PUSH4 0x8D5FC218 EQ PUSH2 0x28A JUMPI DUP3 PUSH4 0xAF7C2D88 EQ PUSH2 0x26B JUMPI DUP3 PUSH4 0xC87B502E EQ PUSH2 0x24C JUMPI DUP3 PUSH4 0xEEF3A69A EQ PUSH2 0x9D JUMPI POP POP PUSH4 0xFFF6CAE9 EQ PUSH2 0x7F JUMPI DUP1 DUP1 PUSH2 0x13 JUMP JUMPDEST CALLVALUE PUSH2 0x9A JUMPI DUP1 PUSH1 0x3 NOT CALLDATASIZE ADD SLT PUSH2 0x9A JUMPI PUSH2 0x97 PUSH2 0x42E JUMP JUMPDEST DUP1 RETURN JUMPDEST DUP1 REVERT JUMPDEST SWAP1 SWAP2 POP CALLVALUE PUSH2 0x248 JUMPI PUSH1 0x60 CALLDATASIZE PUSH1 0x3 NOT ADD SLT PUSH2 0x248 JUMPI DUP1 CALLDATALOAD SWAP2 PUSH1 0x1 PUSH1 0x1 PUSH1 0xA0 SHL SUB PUSH1 0x44 CALLDATALOAD DUP2 DUP2 AND SWAP2 DUP7 SWAP2 DUP4 SWAP1 SUB PUSH2 0x244 JUMPI PUSH1 0x20 SWAP1 PUSH2 0xD7 PUSH2 0x607 JUMP JUMPDEST PUSH2 0xE2 DUP8 ISZERO ISZERO PUSH2 0x51C JUMP JUMPDEST PUSH1 0x64 DUP6 MLOAD DUP1 SWAP5 DUP2 SWAP4 PUSH4 0x23B872DD PUSH1 0xE0 SHL DUP4 MSTORE CALLER DUP11 DUP5 ADD MSTORE ADDRESS PUSH1 0x24 DUP5 ADD MSTORE DUP11 PUSH1 0x44 DUP5 ADD MSTORE PUSH32 0x0 AND GAS CALL DUP1 ISZERO PUSH2 0x23A JUMPI PUSH2 0x20C JUMPI JUMPDEST POP PUSH2 0x156 PUSH2 0x144 PUSH1 0x1 SLOAD DUP7 PUSH2 0x57A JUMP JUMPDEST PUSH2 0x150 DUP7 PUSH1 0x2 SLOAD PUSH2 0x5A3 JUMP JUMPDEST SWAP1 PUSH2 0x5B0 JUMP JUMPDEST SWAP3 PUSH2 0x165 PUSH1 0x24 CALLDATALOAD DUP6 LT ISZERO PUSH2 0x5D0 JUMP JUMPDEST SELFBALANCE DUP5 LT ISZERO PUSH2 0x1DD JUMPI POP DUP5 DUP1 DUP1 DUP6 DUP2 SWAP5 DUP3 DUP3 ISZERO PUSH2 0x1D4 JUMPI JUMPDEST CALL ISZERO PUSH2 0x1CB JUMPI PUSH2 0x18A PUSH2 0x42E JUMP JUMPDEST DUP1 MLOAD SWAP3 DUP5 DUP5 MSTORE PUSH1 0x20 DUP5 ADD MSTORE DUP3 ADD MSTORE DUP2 PUSH1 0x60 DUP3 ADD MSTORE PUSH32 0x49926BBEBE8474393F434DFA4F78694C0923EFA07D19F2284518BFABD06EB737 PUSH1 0x80 CALLER SWAP3 LOG2 PUSH1 0x1 DUP2 SSTORE DUP1 RETURN JUMPDEST MLOAD RETURNDATASIZE DUP5 DUP3 RETURNDATACOPY RETURNDATASIZE SWAP1 REVERT JUMPDEST POP PUSH2 0x8FC PUSH2 0x17C JUMP JUMPDEST PUSH1 0x64 SWAP1 PUSH1 0x20 DUP5 MLOAD SWAP2 PUSH3 0x461BCD PUSH1 0xE5 SHL DUP4 MSTORE DUP3 ADD MSTORE PUSH1 0x9 PUSH1 0x24 DUP3 ADD MSTORE PUSH9 0x4C4951554944495459 PUSH1 0xB8 SHL PUSH1 0x44 DUP3 ADD MSTORE REVERT JUMPDEST PUSH2 0x22C SWAP1 PUSH1 0x20 RETURNDATASIZE DUP2 GT PUSH2 0x233 JUMPI JUMPDEST PUSH2 0x224 DUP2 DUP4 PUSH2 0x3F6 JUMP JUMPDEST DUP2 ADD SWAP1 PUSH2 0x55D JUMP JUMPDEST POP CODESIZE PUSH2 0x134 JUMP JUMPDEST POP RETURNDATASIZE PUSH2 0x21A JUMP JUMPDEST DUP4 MLOAD RETURNDATASIZE DUP9 DUP3 RETURNDATACOPY RETURNDATASIZE SWAP1 REVERT JUMPDEST POP DUP1 REVERT JUMPDEST DUP3 DUP1 REVERT JUMPDEST DUP4 DUP3 CALLVALUE PUSH2 0x244 JUMPI DUP2 PUSH1 0x3 NOT CALLDATASIZE ADD SLT PUSH2 0x244 JUMPI PUSH1 0x20 SWAP1 PUSH1 0x2 SLOAD SWAP1 MLOAD SWAP1 DUP2 MSTORE RETURN JUMPDEST DUP4 DUP3 CALLVALUE PUSH2 0x244 JUMPI DUP2 PUSH1 0x3 NOT CALLDATASIZE ADD SLT PUSH2 0x244 JUMPI PUSH1 0x20 SWAP1 PUSH1 0x1 SLOAD SWAP1 MLOAD SWAP1 DUP2 MSTORE RETURN JUMPDEST SWAP1 DUP1 SWAP3 POP PUSH1 0x3 NOT CALLDATASIZE ADD SLT PUSH2 0x248 JUMPI PUSH1 0x1 PUSH1 0x1 PUSH1 0xA0 SHL SUB PUSH1 0x24 CALLDATALOAD DUP2 DUP2 AND SWAP1 DUP2 SWAP1 SUB PUSH2 0x3AF JUMPI PUSH1 0x20 SWAP1 PUSH2 0x2B9 PUSH2 0x607 JUMP JUMPDEST PUSH2 0x2C4 CALLVALUE ISZERO ISZERO PUSH2 0x51C JUMP JUMPDEST PUSH1 0x44 PUSH2 0x2E1 PUSH2 0x2D5 PUSH1 0x2 SLOAD CALLVALUE PUSH2 0x57A JUMP JUMPDEST PUSH2 0x150 CALLVALUE PUSH1 0x1 SLOAD PUSH2 0x5A3 JUMP JUMPDEST SWAP5 PUSH2 0x2EF DUP2 CALLDATALOAD DUP8 LT ISZERO PUSH2 0x5D0 JUMP JUMPDEST DUP8 DUP8 MLOAD SWAP6 DUP7 SWAP5 DUP6 SWAP4 PUSH4 0xA9059CBB PUSH1 0xE0 SHL DUP6 MSTORE DUP5 ADD MSTORE DUP8 PUSH1 0x24 DUP5 ADD MSTORE PUSH32 0x0 AND GAS CALL DUP1 ISZERO PUSH2 0x3A2 JUMPI PUSH2 0x384 JUMPI JUMPDEST POP PUSH2 0x342 PUSH2 0x42E JUMP JUMPDEST DUP3 DUP3 MLOAD SWAP3 CALLVALUE DUP5 MSTORE DUP2 PUSH1 0x20 DUP6 ADD MSTORE DUP4 ADD MSTORE PUSH1 0x60 DUP3 ADD MSTORE PUSH32 0x49926BBEBE8474393F434DFA4F78694C0923EFA07D19F2284518BFABD06EB737 PUSH1 0x80 CALLER SWAP3 LOG2 PUSH1 0x1 DUP2 SSTORE DUP1 RETURN JUMPDEST PUSH2 0x39B SWAP1 PUSH1 0x20 RETURNDATASIZE DUP2 GT PUSH2 0x233 JUMPI PUSH2 0x224 DUP2 DUP4 PUSH2 0x3F6 JUMP JUMPDEST POP CODESIZE PUSH2 0x339 JUMP JUMPDEST POP POP POP MLOAD SWAP1 RETURNDATASIZE SWAP1 DUP3 RETURNDATACOPY RETURNDATASIZE SWAP1 REVERT JUMPDEST DUP5 DUP1 REVERT JUMPDEST DUP5 SWAP1 CALLVALUE PUSH2 0x244 JUMPI DUP2 PUSH1 0x3 NOT CALLDATASIZE ADD SLT PUSH2 0x244 JUMPI PUSH32 0x0 PUSH1 0x1 PUSH1 0x1 PUSH1 0xA0 SHL SUB AND DUP2 MSTORE PUSH1 0x20 SWAP1 RETURN JUMPDEST SWAP1 PUSH1 0x1F DUP1 NOT SWAP2 ADD AND DUP2 ADD SWAP1 DUP2 LT PUSH8 0xFFFFFFFFFFFFFFFF DUP3 GT OR PUSH2 0x418 JUMPI PUSH1 0x40 MSTORE JUMP JUMPDEST PUSH4 0x4E487B71 PUSH1 0xE0 SHL PUSH1 0x0 MSTORE PUSH1 0x41 PUSH1 0x4 MSTORE PUSH1 0x24 PUSH1 0x0 REVERT JUMPDEST SELFBALANCE PUSH1 0x1 DUP2 SWAP1 SSTORE PUSH1 0x40 MLOAD PUSH4 0x70A08231 PUSH1 0xE0 SHL DUP2 MSTORE ADDRESS PUSH1 0x4 DUP3 ADD MSTORE PUSH1 0x20 DUP2 PUSH1 0x24 DUP2 PUSH32 0x0 PUSH1 0x1 PUSH1 0x1 PUSH1 0xA0 SHL SUB AND GAS STATICCALL SWAP1 DUP2 ISZERO PUSH2 0x510 JUMPI PUSH1 0x0 SWAP2 PUSH2 0x4BF JUMPI JUMPDEST POP PUSH32 0xCF2AA50876CDFBB541206F89AF0EE78D44A2ABF8D328E37FA4917F982149848A SWAP2 DUP2 PUSH1 0x40 SWAP3 PUSH1 0x2 SSTORE DUP3 MLOAD SWAP2 DUP3 MSTORE PUSH1 0x20 DUP3 ADD MSTORE LOG1 JUMP JUMPDEST SWAP1 PUSH1 0x20 DUP3 RETURNDATASIZE DUP3 GT PUSH2 0x508 JUMPI JUMPDEST DUP2 PUSH2 0x4D8 PUSH1 0x20 SWAP4 DUP4 PUSH2 0x3F6 JUMP JUMPDEST DUP2 ADD SUB SLT PUSH2 0x9A JUMPI POP MLOAD PUSH32 0xCF2AA50876CDFBB541206F89AF0EE78D44A2ABF8D328E37FA4917F982149848A PUSH2 0x488 JUMP JUMPDEST RETURNDATASIZE SWAP2 POP PUSH2 0x4CB JUMP JUMPDEST PUSH1 0x40 MLOAD RETURNDATASIZE PUSH1 0x0 DUP3 RETURNDATACOPY RETURNDATASIZE SWAP1 REVERT JUMPDEST ISZERO PUSH2 0x523 JUMPI JUMP JUMPDEST PUSH1 0x40 MLOAD PUSH3 0x461BCD PUSH1 0xE5 SHL DUP2 MSTORE PUSH1 0x20 PUSH1 0x4 DUP3 ADD MSTORE PUSH1 0x12 PUSH1 0x24 DUP3 ADD MSTORE PUSH18 0x125394D551919250D251539517D253941555 PUSH1 0x72 SHL PUSH1 0x44 DUP3 ADD MSTORE PUSH1 0x64 SWAP1 REVERT JUMPDEST SWAP1 DUP2 PUSH1 0x20 SWAP2 SUB SLT PUSH2 0x575 JUMPI MLOAD DUP1 ISZERO ISZERO DUP2 SUB PUSH2 0x575 JUMPI SWAP1 JUMP JUMPDEST PUSH1 0x0 DUP1 REVERT JUMPDEST DUP2 DUP2 MUL SWAP3 SWAP2 DUP2 ISZERO SWAP2 DUP5 DIV EQ OR ISZERO PUSH2 0x58D JUMPI JUMP JUMPDEST PUSH4 0x4E487B71 PUSH1 0xE0 SHL PUSH1 0x0 MSTORE PUSH1 0x11 PUSH1 0x4 MSTORE PUSH1 0x24 PUSH1 0x0 REVERT JUMPDEST SWAP2 SWAP1 DUP3 ADD DUP1 SWAP3 GT PUSH2 0x58D JUMPI JUMP JUMPDEST DUP2 ISZERO PUSH2 0x5BA JUMPI DIV SWAP1 JUMP JUMPDEST PUSH4 0x4E487B71 PUSH1 0xE0 SHL PUSH1 0x0 MSTORE PUSH1 0x12 PUSH1 0x4 MSTORE PUSH1 0x24 PUSH1 0x0 REVERT JUMPDEST ISZERO PUSH2 0x5D7 JUMPI JUMP JUMPDEST PUSH1 0x40 MLOAD PUSH3 0x461BCD PUSH1 0xE5 SHL DUP2 MSTORE PUSH1 0x20 PUSH1 0x4 DUP3 ADD MSTORE PUSH1 0x8 PUSH1 0x24 DUP3 ADD MSTORE PUSH8 0x534C495050414745 PUSH1 0xC0 SHL PUSH1 0x44 DUP3 ADD MSTORE PUSH1 0x64 SWAP1 REVERT JUMPDEST PUSH1 0x2 PUSH1 0x0 SLOAD EQ PUSH2 0x618 JUMPI PUSH1 0x2 PUSH1 0x0 SSTORE JUMP JUMPDEST PUSH1 0x40 MLOAD PUSH3 0x461BCD PUSH1 0xE5 SHL DUP2 MSTORE PUSH1 0x20 PUSH1 0x4 DUP3 ADD MSTORE PUSH1 0x1F PUSH1 0x24 DUP3 ADD MSTORE PUSH32 0x5265656E7472616E637947756172643A207265656E7472616E742063616C6C00 PUSH1 0x44 DUP3 ADD MSTORE PUSH1 0x64 SWAP1 REVERT INVALID LOG2 PUSH5 0x6970667358 0x22 SLT KECCAK256 0xC ORIGIN 0xBB TIMESTAMP PUSH8 0x99881B04E38A7DD PUSH24 0x26417B08E1E5475689440A0904175EB52E4A64736F6C6343 STOP ADDMOD EQ STOP CALLER "},"methodIdentifiers":{"buyDNR(uint256,uint256,address)":"eef3a69a","buyUSDC(uint256,address)":"8d5fc218","reserveDNR()":"af7c2d88","reserveUSDC()":"c87b502e","sync()":"fff6cae9","usdc()":"3e413bee"}},"storageLayout":{"storage":[{"astId":620,"contract":"contracts/sovereign/NativeSovereignAnchor.sol:NativeSovereignAnchor","label":"_status","offset":0,"slot":"0","type":"t_uint256"},{"astId":7746,"contract":"contracts/sovereign/NativeSovereignAnchor.sol:NativeSovereignAnchor","label":"reserveDNR","offset":0,"slot":"1","type":"t_uint256"},{"astId":7748,"contract":"contracts/sovereign/NativeSovereignAnchor.sol:NativeSovereignAnchor","label":"reserveUSDC","offset":0,"slot":"2","type":"t_uint256"}],"types":{"t_uint256":{"encoding":"inplace","label":"uint256","numberOfBytes":"32"}}}}}}