{"contracts/amm/SimplePair.sol":{"SimplePair":{"abi":[{"inputs":[{"internalType":"address","name":"_t0","type":"address"},{"internalType":"address","name":"_t1","type":"address"}],"stateMutability":"nonpayable","type":"constructor"},{"inputs":[],"name":"reserve0","outputs":[{"internalType":"uint112","name":"","type":"uint112"}],"stateMutability":"view","type":"function"},{"inputs":[],"name":"reserve1","outputs":[{"internalType":"uint112","name":"","type":"uint112"}],"stateMutability":"view","type":"function"},{"inputs":[{"internalType":"uint256","name":"out0","type":"uint256"},{"internalType":"uint256","name":"out1","type":"uint256"},{"internalType":"address","name":"to","type":"address"}],"name":"swap","outputs":[],"stateMutability":"nonpayable","type":"function"},{"inputs":[],"name":"sync","outputs":[],"stateMutability":"nonpayable","type":"function"},{"inputs":[],"name":"token0","outputs":[{"internalType":"address","name":"","type":"address"}],"stateMutability":"view","type":"function"},{"inputs":[],"name":"token1","outputs":[{"internalType":"address","name":"","type":"address"}],"stateMutability":"view","type":"function"}],"evm":{"bytecode":{"linkReferences":{},"object":"60803461008d57601f61055e38819003918201601f19168301916001600160401b0383118484101761009257808492604094855283398101031261008d57610052602061004b836100a8565b92016100a8565b600080546001600160a01b039384166001600160a01b031991821617909155600180549290931691161790556040516104a190816100bd8239f35b600080fd5b634e487b7160e01b600052604160045260246000fd5b51906001600160a01b038216820361008d5756fe6080604081815260048036101561001557600080fd5b600092833560e01c9081630dfe1681146103f257508063443cb4bc146103ca5780635a76f25e1461039f5780636d9a640a146101d3578063d21220a7146101a65763fff6cae91461006557600080fd5b346101a257826003193601126101a257825482516370a0823160e01b80825230848301526001600160a01b03949290916020918290829060249082908a165afa90811561019857908291889161015e575b506001600160701b031694602460025497876001600160701b03198a1617600255600154169486519586938492835230908301525afa92831561015557508592610123575b50506001600160e01b03199092161760709190911b600160701b600160e01b03161760025580f35b90809250813d831161014e575b61013a8183610416565b8101031261014a575138806100fb565b8380fd5b503d610130565b513d87823e3d90fd5b82819392503d8311610191575b6101758183610416565b8101031261018d575181906001600160701b036100b6565b8680fd5b503d61016b565b84513d89823e3d90fd5b8280fd5b5050346101cf57816003193601126101cf5760015490516001600160a01b039091168152602090f35b5080fd5b50346101a25760603660031901126101a2576001600160a01b039160243560443585843586831683036101cf5780610335575b5050816102ae575b5050828454168151806370a0823160e01b92838252308683015281602460209485935afa90811561019857908291889161015e57506001600160701b031694602460025497876001600160701b03198a1617600255600154169486519586938492835230908301525afa928315610155575085926101235750506001600160e01b03199092161760709190911b600160701b600160e01b03161760025580f35b600154835163a9059cbb60e01b81526001600160a01b03909216858301908152602081810194909452919291839187169082908990829060400103925af1801561032b576102fd575b8061020e565b61031d9060203d8111610324575b6103158183610416565b81019061044e565b50386102f7565b503d61030b565b82513d87823e3d90fd5b8154855163a9059cbb60e01b81526001600160a01b038516888201908152602081810194909452909384928a1691839190829060400103925af1801561019857610381575b8690610206565b6103989060203d8111610324576103158183610416565b503861037a565b5050346101cf57816003193601126101cf576020906001600160701b0360025460701c169051908152f35b5050346101cf57816003193601126101cf576020906001600160701b03600254169051908152f35b8490346101cf57816003193601126101cf5790546001600160a01b03168152602090f35b90601f8019910116810190811067ffffffffffffffff82111761043857604052565b634e487b7160e01b600052604160045260246000fd5b90816020910312610466575180151581036104665790565b600080fdfea2646970667358221220704a83b6b76911c12ccbc66beff8217d741018cecfcaaea3617a6e3636051d8364736f6c63430008140033","opcodes":"PUSH1 0x80 CALLVALUE PUSH2 0x8D JUMPI PUSH1 0x1F PUSH2 0x55E CODESIZE DUP2 SWAP1 SUB SWAP2 DUP3 ADD PUSH1 0x1F NOT AND DUP4 ADD SWAP2 PUSH1 0x1 PUSH1 0x1 PUSH1 0x40 SHL SUB DUP4 GT DUP5 DUP5 LT OR PUSH2 0x92 JUMPI DUP1 DUP5 SWAP3 PUSH1 0x40 SWAP5 DUP6 MSTORE DUP4 CODECOPY DUP2 ADD SUB SLT PUSH2 0x8D JUMPI PUSH2 0x52 PUSH1 0x20 PUSH2 0x4B DUP4 PUSH2 0xA8 JUMP JUMPDEST SWAP3 ADD PUSH2 0xA8 JUMP JUMPDEST PUSH1 0x0 DUP1 SLOAD PUSH1 0x1 PUSH1 0x1 PUSH1 0xA0 SHL SUB SWAP4 DUP5 AND PUSH1 0x1 PUSH1 0x1 PUSH1 0xA0 SHL SUB NOT SWAP2 DUP3 AND OR SWAP1 SWAP2 SSTORE PUSH1 0x1 DUP1 SLOAD SWAP3 SWAP1 SWAP4 AND SWAP2 AND OR SWAP1 SSTORE PUSH1 0x40 MLOAD PUSH2 0x4A1 SWAP1 DUP2 PUSH2 0xBD DUP3 CODECOPY RETURN JUMPDEST PUSH1 0x0 DUP1 REVERT JUMPDEST PUSH4 0x4E487B71 PUSH1 0xE0 SHL PUSH1 0x0 MSTORE PUSH1 0x41 PUSH1 0x4 MSTORE PUSH1 0x24 PUSH1 0x0 REVERT JUMPDEST MLOAD SWAP1 PUSH1 0x1 PUSH1 0x1 PUSH1 0xA0 SHL SUB DUP3 AND DUP3 SUB PUSH2 0x8D JUMPI JUMP INVALID PUSH1 0x80 PUSH1 0x40 DUP2 DUP2 MSTORE PUSH1 0x4 DUP1 CALLDATASIZE LT ISZERO PUSH2 0x15 JUMPI PUSH1 0x0 DUP1 REVERT JUMPDEST PUSH1 0x0 SWAP3 DUP4 CALLDATALOAD PUSH1 0xE0 SHR SWAP1 DUP2 PUSH4 0xDFE1681 EQ PUSH2 0x3F2 JUMPI POP DUP1 PUSH4 0x443CB4BC EQ PUSH2 0x3CA JUMPI DUP1 PUSH4 0x5A76F25E EQ PUSH2 0x39F JUMPI DUP1 PUSH4 0x6D9A640A EQ PUSH2 0x1D3 JUMPI DUP1 PUSH4 0xD21220A7 EQ PUSH2 0x1A6 JUMPI PUSH4 0xFFF6CAE9 EQ PUSH2 0x65 JUMPI PUSH1 0x0 DUP1 REVERT JUMPDEST CALLVALUE PUSH2 0x1A2 JUMPI DUP3 PUSH1 0x3 NOT CALLDATASIZE ADD SLT PUSH2 0x1A2 JUMPI DUP3 SLOAD DUP3 MLOAD PUSH4 0x70A08231 PUSH1 0xE0 SHL DUP1 DUP3 MSTORE ADDRESS DUP5 DUP4 ADD MSTORE PUSH1 0x1 PUSH1 0x1 PUSH1 0xA0 SHL SUB SWAP5 SWAP3 SWAP1 SWAP2 PUSH1 0x20 SWAP2 DUP3 SWAP1 DUP3 SWAP1 PUSH1 0x24 SWAP1 DUP3 SWAP1 DUP11 AND GAS STATICCALL SWAP1 DUP2 ISZERO PUSH2 0x198 JUMPI SWAP1 DUP3 SWAP2 DUP9 SWAP2 PUSH2 0x15E JUMPI JUMPDEST POP PUSH1 0x1 PUSH1 0x1 PUSH1 0x70 SHL SUB AND SWAP5 PUSH1 0x24 PUSH1 0x2 SLOAD SWAP8 DUP8 PUSH1 0x1 PUSH1 0x1 PUSH1 0x70 SHL SUB NOT DUP11 AND OR PUSH1 0x2 SSTORE PUSH1 0x1 SLOAD AND SWAP5 DUP7 MLOAD SWAP6 DUP7 SWAP4 DUP5 SWAP3 DUP4 MSTORE ADDRESS SWAP1 DUP4 ADD MSTORE GAS STATICCALL SWAP3 DUP4 ISZERO PUSH2 0x155 JUMPI POP DUP6 SWAP3 PUSH2 0x123 JUMPI JUMPDEST POP POP PUSH1 0x1 PUSH1 0x1 PUSH1 0xE0 SHL SUB NOT SWAP1 SWAP3 AND OR PUSH1 0x70 SWAP2 SWAP1 SWAP2 SHL PUSH1 0x1 PUSH1 0x70 SHL PUSH1 0x1 PUSH1 0xE0 SHL SUB AND OR PUSH1 0x2 SSTORE DUP1 RETURN JUMPDEST SWAP1 DUP1 SWAP3 POP DUP2 RETURNDATASIZE DUP4 GT PUSH2 0x14E JUMPI JUMPDEST PUSH2 0x13A DUP2 DUP4 PUSH2 0x416 JUMP JUMPDEST DUP2 ADD SUB SLT PUSH2 0x14A JUMPI MLOAD CODESIZE DUP1 PUSH2 0xFB JUMP JUMPDEST DUP4 DUP1 REVERT JUMPDEST POP RETURNDATASIZE PUSH2 0x130 JUMP JUMPDEST MLOAD RETURNDATASIZE DUP8 DUP3 RETURNDATACOPY RETURNDATASIZE SWAP1 REVERT JUMPDEST DUP3 DUP2 SWAP4 SWAP3 POP RETURNDATASIZE DUP4 GT PUSH2 0x191 JUMPI JUMPDEST PUSH2 0x175 DUP2 DUP4 PUSH2 0x416 JUMP JUMPDEST DUP2 ADD SUB SLT PUSH2 0x18D JUMPI MLOAD DUP2 SWAP1 PUSH1 0x1 PUSH1 0x1 PUSH1 0x70 SHL SUB PUSH2 0xB6 JUMP JUMPDEST DUP7 DUP1 REVERT JUMPDEST POP RETURNDATASIZE PUSH2 0x16B JUMP JUMPDEST DUP5 MLOAD RETURNDATASIZE DUP10 DUP3 RETURNDATACOPY RETURNDATASIZE SWAP1 REVERT JUMPDEST DUP3 DUP1 REVERT JUMPDEST POP POP CALLVALUE PUSH2 0x1CF JUMPI DUP2 PUSH1 0x3 NOT CALLDATASIZE ADD SLT PUSH2 0x1CF JUMPI PUSH1 0x1 SLOAD SWAP1 MLOAD PUSH1 0x1 PUSH1 0x1 PUSH1 0xA0 SHL SUB SWAP1 SWAP2 AND DUP2 MSTORE PUSH1 0x20 SWAP1 RETURN JUMPDEST POP DUP1 REVERT JUMPDEST POP CALLVALUE PUSH2 0x1A2 JUMPI PUSH1 0x60 CALLDATASIZE PUSH1 0x3 NOT ADD SLT PUSH2 0x1A2 JUMPI PUSH1 0x1 PUSH1 0x1 PUSH1 0xA0 SHL SUB SWAP2 PUSH1 0x24 CALLDATALOAD PUSH1 0x44 CALLDATALOAD DUP6 DUP5 CALLDATALOAD DUP7 DUP4 AND DUP4 SUB PUSH2 0x1CF JUMPI DUP1 PUSH2 0x335 JUMPI JUMPDEST POP POP DUP2 PUSH2 0x2AE JUMPI JUMPDEST POP POP DUP3 DUP5 SLOAD AND DUP2 MLOAD DUP1 PUSH4 0x70A08231 PUSH1 0xE0 SHL SWAP3 DUP4 DUP3 MSTORE ADDRESS DUP7 DUP4 ADD MSTORE DUP2 PUSH1 0x24 PUSH1 0x20 SWAP5 DUP6 SWAP4 GAS STATICCALL SWAP1 DUP2 ISZERO PUSH2 0x198 JUMPI SWAP1 DUP3 SWAP2 DUP9 SWAP2 PUSH2 0x15E JUMPI POP PUSH1 0x1 PUSH1 0x1 PUSH1 0x70 SHL SUB AND SWAP5 PUSH1 0x24 PUSH1 0x2 SLOAD SWAP8 DUP8 PUSH1 0x1 PUSH1 0x1 PUSH1 0x70 SHL SUB NOT DUP11 AND OR PUSH1 0x2 SSTORE PUSH1 0x1 SLOAD AND SWAP5 DUP7 MLOAD SWAP6 DUP7 SWAP4 DUP5 SWAP3 DUP4 MSTORE ADDRESS SWAP1 DUP4 ADD MSTORE GAS STATICCALL SWAP3 DUP4 ISZERO PUSH2 0x155 JUMPI POP DUP6 SWAP3 PUSH2 0x123 JUMPI POP POP PUSH1 0x1 PUSH1 0x1 PUSH1 0xE0 SHL SUB NOT SWAP1 SWAP3 AND OR PUSH1 0x70 SWAP2 SWAP1 SWAP2 SHL PUSH1 0x1 PUSH1 0x70 SHL PUSH1 0x1 PUSH1 0xE0 SHL SUB AND OR PUSH1 0x2 SSTORE DUP1 RETURN JUMPDEST PUSH1 0x1 SLOAD DUP4 MLOAD PUSH4 0xA9059CBB PUSH1 0xE0 SHL DUP2 MSTORE PUSH1 0x1 PUSH1 0x1 PUSH1 0xA0 SHL SUB SWAP1 SWAP3 AND DUP6 DUP4 ADD SWAP1 DUP2 MSTORE PUSH1 0x20 DUP2 DUP2 ADD SWAP5 SWAP1 SWAP5 MSTORE SWAP2 SWAP3 SWAP2 DUP4 SWAP2 DUP8 AND SWAP1 DUP3 SWAP1 DUP10 SWAP1 DUP3 SWAP1 PUSH1 0x40 ADD SUB SWAP3 GAS CALL DUP1 ISZERO PUSH2 0x32B JUMPI PUSH2 0x2FD JUMPI JUMPDEST DUP1 PUSH2 0x20E JUMP JUMPDEST PUSH2 0x31D SWAP1 PUSH1 0x20 RETURNDATASIZE DUP2 GT PUSH2 0x324 JUMPI JUMPDEST PUSH2 0x315 DUP2 DUP4 PUSH2 0x416 JUMP JUMPDEST DUP2 ADD SWAP1 PUSH2 0x44E JUMP JUMPDEST POP CODESIZE PUSH2 0x2F7 JUMP JUMPDEST POP RETURNDATASIZE PUSH2 0x30B JUMP JUMPDEST DUP3 MLOAD RETURNDATASIZE DUP8 DUP3 RETURNDATACOPY RETURNDATASIZE SWAP1 REVERT JUMPDEST DUP2 SLOAD DUP6 MLOAD PUSH4 0xA9059CBB PUSH1 0xE0 SHL DUP2 MSTORE PUSH1 0x1 PUSH1 0x1 PUSH1 0xA0 SHL SUB DUP6 AND DUP9 DUP3 ADD SWAP1 DUP2 MSTORE PUSH1 0x20 DUP2 DUP2 ADD SWAP5 SWAP1 SWAP5 MSTORE SWAP1 SWAP4 DUP5 SWAP3 DUP11 AND SWAP2 DUP4 SWAP2 SWAP1 DUP3 SWAP1 PUSH1 0x40 ADD SUB SWAP3 GAS CALL DUP1 ISZERO PUSH2 0x198 JUMPI PUSH2 0x381 JUMPI JUMPDEST DUP7 SWAP1 PUSH2 0x206 JUMP JUMPDEST PUSH2 0x398 SWAP1 PUSH1 0x20 RETURNDATASIZE DUP2 GT PUSH2 0x324 JUMPI PUSH2 0x315 DUP2 DUP4 PUSH2 0x416 JUMP JUMPDEST POP CODESIZE PUSH2 0x37A JUMP JUMPDEST POP POP CALLVALUE PUSH2 0x1CF JUMPI DUP2 PUSH1 0x3 NOT CALLDATASIZE ADD SLT PUSH2 0x1CF JUMPI PUSH1 0x20 SWAP1 PUSH1 0x1 PUSH1 0x1 PUSH1 0x70 SHL SUB PUSH1 0x2 SLOAD PUSH1 0x70 SHR AND SWAP1 MLOAD SWAP1 DUP2 MSTORE RETURN JUMPDEST POP POP CALLVALUE PUSH2 0x1CF JUMPI DUP2 PUSH1 0x3 NOT CALLDATASIZE ADD SLT PUSH2 0x1CF JUMPI PUSH1 0x20 SWAP1 PUSH1 0x1 PUSH1 0x1 PUSH1 0x70 SHL SUB PUSH1 0x2 SLOAD AND SWAP1 MLOAD SWAP1 DUP2 MSTORE RETURN JUMPDEST DUP5 SWAP1 CALLVALUE PUSH2 0x1CF JUMPI DUP2 PUSH1 0x3 NOT CALLDATASIZE ADD SLT PUSH2 0x1CF JUMPI SWAP1 SLOAD PUSH1 0x1 PUSH1 0x1 PUSH1 0xA0 SHL SUB AND DUP2 MSTORE PUSH1 0x20 SWAP1 RETURN JUMPDEST SWAP1 PUSH1 0x1F DUP1 NOT SWAP2 ADD AND DUP2 ADD SWAP1 DUP2 LT PUSH8 0xFFFFFFFFFFFFFFFF DUP3 GT OR PUSH2 0x438 JUMPI PUSH1 0x40 MSTORE JUMP JUMPDEST PUSH4 0x4E487B71 PUSH1 0xE0 SHL PUSH1 0x0 MSTORE PUSH1 0x41 PUSH1 0x4 MSTORE PUSH1 0x24 PUSH1 0x0 REVERT JUMPDEST SWAP1 DUP2 PUSH1 0x20 SWAP2 SUB SLT PUSH2 0x466 JUMPI MLOAD DUP1 ISZERO ISZERO DUP2 SUB PUSH2 0x466 JUMPI SWAP1 JUMP JUMPDEST PUSH1 0x0 DUP1 REVERT INVALID LOG2 PUSH5 0x6970667358 0x22 SLT KECCAK256 PUSH17 0x4A83B6B76911C12CCBC66BEFF8217D7410 XOR 0xCE 0xCF 0xCA 0xAE LOG3 PUSH2 0x7A6E CALLDATASIZE CALLDATASIZE SDIV SAR DUP4 PUSH5 0x736F6C6343 STOP ADDMOD EQ STOP CALLER "},"methodIdentifiers":{"reserve0()":"443cb4bc","reserve1()":"5a76f25e","swap(uint256,uint256,address)":"6d9a640a","sync()":"fff6cae9","token0()":"0dfe1681","token1()":"d21220a7"}},"storageLayout":{"storage":[{"astId":5837,"contract":"contracts/amm/SimplePair.sol:SimplePair","label":"token0","offset":0,"slot":"0","type":"t_address"},{"astId":5839,"contract":"contracts/amm/SimplePair.sol:SimplePair","label":"token1","offset":0,"slot":"1","type":"t_address"},{"astId":5841,"contract":"contracts/amm/SimplePair.sol:SimplePair","label":"reserve0","offset":0,"slot":"2","type":"t_uint112"},{"astId":5843,"contract":"contracts/amm/SimplePair.sol:SimplePair","label":"reserve1","offset":14,"slot":"2","type":"t_uint112"}],"types":{"t_address":{"encoding":"inplace","label":"address","numberOfBytes":"20"},"t_uint112":{"encoding":"inplace","label":"uint112","numberOfBytes":"14"}}}}}}