{"contracts/sovereign/SovereignHyperSwap.sol":{"SovereignHyperSwap":{"abi":[{"inputs":[{"internalType":"address","name":"_udnr","type":"address"},{"internalType":"address","name":"_usdc","type":"address"}],"stateMutability":"nonpayable","type":"constructor"},{"inputs":[{"internalType":"uint256","name":"amountUSDC","type":"uint256"}],"name":"buyDNR","outputs":[],"stateMutability":"nonpayable","type":"function"},{"inputs":[{"internalType":"uint256","name":"amountDNR","type":"uint256"}],"name":"buyUSDC","outputs":[],"stateMutability":"nonpayable","type":"function"},{"inputs":[],"name":"rate","outputs":[{"internalType":"uint256","name":"","type":"uint256"}],"stateMutability":"view","type":"function"},{"inputs":[],"name":"udnr","outputs":[{"internalType":"address","name":"","type":"address"}],"stateMutability":"view","type":"function"},{"inputs":[],"name":"usdc","outputs":[{"internalType":"address","name":"","type":"address"}],"stateMutability":"view","type":"function"}],"evm":{"bytecode":{"linkReferences":{},"object":"60c03461009b57601f6104d238819003918201601f19168301916001600160401b038311848410176100a057808492604094855283398101031261009b57610052602061004b836100b6565b92016100b6565b9061017e60005560805260a05260405161040790816100cb823960805181818160aa015281816101d001526102bd015260a0518181816101120152818161024d01526103330152f35b600080fd5b634e487b7160e01b600052604160045260246000fd5b51906001600160a01b038216820361009b5756fe60806040908082526004918236101561001757600080fd5b600091823560e01c9081632c4e722e14610362575080633e413bee1461031f5780634d91cd47146101ff578063e0314865146101bc5763fc60273c1461005c57600080fd5b346101b857602090816003193601126101b45780516323b872dd60e01b8152338582019081523060208201528535604082018190526001600160a01b039290918590829081900360600181897f000000000000000000000000000000000000000000000000000000000000000088165af180156101aa5761018d575b50845490811561017a57835163a9059cbb60e01b8152338189019081529290910460208301529291849184919082908890829060400103927f0000000000000000000000000000000000000000000000000000000000000000165af19081156101715750610144578280f35b8161016392903d1061016a575b61015b818361037c565b8101906103b4565b5081808280f35b503d610151565b513d85823e3d90fd5b634e487b7160e01b865260128752602486fd5b6101a390853d871161016a5761015b818361037c565b50386100d8565b84513d88823e3d90fd5b8280fd5b5080fd5b50346101b857816003193601126101b857517f00000000000000000000000000000000000000000000000000000000000000006001600160a01b03168152602090f35b50346101b857602090816003193601126101b45780516323b872dd60e01b815233858201908152306020820152853560408201819052916001600160a01b03918590829081900360600181897f000000000000000000000000000000000000000000000000000000000000000087165af180156101aa57610302575b508454918281029281840414901517156102ef57825163a9059cbb60e01b815233818801908152602081019390935292918491849182908890829060400103927f0000000000000000000000000000000000000000000000000000000000000000165af19081156101715750610144578280f35b634e487b7160e01b855260118652602485fd5b61031890853d871161016a5761015b818361037c565b503861027b565b50346101b857816003193601126101b857517f00000000000000000000000000000000000000000000000000000000000000006001600160a01b03168152602090f35b8390346101b857816003193601126101b857602091548152f35b90601f8019910116810190811067ffffffffffffffff82111761039e57604052565b634e487b7160e01b600052604160045260246000fd5b908160209103126103cc575180151581036103cc5790565b600080fdfea26469706673582212202fb33b11ff75bee10119b7dc44cbf4d05809b9aa2dee952a779c354e720a868864736f6c63430008140033","opcodes":"PUSH1 0xC0 CALLVALUE PUSH2 0x9B JUMPI PUSH1 0x1F PUSH2 0x4D2 CODESIZE DUP2 SWAP1 SUB SWAP2 DUP3 ADD PUSH1 0x1F NOT AND DUP4 ADD SWAP2 PUSH1 0x1 PUSH1 0x1 PUSH1 0x40 SHL SUB DUP4 GT DUP5 DUP5 LT OR PUSH2 0xA0 JUMPI DUP1 DUP5 SWAP3 PUSH1 0x40 SWAP5 DUP6 MSTORE DUP4 CODECOPY DUP2 ADD SUB SLT PUSH2 0x9B JUMPI PUSH2 0x52 PUSH1 0x20 PUSH2 0x4B DUP4 PUSH2 0xB6 JUMP JUMPDEST SWAP3 ADD PUSH2 0xB6 JUMP JUMPDEST SWAP1 PUSH2 0x17E PUSH1 0x0 SSTORE PUSH1 0x80 MSTORE PUSH1 0xA0 MSTORE PUSH1 0x40 MLOAD PUSH2 0x407 SWAP1 DUP2 PUSH2 0xCB DUP3 CODECOPY PUSH1 0x80 MLOAD DUP2 DUP2 DUP2 PUSH1 0xAA ADD MSTORE DUP2 DUP2 PUSH2 0x1D0 ADD MSTORE PUSH2 0x2BD ADD MSTORE PUSH1 0xA0 MLOAD DUP2 DUP2 DUP2 PUSH2 0x112 ADD MSTORE DUP2 DUP2 PUSH2 0x24D ADD MSTORE PUSH2 0x333 ADD MSTORE RETURN JUMPDEST PUSH1 0x0 DUP1 REVERT JUMPDEST PUSH4 0x4E487B71 PUSH1 0xE0 SHL PUSH1 0x0 MSTORE PUSH1 0x41 PUSH1 0x4 MSTORE PUSH1 0x24 PUSH1 0x0 REVERT JUMPDEST MLOAD SWAP1 PUSH1 0x1 PUSH1 0x1 PUSH1 0xA0 SHL SUB DUP3 AND DUP3 SUB PUSH2 0x9B JUMPI JUMP INVALID PUSH1 0x80 PUSH1 0x40 SWAP1 DUP1 DUP3 MSTORE PUSH1 0x4 SWAP2 DUP3 CALLDATASIZE LT ISZERO PUSH2 0x17 JUMPI PUSH1 0x0 DUP1 REVERT JUMPDEST PUSH1 0x0 SWAP2 DUP3 CALLDATALOAD PUSH1 0xE0 SHR SWAP1 DUP2 PUSH4 0x2C4E722E EQ PUSH2 0x362 JUMPI POP DUP1 PUSH4 0x3E413BEE EQ PUSH2 0x31F JUMPI DUP1 PUSH4 0x4D91CD47 EQ PUSH2 0x1FF JUMPI DUP1 PUSH4 0xE0314865 EQ PUSH2 0x1BC JUMPI PUSH4 0xFC60273C EQ PUSH2 0x5C JUMPI PUSH1 0x0 DUP1 REVERT JUMPDEST CALLVALUE PUSH2 0x1B8 JUMPI PUSH1 0x20 SWAP1 DUP2 PUSH1 0x3 NOT CALLDATASIZE ADD SLT PUSH2 0x1B4 JUMPI DUP1 MLOAD PUSH4 0x23B872DD PUSH1 0xE0 SHL DUP2 MSTORE CALLER DUP6 DUP3 ADD SWAP1 DUP2 MSTORE ADDRESS PUSH1 0x20 DUP3 ADD MSTORE DUP6 CALLDATALOAD PUSH1 0x40 DUP3 ADD DUP2 SWAP1 MSTORE PUSH1 0x1 PUSH1 0x1 PUSH1 0xA0 SHL SUB SWAP3 SWAP1 SWAP2 DUP6 SWAP1 DUP3 SWAP1 DUP2 SWAP1 SUB PUSH1 0x60 ADD DUP2 DUP10 PUSH32 0x0 DUP9 AND GAS CALL DUP1 ISZERO PUSH2 0x1AA JUMPI PUSH2 0x18D JUMPI JUMPDEST POP DUP5 SLOAD SWAP1 DUP2 ISZERO PUSH2 0x17A JUMPI DUP4 MLOAD PUSH4 0xA9059CBB PUSH1 0xE0 SHL DUP2 MSTORE CALLER DUP2 DUP10 ADD SWAP1 DUP2 MSTORE SWAP3 SWAP1 SWAP2 DIV PUSH1 0x20 DUP4 ADD MSTORE SWAP3 SWAP2 DUP5 SWAP2 DUP5 SWAP2 SWAP1 DUP3 SWAP1 DUP9 SWAP1 DUP3 SWAP1 PUSH1 0x40 ADD SUB SWAP3 PUSH32 0x0 AND GAS CALL SWAP1 DUP2 ISZERO PUSH2 0x171 JUMPI POP PUSH2 0x144 JUMPI DUP3 DUP1 RETURN JUMPDEST DUP2 PUSH2 0x163 SWAP3 SWAP1 RETURNDATASIZE LT PUSH2 0x16A JUMPI JUMPDEST PUSH2 0x15B DUP2 DUP4 PUSH2 0x37C JUMP JUMPDEST DUP2 ADD SWAP1 PUSH2 0x3B4 JUMP JUMPDEST POP DUP2 DUP1 DUP3 DUP1 RETURN JUMPDEST POP RETURNDATASIZE PUSH2 0x151 JUMP JUMPDEST MLOAD RETURNDATASIZE DUP6 DUP3 RETURNDATACOPY RETURNDATASIZE SWAP1 REVERT JUMPDEST PUSH4 0x4E487B71 PUSH1 0xE0 SHL DUP7 MSTORE PUSH1 0x12 DUP8 MSTORE PUSH1 0x24 DUP7 REVERT JUMPDEST PUSH2 0x1A3 SWAP1 DUP6 RETURNDATASIZE DUP8 GT PUSH2 0x16A JUMPI PUSH2 0x15B DUP2 DUP4 PUSH2 0x37C JUMP JUMPDEST POP CODESIZE PUSH2 0xD8 JUMP JUMPDEST DUP5 MLOAD RETURNDATASIZE DUP9 DUP3 RETURNDATACOPY RETURNDATASIZE SWAP1 REVERT JUMPDEST DUP3 DUP1 REVERT JUMPDEST POP DUP1 REVERT JUMPDEST POP CALLVALUE PUSH2 0x1B8 JUMPI DUP2 PUSH1 0x3 NOT CALLDATASIZE ADD SLT PUSH2 0x1B8 JUMPI MLOAD PUSH32 0x0 PUSH1 0x1 PUSH1 0x1 PUSH1 0xA0 SHL SUB AND DUP2 MSTORE PUSH1 0x20 SWAP1 RETURN JUMPDEST POP CALLVALUE PUSH2 0x1B8 JUMPI PUSH1 0x20 SWAP1 DUP2 PUSH1 0x3 NOT CALLDATASIZE ADD SLT PUSH2 0x1B4 JUMPI DUP1 MLOAD PUSH4 0x23B872DD PUSH1 0xE0 SHL DUP2 MSTORE CALLER DUP6 DUP3 ADD SWAP1 DUP2 MSTORE ADDRESS PUSH1 0x20 DUP3 ADD MSTORE DUP6 CALLDATALOAD PUSH1 0x40 DUP3 ADD DUP2 SWAP1 MSTORE SWAP2 PUSH1 0x1 PUSH1 0x1 PUSH1 0xA0 SHL SUB SWAP2 DUP6 SWAP1 DUP3 SWAP1 DUP2 SWAP1 SUB PUSH1 0x60 ADD DUP2 DUP10 PUSH32 0x0 DUP8 AND GAS CALL DUP1 ISZERO PUSH2 0x1AA JUMPI PUSH2 0x302 JUMPI JUMPDEST POP DUP5 SLOAD SWAP2 DUP3 DUP2 MUL SWAP3 DUP2 DUP5 DIV EQ SWAP1 ISZERO OR ISZERO PUSH2 0x2EF JUMPI DUP3 MLOAD PUSH4 0xA9059CBB PUSH1 0xE0 SHL DUP2 MSTORE CALLER DUP2 DUP9 ADD SWAP1 DUP2 MSTORE PUSH1 0x20 DUP2 ADD SWAP4 SWAP1 SWAP4 MSTORE SWAP3 SWAP2 DUP5 SWAP2 DUP5 SWAP2 DUP3 SWAP1 DUP9 SWAP1 DUP3 SWAP1 PUSH1 0x40 ADD SUB SWAP3 PUSH32 0x0 AND GAS CALL SWAP1 DUP2 ISZERO PUSH2 0x171 JUMPI POP PUSH2 0x144 JUMPI DUP3 DUP1 RETURN JUMPDEST PUSH4 0x4E487B71 PUSH1 0xE0 SHL DUP6 MSTORE PUSH1 0x11 DUP7 MSTORE PUSH1 0x24 DUP6 REVERT JUMPDEST PUSH2 0x318 SWAP1 DUP6 RETURNDATASIZE DUP8 GT PUSH2 0x16A JUMPI PUSH2 0x15B DUP2 DUP4 PUSH2 0x37C JUMP JUMPDEST POP CODESIZE PUSH2 0x27B JUMP JUMPDEST POP CALLVALUE PUSH2 0x1B8 JUMPI DUP2 PUSH1 0x3 NOT CALLDATASIZE ADD SLT PUSH2 0x1B8 JUMPI MLOAD PUSH32 0x0 PUSH1 0x1 PUSH1 0x1 PUSH1 0xA0 SHL SUB AND DUP2 MSTORE PUSH1 0x20 SWAP1 RETURN JUMPDEST DUP4 SWAP1 CALLVALUE PUSH2 0x1B8 JUMPI DUP2 PUSH1 0x3 NOT CALLDATASIZE ADD SLT PUSH2 0x1B8 JUMPI PUSH1 0x20 SWAP2 SLOAD DUP2 MSTORE RETURN JUMPDEST SWAP1 PUSH1 0x1F DUP1 NOT SWAP2 ADD AND DUP2 ADD SWAP1 DUP2 LT PUSH8 0xFFFFFFFFFFFFFFFF DUP3 GT OR PUSH2 0x39E JUMPI PUSH1 0x40 MSTORE JUMP JUMPDEST PUSH4 0x4E487B71 PUSH1 0xE0 SHL PUSH1 0x0 MSTORE PUSH1 0x41 PUSH1 0x4 MSTORE PUSH1 0x24 PUSH1 0x0 REVERT JUMPDEST SWAP1 DUP2 PUSH1 0x20 SWAP2 SUB SLT PUSH2 0x3CC JUMPI MLOAD DUP1 ISZERO ISZERO DUP2 SUB PUSH2 0x3CC JUMPI SWAP1 JUMP JUMPDEST PUSH1 0x0 DUP1 REVERT INVALID LOG2 PUSH5 0x6970667358 0x22 SLT KECCAK256 0x2F 0xB3 EXTCODESIZE GT SELFDESTRUCT PUSH22 0xBEE10119B7DC44CBF4D05809B9AA2DEE952A779C354E PUSH19 0xA868864736F6C634300081400330000000000 "},"methodIdentifiers":{"buyDNR(uint256)":"4d91cd47","buyUSDC(uint256)":"fc60273c","rate()":"2c4e722e","udnr()":"e0314865","usdc()":"3e413bee"}},"storageLayout":{"storage":[{"astId":8194,"contract":"contracts/sovereign/SovereignHyperSwap.sol:SovereignHyperSwap","label":"rate","offset":0,"slot":"0","type":"t_uint256"}],"types":{"t_uint256":{"encoding":"inplace","label":"uint256","numberOfBytes":"32"}}}}}}