{
  "_format": "hh-sol-artifact-1",
  "contractName": "KortanaStabilizer",
  "sourceName": "contracts/stablecoin/KortanaStabilizer.sol",
  "abi": [
    {
      "inputs": [
        {
          "internalType": "address",
          "name": "_kortusd",
          "type": "address"
        },
        {
          "internalType": "address",
          "name": "_oracle",
          "type": "address"
        },
        {
          "internalType": "address",
          "name": "_collateralToken",
          "type": "address"
        },
        {
          "internalType": "address",
          "name": "_treasury",
          "type": "address"
        }
      ],
      "stateMutability": "nonpayable",
      "type": "constructor"
    },
    {
      "anonymous": false,
      "inputs": [
        {
          "indexed": true,
          "internalType": "address",
          "name": "user",
          "type": "address"
        },
        {
          "indexed": false,
          "internalType": "uint256",
          "name": "kortusdIn",
          "type": "uint256"
        },
        {
          "indexed": false,
          "internalType": "uint256",
          "name": "collateralOut",
          "type": "uint256"
        }
      ],
      "name": "Burned",
      "type": "event"
    },
    {
      "anonymous": false,
      "inputs": [
        {
          "indexed": false,
          "internalType": "uint256",
          "name": "oldRatio",
          "type": "uint256"
        },
        {
          "indexed": false,
          "internalType": "uint256",
          "name": "newRatio",
          "type": "uint256"
        }
      ],
      "name": "CollateralRatioUpdated",
      "type": "event"
    },
    {
      "anonymous": false,
      "inputs": [
        {
          "indexed": true,
          "internalType": "address",
          "name": "user",
          "type": "address"
        },
        {
          "indexed": false,
          "internalType": "uint256",
          "name": "collateralIn",
          "type": "uint256"
        },
        {
          "indexed": false,
          "internalType": "uint256",
          "name": "kortusdOut",
          "type": "uint256"
        },
        {
          "indexed": false,
          "internalType": "uint256",
          "name": "fee",
          "type": "uint256"
        }
      ],
      "name": "Minted",
      "type": "event"
    },
    {
      "anonymous": false,
      "inputs": [
        {
          "indexed": true,
          "internalType": "address",
          "name": "previousOwner",
          "type": "address"
        },
        {
          "indexed": true,
          "internalType": "address",
          "name": "newOwner",
          "type": "address"
        }
      ],
      "name": "OwnershipTransferred",
      "type": "event"
    },
    {
      "anonymous": false,
      "inputs": [
        {
          "indexed": false,
          "internalType": "uint256",
          "name": "currentPrice",
          "type": "uint256"
        },
        {
          "indexed": false,
          "internalType": "uint256",
          "name": "pegTarget",
          "type": "uint256"
        }
      ],
      "name": "PegCheckFailed",
      "type": "event"
    },
    {
      "inputs": [],
      "name": "DEPEG_THRESHOLD",
      "outputs": [
        {
          "internalType": "uint256",
          "name": "",
          "type": "uint256"
        }
      ],
      "stateMutability": "view",
      "type": "function"
    },
    {
      "inputs": [],
      "name": "MAX_COLLATERAL_RATIO",
      "outputs": [
        {
          "internalType": "uint256",
          "name": "",
          "type": "uint256"
        }
      ],
      "stateMutability": "view",
      "type": "function"
    },
    {
      "inputs": [],
      "name": "MAX_STABILITY_FEE",
      "outputs": [
        {
          "internalType": "uint256",
          "name": "",
          "type": "uint256"
        }
      ],
      "stateMutability": "view",
      "type": "function"
    },
    {
      "inputs": [],
      "name": "MIN_COLLATERAL_RATIO",
      "outputs": [
        {
          "internalType": "uint256",
          "name": "",
          "type": "uint256"
        }
      ],
      "stateMutability": "view",
      "type": "function"
    },
    {
      "inputs": [
        {
          "internalType": "uint256",
          "name": "kortusdAmount",
          "type": "uint256"
        },
        {
          "internalType": "uint256",
          "name": "minCollateralOut",
          "type": "uint256"
        }
      ],
      "name": "burn",
      "outputs": [],
      "stateMutability": "nonpayable",
      "type": "function"
    },
    {
      "inputs": [],
      "name": "collateralRatio",
      "outputs": [
        {
          "internalType": "uint256",
          "name": "",
          "type": "uint256"
        }
      ],
      "stateMutability": "view",
      "type": "function"
    },
    {
      "inputs": [],
      "name": "collateralToken",
      "outputs": [
        {
          "internalType": "address",
          "name": "",
          "type": "address"
        }
      ],
      "stateMutability": "view",
      "type": "function"
    },
    {
      "inputs": [],
      "name": "collateralizationRate",
      "outputs": [
        {
          "internalType": "uint256",
          "name": "",
          "type": "uint256"
        }
      ],
      "stateMutability": "view",
      "type": "function"
    },
    {
      "inputs": [],
      "name": "kortusd",
      "outputs": [
        {
          "internalType": "contract KORTUSD",
          "name": "",
          "type": "address"
        }
      ],
      "stateMutability": "view",
      "type": "function"
    },
    {
      "inputs": [
        {
          "internalType": "uint256",
          "name": "collateralAmount",
          "type": "uint256"
        },
        {
          "internalType": "uint256",
          "name": "minKortusdOut",
          "type": "uint256"
        }
      ],
      "name": "mint",
      "outputs": [],
      "stateMutability": "nonpayable",
      "type": "function"
    },
    {
      "inputs": [],
      "name": "mintedSupply",
      "outputs": [
        {
          "internalType": "uint256",
          "name": "",
          "type": "uint256"
        }
      ],
      "stateMutability": "view",
      "type": "function"
    },
    {
      "inputs": [],
      "name": "oracle",
      "outputs": [
        {
          "internalType": "contract KortanaOracle",
          "name": "",
          "type": "address"
        }
      ],
      "stateMutability": "view",
      "type": "function"
    },
    {
      "inputs": [],
      "name": "owner",
      "outputs": [
        {
          "internalType": "address",
          "name": "",
          "type": "address"
        }
      ],
      "stateMutability": "view",
      "type": "function"
    },
    {
      "inputs": [],
      "name": "renounceOwnership",
      "outputs": [],
      "stateMutability": "nonpayable",
      "type": "function"
    },
    {
      "inputs": [
        {
          "internalType": "uint256",
          "name": "newRatio",
          "type": "uint256"
        }
      ],
      "name": "setCollateralRatio",
      "outputs": [],
      "stateMutability": "nonpayable",
      "type": "function"
    },
    {
      "inputs": [
        {
          "internalType": "address",
          "name": "newOracle",
          "type": "address"
        }
      ],
      "name": "setOracle",
      "outputs": [],
      "stateMutability": "nonpayable",
      "type": "function"
    },
    {
      "inputs": [
        {
          "internalType": "uint256",
          "name": "newFee",
          "type": "uint256"
        }
      ],
      "name": "setStabilityFee",
      "outputs": [],
      "stateMutability": "nonpayable",
      "type": "function"
    },
    {
      "inputs": [],
      "name": "stabilityFee",
      "outputs": [
        {
          "internalType": "uint256",
          "name": "",
          "type": "uint256"
        }
      ],
      "stateMutability": "view",
      "type": "function"
    },
    {
      "inputs": [],
      "name": "totalCollateral",
      "outputs": [
        {
          "internalType": "uint256",
          "name": "",
          "type": "uint256"
        }
      ],
      "stateMutability": "view",
      "type": "function"
    },
    {
      "inputs": [
        {
          "internalType": "address",
          "name": "newOwner",
          "type": "address"
        }
      ],
      "name": "transferOwnership",
      "outputs": [],
      "stateMutability": "nonpayable",
      "type": "function"
    },
    {
      "inputs": [],
      "name": "treasury",
      "outputs": [
        {
          "internalType": "address",
          "name": "",
          "type": "address"
        }
      ],
      "stateMutability": "view",
      "type": "function"
    }
  ],
  "bytecode": "0x60a03461011657601f6110ee38819003918201601f19168301916001600160401b0383118484101761011b578084926080946040528339810103126101165761004781610131565b9061005460208201610131565b61006c606061006560408501610131565b9301610131565b6000549360018060a01b03199333858716176000556040519560018060a01b03948580948193823391167f8be0079c531659141344cd1fd0a4f28419497f9722a3daafe3b4186f6b6457e0600080a360018055611f40600455603260055516608052168560025416176002551683600354161760035516906008541617600855610fa890816101468239608051818181610364015281816106610152818161098f0152610b410152f35b600080fd5b634e487b7160e01b600052604160045260246000fd5b51906001600160a01b03821682036101165756fe6040608081526004908136101561001557600080fd5b600091823560e01c80631b2ef1ca146108275780632921e8bb146107e4578063361416e1146108085780634ac8eb5f146107e95780634e6657bc146107e45780636060663e1461073357806361d027b31461070a578063705d6b35146106ed578063715018a614610690578063722bb3741461064c5780637a9fffb71461062f5780637adbf973146105e65780637dc0d1d0146105bd5780638da5cb5b14610595578063b2016bd41461056c578063b390c0ab146102b4578063b4eae1cb14610297578063bb4cfe3b14610273578063c1bd8cf914610250578063f2fde38b1461017c5763fb4ca35b1461010857600080fd5b3461017857602036600319011261017857803591610124610cee565b6101f4831161013557505060055580f35b906020606492519162461bcd60e51b8352820152601860248201527f53544142494c495a45523a204645455f544f4f5f4849474800000000000000006044820152fd5b8280fd5b509034610178576020366003190112610178576001600160a01b0382358181169391929084900361024c576101af610cee565b83156101fa575050600054826bffffffffffffffffffffffff60a01b821617600055167f8be0079c531659141344cd1fd0a4f28419497f9722a3daafe3b4186f6b6457e0600080a380f35b906020608492519162461bcd60e51b8352820152602660248201527f4f776e61626c653a206e6577206f776e657220697320746865207a65726f206160448201526564647265737360d01b6064820152fd5b8480fd5b50503461026f578160031936011261026f576020906007549051908152f35b5080fd5b50503461026f578160031936011261026f57602090610290610eaf565b9051908152f35b503461017857826003193601126101785760209250549051908152f35b509034610178576102c436610cbb565b6102cf929192610e59565b6002548251633dda0eef60e21b81526001600160a01b039560209290919083908290849082908b165afa908115610562578891610530575b50610313825487610d92565b670de0b6b3a76400009081810291818304149015171561051d576127109182810292818404149015171561051d576103579161034e91610dbb565b93841015610de8565b60065483116104d05786867f000000000000000000000000000000000000000000000000000000000000000016803b1561026f57855163079cc67960e41b815233848201908152602081018990529091839183919082908490829060400103925af180156104c6576104ae575b5050828291610429976103d983600654610ddb565b60065560075488808211156104a6576103f191610ddb565b600755600354875163a9059cbb60e01b815233938101938452602084019490945292988993919091169183918b918391604090910190565b03925af194851561049c577f23ff0e75edf108e3d0392d92e13e8c8a868ef19001bd49f9e94876dc46dff87f949561046f575b5082519485528401523392a26001805580f35b61048e90823d8411610495575b6104868183610d70565b810190610e34565b503861045c565b503d61047c565b83513d88823e3d90fd5b5050896103f1565b6104b790610d46565b6104c25786386103c4565b8680fd5b86513d84823e3d90fd5b60849184519162461bcd60e51b8352820152602360248201527f53544142494c495a45523a20494e53554646494349454e545f434f4c4c41544560448201526214905360ea1b6064820152fd5b634e487b7160e01b895260118352602489fd5b90508281813d831161055b575b6105478183610d70565b81010312610556575138610307565b600080fd5b503d61053d565b85513d8a823e3d90fd5b50503461026f578160031936011261026f5760035490516001600160a01b039091168152602090f35b50503461026f578160031936011261026f57905490516001600160a01b039091168152602090f35b50503461026f578160031936011261026f5760025490516001600160a01b039091168152602090f35b83823461026f57602036600319011261026f57356001600160a01b0381169081900361026f57610614610cee565b6bffffffffffffffffffffffff60a01b600254161760025580f35b50503461026f578160031936011261026f57602090516113888152f35b50503461026f578160031936011261026f57517f00000000000000000000000000000000000000000000000000000000000000006001600160a01b03168152602090f35b83346106ea57806003193601126106ea576106a9610cee565b600080546001600160a01b0319811682556001600160a01b03167f8be0079c531659141344cd1fd0a4f28419497f9722a3daafe3b4186f6b6457e08280a380f35b80fd5b50503461026f578160031936011261026f57602090516127108152f35b50503461026f578160031936011261026f5760085490516001600160a01b039091168152602090f35b503461017857602036600319011261017857803591610750610cee565b611388831015806107d8575b15610795577fea851fc89ebccda62380b76fc8e8317f0bcd4d75ea908cf501bd2ebc6ac1c8f29082548151908152846020820152a15580f35b906020606492519162461bcd60e51b8352820152601f60248201527f53544142494c495a45523a20524154494f5f4f55545f4f465f424f554e4453006044820152fd5b5061271083111561075c565b610cd1565b50503461026f578160031936011261026f576020906006549051908152f35b50503461026f578160031936011261026f576020906005549051908152f35b50346101785761083636610cbb565b610841939193610e59565b600254825163b0a9a88f60e01b8152936020916001600160a01b0390839087908490829085165afa958615610562578896610c88575b50670de0b6b3a76400009586811015610c5657808703878111610af757612710808202918204148289141715610af757876101f491045b11610b39575081838260025416875192838092633dda0eef60e21b82525afa8015610aed578990610b0a575b6108e5915088610d92565b956127109687810290808204891490151715610af757835480830292830403610af7576109186109369261092d92610dbb565b976109256005548a610d92565b048098610ddb565b94851015610de8565b8783826003541660648851809481936323b872dd60e01b835233898401523060248401528d60448401525af18015610aed57610ad0575b5061097a87600654610e4c565b60065561098984600754610e4c565b600755807f000000000000000000000000000000000000000000000000000000000000000016803b15610acc5785516340c10f1960e01b8082523385830190815260208101889052909391908b9082908190604001038183875af18015610ac257610aa9575b50908993929188610a38575b505050505082519485528401528201527f5a3358a3d27a5373c0df2604662088d37894d56b7cfd27f315770440f4e0d91960603392a26001805580f35b6008541690803b1561024c5787519283526001600160a01b039091169282019283526020830188905290918391839182908490829060400103925af18015610a9f57610a87575b8080806109fb565b610a9090610d46565b610a9b578538610a7f565b8580fd5b85513d84823e3d90fd5b610ab8909a919493929a610d46565b98909192386109ef565b88513d8d823e3d90fd5b8880fd5b610ae690843d8611610495576104868183610d70565b503861096d565b86513d8b823e3d90fd5b634e487b7160e01b8a526011845260248afd5b508381813d8311610b32575b610b208183610d70565b81010312610acc576108e590516108da565b503d610b16565b9290868987927f000000000000000000000000000000000000000000000000000000000000000016803b1561026f5781809160648651809581936361b242c560e01b83528a8c840152601860248401527f44455045475f5448524553484f4c445f4558434545444544000000000000000060448401525af1908115610c4b5750957ff4a065484010f1a4ee580a29351eda12b1eb37da0388dc3d6b969a680db12acc928492608498610c3c575b50825191825285820152a15162461bcd60e51b815291820152602560248201527f53544142494c495a45523a20434952435549545f425245414b45525f5452494760448201526411d154915160da1b6064820152fd5b610c4590610d46565b88610be6565b8451903d90823e3d90fd5b670de0b6b3a763ffff198101818111610af75761271090818102918183041490151715610af757876101f491046108ae565b9095508281813d8311610cb4575b610ca08183610d70565b81010312610cb057519438610877565b8780fd5b503d610c96565b6040906003190112610556576004359060243590565b346105565760003660031901126105565760206040516101f48152f35b6000546001600160a01b03163303610d0257565b606460405162461bcd60e51b815260206004820152602060248201527f4f776e61626c653a2063616c6c6572206973206e6f7420746865206f776e65726044820152fd5b67ffffffffffffffff8111610d5a57604052565b634e487b7160e01b600052604160045260246000fd5b90601f8019910116810190811067ffffffffffffffff821117610d5a57604052565b81810292918115918404141715610da557565b634e487b7160e01b600052601160045260246000fd5b8115610dc5570490565b634e487b7160e01b600052601260045260246000fd5b91908203918211610da557565b15610def57565b60405162461bcd60e51b815260206004820152601d60248201527f53544142494c495a45523a20534c4950504147455f544f4f5f484947480000006044820152606490fd5b90816020910312610556575180151581036105565790565b91908201809211610da557565b600260015414610e6a576002600155565b60405162461bcd60e51b815260206004820152601f60248201527f5265656e7472616e637947756172643a207265656e7472616e742063616c6c006044820152606490fd5b6007548015610f6b57600654600254604051633dda0eef60e21b815290602090829060049082906001600160a01b03165afa908115610f5f57600091610f26575b50610f0490670de0b6b3a764000092610d92565b049061271091828102928184041490151715610da557610f2391610dbb565b90565b906020823d8211610f57575b81610f3f60209383610d70565b810103126106ea575051670de0b6b3a7640000610ef0565b3d9150610f32565b6040513d6000823e3d90fd5b506127109056fea264697066735822122080fafdd250657594240ea9c62e3d89134180da4f431e00e23c17f8de03aba3eb64736f6c63430008140033",
  "linkReferences": {},
  "deployedLinkReferences": {}
}