{
  "_format": "hh-sol-artifact-1",
  "contractName": "KortanaFarm",
  "sourceName": "contracts/farming/KortanaFarm.sol",
  "abi": [
    {
      "inputs": [
        {
          "internalType": "address",
          "name": "_lpToken",
          "type": "address"
        },
        {
          "internalType": "address",
          "name": "_rewardToken",
          "type": "address"
        },
        {
          "internalType": "uint256",
          "name": "_rewardPerBlock",
          "type": "uint256"
        }
      ],
      "stateMutability": "nonpayable",
      "type": "constructor"
    },
    {
      "anonymous": false,
      "inputs": [
        {
          "indexed": true,
          "internalType": "address",
          "name": "user",
          "type": "address"
        },
        {
          "indexed": false,
          "internalType": "uint256",
          "name": "reward",
          "type": "uint256"
        }
      ],
      "name": "Claim",
      "type": "event"
    },
    {
      "anonymous": false,
      "inputs": [
        {
          "indexed": true,
          "internalType": "address",
          "name": "user",
          "type": "address"
        },
        {
          "indexed": false,
          "internalType": "uint256",
          "name": "amount",
          "type": "uint256"
        }
      ],
      "name": "Deposit",
      "type": "event"
    },
    {
      "anonymous": false,
      "inputs": [
        {
          "indexed": true,
          "internalType": "address",
          "name": "previousOwner",
          "type": "address"
        },
        {
          "indexed": true,
          "internalType": "address",
          "name": "newOwner",
          "type": "address"
        }
      ],
      "name": "OwnershipTransferred",
      "type": "event"
    },
    {
      "anonymous": false,
      "inputs": [
        {
          "indexed": false,
          "internalType": "uint256",
          "name": "newRate",
          "type": "uint256"
        }
      ],
      "name": "RewardRateUpdated",
      "type": "event"
    },
    {
      "anonymous": false,
      "inputs": [
        {
          "indexed": true,
          "internalType": "address",
          "name": "user",
          "type": "address"
        },
        {
          "indexed": false,
          "internalType": "uint256",
          "name": "amount",
          "type": "uint256"
        }
      ],
      "name": "Withdraw",
      "type": "event"
    },
    {
      "inputs": [],
      "name": "accRewardPerShare",
      "outputs": [
        {
          "internalType": "uint256",
          "name": "",
          "type": "uint256"
        }
      ],
      "stateMutability": "view",
      "type": "function"
    },
    {
      "inputs": [
        {
          "internalType": "uint256",
          "name": "amount",
          "type": "uint256"
        }
      ],
      "name": "deposit",
      "outputs": [],
      "stateMutability": "nonpayable",
      "type": "function"
    },
    {
      "inputs": [],
      "name": "lastRewardBlock",
      "outputs": [
        {
          "internalType": "uint256",
          "name": "",
          "type": "uint256"
        }
      ],
      "stateMutability": "view",
      "type": "function"
    },
    {
      "inputs": [],
      "name": "lpToken",
      "outputs": [
        {
          "internalType": "contract IERC20",
          "name": "",
          "type": "address"
        }
      ],
      "stateMutability": "view",
      "type": "function"
    },
    {
      "inputs": [],
      "name": "owner",
      "outputs": [
        {
          "internalType": "address",
          "name": "",
          "type": "address"
        }
      ],
      "stateMutability": "view",
      "type": "function"
    },
    {
      "inputs": [
        {
          "internalType": "address",
          "name": "_user",
          "type": "address"
        }
      ],
      "name": "pendingReward",
      "outputs": [
        {
          "internalType": "uint256",
          "name": "",
          "type": "uint256"
        }
      ],
      "stateMutability": "view",
      "type": "function"
    },
    {
      "inputs": [],
      "name": "renounceOwnership",
      "outputs": [],
      "stateMutability": "nonpayable",
      "type": "function"
    },
    {
      "inputs": [],
      "name": "rewardPerBlock",
      "outputs": [
        {
          "internalType": "uint256",
          "name": "",
          "type": "uint256"
        }
      ],
      "stateMutability": "view",
      "type": "function"
    },
    {
      "inputs": [],
      "name": "rewardToken",
      "outputs": [
        {
          "internalType": "contract IERC20",
          "name": "",
          "type": "address"
        }
      ],
      "stateMutability": "view",
      "type": "function"
    },
    {
      "inputs": [
        {
          "internalType": "uint256",
          "name": "_rewardPerBlock",
          "type": "uint256"
        }
      ],
      "name": "setRewardPerBlock",
      "outputs": [],
      "stateMutability": "nonpayable",
      "type": "function"
    },
    {
      "inputs": [],
      "name": "totalStaked",
      "outputs": [
        {
          "internalType": "uint256",
          "name": "",
          "type": "uint256"
        }
      ],
      "stateMutability": "view",
      "type": "function"
    },
    {
      "inputs": [
        {
          "internalType": "address",
          "name": "newOwner",
          "type": "address"
        }
      ],
      "name": "transferOwnership",
      "outputs": [],
      "stateMutability": "nonpayable",
      "type": "function"
    },
    {
      "inputs": [],
      "name": "updatePool",
      "outputs": [],
      "stateMutability": "nonpayable",
      "type": "function"
    },
    {
      "inputs": [
        {
          "internalType": "address",
          "name": "",
          "type": "address"
        }
      ],
      "name": "userInfo",
      "outputs": [
        {
          "internalType": "uint256",
          "name": "amount",
          "type": "uint256"
        },
        {
          "internalType": "uint256",
          "name": "rewardDebt",
          "type": "uint256"
        }
      ],
      "stateMutability": "view",
      "type": "function"
    },
    {
      "inputs": [
        {
          "internalType": "uint256",
          "name": "amount",
          "type": "uint256"
        }
      ],
      "name": "withdraw",
      "outputs": [],
      "stateMutability": "nonpayable",
      "type": "function"
    }
  ],
  "bytecode": "0x60c0346100ed57601f610ce738819003918201601f19168301916001600160401b038311848410176100f2578084926060946040528339810103126100ed5761004781610108565b604061005560208401610108565b92015160008054336001600160a01b03198216811783556040519593946001600160a01b03949385939192918416907f8be0079c531659141344cd1fd0a4f28419497f9722a3daafe3b4186f6b6457e09080a360018055166080521660a05260025543600355610bca908161011d8239608051818181610402015281816106430152610769015260a05181818160dd0152610a9a0152f35b600080fd5b634e487b7160e01b600052604160045260246000fd5b51906001600160a01b03821682036100ed5756fe608060408181526004918236101561001657600080fd5b600092833560e01c9182631959a00214610876575081632e1a7d4d146106725781635fcbd2851461062e578163715018a6146105d4578163817b1cd2146105b55781638ae39cac146105965781638da5cb5b1461056e578163939d623714610550578163a9f8d18114610531578163b6b55f251461034e578163bb872b4a146102f8578163e3161ddd146102dc578163f2fde38b1461020d578163f40f0f5214610110575063f7c618c1146100ca57600080fd5b3461010c578160031936011261010c57517f00000000000000000000000000000000000000000000000000000000000000006001600160a01b03168152602090f35b5080fd5b82843461020a57602036600319011261020a5782356001600160a01b0381169081900361010c578152600660205281812090835490600354804311806101ff575b610184575b60208561017d866001670de0b6b3a7640000610173898454610934565b0491015490610911565b9051908152f35b61019161019a9143610911565b60025490610934565b90670de0b6b3a7640000918281029281840414901517156101ec575060209450670de0b6b3a76400006101736101e361017d95946101dd60019560055490610947565b90610967565b93945050610156565b634e487b7160e01b815260118652602490fd5b506005541515610151565b80fd5b919050346102d85760203660031901126102d8576001600160a01b038235818116939192908490036102d4576102416108b9565b831561028257505082546001600160a01b0319811683178455167f8be0079c531659141344cd1fd0a4f28419497f9722a3daafe3b4186f6b6457e08380a380f35b906020608492519162461bcd60e51b8352820152602660248201527f4f776e61626c653a206e6577206f776e657220697320746865207a65726f206160448201526564647265737360d01b6064820152fd5b8480fd5b8280fd5b833461020a578060031936011261020a576102f5610974565b80f35b9050346102d85760203660031901126102d8577f41d466ebd06fb97e7786086ac8b69b7eb7da798592036251291d34e9791cde0191602091359061033a6108b9565b610342610974565b8160025551908152a180f35b919050346102d85760208060031936011261052d5782359161036e610a2c565b33855260068252808520610380610974565b8054806104c9575b50836103dc575b6001670de0b6b3a76400006103ca7fe1fffcc4923d04b559f4d29a8bfc6cda04eb5b0d3c460751c2402c5c5cc9109c96978454905490610934565b04910155519283523392a26001805580f35b81516323b872dd60e01b815233868201523060248201526044810185905283816064818a7f00000000000000000000000000000000000000000000000000000000000000006001600160a01b03165af180156104bf576103ca7fe1fffcc4923d04b559f4d29a8bfc6cda04eb5b0d3c460751c2402c5c5cc9109c9697600193670de0b6b3a764000093610492575b50610476898654610967565b855561048489600554610967565b60055597965050505061038f565b6104b190883d8a116104b8575b6104a981836109d7565b810190610a0f565b503861046a565b503d61049f565b83513d89823e3d90fd5b670de0b6b3a76400006104e16104ed92885490610934565b04600183015490610911565b8015610388576104fd8133610a82565b82519081527f47cee97cb7acd717b3c0aa1435d004cd5b3c8c57d70dbceb4e4458bbd60e39d4843392a238610388565b8380fd5b50503461010c578160031936011261010c576020906003549051908152f35b9050346102d857826003193601126102d85760209250549051908152f35b50503461010c578160031936011261010c57905490516001600160a01b039091168152602090f35b50503461010c578160031936011261010c576020906002549051908152f35b50503461010c578160031936011261010c576020906005549051908152f35b833461020a578060031936011261020a576105ed6108b9565b80546001600160a01b03198116825581906001600160a01b03167f8be0079c531659141344cd1fd0a4f28419497f9722a3daafe3b4186f6b6457e08280a380f35b50503461010c578160031936011261010c57517f00000000000000000000000000000000000000000000000000000000000000006001600160a01b03168152602090f35b919050346102d85760208060031936011261052d57823591610692610a2c565b3385526006825280852083815410610833576106ac610974565b6106c58154670de0b6b3a7640000918291885490610934565b04916106d76001820193845490610911565b806107f9575b5085610725575b7f884edad9ce6fa2440d8a54cc123490eb96d2768479d49ff9c7366125a942436495966107149154905490610934565b049055519283523392a26001805580f35b610730868254610911565b815561073e86600554610911565b600555835163a9059cbb60e01b8152338882019081526020810188905286908290819060400103818c7f00000000000000000000000000000000000000000000000000000000000000006001600160a01b03165af180156107ef57917f884edad9ce6fa2440d8a54cc123490eb96d2768479d49ff9c7366125a9424364979891610714936107d2575b5091509695506106e4565b6107e890883d8a116104b8576104a981836109d7565b50386107c7565b85513d8b823e3d90fd5b6108038133610a82565b84519081527f47cee97cb7acd717b3c0aa1435d004cd5b3c8c57d70dbceb4e4458bbd60e39d4863392a2386106dd565b815162461bcd60e51b8152808601849052601a60248201527f4641524d3a20494e53554646494349454e545f42414c414e43450000000000006044820152606490fd5b8484923461010c57602036600319011261010c57356001600160a01b0381169081900361010c579083918152600660205220600181549101549082526020820152f35b6000546001600160a01b031633036108cd57565b606460405162461bcd60e51b815260206004820152602060248201527f4f776e61626c653a2063616c6c6572206973206e6f7420746865206f776e65726044820152fd5b9190820391821161091e57565b634e487b7160e01b600052601160045260246000fd5b8181029291811591840414171561091e57565b8115610951570490565b634e487b7160e01b600052601260045260246000fd5b9190820180921161091e57565b6003544311156109d55760055480156109ce5761099661019160035443610911565b670de0b6b3a76400009081810291818304149015171561091e576109c5916109bd91610947565b600454610967565b60045543600355565b5043600355565b565b90601f8019910116810190811067ffffffffffffffff8211176109f957604052565b634e487b7160e01b600052604160045260246000fd5b90816020910312610a2757518015158103610a275790565b600080fd5b600260015414610a3d576002600155565b60405162461bcd60e51b815260206004820152601f60248201527f5265656e7472616e637947756172643a207265656e7472616e742063616c6c006044820152606490fd5b6040516370a0823160e01b81523060048201526020927f00000000000000000000000000000000000000000000000000000000000000006001600160a01b031692918481602481875afa908115610b5357600091610b67575b50808211610b5f575b5080610af1575b50505050565b60405163a9059cbb60e01b81526001600160a01b039290921660048301526024820152908290829060449082906000905af18015610b5357610b35575b8080610aeb565b81610b4b92903d106104b8576104a981836109d7565b503880610b2e565b6040513d6000823e3d90fd5b905038610ae4565b908582813d8311610b8d575b610b7d81836109d7565b8101031261020a57505138610adb565b503d610b7356fea264697066735822122085ba8d00537b2e5370c12af149efdcd2f5cc435f35a4ace53ec479973a48328c64736f6c63430008140033",
  "linkReferences": {},
  "deployedLinkReferences": {}
}