{
  "_format": "hh-sol-artifact-1",
  "contractName": "NativeSovereignAnchor",
  "sourceName": "contracts/sovereign/NativeSovereignAnchor.sol",
  "abi": [
    {
      "inputs": [
        {
          "internalType": "address",
          "name": "_usdc",
          "type": "address"
        }
      ],
      "stateMutability": "nonpayable",
      "type": "constructor"
    },
    {
      "anonymous": false,
      "inputs": [
        {
          "indexed": true,
          "internalType": "address",
          "name": "sender",
          "type": "address"
        },
        {
          "indexed": false,
          "internalType": "uint256",
          "name": "dnrIn",
          "type": "uint256"
        },
        {
          "indexed": false,
          "internalType": "uint256",
          "name": "usdcIn",
          "type": "uint256"
        },
        {
          "indexed": false,
          "internalType": "uint256",
          "name": "dnrOut",
          "type": "uint256"
        },
        {
          "indexed": false,
          "internalType": "uint256",
          "name": "usdcOut",
          "type": "uint256"
        }
      ],
      "name": "Swap",
      "type": "event"
    },
    {
      "anonymous": false,
      "inputs": [
        {
          "indexed": false,
          "internalType": "uint256",
          "name": "reserveDNR",
          "type": "uint256"
        },
        {
          "indexed": false,
          "internalType": "uint256",
          "name": "reserveUSDC",
          "type": "uint256"
        }
      ],
      "name": "Sync",
      "type": "event"
    },
    {
      "inputs": [
        {
          "internalType": "uint256",
          "name": "usdcAmountIn",
          "type": "uint256"
        },
        {
          "internalType": "uint256",
          "name": "minDnrOut",
          "type": "uint256"
        },
        {
          "internalType": "address",
          "name": "to",
          "type": "address"
        }
      ],
      "name": "buyDNR",
      "outputs": [],
      "stateMutability": "nonpayable",
      "type": "function"
    },
    {
      "inputs": [
        {
          "internalType": "uint256",
          "name": "minUsdcOut",
          "type": "uint256"
        },
        {
          "internalType": "address",
          "name": "to",
          "type": "address"
        }
      ],
      "name": "buyUSDC",
      "outputs": [],
      "stateMutability": "payable",
      "type": "function"
    },
    {
      "inputs": [],
      "name": "reserveDNR",
      "outputs": [
        {
          "internalType": "uint256",
          "name": "",
          "type": "uint256"
        }
      ],
      "stateMutability": "view",
      "type": "function"
    },
    {
      "inputs": [],
      "name": "reserveUSDC",
      "outputs": [
        {
          "internalType": "uint256",
          "name": "",
          "type": "uint256"
        }
      ],
      "stateMutability": "view",
      "type": "function"
    },
    {
      "inputs": [],
      "name": "sync",
      "outputs": [],
      "stateMutability": "nonpayable",
      "type": "function"
    },
    {
      "inputs": [],
      "name": "usdc",
      "outputs": [
        {
          "internalType": "address",
          "name": "",
          "type": "address"
        }
      ],
      "stateMutability": "view",
      "type": "function"
    },
    {
      "stateMutability": "payable",
      "type": "receive"
    }
  ],
  "bytecode": "0x60a03461008457601f61073338819003918201601f19168301916001600160401b038311848410176100895780849260209460405283398101031261008457516001600160a01b038116810361008457600160005560805260405161069390816100a082396080518181816101070152818161030c015281816103c7015261044f0152f35b600080fd5b634e487b7160e01b600052604160045260246000fdfe60806040908082526004918236101561002b575b505050361561002157600080fd5b61002961042e565b005b600092833560e01c9283633e413bee146103b3575082638d5fc2181461028a578263af7c2d881461026b578263c87b502e1461024c578263eef3a69a1461009d57505063fff6cae91461007f578080610013565b3461009a578060031936011261009a5761009761042e565b80f35b80fd5b90915034610248576060366003190112610248578035916001600160a01b03604435818116918691839003610244576020906100d7610607565b6100e287151561051c565b60648551809481936323b872dd60e01b8352338a8401523060248401528a60448401527f0000000000000000000000000000000000000000000000000000000000000000165af1801561023a5761020c575b506101566101446001548661057a565b610150866002546105a3565b906105b0565b926101656024358510156105d0565b478410156101dd57508480808581948282156101d4575bf1156101cb5761018a61042e565b80519284845260208401528201528160608201527f49926bbebe8474393f434dfa4f78694c0923efa07d19f2284518bfabd06eb73760803392a26001815580f35b513d84823e3d90fd5b506108fc61017c565b606490602084519162461bcd60e51b835282015260096024820152684c495155494449545960b81b6044820152fd5b61022c9060203d8111610233575b61022481836103f6565b81019061055d565b5038610134565b503d61021a565b83513d88823e3d90fd5b5080fd5b8280fd5b8382346102445781600319360112610244576020906002549051908152f35b8382346102445781600319360112610244576020906001549051908152f35b90809250600319360112610248576001600160a01b03602435818116908190036103af576020906102b9610607565b6102c434151561051c565b60446102e16102d56002543461057a565b610150346001546105a3565b946102ef81358710156105d0565b878751958694859363a9059cbb60e01b85528401528760248401527f0000000000000000000000000000000000000000000000000000000000000000165af180156103a257610384575b5061034261042e565b8282519234845281602085015283015260608201527f49926bbebe8474393f434dfa4f78694c0923efa07d19f2284518bfabd06eb73760803392a26001815580f35b61039b9060203d81116102335761022481836103f6565b5038610339565b50505051903d90823e3d90fd5b8480fd5b8490346102445781600319360112610244577f00000000000000000000000000000000000000000000000000000000000000006001600160a01b03168152602090f35b90601f8019910116810190811067ffffffffffffffff82111761041857604052565b634e487b7160e01b600052604160045260246000fd5b4760018190556040516370a0823160e01b81523060048201526020816024817f00000000000000000000000000000000000000000000000000000000000000006001600160a01b03165afa908115610510576000916104bf575b507fcf2aa50876cdfbb541206f89af0ee78d44a2abf8d328e37fa4917f982149848a918160409260025582519182526020820152a1565b906020823d8211610508575b816104d8602093836103f6565b8101031261009a5750517fcf2aa50876cdfbb541206f89af0ee78d44a2abf8d328e37fa4917f982149848a610488565b3d91506104cb565b6040513d6000823e3d90fd5b1561052357565b60405162461bcd60e51b8152602060048201526012602482015271125394d551919250d251539517d25394155560721b6044820152606490fd5b90816020910312610575575180151581036105755790565b600080fd5b8181029291811591840414171561058d57565b634e487b7160e01b600052601160045260246000fd5b9190820180921161058d57565b81156105ba570490565b634e487b7160e01b600052601260045260246000fd5b156105d757565b60405162461bcd60e51b8152602060048201526008602482015267534c49505041474560c01b6044820152606490fd5b600260005414610618576002600055565b60405162461bcd60e51b815260206004820152601f60248201527f5265656e7472616e637947756172643a207265656e7472616e742063616c6c006044820152606490fdfea26469706673582212200c32bb4267099881b04e38a7dd7726417b08e1e5475689440a0904175eb52e4a64736f6c63430008140033",
  "linkReferences": {},
  "deployedLinkReferences": {}
}