{
  "_format": "hh-sol-artifact-1",
  "contractName": "KortanaBridgeSource",
  "sourceName": "contracts/bridge/KortanaBridgeSource.sol",
  "abi": [
    {
      "inputs": [],
      "stateMutability": "nonpayable",
      "type": "constructor"
    },
    {
      "anonymous": false,
      "inputs": [
        {
          "indexed": true,
          "internalType": "address",
          "name": "previousOwner",
          "type": "address"
        },
        {
          "indexed": true,
          "internalType": "address",
          "name": "newOwner",
          "type": "address"
        }
      ],
      "name": "OwnershipTransferred",
      "type": "event"
    },
    {
      "anonymous": false,
      "inputs": [
        {
          "indexed": false,
          "internalType": "address",
          "name": "account",
          "type": "address"
        }
      ],
      "name": "Paused",
      "type": "event"
    },
    {
      "anonymous": false,
      "inputs": [
        {
          "indexed": true,
          "internalType": "address",
          "name": "token",
          "type": "address"
        },
        {
          "indexed": true,
          "internalType": "address",
          "name": "sender",
          "type": "address"
        },
        {
          "indexed": false,
          "internalType": "uint256",
          "name": "amount",
          "type": "uint256"
        },
        {
          "indexed": false,
          "internalType": "uint256",
          "name": "destChainId",
          "type": "uint256"
        },
        {
          "indexed": false,
          "internalType": "address",
          "name": "destAddress",
          "type": "address"
        },
        {
          "indexed": false,
          "internalType": "uint256",
          "name": "nonce",
          "type": "uint256"
        },
        {
          "indexed": false,
          "internalType": "bytes32",
          "name": "txId",
          "type": "bytes32"
        }
      ],
      "name": "TokensLocked",
      "type": "event"
    },
    {
      "anonymous": false,
      "inputs": [
        {
          "indexed": true,
          "internalType": "address",
          "name": "token",
          "type": "address"
        },
        {
          "indexed": true,
          "internalType": "address",
          "name": "recipient",
          "type": "address"
        },
        {
          "indexed": false,
          "internalType": "uint256",
          "name": "amount",
          "type": "uint256"
        },
        {
          "indexed": false,
          "internalType": "bytes32",
          "name": "sourceTxId",
          "type": "bytes32"
        }
      ],
      "name": "TokensReleased",
      "type": "event"
    },
    {
      "anonymous": false,
      "inputs": [
        {
          "indexed": false,
          "internalType": "address",
          "name": "account",
          "type": "address"
        }
      ],
      "name": "Unpaused",
      "type": "event"
    },
    {
      "inputs": [
        {
          "internalType": "address",
          "name": "relayer",
          "type": "address"
        }
      ],
      "name": "addRelayer",
      "outputs": [],
      "stateMutability": "nonpayable",
      "type": "function"
    },
    {
      "inputs": [
        {
          "internalType": "address",
          "name": "token",
          "type": "address"
        }
      ],
      "name": "addSupportedToken",
      "outputs": [],
      "stateMutability": "nonpayable",
      "type": "function"
    },
    {
      "inputs": [],
      "name": "bridgeFee",
      "outputs": [
        {
          "internalType": "uint256",
          "name": "",
          "type": "uint256"
        }
      ],
      "stateMutability": "view",
      "type": "function"
    },
    {
      "inputs": [
        {
          "internalType": "address",
          "name": "token",
          "type": "address"
        },
        {
          "internalType": "uint256",
          "name": "amount",
          "type": "uint256"
        },
        {
          "internalType": "uint256",
          "name": "destChainId",
          "type": "uint256"
        },
        {
          "internalType": "address",
          "name": "destAddress",
          "type": "address"
        }
      ],
      "name": "lockTokens",
      "outputs": [],
      "stateMutability": "payable",
      "type": "function"
    },
    {
      "inputs": [],
      "name": "nonce",
      "outputs": [
        {
          "internalType": "uint256",
          "name": "",
          "type": "uint256"
        }
      ],
      "stateMutability": "view",
      "type": "function"
    },
    {
      "inputs": [],
      "name": "owner",
      "outputs": [
        {
          "internalType": "address",
          "name": "",
          "type": "address"
        }
      ],
      "stateMutability": "view",
      "type": "function"
    },
    {
      "inputs": [],
      "name": "pause",
      "outputs": [],
      "stateMutability": "nonpayable",
      "type": "function"
    },
    {
      "inputs": [],
      "name": "paused",
      "outputs": [
        {
          "internalType": "bool",
          "name": "",
          "type": "bool"
        }
      ],
      "stateMutability": "view",
      "type": "function"
    },
    {
      "inputs": [
        {
          "internalType": "bytes32",
          "name": "",
          "type": "bytes32"
        }
      ],
      "name": "processedTxIds",
      "outputs": [
        {
          "internalType": "bool",
          "name": "",
          "type": "bool"
        }
      ],
      "stateMutability": "view",
      "type": "function"
    },
    {
      "inputs": [
        {
          "internalType": "address",
          "name": "",
          "type": "address"
        }
      ],
      "name": "relayers",
      "outputs": [
        {
          "internalType": "bool",
          "name": "",
          "type": "bool"
        }
      ],
      "stateMutability": "view",
      "type": "function"
    },
    {
      "inputs": [
        {
          "internalType": "address",
          "name": "token",
          "type": "address"
        },
        {
          "internalType": "address",
          "name": "recipient",
          "type": "address"
        },
        {
          "internalType": "uint256",
          "name": "amount",
          "type": "uint256"
        },
        {
          "internalType": "bytes32",
          "name": "sourceTxId",
          "type": "bytes32"
        }
      ],
      "name": "releaseTokens",
      "outputs": [],
      "stateMutability": "nonpayable",
      "type": "function"
    },
    {
      "inputs": [
        {
          "internalType": "address",
          "name": "relayer",
          "type": "address"
        }
      ],
      "name": "removeRelayer",
      "outputs": [],
      "stateMutability": "nonpayable",
      "type": "function"
    },
    {
      "inputs": [
        {
          "internalType": "address",
          "name": "token",
          "type": "address"
        }
      ],
      "name": "removeSupportedToken",
      "outputs": [],
      "stateMutability": "nonpayable",
      "type": "function"
    },
    {
      "inputs": [],
      "name": "renounceOwnership",
      "outputs": [],
      "stateMutability": "nonpayable",
      "type": "function"
    },
    {
      "inputs": [
        {
          "internalType": "uint256",
          "name": "fee",
          "type": "uint256"
        }
      ],
      "name": "setBridgeFee",
      "outputs": [],
      "stateMutability": "nonpayable",
      "type": "function"
    },
    {
      "inputs": [
        {
          "internalType": "address",
          "name": "",
          "type": "address"
        }
      ],
      "name": "supportedTokens",
      "outputs": [
        {
          "internalType": "bool",
          "name": "",
          "type": "bool"
        }
      ],
      "stateMutability": "view",
      "type": "function"
    },
    {
      "inputs": [
        {
          "internalType": "address",
          "name": "newOwner",
          "type": "address"
        }
      ],
      "name": "transferOwnership",
      "outputs": [],
      "stateMutability": "nonpayable",
      "type": "function"
    },
    {
      "inputs": [],
      "name": "unpause",
      "outputs": [],
      "stateMutability": "nonpayable",
      "type": "function"
    },
    {
      "inputs": [],
      "name": "withdrawFees",
      "outputs": [],
      "stateMutability": "nonpayable",
      "type": "function"
    }
  ],
  "bytecode": "0x608080604052346100745760008054336001600160a01b0319821681178355916001600160a01b03909116907f8be0079c531659141344cd1fd0a4f28419497f9722a3daafe3b4186f6b6457e09080a36001805560ff196002541660025566038d7ea4c68000600755610bfe908161007a8239f35b600080fdfe6040608081526004908136101561001557600080fd5b600091823560e01c80630aa393f3146107f7578063176fbebe146105b05780633f4ba83a1461051b5780634379caa5146104f0578063476343ee146104a15780635300f841146104635780635c975abb1461043f57806360f0a5ac146103ff57806368c4ac26146103c15780636d69fcaf1461037e578063715018a61461032157806376319190146102e157806382b12dd7146102c25780638456cb59146102675780638da5cb5b1461023f578063998cdf831461021d578063affed0e0146101fe578063dd39f00d146101b75763f2fde38b146100f257600080fd5b346101b35760203660031901126101b35761010b610a6b565b90610114610a86565b6001600160a01b0391821692831561016157505082546001600160a01b0319811683178455167f8be0079c531659141344cd1fd0a4f28419497f9722a3daafe3b4186f6b6457e08380a380f35b906020608492519162461bcd60e51b8352820152602660248201527f4f776e61626c653a206e6577206f776e657220697320746865207a65726f206160448201526564647265737360d01b6064820152fd5b8280fd5b5050346101fa5760203660031901126101fa576101d2610a6b565b6101da610a86565b6001600160a01b0316825260056020528120805460ff1916600117905580f35b5080fd5b5050346101fa57816003193601126101fa576020906006549051908152f35b8382346101fa5760203660031901126101fa57610238610a86565b3560075580f35b5050346101fa57816003193601126101fa57905490516001600160a01b039091168152602090f35b5050346101fa57816003193601126101fa5760207f62e78cea01bee320cd4e420270b5ea74000d11b0c9f74754ebdbfc544b05a258916102a5610a86565b6102ad610b2e565b600160ff19600254161760025551338152a180f35b5050346101fa57816003193601126101fa576020906007549051908152f35b5050346101fa5760203660031901126101fa576102fc610a6b565b610304610a86565b6001600160a01b0316825260036020528120805460ff1916905580f35b833461037b578060031936011261037b5761033a610a86565b80546001600160a01b03198116825581906001600160a01b03167f8be0079c531659141344cd1fd0a4f28419497f9722a3daafe3b4186f6b6457e08280a380f35b80fd5b5050346101fa5760203660031901126101fa57610399610a6b565b6103a1610a86565b6001600160a01b0316825260036020528120805460ff1916600117905580f35b5050346101fa5760203660031901126101fa5760209160ff9082906001600160a01b036103ec610a6b565b1681526003855220541690519015158152f35b5050346101fa5760203660031901126101fa5761041a610a6b565b610422610a86565b6001600160a01b0316825260056020528120805460ff1916905580f35b5050346101fa57816003193601126101fa5760209060ff6002541690519015158152f35b5050346101fa5760203660031901126101fa5760209160ff9082906001600160a01b0361048e610a6b565b1681526005855220541690519015158152f35b5050346101fa57816003193601126101fa576104bb610a86565b8180808060018060a01b0381541647908282156104e7575bf1156104dd575080f35b51903d90823e3d90fd5b506108fc6104d3565b50346101b35760203660031901126101b357816020938260ff93358252855220541690519015158152f35b50346101b357826003193601126101b357610534610a86565b6002549060ff821615610576575060ff1916600255513381527f5db9ee0a495bf2e6ff9c91a7834c1ba4fdd244a5e8aa4e537bd38aeae4b073aa90602090a180f35b606490602084519162461bcd60e51b8352820152601460248201527314185d5cd8589b194e881b9bdd081c185d5cd95960621b6044820152fd5b5090346101b35760803660031901126101b3576105cb610a6b565b602480356001600160a01b03818116949293918590036107f35760443591606435913389526020916005835260ff868b205416156107bb5761060b610b72565b838a5288835260ff868b20541661077957169484516370a0823160e01b81523089820152828183818a5afa90811561076f579085918b9161073a575b50106106f957828952878252848920805460ff19166001179055845163a9059cbb60e01b8152978801879052870183905280876044818b895af19687156106ef577f1e5eb88da4c5640069086640cf1ee35507a9bf098f2a62175952f603c58f18ce9596976106c2575b508351928352820152a36001805580f35b6106e190823d84116106e8575b6106d98183610ade565b810190610b16565b50386106b1565b503d6106cf565b84513d8a823e3d90fd5b601d889160649387519362461bcd60e51b85528401528201527f4252494447453a20494e53554646494349454e545f52455345525645530000006044820152fd5b809250848092503d8311610768575b6107538183610ade565b810103126107645784905138610647565b8980fd5b503d610749565b86513d8c823e3d90fd5b855162461bcd60e51b8152808a01849052601c818901527f4252494447453a2054585f414c52454144595f50524f434553534544000000006044820152606490fd5b855162461bcd60e51b8152808a0184905260138189015272212924a223a29d102727aa2fa922a620aca2a960691b6044820152606490fd5b8680fd5b50829060803660031901126101fa5761080e610a6b565b6024936064359291604435908635906001600160a01b0380871690818803610a6757610838610b72565b610840610b2e565b8216938489526020926003845260ff878b20541615610a255784156109ed5760075434106109ab5786516323b872dd60e01b815233818a015230818d01526044810186905284816064818e8b5af180156109a157610984575b506006549887519485019146835283898701523360601b60608701526bffffffffffffffffffffffff19809260601b16607487015260601b16608885015284609c8501528860bc85015260bc845260e084019684881067ffffffffffffffff89111761097257879052835190209386526101008301526101208201526101408101869052610160015233917fea309eca55540976ac3744b96cd9f94f015fa63a684acf8341ce91a603e1115d9060a090a3600019821461096157506001016006556001805580f35b634e487b7160e01b83526011905250fd5b634e487b7160e01b8b52604189528b8bfd5b61099a90853d87116106e8576106d98183610ade565b508b610899565b88513d8d823e3d90fd5b865162461bcd60e51b81528089018590526018818d01527f4252494447453a20494e53554646494349454e545f46454500000000000000006044820152606490fd5b865162461bcd60e51b81528089018590526013818d0152721094925111d14e8816915493d7d05353d55395606a1b6044820152606490fd5b865162461bcd60e51b8152808901859052601b818d01527f4252494447453a20544f4b454e5f4e4f545f535550504f5254454400000000006044820152606490fd5b8880fd5b600435906001600160a01b0382168203610a8157565b600080fd5b6000546001600160a01b03163303610a9a57565b606460405162461bcd60e51b815260206004820152602060248201527f4f776e61626c653a2063616c6c6572206973206e6f7420746865206f776e65726044820152fd5b90601f8019910116810190811067ffffffffffffffff821117610b0057604052565b634e487b7160e01b600052604160045260246000fd5b90816020910312610a8157518015158103610a815790565b60ff60025416610b3a57565b60405162461bcd60e51b815260206004820152601060248201526f14185d5cd8589b194e881c185d5cd95960821b6044820152606490fd5b600260015414610b83576002600155565b60405162461bcd60e51b815260206004820152601f60248201527f5265656e7472616e637947756172643a207265656e7472616e742063616c6c006044820152606490fdfea26469706673582212207006aadf36d9beec92d55ea003cb843085271bedad73f43619f9dc4fcf6436cf64736f6c63430008140033",
  "linkReferences": {},
  "deployedLinkReferences": {}
}