{
  "_format": "hh-sol-artifact-1",
  "contractName": "KortanaMonoVault",
  "sourceName": "contracts/amm/KortanaMonoVault.sol",
  "abi": [
    {
      "inputs": [],
      "stateMutability": "nonpayable",
      "type": "constructor"
    },
    {
      "anonymous": false,
      "inputs": [
        {
          "indexed": true,
          "internalType": "address",
          "name": "user",
          "type": "address"
        },
        {
          "indexed": false,
          "internalType": "uint256",
          "name": "dnrIn",
          "type": "uint256"
        },
        {
          "indexed": false,
          "internalType": "uint256",
          "name": "usdcOut",
          "type": "uint256"
        },
        {
          "indexed": false,
          "internalType": "uint256",
          "name": "usdcIn",
          "type": "uint256"
        },
        {
          "indexed": false,
          "internalType": "uint256",
          "name": "dnrOut",
          "type": "uint256"
        }
      ],
      "name": "Swap",
      "type": "event"
    },
    {
      "inputs": [],
      "name": "USDC_K",
      "outputs": [
        {
          "internalType": "address",
          "name": "",
          "type": "address"
        }
      ],
      "stateMutability": "view",
      "type": "function"
    },
    {
      "inputs": [],
      "name": "WDNR",
      "outputs": [
        {
          "internalType": "address",
          "name": "",
          "type": "address"
        }
      ],
      "stateMutability": "view",
      "type": "function"
    },
    {
      "inputs": [],
      "name": "buyUSDC",
      "outputs": [],
      "stateMutability": "payable",
      "type": "function"
    },
    {
      "inputs": [],
      "name": "owner",
      "outputs": [
        {
          "internalType": "address",
          "name": "",
          "type": "address"
        }
      ],
      "stateMutability": "view",
      "type": "function"
    },
    {
      "inputs": [],
      "name": "reserveDNR",
      "outputs": [
        {
          "internalType": "uint256",
          "name": "",
          "type": "uint256"
        }
      ],
      "stateMutability": "view",
      "type": "function"
    },
    {
      "inputs": [],
      "name": "reserveUSDC",
      "outputs": [
        {
          "internalType": "uint256",
          "name": "",
          "type": "uint256"
        }
      ],
      "stateMutability": "view",
      "type": "function"
    },
    {
      "inputs": [
        {
          "internalType": "uint256",
          "name": "usdcAmount",
          "type": "uint256"
        }
      ],
      "name": "seed",
      "outputs": [],
      "stateMutability": "payable",
      "type": "function"
    },
    {
      "stateMutability": "payable",
      "type": "receive"
    }
  ],
  "bytecode": "0x6080806040523461002857600080546001600160a01b03191633179055610489908161002e8239f35b600080fdfe6080604081815260049182361015610022575b505050361561002057600080fd5b005b600092833560e01c918263251545da146101b9575081638da5cb5b14610191578163955648371461011a575080639894d04f146100ec578063af7c2d88146100ce578063c87b502e146100b05763d2d8d32f1461007f5780610012565b346100ac57816003193601126100ac576020905173259f3561fe751157458cfbd3a6eb149c321c45a58152f35b5080fd5b50346100ac57816003193601126100ac576020906002549051908152f35b50346100ac57816003193601126100ac576020906001549051908152f35b50346100ac57816003193601126100ac57602090517328420e30857ae2340ca3127bb2539e3d0d7671948152f35b919050602036600319011261018d5782546001600160a01b0316330361015d57506101579061014b34600154610430565b60015535600254610430565b60025580f35b906020606492519162461bcd60e51b8352820152600a6024820152694f776e6572206f6e6c7960b01b6044820152fd5b8280fd5b5050346100ac57816003193601126100ac57905490516001600160a01b039091168152602090f35b909291508360031936011261042c5734156103fd57506103e59182340292348404810361037d5760025490813402028481048214851517156103ea57600154946103e88087029087820414871517156103d7579061021691610430565b9081156103c4570493841561039057610230903490610430565b60015583810390811161037d57600255815163a9059cbb60e01b602082019081523360248301526044808301869052825267ffffffffffffffff916080810183811182821017610351578552518691829190827328420e30857ae2340ca3127bb2539e3d0d7671945af1903d15610377573d81811161036457845191601f8201601f19908116603f011683019081118382101761035157855281528560203d92013e5b156103185750808391519234845260208401528201528160608201527f49926bbebe8474393f434dfa4f78694c0923efa07d19f2284518bfabd06eb73760803392a280f35b6020606492519162461bcd60e51b835282015260146024820152731554d110d7d514905394d1915497d1905253115160621b6044820152fd5b634e487b7160e01b885260418552602488fd5b634e487b7160e01b875260418452602487fd5b506102d3565b634e487b7160e01b855260118252602485fd5b835162461bcd60e51b8152602081850152600e60248201526d125b9cdd59998b881bdd5d1c1d5d60921b6044820152606490fd5b634e487b7160e01b875260128452602487fd5b634e487b7160e01b885260118552602488fd5b634e487b7160e01b865260118352602486fd5b62461bcd60e51b8152602083820152600b60248201526a139bc8111394881cd95b9d60aa1b6044820152606490fd5b8380fd5b9190820180921161043d57565b634e487b7160e01b600052601160045260246000fdfea2646970667358221220383d02ba1bfb2643d6554a023ea0c3fc082bed5ae64233f669421cb91d975e7964736f6c63430008140033",
  "linkReferences": {},
  "deployedLinkReferences": {}
}