{
  "_format": "hh-sol-artifact-1",
  "contractName": "KortanaSwapDNR",
  "sourceName": "contracts/amm/KortanaSwapDNR.sol",
  "abi": [
    {
      "inputs": [
        {
          "internalType": "address",
          "name": "_factory",
          "type": "address"
        },
        {
          "internalType": "address",
          "name": "_WDNR",
          "type": "address"
        }
      ],
      "stateMutability": "nonpayable",
      "type": "constructor"
    },
    {
      "anonymous": false,
      "inputs": [
        {
          "indexed": false,
          "internalType": "string",
          "name": "step",
          "type": "string"
        },
        {
          "indexed": false,
          "internalType": "uint256",
          "name": "val",
          "type": "uint256"
        }
      ],
      "name": "LogStep",
      "type": "event"
    },
    {
      "inputs": [],
      "name": "WDNR",
      "outputs": [
        {
          "internalType": "address",
          "name": "",
          "type": "address"
        }
      ],
      "stateMutability": "view",
      "type": "function"
    },
    {
      "inputs": [],
      "name": "factory",
      "outputs": [
        {
          "internalType": "address",
          "name": "",
          "type": "address"
        }
      ],
      "stateMutability": "view",
      "type": "function"
    },
    {
      "inputs": [
        {
          "internalType": "uint256",
          "name": "amountIn",
          "type": "uint256"
        },
        {
          "internalType": "uint256",
          "name": "reserveIn",
          "type": "uint256"
        },
        {
          "internalType": "uint256",
          "name": "reserveOut",
          "type": "uint256"
        }
      ],
      "name": "getAmountOut",
      "outputs": [
        {
          "internalType": "uint256",
          "name": "amountOut",
          "type": "uint256"
        }
      ],
      "stateMutability": "pure",
      "type": "function"
    },
    {
      "inputs": [
        {
          "internalType": "uint256",
          "name": "amountIn",
          "type": "uint256"
        },
        {
          "internalType": "address[]",
          "name": "path",
          "type": "address[]"
        }
      ],
      "name": "getAmountsOut",
      "outputs": [
        {
          "internalType": "uint256[]",
          "name": "amounts",
          "type": "uint256[]"
        }
      ],
      "stateMutability": "view",
      "type": "function"
    },
    {
      "inputs": [
        {
          "internalType": "uint256",
          "name": "amountOutMin",
          "type": "uint256"
        },
        {
          "internalType": "address[]",
          "name": "path",
          "type": "address[]"
        },
        {
          "internalType": "address",
          "name": "to",
          "type": "address"
        },
        {
          "internalType": "uint256",
          "name": "deadline",
          "type": "uint256"
        }
      ],
      "name": "swapExactDNRForTokens",
      "outputs": [
        {
          "internalType": "uint256[]",
          "name": "amounts",
          "type": "uint256[]"
        }
      ],
      "stateMutability": "payable",
      "type": "function"
    },
    {
      "inputs": [
        {
          "internalType": "uint256",
          "name": "amountIn",
          "type": "uint256"
        },
        {
          "internalType": "uint256",
          "name": "amountOutMin",
          "type": "uint256"
        },
        {
          "internalType": "address[]",
          "name": "path",
          "type": "address[]"
        },
        {
          "internalType": "address",
          "name": "to",
          "type": "address"
        },
        {
          "internalType": "uint256",
          "name": "deadline",
          "type": "uint256"
        }
      ],
      "name": "swapExactTokensForDNR",
      "outputs": [
        {
          "internalType": "uint256[]",
          "name": "amounts",
          "type": "uint256[]"
        }
      ],
      "stateMutability": "nonpayable",
      "type": "function"
    },
    {
      "stateMutability": "payable",
      "type": "receive"
    }
  ],
  "bytecode": "0x60c0346100a357601f61137e38819003918201601f19168301916001600160401b038311848410176100a85780849260409485528339810103126100a357610052602061004b836100be565b92016100be565b9060805260a0526040516112ab90816100d38239608051818181610119015281816103030152818161060001528181610c310152610f82015260a051818181607e01528181610222015261073a0152f35b600080fd5b634e487b7160e01b600052604160045260246000fd5b51906001600160a01b03821682036100a35756fe60406080815260049081361015610020575b5050361561001e57600080fd5b005b600091823560e01c908163054d50d4146109805781634a89ffec146104c85781637ebfe0fd14610148578163c45a015514610104578163d06ca61f146100b1575063d2d8d32f0361001157346100ad57816003193601126100ad57517f00000000000000000000000000000000000000000000000000000000000000006001600160a01b03168152602090f35b5080fd5b8284346101015781600319360112610101576024359067ffffffffffffffff821161010157506100fd926100eb6100f29236908301610a13565b9035610be4565b905191829182610a81565b0390f35b80fd5b5050346100ad57816003193601126100ad57517f00000000000000000000000000000000000000000000000000000000000000006001600160a01b03168152602090f35b838360803660031901126100ad5760243567ffffffffffffffff81116104c4576101759036908501610a13565b916044356001600160a01b0380821682036104bf5760809261019b426064351015610eea565b845192858452600e868501526d11139497d4d5d05417d4d510549560921b606085015260209334858201527fc790f6e6c9e1ab14edf1e36c8df3b4e3afb43bc6c06d3259bb226ba90307c693958691a16101f58734610be4565b96875193600019948581019081116104ac5761021f906102178c35918c610b8e565b511015610f20565b807f00000000000000000000000000000000000000000000000000000000000000001661024b8a610b5b565b51813b156104a857858c918b5192838092630d0e30db60e41b8252865af1801561048657908691610490575b50508760806102858c610b5b565b518b51908c8252600e8d8301526d2222a827a9a4aa22a22faba2272960911b60608301528a820152a1816102b884610b5b565b51169087836102c686610b7e565b5116928d6102fe8d51958693849363e6a4390560e01b8552840190602090939293604083019460018060a01b03809216845216910152565b0381867f0000000000000000000000000000000000000000000000000000000000000000165afa918215610486578892878e95938d8f6044958495610453575b5061034890610b5b565b519051978896879563a9059cbb60e01b8752169085015260248401525af1801561044957906103b993929161041c575b508660806103858b610b5b565b518a51908b825260138c830152722a2920a729a322a92922a22faa27afa820a4a960691b606083015289820152a188610f75565b855191820191821161040957506100fd9550906103d860809286610b8e565b51845191858352600d868401526c535741505f434f4d504c45544560981b6060840152820152a15191829182610a81565b634e487b7160e01b815260118752602490fd5b61043b90873d8911610442575b61043381836109d9565b810190610f5d565b508a610378565b503d610429565b88513d86823e3d90fd5b61034891955061047890893d8b1161047f575b61047081836109d9565b810190610bb1565b949061033e565b503d610466565b8a513d88823e3d90fd5b610499906109af565b6104a457848c610277565b8480fd5b8580fd5b634e487b7160e01b855260118b52602485fd5b600080fd5b8280fd5b9050346104c45760a03660031901126104c45780359167ffffffffffffffff6044358181116104a8576104fe9036908501610a13565b926064359360018060a01b039283861680960361097c579660809495969761052a426084351015610eea565b6105858388519a898c5260108a8d01526f1513d2d15397d4d5d05417d4d510549560821b60608d015260209b818d8201527fc790f6e6c9e1ab14edf1e36c8df3b4e3afb43bc6c06d3259bb226ba90307c693998a91a1610be4565b9788519360001990818601958611610969576105a98b610217602498893592610b8e565b6105fb8c896105b784610b5b565b51168a6105c385610b7e565b518e5163e6a4390560e01b81526001600160a01b039384168d8201908152929091169092166020820152909283918291604090910190565b03818c7f0000000000000000000000000000000000000000000000000000000000000000165afa90811561093f578b8a928f928f8a908d928294610949575b50606493948d6106558961064d8c610b5b565b511693610b5b565b51915198899788966323b872dd60e01b88523390880152169085015260448401525af190811561093f578691610922575b50156108e0576106d5908960808c8f8f61069f90610b5b565b51906014835193808552840152731514905394d1915494915117d19493d357d093d560621b6060840152820152a130908c610f75565b89518181019081116108ce5760808a8d6106f08c948f610b8e565b519060168351938085528401527558594b5f455845435554494f4e5f434f4d504c45544560501b6060840152820152a189519081019081116108bb57610736908a610b8e565b51957f000000000000000000000000000000000000000000000000000000000000000016803b156108b757838091868b5180948193632e1a7d4d60e01b83528c8c8401525af180156108ad57898c8994938b9361088f575b5093869493859493608084848897600e899851938085528401526d2ba227292faba4aa24222920aba760911b6060840152820152a15af1913d15610888573d918211610874578751916107ea601f8201601f19168c01846109d9565b8252893d92013e5b156108325750506100fd94608091845191858352600f868401526e11139497d4d1539517d513d7d093d5608a1b6060840152820152a15191829182610a81565b845162461bcd60e51b8152918201879052601c908201527f4b6f7274616e613a204554485f5452414e534645525f4641494c4544000000006044820152606490fd5b83604186634e487b7160e01b600052526000fd5b50506107f2565b938593976108a16080979394966109af565b9793509391909461078e565b89513d86823e3d90fd5b8380fd5b5050634e487b7160e01b82525060118352fd5b634e487b7160e01b8552601187528585fd5b895162461bcd60e51b81528088018d90526018818801527f4b6f7274616e613a205452414e534645525f4641494c454400000000000000006044820152606490fd5b61093991508d803d106104425761043381836109d9565b38610686565b8b513d88823e3d90fd5b6064945061096390873d891161047f5761047081836109d9565b9361063a565b634e487b7160e01b855260118752602485fd5b8780fd5b82843461010157606036600319011261010157506109a8602092604435906024359035610abc565b9051908152f35b67ffffffffffffffff81116109c357604052565b634e487b7160e01b600052604160045260246000fd5b90601f8019910116810190811067ffffffffffffffff8211176109c357604052565b67ffffffffffffffff81116109c35760051b60200190565b81601f820112156104bf57803591610a2a836109fb565b92610a3860405194856109d9565b808452602092838086019260051b8201019283116104bf578301905b828210610a62575050505090565b81356001600160a01b03811681036104bf578152908301908301610a54565b6020908160408183019282815285518094520193019160005b828110610aa8575050505090565b835185529381019392810192600101610a9a565b9190918015610b53578215808015610b4b575b610b42576103e5808302928084048203610b2c57840202928284041482151715610b2c576103e8808502948504141715610b2c578201809211610b2c578115610b16570490565b634e487b7160e01b600052601260045260246000fd5b634e487b7160e01b600052601160045260246000fd5b50505050600090565b508215610acf565b505050600090565b805115610b685760200190565b634e487b7160e01b600052603260045260246000fd5b805160011015610b685760400190565b8051821015610b685760209160051b010190565b6000198114610b2c5760010190565b908160209103126104bf57516001600160a01b03811681036104bf5790565b51906001600160701b03821682036104bf57565b906002815110610ead57809291925190610bfd826109fb565b91604090610c0d825194856109d9565b808452610c1c601f19916109fb565b013660208501378294610c2e84610b5b565b527f00000000000000000000000000000000000000000000000000000000000000006001600160a01b03169460005b83516000198101908111610b2c57811015610ea5576001600160a01b03610c848286610b8e565b5116600182018211610b2c57610ce460206001600160a01b03610caa6001860189610b8e565b51875163e6a4390560e01b81526001600160a01b039586166004808301919091529290911690941660248501529291829081906044820190565b03818c5afa908115610e9a57600091610e7b575b506001600160a01b0316908115610e45578451630240bc6b60e21b81529160609182848281855afa938415610de2576000938495610ded575b50602090506001600160a01b03610d48878b610b8e565b511692885192838092630dfe168160e01b82525afa908115610de25791610da69391610db9969593600091610dc3575b506001600160a01b031603610dbe57905b6001600160701b038091169116610da0848a610b8e565b51610abc565b610db36001830188610b8e565b52610ba2565b610c5d565b610d89565b610ddc915060203d60201161047f5761047081836109d9565b38610d78565b87513d6000823e3d90fd5b908094929550813d8311610e3e575b610e0681836109d9565b8101031261010157610e1783610bd0565b9087610e2560208601610bd0565b94015163ffffffff811603610101575091923880610d31565b503d610dfc565b606490602086519162461bcd60e51b8352820152601060248201526f25b7b93a30b7309d102727afa820a4a960811b6044820152fd5b610e94915060203d60201161047f5761047081836109d9565b38610cf8565b85513d6000823e3d90fd5b509450505050565b60405162461bcd60e51b8152602060048201526015602482015274096dee4e8c2dcc27440929cac82989288bea082a89605b1b6044820152606490fd5b15610ef157565b60405162461bcd60e51b8152602060048201526007602482015266115e1c1a5c995960ca1b6044820152606490fd5b15610f2757565b60405162461bcd60e51b815260206004820152600e60248201526d4f757470757420746f6f206c6f7760901b6044820152606490fd5b908160209103126104bf575180151581036104bf5790565b9192916001600160a01b037f00000000000000000000000000000000000000000000000000000000000000008116929160005b83516000198101908111610b2c5781101561126c5782610fc88286610b8e565b511660018201808311610b2c578185610fe18389610b8e565b516040805163e6a4390560e01b8082526001600160a01b039788166004808401919091529490931696871660248201529295909490926020929083818e81806044810103915afa908115610de257908b9160009161124f575b501694865192630dfe168160e01b845284848a818a5afa93841561124457908c91600095611221575b5061106e908c610b8e565b5193160361121957600091935b8b5160011981019081116111fc578910156112115760028901808a116111fc57908d898d8f88956110ab91610b8e565b518b519687526001600160a01b0394851692870192835216909216602083015283918290819060400103915afa9081156111f1576000916111d4575b505b85519383850185811067ffffffffffffffff8211176111bf57875260008552853b156104bf57908a91879895969493985198899663022c0d9f60e01b885287015260248601521660448401526080606484015283519081608485015260005b8281106111a8575050600080945083918260a49183838284010152601f801991011681010301925af190811561119e57509061118a929161118f575b50610ba2565b610fa8565b611198906109af565b38611184565b513d6000823e3d90fd5b80860182015188820160a401528794508101611148565b604189634e487b7160e01b6000525260246000fd5b6111eb9150833d851161047f5761047081836109d9565b386110e7565b86513d6000823e3d90fd5b601189634e487b7160e01b6000525260246000fd5b50508c6110e9565b60009361107b565b61106e91955061123d90873d891161047f5761047081836109d9565b9490611063565b88513d6000823e3d90fd5b6112669150853d871161047f5761047081836109d9565b3861103a565b5050505050905056fea26469706673582212200c6d0705966528e303127d4a7e4a9cb2a97e9511fe88e27d0adcc0610cffed4a64736f6c63430008140033",
  "linkReferences": {},
  "deployedLinkReferences": {}
}