{
  "_format": "hh-sol-artifact-1",
  "contractName": "SovereignPairV3",
  "sourceName": "contracts/sovereign/SovereignPairV3.sol",
  "abi": [
    {
      "inputs": [
        {
          "internalType": "address",
          "name": "_token0",
          "type": "address"
        },
        {
          "internalType": "address",
          "name": "_token1",
          "type": "address"
        }
      ],
      "stateMutability": "nonpayable",
      "type": "constructor"
    },
    {
      "anonymous": false,
      "inputs": [
        {
          "indexed": true,
          "internalType": "address",
          "name": "sender",
          "type": "address"
        },
        {
          "indexed": false,
          "internalType": "uint256",
          "name": "amount0In",
          "type": "uint256"
        },
        {
          "indexed": false,
          "internalType": "uint256",
          "name": "amount1In",
          "type": "uint256"
        },
        {
          "indexed": false,
          "internalType": "uint256",
          "name": "amount0Out",
          "type": "uint256"
        },
        {
          "indexed": false,
          "internalType": "uint256",
          "name": "amount1Out",
          "type": "uint256"
        },
        {
          "indexed": true,
          "internalType": "address",
          "name": "to",
          "type": "address"
        }
      ],
      "name": "Swap",
      "type": "event"
    },
    {
      "anonymous": false,
      "inputs": [
        {
          "indexed": false,
          "internalType": "uint256",
          "name": "reserve0",
          "type": "uint256"
        },
        {
          "indexed": false,
          "internalType": "uint256",
          "name": "reserve1",
          "type": "uint256"
        }
      ],
      "name": "Sync",
      "type": "event"
    },
    {
      "inputs": [],
      "name": "getReserves",
      "outputs": [
        {
          "internalType": "uint256",
          "name": "",
          "type": "uint256"
        },
        {
          "internalType": "uint256",
          "name": "",
          "type": "uint256"
        }
      ],
      "stateMutability": "view",
      "type": "function"
    },
    {
      "inputs": [],
      "name": "reserve0",
      "outputs": [
        {
          "internalType": "uint256",
          "name": "",
          "type": "uint256"
        }
      ],
      "stateMutability": "view",
      "type": "function"
    },
    {
      "inputs": [],
      "name": "reserve1",
      "outputs": [
        {
          "internalType": "uint256",
          "name": "",
          "type": "uint256"
        }
      ],
      "stateMutability": "view",
      "type": "function"
    },
    {
      "inputs": [
        {
          "internalType": "uint256",
          "name": "amount0Out",
          "type": "uint256"
        },
        {
          "internalType": "uint256",
          "name": "amount1Out",
          "type": "uint256"
        },
        {
          "internalType": "address",
          "name": "to",
          "type": "address"
        }
      ],
      "name": "swap",
      "outputs": [],
      "stateMutability": "nonpayable",
      "type": "function"
    },
    {
      "inputs": [],
      "name": "sync",
      "outputs": [],
      "stateMutability": "nonpayable",
      "type": "function"
    },
    {
      "inputs": [],
      "name": "token0",
      "outputs": [
        {
          "internalType": "address",
          "name": "",
          "type": "address"
        }
      ],
      "stateMutability": "view",
      "type": "function"
    },
    {
      "inputs": [],
      "name": "token1",
      "outputs": [
        {
          "internalType": "address",
          "name": "",
          "type": "address"
        }
      ],
      "stateMutability": "view",
      "type": "function"
    }
  ],
  "bytecode": "0x60c03461009957601f6109f738819003918201601f19168301916001600160401b0383118484101761009e57808492604094855283398101031261009957610052602061004b836100b4565b92016100b4565b90600160005560805260a05260405161092e90816100c9823960805181818160a9015281816102a6015261081a015260a05181818160f40152818161020d01526102e90152f35b600080fd5b634e487b7160e01b600052604160045260246000fd5b51906001600160a01b03821682036100995756fe608060408181526004908136101561001657600080fd5b600092833560e01c9081630902f1ac14610849575080630dfe168114610805578063443cb4bc146107e65780635a76f25e146107c75780636d9a640a14610240578063d21220a7146101f85763fff6cae91461007157600080fd5b346101f457826003193601126101f45780516370a0823160e01b80825230848301526001600160a01b039390919060209081836024817f00000000000000000000000000000000000000000000000000000000000000008a165afa9283156101ea5787936101b4575b5060248394839460015586519788938492835230908301527f0000000000000000000000000000000000000000000000000000000000000000165afa9081156101aa578591610157575b7fcf2aa50876cdfbb541206f89af0ee78d44a2abf8d328e37fa4917f982149848a9450816002558351928352820152a180f35b80915084813d83116101a3575b61016e818361086d565b8101031261019f577fcf2aa50876cdfbb541206f89af0ee78d44a2abf8d328e37fa4917f982149848a935190610124565b8480fd5b503d610164565b83513d87823e3d90fd5b9180935082813d83116101e3575b6101cc818361086d565b810103126101df579051919060246100da565b8680fd5b503d6101c2565b85513d89823e3d90fd5b8280fd5b83823461023c578160031936011261023c57517f00000000000000000000000000000000000000000000000000000000000000006001600160a01b03168152602090f35b5080fd5b5091346107c45760603660031901126107c4576001600160a01b03926024604435858116823586358284036101df576002875414610782576002875580159788158099610779575b156107375786516370a0823160e01b8082523083830152909a6020967f0000000000000000000000000000000000000000000000000000000000000000821691888e8b81865afa9d8e15610548578c9e610708575b50988a9b9c9d89829c9b7f000000000000000000000000000000000000000000000000000000000000000016809c5193848092898252308b8301525afa91821561065857908e989796959493929189926106c6575b509086889260015461034483826108a5565b8211156106bd5761035e92610358916108a5565b906108a5565b985b6002549061036e84836108a5565b83111590506106b25761038492610358916108a5565b9d8e5b8815908115916106a8575b50156106645791868b8f938f948f9796958e966105e1575b84610552575b9350505050519b8c809285825230888301525afa998a15610548578c9a610515575b5087908a600155828c51809b8193825230878301525afa97881561050b578b986104cc575b50886104258d61041f610418896104128e80600255876108e5565b956108a5565b918c6108a5565b906108e5565b116104975750507fcf2aa50876cdfbb541206f89af0ee78d44a2abf8d328e37fa4917f982149848a98998851938452858401528783015260608201527fd78ad95fa46c994b6551d0da85fc275fe613ce37657fb8d5e3d130840159d82260803392a38351928352820152a16001815580f35b895162461bcd60e51b81529182018790526010908201526f1111560e8812d7d2539590549250539560821b6044820152606490fd5b9b9a99989750868c813d8311610504575b6104e7818361086d565b81010312610500579a51999a98999798969796886103f7565b8980fd5b503d6104dd565b8a513d8d823e3d90fd5b9099508781813d8311610541575b61052d818361086d565b8101031261053d575198876103d2565b8b80fd5b503d610523565b8b513d8e823e3d90fd5b5163a9059cbb60e01b81526001600160a01b03909216898301908152602081019490945295965092949293928492839190829060400103925af180156105d7579189918c94936105aa575b8b8f8f8a935081906103b0565b6105c990833d85116105d0575b6105c1818361086d565b8101906108c8565b503861059d565b503d6105b7565b8c513d8f823e3d90fd5b5163a9059cbb60e01b81526001600160a01b0383168a8201908152602081018c905297985094969195935084925090829081906040010391875af18015610658578b8f938f948f979694958e968c9561063b575b506103aa565b61065190883d8a116105d0576105c1818361086d565b5038610635565b8e8e51903d90823e3d90fd5b50508a5162461bcd60e51b8152808401899052601e818c01527f4445583a20494e53554646494349454e545f494e5055545f414d4f554e5400006044820152606490fd5b905015158f610392565b5050508c9d8e610387565b50505088610360565b8b80929495969798999a508193503d8311610701575b6106e6818361086d565b810103126106fd57518d9796959493929186610332565b8d80fd5b503d6106dc565b909d508881813d8311610730575b610720818361086d565b8101031261053d57519c896102dd565b503d610716565b606490601f8760208a519362461bcd60e51b85528401528201527f4445583a20494e53554646494349454e545f4f55545055545f414d4f554e54006044820152fd5b50821515610288565b855162461bcd60e51b81526020818a0152601f818701527f5265656e7472616e637947756172643a207265656e7472616e742063616c6c006044820152606490fd5b80fd5b83823461023c578160031936011261023c576020906002549051908152f35b83823461023c578160031936011261023c576020906001549051908152f35b83823461023c578160031936011261023c57517f00000000000000000000000000000000000000000000000000000000000000006001600160a01b03168152602090f35b905083346107c457806003193601126107c457506001546002549082526020820152f35b90601f8019910116810190811067ffffffffffffffff82111761088f57604052565b634e487b7160e01b600052604160045260246000fd5b919082039182116108b257565b634e487b7160e01b600052601160045260246000fd5b908160209103126108e0575180151581036108e05790565b600080fd5b818102929181159184041417156108b25756fea264697066735822122097f3cf38e4bc8ab4ac227d82dcf81b63d509ca8a803223ad02d332bc970d014a64736f6c63430008140033",
  "linkReferences": {},
  "deployedLinkReferences": {}
}