{
  "_format": "hh-sol-artifact-1",
  "contractName": "DebugRouterV4",
  "sourceName": "contracts/debug/DebugRouterV4.sol",
  "abi": [
    {
      "inputs": [],
      "name": "PAIR",
      "outputs": [
        {
          "internalType": "address",
          "name": "",
          "type": "address"
        }
      ],
      "stateMutability": "view",
      "type": "function"
    },
    {
      "inputs": [],
      "name": "probeToken0",
      "outputs": [
        {
          "internalType": "address",
          "name": "",
          "type": "address"
        }
      ],
      "stateMutability": "view",
      "type": "function"
    }
  ],
  "bytecode": "0x60808060405234610016576101cf908161001c8239f35b600080fdfe60806040908082526004918236101561001757600080fd5b600091823560e01c908163ace3a8a71461016b575063ffceb1d11461003b57600080fd5b346101675781600319360112610167578051602093848201630dfe168160e01b81528183528383019267ffffffffffffffff93818110858211176101385785525185918291907385782446b5ac7c4bcce639698042e3ebf46d52425afa3d1561015e573d83811161014b57845193601f8201601f19908116603f011685019081118582101761013857855283523d858785013e5b1561010557508381805181010312610101578301516001600160a01b03811692908390036100fe575051908152f35b80fd5b8280fd5b825162461bcd60e51b8152908101859052600d60248201526c1513d2d1538c17d19052531151609a1b6044820152606490fd5b634e487b7160e01b875260418452602487fd5b634e487b7160e01b865260418352602486fd5b606092506100cf565b5080fd5b839034610167578160031936011261016757807385782446b5ac7c4bcce639698042e3ebf46d524260209252f3fea2646970667358221220e21f654969237904aa25172b76f5911d3e1cc4d05f01336df66297f64d7b774c64736f6c63430008140033",
  "linkReferences": {},
  "deployedLinkReferences": {}
}