{
  "_format": "hh-sol-artifact-1",
  "contractName": "KortanaFactory",
  "sourceName": "contracts/amm/KortanaFactory.sol",
  "abi": [
    {
      "inputs": [
        {
          "internalType": "address",
          "name": "_feeToSetter",
          "type": "address"
        }
      ],
      "stateMutability": "nonpayable",
      "type": "constructor"
    },
    {
      "anonymous": false,
      "inputs": [
        {
          "indexed": true,
          "internalType": "address",
          "name": "token0",
          "type": "address"
        },
        {
          "indexed": true,
          "internalType": "address",
          "name": "token1",
          "type": "address"
        },
        {
          "indexed": false,
          "internalType": "address",
          "name": "pair",
          "type": "address"
        },
        {
          "indexed": false,
          "internalType": "uint256",
          "name": "",
          "type": "uint256"
        }
      ],
      "name": "PairCreated",
      "type": "event"
    },
    {
      "inputs": [
        {
          "internalType": "uint256",
          "name": "",
          "type": "uint256"
        }
      ],
      "name": "allPairs",
      "outputs": [
        {
          "internalType": "address",
          "name": "",
          "type": "address"
        }
      ],
      "stateMutability": "view",
      "type": "function"
    },
    {
      "inputs": [],
      "name": "allPairsLength",
      "outputs": [
        {
          "internalType": "uint256",
          "name": "",
          "type": "uint256"
        }
      ],
      "stateMutability": "view",
      "type": "function"
    },
    {
      "inputs": [
        {
          "internalType": "address",
          "name": "tokenA",
          "type": "address"
        },
        {
          "internalType": "address",
          "name": "tokenB",
          "type": "address"
        }
      ],
      "name": "createPair",
      "outputs": [
        {
          "internalType": "address",
          "name": "pair",
          "type": "address"
        }
      ],
      "stateMutability": "nonpayable",
      "type": "function"
    },
    {
      "inputs": [],
      "name": "feeTo",
      "outputs": [
        {
          "internalType": "address",
          "name": "",
          "type": "address"
        }
      ],
      "stateMutability": "view",
      "type": "function"
    },
    {
      "inputs": [],
      "name": "feeToSetter",
      "outputs": [
        {
          "internalType": "address",
          "name": "",
          "type": "address"
        }
      ],
      "stateMutability": "view",
      "type": "function"
    },
    {
      "inputs": [
        {
          "internalType": "address",
          "name": "",
          "type": "address"
        },
        {
          "internalType": "address",
          "name": "",
          "type": "address"
        }
      ],
      "name": "getPair",
      "outputs": [
        {
          "internalType": "address",
          "name": "",
          "type": "address"
        }
      ],
      "stateMutability": "view",
      "type": "function"
    },
    {
      "inputs": [
        {
          "internalType": "address",
          "name": "tokenA",
          "type": "address"
        },
        {
          "internalType": "address",
          "name": "tokenB",
          "type": "address"
        }
      ],
      "name": "pairFor",
      "outputs": [
        {
          "internalType": "address",
          "name": "",
          "type": "address"
        }
      ],
      "stateMutability": "view",
      "type": "function"
    },
    {
      "inputs": [
        {
          "internalType": "address",
          "name": "tokenA",
          "type": "address"
        },
        {
          "internalType": "address",
          "name": "tokenB",
          "type": "address"
        },
        {
          "internalType": "address",
          "name": "pair",
          "type": "address"
        }
      ],
      "name": "registerPair",
      "outputs": [],
      "stateMutability": "nonpayable",
      "type": "function"
    },
    {
      "inputs": [
        {
          "internalType": "address",
          "name": "_feeTo",
          "type": "address"
        }
      ],
      "name": "setFeeTo",
      "outputs": [],
      "stateMutability": "nonpayable",
      "type": "function"
    },
    {
      "inputs": [
        {
          "internalType": "address",
          "name": "_feeToSetter",
          "type": "address"
        }
      ],
      "name": "setFeeToSetter",
      "outputs": [],
      "stateMutability": "nonpayable",
      "type": "function"
    }
  ],
  "bytecode": "0x60803461007457601f61069938819003918201601f19168301916001600160401b038311848410176100795780849260209460405283398101031261007457516001600160a01b0381169081900361007457600180546001600160a01b03191691909117905560405161060990816100908239f35b600080fd5b634e487b7160e01b600052604160045260246000fdfe60806040908082526004918236101561001757600080fd5b600092833560e01c928363017e7e58146104f057508263094b7415146104c75782631e3dd18b14610481578263574f2ba31461046257826396ed28f914610402578263a2e74af6146103b4578263bfbd0297146101a6578263c9c653961461012f57508163e6a43905146100df575063f46901ed1461009557600080fd5b346100dc5760203660031901126100dc576100ae610561565b6001546001600160a01b0391906100c89083163314610592565b82546001600160a01b031916911617815580f35b80fd5b90503461012b578060031936011261012b57602091816100fd610561565b9161010661057c565b6001600160a01b03938416825260028652828220908416825285522054915191168152f35b5080fd5b83346100dc57826003193601126100dc5750602060849261014e610561565b5061015761057c565b505162461bcd60e51b815291820152602860248201527f557365206d616e75616c2072656769737465725061697220666f722074686973604482015267206e6574776f726b60c01b6064820152fd5b83823461012b57606036600319011261012b576101c1610561565b6101c961057c565b916001600160a01b039160443583811691908290036103b0576101f184600154163314610592565b83851684821681811461036d5710156103655783905b1692831561032a57838652602090600282528084882096169586885282528084882054166102f0578487526002825283872086885282528387206bffffffffffffffffffffffff60a01b9084828254161790556002835284882086895283528385892091825416179055600354680100000000000000008110156102dd57906102ba8260017f0d3648bd0f6ba80134a33ba9275ac585d9d315f0ad8355cddefde31afa28d0e99796959401600355610514565b819291549060031b9185831b921b1916179055600354908351928352820152a380f35b634e487b7160e01b885260418952602488fd5b835162461bcd60e51b815280890183905260146024820152734b4f5254414e413a20504149525f45584953545360601b6044820152606490fd5b825162461bcd60e51b815260208189015260156024820152744b4f5254414e413a205a45524f5f4144445245535360581b6044820152606490fd5b938390610207565b845162461bcd60e51b81526020818b0152601c60248201527f4b4f5254414e413a204944454e544943414c5f414444524553534553000000006044820152606490fd5b8580fd5b83346100dc5760203660031901126100dc576103ce610561565b600154906001600160a01b03906103e83383851614610592565b16906bffffffffffffffffffffffff60a01b161760015580f35b83823461012b578060031936011261012b5760209181610420610561565b9161042961057c565b6001600160a01b03938490828216818316101561045c575b16825260028652838383209116825285522054169051908152f35b91610441565b83823461012b578160031936011261012b576020906003549051908152f35b909150346104c35760203660031901126104c35735916003548310156100dc57506104ad602092610514565b60018060a01b0391549060031b1c169051908152f35b8280fd5b83823461012b578160031936011261012b5760015490516001600160a01b039091168152602090f35b84903461012b578160031936011261012b5790546001600160a01b03168152602090f35b60035481101561054b5760036000527fc2575a0e9e593c00f959f8c92f12db2869c3395a3b0502d05e2516446f71f85b0190600090565b634e487b7160e01b600052603260045260246000fd5b600435906001600160a01b038216820361057757565b600080fd5b602435906001600160a01b038216820361057757565b1561059957565b60405162461bcd60e51b815260206004820152601260248201527125a7a92a20a7209d102327a92124a22222a760711b6044820152606490fdfea264697066735822122028147f11745e308e1e6312a5993a12dc3ea47fc3ad4886d9399557ee004be25464736f6c63430008140033",
  "linkReferences": {},
  "deployedLinkReferences": {}
}