{
  "_format": "hh-sol-artifact-1",
  "contractName": "DebugRouter",
  "sourceName": "contracts/debug/DebugRouter.sol",
  "abi": [
    {
      "inputs": [],
      "name": "PAIR",
      "outputs": [
        {
          "internalType": "address",
          "name": "",
          "type": "address"
        }
      ],
      "stateMutability": "view",
      "type": "function"
    },
    {
      "inputs": [],
      "name": "WDNR",
      "outputs": [
        {
          "internalType": "address",
          "name": "",
          "type": "address"
        }
      ],
      "stateMutability": "view",
      "type": "function"
    },
    {
      "inputs": [
        {
          "internalType": "uint256",
          "name": "amountIn",
          "type": "uint256"
        }
      ],
      "name": "getQuote",
      "outputs": [
        {
          "internalType": "uint256",
          "name": "amountOut",
          "type": "uint256"
        }
      ],
      "stateMutability": "view",
      "type": "function"
    }
  ],
  "bytecode": "0x6080806040523461001657610354908161001c8239f35b600080fdfe608060408181526004918236101561001657600080fd5b600092833560e01c918263ace3a8a71461029f57508163cf39918e14610077575063d2d8d32f1461004657600080fd5b346100735781600319360112610073576020905173259f3561fe751157458cfbd3a6eb149c321c45a58152f35b5080fd5b839150346100735760209283600319360112610289578051630240bc6b60e21b81528235937385782446b5ac7c4bcce639698042e3ebf46d52429390916060818381885afa94851561029557879084928597610236575b508551630dfe168160e01b815291908290859082905afa801561022c5784906101d7575b6001600160a01b031673259f3561fe751157458cfbd3a6eb149c321c45a5141590506101c3576001600160701b038091169416945b6103e5808202918083048214811517156101b05787020295818704148115171561019d576103e89485810295818704149015171561019d57840180941161018a5783156101775750505191048152f35b634e487b7160e01b825260129052602490fd5b634e487b7160e01b825260119052602490fd5b634e487b7160e01b835260118252602483fd5b634e487b7160e01b855260118452602485fd5b936001600160701b03809116941694610127565b508781813d8311610225575b6101ed81836102cd565b8101031261022157516001600160a01b03811681036102215773259f3561fe751157458cfbd3a6eb149c321c45a5906100f2565b8380fd5b503d6101e3565b85513d86823e3d90fd5b92509550506060813d821161028d575b81610253606093836102cd565b810103126102895761026481610305565b84610270898401610305565b92015163ffffffff8116036102215790948790836100ce565b8280fd5b3d9150610246565b84513d85823e3d90fd5b849034610073578160031936011261007357807385782446b5ac7c4bcce639698042e3ebf46d524260209252f35b90601f8019910116810190811067ffffffffffffffff8211176102ef57604052565b634e487b7160e01b600052604160045260246000fd5b51906001600160701b038216820361031957565b600080fdfea26469706673582212204bb81a10a1fba8ace6416963f1ddbbd5f4de49102d71f73ab4d0c627ffda5e0664736f6c63430008140033",
  "linkReferences": {},
  "deployedLinkReferences": {}
}