{
  "_format": "hh-sol-artifact-1",
  "contractName": "NativeSovereignPatch",
  "sourceName": "contracts/sovereign/NativeSovereignPatch.sol",
  "abi": [
    {
      "inputs": [
        {
          "internalType": "address",
          "name": "_usdc",
          "type": "address"
        }
      ],
      "stateMutability": "nonpayable",
      "type": "constructor"
    },
    {
      "anonymous": false,
      "inputs": [
        {
          "indexed": true,
          "internalType": "address",
          "name": "sender",
          "type": "address"
        },
        {
          "indexed": false,
          "internalType": "uint256",
          "name": "dnrIn",
          "type": "uint256"
        },
        {
          "indexed": false,
          "internalType": "uint256",
          "name": "usdcIn",
          "type": "uint256"
        },
        {
          "indexed": false,
          "internalType": "uint256",
          "name": "dnrOut",
          "type": "uint256"
        },
        {
          "indexed": false,
          "internalType": "uint256",
          "name": "usdcOut",
          "type": "uint256"
        }
      ],
      "name": "Swap",
      "type": "event"
    },
    {
      "anonymous": false,
      "inputs": [
        {
          "indexed": false,
          "internalType": "uint256",
          "name": "reserveDNR",
          "type": "uint256"
        },
        {
          "indexed": false,
          "internalType": "uint256",
          "name": "reserveUSDC",
          "type": "uint256"
        }
      ],
      "name": "Sync",
      "type": "event"
    },
    {
      "inputs": [
        {
          "internalType": "uint256",
          "name": "usdcAmountIn",
          "type": "uint256"
        },
        {
          "internalType": "uint256",
          "name": "minDnrOut",
          "type": "uint256"
        },
        {
          "internalType": "address",
          "name": "to",
          "type": "address"
        }
      ],
      "name": "buyDNR",
      "outputs": [],
      "stateMutability": "nonpayable",
      "type": "function"
    },
    {
      "inputs": [
        {
          "internalType": "uint256",
          "name": "minUsdcOut",
          "type": "uint256"
        },
        {
          "internalType": "address",
          "name": "to",
          "type": "address"
        }
      ],
      "name": "buyUSDC",
      "outputs": [],
      "stateMutability": "payable",
      "type": "function"
    },
    {
      "inputs": [],
      "name": "depositDNR",
      "outputs": [],
      "stateMutability": "payable",
      "type": "function"
    },
    {
      "inputs": [],
      "name": "reserveDNR",
      "outputs": [
        {
          "internalType": "uint256",
          "name": "",
          "type": "uint256"
        }
      ],
      "stateMutability": "view",
      "type": "function"
    },
    {
      "inputs": [],
      "name": "reserveUSDC",
      "outputs": [
        {
          "internalType": "uint256",
          "name": "",
          "type": "uint256"
        }
      ],
      "stateMutability": "view",
      "type": "function"
    },
    {
      "inputs": [],
      "name": "sync",
      "outputs": [],
      "stateMutability": "nonpayable",
      "type": "function"
    },
    {
      "inputs": [],
      "name": "usdc",
      "outputs": [
        {
          "internalType": "address",
          "name": "",
          "type": "address"
        }
      ],
      "stateMutability": "view",
      "type": "function"
    },
    {
      "stateMutability": "payable",
      "type": "receive"
    }
  ],
  "bytecode": "0x60a03461008457601f61075a38819003918201601f19168301916001600160401b038311848410176100895780849260209460405283398101031261008457516001600160a01b03811681036100845760016000556080526040516106ba90816100a082396080518181816101120152818161031f015281816103ee01526104760152f35b600080fd5b634e487b7160e01b600052604160045260246000fdfe608060409080825260049182361015610023575b505050361561002157600080fd5b005b600092833560e01c9283633e413bee146103da57508263643da245146103c65782638d5fc21814610295578263af7c2d8814610276578263c87b502e14610257578263eef3a69a146100a057505063fff6cae914610082578080610013565b3461009d578060031936011261009d5761009a610455565b80f35b80fd5b90915034610253576060366003190112610253578035916001600160a01b0360443581811691869183900361024f576020906100da61062e565b6100e5871515610543565b6100ed610455565b60648551809481936323b872dd60e01b8352338a8401523060248401528a60448401527f0000000000000000000000000000000000000000000000000000000000000000165af1801561024557610217575b5061016161014f600154866105a1565b61015b866002546105ca565b906105d7565b926101706024358510156105f7565b478410156101e857508480808581948282156101df575bf1156101d657610195610455565b80519284845260208401528201528160608201527f49926bbebe8474393f434dfa4f78694c0923efa07d19f2284518bfabd06eb73760803392a26001815580f35b513d84823e3d90fd5b506108fc610187565b606490602084519162461bcd60e51b835282015260096024820152684c495155494449545960b81b6044820152fd5b6102379060203d811161023e575b61022f818361041d565b810190610584565b503861013f565b503d610225565b83513d88823e3d90fd5b5080fd5b8280fd5b83823461024f578160031936011261024f576020906002549051908152f35b83823461024f578160031936011261024f576020906001549051908152f35b90809250600319360112610253576001600160a01b03602435818116908190036103c2576020906102c461062e565b6102cf341515610543565b6102d7610455565b60446102f46102e8600254346105a1565b61015b346001546105ca565b9461030281358710156105f7565b878751958694859363a9059cbb60e01b85528401528760248401527f0000000000000000000000000000000000000000000000000000000000000000165af180156103b557610397575b50610355610455565b8282519234845281602085015283015260608201527f49926bbebe8474393f434dfa4f78694c0923efa07d19f2284518bfabd06eb73760803392a26001815580f35b6103ae9060203d811161023e5761022f818361041d565b503861034c565b50505051903d90823e3d90fd5b8480fd5b838060031936011261009d5761009a610455565b84903461024f578160031936011261024f577f00000000000000000000000000000000000000000000000000000000000000006001600160a01b03168152602090f35b90601f8019910116810190811067ffffffffffffffff82111761043f57604052565b634e487b7160e01b600052604160045260246000fd5b4760018190556040516370a0823160e01b81523060048201526020816024817f00000000000000000000000000000000000000000000000000000000000000006001600160a01b03165afa908115610537576000916104e6575b507fcf2aa50876cdfbb541206f89af0ee78d44a2abf8d328e37fa4917f982149848a918160409260025582519182526020820152a1565b906020823d821161052f575b816104ff6020938361041d565b8101031261009d5750517fcf2aa50876cdfbb541206f89af0ee78d44a2abf8d328e37fa4917f982149848a6104af565b3d91506104f2565b6040513d6000823e3d90fd5b1561054a57565b60405162461bcd60e51b8152602060048201526012602482015271125394d551919250d251539517d25394155560721b6044820152606490fd5b9081602091031261059c5751801515810361059c5790565b600080fd5b818102929181159184041417156105b457565b634e487b7160e01b600052601160045260246000fd5b919082018092116105b457565b81156105e1570490565b634e487b7160e01b600052601260045260246000fd5b156105fe57565b60405162461bcd60e51b8152602060048201526008602482015267534c49505041474560c01b6044820152606490fd5b60026000541461063f576002600055565b60405162461bcd60e51b815260206004820152601f60248201527f5265656e7472616e637947756172643a207265656e7472616e742063616c6c006044820152606490fdfea2646970667358221220fa0efdc9d65e922eaa3ef0de79fc866da21553f611575d179f7cdf1dee28cfd764736f6c63430008140033",
  "linkReferences": {},
  "deployedLinkReferences": {}
}