{
  "_format": "hh-sol-artifact-1",
  "contractName": "KortanaPair",
  "sourceName": "contracts/amm/KortanaPair.sol",
  "abi": [
    {
      "inputs": [],
      "stateMutability": "nonpayable",
      "type": "constructor"
    },
    {
      "anonymous": false,
      "inputs": [
        {
          "indexed": true,
          "internalType": "address",
          "name": "sender",
          "type": "address"
        },
        {
          "indexed": false,
          "internalType": "uint256",
          "name": "amount0In",
          "type": "uint256"
        },
        {
          "indexed": false,
          "internalType": "uint256",
          "name": "amount1In",
          "type": "uint256"
        },
        {
          "indexed": false,
          "internalType": "uint256",
          "name": "amount0Out",
          "type": "uint256"
        },
        {
          "indexed": false,
          "internalType": "uint256",
          "name": "amount1Out",
          "type": "uint256"
        },
        {
          "indexed": true,
          "internalType": "address",
          "name": "to",
          "type": "address"
        }
      ],
      "name": "Swap",
      "type": "event"
    },
    {
      "anonymous": false,
      "inputs": [
        {
          "indexed": false,
          "internalType": "uint112",
          "name": "reserve0",
          "type": "uint112"
        },
        {
          "indexed": false,
          "internalType": "uint112",
          "name": "reserve1",
          "type": "uint112"
        }
      ],
      "name": "Sync",
      "type": "event"
    },
    {
      "anonymous": false,
      "inputs": [
        {
          "indexed": true,
          "internalType": "address",
          "name": "from",
          "type": "address"
        },
        {
          "indexed": true,
          "internalType": "address",
          "name": "to",
          "type": "address"
        },
        {
          "indexed": false,
          "internalType": "uint256",
          "name": "value",
          "type": "uint256"
        }
      ],
      "name": "Transfer",
      "type": "event"
    },
    {
      "inputs": [
        {
          "internalType": "address",
          "name": "",
          "type": "address"
        }
      ],
      "name": "balanceOf",
      "outputs": [
        {
          "internalType": "uint256",
          "name": "",
          "type": "uint256"
        }
      ],
      "stateMutability": "view",
      "type": "function"
    },
    {
      "inputs": [],
      "name": "factory",
      "outputs": [
        {
          "internalType": "address",
          "name": "",
          "type": "address"
        }
      ],
      "stateMutability": "view",
      "type": "function"
    },
    {
      "inputs": [
        {
          "internalType": "address",
          "name": "to",
          "type": "address"
        },
        {
          "internalType": "uint256",
          "name": "amount0",
          "type": "uint256"
        },
        {
          "internalType": "uint256",
          "name": "amount1",
          "type": "uint256"
        }
      ],
      "name": "genesisMint",
      "outputs": [],
      "stateMutability": "nonpayable",
      "type": "function"
    },
    {
      "inputs": [],
      "name": "getReserves",
      "outputs": [
        {
          "internalType": "uint112",
          "name": "_reserve0",
          "type": "uint112"
        },
        {
          "internalType": "uint112",
          "name": "_reserve1",
          "type": "uint112"
        },
        {
          "internalType": "uint32",
          "name": "_blockTimestampLast",
          "type": "uint32"
        }
      ],
      "stateMutability": "view",
      "type": "function"
    },
    {
      "inputs": [
        {
          "internalType": "address",
          "name": "_token0",
          "type": "address"
        },
        {
          "internalType": "address",
          "name": "_token1",
          "type": "address"
        }
      ],
      "name": "initialize",
      "outputs": [],
      "stateMutability": "nonpayable",
      "type": "function"
    },
    {
      "inputs": [
        {
          "internalType": "uint256",
          "name": "amount0Out",
          "type": "uint256"
        },
        {
          "internalType": "uint256",
          "name": "amount1Out",
          "type": "uint256"
        },
        {
          "internalType": "address",
          "name": "to",
          "type": "address"
        },
        {
          "internalType": "bytes",
          "name": "data",
          "type": "bytes"
        }
      ],
      "name": "swap",
      "outputs": [],
      "stateMutability": "nonpayable",
      "type": "function"
    },
    {
      "inputs": [],
      "name": "sync",
      "outputs": [],
      "stateMutability": "nonpayable",
      "type": "function"
    },
    {
      "inputs": [],
      "name": "token0",
      "outputs": [
        {
          "internalType": "address",
          "name": "",
          "type": "address"
        }
      ],
      "stateMutability": "view",
      "type": "function"
    },
    {
      "inputs": [],
      "name": "token1",
      "outputs": [
        {
          "internalType": "address",
          "name": "",
          "type": "address"
        }
      ],
      "stateMutability": "view",
      "type": "function"
    },
    {
      "inputs": [],
      "name": "totalSupply",
      "outputs": [
        {
          "internalType": "uint256",
          "name": "",
          "type": "uint256"
        }
      ],
      "stateMutability": "view",
      "type": "function"
    }
  ],
  "bytecode": "0x6080806040523461002d576001600655600080546001600160a01b03191633179055610cbe90816100338239f35b600080fdfe6080604052600436101561001257600080fd5b60003560e01c8063022c0d9f146105355780630902f1ac146104dc5780630dfe1681146104b357806318160ddd14610495578063485cc9551461042e57806370a08231146103f4578063c45a0155146103cb578063ca63208c14610282578063d21220a7146102595763fff6cae91461008a57600080fd5b34610212576000366003190112610212576100a9600160065414610bda565b60006006556001546040516370a0823160e01b8082523060048301529091602091906001600160a01b039083908590602490829085165afa93841561021e5760009461022a575b508290600254169160246040518094819382523060048301525afa90811561021e576000916101ec575b506001600160701b039182841115806101e2575b156101aa5750607090811b600160701b600160e01b03169282169283174260e01b6001600160e01b031916176003819055604080516001600160701b0395861681529190921c90921690921660208201527f1c411e9a96e071241c2f21f7726b17ae89e3cab4c78be50e062b03a9fffbbad19190a16001600655005b6064906040519062461bcd60e51b8252600482015260116024820152704b6f7274616e613a204f564552464c4f5760781b6044820152fd5b508282111561012e565b90508181813d8311610217575b6102038183610c18565b8101031261021257513861011a565b600080fd5b503d6101f9565b6040513d6000823e3d90fd5b9093508281813d8311610252575b6102428183610c18565b81010312610212575192826100f0565b503d610238565b34610212576000366003190112610212576002546040516001600160a01b039091168152602090f35b346102125760603660031901126102125761029b610b83565b6000546001600160a01b03906102b49082163314610b99565b600454610386577f1c411e9a96e071241c2f21f7726b17ae89e3cab4c78be50e062b03a9fffbbad19160007fddf252ad1be2c89b69c2b068fc378daa952ba7f163c4a11628f55a4df523b3ef6020600354946001600160701b03956001600160701b0360701b60443560701b169087602435169063ffffffff60e01b161717600355683635c9adc5dea000009485600455169384845260058252806040852055604051908152a3600354604080516001600160701b038484168116825260709390931c909316909116602083015290a1005b60405162461bcd60e51b815260206004820152601760248201527f4b6f7274616e613a20414c52454144595f5345454445440000000000000000006044820152606490fd5b34610212576000366003190112610212576000546040516001600160a01b039091168152602090f35b34610212576020366003190112610212576001600160a01b03610415610b83565b1660005260056020526020604060002054604051908152f35b3461021257604036600319011261021257610447610b83565b6024356001600160a01b0381811692918390036102125761046d81600054163314610b99565b6bffffffffffffffffffffffff60a01b91168160015416176001556002541617600255600080f35b34610212576000366003190112610212576020600454604051908152f35b34610212576000366003190112610212576001546040516001600160a01b039091168152602090f35b3461021257600036600319011261021257606063ffffffff6105136003546001600160701b0391828216928260701c169160e01c90565b909291604051936001600160701b038092168552166020840152166040820152f35b34610212576080366003190112610212576044356001600160a01b03818116918281036102125760643567ffffffffffffffff808211610212573660238301121561021257816004013590811161021257369101602401116102125761059f600160065414610bda565b60006006556004351580158091610b78575b15610b27576105d56003546001600160701b0391828216928260701c169160e01c90565b509390926001600160701b0384166004351080610b13575b15610ace5781600154169160025416928287141580610ac4575b15610a8957610a29575b6024356109bf575b50604051906020826024816370a0823160e01b948582523060048301525afa91821561021e5760009261098a575b5060209060246040518095819382523060048301525afa91821561021e57600092610956575b506106836004356001600160701b038516610c68565b81111561094e576106a86106a26004356001600160701b038616610c68565b82610c68565b935b6106bf6024356001600160701b038316610c68565b831115610946576106e46106de6024356001600160701b038416610c68565b84610c68565b935b851515861561093d575b156108ed57826103e88102046103e814831517156108d75760038602868104600314871517156108d757610728906103e88502610c68565b906103e88502918583046103e814861517156108d7576003870292878404600314881517156108d7576107716001600160701b039261076b61077a968594610c68565b90610c75565b94169116610c75565b90620f4240918281029281840414901517156108d757106108a5576001600160701b0381111580610894575b1561085b57607091821b600160701b600160e01b03166001600160701b039182169081174260e01b6001600160e01b03191617600381905560408051928352931c90911660208201527f1c411e9a96e071241c2f21f7726b17ae89e3cab4c78be50e062b03a9fffbbad19190a16040519182526020820152600435604082015260243560608201527fd78ad95fa46c994b6551d0da85fc275fe613ce37657fb8d5e3d130840159d82260803392a36001600655005b60405162461bcd60e51b81526020600482015260116024820152704b6f7274616e613a204f564552464c4f5760781b6044820152606490fd5b506001600160701b038211156107a6565b60405162461bcd60e51b815260206004820152600a6024820152694b6f7274616e613a204b60b01b6044820152606490fd5b634e487b7160e01b600052601160045260246000fd5b60405162461bcd60e51b815260206004820152602260248201527f4b6f7274616e613a20494e53554646494349454e545f494e5055545f414d4f55604482015261139560f21b6064820152608490fd5b508415156106f0565b6000936106e6565b6000936106aa565b9091506020813d602011610982575b8161097260209383610c18565b810103126102125751908561066d565b3d9150610965565b9091506020813d6020116109b7575b816109a660209383610c18565b810103126102125751906020610647565b3d9150610999565b60405163a9059cbb60e01b81526001600160a01b0391909116600482015260248035908201526020816044816000875af1801561021e571561061957610a1b9060203d8111610a22575b610a138183610c18565b810190610c50565b5085610619565b503d610a09565b60405163a9059cbb60e01b81526001600160a01b0382166004808301919091523560248201526020816044816000875af1801561021e57610a6b575b50610611565b610a829060203d8111610a2257610a138183610c18565b5086610a65565b60405162461bcd60e51b81526020600482015260136024820152724b6f7274616e613a20494e56414c49445f544f60681b6044820152606490fd5b5083871415610607565b60405162461bcd60e51b815260206004820152601f60248201527f4b6f7274616e613a20494e53554646494349454e545f4c4951554944495459006044820152606490fd5b506001600160701b038516602435106105ed565b60405162461bcd60e51b815260206004820152602360248201527f4b6f7274616e613a20494e53554646494349454e545f4f55545055545f414d4f60448201526215539560ea1b6064820152608490fd5b5060243515156105b1565b600435906001600160a01b038216820361021257565b15610ba057565b60405162461bcd60e51b815260206004820152601260248201527125b7b93a30b7309d102327a92124a22222a760711b6044820152606490fd5b15610be157565b60405162461bcd60e51b815260206004820152600f60248201526e12dbdc9d185b984e881313d0d2d151608a1b6044820152606490fd5b90601f8019910116810190811067ffffffffffffffff821117610c3a57604052565b634e487b7160e01b600052604160045260246000fd5b90816020910312610212575180151581036102125790565b919082039182116108d757565b818102929181159184041417156108d75756fea26469706673582212205e8a7adc7c82b43920a527f55e2e1b5d8da6b32866ed27820aaaf38626ed92ad64736f6c63430008140033",
  "linkReferences": {},
  "deployedLinkReferences": {}
}