{
  "_format": "hh-sol-artifact-1",
  "contractName": "KortanaSwapTokens",
  "sourceName": "contracts/amm/KortanaSwapTokens.sol",
  "abi": [
    {
      "inputs": [
        {
          "internalType": "address",
          "name": "_factory",
          "type": "address"
        },
        {
          "internalType": "address",
          "name": "_WDNR",
          "type": "address"
        }
      ],
      "stateMutability": "nonpayable",
      "type": "constructor"
    },
    {
      "inputs": [],
      "name": "WDNR",
      "outputs": [
        {
          "internalType": "address",
          "name": "",
          "type": "address"
        }
      ],
      "stateMutability": "view",
      "type": "function"
    },
    {
      "inputs": [],
      "name": "factory",
      "outputs": [
        {
          "internalType": "address",
          "name": "",
          "type": "address"
        }
      ],
      "stateMutability": "view",
      "type": "function"
    },
    {
      "inputs": [
        {
          "internalType": "uint256",
          "name": "amountIn",
          "type": "uint256"
        },
        {
          "internalType": "uint256",
          "name": "amountOutMin",
          "type": "uint256"
        },
        {
          "internalType": "address[]",
          "name": "path",
          "type": "address[]"
        },
        {
          "internalType": "address",
          "name": "to",
          "type": "address"
        },
        {
          "internalType": "uint256",
          "name": "deadline",
          "type": "uint256"
        }
      ],
      "name": "swapExactTokensForDNR",
      "outputs": [
        {
          "internalType": "uint256[]",
          "name": "amounts",
          "type": "uint256[]"
        }
      ],
      "stateMutability": "nonpayable",
      "type": "function"
    },
    {
      "stateMutability": "payable",
      "type": "receive"
    }
  ],
  "bytecode": "0x60c03461009b57601f610c9b38819003918201601f19168301916001600160401b038311848410176100a057808492604094855283398101031261009b57610052602061004b836100b6565b92016100b6565b9060805260a052604051610bd090816100cb823960805181818160a10152818161020f01528181610499015281816105c801526105f9015260a051818181605701526107230152f35b600080fd5b634e487b7160e01b600052604160045260246000fd5b51906001600160a01b038216820361009b5756fe6080604052600436101561001b575b361561001957600080fd5b005b60003560e01c80634a89ffec146100d0578063c45a01551461008b5763d2d8d32f0361000e5734610086576000366003190112610086576040517f00000000000000000000000000000000000000000000000000000000000000006001600160a01b03168152602090f35b600080fd5b34610086576000366003190112610086576040517f00000000000000000000000000000000000000000000000000000000000000006001600160a01b03168152602090f35b346100865760a03660031901126100865760443567ffffffffffffffff8111610086573660238201121561008657806004013561010c816109b4565b9161011a6040519384610992565b8183526024602084019260051b8201019036821161008657602401915b81831061095e57836064356001600160a01b03811690036100865742608435106109355760028151106108f057805161016f816109b4565b9061017d6040519283610992565b80825261018c601f19916109b4565b0136602083013760043561019f826109cc565b5260005b825160001981019081116103065781101561042e576001600160a01b036101ca82856109d9565b5116906001810181116103065760046001600160a01b036101ee60018401876109d9565b51169260606101fd85836109fc565b50946001600160a01b039061023390847f0000000000000000000000000000000000000000000000000000000000000000610ac1565b1660405193848092630240bc6b60e21b82525afa938415610422576000926000956103d5575b506001600160a01b0316036103d057915b61027482856109d9565b5190811561037957831590811580610370575b1561031c576103e5918284029084820484036103065781848487020204831482151715610306576103e880880297880414171561030657808601861161030657808601156102f0576102eb9501920202046102e560018301856109d9565b526109ed565b6101a3565b634e487b7160e01b600052601260045260246000fd5b634e487b7160e01b600052601160045260246000fd5b60405162461bcd60e51b815260206004820152602660248201527f4b6f7274616e614c6962726172793a20494e53554646494349454e545f4c495160448201526555494449545960d01b6064820152608490fd5b50801515610287565b60405162461bcd60e51b815260206004820152602960248201527f4b6f7274616e614c6962726172793a20494e53554646494349454e545f494e50604482015268155517d05353d5539560ba1b6064820152608490fd5b61026a565b925093506060823d60601161041a575b816103f260609383610992565b810103126100865781516040602084015193015163ffffffff81160361008657919387610259565b3d91506103e5565b6040513d6000823e3d90fd5b5090815160001981019081116103065761044b60243591846109d9565b51106108c7576001600160a01b03610462826109cc565b51166001600160a01b03610475836109cc565b51168251600110156108b15760408301516020916104bd916001600160a01b0316907f0000000000000000000000000000000000000000000000000000000000000000610ac1565b60646104c8866109cc565b516040516323b872dd60e01b81523360048201526001600160a01b0390931660248401526044830152909283919082906000905af1801561042257610879575b5060005b815160001981019081116103065781101561071d576001600160a01b0361053382846109d9565b511690600181018111610306576001600160a01b0361055560018301856109d9565b511661056181846109fc565b509261057060018401876109d9565b51936001600160a01b0316810361071557600093905b855180600119810111610306576001190184101561070b576002840184116103065761061d6105ec6001600160a01b036105c3600288018a6109d9565b5116857f0000000000000000000000000000000000000000000000000000000000000000610ac1565b935b6001600160a01b03927f0000000000000000000000000000000000000000000000000000000000000000610ac1565b16916040519182602081011067ffffffffffffffff6020850111176106f5576020830160405260008352833b156100865760405163022c0d9f60e01b8152600481019690965260248601526001600160a01b0316604485015260806064850152805160848501819052849160005b8281106106dd5750509181600080948260a49183838284010152601f801991011681010301925af1918215610422576106c9926106ce575b506109ed565b61050c565b6106d79061097e565b846106c3565b602082820181015160a489840101528794500161068b565b634e487b7160e01b600052604160045260246000fd5b61061d30936105ee565b600090610586565b825183907f00000000000000000000000000000000000000000000000000000000000000006001600160a01b03169060001981019081116103065761076290836109d9565b51813b1561008657600091602483926040519485938492632e1a7d4d60e01b845260048401525af180156104225761086a575b508051600019810190811161030657600080806107b38194866109d9565b516064355af13d15610865573d67ffffffffffffffff81116106f557604051906107e7601f8201601f191660200183610992565b8152600060203d92013e5b1561083c5760405180916020820160208352815180915260206040840192019060005b818110610823575050500390f35b8251845285945060209384019390920191600101610815565b60405162461bcd60e51b81526020600482015260016024820152602360f91b6044820152606490fd5b6107f2565b6108739061097e565b81610795565b6020813d6020116108a9575b8161089260209383610992565b810103126100865751801515036100865782610508565b3d9150610885565b634e487b7160e01b600052603260045260246000fd5b60405162461bcd60e51b81526020600482015260016024820152604f60f81b6044820152606490fd5b60405162461bcd60e51b815260206004820152601c60248201527f4b6f7274616e614c6962726172793a20494e56414c49445f50415448000000006044820152606490fd5b60405162461bcd60e51b81526020600482015260016024820152604560f81b6044820152606490fd5b82356001600160a01b038116810361008657815260209283019201610137565b67ffffffffffffffff81116106f557604052565b90601f8019910116810190811067ffffffffffffffff8211176106f557604052565b67ffffffffffffffff81116106f55760051b60200190565b8051156108b15760200190565b80518210156108b15760209160051b010190565b60001981146103065760010190565b90916001600160a01b0391828416838216808214610a70571015610a6b57925b91831615610a2657565b60405162461bcd60e51b815260206004820152601c60248201527f4b6f7274616e614c6962726172793a205a45524f5f41444452455353000000006044820152606490fd5b610a1c565b60405162461bcd60e51b815260206004820152602360248201527f4b6f7274616e614c6962726172793a204944454e544943414c5f41444452455360448201526253455360e81b6064820152608490fd5b60405163e6a4390560e01b81526001600160a01b03928316600482015292821660248401529192916020908490604490829085165afa92831561042257600093610b55575b50821615610b1057565b60405162461bcd60e51b815260206004820152601e60248201527f4b6f7274616e614c6962726172793a20504149525f4e4f545f464f554e4400006044820152606490fd5b6020939193813d8211610b92575b81610b7060209383610992565b81010312610b8e5751908382168203610b8b57509138610b06565b80fd5b5080fd5b3d9150610b6356fea264697066735822122038c88660bfc6afe2c406fd18cd05e3ddfc879492443855c57fa18b30f8e8ac8464736f6c63430008140033",
  "linkReferences": {},
  "deployedLinkReferences": {}
}