{
  "_format": "hh-sol-artifact-1",
  "contractName": "HelloWorld",
  "sourceName": "contracts/HelloWorld.sol",
  "abi": [
    {
      "inputs": [
        {
          "internalType": "string",
          "name": "_message",
          "type": "string"
        }
      ],
      "stateMutability": "nonpayable",
      "type": "constructor"
    },
    {
      "inputs": [],
      "name": "message",
      "outputs": [
        {
          "internalType": "string",
          "name": "",
          "type": "string"
        }
      ],
      "stateMutability": "view",
      "type": "function"
    }
  ],
  "bytecode": "0x6080604052346101f5576103e180380380610019816101fa565b928339810190602080828403126101f55781516001600160401b03928382116101f5570192601f908082860112156101f55784518481116101cb57601f1995610067828501881686016101fa565b928284528583830101116101f557849060005b8381106101e15750506000918301015280519384116101cb57600054926001938481811c911680156101c1575b828210146101ab57838111610165575b50809285116001146101005750839450908392916000946100f5575b50501b916000199060031b1c1916176000555b6040516101c190816102208239f35b0151925038806100d3565b9294849081166000805284600020946000905b8883831061014b5750505010610132575b505050811b016000556100e6565b015160001960f88460031b161c19169055388080610124565b858701518855909601959485019487935090810190610113565b60008052816000208480880160051c8201928489106101a2575b0160051c019085905b8281106101965750506100b7565b60008155018590610188565b9250819261017f565b634e487b7160e01b600052602260045260246000fd5b90607f16906100a7565b634e487b7160e01b600052604160045260246000fd5b81810183015185820184015286920161007a565b600080fd5b6040519190601f01601f191682016001600160401b038111838210176101cb5760405256fe6080600436101561000f57600080fd5b6000803560e01c63e21f37ce1461002557600080fd5b34610188578060031936011261018857809181549060019382851c85841695861561017e575b602094858310881461016a578585969798848752918260001461014e5750506001146100f7575b5050601f801993849203011681019381851067ffffffffffffffff8611176100e3579291849192604094838652818452845191828186015281955b8387106100cb5750508394508582601f949501015201168101030190f35b868101820151898801890152958101958895506100ad565b634e487b7160e01b81526041600452602490fd5b8680528592508691907f290decd9548b62a8d60345a988386fc84ba6bc95484008f6362f93160ef3e5635b828410610136575050508201013880610072565b80548488018601528695508794909301928101610122565b925093505060ff191682840152151560051b8201013880610072565b634e487b7160e01b87526022600452602487fd5b90607f169061004b565b80fdfea264697066735822122073ea1cdea87c7a4dfec755ce53e90249af6b813d51622033722a7c58ae7a684664736f6c63430008140033",
  "linkReferences": {},
  "deployedLinkReferences": {}
}