{
  "_format": "hh-sol-artifact-1",
  "contractName": "MinimalRouter",
  "sourceName": "contracts/MinimalRouter.sol",
  "abi": [
    {
      "inputs": [
        {
          "internalType": "address",
          "name": "_factory",
          "type": "address"
        }
      ],
      "stateMutability": "nonpayable",
      "type": "constructor"
    },
    {
      "inputs": [],
      "name": "factory",
      "outputs": [
        {
          "internalType": "address",
          "name": "",
          "type": "address"
        }
      ],
      "stateMutability": "view",
      "type": "function"
    },
    {
      "inputs": [],
      "name": "swap",
      "outputs": [
        {
          "internalType": "uint256",
          "name": "",
          "type": "uint256"
        }
      ],
      "stateMutability": "pure",
      "type": "function"
    }
  ],
  "bytecode": "0x60803461007357601f61013d38819003918201601f19168301916001600160401b038311848410176100785780849260209460405283398101031261007357516001600160a01b0381169081900361007357600080546001600160a01b03191691909117905560405160ae908161008f8239f35b600080fd5b634e487b7160e01b600052604160045260246000fdfe6080806040526004361015601257600080fd5b600090813560e01c9081638119c06514605b575063c45a015514603457600080fd5b3460585780600319360112605857546040516001600160a01b039091168152602090f35b80fd5b9050346074578160031936011260745780600160209252f35b5080fdfea2646970667358221220201e6f55b683eadc01e19fe399572f8e69de7eee71a26f4243498415120c46e164736f6c63430008140033",
  "linkReferences": {},
  "deployedLinkReferences": {}
}