{
  "_format": "hh-sol-artifact-1",
  "contractName": "UltraDinar",
  "sourceName": "contracts/sovereign/UltraDinar.sol",
  "abi": [
    {
      "inputs": [],
      "stateMutability": "nonpayable",
      "type": "constructor"
    },
    {
      "anonymous": false,
      "inputs": [
        {
          "indexed": true,
          "internalType": "address",
          "name": "owner",
          "type": "address"
        },
        {
          "indexed": true,
          "internalType": "address",
          "name": "spender",
          "type": "address"
        },
        {
          "indexed": false,
          "internalType": "uint256",
          "name": "value",
          "type": "uint256"
        }
      ],
      "name": "Approval",
      "type": "event"
    },
    {
      "anonymous": false,
      "inputs": [
        {
          "indexed": true,
          "internalType": "address",
          "name": "from",
          "type": "address"
        },
        {
          "indexed": true,
          "internalType": "address",
          "name": "to",
          "type": "address"
        },
        {
          "indexed": false,
          "internalType": "uint256",
          "name": "value",
          "type": "uint256"
        }
      ],
      "name": "Transfer",
      "type": "event"
    },
    {
      "inputs": [
        {
          "internalType": "address",
          "name": "owner",
          "type": "address"
        },
        {
          "internalType": "address",
          "name": "spender",
          "type": "address"
        }
      ],
      "name": "allowance",
      "outputs": [
        {
          "internalType": "uint256",
          "name": "",
          "type": "uint256"
        }
      ],
      "stateMutability": "view",
      "type": "function"
    },
    {
      "inputs": [
        {
          "internalType": "address",
          "name": "spender",
          "type": "address"
        },
        {
          "internalType": "uint256",
          "name": "amount",
          "type": "uint256"
        }
      ],
      "name": "approve",
      "outputs": [
        {
          "internalType": "bool",
          "name": "",
          "type": "bool"
        }
      ],
      "stateMutability": "nonpayable",
      "type": "function"
    },
    {
      "inputs": [
        {
          "internalType": "address",
          "name": "account",
          "type": "address"
        }
      ],
      "name": "balanceOf",
      "outputs": [
        {
          "internalType": "uint256",
          "name": "",
          "type": "uint256"
        }
      ],
      "stateMutability": "view",
      "type": "function"
    },
    {
      "inputs": [],
      "name": "decimals",
      "outputs": [
        {
          "internalType": "uint8",
          "name": "",
          "type": "uint8"
        }
      ],
      "stateMutability": "view",
      "type": "function"
    },
    {
      "inputs": [
        {
          "internalType": "address",
          "name": "spender",
          "type": "address"
        },
        {
          "internalType": "uint256",
          "name": "subtractedValue",
          "type": "uint256"
        }
      ],
      "name": "decreaseAllowance",
      "outputs": [
        {
          "internalType": "bool",
          "name": "",
          "type": "bool"
        }
      ],
      "stateMutability": "nonpayable",
      "type": "function"
    },
    {
      "inputs": [],
      "name": "deposit",
      "outputs": [],
      "stateMutability": "payable",
      "type": "function"
    },
    {
      "inputs": [
        {
          "internalType": "address",
          "name": "spender",
          "type": "address"
        },
        {
          "internalType": "uint256",
          "name": "addedValue",
          "type": "uint256"
        }
      ],
      "name": "increaseAllowance",
      "outputs": [
        {
          "internalType": "bool",
          "name": "",
          "type": "bool"
        }
      ],
      "stateMutability": "nonpayable",
      "type": "function"
    },
    {
      "inputs": [],
      "name": "name",
      "outputs": [
        {
          "internalType": "string",
          "name": "",
          "type": "string"
        }
      ],
      "stateMutability": "view",
      "type": "function"
    },
    {
      "inputs": [],
      "name": "symbol",
      "outputs": [
        {
          "internalType": "string",
          "name": "",
          "type": "string"
        }
      ],
      "stateMutability": "view",
      "type": "function"
    },
    {
      "inputs": [],
      "name": "totalSupply",
      "outputs": [
        {
          "internalType": "uint256",
          "name": "",
          "type": "uint256"
        }
      ],
      "stateMutability": "view",
      "type": "function"
    },
    {
      "inputs": [
        {
          "internalType": "address",
          "name": "to",
          "type": "address"
        },
        {
          "internalType": "uint256",
          "name": "amount",
          "type": "uint256"
        }
      ],
      "name": "transfer",
      "outputs": [
        {
          "internalType": "bool",
          "name": "",
          "type": "bool"
        }
      ],
      "stateMutability": "nonpayable",
      "type": "function"
    },
    {
      "inputs": [
        {
          "internalType": "address",
          "name": "from",
          "type": "address"
        },
        {
          "internalType": "address",
          "name": "to",
          "type": "address"
        },
        {
          "internalType": "uint256",
          "name": "amount",
          "type": "uint256"
        }
      ],
      "name": "transferFrom",
      "outputs": [
        {
          "internalType": "bool",
          "name": "",
          "type": "bool"
        }
      ],
      "stateMutability": "nonpayable",
      "type": "function"
    },
    {
      "inputs": [
        {
          "internalType": "uint256",
          "name": "amount",
          "type": "uint256"
        }
      ],
      "name": "withdraw",
      "outputs": [],
      "stateMutability": "nonpayable",
      "type": "function"
    },
    {
      "stateMutability": "payable",
      "type": "receive"
    }
  ],
  "bytecode": "0x6080346200033b576040906001600160401b03908083018281118282101762000325578352600b81526020916a2ab63a3930902234b730b960a91b838301528351928484018481108382111762000325578552600493848152633aa2272960e11b8282015283519083821162000310576003928354926001968785811c9516801562000305575b83861014620002f0578190601f958681116200029a575b508390868311600114620002335760009262000227575b505060001982871b1c191690871b1784555b8151948511620002125786548681811c9116801562000207575b82821014620001f257838111620001a7575b50809285116001146200013957509383949184926000956200012d575b50501b92600019911b1c19161790555b51610ad09081620003418239f35b0151935038806200010f565b92919084601f1981168860005285600020956000905b898383106200018c575050501062000171575b50505050811b0190556200011f565b01519060f884600019921b161c191690553880808062000162565b8587015189559097019694850194889350908101906200014f565b87600052816000208480880160051c820192848910620001e8575b0160051c019087905b828110620001db575050620000f2565b60008155018790620001cb565b92508192620001c2565b602288634e487b7160e01b6000525260246000fd5b90607f1690620000e0565b604187634e487b7160e01b6000525260246000fd5b015190503880620000b4565b90899350601f1983169188600052856000209260005b878282106200028357505084116200026a575b505050811b018455620000c6565b015160001983891b60f8161c191690553880806200025c565b8385015186558d9790950194938401930162000249565b90915086600052836000208680850160051c820192868610620002e6575b918b91869594930160051c01915b828110620002d65750506200009d565b600081558594508b9101620002c6565b92508192620002b8565b602289634e487b7160e01b6000525260246000fd5b94607f169462000086565b604186634e487b7160e01b6000525260246000fd5b634e487b7160e01b600052604160045260246000fd5b600080fdfe608060408181526004918236101561002a575b505050361561002057600080fd5b6100286109fc565b005b600092833560e01c91826306fdde031461061757508163095ea7b3146105ed57816318160ddd146105ce57816323b872dd146105045781632e1a7d4d146103c5578163313ce567146103a9578163395093511461035957816370a082311461032257816395d89b4114610203578163a457c2d71461015e57508063a9059cbb1461012e578063d0e30db0146101145763dd62ed3e146100c95780610012565b34610110578060031936011261011057806020926100e5610738565b6100ed610753565b6001600160a01b0391821683526001865283832091168252845220549051908152f35b5080fd5b828060031936011261012b576101286109fc565b80f35b80fd5b503461011057806003193601126101105760209061015761014d610738565b602435903361078c565b5160018152f35b9050823461012b578260031936011261012b57610179610738565b918360243592338152600160205281812060018060a01b03861682526020522054908282106101b25760208561015785850387336108fa565b608490602086519162461bcd60e51b8352820152602560248201527f45524332303a2064656372656173656420616c6c6f77616e63652062656c6f77604482015264207a65726f60d81b6064820152fd5b838334610110578160031936011261011057805190828454600181811c90808316928315610318575b6020938484108114610305578388529081156102e95750600114610294575b505050829003601f01601f191682019267ffffffffffffffff841183851017610281575082918261027d9252826106ef565b0390f35b634e487b7160e01b815260418552602490fd5b8787529192508591837f8a35acfbc15ff81a39ae7d344fd709f28e8600b4aa8c65c6b64bfe7fe36bd19b5b8385106102d5575050505083010185808061024b565b8054888601830152930192849082016102bf565b60ff1916878501525050151560051b840101905085808061024b565b634e487b7160e01b895260228a52602489fd5b91607f169161022c565b5050346101105760203660031901126101105760209181906001600160a01b0361034a610738565b16815280845220549051908152f35b5050346101105780600319360112610110576101576020926103a261037c610738565b338352600186528483206001600160a01b03821684528652918490205460243590610769565b90336108fa565b5050346101105781600319360112610110576020905160128152f35b905034610500576020806003193601126104fc5781359133156104b1573385528482528385205490838210610463575084838180959481958295338452838352038883205582600254036002557fddf252ad1be2c89b69c2b068fc378daa952ba7f163c4a11628f55a4df523b3ef8851918483523392a381811561045a575b3390f115610450575080f35b51903d90823e3d90fd5b506108fc610444565b845162461bcd60e51b8152908101839052602260248201527f45524332303a206275726e20616d6f756e7420657863656564732062616c616e604482015261636560f01b6064820152608490fd5b60849184519162461bcd60e51b8352820152602160248201527f45524332303a206275726e2066726f6d20746865207a65726f206164647265736044820152607360f81b6064820152fd5b8380fd5b8280fd5b8391503461011057606036600319011261011057610520610738565b610528610753565b91846044359460018060a01b038416815260016020528181203382526020522054906000198203610562575b60208661015787878761078c565b84821061058b575091839161058060209695610157950333836108fa565b919394819350610554565b606490602087519162461bcd60e51b8352820152601d60248201527f45524332303a20696e73756666696369656e7420616c6c6f77616e63650000006044820152fd5b5050346101105781600319360112610110576020906002549051908152f35b50503461011057806003193601126101105760209061015761060d610738565b60243590336108fa565b8490843461050057826003193601126105005782600354600181811c908083169283156106e5575b6020938484108114610305578388529081156102e9575060011461068f57505050829003601f01601f191682019267ffffffffffffffff841183851017610281575082918261027d9252826106ef565b600387529192508591837fc2575a0e9e593c00f959f8c92f12db2869c3395a3b0502d05e2516446f71f85b5b8385106106d1575050505083010185808061024b565b8054888601830152930192849082016106bb565b91607f169161063f565b6020808252825181830181905290939260005b82811061072457505060409293506000838284010152601f8019910116010190565b818101860151848201604001528501610702565b600435906001600160a01b038216820361074e57565b600080fd5b602435906001600160a01b038216820361074e57565b9190820180921161077657565b634e487b7160e01b600052601160045260246000fd5b6001600160a01b039081169182156108a757169182156108565760008281528060205260408120549180831061080257604082827fddf252ad1be2c89b69c2b068fc378daa952ba7f163c4a11628f55a4df523b3ef958760209652828652038282205586815220818154019055604051908152a3565b60405162461bcd60e51b815260206004820152602660248201527f45524332303a207472616e7366657220616d6f756e7420657863656564732062604482015265616c616e636560d01b6064820152608490fd5b60405162461bcd60e51b815260206004820152602360248201527f45524332303a207472616e7366657220746f20746865207a65726f206164647260448201526265737360e81b6064820152608490fd5b60405162461bcd60e51b815260206004820152602560248201527f45524332303a207472616e736665722066726f6d20746865207a65726f206164604482015264647265737360d81b6064820152608490fd5b6001600160a01b039081169182156109ab571691821561095b5760207f8c5be1e5ebec7d5bd14f71427d1e84f3dd0314c0f7b2291e5b200ac8c7c3b925918360005260018252604060002085600052825280604060002055604051908152a3565b60405162461bcd60e51b815260206004820152602260248201527f45524332303a20617070726f766520746f20746865207a65726f206164647265604482015261737360f01b6064820152608490fd5b60405162461bcd60e51b8152602060048201526024808201527f45524332303a20617070726f76652066726f6d20746865207a65726f206164646044820152637265737360e01b6064820152608490fd5b3315610a5557610a0e34600254610769565b600255336000526000602052604060002034815401905560405134815260007fddf252ad1be2c89b69c2b068fc378daa952ba7f163c4a11628f55a4df523b3ef60203393a3565b60405162461bcd60e51b815260206004820152601f60248201527f45524332303a206d696e7420746f20746865207a65726f2061646472657373006044820152606490fdfea2646970667358221220026f0988ac9ebca2f59dbd6556ce1505926507be2616a8e58acedad82b8717cc64736f6c63430008140033",
  "linkReferences": {},
  "deployedLinkReferences": {}
}