{
  "_format": "hh-sol-artifact-1",
  "contractName": "KortanaTokenFactory",
  "sourceName": "contracts/factory/KortanaTokenFactory.sol",
  "abi": [
    {
      "anonymous": false,
      "inputs": [
        {
          "indexed": true,
          "internalType": "address",
          "name": "tokenAddress",
          "type": "address"
        },
        {
          "indexed": true,
          "internalType": "address",
          "name": "creator",
          "type": "address"
        },
        {
          "indexed": false,
          "internalType": "string",
          "name": "name",
          "type": "string"
        },
        {
          "indexed": false,
          "internalType": "string",
          "name": "symbol",
          "type": "string"
        },
        {
          "indexed": false,
          "internalType": "uint256",
          "name": "totalSupply",
          "type": "uint256"
        }
      ],
      "name": "TokenCreated",
      "type": "event"
    },
    {
      "inputs": [
        {
          "internalType": "uint256",
          "name": "",
          "type": "uint256"
        }
      ],
      "name": "allTokens",
      "outputs": [
        {
          "internalType": "address",
          "name": "",
          "type": "address"
        }
      ],
      "stateMutability": "view",
      "type": "function"
    },
    {
      "inputs": [
        {
          "internalType": "string",
          "name": "name",
          "type": "string"
        },
        {
          "internalType": "string",
          "name": "symbol",
          "type": "string"
        },
        {
          "internalType": "uint8",
          "name": "decimals",
          "type": "uint8"
        },
        {
          "internalType": "uint256",
          "name": "totalSupply",
          "type": "uint256"
        }
      ],
      "name": "createToken",
      "outputs": [
        {
          "internalType": "address",
          "name": "tokenAddress",
          "type": "address"
        }
      ],
      "stateMutability": "nonpayable",
      "type": "function"
    },
    {
      "inputs": [],
      "name": "getAllTokens",
      "outputs": [
        {
          "internalType": "address[]",
          "name": "",
          "type": "address[]"
        }
      ],
      "stateMutability": "view",
      "type": "function"
    },
    {
      "inputs": [
        {
          "internalType": "address",
          "name": "creator",
          "type": "address"
        }
      ],
      "name": "getTokensByCreator",
      "outputs": [
        {
          "internalType": "address[]",
          "name": "",
          "type": "address[]"
        }
      ],
      "stateMutability": "view",
      "type": "function"
    },
    {
      "inputs": [
        {
          "internalType": "address",
          "name": "",
          "type": "address"
        },
        {
          "internalType": "uint256",
          "name": "",
          "type": "uint256"
        }
      ],
      "name": "tokensByCreator",
      "outputs": [
        {
          "internalType": "address",
          "name": "",
          "type": "address"
        }
      ],
      "stateMutability": "view",
      "type": "function"
    },
    {
      "inputs": [],
      "name": "totalTokens",
      "outputs": [
        {
          "internalType": "uint256",
          "name": "",
          "type": "uint256"
        }
      ],
      "stateMutability": "view",
      "type": "function"
    }
  ],
  "bytecode": "0x6080806040523461001657611734908161001c8239f35b600080fdfe604060808152600490813610156200001657600080fd5b600091823560e01c908163210f5dda14620002615781632a5c792a14620001da578163634282af1462000182575080637e1c0c091462000164578063d5c7127514620000d15763d80d03a2146200006c57600080fd5b34620000cd5780600319360112620000cd5762000088620005a2565b6001600160a01b039081168352600160205281832080546024359490851015620000ca5750602093620000bb9162000573565b92905490519260031b1c168152f35b80fd5b5080fd5b5034620000cd576020908160031936011262000160576001600160a01b039283620000fb620005a2565b1681526001808452828220948351908195808854938481520197855280852094915b838310620001485762000144888862000139828d038362000493565b51918291826200052d565b0390f35b8554811689529781019794840194918401916200011d565b8280fd5b5034620000cd5781600319360112620000cd57602091549051908152f35b9050346200016057602036600319011262000160573582548110156200016057826020935260018060a01b03907f290decd9548b62a8d60345a988386fc84ba6bc95484008f6362f93160ef3e5630154169051908152f35b828434620000ca5780600319360112620000ca578151815480825282805260208083019492937f290decd9548b62a8d60345a988386fc84ba6bc95484008f6362f93160ef3e56392915b828210620002405762000144868662000139828b038362000493565b83546001600160a01b03168752958601956001938401939091019062000224565b838334620000cd576080366003190112620000cd5767ffffffffffffffff83358181116200048f57620002989036908601620004cc565b6024358281116200048b57620002b29036908701620004cc565b6044359260ff84168094036200048757606435938551916111038084019184831090831117620004745790839291620005fc843960a081526200030c620002fd60a0830188620005b9565b828103602084015286620005b9565b9188820152866060820152608033910152039086f080156200046a5785546001600160a01b039182169668010000000000000000918281101562000457576001810180835581101562000444577f290decd9548b62a8d60345a988386fc84ba6bc95484008f6362f93160ef3e56301886bffffffffffffffffffffffff60a01b8254161790553381526001602052868120908154928310156200043157506020985092879492620003e9837f6e6ae68e7d7d45fbd855c40d1eaafa8de46c5fbec3ee26f1af88730e400bc92c966001620004209601815562000573565b819291549060031b9188831b921b191617905562000412875193606085526060850190620005b9565b908382038a850152620005b9565b93858201528033940390a351908152f35b634e487b7160e01b815260418a52602490fd5b634e487b7160e01b825260328a52602482fd5b634e487b7160e01b825260418a52602482fd5b84513d87823e3d90fd5b634e487b7160e01b895260418a52602489fd5b8580fd5b8480fd5b8380fd5b90601f8019910116810190811067ffffffffffffffff821117620004b657604052565b634e487b7160e01b600052604160045260246000fd5b81601f82011215620005285780359067ffffffffffffffff8211620004b6576040519262000505601f8401601f19166020018562000493565b828452602083830101116200052857816000926020809301838601378301015290565b600080fd5b6020908160408183019282815285518094520193019160005b82811062000555575050505090565b83516001600160a01b03168552938101939281019260010162000546565b80548210156200058c5760005260206000200190600090565b634e487b7160e01b600052603260045260246000fd5b600435906001600160a01b03821682036200052857565b919082519283825260005b848110620005e6575050826000602080949584010152601f8019910116010190565b602081830181015184830182015201620005c456fe608060405234620004a65762001103803803806200001d81620004ab565b928339810160a082820312620004a65781516001600160401b038111620004a657816200004c918401620004d1565b602083015190916001600160401b038211620004a6576200006f918401620004d1565b91604081015160ff81168103620004a6576060820151608090920151926001600160a01b0384168403620004a65780516001600160401b038111620003a157600391825490600182811c921680156200049b575b6020831014620004855781601f8493116200042d575b50602090601f8311600114620003c357600092620003b7575b50508160011b9160001990841b1c19161781555b8451906001600160401b038211620003a1576004958654600181811c9116801562000396575b602082101462000381579081601f8594931162000327575b50602090601f8411600114620002b957600093620002ad575b50508260011b92600019911b1c19161784555b6200017b3362000543565b6005805460ff60a01b191660a083901b60ff60a01b16179055604d60ff8216116200023f5760ff16600a0a9081810291818304149015171562000298576001600160a01b0382161562000254576002548181018091116200023f576002556001600160a01b038216600081815260208181526040808320805486019055519384526200022f9550919290917fddf252ad1be2c89b69c2b068fc378daa952ba7f163c4a11628f55a4df523b3ef91a362000543565b604051610b7690816200058d8239f35b601184634e487b7160e01b6000525260246000fd5b60405162461bcd60e51b8152602081850152601f60248201527f45524332303a206d696e7420746f20746865207a65726f2061646472657373006044820152606490fd5b601183634e487b7160e01b6000525260246000fd5b0151915038806200015d565b6000898152602081209450601f198616905b8181106200030e575090856001969594939210620002f3575b50505050811b01845562000170565b01519060f884600019921b161c1916905538808080620002e4565b92946020600181928886015181550196019301620002cb565b90919250876000526020600020601f850160051c8101916020861062000376575b90601f86959493920160051c01905b81811062000366575062000144565b6000815585945060010162000357565b909150819062000348565b602288634e487b7160e01b6000525260246000fd5b90607f16906200012c565b634e487b7160e01b600052604160045260246000fd5b015190503880620000f2565b6000858152602081209350601f198516905b818110620004145750908460019594939210620003fb575b505050811b01815562000106565b015160001983861b60f8161c19169055388080620003ed565b92936020600181928786015181550195019301620003d5565b909150836000526020600020601f840160051c810191602085106200047a575b90601f859493920160051c01905b8181106200046a5750620000d9565b600081558493506001016200045b565b90915081906200044d565b634e487b7160e01b600052602260045260246000fd5b91607f1691620000c3565b600080fd5b6040519190601f01601f191682016001600160401b03811183821017620003a157604052565b919080601f84011215620004a65782516001600160401b038111620003a15760209062000507601f8201601f19168301620004ab565b92818452828287010111620004a65760005b8181106200052f57508260009394955001015290565b858101830151848201840152820162000519565b600580546001600160a01b039283166001600160a01b0319821681179092559091167f8be0079c531659141344cd1fd0a4f28419497f9722a3daafe3b4186f6b6457e0600080a356fe6080604081815260048036101561001557600080fd5b600092833560e01c90816306fdde03146106e657508063095ea7b3146106bc57806318160ddd1461069d57806323b872dd146105d3578063313ce567146105ae578063395093511461055e57806340c10f191461049857806370a0823114610461578063715018a6146104045780638da5cb5b146103db57806395d89b41146102bb578063a457c2d714610214578063a9059cbb146101e3578063dd62ed3e146101965763f2fde38b146100c857600080fd5b34610192576020366003190112610192576100e1610824565b906100ea610855565b6001600160a01b03918216928315610140575050600554826bffffffffffffffffffffffff60a01b821617600555167f8be0079c531659141344cd1fd0a4f28419497f9722a3daafe3b4186f6b6457e08380a380f35b906020608492519162461bcd60e51b8352820152602660248201527f4f776e61626c653a206e6577206f776e657220697320746865207a65726f206160448201526564647265737360d01b6064820152fd5b8280fd5b5050346101df57806003193601126101df57806020926101b4610824565b6101bc61083f565b6001600160a01b0391821683526001865283832091168252845220549051908152f35b5080fd5b5050346101df57806003193601126101df5760209061020d610203610824565b60243590336108d0565b5160018152f35b5082346102b857826003193601126102b85761022e610824565b918360243592338152600160205281812060018060a01b03861682526020522054908282106102675760208561020d8585038733610a3e565b608490602086519162461bcd60e51b8352820152602560248201527f45524332303a2064656372656173656420616c6c6f77616e63652062656c6f77604482015264207a65726f60d81b6064820152fd5b80fd5b509190346101df57816003193601126101df57805190828454600181811c908083169283156103d1575b60209384841081146103be578388529081156103a2575060011461034d575b505050829003601f01601f191682019267ffffffffffffffff84118385101761033a57508291826103369252826107db565b0390f35b634e487b7160e01b815260418552602490fd5b8787529192508591837f8a35acfbc15ff81a39ae7d344fd709f28e8600b4aa8c65c6b64bfe7fe36bd19b5b83851061038e5750505050830101388080610304565b805488860183015293019284908201610378565b60ff1916878501525050151560051b8401019050388080610304565b634e487b7160e01b895260228a52602489fd5b91607f16916102e5565b5050346101df57816003193601126101df5760055490516001600160a01b039091168152602090f35b83346102b857806003193601126102b85761041d610855565b600580546001600160a01b0319811690915581906001600160a01b03167f8be0079c531659141344cd1fd0a4f28419497f9722a3daafe3b4186f6b6457e08280a380f35b5050346101df5760203660031901126101df5760209181906001600160a01b03610489610824565b16815280845220549051908152f35b5090346101925780600319360112610192576104b2610824565b90602435916104bf610855565b6001600160a01b031692831561051c57506020827fddf252ad1be2c89b69c2b068fc378daa952ba7f163c4a11628f55a4df523b3ef9261050287956002546108ad565b60025585855284835280852082815401905551908152a380f35b6020606492519162461bcd60e51b8352820152601f60248201527f45524332303a206d696e7420746f20746865207a65726f2061646472657373006044820152fd5b5050346101df57806003193601126101df5761020d6020926105a7610581610824565b338352600186528483206001600160a01b038216845286529184902054602435906108ad565b9033610a3e565b5050346101df57816003193601126101df5760209060ff60055460a01c169051908152f35b508290346101df5760603660031901126101df576105ef610824565b6105f761083f565b91846044359460018060a01b038416815260016020528181203382526020522054906000198203610631575b60208661020d8787876108d0565b84821061065a575091839161064f6020969561020d95033383610a3e565b919394819350610623565b606490602087519162461bcd60e51b8352820152601d60248201527f45524332303a20696e73756666696369656e7420616c6c6f77616e63650000006044820152fd5b5050346101df57816003193601126101df576020906002549051908152f35b5050346101df57806003193601126101df5760209061020d6106dc610824565b6024359033610a3e565b849150833461019257826003193601126101925782600354600181811c908083169283156107d1575b60209384841081146103be578388529081156107b5575060011461075f57505050829003601f01601f191682019267ffffffffffffffff84118385101761033a57508291826103369252826107db565b600387529192508591837fc2575a0e9e593c00f959f8c92f12db2869c3395a3b0502d05e2516446f71f85b5b8385106107a15750505050830101858080610304565b80548886018301529301928490820161078b565b60ff1916878501525050151560051b8401019050858080610304565b91607f169161070f565b6020808252825181830181905290939260005b82811061081057505060409293506000838284010152601f8019910116010190565b8181018601518482016040015285016107ee565b600435906001600160a01b038216820361083a57565b600080fd5b602435906001600160a01b038216820361083a57565b6005546001600160a01b0316330361086957565b606460405162461bcd60e51b815260206004820152602060248201527f4f776e61626c653a2063616c6c6572206973206e6f7420746865206f776e65726044820152fd5b919082018092116108ba57565b634e487b7160e01b600052601160045260246000fd5b6001600160a01b039081169182156109eb571691821561099a5760008281528060205260408120549180831061094657604082827fddf252ad1be2c89b69c2b068fc378daa952ba7f163c4a11628f55a4df523b3ef958760209652828652038282205586815220818154019055604051908152a3565b60405162461bcd60e51b815260206004820152602660248201527f45524332303a207472616e7366657220616d6f756e7420657863656564732062604482015265616c616e636560d01b6064820152608490fd5b60405162461bcd60e51b815260206004820152602360248201527f45524332303a207472616e7366657220746f20746865207a65726f206164647260448201526265737360e81b6064820152608490fd5b60405162461bcd60e51b815260206004820152602560248201527f45524332303a207472616e736665722066726f6d20746865207a65726f206164604482015264647265737360d81b6064820152608490fd5b6001600160a01b03908116918215610aef5716918215610a9f5760207f8c5be1e5ebec7d5bd14f71427d1e84f3dd0314c0f7b2291e5b200ac8c7c3b925918360005260018252604060002085600052825280604060002055604051908152a3565b60405162461bcd60e51b815260206004820152602260248201527f45524332303a20617070726f766520746f20746865207a65726f206164647265604482015261737360f01b6064820152608490fd5b60405162461bcd60e51b8152602060048201526024808201527f45524332303a20617070726f76652066726f6d20746865207a65726f206164646044820152637265737360e01b6064820152608490fdfea2646970667358221220fd4c9871a7cdf235ed634255d298f31c6ec362a54c73c2f81ef512077176411564736f6c63430008140033a26469706673582212209651f66b5050db9f042a153045b5797eff204d710f2ce28ef093b7d549078d6064736f6c63430008140033",
  "linkReferences": {},
  "deployedLinkReferences": {}
}