{
  "_format": "hh-sol-artifact-1",
  "contractName": "SovereignHyperSwap",
  "sourceName": "contracts/sovereign/SovereignHyperSwap.sol",
  "abi": [
    {
      "inputs": [
        {
          "internalType": "address",
          "name": "_udnr",
          "type": "address"
        },
        {
          "internalType": "address",
          "name": "_usdc",
          "type": "address"
        }
      ],
      "stateMutability": "nonpayable",
      "type": "constructor"
    },
    {
      "inputs": [
        {
          "internalType": "uint256",
          "name": "amountUSDC",
          "type": "uint256"
        }
      ],
      "name": "buyDNR",
      "outputs": [],
      "stateMutability": "nonpayable",
      "type": "function"
    },
    {
      "inputs": [
        {
          "internalType": "uint256",
          "name": "amountDNR",
          "type": "uint256"
        }
      ],
      "name": "buyUSDC",
      "outputs": [],
      "stateMutability": "nonpayable",
      "type": "function"
    },
    {
      "inputs": [],
      "name": "rate",
      "outputs": [
        {
          "internalType": "uint256",
          "name": "",
          "type": "uint256"
        }
      ],
      "stateMutability": "view",
      "type": "function"
    },
    {
      "inputs": [],
      "name": "udnr",
      "outputs": [
        {
          "internalType": "address",
          "name": "",
          "type": "address"
        }
      ],
      "stateMutability": "view",
      "type": "function"
    },
    {
      "inputs": [],
      "name": "usdc",
      "outputs": [
        {
          "internalType": "address",
          "name": "",
          "type": "address"
        }
      ],
      "stateMutability": "view",
      "type": "function"
    }
  ],
  "bytecode": "0x60c03461009b57601f6104d238819003918201601f19168301916001600160401b038311848410176100a057808492604094855283398101031261009b57610052602061004b836100b6565b92016100b6565b9061017e60005560805260a05260405161040790816100cb823960805181818160aa015281816101d001526102bd015260a0518181816101120152818161024d01526103330152f35b600080fd5b634e487b7160e01b600052604160045260246000fd5b51906001600160a01b038216820361009b5756fe60806040908082526004918236101561001757600080fd5b600091823560e01c9081632c4e722e14610362575080633e413bee1461031f5780634d91cd47146101ff578063e0314865146101bc5763fc60273c1461005c57600080fd5b346101b857602090816003193601126101b45780516323b872dd60e01b8152338582019081523060208201528535604082018190526001600160a01b039290918590829081900360600181897f000000000000000000000000000000000000000000000000000000000000000088165af180156101aa5761018d575b50845490811561017a57835163a9059cbb60e01b8152338189019081529290910460208301529291849184919082908890829060400103927f0000000000000000000000000000000000000000000000000000000000000000165af19081156101715750610144578280f35b8161016392903d1061016a575b61015b818361037c565b8101906103b4565b5081808280f35b503d610151565b513d85823e3d90fd5b634e487b7160e01b865260128752602486fd5b6101a390853d871161016a5761015b818361037c565b50386100d8565b84513d88823e3d90fd5b8280fd5b5080fd5b50346101b857816003193601126101b857517f00000000000000000000000000000000000000000000000000000000000000006001600160a01b03168152602090f35b50346101b857602090816003193601126101b45780516323b872dd60e01b815233858201908152306020820152853560408201819052916001600160a01b03918590829081900360600181897f000000000000000000000000000000000000000000000000000000000000000087165af180156101aa57610302575b508454918281029281840414901517156102ef57825163a9059cbb60e01b815233818801908152602081019390935292918491849182908890829060400103927f0000000000000000000000000000000000000000000000000000000000000000165af19081156101715750610144578280f35b634e487b7160e01b855260118652602485fd5b61031890853d871161016a5761015b818361037c565b503861027b565b50346101b857816003193601126101b857517f00000000000000000000000000000000000000000000000000000000000000006001600160a01b03168152602090f35b8390346101b857816003193601126101b857602091548152f35b90601f8019910116810190811067ffffffffffffffff82111761039e57604052565b634e487b7160e01b600052604160045260246000fd5b908160209103126103cc575180151581036103cc5790565b600080fdfea26469706673582212202fb33b11ff75bee10119b7dc44cbf4d05809b9aa2dee952a779c354e720a868864736f6c63430008140033",
  "linkReferences": {},
  "deployedLinkReferences": {}
}