{
  "_format": "hh-sol-artifact-1",
  "contractName": "DebugRouterV3",
  "sourceName": "contracts/debug/DebugRouterV3.sol",
  "abi": [
    {
      "inputs": [],
      "name": "PAIR",
      "outputs": [
        {
          "internalType": "address",
          "name": "",
          "type": "address"
        }
      ],
      "stateMutability": "view",
      "type": "function"
    },
    {
      "inputs": [],
      "name": "probe",
      "outputs": [
        {
          "internalType": "string",
          "name": "",
          "type": "string"
        }
      ],
      "stateMutability": "view",
      "type": "function"
    },
    {
      "inputs": [],
      "name": "probeDetailed",
      "outputs": [
        {
          "internalType": "bool",
          "name": "",
          "type": "bool"
        },
        {
          "internalType": "bytes",
          "name": "",
          "type": "bytes"
        }
      ],
      "stateMutability": "view",
      "type": "function"
    }
  ],
  "bytecode": "0x60808060405234610016576102a7908161001c8239f35b600080fdfe60806040818152600436101561001457600080fd5b600091823560e01c9081635c4df3ca146100a857508063ace3a8a71461007a5763b74af5a91461004357600080fd5b346100765781600319360112610076576100729061005f6101cd565b9051918291602083526020830190610110565b0390f35b5080fd5b5034610076578160031936011261007657602090517385782446b5ac7c4bcce639698042e3ebf46d52428152f35b83915034610076578160031936011261007657630240bc6b60e21b602082019081526004825282916100d981610150565b51907385782446b5ac7c4bcce639698042e3ebf46d52425afa6100726100fd610182565b8351938493151584528060208501528301905b919082519283825260005b84811061013c575050826000602080949584010152601f8019910116010190565b60208183018101518483018201520161011b565b6040810190811067ffffffffffffffff82111761016c57604052565b634e487b7160e01b600052604160045260246000fd5b3d156101c85767ffffffffffffffff903d82811161016c5760405192601f8201601f19908116603f011684019081118482101761016c5760405282523d6000602084013e565b606090565b6000806040516020810190630240bc6b60e21b8252600481526101ef81610150565b51907385782446b5ac7c4bcce639698042e3ebf46d52425afa610210610182565b50156102445760405161022281610150565b601281527153544154494343414c4c5f5355434345535360701b602082015290565b60405161025081610150565b601181527014d510551250d0d0531317d19052531151607a1b60208201529056fea2646970667358221220e7503a3db8c09f8037d588bebb1c692e34e9ad65780c95b2cf253938efc747a164736f6c63430008140033",
  "linkReferences": {},
  "deployedLinkReferences": {}
}