{
  "_format": "hh-sol-artifact-1",
  "contractName": "KortanaDNRWithdrawWrapper",
  "sourceName": "contracts/amm/KortanaDNRWithdrawWrapper.sol",
  "abi": [
    {
      "inputs": [],
      "name": "DEX",
      "outputs": [
        {
          "internalType": "address",
          "name": "",
          "type": "address"
        }
      ],
      "stateMutability": "view",
      "type": "function"
    },
    {
      "inputs": [
        {
          "internalType": "uint256",
          "name": "amount18",
          "type": "uint256"
        }
      ],
      "name": "sell",
      "outputs": [],
      "stateMutability": "nonpayable",
      "type": "function"
    },
    {
      "stateMutability": "payable",
      "type": "receive"
    }
  ],
  "bytecode": "0x6080806040523461001657610182908161001c8239f35b600080fdfe608080604052600436101561001d575b50361561001b57600080fd5b005b600090813560e01c90816380935aa91461011a575063e4849b320361000f57346101175760203660031901126101175780738ebbea445af4cae8a2fa16b184eeb792d424cd45803b1561011457819060646040518094819363f9f5166b60e01b835260043560048401528160248401523060448401525af18015610109576100dd575b50804780159081156100b0575050f35b82809291819282906100d4575b3390f1156100c85780f35b604051903d90823e3d90fd5b506108fc6100bd565b67ffffffffffffffff81116100f557604052386100a0565b634e487b7160e01b82526041600452602482fd5b6040513d84823e3d90fd5b50fd5b80fd5b90503461014857816003193601126101485780738ebbea445af4cae8a2fa16b184eeb792d424cd4560209252f35b5080fdfea2646970667358221220ef8d720ffa07b180f283a64cd30d0d77f99202d559da698b881d54e798c15ff964736f6c63430008140033",
  "linkReferences": {},
  "deployedLinkReferences": {}
}