{
  "_format": "hh-sol-artifact-1",
  "contractName": "SimplePair",
  "sourceName": "contracts/amm/SimplePair.sol",
  "abi": [
    {
      "inputs": [
        {
          "internalType": "address",
          "name": "_t0",
          "type": "address"
        },
        {
          "internalType": "address",
          "name": "_t1",
          "type": "address"
        }
      ],
      "stateMutability": "nonpayable",
      "type": "constructor"
    },
    {
      "inputs": [],
      "name": "reserve0",
      "outputs": [
        {
          "internalType": "uint112",
          "name": "",
          "type": "uint112"
        }
      ],
      "stateMutability": "view",
      "type": "function"
    },
    {
      "inputs": [],
      "name": "reserve1",
      "outputs": [
        {
          "internalType": "uint112",
          "name": "",
          "type": "uint112"
        }
      ],
      "stateMutability": "view",
      "type": "function"
    },
    {
      "inputs": [
        {
          "internalType": "uint256",
          "name": "out0",
          "type": "uint256"
        },
        {
          "internalType": "uint256",
          "name": "out1",
          "type": "uint256"
        },
        {
          "internalType": "address",
          "name": "to",
          "type": "address"
        }
      ],
      "name": "swap",
      "outputs": [],
      "stateMutability": "nonpayable",
      "type": "function"
    },
    {
      "inputs": [],
      "name": "sync",
      "outputs": [],
      "stateMutability": "nonpayable",
      "type": "function"
    },
    {
      "inputs": [],
      "name": "token0",
      "outputs": [
        {
          "internalType": "address",
          "name": "",
          "type": "address"
        }
      ],
      "stateMutability": "view",
      "type": "function"
    },
    {
      "inputs": [],
      "name": "token1",
      "outputs": [
        {
          "internalType": "address",
          "name": "",
          "type": "address"
        }
      ],
      "stateMutability": "view",
      "type": "function"
    }
  ],
  "bytecode": "0x60803461008d57601f61055e38819003918201601f19168301916001600160401b0383118484101761009257808492604094855283398101031261008d57610052602061004b836100a8565b92016100a8565b600080546001600160a01b039384166001600160a01b031991821617909155600180549290931691161790556040516104a190816100bd8239f35b600080fd5b634e487b7160e01b600052604160045260246000fd5b51906001600160a01b038216820361008d5756fe6080604081815260048036101561001557600080fd5b600092833560e01c9081630dfe1681146103f257508063443cb4bc146103ca5780635a76f25e1461039f5780636d9a640a146101d3578063d21220a7146101a65763fff6cae91461006557600080fd5b346101a257826003193601126101a257825482516370a0823160e01b80825230848301526001600160a01b03949290916020918290829060249082908a165afa90811561019857908291889161015e575b506001600160701b031694602460025497876001600160701b03198a1617600255600154169486519586938492835230908301525afa92831561015557508592610123575b50506001600160e01b03199092161760709190911b600160701b600160e01b03161760025580f35b90809250813d831161014e575b61013a8183610416565b8101031261014a575138806100fb565b8380fd5b503d610130565b513d87823e3d90fd5b82819392503d8311610191575b6101758183610416565b8101031261018d575181906001600160701b036100b6565b8680fd5b503d61016b565b84513d89823e3d90fd5b8280fd5b5050346101cf57816003193601126101cf5760015490516001600160a01b039091168152602090f35b5080fd5b50346101a25760603660031901126101a2576001600160a01b039160243560443585843586831683036101cf5780610335575b5050816102ae575b5050828454168151806370a0823160e01b92838252308683015281602460209485935afa90811561019857908291889161015e57506001600160701b031694602460025497876001600160701b03198a1617600255600154169486519586938492835230908301525afa928315610155575085926101235750506001600160e01b03199092161760709190911b600160701b600160e01b03161760025580f35b600154835163a9059cbb60e01b81526001600160a01b03909216858301908152602081810194909452919291839187169082908990829060400103925af1801561032b576102fd575b8061020e565b61031d9060203d8111610324575b6103158183610416565b81019061044e565b50386102f7565b503d61030b565b82513d87823e3d90fd5b8154855163a9059cbb60e01b81526001600160a01b038516888201908152602081810194909452909384928a1691839190829060400103925af1801561019857610381575b8690610206565b6103989060203d8111610324576103158183610416565b503861037a565b5050346101cf57816003193601126101cf576020906001600160701b0360025460701c169051908152f35b5050346101cf57816003193601126101cf576020906001600160701b03600254169051908152f35b8490346101cf57816003193601126101cf5790546001600160a01b03168152602090f35b90601f8019910116810190811067ffffffffffffffff82111761043857604052565b634e487b7160e01b600052604160045260246000fd5b90816020910312610466575180151581036104665790565b600080fdfea2646970667358221220704a83b6b76911c12ccbc66beff8217d741018cecfcaaea3617a6e3636051d8364736f6c63430008140033",
  "linkReferences": {},
  "deployedLinkReferences": {}
}