{
  "_format": "hh-sol-artifact-1",
  "contractName": "KortanaRouter",
  "sourceName": "contracts/amm/KortanaRouter.sol",
  "abi": [
    {
      "inputs": [
        {
          "internalType": "address",
          "name": "_factory",
          "type": "address"
        },
        {
          "internalType": "address",
          "name": "_WDNR",
          "type": "address"
        }
      ],
      "stateMutability": "nonpayable",
      "type": "constructor"
    },
    {
      "inputs": [],
      "name": "WDNR",
      "outputs": [
        {
          "internalType": "address",
          "name": "",
          "type": "address"
        }
      ],
      "stateMutability": "view",
      "type": "function"
    },
    {
      "inputs": [],
      "name": "factory",
      "outputs": [
        {
          "internalType": "address",
          "name": "",
          "type": "address"
        }
      ],
      "stateMutability": "view",
      "type": "function"
    },
    {
      "inputs": [
        {
          "internalType": "uint256",
          "name": "amountIn",
          "type": "uint256"
        },
        {
          "internalType": "address[]",
          "name": "path",
          "type": "address[]"
        }
      ],
      "name": "getAmountsOut",
      "outputs": [
        {
          "internalType": "uint256[]",
          "name": "amounts",
          "type": "uint256[]"
        }
      ],
      "stateMutability": "view",
      "type": "function"
    },
    {
      "inputs": [
        {
          "internalType": "uint256",
          "name": "amountOutMin",
          "type": "uint256"
        },
        {
          "internalType": "address[]",
          "name": "path",
          "type": "address[]"
        },
        {
          "internalType": "address",
          "name": "to",
          "type": "address"
        },
        {
          "internalType": "uint256",
          "name": "deadline",
          "type": "uint256"
        }
      ],
      "name": "swapExactDNRForTokens",
      "outputs": [
        {
          "internalType": "uint256[]",
          "name": "amounts",
          "type": "uint256[]"
        }
      ],
      "stateMutability": "payable",
      "type": "function"
    },
    {
      "inputs": [
        {
          "internalType": "uint256",
          "name": "amountIn",
          "type": "uint256"
        },
        {
          "internalType": "uint256",
          "name": "amountOutMin",
          "type": "uint256"
        },
        {
          "internalType": "address[]",
          "name": "path",
          "type": "address[]"
        },
        {
          "internalType": "address",
          "name": "to",
          "type": "address"
        },
        {
          "internalType": "uint256",
          "name": "deadline",
          "type": "uint256"
        }
      ],
      "name": "swapExactTokensForDNR",
      "outputs": [
        {
          "internalType": "uint256[]",
          "name": "amounts",
          "type": "uint256[]"
        }
      ],
      "stateMutability": "nonpayable",
      "type": "function"
    },
    {
      "stateMutability": "payable",
      "type": "receive"
    }
  ],
  "bytecode": "0x60c0346100a957601f6110d838819003918201601f19168301916001600160401b038311848410176100ae5780849260409485528339810103126100a957610052602061004b836100c4565b92016100c4565b9060805260a052604051610fff90816100d9823960805181818161011801528181610163015281816102210152818161044d0152610935015260a05181818160240152818160a7015281816101f701526104230152f35b600080fd5b634e487b7160e01b600052604160045260246000fd5b51906001600160a01b03821682036100a95756fe60406080815260049081361015610054575b5050361561001e57600080fd5b610052337f00000000000000000000000000000000000000000000000000000000000000006001600160a01b0316146107b4565b005b600091823560e01c9081634a89ffec146103a45781637ebfe0fd14610192578163c45a01551461014e578163d06ca61f146100da575063d2d8d32f0361001157346100d657816003193601126100d657517f00000000000000000000000000000000000000000000000000000000000000006001600160a01b03168152602090f35b5080fd5b82843461014b578160031936011261014b576024359067ffffffffffffffff821161014b57506101479261011461013c923690830161070b565b90357f0000000000000000000000000000000000000000000000000000000000000000610ca4565b905191829182610779565b0390f35b80fd5b5050346100d657816003193601126100d657517f00000000000000000000000000000000000000000000000000000000000000006001600160a01b03168152602090f35b91905060803660031901126103885760243567ffffffffffffffff811161037a576101c0903690840161070b565b6001600160a01b03926044359190848316830361039f576101e54260643510156107d1565b846101ef83610810565b511661021f867f000000000000000000000000000000000000000000000000000000000000000016809214610857565b7f00000000000000000000000000000000000000000000000000000000000000009561024c843489610ca4565b968751600019810190811161038c57906102758a9261026d8735918c610843565b51101561089b565b61027e89610810565b51843b15610388578286918a5192838092630d0e30db60e41b8252895af1801561037e57610361575b50926044916102d0602095856102bc8a610810565b5116866102c88b610833565b511691610bc6565b916102da8b610810565b518a51978896879563a9059cbb60e01b8752169085015260248401525af19081156103575761031f939291610319916101479891610329575b506107b4565b84610930565b5191829182610779565b61034a915060203d8111610350575b61034281836106d1565b8101906108f3565b38610313565b503d610338565b84513d88823e3d90fd5b9161036e819592936106a7565b61037a579290386102a7565b8380fd5b89513d85823e3d90fd5b8280fd5b634e487b7160e01b8a526011855260248afd5b600080fd5b839150346100d65760a03660031901126100d65767ffffffffffffffff916044358381116100d6576103d9903690840161070b565b6001600160a01b03939060643590858216820361037a576103fe4260843510156107d1565b805160001991908281019081116106945761041a889183610843565b51169061044b887f000000000000000000000000000000000000000000000000000000000000000016809314610857565b7f000000000000000000000000000000000000000000000000000000000000000061047882893583610ca4565b988951858101908111610681578897959391928c61026d9a9896946104a48e9460249d8e359187610843565b6104d36104cd826104b488610810565b511694836104c189610810565b5116846102c88a610833565b94610810565b519151936323b872dd60e01b85528d3390860152168b84015260448301528160648160209b8c945af180156106775790610516929161065a575b5030908b610930565b88518281019081116106485761052c908a610843565b51813b15610644578590888a838e519586948593632e1a7d4d60e01b85528401525af1801561063a57610627575b508751908101908111610615578380809361057682948c610843565b51905af1913d1561060e573d9182116105fa5787519161059f601f8201601f19168601846106d1565b8252833d92013e5b156105b9578451806101478682610779565b601c929350606494519362461bcd60e51b85528401528201527f4b4f5254414e413a204554485f5452414e534645525f4641494c4544000000006044820152fd5b84604187634e487b7160e01b600052526000fd5b50506105a7565b634e487b7160e01b8452601187528584fd5b610633909491946106a7565b928961055a565b8a513d87823e3d90fd5b8580fd5b634e487b7160e01b8652601189528786fd5b61067090893d8b116103505761034281836106d1565b508c61050d565b8c513d89823e3d90fd5b634e487b7160e01b895260118a52602489fd5b634e487b7160e01b865260118752602486fd5b67ffffffffffffffff81116106bb57604052565b634e487b7160e01b600052604160045260246000fd5b90601f8019910116810190811067ffffffffffffffff8211176106bb57604052565b67ffffffffffffffff81116106bb5760051b60200190565b81601f8201121561039f57803591610722836106f3565b9261073060405194856106d1565b808452602092838086019260051b82010192831161039f578301905b82821061075a575050505090565b81356001600160a01b038116810361039f57815290830190830161074c565b6020908160408183019282815285518094520193019160005b8281106107a0575050505090565b835185529381019392810192600101610792565b156107bb57565b634e487b7160e01b600052600160045260246000fd5b156107d857565b60405162461bcd60e51b815260206004820152601060248201526f12d3d4951053904e881156141254915160821b6044820152606490fd5b80511561081d5760200190565b634e487b7160e01b600052603260045260246000fd5b80516001101561081d5760400190565b805182101561081d5760209160051b010190565b1561085e57565b60405162461bcd60e51b81526020600482015260156024820152740969ea4a8829c827440929cac82989288bea082a89605b1b6044820152606490fd5b156108a257565b60405162461bcd60e51b815260206004820152602360248201527f4b4f5254414e413a20494e53554646494349454e545f4f55545055545f414d4f60448201526215539560ea1b6064820152608490fd5b9081602091031261039f5751801515810361039f5790565b600019811461091a5760010190565b634e487b7160e01b600052601160045260246000fd5b9092917f000000000000000000000000000000000000000000000000000000000000000060005b8551600019810190811161091a57811015610af9576001600160a01b038061097f8389610843565b511690600183019182841161091a5781610999848b610843565b511690826109b26109aa8484610b01565b50958a610843565b5194168103610af157600093915b8a51600119810190811161091a578490871015610ae557506002860180871161091a578491610a00836109f78f94610a0895610843565b5116828b610bc6565b935b89610bc6565b169160409384519260209283850185811067ffffffffffffffff8211176106bb57875260008552853b1561039f57865163022c0d9f60e01b8152600481019890985260248801521660448601526080606486015281516084860181905291928592909160005b828110610ace575050600080945083918260a49183838284010152601f801991011681010301925af1908115610ac4575090610ab09291610ab5575b5061090b565b610957565b610abe906106a7565b38610aaa565b513d6000823e3d90fd5b80860182015188820160a401528794508101610a6e565b90610a08908993610a02565b6000916109c0565b505050509050565b90916001600160a01b0391828416838216808214610b75571015610b7057925b91831615610b2b57565b60405162461bcd60e51b815260206004820152601c60248201527f4b6f7274616e614c6962726172793a205a45524f5f41444452455353000000006044820152606490fd5b610b21565b60405162461bcd60e51b815260206004820152602360248201527f4b6f7274616e614c6962726172793a204944454e544943414c5f41444452455360448201526253455360e81b6064820152608490fd5b60405163e6a4390560e01b81526001600160a01b03928316600482015292821660248401529192916020908490604490829085165afa928315610c9857600093610c5a575b50821615610c1557565b60405162461bcd60e51b815260206004820152601e60248201527f4b6f7274616e614c6962726172793a20504149525f4e4f545f464f554e4400006044820152606490fd5b6020939193813d8211610c90575b81610c75602093836106d1565b810103126100d6575190838216820361014b57509138610c0b565b3d9150610c68565b6040513d6000823e3d90fd5b909291926002845110610f84578351610cbc816106f3565b92604091610ccc835195866106d1565b808552610cdb601f19916106f3565b019260209336858701378490610cf086610810565b5260005b8751600019810190811161091a57811015610f7b576001600160a01b0380610d1c838b610843565b511690600183019182841161091a5781610d36848d610843565b51169082610d50610d478484610b01565b5093838a610bc6565b169088519384938493630240bc6b60e21b8552606094859160049788915afa958615610f70576000948597610f27575b50501603610f215791905b610d95858b610843565b518015610ecc578315801580610ec3575b15610e71576103e5808302928084048203610e5c57850202938285041482151715610e47576103e8808602958604141715610e32578301809311610e1d578215610e085750610e03939291610dfd91049189610843565b5261090b565b610cf4565b601290634e487b7160e01b6000525260246000fd5b601190634e487b7160e01b6000525260246000fd5b601182634e487b7160e01b6000525260246000fd5b601183634e487b7160e01b6000525260246000fd5b601185634e487b7160e01b6000525260246000fd5b895162461bcd60e51b81528084018c9052602660248201527f4b6f7274616e614c6962726172793a20494e53554646494349454e545f4c495160448201526555494449545960d01b6064820152608490fd5b50831515610da6565b885162461bcd60e51b81528083018b9052602960248201527f4b6f7274616e614c6962726172793a20494e53554646494349454e545f494e50604482015268155517d05353d5539560ba1b6064820152608490fd5b90610d8b565b908095929750813d8311610f69575b610f4081836106d1565b8101031261014b578351908b8d86015195015163ffffffff81160361014b575092943880610d80565b503d610f36565b8b513d6000823e3d90fd5b50955050505050565b60405162461bcd60e51b815260206004820152601c60248201527f4b6f7274616e614c6962726172793a20494e56414c49445f50415448000000006044820152606490fdfea2646970667358221220094f7e65578c2c5aff4aa0c6174f551beb24b2bfe372cfa30fa0c49977fd31c164736f6c63430008140033",
  "linkReferences": {},
  "deployedLinkReferences": {}
}