{
  "_format": "hh-sol-artifact-1",
  "contractName": "KortanaLiquidityManager",
  "sourceName": "contracts/amm/KortanaLiquidityManager.sol",
  "abi": [
    {
      "inputs": [
        {
          "internalType": "address",
          "name": "_factory",
          "type": "address"
        },
        {
          "internalType": "address",
          "name": "_WDNR",
          "type": "address"
        }
      ],
      "stateMutability": "nonpayable",
      "type": "constructor"
    },
    {
      "inputs": [],
      "name": "WDNR",
      "outputs": [
        {
          "internalType": "address",
          "name": "",
          "type": "address"
        }
      ],
      "stateMutability": "view",
      "type": "function"
    },
    {
      "inputs": [
        {
          "internalType": "address",
          "name": "token",
          "type": "address"
        },
        {
          "internalType": "uint256",
          "name": "amountTokenDesired",
          "type": "uint256"
        },
        {
          "internalType": "uint256",
          "name": "amountTokenMin",
          "type": "uint256"
        },
        {
          "internalType": "uint256",
          "name": "amountDNRMin",
          "type": "uint256"
        },
        {
          "internalType": "address",
          "name": "to",
          "type": "address"
        },
        {
          "internalType": "uint256",
          "name": "deadline",
          "type": "uint256"
        }
      ],
      "name": "addLiquidityDNR",
      "outputs": [
        {
          "internalType": "uint256",
          "name": "amountToken",
          "type": "uint256"
        },
        {
          "internalType": "uint256",
          "name": "amountDNR",
          "type": "uint256"
        },
        {
          "internalType": "uint256",
          "name": "liquidity",
          "type": "uint256"
        }
      ],
      "stateMutability": "payable",
      "type": "function"
    },
    {
      "inputs": [],
      "name": "factory",
      "outputs": [
        {
          "internalType": "address",
          "name": "",
          "type": "address"
        }
      ],
      "stateMutability": "view",
      "type": "function"
    },
    {
      "stateMutability": "payable",
      "type": "receive"
    }
  ],
  "bytecode": "0x60c03461008657601f61095638819003918201601f19168301916001600160401b0383118484101761008b57808492604094855283398101031261008657610052602061004b836100a1565b92016100a1565b9060805260a0526040516108a090816100b6823960805181818160ad0152610121015260a051818181606601526101440152f35b600080fd5b634e487b7160e01b600052604160045260246000fd5b51906001600160a01b03821682036100865756fe6080604081815260049182361015610022575b505050361561002057600080fd5b005b600092833560e01c91826374fa1337146100dc5750508063c45a0155146100995763d2d8d32f146100535780610012565b34610095578160031936011261009557517f00000000000000000000000000000000000000000000000000000000000000006001600160a01b03168152602090f35b5080fd5b5034610095578160031936011261009557517f00000000000000000000000000000000000000000000000000000000000000006001600160a01b03168152602090f35b848460c0366003190112610095576001600160a01b03938035858116918282036107a957602495863593608435918983168093036104ae574260a435106107855750887f000000000000000000000000000000000000000000000000000000000000000016987f0000000000000000000000000000000000000000000000000000000000000000948a86895192878463e6a4390560e01b9485825281808560209e8f968301916101a49290602090939293604083019460018060a01b03809216845216910152565b03915afa93841561075c578e8d8a8e8d948399610766575b50898916156106f1575b50505050508482169d8e87146106a2578e87101561069b5785825b16938415610657578c519081526001600160a01b03928316818b0190815292909316602083015289918391908290819060400103915afa9081156105de579084918c9161062a575b501680156105e857606087918b5192838092630240bc6b60e21b82525afa9182156105de578b918c9361058c575b50850361058757905b816104cf57505091858a9b9260648b9c9695349a9d8e955b8d5196879586946323b872dd60e01b86528d339087015216809b85015260448401525af180156104a4576104b2575b50803b156104ae578651630d0e30db60e41b8152888186818a865af180156104a457610477575b50848660448c8b8b51958694859363a9059cbb60e01b85528a8c8601528401525af190811561046d57908a92918991610440575b501561042e5791849188938851998a9384926335313c2160e11b8452888401525af19586156104225781966103ef575b5083341161034e575b5050606095508251948552840152820152f35b8334033481116103dd578180808093335af1903d156103d7573d9067ffffffffffffffff82116103c55786519161038e601f8201601f19168701846107ad565b8252843d92013e5b156103a1578061033b565b60018760649386519362461bcd60e51b8552840152820152602960f91b6044820152fd5b634e487b7160e01b8152604184528990fd5b50610396565b5060118892634e487b7160e01b835252fd5b9095508281813d831161041b575b61040781836107ad565b8101031261041757519488610332565b8580fd5b503d6103fd565b508451903d90823e3d90fd5b50634e487b7160e01b87526001835286fd5b6104609150863d8811610466575b61045881836107ad565b810190610852565b8b610302565b503d61044e565b87513d8a823e3d90fd5b67ffffffffffffffff8199929911610492578752968a6102ce565b634e487b7160e01b8252604185528a82fd5b88513d8b823e3d90fd5b8780fd5b6104c890863d88116104665761045881836107ad565b508a6102a7565b6104e2826104dd838c610809565b610832565b91348311610530575050606435811061050a578a9b9260648b9c96959389939a9d8e95610278565b885162461bcd60e51b81528087018890526001818d0152601360fa1b6044820152606490fd5b6105429399506104dd91925034610809565b9560443587106105615791858a9b9260648b9c9695349a9d8e95610278565b875162461bcd60e51b81528086018790526001818c0152601560fa1b6044820152606490fd5b610260565b915091506060813d82116105d6575b816105a8606093836107ad565b810103126105d25780518a8983015192015163ffffffff8116036105ce5790918e610257565b8b80fd5b8a80fd5b3d915061059b565b8a513d8d823e3d90fd5b895162461bcd60e51b8152808801899052601e818e01527f4b6f7274616e614c6962726172793a20504149525f4e4f545f464f554e4400006044820152606490fd5b61064a9150893d8b11610650575b61064281836107ad565b8101906107e5565b8e610229565b503d610638565b50508a5162461bcd60e51b81528089018a9052601c818f01527f4b6f7274616e614c6962726172793a205a45524f5f41444452455353000000006044820152606490fd5b85836101e1565b508a5162461bcd60e51b81528089018a90526023818f01527f4b6f7274616e614c6962726172793a204944454e544943414c5f41444452455360448201526253455360e81b6064820152608490fd5b516364e329cb60e11b81526001600160a01b03808716928201928352871660208301529497508492918391829060400103925af190811561075c578c9161073f575b5092888e8d8a8e6101c6565b6107569150893d8b116106505761064281836107ad565b8e610733565b8b513d8e823e3d90fd5b61077e919950853d87116106505761064281836107ad565b97386101bc565b62461bcd60e51b8152602084820152600189820152604560f81b6044820152606490fd5b8480fd5b90601f8019910116810190811067ffffffffffffffff8211176107cf57604052565b634e487b7160e01b600052604160045260246000fd5b9081602091031261080457516001600160a01b03811681036108045790565b600080fd5b8181029291811591840414171561081c57565b634e487b7160e01b600052601160045260246000fd5b811561083c570490565b634e487b7160e01b600052601260045260246000fd5b9081602091031261080457518015158103610804579056fea2646970667358221220803717fd65c8f576699373207e2f2dbceae9e8be76f8f8ab7138230b004865a464736f6c63430008140033",
  "linkReferences": {},
  "deployedLinkReferences": {}
}